:100000000C947A020C94C1020C94C1020C94C102AB
:100010000C94C1020C94C1020C94C1020C94C10254
:100020000C94C1020C94C1020C94FA210C94CC22C1
:100030000C9426190C94C1020C94C1020C94C102B8
:100040000C94C1020C94C1020C94C1020C94C10224
:100050000C94C1020C948E190C94C1020C94C10230
:100060000C94C1020C94C1020C94C1020C94C10204
:100070000C94C1020C94C1020C94C1020C94C102F4
:100080000C94C1020C94C1020C94C1020C94C102E4
:100090000C94C1020C94C1020C94C1020C94C102D4
:1000A0000C94C1020C94C1020C94C1023B043D04A7
:1000B00048043F0441044304450447044A044C04F3
:1000C0004E045904500452045404560458045B046A
:1000D000B20EB20EE40EE40E220F400FA610A610D0
:1000E000820FA610251025109610A610A6109F109E
:1000F00032103210321032103210321032103210F0
:1001000032103210321032103210321032103210DF
:100110004310511058105F106910371137114911F1
:100120004911401149114911491137113711451130
:10013000491149114511392360235824602358245B
:10014000AC23CF235824262435242B0014001A0076
:100150000800150017002900040016000700090018
:100160000A00E1001D001B00060019000500E00068
:10017000E200E30001512C002C001C0018000C00D0
:10018000120013002A000B000D000E000F003300B8
:1001900034001100100036003700380028002C0011
:1001A0002C005000510052004F0035021E001F006D
:1001B0002000210022003A003B003C003D003E00B0
:1001C0003F0001002F00300031002D002E00010003
:1001D00001000100010001000100230024002500AE
:1001E00026002700005C400041004200430044001C
:1001F00045002F003000310049004C00460001004E
:1002000001004A004E004B004D00010001000100BA
:1002100001000100010001000100010001000100D6
:1002200001000100010001000100010001000100C6
:1002300001000100010001000100010001000100B6
:1002400001000100010001000100010001000100A6
:100250000100010001000100010001000100010096
:100260000100010001000100010000000000000188
:100270000101010101010101020202020202020266
:100280000203030303030303030404040404040537
:1002900005050505060606060607070707080808F8
:1002A000080909090A0A0A0A0B0B0B0C0C0C0D0DA4
:1002B0000D0E0E0F0F0F1010111111121213131437
:1002C00014151516161717181819191A1A1B1C1CAD
:1002D0001D1D1E1F1F202021222223242525262705
:1002E0002728292A2B2B2C2D2E2F2F303132333437
:1002F0003536363738393A3B3C3D3E3F4041424344
:1003000044464748494A4B4C4D4F5051525355561D
:1003100057585A5B5C5E5F606263646667696A6CCB
:100320006D6E707173747678797B7C7E8081838446
:1003300086888A8B8D8F91929496989A9B9D9FA187
:10034000A3A5A7A9ABADAFB1B3B5B7B9BBBDBFC18D
:10035000C4C6C8CACCCFD1D3D6D8DADCDFE1E4E654
:10036000E8EBEDF0F2F5F7FAFCFF040330000000D3
:10037000180348006F0075006E006400730074007D
:100380006F006F00740068000000160377006F00B4
:1003900072006C00640073007000610077006E00F2
:1003A00000000403090409023B00020100A0FA094D
:1003B0000400000103010100092111010001224094
:1003C000000705810308000A090401000103000079
:1003D0000009211101000122C0000705820320004D
:1003E0000A1201100100000008EDFE60600100012A
:1003F00002030105010902A10185020901A100050D
:100400000919012905150025019505750181029538
:1004100001750381010501093009311581257F9599
:10042000027508810609381581257F9501750881B7
:1004300006050C0A38021581257F9501750881068D
:10044000C0C005010980A101850316010026030033
:100450001A81002A8300751095018100C0050C09DE
:1004600001A1018504160100269C021A01002A9CA4
:1004700002751095018100C005010906A1018505DD
:10048000050719E029E71500250195087501810286
:100490000508190129059505750191029501750356
:1004A00091010507190029EF1500250195F0750147
:1004B0008102C005010906A101050719E029E71518
:1004C00000250195087501810295017508810105D6
:1004D000081901290595057501910295017503918A
:1004E000010507190029FF150026FF00950675086C
:1004F0008100C00011241FBECFEFDAE0DEBFCDBF08
:1005000004B603FE27C08091190290911A02A091AF
:100510001B02B0911C028730904BA740B04BD1F426
:100520001092190210921A0210921B0210921C02D1
:1005300014BE84B7877F84BF0FB6F894A8958091C6
:100540006000886180936000109260000FBEE0E060
:10055000F8E3099511E0A0E0B1E0E8E0FAE402C0B8
:1005600005900D92A232B107D9F722E0A2E2B1E0E4
:1005700001C01D92A931B207E1F70E94241F0C941B
:1005800002250C94000081E0089581E008950C9408
:10059000C5020E94BB17811102C00E943F180C9433
:1005A00088070C948A0708950C94D3020C94D40203
:1005B00008950E9425110E94D8022FEF84E39CE049
:1005C000215080409040E1F700C000000C94B41925
:1005D000FF920F931F93CF93DF938C01FC01C08197
:1005E000D18180914C01811113C08281882349F00F
:1005F000CE010E948916F82E682FCE010E94301677
:1006000004C0CE010E945C16F82EBE018F2D04C0DE
:10061000CE010E948916BE010E940F05EC01B801AF
:100620000E94C702882309F4EFC1C93CFCE5DF073B
:1006300009F4C6C0C0F5C23C9CE5D90709F486C0E0
:10064000C0F4C531FCE5DF0778F4C2308CE5D8078B
:1006500008F0EFC0C1159CE5D90709F45CC0C130B2
:10066000DC4509F460C0C3C1C631DC4509F498C15A
:10067000BEC1C53C8CE5D80709F488C050F4C33C22
:10068000ECE5DE0709F46AC0C43CDC4509F472C03D
:10069000AEC1F8018281C73CFCE5DF0709F484C0E4
:1006A00008F47CC087C0C63DECE5DE07B0F4CE3C64
:1006B000FCE5DF0708F0A8C1CB3C8CE5D80709F4BE
:1006C0008FC008F485C0CC3CECE5DE0709F490C08F
:1006D000CD3CDC4509F494C08AC1C93D8CE5D807FE
:1006E00009F443C150F4C73DECE5DE0709F4F3C05B
:1006F000C83DDC4509F412C17AC1CD3D8CE5D8076F
:1007000009F48EC0CE3D9CE5D907C1F0CC3DDC4557
:1007100009F06DC17EC0F8018281882309F474C19B
:100720000E94D90271C1F8018281882309F46CC149
:100730008091D00181608093D00166C1F8018281EF
:10074000882309F461C10E943F185EC1F8018281CB
:10075000882309F459C10E940F0B56C1F801828108
:10076000882309F451C10E940A17827261F00E9425
:10077000000B4AC1F8018281882309F445C10E9417
:100780000A178272A1F30E94F20A3EC1F801828127
:10079000882309F439C10E941D0A36C1882309F44F
:1007A00033C10E94400A30C1882309F42DC10E9440
:1007B000600A2AC1882309F427C10E94800A24C143
:1007C000F8018281882309F41FC10E94A00A1CC17C
:1007D000F8018281882309F417C10E94C00A14C15C
:1007E000F8018281882309F40FC10E946F090CC1AE
:1007F000F8018281882309F407C10E94840904C199
:10080000F8018281882309F4FFC081E00E94030B74
:10081000FBC0F8018281882309F4F6C080E006C09D
:10082000F8018281882309F4EFC082E00E94C11F91
:10083000EBC0F8018281882309F4DEC00E94BB1757
:10084000811102C00E943F180E94D81790E0909337
:100850000B0280930A02FE01E350FC45E231F105F0
:1008600030F4EA5AFF4F80910A020C94B42480912C
:100870000A02816027C0826025C0846023C0806135
:1008800021C080621FC080641DC080681BC084605E
:10089000886018C08E7F16C08D7F14C08B7F12C0F9
:1008A0008F7E10C08F7D0EC08F7B0CC08F770AC0EB
:1008B0008B7F877F07C087FB222720F991E0922753
:1008C00090FB87F980930A0280910A020E94DC174C
:1008D0000E94251199C0F8018281882351F010925D
:1008E00027010E945819909324018093230182E0EC
:1008F00022C08091270181110FC080912301909126
:1009000024010E946419883C910530F486E20E941B
:10091000E90C86E20E94070E82E024C0F801828181
:10092000882361F0109228010E94581990932601A3
:100930008093250180E20E946F0E66C0809128019D
:1009400081110FC080912501909126010E946419A8
:10095000883C910530F487E20E94E90C87E20E940E
:10096000070E80E20E94760E4FC0F801828181114D
:10097000D9CF809128018111F4CF809125019091E8
:1009800026010E946419883C910558F780E20E9474
:10099000760E88E20E94E90C88E20E94070E34C0BD
:1009A0000E940A17982FF80182812091000130914E
:1009B0000101882379F09A7A81E009F480E080933C
:1009C0002201911102C069E201C065E3C9010E94E0
:1009D000A7180AC080912201811102C069E201C0FA
:1009E00065E3C9010E94B2180E9458170DC081E04A
:1009F0008093270180932801C801DF91CF911F9137
:100A00000F91FF900C94C30280E0DF91CF911F9172
:100A10000F91FF90089580E090E00895089520E3FD
:100A2000829FC0011124FC0126E0729FE00DF11DA0
:100A30001124E60FF11DEE0FFF1FE65BFE4F8591BF
:100A400094910895880F991FFC01E659FD4F8591F7
:100A500094910895CF93DF930E940F050E94E606BC
:100A6000EC018115904508F041C0C11580E4D8071C
:100A700008F028C1C83ED10510F5C03ED10508F0E8
:100A8000A1C1C83AD10578F4C53AD10508F0A2C091
:100A9000C130D10509F496C108F447C1C430D1056D
:100AA00008F090C142C1CF3BD10508F49EC0C03CC4
:100AB000D10508F43AC1CE01805C9109F5C0C11599
:100AC00090E2D90758F4C11521E0D20708F07AC1A5
:100AD000C03FD10508F429C1D06574C1C11580E3B8
:100AE000D80708F0E5C0CE019F70DEC0C11595E5BE
:100AF000D90708F043C0C11524E5D20708F0F9C0B2
:100B0000C11582E5D80708F5C11591E5D90708F0A8
:100B1000DCC0CE0174E0969587957A95E1F78370F5
:100B20009C2F937021E030E002C0220F331F9A9572
:100B3000E2F73C68382BCF70C695C69580E2C89F17
:100B4000E0011124C22BD32B3DC19E01237033271A
:100B50008C2F86958695C115D34508F0BBC0C1E0A2
:100B6000D0E002C0CC0FDD1F2A95E2F720E2829F81
:100B7000C0011124C82BD92BDC6824C1C11529E57B
:100B8000D207A0F4C11588E5D80708F0B7C0C11591
:100B900096E5D90708F0C9C08C2F0E9462078F71B3
:100BA000C82FD0E0DC2FCC27D0620CC1C1152AE5BC
:100BB000D20708F4A8C0CE0190568115904208F0E3
:100BC000B4C08D2F8F710E946207DD27D0628F71B4
:100BD000D82BF8C0C53AD10509F4AAC0C63AD10548
:100BE00009F0A9C0C2E8D0E4EDC0C83AD10509F4C3
:100BF000A5C0C93AD10509F4A4C0CA3AD10509F47F
:100C0000A3C0CB3AD10509F4A2C0CC3AD10509F46E
:100C1000A1C0CB3BD10509F4A0C0CC3BD10509F460
:100C20009FC0CD3AD10509F49EC0C03BD10509F45F
:100C30009DC0CE3AD10509F49CC0CF3AD10509F444
:100C40009BC0C13BD10509F49AC0C23BD10509F450
:100C500099C0C33BD10509F498C0C43BD10509F440
:100C600097C0C53BD10509F496C0C63BD10509F430
:100C700095C0C73BD10509F494C0C83BD10509F420
:100C800093C0C93BD10509F492C0CD3BD10509F40D
:100C900091C0CE3BD10509F490C0CA3BD10509F4FF
:100CA0008FC0C0E0D4E48EC00E942205EC018AC04F
:100CB000CE019927D3FF03C0EC01D86C83C0EC01AF
:100CC000D06C80C0DF70D06A7DC0DC2FCC27C16FB4
:100CD000D06A78C0C1E0D0E002C0CC0FDD1F2A95F9
:100CE000E2F720E2829FC0011124C82BD92BDA68D9
:100CF00069C0DC2FCC27C46FD06A64C0DC2FCC273E
:100D0000C06FD06A5FC08C2F8F700E94620794E022
:100D1000D695C7959A95E1F7CF70D0E0DC2FCC2718
:100D2000D06A8F70806EC82B4DC0C0E0D0E04AC042
:100D3000C1E8D0E447C0C3E8D0E444C0C2EED4E484
:100D400041C0C9EED4E43EC0CAEED4E43BC0C5EB1A
:100D5000D4E438C0C6EBD4E435C0C3EBD4E432C02D
:100D6000C4EBD4E42FC0C7EBD4E42CC0CCECD4E467
:100D700029C0CDECD4E426C0C3E8D5E423C0CAE83A
:100D8000D5E420C0C2E9D5E41DC0C4E9D5E41AC049
:100D9000C1E2D6E417C0C3E2D6E414C0C4E2D6E48C
:100DA00011C0C5E2D6E40EC0C6E2D6E40BC0C7E26D
:100DB000D6E408C0CFE6D4E405C0C0E7D4E402C05E
:100DC000CAE2D6E4CE01DF91CF9108958238910531
:100DD00049F1B0F48133910509F459C048F48932DE
:100DE000910509F44FC08A32910509F455C0089560
:100DF0008533910509F441C08933910599F008952F
:100E0000833E910531F138F4803E910591F0823EA8
:100E10009105A9F00895863E910501F1873E91055F
:100E200039F1089520910A0220FD3BC021FD39C00F
:100E3000089580910A0280FF34C089E341C0809107
:100E40000A0282FF30C080910A0284FD2EC083EE28
:100E500037C080910A0282FD26C0F5CF80910A0238
:100E600083FF25C080910A0284FD1FC087EE28C041
:100E700080910A0283FD1BC0F5CF80910A0285FD97
:100E800018C019C080910A0285FD15C012C080915A
:100E90000A0286FD12C013C080910A0286FD0FC0AF
:100EA0000CC080EE0DC082EE0BC080E009C086EE63
:100EB00007C089E205C085E303C08AE201C081E37F
:100EC00090E0089590910A0292FF0DC0282F28719A
:100ED000283019F4877F846006C0282F24712430BD
:100EE00011F48B7F886093FF0DC0282F2871283163
:100EF00019F4877E846106C0282F2471243111F4EF
:100F00008B7E886194FD877E089508950C948507F3
:100F10000C9486070C948507CF93DF93A9E1B1E089
:100F200041E251E061E070E08D91E82FE295EF70D1
:100F3000F0E091A18F709B0101C0220F8A95EAF722
:100F4000822F8095892381A34A175B0769F7A3E164
:100F5000B1E049E151E061E070E08D91E82FE29568
:100F6000EF70F0E021A18F70EB0102C0CC0FDD1F0C
:100F70008A95E2F7CE019C2F9095922391A392A19E
:100F8000892B82A34A175B0741F7E1E3F1E0A9E26D
:100F9000B1E089E391E011921D928E179F07D9F776
:100FA00088E00E947008DF91CF910C94C9022F92C3
:100FB0003F925F926F927F928F929F92AF92BF9279
:100FC000CF92DF92EF92FF920F931F93CF93DF9315
:100FD00099E1292E91E0392EA1E3B1E029E3C22E57
:100FE00021E0D22E20E001E010E05D013C911C9256
:100FF000E10189911E01E82FE295EF70F0E091A1E7
:101000008F70A80101C0440F8A95EAF7892F842BBD
:1010100081A382A1742E7094872182A3D0EADA95ED
:10102000F1F783E1E82E81E0F82E60E070E0E7015F
:1010300069907E01862D82958F7090E0EC0188A0EA
:101040005C90912C962D9F7002C0959487949A95F0
:10105000E2F780FC08C0902F062E01C0990F0A9479
:10106000EAF7892F01C080E085298C936F5F7F4F5D
:1010700066307105E1F681A1782271A282A1482B28
:1010800042A3119681E0F5019081931301C080E0A5
:10109000282BCA16DB0609F0A8CF48E069E271E008
:1010A00081E391E00E9471080E94D10281E0DF910A
:1010B000CF911F910F91FF90EF90DF90CF90BF9055
:1010C000AF909F908F907F906F905F903F902F9008
:1010D0000895E82FF0E0E75DFE4F808108950895C0
:1010E0000895FF920F931F93CF93DF938C01F62EF9
:1010F000D72FC42F222349F081E080933B010E9427
:10110000581990933A018093390180913B018823CB
:10111000C1F08091390190913A010E9464190697BB
:1011200080F0EF2DFD2FD8014C2F50E0CD01801B1A
:10113000910B841795071CF48D918193F7CF109232
:101140003B01DF91CF911F910F91FF900895EF9296
:10115000FF920F931F93CF93DF93E901662309F466
:101160004BC0242F30E0EFEFF0E0E61BF109B901AE
:10117000E69F9001E79F300DF69F300D1124232F3D
:101180008B01031B11095CE3E52EF12CB7010E94D2
:101190008C24FB01BC01069FC001079F900D169F88
:1011A000900D1124B7010E948C24E230F105B1F0BA
:1011B00040F4309779F0319711F5832F242F461B97
:1011C00021C0E430F105A1F068F03597C1F4842F17
:1011D000861B18C0832F262F230F14C0862F830F42
:1011E000E42F03C0E42FE61B842F432F2E2F0AC0C9
:1011F000842F462F430F06C0842F242F03C080E086
:1012000020E040E0E42FF0E0E659FD4F4491E22F6A
:10121000F0E0E659FD4F9491E82FF0E0E659FD4FDC
:10122000E49149839883EA83DF91CF911F910F91D5
:10123000FF90EF9008958091FF01982F96959F73EE
:10124000913021F0817882608093FF013091FF011D
:10125000432F441F4427441F20910002522F550F53
:10126000852F842B27FB992790F9893641E0940735
:101270007CF068E671E00E94A02480FB37F930938F
:10128000FF0186952078822B90FB87F980930002DE
:10129000089588E090E00C94C224CF92DF92EF9200
:1012A000FF926B017C010E941B09B701A60188E037
:1012B00090E0FF90EF90DF90CF900C94E024EFEF60
:1012C000F1E083E08083109200028FEF82838383BA
:1012D000148260817181828193810C944D09809187
:1012E000030290E001968430910514F083E090E0D1
:1012F000809303026091FF017091000280910102CE
:10130000909102020C944D098091030290E00197A4
:1013100097FF02C080E090E08430910514F083E0F4
:1013200090E0809303026091FF0170910002809130
:101330000102909102020C944D0960E070E084E09B
:1013400092E00C94820BEFEFF1E080818E7F80833E
:1013500060817181828193810E944D092FEF80E726
:1013600092E0215080409040E1F700C000000C94D2
:101370009D09DF92EF92FF920F931F93CF93DF931C
:1013800000D01F92CDB7DEB73091FF0130FF31C0E2
:10139000D22E042FF62EE92E182F3E77323051F43C
:1013A0009E012F5F3F4F0E94A7088091FF0180FDA3
:1013B0000E949D098091FF0110FB87F98093FF0136
:1013C0001695809100028078182BE0FA17F9109397
:1013D0000002F092010200930202DD2051F06091C0
:1013E000FF017091000280910102909102020E941F
:1013F0004D090F900F900F90DF91CF911F910F919A
:10140000FF90EF90DF900895282FEFEFF1E030810B
:10141000331F3327331F40910002542F550F852F60
:10142000832B47FB992790F90A9668E671E00E94A2
:10143000A024438162810C94B90981E00C94040AD0
:10144000282F3091FF01331F3327331F40910002B3
:10145000542F550F852F832B47FB992790F98A30FE
:1014600091051CF4825A9E4F05C00A9768E671E008
:101470000E94A02440910202609101020C94B909DB
:1014800081E00C94200A60910102262F30E02F3E6B
:10149000310514F46F5E01C06FEF3091FF01331F0F
:1014A0003327331F90910002592F550F97FB99272F
:1014B00090F9282F40910202852F832B0C94B909B3
:1014C00081E00C94430A60910102262F30E0213123
:1014D000310514F0615101C060E03091FF01331F0C
:1014E0003327331F90910002592F550F97FB9927EF
:1014F00090F9282F40910202852F832B0C94B90973
:1015000081E00C94630A40910202242F30E02F3EC8
:10151000310514F44F5E01C04FEF3091FF01331FCE
:101520003327331F90910002592F550F97FB9927AE
:1015300090F9282F60910102852F832B0C94B90913
:1015400081E00C94830A40910202242F30E0213183
:10155000310514F0415101C040E03091FF01331FCB
:101560003327331F90910002592F550F97FB99276E
:1015700090F9282F60910102852F832B0C94B909D3
:1015800081E00C94A30A20E00C94B9098091FF013A
:1015900080FF23C0817882608093FF01662351F031
:1015A0006091FF017091000280910102909102020E
:1015B0000E944D098091FF01881F8827881F909104
:1015C0000002292F220F97FB992790F940910202E0
:1015D00060910102822B0C94C30A0895682F81E068
:1015E0000C94C60A81E00C94EE0A682F9091FF01DA
:1015F00096959F738FEF890F09F481E00C94C60ACA
:1016000081E00C94F50A61E00C94C60AEFEFF1E07A
:1016100080818160808386958F730C94030B809109
:10162000FF0180FD0C94A3090C94060B60E00C9460
:10163000C60A80913C01811132C08091D001816045
:101640008093D0010E94BB17811104C00E943F18F3
:101650000E945F090E9449096093FF017093000294
:1016600080930102909302026E7761F40E945F09F9
:101670000E9449096093FF01709300028093010268
:10168000909302020E941B098091FF0180FF04C019
:1016900086958F730E94160B81E080933C0108951C
:1016A00021B3342F3095232331B3432B3FB7F89424
:1016B000FC01680F791FE617F70789F0819198E020
:1016C00041BB000000C087FF21BB880F000000C0A5
:1016D00000C000C021BB00C09A9591F7ECCF3FBF7E
:1016E000089520B3242B20BB9B01220F331F620FD0
:1016F000731F0E94500B87EC90E00197F1F700C038
:101700000000089542E00C94710B90934201809385
:1017100041010895E0914101F0914201309721F09B
:101720000190F081E02D099480E00895E09141015D
:10173000F0914201309799F020911201222359F043
:1017400020910A0227FF07C0DC012C9111962C93EF
:10175000119725E02C930280F381E02D09940895E0
:10176000E0914101F0914201309739F022E0DC0133
:101770002C930480F581E02D0994089520913F0178
:10178000309140012817390771F090934001809300
:101790003F01E0914101F0914201309721F0068034
:1017A000F781E02D0994089520913D0130913E018B
:1017B0002817390771F090933E0180933D01E09125
:1017C0004101F0914201309721F00084F185E02D34
:1017D0000994089585B7806885BF85B7806885BFFF
:1017E000089508950C94F10B0C94F20B0C94F10BEA
:1017F0000C94F10B0E94EA0B0E94F60B0C94F40B74
:1018000081E008950E944F190E948C070E941C1AC3
:101810000E94190B0C94F80BBF92CF92DF92EF92BB
:10182000FF920F931F93CF93DF93CDB7DEB72A9725
:101830000FB6F894DEBF0FBECDBF0E94D7070E943F
:10184000000C811111C08FEF89838A831B820E9453
:1018500058198160782F9D838C8349815A816B81CF
:101860008D810E94B50C54C084E4C82E81E0D82E2E
:1018700000E010E0B02E802F0E946908E82EF601EB
:1018800021916F01F82EF22631F40F5F1F4F0830BF
:10189000110581F7D8CF8091D00181FD0E946F089A
:1018A00080E090E02F2D30E0482FB901082E02C0D3
:1018B000759567950A94E2F760FF25C08E83BF8215
:1018C00081E090E06C0102C0CC0CDD1C4A95E2F78F
:1018D0002E2D30E02C213D21232B09F480E0888738
:1018E0000E9458198160782F9A8789874E815F817D
:1018F00068858A850E94B50CF801EC5BFE4F8081FB
:101900008C25808305C001968630910569F6BDCF90
:101910000E94BF1C0E948A0B909143018917A9F075
:101920000E948A0B809343012A960FB6F894DEBF7B
:101930000FBECDBFDF91CF911F910F91FF90EF9020
:10194000DF90CF90BF900C94D6022A960FB6F894F1
:10195000DEBF0FBECDBFDF91CF911F910F91FF90E2
:10196000EF90DF90CF90BF900895CF93DF93CDB7E6
:10197000DEB72B970FB6F894DEBF0FBECDBF4F83F7
:10198000588769877A878B87DE01119686E0FD018B
:1019900011928A95E9F785E0FE01379601900D9244
:1019A0008A95E1F749815A816B817C818D819E8185
:1019B0000E94F5132B960FB6F894DEBF0FBECDBF75
:1019C000DF91CF910895FC01808191810E94CB1617
:1019D0000895882309F41AC18238C1F40E948A0B41
:1019E00081FD14C169E380910001909101010E9481
:1019F000A7180E9458172FEF81EE94E021508040E5
:101A00009040E1F700C0000069E319C08338F9F4A1
:101A10000E948A0B80FDFAC063E5809100019091DD
:101A200001010E94A7180E9458172FEF81EE94E041
:101A3000215080409040E1F700C0000063E58091B4
:101A40000001909101010E94B2180C94581784383B
:101A5000C1F40E948A0B82FDD9C067E48091000125
:101A6000909101010E94A7180E9458172FEF81EE54
:101A700094E0215080409040E1F700C0000067E40E
:101A8000DECF9CEF980F913A40F4682F80910001CF
:101A9000909101010E94A718D8CF90E2980F98303A
:101AA00050F4877091E001C0990F8A95EAF7892F69
:101AB0000E940D17CACF9BE5980F933070F4853ABA
:101AC00029F0863A31F083E890E005C081E890E0A3
:101AD00002C082E890E00C94BE0B98E5980F973115
:101AE00008F08EC0883A09F445C0893A09F445C027
:101AF0008A3A09F445C08B3A09F445C08C3A09F496
:101B000045C08B3B09F445C08C3B09F445C08D3A78
:101B100009F445C0803B09F445C08E3A09F445C03C
:101B20008F3A09F445C0813B09F445C0823B09F472
:101B300045C0833B09F445C0843B09F445C0853B5F
:101B400009F445C0863B09F445C0873B09F445C00C
:101B5000883B09F445C0893B09F445C08D3B09F435
:101B600045C08E3B09F445C08A3B09F445C080E07E
:101B700090E044C082EE90E041C089EE90E03EC02B
:101B80008AEE90E03BC085EB90E038C086EB90E0B9
:101B900035C083EB90E032C084EB90E02FC087EB40
:101BA00090E02CC08CEC90E029C08DEC90E026C039
:101BB00083E891E023C08AE891E020C082E991E0C7
:101BC0001DC084E991E01AC081E292E017C083E26F
:101BD00092E014C084E292E011C085E292E00EC06F
:101BE00086E292E00BC087E292E008C08FE690E0C8
:101BF00005C080E790E002C08AE292E00C94D40B2A
:101C0000803F20F00E94C71B0C94B41C08958823C9
:101C100009F464C0823879F40E948A0B81FF5EC0A7
:101C200069E380910001909101010E94A7180E9430
:101C3000581769E310C08338B1F40E948A0B80FF03
:101C40004DC063E580910001909101010E94A718A9
:101C50000E94581763E580910001909101010E9454
:101C6000B2180C945817843879F40E948A0B82FFBA
:101C700035C067E480910001909101010E94A7188E
:101C80000E94581767E4E7CF9CEF980F913A10F441
:101C9000682FE1CF90E2980F983050F4877091E070
:101CA00001C0990F8A95EAF7892F0E941317D9CF9F
:101CB0009BE5980F933020F480E090E00C94BE0BED
:101CC00098E5980F973120F480E090E00C94D40BC5
:101CD000803F20F00E942F1C0C94B41C0895882390
:101CE00021F00E940D170C9458170895882321F0B5
:101CF0000E9413170C94581708958F929F92AF92D9
:101D0000BF92DF92EF92FF920F931F93CF93DF93D7
:101D10007C01D62FC72FFC01058102950F7012811F
:101D200011110E942A170E940317882379F01123AA
:101D300069F080E28D0F883048F082E00E94A2179F
:101D40000E94031791E0D82ED92601C0D12CBC2EB9
:101D5000B2948FE0B8228B2D90E0FC01E859FF4F40
:101D60000C94B4248C2F807FCF70882311F0C295FF
:101D7000C07F112399F0CC2309F4C3C180E28D0FF9
:101D8000883010F0D11104C08C2F0E940D1703C0B1
:101D90008C2F0E941D170E945817B3C18D2F0E94CF
:101DA000070ECC2309F4D2C180E28D0F883010F0E9
:101DB000D11104C08C2F0E94131703C08C2F0E94D6
:101DC00023170E945817C2C18C2F807FCF7080329A
:101DD00011F0C295C07FDD2319F0D130C9F022C0C7
:101DE000112371F0002341F0013031F40E943D17BE
:101DF0008C2B0E944517AAC10E943D178C2B3AC11B
:101E0000002319F0013009F4A1C10E944E1718C037
:101E1000112321F0063008F099C10EC0053008F0FA
:101E200095C10EC0112351F0002331F0F7018581D7
:101E300080FF67C18F7085838C2F1CC1011172C117
:101E40008C2F1EC18C2F86958695837019F081305A
:101E500061F07CC1112321F08D2F9C2F937002C063
:101E600080E090E00E94BE0B7EC1112321F08D2FF7
:101E70009C2F937002C080E090E00E94D40B73C14D
:101E80001123F9F0D53F51F0D63F71F0D43FA9F4BA
:101E9000809104029091050281600BC08091040240
:101EA00090910502826005C0809104029091050224
:101EB000846090930502809304028D2F0E94C71BBB
:101EC0001EC0D53F51F0D63F71F0D43FA9F48091A8
:101ED0000402909105028E7F0BC0809104029091C4
:101EE00005028D7F05C080910402909105028B7FD1
:101EF00090930502809304028D2F0E942F1C0E9454
:101F0000B41C31C18C2F837009F04CC0111127C152
:101F10002D2F229526952770220F220F6D2F6F707F
:101F2000862F90E0A0E0B0E04C015D01022E04C0DD
:101F3000880C991CAA1CBB1C0A94D2F7D4FF12C0AF
:101F40008FE090E0A0E0B0E004C0880F991FAA1FC6
:101F5000BB1F2A95D2F7BC01CD0160957095809585
:101F6000909503C060E070E0CB01C695C695C37044
:101F7000C23051F080F4682979298A299B29C1301F
:101F800071F00E944615EBC0682979298A299B299E
:101F90000E945815E4C00E944615C501B4010E9474
:101FA0003415DDC0112319F08C2F817001C0869586
:101FB000882309F4D4C02D2F229526952770220F4F
:101FC000220F6D2F6F70862F90E0A0E0B0E04C01E3
:101FD0005D01022E04C0880C991CAA1CBB1C0A942B
:101FE000D2F7D4FF12C08FE090E0A0E0B0E004C0D0
:101FF000880F991FAA1FBB1F2A95D2F7BC01CD01DC
:10200000609570958095909503C060E070E0CB017D
:10201000C695C695C370C23051F080F468297929FD
:102020008A299B29C13071F00E940B1698C068293B
:1020300079298A299B290E941D1691C00E940B169E
:10204000C501B4010E94F9158AC08D2F90E0FC01F2
:10205000E05EF109E531F10508F04FC0E858FF4FA7
:102060000C94B424DF708C2F8F71112331F00E94F7
:1020700092158D2F0E946F0E69C00E94B3158D2F8F
:102080000E94760E63C0112341F0053008F05EC057
:102090008C2F8F710E94D81559C0063008F056C099
:1020A000F7CF112339F08C2F8F710E9492154EC0FB
:1020B0001123C9F38C2F8F710E94B31547C01123D0
:1020C00029F08C2F8F710E947D1540C00E947815D9
:1020D0003DC0112349F0CF718C2F0E94921563E00F
:1020E0008C2F0E948D1732C081E00E94A21702300F
:1020F00068F182E00E94A21729C0112331F0002369
:1021000091F28D2F0E94E90C21C0002399F2D9335E
:1021100049F4FFEF27EE83E0F15020408040E1F7E3
:1021200000C000008D2F0E94070E10C04C2F4F7072
:102130006D2FC7010E940B050E94A31414C04C2FE1
:102140004F706D2FC7010E940E050DC098E0B916A3
:1021500031F0B91640F086EF8B0D823020F40E94EA
:102160008A0B0E94D602DD20E1F00E94FF1680FD5E
:1021700018C0F70112820E94F9160E949215C70139
:102180000E94DD100E94F916DF91CF911F910F91EF
:10219000FF90EF90DF90BF90AF909F908F900C9446
:1021A000B315DF91CF911F910F91FF90EF90DF90CA
:1021B000BF90AF909F908F9008950F931F93CF93F0
:1021C000DF93EC01988189812B813C81232B31F0B5
:1021D0008F3F31F481E09F3F19F403C081E001C0DB
:1021E00080E080FD13C0CE010E94E802882371F0D8
:1021F000688179818A810E94D6168C010E942F16EF
:102200000E942015B801CE010E947D0EDF91CF9172
:102210001F910F9108950E942A170E943A170E9459
:1022200058170E94561D0E94B41C80E090E00E9446
:10223000BE0B80E090E00C94D40B80910001909153
:1022400001010E94BD180C940B110E941A170C94E6
:102250001D11E92FE295EF704E2F50E0FA013297F1
:10226000EE30F105B0F4E357FF4F0C94B424803FF7
:1022700091F018F4803E68F40EC0843F51F40BC016
:10228000803E48F0813F29F406C093FB882780F9FF
:10229000089580E0089581E008950E94CB160E9481
:1022A00029110895CF93DF9300D000D01F92CDB7AE
:1022B000DEB70F900F900F900F900F90DF91CF919E
:1022C0000895CF93DF9300D000D000D0CDB7DEB714
:1022D00026960FB6F894DEBF0FBECDBFDF91CF912B
:1022E00008951F93CF93DF93C0914D0116E0809125
:1022F0004E01C81799F0D0E01C9FF0011D9FF00D12
:102300001124E15BFE4F40815181628173818481A0
:1023100095810E9461112196C770E9CFDF91CF911D
:102320001F91089540917F0150918001609181013A
:102330007091820180918301909184010C946111CC
:10234000CF938091840182958F7009F05FC0809156
:102350008101882309F45AC080914D01B0914E014A
:1023600070917F01A0918001409182015091830181
:1023700091E07F3F09F090E0692FC6E08B1709F4E8
:1023800045C04115510521F0AF3F21F020E003C0C9
:1023900021E001C0262F90E020FD35C0C89FF0014C
:1023A000C99FF00D1124E15BFE4F21812A132BC040
:1023B0002081271328C02281211125C02381348147
:1023C0002417350710F421503109241B350B283C04
:1023D0003105C8F4209184012F702061209384017D
:1023E00026E0289FF001299FF00D1124EC5AFE4FA2
:1023F00080818F70806180838FE791E00E94DD1083
:10240000CF910C94711101968770B8CFCF91089538
:10241000AF92BF92CF92DF92EF92FF920F931F93F2
:10242000CF93DF93CDB7DEB761970FB6F894DEBFD9
:102430000FBECDBF8C0185E0F801DE011D96019035
:102440000D928A95E1F7D8014C9111965C91119704
:102450001296EC9030917F01609180018091820111
:1024600090918301009731F06F3F31F421E03F3FBD
:1024700019F403C021E001C020E0B22FB170BB2EDF
:1024800020FD60C1F801C380D480A0908101AA2002
:1024900009F4EEC020918401C816D90628F0D601AF
:1024A000A81BB90BCD0104C0809590958C0D9D1D86
:1024B000FF24F394883C910580F0F12C207F09F0F3
:1024C0009CC07C2DD98AC88A6E2D89890E945211A0
:1024D0008FE791E00E94DD102DC1822F807F09F0EF
:1024E00054C0561314C0431312C0FE2CE1100FC089
:1024F0002F702061209384010E9492118FE791E058
:102500000E94DD1080918401F80185835CC1CD2893
:1025100031F05F3F31F481E04F3F19F403C081E0B7
:1025200001C080E080FD03C081E08E2502C080E014
:1025300090E0F82FF170FF2E80FF1CC080914D01BC
:1025400020914E0136E0821709F41AC190E0389FBD
:10255000F001399FF00D1124E15BFE4F61815613AC
:1025600006C06081461303C06281E61203C0019673
:102570008770E9CFFE2CEE2009F425C180918401FB
:10258000816080938401F12C1EC1561309C043134E
:1025900007C0E11005C080918401F8018583A4C0C3
:1025A0004D875E878D859E850E944D11882379F128
:1025B000EE2069F120918401822F82958F7090E046
:1025C000029774F080917F019091800198878F83AA
:1025D0001986DB86CA862C87CE0107960E94DD10FD
:1025E00086E0F801AFE7B1E001900D928A95E1F73E
:1025F0000E94A0110E9492110DC0561771F04D87D4
:102600005E878D859E850E944D1181111AC0C8017B
:102610000E94DD10FF24F394D6C04313F0CFE110E5
:10262000EECF80918401F8018583C8010E94DD10FE
:1026300086E0EFE7F1E0DF011D928A95E9F7FA2CD9
:10264000C2C0EE2021F320918401822F82958F70E9
:1026500090E002972CF280917F01909180019A8303
:1026600089831B82DD82CC822E83CE010196B6CF78
:10267000C816D90628F0F601E81BF90BCF0104C0F3
:10268000809590958C0D9D1D883C910548F0F12C0E
:102690007C2DD98AC88A6E2D89890E9452114AC020
:1026A000FE2CEE2009F4B3CF561333C0431331C0D0
:1026B0002091840120FD24C0822F82958F70482FA5
:1026C00050E041155105E1F0D80115962C9315976E
:1026D0004F30510549F08F5F982F9295907F822F50
:1026E0008F70892B15968C93C8010E94DD1086E0AF
:1026F000F801AFE7B1E001900D928A95E1F73DC096
:1027000086E0F801AFE7B1E001900D928A95E1F71C
:102710005AC04D875E878D859E850E944D1181111F
:102720005FCF80918401816080938401C8010E9401
:10273000DD1049C0EFE7F1E086E0DF011D928A95E8
:10274000E9F71BC0EE2009F462CF4D875E878D85C7
:102750009E850E944D11F82E882309F458CF86E0FB
:10276000F801AFE7B1E001900D928A95E1F78FE7AC
:1027700091E00E94E30C0E94A0110E94921123C0DC
:102780004D875E878D859E850E94CB16292F2295C9
:102790002F70223028F49F7039F0811105C00BC0D2
:1027A000243028F49F7049F4805E883020F0C801FE
:1027B0000E94DD10BF2CFB2C06C0D80115969C9101
:1027C000907F91F7F8CF8F2D61960FB6F894DEBF0A
:1027D0000FBECDBFDF91CF911F910F91FF90EF9072
:1027E000DF90CF90BF90AF9008951F93CF93DF936A
:1027F000CDB7DEB72C970FB6F894DEBF0FBECDBFB6
:102800004F83588769877A878B879C87CE01079685
:102810000E9408128823D1F09F8188852A853B85F4
:10282000232B31F08F3F31F481E09F3F19F403C037
:1028300081E001C080E080FD47C04F8158856985F7
:102840007A858B859C850E9461113EC086E0FE01E1
:102850003796DE01119601900D928A95E1F7FF817E
:10286000E8856A857B856115710531F0EF3F31F4AC
:1028700081E0FF3F19F403C081E001C080E080FDEA
:1028800023C020914E0130E0C9010196877099273D
:1028900040914D0150E084179507F1F1F983EA83E7
:1028A0007D836C8396E0929FD001939FB00D11249D
:1028B000A15BBE4FFE01319601900D929A95E1F712
:1028C00080934E010E94711116E080914D0190910C
:1028D0004E01891771F1189FC0011124815B9E4F31
:1028E0000E940812882329F1E0914D011E9FF001FA
:1028F0001124E15BFE4F40815181628173818481AB
:1029000095810E94611180914D0190E00196877040
:10291000992780934D01D9CF0E94251110924E0125
:1029200010924D01EFE7F1E086E0DF011D928A95FC
:10293000E9F72C960FB6F894DEBF0FBECDBFDF913E
:10294000CF911F910895EF92FF920F931F93CF9312
:10295000DF938C01892B09F46CC0F12CEE24E394F5
:10296000E8012196F8018491843740F4843008F01E
:1029700051C0813081F0823019F15BC0853709F494
:1029800044C0A8F19CE7980F903708F052C08F77A9
:102990000E94070E41C00E5F1F4FFE01849190E21E
:1029A000980F983050F48770FE2D01C0FF0F8A9564
:1029B000EAF78F2F0E942D1714C00E94E90C2DC03A
:1029C0000E5F1F4FFE01849190E2980F983060F4E3
:1029D0008770FE2D01C0FF0F8A95EAF78F2F0E94A6
:1029E00033170E94581719C00E94070E16C00E5FB9
:1029F0001F4FFE01C491CC2381F08FE99FE0019726
:102A0000F1F700C00000C150F6CF0E5F1F4FFE016E
:102A1000F49003C00E94E90C8E018F2D882309F4E5
:102A20009FCFEFE9FFE03197F1F700C00000815040
:102A3000F5CFDF91CF911F910F91FF90EF90089507
:102A4000089508950C9421150C9422150E942415C4
:102A50006093A7017093A8018093A9019093AA01A4
:102A60000C940B110C9426150F931F930091A70142
:102A70001091A8012091A9013091AA01602B712B1E
:102A8000822B932B1F910F910C9426150F931F935C
:102A90000091A7011091A8012091A9013091AA01EC
:102AA00060237123822393231F910F910C94261589
:102AB0000F931F930091A7011091A8012091A901E4
:102AC0003091AA0160277127822793271F910F91C8
:102AD0000C9426150C9421150E946A156093A3018D
:102AE0007093A4018093A5019093A6010C940B11FF
:102AF00060E070E0CB010C946C150F931F9341E0E4
:102B000050E060E070E08A019B0104C0000F111FDB
:102B1000221F331F8A95D2F7C901B8011F910F9167
:102B20000C946C150F931F9341E050E060E070E04F
:102B300004C0440F551F661F771F8A95D2F78091F6
:102B4000A3019091A401A091A501B091A6018A01D1
:102B50009B01082B192B2A2B3B2BC901B8011F9174
:102B60000F910C946C150F931F9341E050E060E0BF
:102B700070E004C0440F551F661F771F8A95D2F777
:102B800040955095609570958091A3019091A40116
:102B9000A091A501B091A6018A019B0108231923E8
:102BA0002A233B23C901B8011F910F910C946C1586
:102BB0000F931F9341E050E060E070E004C0440FC9
:102BC000551F661F771F8A95D2F78091A3019091B8
:102BD000A401A091A501B091A6018A019B0108273B
:102BE00019272A273B27C901B8011F910F910C947F
:102BF0006C150F931F930091A3011091A4012091D4
:102C0000A5013091A601602B712B822B932B1F9174
:102C10000F910C946C150F931F930091A3011091C9
:102C2000A4012091A5013091A60160237123822384
:102C300093231F910F910C946C150F931F93009188
:102C4000A3011091A4012091A5013091A601602754
:102C50007127822793271F910F910C946C1508956B
:102C6000292F220F920F990F890FE82FE695E695ED
:102C7000E695877051E001C0550F8A95EAF785E027
:102C8000E89FF0011124EB57FE4F20E030E070E0A8
:102C90004081CB01022E02C0969587950A94E2F7F7
:102CA0008170819584278523842781932F5F3F4FEF
:102CB0002530310569F70895292F220F920F990FBA
:102CC000890F682F669566956695982F977085E0B1
:102CD000689FB001112440E050E080E0FB01E40F68
:102CE000F51FEB57FE4F208130E0092E02C03695CC
:102CF00027950A94E2F721703327042E01C0220F92
:102D00000A94EAF7822B4F5F5F4F4530510531F748
:102D10000895BF92CF92DF92EF92FF920F931F938D
:102D2000CF93DF938C01C090A301D090A401E090D9
:102D3000A501F090A6018091A7019091A801A09112
:102D4000A901B091AA01C82AD92AEA2AFB2ACFE10F
:102D5000D0E0D701C6010C2E04C0B695A795979573
:102D600087950A94D2F780FD04C0219790F7B12C83
:102D700007C0BC2EB8018C2F0E942A050197A9F329
:102D80008B2DDF91CF911F910F91FF90EF90DF90EE
:102D9000CF90BF900895CF93DF93EC010E948916E6
:102DA000BE010E942A05DF91CF9108951F93CF9312
:102DB000DF93EB0190914C01992321F0CB010E940C
:102DC000CB1613C0882349F0CB010E948916182F17
:102DD000682FCE010E94301604C0CB010E945C1601
:102DE000182FBE01812F0E942A05DF91CF911F91DC
:102DF00008958091AB01859585958595089580917D
:102E0000AB01877008959091AB01977081E009F450
:102E100080E008958091CF0108959091CF01892B92
:102E20008093CF01089580959091CF01892380935D
:102E3000CF0108951092CF0108959091CE01892B72
:102E40008093CE01089580959091CE01892380933F
:102E5000CE0108951092CE0108959091CD01892B55
:102E60008093CD01089580959091CD018923809321
:102E7000CD0108951092CD0108958091AC0108957F
:102E800008950C9440170C9441179091AC01981739
:102E900021F08093AC010C94431708958091AC010C
:102EA000882329F01092AC0180E00C944317089518
:102EB000E0910001F09101018091CF018083E091C8
:102EC0000001F091010190818091CE01892B8083D6
:102ED000E0910001F091010190818091CD01892B59
:102EE00080838091AC01882381F0E0910001F09112
:102EF00001019081892B80838091000190910101D3
:102F00000E94411881110E944E17809100019091FA
:102F100001010C94960B0C94401798E0899F900146
:102F20001124262B2093AB010E9492158091AB01B6
:102F30008595859585950C948B171092AB0180E053
:102F40000C948B172091AB01809582238093AB0169
:102F5000982F977079F430E0482F082E000C550B0D
:102F60002417350739F08595859585950E94B31509
:102F70000C949D17089580E090E00E94C82421E001
:102F80008D3E9E4F09F020E0822F089582E090E070
:102F90000C94BA24682F82E090E00C94CE2483E055
:102FA00090E00C94BA24682F83E090E00C94CE2437
:102FB00084E090E00C94BA24682F84E090E00C94B4
:102FC000CE24AB01BC018FE090E00C94E024AB0177
:102FD000BC0183E190E00C94E02460E070E0CB0160
:102FE0000C94E71760E070E0CB010E94E1170C94AD
:102FF000ED176DEE7EEF80E090E00E94EC2460E043
:1030000082E090E00E94CE2460E083E090E00E94A5
:10301000CE241092A7011092A8011092A90110923B
:10302000AA0160E084E090E00E94CE2460E085E0A8
:1030300090E00E94CE2460E086E090E00E94CE24E2
:103040006FEF87E090E00E94CE2440E050E0BA01AC
:1030500088E090E00E94E02460E08DE090E00E9433
:10306000CE2440E050E0BA0188E190E00E94E024E4
:1030700060E087E190E00E94CE240C94F2170C945B
:10308000F917FC01329680911201882331F080916A
:103090000A0287FF02C09EE101C096E080E09150E5
:1030A00028F021912223D9F38F5FF9CF08959C0155
:1030B000FC0132969FEF80E04191461789F09F3FD7
:1030C00019F4411101C0982F8F5F8630A9F79F3FF7
:1030D00039F0F901E90FF11D97FDFA956283089522
:1030E00008959C012A5F3F4FFC014281461301C0B5
:1030F0001282019682179307B9F70895262F269515
:10310000269526952E3168F4FC01E20FF11D6770BB
:1031100021E030E001C0220F6A95EAF78281282B76
:1031200022830895262F2695269526952E3170F414
:10313000FC01E20FF11D677021E030E001C0220FB9
:103140006A95EAF7209582812823228308952091A9
:103150001201222329F020910A0227FD0C947E18E7
:103160000C94571820911201222329F020910A0271
:1031700027FD0C9492180C94711820911201FC01F7
:103180003296222331F080910A0287FF02C08EE13D
:1031900001C086E0DF011D928A95E9F70895089540
:1031A0000C94CF180C94CF18CF930E94D2180E9481
:1031B000D7070E94D018C0E08C2F0E9469088111A7
:1031C00004C0CF5FC830C1F701C081E0CF9108953E
:1031D0000C94CF180C94E8180E94EA188091100201
:1031E000843049F11092D10120E488E190E00FB6DB
:1031F000F894A895809360000FBE2093600080E053
:103200000E94D6020E94EA1883B7817F846083BF40
:1032100083B7816083BF7894889583B78E7F83BF9F
:103220000FB6F894A8958091600088618093600043
:10323000109260000FBE08950C94CF180E942511C3
:103240000E948A0B0E94D6020C941C191F920F92A6
:103250000FB60F9211248F939F93AF93BF938091DA
:10326000D101811113C08091060290910702A091B3
:103270000802B09109024196A11DB11D809306027A
:1032800090930702A0930802B0930902BF91AF91F7
:103290009F918F910F900FBE0F901F90189582E015
:1032A00084BD93E095BD9AEF97BD80936E0008951D
:1032B0002FB7F8948091060290910702A09108021E
:1032C000B09109022FBF0895CF92DF92EF92FF9243
:1032D0000F931F932FB7F894409106025091070265
:1032E00060910802709109022FBF6A017B01EE24F0
:1032F000FF248C0120E030E0C016D106E206F30680
:1033000010F4415051099A01281B390BC9011F9132
:103310000F91FF90EF90DF90CF90089578941F92D7
:103320000F920FB60F9211248F939F93AF93BF9379
:103330008091060290910702A0910802B0910902C3
:103340000196A11DB11D8093060290930702A093E0
:103350000802B0930902BF91AF919F918F910F9096
:103360000FBE0F901F90189581E08093E00080E2DF
:103370008093D8001092C9008FE19EE40197F1F785
:1033800000C0000087E090EBDC018093190290936D
:103390001A02A0931B02B0931C029CE088E10FB6B6
:1033A000F894A895809360000FBE90936000FFCFC3
:1033B000CF92DF92EF92FF920F931F93CF93C0E0D3
:1033C000E82EF12C8C2F0E94690800E010E0C82E36
:1033D000D12CC601002E02C0959587950A94E2F77C
:1033E00080FD06C00F5F1F4F0630110591F70AC020
:1033F000602F7C2F80E00E940F05E816F90691F7F8
:1034000081E004C0CF5FC830E9F680E0CF911F9122
:103410000F91FF90EF90DF90CF900895CF93C82F3A
:103420008CE20E94D819882321F08C2FCF910C9424
:10343000D81980E0CF910895CF930E94BB178111D6
:1034400002C00E943F18C5E6C15049F00E94D7074C
:103450008FE39CE90197F1F700C00000F5CF89E206
:103460000E940E1A81110FC18AE20E940E1A811168
:103470000E943F1885E00E940E1A81110E94B41923
:103480000E94C6178093D00187E00E940E1A8823FD
:10349000A9F18BE10E940E1A882351F08091D0018E
:1034A00081FB222720F991E0922790FB81F90EC041
:1034B0008EE00E940E1A882361F08091D00182FB79
:1034C000222720F991E0922790FB82F98093D00186
:1034D00015C080E10E940E1A9091D001882341F01E
:1034E00093FB222720F981E0822780FB93F904C017
:1034F000892F809580FB90F99093D0018091D00125
:103500000E94CA170E94D81790E090930B028093F4
:103510000A0280EE0E940E1A882341F080910A026E
:10352000982F909590FB80F980930A0289E30E947E
:103530000E1A882359F080910A0281FB222720F974
:1035400091E0922790FB81F980930A0282EE0E941B
:103550000E1A882359F080910A0282FB222720F953
:1035600091E0922790FB82F980930A0286EE0E94F6
:103570000E1A882359F080910A0283FB222720F932
:1035800091E0922790FB83F980930A0283EE0E94D8
:103590000E1A882359F080910A0284FB222720F911
:1035A00091E0922790FB84F980930A0285E30E94C0
:1035B0000E1A882359F080910A0285FB222720F9F0
:1035C00091E0922790FB85F980930A0281E30E94A3
:1035D0000E1A882359F080910A0286FB222720F9CF
:1035E00091E0922790FB86F980930A0281E10E9484
:1035F0000E1A882359F080910A0287FB222720F9AE
:1036000091E0922790FB87F980930A0280910A0249
:103610000E94DC1787E20E940E1AC82F8EE10E94DA
:103620000E1A8111C2608FE10E940E1A8111C460CE
:1036300080E20E940E1A8111C86081E20E940E1A77
:103640008111C06182E20E940E1A8111C06283E280
:103650000E940E1A8111C06484E20E940E1A88230F
:1036600011F0C06802C0CC2329F08C2F0E94D31720
:103670006C2F03C00E94CF17682F70E080E090E0AD
:10368000CF910C943215CF9108958091D40180FF91
:103690000BC06091050185E0689FB001112475950C
:1036A0006795759567952BC081FF09C060910501ED
:1036B00085E0689FB00111247595679520C082FF51
:1036C00007C06091050185E0689FB001112417C013
:1036D0009091D5019923D1F060910401961788F754
:1036E0002091050185E0289F90011124929FA0015F
:1036F000939F500D112470E0CA010E94A0246038ED
:10370000710540F46115710519F406C065E070E0BB
:10371000862F08958FE7089581E008958091D40160
:1037200080FF08C06091030170E0759567957595FD
:10373000679521C081FF06C06091030170E0759517
:10374000679519C082FF04C06091030170E010C04A
:103750009091D501992399F0609102019617A0F7F5
:1037600080910301899FC001112470E00E94A02470
:103770006038710540F46115710519F406C061E007
:1037800070E0862F08958FE7089581E00895803FC7
:1037900021F40E94451B819504C0813F29F40E94B9
:1037A000451B8093D9010895823F21F40E94451B57
:1037B000819504C0833F29F40E94451B8093D80162
:1037C0000895893F19F40E948E1B05C08A3F31F489
:1037D0000E948E1B81958093DA0108958B3F21F41E
:1037E0000E948E1B819504C08C3F29F40E948E1B81
:1037F0008093DB010895843F21F48091D70181609B
:1038000017C0853F21F48091D701826011C0863FA7
:1038100021F48091D70184600BC0873F21F480910F
:10382000D701886005C0883F31F48091D70180615D
:103830008093D70108958D3F21F48091D401816058
:103840000BC08E3F21F48091D401826005C08F3F70
:1038500029F48091D40184608093D4010895803F3D
:1038600039F48091D90187FF6CC01092D90169C0E9
:10387000813F29F48091D9011816BCF362C0909160
:10388000D801823F29F497FF5CC01092D80159C03B
:10389000833F19F41916CCF354C0893F41F4809149
:1038A000DA0118160CF04DC01092DA014AC08A3FB6
:1038B00029F48091DA0187FF44C0F6CF8B3F39F4B9
:1038C0008091DB0187FF3DC01092DB013AC08C3F45
:1038D00029F48091DB011816BCF333C0843F21F436
:1038E0008091D7018E7F17C0853F21F48091D70149
:1038F0008D7F11C0863F21F48091D7018B7F0BC053
:10390000873F21F48091D701877F05C0883F31F43C
:103910008091D7018F7E8093D70113C08D3F21F412
:103920008091D4018E7F0BC08E3F21F48091D40111
:103930008D7F05C08F3F29F48091D4018B7F8093C8
:10394000D4018091D80181110EC08091D9018111DB
:103950000AC08091DA01811106C08091DB018111DA
:1039600002C01092D501089586ED91E00E94B00B3F
:103970000E9458199093D3018093D20108951F9308
:10398000CF93DF938091D2019091D3010E9464196B
:10399000AC019091D501992321F02091060130E0EE
:1039A00006C0209107018AE0289F90011124421748
:1039B000530708F477C08091D801C091D901D09104
:1039C000DA011091DB01811107C0C11167C0D1116B
:1039D00065C0111163C066C09F3F19F09F5F90934F
:1039E000D501181624F40E94451B8093D8018091BC
:1039F000D80187FF05C00E94451B81958093D8019F
:103A00001C1624F40E94451B8093D9018091D90192
:103A100087FF05C00E94451B81958093D901309195
:103A2000D8013323C1F02091D9012223A1F045EB25
:103A30003403C0011124892F911101C081E08093CA
:103A4000D80135EB2303C0011124892F911101C046
:103A500081E08093D9011D1624F40E948E1B80936F
:103A6000DA018091DA0187FF05C00E948E1B8195E3
:103A70008093DA01111624F40E948E1B8093DB01DF
:103A80008091DB0187FF05C00E948E1B819580938A
:103A9000DB01DF91CF911F910C94B41C9F3F09F083
:103AA0009DCFAECFDF91CF911F910895E6EDF1E06C
:103AB00086E0DF011D928A95E9F71092D5011092F8
:103AC000D40108958091FC0108950F931F93CF9323
:103AD000DF9300D01F92CDB7DEB78C010E94D11FBB
:103AE000823011F0843021F584E089831B830A83BE
:103AF00082E08093E9008FEF9091E800815095FD7E
:103B000006C095ED9A95F1F700008111F5CF8091EF
:103B1000E80085FF0DC040E050E063E070E0CE01BA
:103B200001960E94EE1F8091E8008E778093E80056
:103B30000F900F900F90DF91CF911F910F910895EB
:103B4000CF93DF9300D01F92CDB7DEB72091100244
:103B5000243031F523E02983805891099B838A839F
:103B600082E08093E9008FEF9091E800815095FD0D
:103B700006C095ED9A95F1F700008111F5CF80917F
:103B8000E80085FF0DC040E050E063E070E0CE014A
:103B900001960E94EE1F8091E8008E778093E800E6
:103BA0000F900F900F90DF91CF910895CF93DF93F7
:103BB000EC010E94D11F823011F08430F9F482E0D0
:103BC0008093E9008FEF9091E800815095FD06C049
:103BD00095ED9A95F1F700008111F5CF8091E800FD
:103BE00085FF0CC040E050E066E070E0CE010E942E
:103BF000EE1F8091E8008E778093E800DF91CF91EF
:103C00000895CF93DF93EC010E94D11F823011F011
:103C10008430D9F580911201882339F080910A020D
:103C200087FF03C060E282E002C068E081E0809329
:103C3000E9008FEF9091E800815095FD06C095ED69
:103C40009A95F1F700008111F5CF8091E80085FF8A
:103C50001CC080911201811105C040E050E068E075
:103C600070E003C070E040E050E0CE010E94EE1F23
:103C70008091E8008E778093E80080E2FE01ACED51
:103C8000B1E001900D928A95E1F7DF91CF9108950F
:103C900080910F02811109C00E947F210E94DC21C6
:103CA0008091E20084608093E200089510920F02F8
:103CB0000895089508950C941E1942E061EC81E086
:103CC0000E94F82042E261EC82E00C94F82080919E
:103CD0001202833009F460C030F4813071F0823018
:103CE00009F499C008958A3009F485C08B3009F42D
:103CF0006BC0893009F0A7C020C080911102813AC1
:103D000009F0A1C08091E800877F8093E80080914E
:103D1000150290911602892B21F460E28CED91E05E
:103D200003C060E080E090E070E00E943920809164
:103D3000E8008B778093E80008958091110281322A
:103D400009F081C08091150290911602029708F047
:103D50007AC08091E800877F8093E8008091E80036
:103D600082FD05C0809110028111F8CF6CC02091B6
:103D7000F3008091F20090E0922B029729F4809159
:103D8000F1008B7F813021F48091F1008093FC0160
:103D90008091E8008B7753C080911102813A09F03D
:103DA00052C08091150290911602892B09F04BC0E8
:103DB0008091E800877F8093E8008091E80080FF91
:103DC000FCCF8091120136C0809111028132D9F569
:103DD0008091150290911602892BA9F58091E80037
:103DE000877F8093E8000E942D21809113028093A9
:103DF00012010C94251180911102813221F58091DC
:103E0000E800877F8093E8000E942D2180911402B2
:103E10008093FD01089580911102813AA1F480916F
:103E2000E800877F8093E8008091E80080FFFCCF66
:103E30008091FD018093F1008091E8008E7780935E
:103E4000E8000C942D21089584B7877F84BF0FB6B6
:103E5000F894A8958091600088618093600010922A
:103E600060000FBE80E880936100109261000E94A4
:103E7000FA0B0E947F210E94DC218091E200846085
:103E80008093E20078940E9471240E94020C88E0E2
:103E900091E00E94850B80911002853069F40E94A8
:103EA000EC1880910E028823B1F30E94D418882365
:103EB00091F30E94D81FEFCF0E940C0CECCF0C9412
:103EC000611F292F332723303105C9F060F42130D9
:103ED000310581F02230310509F04AC08BE390E0D2
:103EE00026EA33E049C02132310511F12232310591
:103EF00079F13EC082E190E021EE33E03DC09927A8
:103F00008130910561F040F08230910559F00397BE
:103F100079F5EAE6F3E008C0E2EAF3E005C0EAE892
:103F2000F3E002C0E0E7F3E0849190E09F0124C059
:103F30006115710541F061307105D1F489E090E0BF
:103F400021ED33E019C089E090E028EB33E014C0A4
:103F50006115710541F06130710551F480EC90E01C
:103F600023EF33E009C080E490E023EB34E004C0A9
:103F700080E090E020E030E0FA0131832083089572
:103F80000895CF93C82F0E94C01FC093FE01CF9108
:103F9000089580911002843011F081E0089582E04C
:103FA00008958091FE01811102C00C94C91F0895EB
:103FB00080E189BD82E189BD09B400FEFDCF809119
:103FC000D8008F7D8093D8008091E000826080933C
:103FD000E0008091E00081FDFCCF0895CF92DF9258
:103FE000EF92FF920F931F93CF93DF93EC018B011E
:103FF0007A010E944C21811133C0E114F10439F09F
:10400000F70180819181081B190BC80FD91FC12CA2
:10401000D12C0115110519F18091E80085FD16C01C
:104020008091E8008E778093E800E114F10449F074
:10403000F70180819181C80ED91ED182C08285E0AE
:104040000FC00E944C21882321F30AC089918093DC
:10405000F10001501109FFEFCF1ADF0ADACF80E03B
:10406000DF91CF911F910F91FF90EF90DF90CF9054
:10407000089520911702309118022617370748F04B
:104080006115710539F42091E8002E772093E8003E
:1040900001C0B901FC0120E06115710579F1809141
:1040A00010028823F1F18530F1F18091E80083FD61
:1040B0003CC08091E80082FD2EC08091E80080FF26
:1040C000EBCF2091F3008091F20090E0922B6115EC
:1040D000710551F08830910538F421912093F10059
:1040E000615071090196F3CF21E0089709F020E0B3
:1040F0008091E8008E778093E800CECF2111CFCF5A
:104100000AC080911002882361F0853061F08091AF
:10411000E80083FD0AC08091E80082FFF2CF80E0D2
:10412000089582E0089583E0089581E00895209144
:104130001702309118022617370748F061157105EC
:1041400039F42091E8002E772093E80001C0B901EE
:10415000FC0120E06115710591F180911002882326
:1041600009F440C0853009F43FC08091E80083FD28
:104170003DC08091E80082FD2FC08091E80080FF63
:10418000E9CF2091F3008091F20090E0922B61152D
:10419000710559F08830910540F424912093F10085
:1041A0003196615071090196F2CF21E0089709F02C
:1041B00020E08091E8008E778093E800CBCF21113A
:1041C000CCCF0AC080911002882361F0853061F065
:1041D0008091E80083FD0AC08091E80082FFF2CF61
:1041E00080E0089582E0089583E0089581E00895D5
:1041F000982F973068F59093E900981739F07091EF
:10420000EC002091ED005091F00003C0242F762F98
:1042100050E021FD02C09F5FECCF3091EB003E7F6C
:104220003093EB003091ED003D7F3093ED00309105
:10423000EB0031603093EB007093EC002093ED00C5
:104240005093F0002091EE0027FDE5CF80E0089527
:104250008F708093E90081E008958091110287FFBB
:1042600011C08091E80082FD05C08091100281118B
:10427000F8CF11C08091E8008B770BC080911002BD
:10428000882349F08091E80080FFF8CF8091E80012
:104290008E778093E80008952091E4003091E50046
:1042A00095E64091EC00842F817040FF23C08091FF
:1042B000E80080FD1DC080911002882399F08530B0
:1042C00099F08091EB0085FD11C04091E400509180
:1042D000E5002417350729F3915011F09A01E1CF39
:1042E00084E0089582E0089583E0089581E00895D0
:1042F00080E008954091E80042FFDDCF08950E94DC
:10430000ED210E94F521E0EEF0E080818160808364
:10431000E8EDF0E080818F77808319BCA7EDB0E0F5
:104320008C918E7F8C9380818F7E808310920F0280
:1043300008950F931F93CF93DF930E94ED210E9466
:10434000F521C8EDD0E088818F77888388818068E7
:10435000888388818F7D888319BC10921002109207
:104360000C0210920E0210920D0200EE10E0F80105
:1043700080818B7F808388818160888342E060E0D8
:1043800080E00E94F820E1EEF0E080818E7F808363
:10439000E2EEF0E0808181608083808188608083AC
:1043A000F80180818E7F8083888180618883DF919E
:1043B000CF911F910F910895E8EDF0E080818F7EFD
:1043C0008083E7EDF0E080818160808384E082BFBC
:1043D00081E080930F020C949921E8EDF0E0808158
:1043E0008E7F80831092E20008951092DA0010927E
:1043F000E10008951F920F920FB60F9211242F9390
:104400003F934F935F936F937F938F939F93AF935C
:10441000BF93EF93FF938091E10082FF0BC08091E7
:10442000E20082FF07C08091E1008B7F8093E10072
:104430000E9470248091DA0080FF1FC08091D80014
:1044400080FF1BC08091DA008E7F8093DA0080911C
:10445000D90080FF0DC080E189BD82E189BD09B42A
:1044600000FEFDCF81E0809310020E94481E05C02F
:1044700019BC109210020E94561E8091E10080FF2C
:1044800019C08091E20080FF15C08091E2008E7F0C
:104490008093E2008091E20080618093E20080914D
:1044A000D80080628093D80019BC85E08093100208
:1044B0000E945A1E8091E10084FF30C08091E2008A
:1044C00084FF2CC080E189BD82E189BD09B400FE72
:1044D000FDCF8091D8008F7D8093D8008091E1003E
:1044E0008F7E8093E1008091E2008F7E8093E200D6
:1044F0008091E20081608093E20080910C02882329
:1045000011F084E007C08091E30087FD02C081E0E4
:1045100001C083E0809310020E945B1E8091E10045
:1045200083FF29C08091E20083FF25C08091E100D4
:10453000877F8093E10082E08093100210920C024A
:104540008091E1008E7F8093E1008091E2008E7F78
:104550008093E2008091E20080618093E20042E07B
:1045600060E080E00E94F8208091F00088608093F5
:10457000F0000E94591EFF91EF91BF91AF919F9162
:104580008F917F916F915F914F913F912F910F90FC
:104590000FBE0F901F9018951F920F920FB60F929B
:1045A00011242F933F934F935F936F937F938F9338
:1045B0009F93AF93BF93CF93DF93EF93FF93C091FC
:1045C000E900CF708091EC00D82FD17080FDD0E849
:1045D0001092E9008091F000877F8093F00078943A
:1045E0000E9410231092E9008091F000886080936F
:1045F000F000CD2BCF70C093E900FF91EF91DF91D8
:10460000CF91BF91AF919F918F917F916F915F916A
:104610004F913F912F910F900FBE0F901F901895C3
:104620001F93CF93DF93CDB7DEB7AA970FB6F89459
:10463000DEBF0FBECDBFE1E1F2E08091F1008193DA
:1046400022E0E931F207C9F70E94671E8091E80075
:1046500083FF2EC18091110290911202492F50E0E8
:104660004A30510508F024C1FA01E556FF4F0C9479
:10467000B424803821F0823809F01AC108C0809132
:104680000D0290910E02992389F082600FC08091F3
:1046900015028F70873008F00BC18093E90080917C
:1046A000EB0085FB882780F91092E9009091E800E3
:1046B000977F9093E8008093F1001092F100D1C0B1
:1046C000282F2D7F09F0F4C0882319F0823061F083
:1046D000EFC080911302813009F0EAC0933009F0F5
:1046E00080E080930E022EC08091130281112AC0B7
:1046F000809115028F702FEF280F263008F0D8C058
:104700008093E9002091EB0020FF1CC0933021F43E
:104710008091EB00806214C09091EB0090619093C7
:10472000EB0021E030E0A90102C0440F551F8A953B
:10473000E2F74093EA001092EA008091EB00886073
:104740008093EB001092E9008091E800877F8093CE
:10475000E8000E942D21ACC08111AAC01091130263
:104760001F778091E3008078812B8093E300809114
:10477000E800877F8093E8000E942D218091E80067
:1047800080FFFCCF8091E30080688093E3001111EB
:1047900002C082E001C083E08093100289C080588B
:1047A000823008F085C080911302909114028C3DF4
:1047B00053E0950779F583E08A838AE289834FB7CE
:1047C000F894DE01139620E03EE051E2E32FF0E0A2
:1047D00050935700E49120FF03C0E295EF703F5FD4
:1047E000EF708E2F90E0EA3010F0C79601C0C096AF
:1047F0008D939D932F5F243149F74FBF8091E8003F
:10480000877F8093E8006AE270E0CE0101960E9403
:10481000392016C06091150270911602AE014F5FEB
:104820005F4F0E945F1FBC01892B09F441C090912A
:10483000E800977F9093E80089819A810E949720F1
:104840008091E8008B778093E80032C0803881F552
:104850008091E800877F8093E80080910C0280932C
:10486000F1008091E8008E7772CF811121C0809194
:1048700013029091140299270297D4F48091E800D2
:10488000877F8093E8008091130280930C020E943E
:104890002D2180910C02811106C08091E30087FDDB
:1048A00002C081E001C084E0809310020E945D1E7E
:1048B0008091E80083FF0AC08091E800877F8093A1
:1048C000E8008091EB0080628093EB00AA960FB61F
:1048D000F894DEBF0FBECDBFDF91CF911F91089539
:1048E0000895CF93809110028823A1F0C091E90030
:1048F000CF709091EC00892F817090FD80E8C82BDB
:104900001092E9008091E80083FD0E941023CF708F
:10491000C093E900CF910895AA1BBB1B51E107C0CA
:10492000AA1FBB1FA617B70710F0A61BB70B881F3F
:10493000991F5A95A9F780959095BC01CD010895CE
:1049400097FB072E16F4009407D077FD09D00E943C
:104950008C2407FC05D03EF4909581959F4F0895D7
:10496000709561957F4F0895EE0FFF1F0590F491AC
:10497000E02D0994F999FECF92BD81BDF89A99274F
:1049800080B50895A6E1B0E044E050E00C94F42432
:10499000A8E1B0E042E050E00C94F424262FF9990D
:1049A000FECF92BD81BDF89A019700B4021639F08E
:1049B0001FBA20BD0FB6F894FA9AF99A0FBE08955F
:1049C0000396272F0E94CF240E94CE24252F0E94D9
:1049D000CF24242F0C94CF240196272F0E94CF247C
:1049E0000C94CE24DC01CB01FC01F999FECF06C06A
:1049F000F2BDE1BDF89A319600B40D92415050409D
:084A0000B8F70895F894FFCF08
:104A0800AD012808140A321E621D011ED61DA01D04
:104A1800651D0191F490F594F666F79731343235B7
:024A2800360056
:00000001FF
