:100000000C947C060C9499060C9499060C94990611
:100010000C9499060C9499060C9499060C949906E4
:100020000C9499060C9499060C9482130C94C5199F
:100030000C946E280C9499060C9499060C949906CD
:100040000C9499060C9499060C9499060C949906B4
:100050000C9499060C945A140C9499060C949906D5
:100060000C9499060C9499060C9499060C94990694
:100070000C9499060C9499060C9499060C94990684
:100080000C9499060C9499060C9499060C94990674
:100090000C9499060C9499060C9499060C94990664
:1000A0000C9499060C9499060C949906050109067E
:1000B000A1018506050719E029E715002501950826
:1000C000750181020507190029EF1500250195F03A
:1000D000750181020508190129059505750191022F
:1000E000950175039101C00660FF0961A1010962D4
:1000F000150026FF0095207508810209631500266A
:10010000FF00952075089102C005010906A10105AF
:100110000719E029E7150025019508750181029569
:1001200001750881010507190029FF150026FF0048
:1001300095067508810005081901290595057501C1
:100140009102950175039101C000000000000000BC
:10015000000000000000000000000000000000009F
:10016000000000000000000000000000007E0F0002
:10017000D4FFFFFFC700000078000000000000006F
:10018000002A2B28000000000000000000000000F2
:100190000000000029000000002C1E342021222431
:1001A000342627252E362D3738271E1F20212223BF
:1001B0002425263333362E37381F04050607080951
:1001C0000A0B0C0D0E0F1011121314151617181917
:1001D0001A1B1C1D2F3130232D3504050607080975
:1001E0000A0B0C0D0E0F10111213141516171819F7
:1001F0001A1B1C1D2F3130354C30300000DA0281C3
:10020000FFD9F1DB20A4A62EAF00A0C000A1C8003A
:10021000AED580A81FD300408D14200000047F3F7E
:100220001F643214643214783C1E1E140A05736372
:10023000723A2E007363723A2A004C696768740040
:100240002D2D2D2D2D006361703A2E006361703AC3
:100250002A006E756D3A2E006E756D3A2A00537441
:10026000617473002D2D2D2D2D0020554E4400203E
:1002700052474200204E41560020424153004C61FB
:1002800079657200FD377A585A000004E6D6B44604
:100290000200210116000000742FE5A3E001D70140
:1002A000215D003D8889C65436C3174FE4E9DD0956
:1002B00096621680CB1AF6F58FCF4832C4D552D548
:1002C0001C7C4BDA76EB4FF78ECD228E141E7B5AB8
:1002D000733BEA34158BE78C74C77B498D643B060E
:1002E000467BB850BCBEB729B800FC160AA8083631
:1002F000ADD80DBA078FD9AB782976128454D3A123
:10030000FD744D0F324BE5984F1CD2A80155B28FAA
:1003100087E642C9CEB5438F7D68CC599747608D3B
:10032000DCAB653513989BB20FC1E2E151CC4BE9D0
:100330000ACC7C3442B23F854EE97073039EC4E61A
:10034000C71316FC92E4A05532031192736FBE37A7
:10035000108241DFF940CABA538B9CBBE31511FAF6
:10036000463FCB11E018A064B693830AD5A0FDAC3C
:100370006345D2732314A051D4DBD47775548973A9
:100380003E4693EA8209964C577FF0406744478285
:10039000D2BEE71DA54FAFF28C89EDCFFDB28E0D19
:1003A000964D2807CFA7BF635E9E153AB723D9881D
:1003B00079217637420BA4B182CA7C93D48D4A9DB1
:1003C000548BB5000000000096C2D32FE614331EF4
:1003D0000001BD02D803000039A867FEB1C467FB65
:1003E000020000000004595A00010101010101014D
:1003F00001010202020202020202020303030303DA
:1004000003030304040404040404050505050506A8
:100410000606060607070707070808080809090966
:10042000090A0A0A0B0B0B0C0C0C0D0D0D0E0E0E0F
:100430000F0F0F10101111111212131314141515A0
:1004400016161717181819191A1A1B1B1C1D1D1E12
:100450001E1F202021222223242425262627282966
:10046000292A2B2C2D2D2E2F303132323334353694
:100470003738393A3B3C3D3E3F4041424344454694
:100480004748494A4C4D4E4F505153545556585970
:100490005A5B5D5E5F616264656668696B6C6D6F17
:1004A0007072737577787A7B7D7E8082838587888A
:1004B0008A8C8E8F91939596989A9C9EA0A2A3A5C4
:1004C000A7A9ABADAFB1B3B5B7BABCBEC0C2C4C6C5
:1004D000C9CBCDCFD1D4D6D8DBDDDFE2E4E7E9EB81
:1004E000EEF0F3F5F8FAFDFFFFAA7F554022232531
:1004F0002628292A2C2D2F3032333536383A3B3DE9
:100500003E4042434547494A4C4E50515355575936
:100510005A5C5E6062646668696B6D6F7173757753
:10052000797B7D7F81838587898A8C8E9092949652
:10053000989A9C9E9FA1A3A5A7A8AAACAEAFB1B361
:10054000B4B6B8B9BBBCBEBFC1C2C3C5C6C7C9CAB1
:10055000CBCCCDCED0D1D2D2D3D4D5D6D7D7D8D973
:10056000D9DADADBDBDBDCDCDCDCDCDDDDDDDDDCD1
:10057000DCDCDCDCDBDBDBDADAD9D9D8D7D7D6D5E3
:10058000D4D3D2D2D1D0CECDCCCBCAC9C7C6C5C3A5
:10059000C2C1BFBEBCBBB9B8B6B4B3B1AFAEACAAF2
:1005A000A8A7A5A3A19F9E9C9A98969492908E8CA2
:1005B0008A89878583817F7D7B79777573716F6D7C
:1005C0006B6968666462605E5C5A59575553515056
:1005D0004E4C4A4947454342403E3D3B3A3836350A
:1005E0003332302F2D2C2A2928262523220153543B
:1005F00000550056425F006000610057005C005DDE
:10060000005E00000059005A005B0000006200AD6F
:100610005D6300580049004A004B0001534C004DF7
:10062000004E00000000000000000000000000522A
:100630000000000000500051004F000000C35CCDDE
:100640005CC25C0100C65CC55C00000000C85CC701
:100650005C00000000CA5CC95C00000000005C0097
:1006600000000000000100010001039F11D11100F2
:100670000002000200FD029F11D1110000030001E1
:100680000002039F11D111000004000200E7029F45
:1006900011D11106090500010003039F11D11100BA
:1006A0000006000200E9029F11D1110000070002BC
:1006B00000FF029F11D11100000800010004039FF8
:1006C00011D11100001200020005039F11D1110089
:1006D000001300020007039F11D111000014000154
:1006E0000009039F11D11100001500000000008ACD
:1006F00008071B000000AF00AE09025B0003010009
:10070000A0FA090400000103010100092111010000
:1007100001224000070581030800010904010002CD
:1007200003000000092111010001222200070582B7
:100730000320000107050303200001090402000152
:1007400003000000092111010001223B000705847C
:1007500003200001120100020000000850596983C3
:100760000100010203011C037600690061006C00B6
:100770003A00660036003400630032006200330045
:10078000630000000E03590061006D0070006100FD
:10079000640000001E034D006100740074006900D5
:1007A00061002000440061006C00200042006500F0
:1007B0006E0000000403090407087F0807003E5B81
:1007C0004F5B3E003E6B4F6B3E001C3E7C3E1C0070
:1007D000183C7E3C18001C577D571C001C5E7F5E39
:1007E0001C0000183C180000FFE7C3E7FF000018DA
:1007F00024180000FFE7DBE7FF0030483A060E0050
:10080000262979292600407F05050700407F052518
:100810003F005A3CE73C5A007F3E1C1C0800081C65
:100820001C3E7F0014227F2214005F5F005F5F0088
:1008300006097F017F00006689956A00606060603C
:10084000600094A2FFA2940008047E040800102017
:100850007E20100008082A1C0800081C2A0808002E
:100860001E10101010000C1E0C1E0C0030383E38EC
:100870003000060E3E0E06000000000000000000E2
:100880005F000000000700070000147F147F1400C1
:10089000242A7F2A12002313086462003649562056
:1008A0005000000807030000001C22410000004126
:1008B000221C00002A1C7F1C2A0008083E08080091
:1008C0000080703000000808080808000000606020
:1008D00000002010080402003E5149453E0000423D
:1008E0007F4000007249494946002141494D33008B
:1008F0001814127F10002745454539003C4A4949E4
:10090000310041211109070036494949360046495D
:1009100049291E00000014000000004034000000BF
:10092000000814224100141414141400004122146D
:1009300008000201590906003E415D594E007C1233
:1009400011127C007F49494936003E414141220055
:100950007F4141413E007F49494941007F090909E2
:1009600001003E41415173007F0808087F000041AB
:100970007F4100002040413F01007F0814224100D8
:100980007F40404040007F021C027F007F0408102F
:100990007F003E4141413E007F09090906003E417A
:1009A00051215E007F091929460026494949320034
:1009B00003017F0103003F4040403F001F204020D3
:1009C0001F003F4038403F006314081463000304D5
:1009D000780403006159494D4300007F41414100C3
:1009E000020408102000004141417F00040201027E
:1009F000040040404040400000030708000020542D
:100A0000547840007F284444380038444444280047
:100A1000384444287F0038545454180000087E0994
:100A2000020018A4A49C78007F0804047800004405
:100A30007D4000002040403D00007F102844000021
:100A400000417F4000007C04780478007C080404A6
:100A50007800384444443800FC1824241800182432
:100A60002418FC007C080404080048545454240052
:100A700004043F4424003C4040207C001C204020D3
:100A80001C003C4030403C004428102844004C905E
:100A900090907C004464544C4400000836410000AF
:100AA0000000770000000041360800000201020447
:100AB00002003C2623263C000000000000004040CD
:100AC00040F0F8F8FF38FFF8F83FF8F8FF38FFF883
:100AD000F8F040404000000000000080C0C0C0802E
:100AE0000000C0C08000000080C0C000C0C0000086
:100AF00080C0C00000000000C0C0C0C0C000C0C0B6
:100B000000000000000000000000000000000000E5
:100B100000000000000000000000000000000000D5
:100B200000000000000000000000000000000000C5
:100B300000000000000000C0F0F8FC3E1E060100AE
:100B400000007F4141417F007F4141417F000080A3
:100B5000C0E07E5B4F5BFEC00000C000DCD7DEDE85
:100B6000DED7DC00C0000000000000000000000034
:100B700000000000000000000000000000004949E3
:100B800049FFFFFFFFE0DFBFBF00BFBFDFE0FFFFA8
:100B9000FFFF49494900000000001F3F6060E0BFBF
:100BA0001F007F7F071E381E077F7F007F7F0E1F7D
:100BB0003B716000000000007F7F0C0C0C007E7E0B
:100BC000007F7E0303007F7E03037E7E03037F7E20
:100BD000000F3E703C063C703E0F00327B49493F9F
:100BE0007E007F7E0303001E3F69696F26000000C0
:100BF00000000000000000030F1F3F3C7870600001
:100C000000007F4141417F007F4141417F00307BB7
:100C10007F7830202030787F3B0003000F7F0F0F5C
:100C20000F7F0F0003000000000000000000000024
:100C300000000000000000000000000000000101B2
:100C400001070F0F7F0F7F0F0F7E0F0F7F0F7F0F9B
:100C50000F0701010100000000000000000000017A
:100C60000100000000000000000000000000000083
:100C70000000000000000000000000000000000074
:100C80000000000000000000000000000000000064
:100C90000000000000000000000000000000000054
:100CA0000000000000000000000000000000000044
:100CB0000000000000000000000000000000000034
:100CC0000000000000000000000000000000000024
:100CD0000000000000000000000000000000000014
:100CE0000000000000000000000000000000000004
:100CF000000000000000000011241FBECFEFDAE06A
:100D0000DEBFCDBF11E0A0E0B1E0E6E2FDE602C04B
:100D100005900D92A03AB107D9F725E0A0EAB1E01D
:100D200001C01D92A835B207E1F70E9495280C94E6
:100D300053360C940000E8EDF0E080818E7F8083D4
:100D40001092E2001092DA001092E100A0EEB0E002
:100D50008C9181608C9380818F77808319BCA7ED03
:100D6000B0E08C918E7F8C9380818F7E80831092F7
:100D7000180308952091E4003091E50095E6A9015B
:100D80002091EC00822F817020FF06C08091E80046
:100D900080FF06C080E008952091E80022FD1AC07F
:100DA00080913D03882389F0853089F08091EB00A4
:100DB00085FD0FC02091E4003091E50042175307F4
:100DC000F9F29150E1F684E0089582E0089583E01D
:100DD000089581E00895EF92FF920F931F93CF93B0
:100DE0007C018B010E94BA06C82F811117C0809127
:100DF000E80085FD0BC08091E8008E778093E800C5
:100E00000E94BA06882399F3C82F08C0F701819180
:100E10007F018093F1000150110949F78C2FCF9188
:100E20001F910F91FF90EF90089580913F0387FFEE
:100E300013C08091E80082FF06C08091E8008B77A4
:100E40008093E80004C080913D038111F2CF0895A2
:100E500080913D038823D9F38091E80080FFF8CF8B
:100E60008091E8008E77ECCF982F9093E900242FA3
:100E7000762F50E0891731F07091EC002091ED0051
:100E80005091F00021FD07C09F5F973071F780936C
:100E9000E90081E008953091EB003E7F3093EB0054
:100EA0003091ED003D7F3093ED003091EB003160EB
:100EB0003093EB007093EC002093ED005093F00022
:100EC0002091EE0027FDE0CF80E00895B0E0A0E0A3
:100ED000ECE6F7E00C944931C8EDD0E088818F7ED4
:100EE0008883E7EDF0E080818160808384E082BFC9
:100EF00081E08093180388818E7F888302EE10E062
:100F0000F80110821092DA0081EEC82ED12CF60181
:100F1000108288818F778883888180688883888120
:100F20008F7D888319BC10923D0310923E0310926E
:100F30003C0310923B0390EEE92EF12CF7018081E7
:100F40008B7F808388818160888342E060E080E0DD
:100F50000E943407F60180818E7F8083F8018081B2
:100F600081608083808188608083F70180818E7FAB
:100F70008083888180618883CDB7DEB7E8E00C94F8
:100F80006531FC01CB0120914503309146032617C2
:100F9000370790F0009729F42091E8002E772093EE
:100FA000E80040E0009751F4411108C08091E8004A
:100FB00082FF31C080E00895C901F3CF20913D0345
:100FC0002223A9F12530A9F12091E80023FD2DC0AD
:100FD0002091E80022FDEACF2091E80020FFE2CF37
:100FE0003091F3002091F200009719F0283031057C
:100FF00058F041E02830310509F040E02091E80048
:101000002E772093E800CECF41914093F1000197D5
:101010002F5F3F4FE9CF80913D03882341F085301A
:1010200041F08091E80083FFC1CF81E0089582E024
:10103000089583E008950895089508950895089502
:1010400080911A03089587E797E7909301088093AA
:10105000000888E19AE00FB6F894A89580936000A4
:101060000FBE90936000FFCFA4E0B0E0EAE3F8E0A9
:101070000C944F318FB7F8942091120330911303E1
:10108000409114035091150329833A834B835C8369
:101090008FBF69817A818B819C812496E2E00C94D8
:1010A0006B319C0180912C018823C9F0809116033B
:1010B00087FF15C0E62FE695E695E695603FE0F4DC
:1010C000E20FF32FF11D677081E090E001C0880FFF
:1010D0006A95EAF780959281892382830895F901C0
:1010E0003296285F3F4F8191681303C0DF0111974B
:1010F0001C92E217F307B9F70895E0910F03F091FE
:101100001003309729F00190F081E02D09950895A2
:1011100080E00895B0E0A0E0E0E9F8E00C9445310B
:101120004B018FEF9FEF4430510508F46AC04091A6
:10113000160341FB882780F990E0880F991F42FB36
:10114000002700F910E0000F111F000F111F802B66
:10115000912B40FBAA24A0F8B12CA82AB92A43FB62
:10116000882780F9C82FE0E0DE2F53E0CC0FDD1F89
:101170005A95E1F7CA29DB2944FBAA27A0F9B0E078
:1011800064E0AA0FBB1F6A95E1F7AC2BBD2B45FBB2
:10119000EE27E0F9F0E075E0EE0FFF1F7A95E1F73A
:1011A000EA2BFB2B46FB222720F930E0A6E0220F9A
:1011B000331FAA95E1F72E2B3F2B47FB442740F91D
:1011C00050E05695542F442757954795242B352B9F
:1011D00080911703982F9170D92EC22ED32A86950D
:1011E0008170F82EFF0CE12CCE28DF280D2C000C8E
:1011F000EE08FF08F401C082D182E282F38290E01F
:1012000080E0CDB7DEB7ECE00C9461318091E7026D
:101210009091E80290932A01809329010895FA01A0
:10122000882311F009950895FB01FCCF80919C0261
:1012300080FF02C08695089580E0089580919C0209
:10124000982F9E7F29F48170826080939C0208957C
:101250008A34E8F381708864F8CFB0E0A0E0E3E37B
:10126000F9E00C944531D82EC62EE901E42FF0E0C8
:10127000E851FC4F61110BC04491942FE42FE98396
:1012800048839A83CDB7DEB7ECE00C946131062F2A
:1012900010E0E49186E0D89E700111242FEF30E039
:1012A000C701B9010E942B318D2D90E0880F991F45
:1012B000F5E5F69FA001F79F500D1124841B950BB7
:1012C000982F990F890FA901401B510BE49FD00162
:1012D000E59FB00D11244B2FC89E60011124CD2C29
:1012E000DD245901AC18BD08EA9D6001EB9DD00CCE
:1012F00011249D2D4901881A9108809E5001819EDC
:10130000B00C909EB00C1124AB2CBB242A193B09C5
:10131000E29F8001E39F100D112463307105D1F02D
:101320008CEFE81683E0F80670F461307105B1F0D7
:1013300062307105B9F08FEFE816F10408F09FCF25
:101340009B2F412F9CCF6430710579F06630710579
:10135000B9F395CF4D2D9E2FEB2F91CF4E2FED2D25
:101360009B2F8DCF912F4E2FF7CF9E2FE12F87CF21
:1013700080E00895F894E82FE295EF70F0E041A145
:101380008F7021E030E0B90102C0660F771F8A95A7
:10139000E2F7CB01962F9095942391A392A1892BEC
:1013A00082A3789408959091160392FF06C0282F87
:1013B00028712830F9F4877F846093FF06C0282FB6
:1013C00028712831F1F4877E84612091170320FF72
:1013D00006C0382F38713830D9F4877F816021FFFB
:1013E00006C0282F28712831D1F4877E816194FDB1
:1013F000877E0895282F24712430F9F68B7F88602A
:10140000DCCF282F2471243101F78B7E8861DDCF5A
:10141000382F3171313019F78E7F8860E0CF282F57
:101420002171213121F78E7E8861E1CFCF93DF9347
:10143000EC01803E910509F469C038F581339105CE
:1014400009F4AFC078F48932910509F4A3C08A97F2
:1014500009F4AEC0C130D10509F46BC0209709F47E
:1014600068C00BC08933910509F449C082389105E1
:1014700009F445C0C59709F486C0C53AD10590F472
:10148000C430D10508F44EC054C0843E910509F41F
:101490005FC070F4823E910509F447C0833E910518
:1014A00009F44BC0CE01805E91090897D8F541C080
:1014B000863E910509F457C0873E910509F458C04E
:1014C000811524E5920708F09BC0811533E5930749
:1014D00008F0EDC0811541E5940708F079C0C11509
:1014E00080E5D80708F0C4C0C11590E2D90708F01C
:1014F00066C0CF3FD10509F008F4ACCF1AC0809187
:1015000016038370B1F0C0EED0E013C080911603D3
:1015100080FDF8C09091170390FF0BC0C3EED0E0A0
:1015200084FF07C0D0E0C0E004C08091160382FDB4
:10153000F5CFCE01DF91CF9108958091160382FD02
:10154000E4C09091170390FDDECF84FFF2CFEACF85
:101550008091170381FFEDCF80911603C7EED0E095
:1015600084FDE0CFE6CF8091160383FDF7CFE1CF76
:101570008091160383FDCCC09091170391FFE5CFB6
:10158000C4EED0E0D6CF8091160385FFD2CFC9E25A
:10159000D0E0CFCF8091160385FFCBCFC5E3D0E05D
:1015A000C8CF8091160386FFC4CFCAE2D0E0C1CF76
:1015B0008091160386FFBDCFC1E3D0E0BACFCE0144
:1015C00090548115904108F0ADCFDF70D06AB1CF53
:1015D000811532E5930708F465C08370992721E0EF
:1015E00030E002C0220F331F8A95E2F7C695C695F8
:1015F00040E2C49FE0011124C22BD32BDC6899CFB9
:10160000C11589E5D807E0F4C11598E5D90708F0B8
:1016100066C0C11525E5D20708F45CC0CE0195551A
:101620008F3F910511F008F07DCF8C2F0E94D309D8
:10163000C82FD0E0DC2FCC27CC27DF71D06279CF48
:10164000C1153AE5D30708F44FC0CE019056811575
:10165000904208F067CF8D2F8F710E94D30990E0E0
:10166000982F882788279F719C012C2BE901E6CFB2
:10167000CE01E4E096958795EA95E1F783702C2FEB
:1016800026952695237090E2299F90011124382BEE
:101690008C2F8370C1E0D0E002C0CC0FDD1F8A9593
:1016A000E2F7AACFD82FCC27C16FD06A42CF837080
:1016B000992721E030E002C0220F331F8A95E2F71C
:1016C000C695C69540E2C49FE0011124C22BD32BDE
:1016D000DA682FCFDC2FCC27C46FD06A2ACFDC2F5B
:1016E000CC27C06FD06A25CF8C2F8F700E94D30972
:1016F00034E0D695C7953A95E1F7CF70DC2FC82F27
:10170000D06917CFC9E3D0E014CFC2EED0E011CF3B
:10171000C6EED0E00ECF80912F02882331F01092D8
:101720002F0210922E0210922D020895982F90955C
:101730008091C60289238093C602089510920C02FC
:1017400010920B0210920A020895E0910902909102
:10175000D80156E0E91302C080E008952E2F30E052
:101760005E9FF0011124E752FE4F7181761306C08F
:101770007081781303C07281741304C0F90131962B
:10178000E770E8CF81E00895452B39F0682381E0C8
:101790006F3F09F080E08170089581E0FCCF809177
:1017A00009029091D801981301C008958F5F877046
:1017B000FACF953080F5843070F544E0949F900125
:1017C0001124820F932F911D682F677023E0969547
:1017D00087952A95E1F7FC01EE0FFF1FE80FF91F2F
:1017E000E753FE4F50E040E080E0219130E0062ECC
:1017F00002C0369527950A94E2F721703327042E0C
:1018000001C0220F0A94EAF7822B4F5F5F4F4330EB
:10181000510559F7089580E008959530A0F584307A
:1018200090F544E0949F90011124820F932F911D15
:10183000282F277041E001C0440F2A95EAF723E0E2
:10184000969587952A95E1F7FC01EE0FFF1FE80FAB
:10185000F91FE753FE4F30E020E070E05191DF01C7
:101860001197CB01022E02C0969587950A94E2F754
:10187000817081958527842385278C932F5F3F4F27
:101880002330310559F70895282F92959F7096308F
:1018900091F060F4925F9F70923030F481E0203FCD
:1018A00081F030F4283E30F080E008959A5FF3CF65
:1018B000243FD1F7089581E0283EE0F3213FA1F7CE
:1018C000F9CF0895982F82958F7011F0982F84E0AA
:1018D000292F2695269511F08E5F922F969509F067
:1018E0008F5F08959C019A9581159F4150F5D9010C
:1018F000AA27B170F901EE27F270B901662774705A
:10190000A9014427587034FF0EC080E1AB2B09F4C5
:1019100080E0EF2B09F08062672B09F08064452B93
:1019200089F08068089581E0AB2B09F480E0EF2B0B
:1019300009F08260672B09F08460452B19F08860FC
:10194000089580E00895CF93DF93682F81E06A3097
:1019500019F06D3031F480E00E94310DDF91CF91AC
:101960000895809152059091530526E0FC01ACE466
:10197000B5E001900D922A95E1F7603E08F458C059
:1019800026E0FC0111922A95E9F7C0915205D09109
:10199000530546E050E0BE018CE495E00E944233DE
:1019A0009E012C543340892B41F1C90145E09695A5
:1019B00087954A95E1F741E050E0BA0102C0660F11
:1019C000771F8A95E2F7CB0160914A0370914B0330
:1019D000862B972BB9016B5F7F4FE5E07695679576
:1019E000EA95E1F702C0440F551F6A95E2F7842B90
:1019F000952B90934B0380934A032A5F3F4F40916E
:101A00004903642F70E0C9010E942B31481B463006
:101A100010F4240F311D211572E0370710F030E06B
:101A200020E0245B3C4F309353052093520596CF22
:101A3000F6E06F9FB00111246854784F46E050E003
:101A40000E940432A2CFCF93DF93EC01FE01849178
:101A5000811103C0DF91CF9108950E94A30C2196BC
:101A6000F5CFCF93382FE0915205F0915305EC5408
:101A7000F34020914903622F70E0CF010E942B3187
:101A8000281B822F332361F066E00E947631C82F35
:101A9000C15010F4CF91089580E20E94A30CF8CFBA
:101AA0009F01280F311D2115324018F080E0F0E031
:101AB000E0E08E0F9F2F911D845B9C4F9093530508
:101AC00080935205E7CF0E94230D81E00E94310DE3
:101AD00008950F931F93CF93DF93EC01FC010190C6
:101AE0000020E9F78F0101501109C017D10728F034
:101AF000DF91CF911F910F91089589910E94A30CBE
:101B0000F4CFB0E0A0E0E7E8FDE00C9449316C01CF
:101B10007B0164E670E088E70E943830EC0197FDB5
:101B200012C010E000E0F601E00FF11F849164E6BE
:101B300070E00E94A630EC01892B29F40F5F1F4F43
:101B40000E151F0581F70E942731CE01CDB7DEB7F4
:101B5000E8E00C9465318091C4029091C502911126
:101B600003C091E089270895882369F062E070E05E
:101B700087EF96E00E94810D892B19F08091C402B5
:101B800008951092C4028091C402EBCFA5E0B0E0AA
:101B9000ECECFDE00C944F318091C4028D83809178
:101BA000C5028823F1F00E943408DC01CB01805A81
:101BB0009541AF4FBF4F8093C0029093C102A09355
:101BC000C202B093C3028D81811108C062E070E04F
:101BD00085EF96E00E94810D892B41F08091C4022F
:101BE0008D838D812596E2E00C946B3181E08093AA
:101BF000C402F4CFCF93DF93D82FC92F80912C014B
:101C00008823C1F18091160387FF34C060E284E02D
:101C10008093E9008FEF9091E800815095FD06C018
:101C200095ED9A95F1F700008111F5CF8091E800CC
:101C300085FF1DC080912C0170E050E040E08111D3
:101C400004C050E040E068E070E08D2F9C2F0E94BF
:101C5000EB068091E8008E778093E80080E2ED2F1C
:101C6000FC2FABE1B3E001900D928A95E1F7DF9193
:101C7000CF91089568E081E0CBCF9C0121503109DC
:101C800008F408958FE99FE00197F1F700C0000084
:101C9000F5CF80919C0280FD0AC0E1EAF2E011825A
:101CA00010821282339652E0EC3BF507C1F7849A1A
:101CB00031B33F7E21B320614FB7F89481EA92E0BF
:101CC000FC010196508168E021BB000000C057FF75
:101CD00031BB550F000000C000C000C031BB00C0C8
:101CE0006A9591F752E08C3B950751F74FBF8FE50E
:101CF00094E00197F1F700C000000895EF92FF9281
:101D00000F931F93CF93DF93EC0101EA12E0F12CC4
:101D1000E12C60919E0280919D029C8124E0E2165C
:101D2000F104ECF49923E9F0980140919F020E949C
:101D30002D098FEFE81AF80A0D5F1F4F29E0E21610
:101D4000F10439F70E94490E8C8190E00196817070
:101D500099278C83CDB7DEB7E6E00C9467319923E1
:101D600019F3980140E0E3CFAEE0B0E0EAEBFEE02B
:101D70000C9449318D879E87AD85BE8514961C9144
:101D8000212F30E0D9010E94DB319B01AC010E9480
:101D9000F13169837A838B839C83E0E2F0E0E11B7D
:101DA000F109A5E5B0E09B01AC010E94F131698722
:101DB0007A878B879C879F01DF010E94D3319B012B
:101DC000AC010E94FC316D837E838F8398879B01D9
:101DD000AC0189819A81AB81BC81280F391F4A1FD0
:101DE0005B1F69857A858B859C850E94A431F22EC4
:101DF000822F90E0A9E2A217B8F1B3E02B9F9001E7
:101E0000112435952795122F109591EAC92E92E04D
:101E1000D92E00E085E5E82EEF188E2D01FD8F2DDF
:101E20009601412F60919E020E942D090F5FF3E001
:101E3000CF0ED11C093089F70E94490EAD85BE85B1
:101E400014969C9181E0992319F0903219F48FEF48
:101E50008093260180912601890FED85FE8584837C
:101E60002E96E8E00C94653125E530E0F901E81B99
:101E7000F90B9F01220F331F2E0F3F1F37FFC1CFDA
:101E80002F5F3F4FBECF0F931F93CF93DF93C1EAD6
:101E9000D2E0FE01118210821282339682E0EC3B86
:101EA000F807C1F710E000E080919A02082E000CBC
:101EB000990B081719078CF180912501082E000C49
:101EC000990B801791074CF19E0140919F02609100
:101ED0009E0280919D020E942D090F5F1F4F239645
:101EE0000930110509F70E94490E80912401909153
:101EF0009A02980F90939A0220912501280F20931F
:101F00002501121614F498301CF081958093240159
:101F1000DF91CF911F910F910895198218821A8233
:101F2000DCCFB0E0A0E0E7E9FFE00C944931FC0130
:101F30008281DD24DA9480FD02C0DD24D39401EA9D
:101F400012E0D0E0C0E0F80111821082128294E029
:101F5000E92EF12CC12C809199028C0D8A30C4F1AC
:101F600069E00E948231892F082E000C990B8C1792
:101F70009D0791F480919F028E9DA0018F9D500D31
:101F800011245595479555954795980160919E0266
:101F900080919D020E942D09CD0CF1E0EF1AF1080D
:101FA000D1F621960D5F1F4FC930D10561F60E9411
:101FB000490E8091990291E0D91210C081110CC094
:101FC00088E080939902CDB7DEB7E8E00C946531E4
:101FD00087FFCACF875FC8CF8150F3CF90E00196CB
:101FE000BE010E949031EDCFEF92FF921F93CF93ED
:101FF000DF93EC0181EAE82E82E0F82E10E08C817C
:10200000970140919F0260919E02810F0E942D09CD
:10201000145E83E0E80EF11C1C3F89F70E94490E14
:102020009A818C8190FF08C08F5F8C83DF91CF9164
:102030001F91FF90EF9008958150F7CF90919C02EF
:1020400090FF0CC0E1EAF2E0818360834283339623
:1020500092E0EC3BF907C1F70E94490E0895A3E016
:10206000B0E0E5E3F0E10C944D318C0180919B02EE
:1020700081110AC09E012F5F3F4F4FEF6FEF0E940B
:102080002D098A8180939B02F8016481613049F0B7
:102090006230D1F080919B0240E0662331F040E055
:1020A00015C060919B0240E080E00E941E10F80184
:1020B000848190E0019663E070E00E949031848317
:1020C0002396E4E00C94693140919B0280E060E04B
:1020D000ECCFA3E0B0E0EFE6F0E10C944F3190914B
:1020E0009C0290FF0AC09E012F5F3F4F0E942D0966
:1020F0004B8169818A810E941E102396E2E00C9434
:102100006B31CF93DF93EC01ECE9F2E04381628124
:102110008C810E9469108C818F5F8C83DF91CF91BD
:102120000895CF93DF93EC01EC81F0E0E351FB4F96
:102130004491ECE9F2E0628181810E9469108C8116
:102140008F5F8C83DF91CF9108950F931F93CF936F
:10215000DF9307EE12E0C7ECD0E0CE010E940B3611
:10216000F80181938F012196CB3ED105B1F7CFE6DF
:10217000D6E0FE0185919491009711F0FC0109953C
:102180002C96F6E0CF3FDF07A1F7DF91CF911F91AB
:102190000F9108950F931F93CF93DF93843038F5F9
:1021A000653028F5443018F528E0629FE0011124DD
:1021B000642F70E0660F771FC60FD71F38E2839F2A
:1021C000C00DD11D1124CE0187960E940B36082F19
:1021D00010E0102F0027CE0188960E940B36980140
:1021E000282BC901DF91CF911F910F91089590E0A5
:1021F00080E0F8CF462F672F2091BE023091BF02BA
:10220000232B91F4703F39F4403F71F48091BC026C
:102210009091BD020895843038F4753028F444302C
:1022200018F40E94CA10089580E090E00895B0E08C
:10223000A0E0EDE1F1E10C944A317C01009148030A
:1022400080913002082BC7E0D0E010E0DC2EC801FE
:102250000C2E02C0959587950A94E2F780FD09C07F
:102260002197A0F7D12C8D2DCDB7DEB7E7E00C94E8
:102270006631B7018C2F0E94FA100E94160A01974E
:1022800079F3F1CFCF93DF93D82FC92F0E94171185
:102290006D2F7C2F0E94FA100E94160ADF91CF91B9
:1022A0000895FC01808191810E9442110E94440C9A
:1022B0000895A5E0B0E0EFE5F1E10C944E314983DB
:1022C0005A8389819A81662399F0222389F00E949A
:1022D0001711182F682F89819A810E940D0C69812E
:1022E0007A81812F0E94FA102596E3E00C946A31DE
:1022F0000E94D90B182FF3CFFC01262F408151816A
:102300006281738184810E945911089583E290E073
:102310000E940B36843989F484E290E00E940B36E7
:102320008C3559F485E290E00E940B3691E08839B3
:1023300009F090E0892F8170089580E0FCCF9C0126
:10234000CB01BA01F9013296459154916417750792
:1023500048F0F9013496659174910E944F3390E0F2
:1023600080E008958FEF9FEF08950F931F93CF9311
:10237000DF9307EE12E0C7ECD0E0CE010E940B36EF
:10238000F80161918F01681719F0CE010E941F3684
:102390002196CB3ED10589F7DF91CF911F910F9107
:1023A00008959C01DA010296FC0145915491FC01CB
:1023B00085919491A817B90758F0F9013496859141
:1023C00094910E944F330E94B51190E080E00895EF
:1023D0008FEF9FEF0895CF93DF93CBEED0E060E0D7
:1023E000CE010E941F362196C11584E0D807B9F7A7
:1023F000DF91CF9108951F93CF93DF93C62F122FB4
:10240000632F8430D8F4C530C8F44430B8F498E071
:10241000C99FE001112450E0440F551FC40FD51F80
:1024200098E2899FC00DD11D1124CE0187960E948C
:102430001F36612FCE0188960E941F36DF91CF9103
:102440001F910895CF93C82F6FEF811164E983E244
:1024500090E00E941F366FEFC1116CE584E290E0BE
:102460000E941F366FEFC11168E985E290E00E947B
:102470001F36CF910895CF93682FC92F84E090E045
:102480000E941F366C2F82E290E00E941F36CF918F
:1024900008950F931F93CF93DF938B01D82FC92FEC
:1024A0000E941E09A8016D2F7C2F88E090E00E94F9
:1024B0003136DF91CF911F910F910895A7E0B0E0E1
:1024C000E4E6F2E10C944231F82E762EE42E622EF0
:1024D00090919C0290FF2BC0E92FE695AE2FB0E0C3
:1024E000A459BE4F8C91809397029E7F923019F52C
:1024F0009E012F5F3F4F8F2D0E942D094B816981D7
:102500008A810E941E10F0929D0270929E02E092BB
:102510009F02662061F080919C0290919D02A091A3
:102520009E02B0919F02BC01CD010E9449122796E4
:10253000EFE00C945E31823019F4E0909F02E3CF1B
:10254000863019F4F0909D02DECF8930D9F38931BD
:10255000D1F6E9518E2F8170582EE695F0E0E851C2
:10256000FB4FE4910E2F10E081EAC82E82E0D82EB6
:10257000B12CA12C99E0892E912CC501B4010E94A7
:102580002B318F2D511013C0860F96014E2D672DC4
:102590000E942D09A00EB11E93E0C90ED11CACEB18
:1025A000CA16A2E0DA0649F70E94490EACCF861B94
:1025B000ECCFECE9F2E0438121E1421B08F440E07A
:1025C00021E0628181810E945E120895ECE9F2E0CF
:1025D000438121E1420F08F44FEF21E062818181C4
:1025E0000E945E120895ECE9F2E0628121E1621B33
:1025F00008F460E021E0438181810E945E12089529
:10260000ECE9F2E0628121E1620F08F46FEF21E072
:10261000438181810E945E120895ECE9F2E081819C
:1026200021E04381628188500E945E120895ECE9A6
:10263000F2E0818121E043816281885F0E945E1225
:102640000895A4E0B0E0E7E2F3E10C944F3180910B
:10265000A002882319F081508093A00280919C02EF
:1026600090919D02A0919E02B0919F02BC01CD016C
:102670000E9449122496E2E00C946B31A4E0B0E091
:10268000E4E4F3E10C944F318091A002833018F41C
:102690008F5F8093A00280919C0290919D02A091F7
:1026A0009E02B0919F02BC01CD010E944912249666
:1026B000E2E00C946B31A4E0B0E0E1E6F3E10C94CD
:1026C0004F31ECE9F2E083E0808311828FEF828367
:1026D0008383148280819181A281B381BC01CD0169
:1026E0000E9449122496E2E00C946B3190E080E065
:1026F0000E941936883E9E4F19F40E948611089553
:1027000080E008951F920F920FB60F9211242F931D
:102710003F934F935F936F937F938F939F93AF9369
:10272000BF93EF93FF938091E10082FF09C08091F6
:10273000E20082FF05C08091E1008B7F8093E10081
:102740008091DA0080FF24C08091D80080FF20C0F3
:102750008091DA008E7F8093DA008091D90080FF2B
:102760009BC080E189BD82E189BD09B400FEFDCF37
:1027700081E080933D0380911803811109C00E947C
:102780009B060E9466078091E20084608093E200CD
:102790008091E10080FF17C08091E20080FF13C0AC
:1027A0008091E2008E7F8093E2008091E200806160
:1027B0008093E2008091D80080628093D80019BC99
:1027C00085E080933D038091E10084FF29C08091E2
:1027D000E20084FF25C080E189BD82E189BD09B4A2
:1027E00000FEFDCF8091D8008F7D8093D80080912E
:1027F000E1008F7E8093E1008091E2008F7E8093E4
:10280000E2008091E20081608093E20080913E03CB
:10281000882309F447C084E080933D0380913D0301
:102820008091E10083FF27C08091E20083FF23C0F5
:102830008091E100877F8093E10082E080933D03F7
:1028400010923E038091E1008E7F8093E1008091A1
:10285000E2008E7F8093E2008091E20080618093AD
:10286000E20042E060E080E00E9434078091F000E6
:1028700088608093F000FF91EF91BF91AF919F919D
:102880008F917F916F915F914F913F912F910F9019
:102890000FBE0F901F90189519BC10923D03109217
:1028A000180376CF8091E30087FD02C081E0B4CFAA
:1028B00083E0B2CF78941F921FB61F9211248F939A
:1028C0009F93AF93BF938091120390911303A091B4
:1028D0001403B09115030196A11DB11D809312033D
:1028E00090931303A0931403B0931503BF91AF917A
:1028F0009F918F911F901FBE1F9018959C014FB7FD
:10290000F8948091120390911303A0911403B09155
:1029100015034FBF821B930B08952FB7F894809136
:10292000120390911303A0911403B09115032FBFCC
:102930000895A4E0B0E0EFE9F4E10C944F319091F8
:102940009C0290FF2EC0917081112FC092609093D5
:102950009C02662361F080919C0290919D02A0915F
:102960009E02B0919F02BC01CD010E94491260916C
:102970009C02669570E04BE050E089E191E00E9496
:102980003533892BC9F01092980281E0809394022C
:1029900020E040919F0260919E0280919D020E94E2
:1029A0005E122496E2E00C946B31853210F098644C
:1029B000CECF880F982BCBCF81E0809398020E94D6
:1029C0008D149093920280939102DFCF90919C029C
:1029D00096958FEF890F913009F484E261E00E94AF
:1029E0009914089580919C0286958F5F853208F036
:1029F00081E061E00E9499140895CF93DF93C82F7E
:102A0000D62F0E9416098C1738F08D1728F40E94D3
:102A1000F214DF91CF91089561E08C2F0E949914F8
:102A2000F8CFA5E0B0E0E7E1F5E10C9447311A8278
:102A30001982FE01339683E0DF011D928A95E9F742
:102A40009BE5C92E91E0D92E10E000E0EE24E3943E
:102A5000F12CF60181916F018F3F09F446C0F89483
:102A6000E82FE295EF70F0E021A18F70A70102C07E
:102A7000440F551F8A95E2F7CA01922F982B91A314
:102A800092A18095892382A3789400C0E0E6F1E0CA
:102A900031E0B12C21912F3F09F4D4C0A22FA2958F
:102AA000AF70B0E090968C9190E02F7002C0959539
:102AB00087952A95E2F780FDC5C0832FB82A330F8A
:102AC00051E0E436F50731F7F601319780818F3F09
:102AD00011F00E94BA0980EA8A95F1F7E1E0F0E08E
:102AE000EC0FFD1FE00FF11FB0820F5F1F4F05308D
:102AF000110509F0AECF45E050E0BE016F5F7F4F9A
:102B000087E392E00E9442338C01EE24E394892B08
:102B100009F4E12C0115110549F085E0FE0131961B
:102B2000A7E3B2E001900D928A95E1F7F0903402AC
:102B3000FF2009F490C00E948D149C018091320204
:102B400090913302D901A81BB90BCD013093330208
:102B500020933202AF3FB10511F008F075C0AB2BE6
:102B600029F12091350230913602A9014C5F5F4F67
:102B7000B901685E7F4FD12CC12CF9019191992345
:102B800039F0DF011197891708F461C01C92DF2C1E
:102B90004E175F0799F72C5F3F4F4C5F5F4F6417ED
:102BA000750759F7C0923402D09231020115110510
:102BB00069F480913102882309F43FC0F11006C006
:102BC0000E948D14909333028093320260913502FB
:102BD0007091360210913402A7E3B2E04CE852E063
:102BE000CC24C394D12C02E09D91FA018191AF01D4
:102BF0009827FB0130E020E05601022E02C0AA0C0B
:102C0000BB1C0A94E2F7F92EFA2031F0F080F110A3
:102C100003C000838A2511E031962F5F3F4F243097
:102C2000310551F76C5F7F4FFA0131978083F2E0F5
:102C3000AC33BF07C9F6109334028E2D2596EAE017
:102C40000C94633180E03ACF8FEF90E08ACF981BED
:102C50009C93CF2C9DCF0115110509F4AACFB0CFBD
:102C6000CF93C82F8091170382FF0CC080912F0251
:102C70008C1741F00E948D1490932E0280932D02A8
:102C8000C0932F02CF9108958091E9029091EA02BA
:102C9000892B91F00E948D1420912D0230912E02EB
:102CA000AC01421B530B9A0181E04091E902509123
:102CB000EA022417350708F480E0817008958091B6
:102CC000C60290914703892B8093A20180912F0225
:102CD000882319F18091E9029091EA02892B29F069
:102CE0000E94441681110E948B0B8091A201909149
:102CF0002F02892B8093A20180912C018823E1F17E
:102D00008091160387FF38C08EE1E4EAF1E090E09D
:102D10008150A0F591110E948B0B40E250E06DE0D4
:102D200072E082EA91E00E944233892B21F180E235
:102D3000E2EAF1E0ADE0B2E001900D928A95E1F7B0
:102D4000E0910F03F09110033097A9F080912C01CE
:102D5000882359F08091160387FF07C08091A20154
:102D60008093A30186E08093A2010280F381E02D8D
:102D700082EA91E00995089586E0C7CF2191222348
:102D800039F29F5FC5CF80912B01877F80932B0104
:102D9000909147039D7F9093470384FF08C08F7EE7
:102DA00080932B018091C60282608093C60280913D
:102DB0002B0185FF08C08F7D80932B018091C60277
:102DC00080628093C6020E945F1608951092C60228
:102DD00080912C01E4EAF1E0882371F080911603E0
:102DE00087FF0AC08EE1DF011D928A95E9F71092F4
:102DF00047030E945F16089586E0F5CFAAE2B0E08F
:102E0000E4E0F7E10C944E318FE393E0FC0101968E
:102E10002091F100208323E087349207B9F7809155
:102E20004003893009F456C0C8F4823009F4B3C0B5
:102E3000833009F482C0813071F18091E80083FF12
:102E400092C280913F03909140039A3008F08BC268
:102E5000E92FF0E0EB5AF94C0C94C6318A3009F4B2
:102E600089C08B3051F780913F03813231F78091D7
:102E7000430390914403892B01F78091E800877FF9
:102E80008093E8000E9415078091410380932C01F4
:102E90000E94E616D2CF80913F03813A71F680916D
:102EA000E800877F8093E80080914303909144037A
:102EB000892B61F460E28BE193E070E00E94C1072E
:102EC0008091E8008B778093E800B7CF60E090E0D6
:102ED00080E0F3CF80913F03813209F0AECF809143
:102EE0004303909144038D7F892B09F0A6CF8091F5
:102EF000E800877F8093E8008091E80082FF18C097
:102F00009091F3008091F200029731F48091F100EA
:102F1000813011F0863021F48091F10080931A0302
:102F20008091E8008B778093E8000E94150785CF99
:102F300080913D038111E0CF80CF80913F03813AA2
:102F400009F07BCF8091430390914403892B09F0D2
:102F500074CF8091E800877F8093E8008091E8003B
:102F600080FFFCCF80912C018093F1008091E800DC
:102F70008E77D9CF80913F03813209F05ECF809167
:102F8000E800877F8093E8000E9415078091420344
:102F90008093190352CF80913F03813A09F04DCFBE
:102FA0008091E800877F8093E8008091E80080FFAF
:102FB000FCCF80911903D8CF803899F0823809F07E
:102FC000D2C1809143038F70873008F0CCC18093C9
:102FD000E9008091EB0085FB882780F91092E900D9
:102FE00006C080913B0390913C03911182609091C7
:102FF000E800977F9093E8008093F1001092F10031
:103000008091E8008E77ABC1882309F499C18230A2
:1030100009F0A9C18091410381119CC180914303B2
:103020008F702FEF280F263008F09DC18093E900A4
:103030002091EB0020FF8EC1933031F48091EB00A2
:1030400080628093EB0086C19091EB009061909339
:10305000EB0021E030E001C0220F8A95EAF72093CF
:10306000EA001092EA008091EB008860EACF8111BB
:103070007AC1109141031F778091E3008078812B02
:103080008093E3008091E800877F8093E8000E94AE
:1030900015078091E80080FFFCCF8091E3008068F5
:1030A0008093E30082E0111183E080933D035BC1D4
:1030B0008058823008F057C140914103509142033B
:1030C0004C3D83E05807A1F583E08A838AE2898337
:1030D0004FB7F894DE01139620E03EE051E2E32F73
:1030E000F0E050935700E49120FF03C0E295EF70A9
:1030F0003F5FEF708E2F90E0EA30C0F0C7968D935F
:103100009D932F5F243159F74FBF8091E800877F4F
:103110008093E8006AE270E0CE0101960E94C10748
:103120008091E8008B778093E8001DC1C096E7CFBF
:103130008091430390914403252F33272330310599
:1031400009F44AC078F52130310509F486C08BE5D1
:1031500090E0E9EFF6E02230310509F004C120915A
:10316000E800277F2093E800209145033091460333
:103170008217930708F49C0140E02115310509F0FE
:1031800071C041116FC08091E80082FDC9CF80916C
:103190003D03882329F2853019F28091E80083FFEE
:1031A000F2CFBECF2132310509F448C022323105B9
:1031B00009F0D9C08330910508F0D5C0FC01EE0FAD
:1031C000FF1FEC56FE4F0190F081E02D8F569E4F71
:1031D000DC018C9190E026C0CA019927423031F180
:1031E0008330910568F40097B1F0019709F0BBC0F6
:1031F000E4E9F7E0E4918E2F90E0E4E9F7E012C013
:10320000039709F0B0C0E6E6F7E0E4918E2F90E076
:10321000E6E6F7E007C0E4EBF7E0E4918E2F90E0FC
:10322000E4EBF7E0009709F49EC099CFE4E8F7E0FB
:10323000E4918E2F90E0E4E8F7E0F4CF833091053D
:1032400008F091C0880F991FFC01E656FE4F0190CF
:10325000F081E02D89E090E082CF82E190E0E4E52A
:10326000F7E07DCF80913D03882309F459CF853065
:1032700009F456CF8091E80083FD52CF8091E80099
:1032800082FD81CF8091E80080FF77CF9091F3009D
:103290008091F2002115310519F08830910550F028
:1032A00041E0089709F040E08091E8008E77809334
:1032B000E80063CF44914093F100319621503109E9
:1032C0000196E8CF803809F04EC08091E800877FF2
:1032D0008093E80080913E038093F10091CE8111AC
:1032E00042C0109141031230F0F58091E800877FD1
:1032F0008093E80010933E030E941507112311F0FC
:1033000084E005C08091E30087FDFACF81E08093DF
:103310003D0342E061EC81E00E94340742E261EC4F
:1033200084E00E94340742E261EC82E00E943407AC
:1033300042E260EC83E00E94340780913D0313C0B9
:1033400080914103813079F481E0933009F080E08D
:1033500080933C031092E9008091E800877F80937E
:10336000E8000E9415078091E80083FF0AC0809161
:10337000E800877F8093E8008091EB008062809373
:10338000EB00AA96E3E00C946A311F920F920FB6FD
:103390000F9211242F933F934F935F936F937F93DB
:1033A0008F939F93AF93BF93CF93DF93EF93FF934D
:1033B000D091E900DF708091EC00C82FC17080FDD2
:1033C000C0E81092E9008091F000877F8093F000C0
:1033D00078940E94FE161092E9008091F0008860B7
:1033E0008093F000CD2BCF70C093E900FF91EF9157
:1033F000DF91CF91BF91AF919F918F917F916F910D
:103400005F914F913F912F910F900FBE0F901F90A2
:103410001895E7EEF2E0128E138E8FEA90E091831A
:10342000808385E0848F28E833E13383228322E39D
:1034300030E0378B268B28EC30E0318F208F158ED3
:103440002AE030E0378F268F20E530E031A320A33B
:1034500082A30E94B5110E94E616109217031092E3
:103460001603E7E1F3E08081846080838091160396
:10347000909117030E943B120E94A51008958F920D
:103480009F92AF92BF92CF92DF92FF920F931F93C2
:10349000CF93DF93809027019090280181E090E006
:1034A0009093280180932701B12CA12C00E06501A5
:1034B00010E013C0FE01259134914F2D612F802F14
:1034C0000E94FB112296F39484E0F812F3CF84E07B
:1034D000C80ED11C1F5F153039F0E601CC0FDD1F7F
:1034E000C351DA4FF12CE6CF0F5F84E1A80EB11C77
:1034F0000430E9F60E94091A90922801809227016F
:10350000DF91CF911F910F91FF90DF90CF90BF90EF
:10351000AF909F908F90089580E00E94221260E00B
:1035200086E290E00E941F360E943F1A0E94EB1133
:1035300081E00E942212089568EE7EEF90E080E024
:103540000E943D3660E082E090E00E941F3660E01D
:1035500083E090E00E941F361092300260E084E029
:1035600090E00E941F3664E082E290E00E941F36E5
:1035700060E085E090E00E941F3660E086E090E029
:103580000E941F366FEF87E090E00E941F3640E0F8
:1035900050E0BA0188E090E00E94313660E08DE0B2
:1035A00090E00E941F3640E050E0BA0188E190E0D0
:1035B0000E94313660E087E190E00E941F3640E0D3
:1035C00050E0BA018CE190E00E94313670E060E09A
:1035D00080E290E00E943D3640E050E0BA0188E190
:1035E00090E00E94313680E00E9422120E948C1AE4
:1035F00040E050E0BA018FE090E00E94313640E0B8
:1036000050E0BA0183E190E00E9431360895CF92F4
:10361000DF92EF92FF92FB018FEF9FEF4430510555
:1036200008F47FC0C080D180E280F3800E94E6165B
:10363000D701C601B695A795979587958170282FD4
:10364000220FD701C60181709927AA27BB27822B99
:10365000B701A60132E076956795579547953A955B
:10366000D1F74170440F440F842BB701A601E3E06A
:103670007695679557954795EA95D1F74170440F30
:10368000440F440F842BB701A601F4E076956795AB
:1036900057954795FA95D1F741704295407F842B15
:1036A000B701A601A5E07695679557954795AA9528
:1036B000D1F741704295440F407E842BB701A6019B
:1036C000B6E07695679557954795BA95D1F74170CD
:1036D0004295440F440F407C842BB701A60197E02C
:1036E00076956795579547959A95D1F747954427CD
:1036F0004795842B80931603D1FA882780F9880F89
:103700009D2D9170892B909117039C7F892B80931D
:10371000170380911603909117030E943B1290E0CB
:1037200080E0FF90EF90DF90CF9008950E94E61622
:103730002FEF84E39CE0215080409040E1F700C0EF
:10374000000088E19AE00FB6F894A8958093600095
:103750000FBE90936000FFCF809348031092470301
:103760000E945F16089580914803982F96709630B6
:1037700021F488600E94AC1B0895877FFBCF21E075
:1037800030E001C0220F8A95EAF720958091480326
:1037900082230E94AC1B089590910C02809589238E
:1037A00080930C02282F277091F4282F082E000CEC
:1037B000330B9217130659F09091170392FF07C02D
:1037C0008595859585950E94BF1B0E949E0B089547
:1037D0009091170392FB222720F9281769F080FBAC
:1037E00092F99093170380911603909117030E940A
:1037F0003B1282E00E94CC1B089521E030E001C022
:10380000220F8A95EAF780914803822B0E94AC1B15
:1038100008959091170392FF10C098E0899F90013E
:103820001124622B60930C020E94FD1B0E948D14D8
:1038300090930B0280930A0208950E94FD1B089545
:1038400080933002109247030E945F1608958823E8
:1038500041F08095909147038923809347030E940C
:103860005F160895882339F090914703892B809340
:1038700047030E945F160895882321F00E94960B4B
:103880000E945F160895882339F09091C602892B13
:103890008093C6020E945F160895682F882391F1D5
:1038A0008CEF860F813A38F482EA91E00E94510849
:1038B0000E945F16089580E2860F883048F4677092
:1038C00081E001C0880F6A95EAF70E94960BF0CF5D
:1038D0008BE5860F8330B8F48091C5019091C601C5
:1038E000892B81F01092C6011092C501E0910F035F
:1038F000F0911003309731F00680F781E02D90E0D1
:1039000080E009950895685A6731E0F78091C70112
:103910009091C801892BB1F31092C8011092C70190
:10392000E0910F03F0911003309761F30084F1856B
:10393000E02DE5CFCF93DF93EC010E944D1CCE012B
:103940000E94720C9E01205E31092830310510F072
:10395000CD2B29F40E943C1CDF91CF9108950E9449
:10396000271CFACFCF93C82F882309F442C08CEFCD
:103970008C0F813A08F064C080912C018823D9F122
:103980008091160387FF37C0EC2FE695E695E69504
:10399000F0E0EE55FE4F828190E04C2F477021E021
:1039A00030E002C0220F331F4A95E2F782239323AF
:1039B000892B61F06C2F82EA91E00E9451080E94ED
:1039C0005F1622C08091160387FF22C0EC2FE69578
:1039D000E695E695F0E0EE55FE4FC77021E030E049
:1039E00001C0220FCA95EAF78281822B82830E944E
:1039F0005F16CF910895E4EAF1E08191C817D1F202
:103A000081E0EA3AF807C9F780912C018111DACFF9
:103A1000A4EAB1E0EFEF80E09D91C91741F3EF3FD9
:103A200019F4911101C0E82F8F5F8630A9F7EF3F9D
:103A3000F1F20E2E000CFF0BEE55FE4FC283D7CFD6
:103A400080E28C0F8830A8F6C77021E030E001C01A
:103A5000220FCA95EAF78091C602822B8093C60294
:103A6000C6CF0F931F93CF93C82F009107031091D8
:103A70000803893321F000910503109106038C2F70
:103A80000E94B21C0115110539F48C2F0E944D1CA7
:103A9000CF911F910F9108958FE99FE00197F1F762
:103AA00000C0000001501109EDCFB0E0A0E0EBE54F
:103AB000FDE10C944A31E82FF0E0E758FE4FD49036
:103AC000282F26952695269530E0F901E759FE4FD7
:103AD0000491877010E0082E02C0159507950A948E
:103AE000E2F701701127F901E75AFE4FE490F12C3B
:103AF000082E02C0F594E7940A94E2F791E0E922D7
:103B0000FF24F901E75BFE4FC491D0E002C0D595D8
:103B1000C7958A95E2F7C170DD270115110519F0E7
:103B200081EE0E94B21CE114F10419F086EE0E94AD
:103B3000B21C8D2D0E94311DE114F10419F086EEA6
:103B40000E944D1C0115110519F081EE0E944D1CBB
:103B5000CD2B19F08CE20E94311DCDB7DEB7E7E026
:103B60000C9466311F93CF93DF93EC011AE08881A8
:103B7000882309F43EC08130C9F599818A8191304A
:103B800029F422960E94311D2196F1CF923021F422
:103B900022960E94B21CF8CF933021F422960E9404
:103BA0004D1CF2CF943011F02196EECF229630E0EA
:103BB00020E0AE014F5F5F4F8053990B8A30910533
:103BC00050F02150310900F38FE99FE00197F1F7A0
:103BD00000C00000F6CF129FB001139F700D11249A
:103BE0009C01260F371F8981EA01E3CF0E94551DF2
:103BF000CBCFDF91CF911F910895CF93DF93EC014D
:103C00000E94720C9E01205E31092830310510F0AF
:103C1000209741F40E94431C8C2F0E94B21CDF911C
:103C2000CF9108950E94321CF7CF662329F020918E
:103C300047032260209347039C013056211540E240
:103C4000340720F0305E2115304108F499270E9496
:103C5000FD1D0895B0E0A0E0E0E3FEE10C944A31E0
:103C6000EC018B01D42E80912B0182FF89C0E09062
:103C70000D03F0900E03EC16FD0619F0209709F0E5
:103C80007FC080912B018B7F80932B01C1E081FD50
:103C900010C080910B0390910C039801281B390BE5
:103CA000C1E08091290190912A012817390708F471
:103CB000C0E0C17080912B01C0FB81F980932B0182
:103CC000F70183E0F695E7958A95E1F7EE71FF2716
:103CD000E953FD4F20813181A7014F70552781E0C5
:103CE00090E002C0880F991F4A95E2F7CC2309F4AF
:103CF00042C0822B932B918380838091C60281FFE7
:103D000008C080912B01806180932B0182E00E948A
:103D1000960B8091C60285FF08C080912B018062BE
:103D200080932B0180E20E94960B6C2FC7010E94AA
:103D3000151EDD2031F08091020385FF02C086FF51
:103D400038C080910503909106030E943D0E80913A
:103D50000D0390910E039C013056211540E234076B
:103D600020F0305E2115304108F499270E949A1CFA
:103D70000E94C3161AC08095909582239323BBCFCF
:103D8000CE019056811520E2920720F0905E8115B9
:103D90009041A0F4CE0199270E949A1C80910D03B6
:103DA00090910E038C179D0719F310930C03009349
:103DB0000B03CDB7DEB7E7E00C946631CE01ECCF54
:103DC000CF92DF92FF920F931F93CF93DF93CDB7E4
:103DD000DEB767970FB6F894DEBF0FBECDBF142FC6
:103DE0004B8B052F5C8BF62E6D8B7E8B8F8BCE884D
:103DF000DF88A601602F812F0E94C40B811109C0AA
:103E00008091C3019091C40101969093C401809365
:103E1000C301F110109247031A8A8091170382FFA1
:103E20001EC08091E9029091EA02892BC1F00E94A4
:103E30008D1420910A0230910B02821B930B20916A
:103E4000E9023091EA028217930720F080910C0278
:103E500082FF86C00E94441681110E948B0B1D8731
:103E60000E87FF86D98AC88A86E0FE013D96DE016C
:103E7000179601900D928A95E1F7CE0107960E9460
:103E8000B826811114C086E0FE013796DE01119636
:103E900001900D928A95E1F7DF80F8840A851B85F1
:103EA000A8016F2D8D2D0E94C40B8823A9F016E068
:103EB000809109029091D80189133FC067960FB68F
:103EC000F894DEBF0FBECDBFDF91CF911F910F9150
:103ED000FF90DF90CF9008952091D80130E0C90184
:103EE0000196877099274091090248171906B9F081
:103EF000D982FA821D830C8396E0929FD001939F12
:103F0000B00D1124A752BE4FFE01319601900D92C3
:103F10009A95E1F78093D8010E94CF0BC8CF0E94F9
:103F2000E6161092D8011092090286E0E2EDF1E067
:103F3000DF011D928A95E9F7BACF819FC001112454
:103F400087529E4F0E94B826882309F4B7CF8091EC
:103F5000090290E001968770992780930902A8CF03
:103F600082E00E94CC1B76CFA5E0B0E0EAEBFFE157
:103F70000C944F319093BD028093BC02811520E2D6
:103F8000920730F40E949A1C2596E2E00C946B3163
:103F900080EF89838A831B820E948D148160782F31
:103FA0009D838C8349815A816B818D810E94E01EA3
:103FB000EBCFA5E0B0E0EFEDFFE10C944F31909333
:103FC000BD028093BC02811520E2920730F40E946A
:103FD000FD1D2596E2E00C946B3180EF89838A8386
:103FE00081E08B830E948D148160782F9D838C8368
:103FF00049815A816B818D810E94E01EEACFA8E041
:10400000B0E0E5E0F0E20C9445317C01DC01139670
:104010004D915C91149711966C9111978C910E941F
:10402000C40B8111DDC061E0C7010E947C118C01CD
:10403000F7018281882309F4D2C5C80182519F45C6
:10404000409708F09BC58FEF93E00E940B368111DB
:10405000B7C0EEEEDE2ED00E0BEE10E0D1103EC05B
:1040600080912D0190912E01A0912F01B0913001EE
:1040700089839A83AB83BC8399249A9468012FEF38
:10408000C21AD20AC8010E940B3689831A82882379
:1040900009F496C0813009F088C0580132E0A30EBF
:1040A000B11CC6010E940B36D82E8A83882309F4DE
:1040B00087C0C5010E940B36C82E8FEF8D0D83304F
:1040C000D8F4580183E0A80EB11CCB82CC2021F09B
:1040D000CE0101960E94B21D8501D0CF0115F4E0FA
:1040E0001F0709F46DC0C8010E940B36811101C081
:1040F000DA940F5F1F4FB2CF8BEF8D0D833070F5C9
:10410000C8010396CB825C01CC2031F35801A4E0B6
:10411000AA0EB11C0E940B368C838823E9F20B8116
:104120001C810130BFEF1B0710F0102F0027E6E0C5
:10413000DE1681F0F7E0DF1649F0C8010E94D91FB2
:1041400080910503909106030E943D0EC8010E94D4
:10415000B41FC2CFC8010E94D91FBECF24E0D21223
:10416000BBCF580134E0A30EB11CC80103960E94D6
:104170000B36282FCC2021F1882311F12150330B4D
:10418000929EA001939E500D1124AC2DA150BB0B0B
:10419000CD01840F951F019708F49ECFEFE9FFE052
:1041A0003197F1F700C00000F6CFCE0101960E94D2
:1041B000B21D560191CF81E00E94FD1B0E94B31BEE
:1041C00080910C02877061F0D70112968C91882340
:1041D00039F08091170382FF03C082E00E94CC1B5C
:1041E0002896ECE00C94613181E00E94BF1BE6CF81
:1041F00082E0E2CF82E0F9CF823049F46501F2E05B
:10420000CF0ED11CF60184910E94B21CE3C483300E
:1042100049F46501F2E0CF0ED11CF60184910E94B1
:104220004D1CD8C4843009F0D5C46501F2E0CF0E2E
:10423000D11CF601249190E080E0F60131962053E4
:10424000330B2A30310550F0019708F4C3C4AFE9AD
:10425000BFE01197F1F700C00000F6CF989EA001D3
:10426000999E500D1124C901840F951F24916F014F
:10427000E4CF0E94551D6501ADC480912B01816082
:1042800080932B01E4C480912B018E7F80932B01BE
:104290000E94C316DCC480912B018F7E013E110564
:1042A00031F0053E1105D9F480912B018F7D80936B
:1042B0002B0180912B0180FFD9C4F7018281083244
:1042C000110540F50E31110508F077C09801245012
:1042D00031092A31310580F18111C4C4C7C4C80134
:1042E00090568115A0E29A0720F0905E81159041CA
:1042F00000F780912B0182FFB9C48091040381FDF6
:10430000B5C423E432E040E0B50190E080E00E94D3
:104310002A1EACC40933110558F40D32110518F4E6
:104320000B321105C9F69091020392FDD5CF08C05A
:1043300004361105C1F3D0CF9091020394FDCCCF88
:10434000882309F4A1C09091C60280912F02D82E33
:10435000D92A2D2D2D7FB1F110920E0310920D034D
:104360002091020321FD2EC0F80143E0F695E79568
:104370004A95E1F7EE71FF27E953FD4F98012F7041
:10438000332781E090E002C0880F991F2A95E2F759
:10439000809590952081318182239323918380831E
:1043A00060E0C8010E94151E80912F028D7F0E943F
:1043B000301682E00E94CC1B03CF9091020393FD44
:1043C0008BCFBECF26E0F701A3E4B2E001900D92BF
:1043D0002A95E1F710924502109247021092460288
:1043E00080900D0390900E0308151905B1F52091EA
:1043F000020325FF32C030912B0131FBCC24C0F8E1
:1044000031FF02C026FF29C020910B0330910C031D
:10441000A501421B530B2091FF023091000342176C
:104420005307D8F491FF08C080912B0180618093DD
:104430002B0182E00E94960B8091C60285FF08C086
:1044400080912B01806280932B0180E20E94960B69
:104450006C2DC4010E94151EB3CE8D7F0E943016B4
:1044600010930E0300930D03B0920C03A0920B0364
:104470008D2D82708460D0902B01FD2DF97FDF2E71
:10448000D82AD0922B0195CF970140E0B501C80101
:104490000E942A1E95CE0D35100709F491CEF70122
:1044A0008281C080D180882309F42EC1C6010E9478
:1044B0001711182F682FC6010E940D0CB601812F0D
:1044C0000E94FA100E94160A8C01882ED7011296BB
:1044D000BC9012971596DC90D2943FE0D322809145
:1044E0000C028770C1F0AB2CBB20B1F0812F807F14
:1044F000803421F080E2800F883068F080911703CB
:1045000082FF09C082E00E94CC1B80910C02877060
:10451000AA24A3948111A12C912E92942FE092228F
:10452000B8E09B1609F4F0C1B91508F4F2C0E1E057
:10453000E91508F003C18EE0890D8F70823008F410
:1045400038C1292D2850330B2430310510F40E9436
:104550007D08C8010E94440C8111EAC21092C40176
:104560001092C301AA20A9F080910C0280FD11C015
:10457000F70112828595859585950E94FD1BC701DF
:104580000E94FF1F80910C028595859585950E945C
:10459000BF1B60E0C7010E947C1122CE80919C026B
:1045A00080FF21C08E7F80939C0280919C0290911D
:1045B0009D02A0919E02B0919F028D839E83AF8346
:1045C000B887BC01CD010E944912109298029FEF5A
:1045D000A0E7B2E09150A040B040E1F700C0000079
:1045E0000E94490EEDCD816080939C0261E086952A
:1045F0000E949914E5CD46EE54E162EF74E10E9409
:104600000F09DECD42EF54E166EE74E1F8CF4DE0E4
:1046100053E167E173E1F3CF47E153E16DE073E10B
:10462000EECF43EF52E160E073E1E9CF40E053E1C8
:1046300063EF72E1E4CF49ED52E166EE72E1DFCF64
:1046400046EE52E169ED72E1DACF41E253E16EE309
:1046500073E1D5CF4EE353E161E273E1D0CF61E086
:1046600081E0C6CF65E082E00E94FD14A9CD68E03C
:1046700086E0FACF6EE089E0F7CF64E18FE0F4CF17
:1046800067E185E1F1CF61E088E1B2CF62E289E1E3
:10469000EBCF61E083E2ACCF0B35EDE51E0791F186
:1046A000D0F40E3D2CE5120701F181E00A353DE51D
:1046B000130729F101151C4509F0F1CE0E94E616F9
:1046C000BFEFE4E3FCE0B150E040F040E1F700C0B0
:1046D00000000E9423080C359DE5190749F0073AB0
:1046E0001D4509F0DCCE0E94961B0E949C1AFBCF50
:1046F0008091170382FB882780F991E089270E9427
:10470000E81BCDCE80E0FBCFC6010E94D90B182F4D
:10471000D5CEF9E09F1609F466C186E0890D8F7049
:10472000823008F00ECF802F22EF82126DC1812FD0
:104730008F71B11066C10E94FD1B03CF312F3F70F6
:10474000C32E812F807F19F0C29490EFC922BB2025
:10475000B9F0CC2069F080E2800F883010F0811031
:1047600009C08091C602C82AC092C6020E945F1684
:10477000802F5CC080914703C82AC0924703F6CFC0
:10478000802F0E944D1CCC2009F4DBCE80E2800FEC
:10479000883010F0811004C08C2D0E94960B06C04A
:1047A000C09480914703C822C09247030E945F16BD
:1047B000C8CE812F8F70C82E812F807F803219F054
:1047C000C29480EFC822882009F191E0891609F48B
:1047D00080C0BB2009F489C0DD2009F451C020E06D
:1047E000F701408151816281738184810E94591156
:1047F0008091040381FDBCCFD70115968C9115974C
:1048000080FFB6CF8F7015968C933AC080911703B6
:1048100082FD16C0BB2069F0CC2039F08091C60221
:10482000C82AC092C6020E945F1680E00E94B21C95
:1048300088CE80E00E944D1CCC2009F482CEACCF03
:10484000BB2011F1D11004C080912F028C2919C016
:10485000A1E0DA1206C080912F028C290E94301646
:1048600070CE80910303823078F3D812EDCF0E948E
:104870008B0B9091C2018C2D892B89138093C201DF
:104880008C2D0E94431C5DCED11003C00E948B0B67
:1048900017C080910303B1E0DB1216C0823008F428
:1048A00050CE8091C6028C2109F44BCE0E948B0B16
:1048B0009091C2018C2D8095892389138093C20128
:1048C0008C2D0E943C1C3DCE823000F3D812DECFEE
:1048D00038CE80910903BB2021F08D1508F431CE2C
:1048E000CFCFD81608F02DCEEBCFDD2049F3B9E3BA
:1048F0008B1216C180910703909108030E943D0E10
:10490000802F0E944D1C1DCE812F837099F5B11010
:1049100018CE402F429546954770440F440F802F84
:104920008F70042E01C0880F0A94EAF7202F20719F
:1049300004FF07C02FE030E001C0220F4A95EAF7DC
:104940002095312F369536953370323071F03330F3
:1049500051F040913002313029F0822B84230E94A3
:10496000201CEFCD842B822BFACF282B8091300294
:104970008227F5CF8695BB2011F0812F8170882387
:1049800009F4DFCD402F429546954770440F440F00
:10499000802F8F70042E01C0880F0A94EAF7202F11
:1049A000207104FF07C02FE030E001C0220F4A95BC
:1049B000EAF72095312F369536953370323071F005
:1049C000333051F040914803313029F0822B842359
:1049D0000E94AC1BB6CD842B822BFACF282B809162
:1049E00048038227F5CFE12FEF70CE2EBB2029F0B0
:1049F0008E2F0E94FD1B802F44CF802F0E943C1CD5
:104A00008C2D0E94BF1B9DCDF2EFF81570F020EFAA
:104A10008216D1F031EF831691F0BB2009F47BC0F0
:104A2000D110A6CE812F8F7186CE93EF891619F102
:104A3000A4EF8A12F2CF8091170382FD28C0812F44
:104A40008F71BB20F1F277CE80910903BB2079F002
:104A5000D81608F076CD212F2F7181E090E001C0AB
:104A6000880F2A95EAF7909148038927B1CF8D15D1
:104A700008F467CDF0CF80E0BB2009F4A9CF81E036
:104A8000912F9F7101C0880F9A95EAF7A1CF80916D
:104A90000303823040F1BB20D1F090910C0297705B
:104AA000943041F40E949E0B812F8F710E94BF1B96
:104AB000A12C47CDD816E0F7B12FBF71CB2E8B2F8D
:104AC0000E94FD1B63E08C2D0E94091CF1CFD816BB
:104AD00030F00E949E0B64E0812F8F71F5CF81E052
:104AE0000E94CC1BE5CFBB2059F0E12FEF71CE2EF9
:104AF0008E2F0E94FD1B63E08C2D0E94091C21CD8E
:104B000081E00E94CC1BF1E0FD1508F01ACD82E097
:104B10000E94CC1B16CDDD2041F0893309F4EACE8A
:104B20008091050390910603E9CE812F8F7169CFA3
:104B3000BB2019F0D11012CD15CDD1100FCD20E032
:104B4000D7014C9111965C91119712966C91129726
:104B500013967C91139714968C910E945911809111
:104B6000040383FFFBCC8091C3019091C4010297A1
:104B700009F0F4CC802F0E94311DF0CC0031FFE50C
:104B80001F0709F418CB01312FE5120709F430CBC8
:104B90000D3A9DE5190769F559EFA52E51E0B52E9F
:104BA0006AE0962EF5018491882319F1813009F08D
:104BB00060CB6501FFEFCF1ADF0AF60184918130E7
:104BC00009F01ACB6501F2E0CF0ED11CF6018491F9
:104BD0000E94311D5601EFEFAE1ABE0AE3CF00313D
:104BE0003FE5130709F400CB01318FE5180709F4FD
:104BF00001CB8091020380FF39C00E948D145C01BB
:104C0000D70112968C91882309F445CB80912B0112
:104C100082FF08C023E432E040E0B50190E080E08C
:104C20000E942A1E0B31BCE51B0709F426CB0C3170
:104C3000ECE51E0709F427CB90912B01892F8E7F7D
:104C400090FF81600A31FCE51F0709F41FCBC80102
:104C50009056811520E2920728F0905E81159041D0
:104C600008F027CB10920E0310920D03D701129675
:104C70008C91811111CD8091C6028272063DBCE5F6
:104C80001B0708F008CC023CECE51E0708F407CC33
:104C9000F801E35CFC45E331F10508F07FCCE15A13
:104CA000F94C0C94C631B0E0A0E0E9E5F6E20C94D2
:104CB00048318091D701807F09F052C08091D401A2
:104CC000882309F44DC0C091090286E0B82E809176
:104CD000D8018C1709F444C0F090D201E090D301C0
:104CE000C090D501D090D601A6016E2D8F2D0E94C7
:104CF000C40BD0E0811139C0BC9E8001BD9E100D57
:104D00001124F801E752FE4F81818E112EC080815F
:104D10008F112BC08281811128C0E380F480EC18B0
:104D2000FD0860E082ED91E00E947C118091FF021D
:104D300090910003E816F906C0F48091D7018F70B6
:104D400080618093D701F801E252FE4F80818F701D
:104D50008061808382ED91E00E94FF1F0E94CF0B53
:104D6000CDB7DEB7E9E00C9464312196C770AFCFC0
:104D7000ABE0B0E0EEEBF6E20C9440318C0185E064
:104D8000F801DE01179601900D928A95E1F7D8019E
:104D90004C9011965C9011971296EC901297139686
:104DA000CD90DC9060E082ED91E00E947C1182ED7C
:104DB000A82E81E0B82E8090D5019090D601A40154
:104DC0006091D3018091D2010E94C40B81116BC10B
:104DD000F090D401F601E819F9094F0160E0FF20D5
:104DE00009F419C1C5010E947C116090FF02709006
:104DF00000033090D7018614970408F0E7C0409173
:104E0000D5015091D601B090D201A090D301832D4D
:104E1000807F6A2D09F092C08B2D0E94C40BFE2C5E
:104E200081111DC0D80111968C9111978A1117C05C
:104E30008C918B1114C0E11012C0832D8F70806192
:104E40008093D70182ED91E00E94FF1F8091D701EE
:104E5000F80185838F2D2B96E1E10C945C31F4EF02
:104E60006F16F1E07F0620F48091040380FF21C0DB
:104E7000A601652D842D0E94C40B811118C081E00C
:104E80008E2580FF16C04E2D652D842D0E94A50B0A
:104E9000882379F082ED91E00E94FF1F86E0E2ED29
:104EA000F1E0DF011D928A95E9F7F12CD3CF80E084
:104EB000E8CFA601652D842D0E94C40B811123C06B
:104EC00081E08E25B82FB170DB2E80FF2EC04E2DD5
:104ED000652D842D0E94A50BC82E811126C04F82FE
:104EE00058868F8198850E944211292F22952F7014
:104EF000903258F0225F2F70223078F0C8010E9463
:104F0000FF1FCD2C10C080E0DDCF9F7011F08823F3
:104F100051F0805E883038F0F1CF9F70D1F3F80106
:104F20009581907FB1F7FC2C95CFEE2009F492CFBC
:104F30008091D70181608093D701B7CF8B2D0E94DC
:104F4000C40B811119C0D80111968C9111978A1147
:104F500013C08C918B1110C0E1100EC015963C92BD
:104F6000C8010E94FF1F86E0F801A2EDB1E00190A8
:104F70000D928A95E1F76ECFC8010E9451118823E6
:104F800009F1EE20F9F08091D701803270F0209184
:104F9000D2013091D3013A8329831B82DD82CC82F6
:104FA0008E83CE0101960E94FF1F86E0F801A2EDDC
:104FB000B1E001900D928A95E1F70E945326FF24FB
:104FC000F39448CFC8010E94FF1FF9CF832D807F43
:104FD00009F460CF9090D2018090D3014091D50127
:104FE0005091D601682D892D0E94C40B8111C4CF28
:104FF000F80181818811C0CF80818911BDCFE11076
:10500000BBCF3582C8010E94FF1F86E0D5011D92EB
:105010008A95E9F71FCF82ED91E00E947C11809183
:10502000FF02909100038816990678F7FE2CEE2077
:1050300049F2E090D201D090D3014091D501509136
:10504000D6016D2D8E2D0E94C40B81111EC0F8015A
:1050500081818D111AC080818E1117C08091040347
:1050600082FD81CF8091D70180FD7DCF982F907FE9
:1050700009F479CF8583903F09F472CF982F907F00
:10508000905F8F70892B85836BCFC8010E9451116F
:1050900081118BCF8091D70181608093D701C801A6
:1050A0000E94FF1FD7CEEE2009F48CCFC8010E94CA
:1050B0005111F82E882309F485CF86E0F801A2ED7E
:1050C000B1E001900D928A95E1F78091D201909123
:1050D000D3010E9442110E945326BCCE1F921FB6DC
:1050E0001F9211248F939F93AF93BF9380911103CD
:1050F000811113C08091120390911303A0911403A6
:10510000B09115034196A11DB11D80931203909398
:105110001303A0931403B0931503BF91AF919F9114
:105120008F911F901FBE1F901895CDB7DEB7AD971A
:105130000FB6F894DEBF0FBECDBF85B7806885BFC0
:1051400085B7806885BF84B7877F84BF0FB6F89422
:10515000A895809160008861809360001092600043
:105160000FBE80E890E00FB6F894809361009093B2
:1051700061000FBE88EB99E09093A1018093A0019C
:105180000E94A5100E949B060E9466078091E20083
:1051900084608093E200789480913D038823A1F09D
:1051A0001091E9001F709091EC00892F817090FDA3
:1051B00080E8182B1092E9008091E80083FD0E949E
:1051C000FE161F701093E90082E084BD93E095BD48
:1051D0009AEF97BD80936E000E948611811102C0E4
:1051E0000E948C1A0BE511E0D8018D918D018F3F43
:1051F00011F00E94BA09B1E000361B07A9F781E35C
:105200000E94BA0983E30E94BA0982E30E94BA09A4
:1052100086E30E94BA0985E0ECE8F2E0DF01282F7E
:105220001D922A95E9F7E7E3F2E0DF011D928A95E6
:10523000E9F784E190E00E940D329C0190933602E0
:105240008093350290E080E0F901E80FF91F40E01B
:1052500011924F5F4430E1F7049684319105A1F734
:105260000E947613811102C00E949C1A82E090E095
:105270000E940B3680933D0284E090E00E940B3642
:10528000182F82E290E00E940B36982F812F909386
:105290001703809316030E941115EFE7FEE3319781
:1052A000F1F700C000000E94111580918C0280FF70
:1052B00008C06FEF7FEF90E080E00E943D360E94D3
:1052C000230883E090E00E940B360E94201C83E0BC
:1052D0008093870280E2809349030E9432306DE020
:1052E00070E08FE092E00E94810D892B09F043C0AD
:1052F0008091870263E070E081FD1BC28CE092E048
:105300000E94810D892BB9F56DE070E08CEF91E082
:105310000E94810D892B79F50E94340869A77AA72C
:105320008BA79CA7DC01CB01805A9541AF4FBF4FA3
:105330008093C0029093C102A093C202B093C302B3
:10534000ECE4F3E080E092E0DF019C011D9221504B
:105350003040E1F7F0935305E09352058FEF9FEF54
:1053600090934B0380934A0381E08093C50280931E
:10537000C4021092880280913C02811133C00E94C5
:105380007613811104C00E949C1A0E945B1388E06E
:1053900090E00E94133660939C0270939D0280936C
:1053A0009E0290939F026E7F71F40E945B1388E0CF
:1053B00090E00E94133660939C0270939D0280934C
:1053C0009E0290939F020E941E0910929802809163
:1053D0009C0280FF04C060E086950E94991481E0E1
:1053E00080933C0286E091E09093100380930F033A
:1053F000E8E18E2E912C8CE892E035E0380F3DA745
:1054000080913D0370E4F72E00E112E1853009F44C
:10541000C8C10E941115D82E81110E943408ACE831
:10542000B2E0EEE3F2E010E000E0302F8D919191D8
:10543000981709F4C5C1292F282790E0FF24F39479
:10544000422F4F2109F4B7C199833A838F2191E00C
:1054500009F490E09B830E948D148160782F9D83D6
:105460008C8349815A816B818D810E94E01EF801F5
:10547000E25CFD4F8081F826F0828091020380FF7C
:105480001EC080912B0182FF1AC00E948D14BC01A6
:1054900080910B0390910C039B01281B390B809189
:1054A000290190912A012817390748F023E432E0B6
:1054B00041E080910D0390910E030E942A1E80917D
:1054C00098028823D1F180919702E0919C02E695A1
:1054D000E81BE0939302823009F089C1F0E0E65DB9
:1054E000FD4FE4910E2F10E061E9E62E60E1F62E0B
:1054F00080919402882361F0109294020E948D148E
:1055000090939202809391021092960210929502CB
:105510000E948D14E0919102F09192028E1B9F0BDC
:105520008F3F9F4750F4E00FF11FF0939202E093FA
:10553000910281E992E0F70109958091C5028823E3
:1055400009F4B2C08CE493E0909353058093520524
:105550008EE792E00E94230D809148030E94620C26
:10556000813009F49EC1823009F49EC181119FC12E
:1055700089E792E00E94630D0E947D08182F84E65F
:1055800092E00E94230D8EE592E00E94230D82E5B9
:1055900092E010FF02C088E592E00E94230D86E4AD
:1055A00092E011FF02C08CE492E00E94230D8EE293
:1055B00092E012FF02C084E392E00E94230D80E497
:1055C00092E00E94230D8AE392E00E94230D8091D5
:1055D0009F0221E1622F0E947631F82E80919E0277
:1055E0000E947631082F10919D02169516951695FA
:1055F0000E94160990919C0290FD5CC19EE21F9250
:10560000FF921F920F931F921F931F928F931F92CF
:105610009F9381E391E09F938F931F928DE18F93EE
:1056200089E492E09F938F930E945F3389E492E034
:105630000E94690D0FB6F894DEBF0FBECDBF8091FA
:10564000C502882371F020914A0330914B03211544
:10565000310539F08091880261E070E0882309F417
:105660002CC18091C4028823F9F00E94340869A7F4
:105670007AA78BA79CA78091C0029091C102A091AC
:10568000C202B091C30229A53AA54BA55CA5281B6F
:10569000390B4A0B5B0BDA01C9018F3F9F4FAF4FAC
:1056A000BF4710F40E94AB0DD1100E94C60D0E949E
:1056B0007D089091890289138093890280913D032E
:1056C000843009F09DCE83E08093E9008091E8006A
:1056D00082FF96CE8091E80090E085FF06C00E9490
:1056E000BA06882309F4B2C191E08091E8008B7773
:1056F0008093E800992309F483CE0091BE021091B3
:10570000BF02E9810115110509F4BDC1EE3F09F0A1
:10571000DFC18A81833020F08550833008F0D8C102
:10572000EA81EE3008F0D4C1F0E0EE58F94C0C9468
:10573000C63189E092E0E4CD80913D03843019F1D7
:105740000E94AB0D109211030FB6F894A8958092A9
:1057500060000FBEF092600083B7817F846083BFDA
:1057600083B7816083BF7894889583B78E7F83BF2A
:105770000FB6F894A89580916000886180936000CE
:10578000109260000FBE80913C03882351F00E946C
:105790001115ECE8F2E08191811117C44DA54E136B
:1057A000FACF80913D03853009F4C6CF0E94E616FA
:1057B0000E947D082ECE9F5FFF0C943009F040CEF2
:1057C0000F5F1F4F0530110509F02FCE8FEF898332
:1057D0008A831B820E948D148160782F9D838C8325
:1057E00049815A816B818D810E94E01E46CE8630B0
:1057F00059F4F0E0E95DFD4FE4910E2F10E051E81F
:10580000E52E50E1F52E74CE893061F4E695F0E096
:10581000EC5DFD4FE4910E2F10E044EFE42E4FE0DD
:10582000F42E66CE8F3061F4E695F0E0EF5DFD4F2B
:10583000E4910E2F10E031E9E32E3FE0F32E58CE35
:10584000853159F4F0E0E25EFD4FE4910E2F10E057
:1058500023E4E22E2FE0F22E4BCE08E210E0B4EB70
:10586000EB2EBEE0FB2E883109F442CE833249F4A0
:10587000ECE1F2E0059114919FE2E92E90E1F92E1E
:1058800037CE00ED17E0AEE1EA2EA8E0FA2E843222
:1058900009F02ECE04EF11E08EE7E82E8EE0F82E10
:1058A00027CE84E792E066CE8FE692E063CE8AE66A
:1058B00092E060CE9AE2A3CE8F5F082F10E07B01CA
:1058C000082E02C0EE0CFF1C0A94E2F7A9014E213B
:1058D0005F21452B89F39091870290FD43C082950B
:1058E000880F807680931401980136952795369518
:1058F000279520931701815E80931501109218015E
:1059000024E630E047E050E062E171E088E70E9481
:10591000D530892B09F0A5CEA801E5E0440F551F2D
:10592000EA95E1F78091870280FD2AC0445B5C4FD5
:1059300004E610E020E230E060E488E70E94FC30FA
:10594000892B09F08ECE0E94C60DE094F0948091D0
:105950004A0390914B03E822F922F0924B03E09224
:105960004A037FCE880F880F880F8093140110920E
:105970001701895F8093150183E080931801C0CFE0
:10598000E7E6F2E080E2DF011D928A95E9F7E8E6BA
:10599000F1E0FAA7E9A704E611E07CE6272E71E022
:1059A000372EA9A5BAA52D91BAA7A9A7F8014190AC
:1059B0008F01440E552E511CC201845B9C4F2C015B
:1059C000E22FF0E0E959FD4F30E020E067E0662E7D
:1059D000621ACC24C394022E01C0CC0C0A94EAF7BC
:1059E000520180E0D5019D915D019C21662D681BCF
:1059F0006770762E062E000C770BB92F01C0BB0FF7
:105A00007A94EAF77B2E7195619571096770772713
:105A100001C096956A95EAF7792A9081792A708271
:105A20008F5F8830F9F62F5F3F4F31962830310570
:105A300069F6E9A5FAA52E163F0609F0B2CF04E6ED
:105A400010E020E230E047E652E076CF00E210E0DE
:105A5000AE014F5F5F4F7A018091E80085FD0AC07B
:105A60008091E8008B778093E8000E94BA06882333
:105A700099F33ACE8091F100D7018D937D010150C9
:105A8000110951F731CEE43150F4EE2359F0E150D1
:105A9000E33140F4F0E0E058F94C0C94C631EE3FAD
:105AA00009F43ECE8FEFB6C21A8289E08B8310C014
:105AB0008A81823009F4CDC2833089F1813091F737
:105AC0000E9434080E94CC316B837C838D839E833B
:105AD00080913D03843009F093CC1091E9001F7050
