:100000000C9453050C949A050C949A050C949A053B
:100010000C949A050C949A050C949A050C949A05E4
:100020000C949A050C949A050C94F5280C94C92903
:100030000C9458240C949A050C949A050C949A05E7
:100040000C949A050C949A050C949A050C949A05B4
:100050000C949A050C94AF240C949A050C949A0570
:100060000C949A050C949A050C949A050C949A0594
:100070000C949A050C949A050C949A050C949A0584
:100080000C949A050C949A050C949A050C949A0574
:100090000C949A050C949A050C949A050C949A0564
:1000A0000C949A050C949A050C949A052020202013
:1000B00000534352200020202020004341502000C4
:1000C00020202020004E554D20004C4F0A004C337C
:1000D0000A004C320A004C310A004C617965723AD0
:1000E00020002B0014001A00080015001700E00083
:1000F00004001600070009000A00E1001D001B00B3
:100100000600190005001C0018000C001200130066
:100110002A000B000D000E000F0033003400110008
:1001200010003600370038002872E20001512C0020
:100130000251E700000001001E021F0220022102FE
:10014000220201002D022E022F0230023102010094
:100150002900E300E20039003402230224022502D0
:10016000260227024C005000510052004F0035007B
:1001700035024A004D004B004E0046002C72010033
:100180000100280001000100000001001E001F0006
:1001900020002100220001002D002E002F00300041
:1001A000310001002900E700E60039003400230097
:1001B00024002500260027004C003A003B003C00AC
:1001C0003D003E003F00400041004200430044002B
:1001D0004500010001002A00010001000000C95C87
:1001E000C75CC55CC35C0000C25CCA5CC85CC65C22
:1001F000C45C0000000000000000000000000000DF
:1002000000000000000000000000000000000000EE
:1002100000000000000000000000005C0000000082
:1002200000000000000001000100000001000100CA
:10023000000032190A00047F3F1F64321464321434
:10024000783C1E1E140A052223252628292A2C2D37
:100250002F3032333536383A3B3D3E4042434547F6
:10026000494A4C4E5051535557595A5C5E6062642E
:100270006668696B6D6F71737577797B7D7F81833C
:100280008587898A8C8E90929496989A9C9E9FA13D
:10029000A3A5A7A8AAACAEAFB1B3B4B6B8B9BBBC5E
:1002A000BEBFC1C2C3C5C6C7C9CACBCCCDCED0D1D3
:1002B000D2D2D3D4D5D6D7D7D8D9D9DADADBDBDBCB
:1002C000DCDCDCDCDCDDDDDDDDDCDCDCDCDCDBDB6C
:1002D000DBDADAD9D9D8D7D7D6D5D4D3D2D2D1D0C0
:1002E000CECDCCCBCAC9C7C6C5C3C2C1BFBEBCBBBD
:1002F000B9B8B6B4B3B1AFAEACAAA8A7A5A3A19F35
:100300009E9C9A98969492908E8C8A8987858381F8
:100310007F7D7B79777573716F6D6B6968666462D9
:10032000605E5C5A5957555351504E4C4A494745A7
:100330004342403E3D3B3A3836353332302F2D2C48
:100340002A292826252322FFAA7F554000010101E2
:100350000101010101010202020202020202020382
:100360000303030303030304040404040404050552
:100370000505050606060606070707070708080815
:1003800008090909090A0A0A0B0B0B0C0C0C0D0DC4
:100390000D0E0E0E0F0F0F1010111111121213135C
:1003A0001414151516161717181819191A1A1B1BD5
:1003B0001C1D1D1E1E1F2020212222232424252631
:1003C00026272829292A2B2C2D2D2E2F3031323269
:1003D000333435363738393A3B3C3D3E3F40414275
:1003E000434445464748494A4C4D4E4F505153545B
:1003F000555658595A5B5D5E5F616264656668690F
:100400006B6C6D6F7072737577787A7B7D7E80828E
:10041000838587888A8C8E8F91939596989A9C9ED7
:10042000A0A2A3A5A7A9ABADAFB1B3B5B7BABCBEE7
:10043000C0C2C4C6C9CBCDCFD1D4D6D8DBDDDFE2B4
:10044000E4E7E9EBEEF0F3F5F8FAFDFF00AE00AFFC
:1004500000DA02818FD9F1DB40A4A62EAF00A0C044
:1004600000A1C800AED580A81FD300408D14200085
:100470000000000000003E5B4F5B3E003E6B4F6B98
:100480003E001C3E7C3E1C00183C7E3C18001C5765
:100490007D571C001C5E7F5E1C0000183C1800008D
:1004A000FFE7C3E7FF00001824180000FFE7DBE7C1
:1004B000FF0030483A060E00262979292600407FA1
:1004C00005050700407F05253F005A3CE73C5A00E0
:1004D0007F3E1C1C0800081C1C3E7F0014227F224B
:1004E00014005F5F005F5F0006097F017F00006608
:1004F00089956A0060606060600094A2FFA2940029
:1005000008047E04080010207E20100008082A1C21
:100510000800081C2A0808001E10101010000C1EED
:100520000C1E0C0030383E383000060E3E0E060021
:1005300000000000000000005F000000000700074E
:100540000000147F147F1400242A7F2A1200231332
:100550000864620036495620500000080703000076
:10056000001C224100000041221C00002A1C7F1CAC
:100570002A0008083E0808000080703000000808C3
:100580000808080000006060000020100804020055
:100590003E5149453E0000427F40000072494949B2
:1005A00046002141494D33001814127F10002745A1
:1005B000454539003C4A49493100412111090700AC
:1005C000364949493600464949291E0000001400B1
:1005D0000000004034000000000814224100141400
:1005E00014141400004122140800020159090600E5
:1005F0003E415D594E007C1211127C007F494949F1
:1006000036003E41414122007F4141413E007F4949
:10061000494941007F09090901003E4141517300E8
:100620007F0808087F0000417F4100002040413FD3
:1006300001007F08142241007F40404040007F02BB
:100640001C027F007F0408107F003E4141413E00B4
:100650007F09090906003E4151215E007F091929E1
:10066000460026494949320003017F0103003F400B
:1006700040403F001F2040201F003F4038403F00C7
:100680006314081463000304780403006159494D9E
:100690004300007F41414100020408102000004156
:1006A00041417F00040201020400404040404000FC
:1006B0000003070800002054547840007F28444479
:1006C0003800384444442800384444287F003854D3
:1006D0005454180000087E09020018A4A49C780055
:1006E0007F080404780000447D4000002040403D25
:1006F00000007F102844000000417F4000007C047F
:10070000780478007C0804047800384444443800B5
:10071000FC182424180018242418FC007C08040465
:10072000080048545454240004043F4424003C402E
:1007300040207C001C2040201C003C4030403C00FD
:100740004428102844004C9090907C004464544C01
:10075000440000083641000000007700000000411E
:10076000360800000201020402003C2623263C0059
:10077000000000000000404040F0F8F8FF38FFF8AB
:10078000F83FF8F8FF38FFF8F8F04040400000006C
:1007900000000080C0C0C0800000C0C08000000019
:1007A00080C0C000C0C0000080C0C00000000000C9
:1007B000C0C0C0C0C000C0C00000000000000000F9
:1007C0000000000000000000000000000000000029
:1007D0000000000000000000000000000000000019
:1007E000000000000000000000000000000000C049
:1007F000F0F8FC3E1E06010000007F4141417F00F1
:100800007F4141417F000080C0E07E5B4F5BFEC0C6
:100810000000C000DCD7DEDEDED7DC00C000000058
:1008200000000000000000000000000000000000C8
:10083000000000000000494949FFFFFFFFE0DFBF63
:10084000BF00BFBFDFE0FFFFFFFF494949000000D5
:1008500000001F3F6060E0BF1F007F7F071E381E43
:10086000077F7F007F7F0E1F3B716000000000004C
:100870007F7F0C0C0C007E7E007F7E0303007F7E5A
:1008800003037E7E03037F7E000F3E703C063C70B8
:100890003E0F00327B49493F7E007F7E0303001EEE
:1008A0003F69696F2600000000000000000000039F
:1008B0000F1F3F3C7870600000007F4141417F0086
:1008C0007F4141417F00307B7F7830202030787F2E
:1008D0003B0003000F7F0F0F0F7F0F00030000008E
:1008E0000000000000000000000000000000000008
:1008F000000000000000010101070F0F7F0F7F0FB4
:100900000F7E0F0F7F0F7F0F0F0701010100000007
:1009100000000000000000010100000000000000D5
:1009200000000000000000000000000000000000C7
:1009300000000000000000000000000000000000B7
:1009400000000000000000000000000000000000A7
:100950000000000000000000000000000000000097
:100960000000000000000000000000000000000087
:100970000000000000000000000000000000000077
:100980000000000000000000000000000000000067
:100990000000000000000000000000000000000057
:1009A0000000000000000000000000000000000047
:1009B0000403300000001403720065007600690033
:1009C00075006E0067003400310000000C03670002
:1009D0007400690070007300000004030904090238
:1009E0003B00020100A0FA0904000001030101001C
:1009F0000921110100012240000705810308000AB6
:100A00000904010001030000000921110100012275
:100A10003B000705820320000A12011001000000BC
:100A200008EDFECBDC01000102030105010906A16E
:100A3000018505050719E029E715002501950875C9
:100A40000181020507190029EF1500250195F075B0
:100A50000181020508190129059505750191029585
:100A60000175039101C005010906A101050719E0FF
:100A700029E7150025019508750181029501750882
:100A800081010507190029FF150026FF009506754D
:100A90000881000508190129059505750191029540
:100AA0000175039101C011241FBECFEFDAE0DEBF54
:100AB000CDBF04B603FE27C08091E8049091E904FD
:100AC000A091EA04B091EB048730904BA740B04B63
:100AD000D1F41092E8041092E9041092EA04109202
:100AE000EB0414BE84B7877F84BF0FB6F894A89533
:100AF00080916000886180936000109260000FBE5A
:100B0000E0E0F8E3099511E0A0E0B1E0E4E7FAE500
:100B100002C005900D92AC36B107D9F724E0ACE6DF
:100B2000B1E001C01D92A83EB207E1F70E94352650
:100B30000C94FC2C0C9400000F9303E022E041E0A5
:100B40000E943B060F91089582E00895CF9360E0E4
:100B50008AED90E00E94171360914802709149025B
:100B600080914A0290914B020E943D2260E08230C7
:100B700039F1833041F1813049F586ED90E00E94F2
:100B800017130E94A517C82F80EC90E0C0FF02C089
:100B900085EC90E060E00E94171386EB90E0C1FFC7
:100BA00002C08BEB90E060E00E9417138CEA90E0AB
:100BB000C2FF02C081EB90E060E0CF910C9417136C
:100BC00082ED90E0DCCF8EEC90E0D9CF8AEC90E023
:100BD0000E942913D6CF81E0089581E008950C94F6
:100BE000ED0508950C94F1051F93CF93DF9300D08A
:100BF00000D00F92CDB7DEB749835A836B83309113
:100C0000F10189819A8131111DC06623B9F0222337
:100C1000A9F00E94F920182F682F89819A810E94DB
:100C2000A22069817A81812F0F900F900F900F90F1
:100C30000F90DF91CF911F910C94FE060E94D0205F
:100C4000182FEFCF0E94F92069817A81EDCFFC0146
:100C5000262F408151816281738184810C94F40537
:100C6000CF93DF93EC0160E00E942706BE01DF9185
:100C7000CF910C94F2058F929F92AF92BF92CF9238
:100C8000DF92EF92FF920F931F936B017C0181E043
:100C900090E0A0E0B0E04C015D0104C0880C991C1C
:100CA000AA1CBB1C4A95D2F7B501A4014C015D01F9
:100CB00004C0880C991CAA1CBB1C2A95D2F7482991
:100CC00059296A297B2904C0880F991FAA1FBB1FB5
:100CD0000A95D2F78A019B010C211D212E213F216B
:100CE000041715072607370789F48C299D29AE2993
:100CF000BF29BC01CD011F910F91FF90EF90DF90B4
:100D0000CF90BF90AF909F908F90089580959095D1
:100D1000A095B0958C219D21AE21BF21EACF0E94E4
:100D20008A22811102C00E9427230C94E8080C94A7
:100D3000EB0808950C94990681E008950C949C06A4
:100D4000CF93C82F0E949A068C2FCF910C949E06A9
:100D500008950E940B1C0E94A8062FEF84E39CE0DC
:100D6000215080409040E1F700C000000C94D32453
:100D70000F931F93CF93DF93EC0161E00E9427064E
:100D80008C01BE010E94EF05882359F1BE01C80104
:100D90000E940C15882329F1BE01C8010E945E152E
:100DA0008823F9F0BE01C8010E9481168823C9F08A
:100DB000BE01C8010E940D11882399F08A81882301
:100DC00039F001158CE5180751F00E3D1C4579F0FE
:100DD000CE01DF91CF911F910F910C94EB050E94F2
:100DE000A90680E0DF91CF911F910F9108950E9495
:100DF0002723F7CF90E080E008950895972F70E0C3
:100E000026E0929F600D711D1124FB019AE2899FDB
:100E1000E00DF11D1124EE0FFF1FEE51FF4F8591E4
:100E200094910895FC01EE0FFF1FEE5CFD4F85913C
:100E300094910895CF93DF930E94FE060E940D08BF
:100E4000EC01811521E59207D0F5811530E5930776
:100E500008F096C081159042F8F4C11581E0D807DA
:100E6000B8F4C03ED10588F4C03CD10508F07BC081
:100E7000C130D10569F0209759F0CE010497813A2D
:100E8000910530F0D0E0C0E003C0C83ED105D0F7F6
:100E9000CE01DF91CF910895C11590E4D90708F0F4
:100EA0006CC0CE019F70C11520E3D20708F45EC06C
:100EB000CE019927D3FF5EC0EC01D86CE9CF811534
:100EC00035E5930700F5811544E5940708F08DC0DA
:100ED000C11583E5D80708F074C0C11592E5D9079C
:100EE00008F46AC0CE018370992721E030E002C087
:100EF000220F331F8A95E2F7C695C69580E2C89FF8
:100F0000E001112455C0811529E59207A0F481154F
:100F100038E5930708F06EC0811546E5940708F0A0
:100F2000B1CF0E94A408C82FD0E0DC2FCC27CC275B
:100F3000DF71D062ADCFC1158AE5D80708F45FC074
:100F4000CE0190568115904208F09CCF8D2F8F7165
:100F50000E94A40890E0982F882788279F719C0101
:100F60002C2BE901E6CFCE01805C91090E9412078B
:100F7000EC018ECFEC01D06C8BCFDF70D06A88CFC4
:100F8000E4E096958795EA95E1F783702C2F2695F6
:100F90002695237040E2249F90011124382B8C2F3A
:100FA0008370C1E0D0E002C0CC0FDD1F8A95E2F76C
:100FB000C22BD32BDC686CCFDC2FCC27C16FD06A5F
:100FC00067CFCE018370992721E030E002C0220F65
:100FD000331F8A95E2F7C695C69590E2C99FE00156
:100FE0001124C22BD32BDA6853CFD82FCC27C46F50
:100FF000D06A4ECFD82FCC27C06FD06A49CF8C2F64
:101000008F700E94A40834E0D695C7953A95E1F711
:10101000CF709C2FEC01D0693BCF82389105B1F1A4
:10102000B0F48133910509F475C048F48932910513
:1010300009F469C08A32910509F473C008958533B3
:10104000910509F459C08933910501F10895833E52
:101050009105A9F138F4803E9105F9F0823E9105A1
:1010600049F10895863E9105A9F1873E9105C9F1A0
:10107000843E910519F52091DA0421FF1FC080916B
:10108000D90484FD14C087EE90E008952091D9041E
:101090002370A1F080EE90E008952091D90420FD06
:1010A00047C03091DA0430FF09C024FF44C090E00B
:1010B00080E004C02091D90422FDF7CF089520914B
:1010C000D90422FD3BC03091DA0430FDE3CF24FF88
:1010D000F5CFEDCF2091D90423FFF0CF24FDE7CF4A
:1010E000D2CF2091D90423FD2CC03091DA0431FFF6
:1010F000EECF84EE90E008952091D90425FFDECF55
:1011000089E290E008952091D90425FFD7CF85E3A7
:1011100090E008952091D90426FFD0CF8AE290E094
:1011200008952091D90426FFC9CF81E390E0089566
:1011300089E390E0089583EE90E0089582EE90E0D8
:10114000089586EE90E008959091D90492FF06C02C
:10115000282F28712830F9F4877F846093FF06C018
:10116000282F28712831F1F4877E84612091DA04D8
:1011700020FF06C0382F38713830D9F4877F81605E
:1011800021FF06C0282F28712831D1F4877E816184
:1011900094FD877E0895282F24712430F9F68B7FE3
:1011A0008860DCCF282F2471243101F78B7E886181
:1011B000DDCF382F3171313019F78E7F8860E0CF65
:1011C000282F2171213121F78E7E8861E1CF08958A
:1011D0000C94E70808950C94EA08E82FF0E0EE5527
:1011E000FD4F80810895089580EA8A95F1F708956A
:1011F000A1E3B1E061E070E08D91E82FE295EF703E
:10120000F0E041A18F709B0101C0220F8A95EAF79F
:10121000922F9095942391A382A1822B82A381E0A7
:10122000A833B80749F7ABE2B1E061E070E08D9117
:10123000E82FE295EF70F0E041A18F709B0101C0B3
:10124000220F8A95EAF7922F9095942391A382A179
:10125000822B82A381E0A133B80749F7EBE9F2E0E2
:10126000A2EAB2E082EA92E011921D928E179F07E5
:10127000D9F787E00E94BE090C948F068F929F9247
:10128000AF92BF92CF92DF92EF92FF920F931F9394
:10129000CF93DF9381E3A82E81E0B82E0BE912E013
:1012A000912CCC24C394D12CF50181915F01C82FDE
:1012B000C295CF70D0E099A18F70760101C0EE0C7D
:1012C0008A95EAF7892F8E2989A38AA18E2C80948A
:1012D00088218AA30E94F408EBE2F1E050E040E0AC
:1012E00020E03191A32FA295AF70B0E090968C9141
:1012F00090E03F7002C0959587953A95E2F780FDA2
:1013000039C08C2D042E01C0880F0A94EAF7282BCF
:101310004F5F5F4F4630510521F789A1882289A28E
:101320008AA1E82AEAA2F8018081281729F12083FE
:1013300081E0982A0F5F1F4FF8E3AF16F1E0BF0678
:1013400009F0B2CF292D47E062EA72E08BE992E022
:101350000E94BF090E949706892DDF91CF911F91AE
:101360000F91FF90EF90DF90CF90BF90AF909F9044
:101370008F90089580E0CBCF80E0DBCF0895FF927F
:101380000F931F93CF93DF93F82E092F162FD72F8C
:10139000C42F222349F081E080936E010E948824AB
:1013A00090936D0180936C0180916E018823A1F070
:1013B00080916C0190916D010E94A024069760F0CD
:1013C000EF2DF02FA12FBD2FCE0FDF2FD11DEC174A
:1013D000FD0741F410926E01DF91CF911F910F91A3
:1013E000FF90089581918D93F2CFEF92FF920F932A
:1013F0001F93CF93DF93EB01E82FD11110C044234B
:1014000021F0F0E0E45BFC4FE4916E2F7E2F8E2FF5
:10141000DF91CF911F910F91FF90EF9008950D2FC5
:1014200010E0282F30E0442329F0245B3C4FF901E1
:10143000249130E0F6E0CF9FC0011124EFEFF0E0FF
:10144000BF010E94952BAB018C2F90E0880F991F54
:10145000A5E5A49FB001A59F700D1124861B970BD5
:10146000982F990F980FBF01601B710B629FD001DD
:10147000639FB00D729FB00D11248B2F9D9FB00103
:101480001124672F7727EF01C61BD70BBE01629F80
:10149000E001639FD00D729FD00D11247F01E91AE6
:1014A000F108E09EB001E19E700DF09E700D1124D8
:1014B000672F7727E61BF70BE29F8001E39F100D54
:1014C000F29F100D1124E12F722F4230510599F037
:1014D00048F44115510569F04130510581F0EB2F79
:1014E0008D2F07C04430510569F080F0463051051A
:1014F000B1F76E2F8DCFE22F7B2F812FFACFE22F06
:101500007D2FF7CFEB2F822F712FF3CF7B2F822FE1
:10151000ED2FEFCF41E00C94F5090895CF93DF93C1
:10152000762FE901682F842F0E948A0A79836883C5
:101530008A83DF91CF9108958091A902982F9E7F91
:1015400029F4817082608093A90208958635E8F3BA
:1015500081708465F8CF88E090E00C949D2CCF9248
:10156000DF92EF92FF926B017C010E949C0AB7010F
:10157000A60188E090E0FF90EF90DF90CF900C9470
:10158000BB2CE9EAF2E083E0808311828FEF828353
:101590008383148260817181828193810C94AF0A6C
:1015A0008091A90280FF02C08695089580E0089589
:1015B0009091AD02933018F49F5F9093AD02882311
:1015C00051F06091A9027091AA028091AB029091B2
:1015D000AC020C94AF0A089581E00C94D80A909163
:1015E000AD02992319F091509093AD02882351F0E8
:1015F0006091A9027091AA028091AB029091AC0215
:101600000C94AF0A089581E00C94EF0A70E00C94FA
:101610007D11609108018091A90280FF0AC080912C
:10162000070123E0829FC001112482559D4F0C9435
:10163000060B8091090190910A0123E0829FF0013D
:101640001124E255FD4F891750F711821082128242
:101650008F5F3396F8CF9091A90290FF14C09091BC
:10166000090120910A0133E0939FF0011124E25512
:10167000FD4F921710F00C94090B81836083428315
:101680009F5F3396F6CF0895CF93DF9300D00F92EC
:10169000CDB7DEB79091A90290FF0AC09E012F5FDF
:1016A0003F4F0E948E0A4B8169818A810E942B0BD9
:1016B0000F900F900F90DF91CF910895CF93DF930C
:1016C000EC01EC81F0E0E95BFD4F4491E9EAF2E0E6
:1016D000628181810E94440B8C818F5F8C83DF91BA
:1016E000CF910895CF93DF93EC01E9EAF2E04381D3
:1016F00062818C810E94440B8C818F5F8C83DF918F
:10170000CF9108950F931F93CF93DF9300D00F9243
:10171000CDB7DEB78C0180916F0181110AC09E01A7
:101720002F5F3F4F4FEF6FEF0E948E0A8A818093A9
:101730006F01F8016481613069F080916F0140E0D0
:10174000662361F040E0623011F440916F0180E067
:1017500060E004C060916F0140E080E00E942B0BCC
:10176000F801848190E0019663E070E00E94A92B6B
:1017700084830F900F900F90DF91CF911F910F9165
:101780000895AF92BF92CF92DF92EF92FF920F93A4
:101790001F93CF93DF9300D00F92CDB7DEB7182FF2
:1017A000F62E042FE22E9091A90290FF29C0E92F76
:1017B000E695AE2FB0E0A85CBE4F8C918093B0014F
:1017C0009E7F923059F59E012F5F3F4F812F0E94DF
:1017D0008E0A4B8169818A810E942B0B1093AA0289
:1017E000F092AB020093AC02EE2051F06091A9029E
:1017F0007091AA028091AB029091AC020E94AF0A54
:101800000F900F900F90DF91CF911F910F91FF904C
:10181000EF90DF90CF90BF90AF900895823019F491
:101820000091AC02DBCF863019F41091AA02D6CF1A
:101830008930D9F3893191F6E9518E2F8170D82EF4
:10184000E695F0E0E95BFC4FA590B490C12CBB2479
:1018500060910B01C61618F00E94090BBFCF2C2D0A
:1018600030E0A29EC001A39E900DB29E900D112467
:1018700070E00E94952B812FD11013C0860F4091EC
:101880000901420F532F511D9A01220F331F240FBC
:10189000351F22553D4F402F6F2D0E948E0AC39455
:1018A000D7CF861BECCFE9EAF2E09181282F438164
:1018B000628180E1890F0C94C10B81E00C94530C80
:1018C000E9EAF2E09181282F4381628180EF890F5C
:1018D0000C94C10B81E00C94600CE9EAF2E06281A7
:1018E00020E1620F08F46FEF282F438181810C946F
:1018F000C10B81E00C946D0CE9EAF2E0628120E119
:10190000621B08F460E0282F438181810C94C10B95
:1019100081E00C947C0CE9EAF2E0438120E1420F83
:1019200008F44FEF282F628181810C94C10B81E074
:101930000C948B0CE9EAF2E0438120E1421B08F4AD
:1019400040E0282F628181810C94C10B81E00C94CE
:101950009A0C20E00C94C10BEF92FF921F93CF934F
:10196000DF93EC0110E0EE24EA94F12C60910B017E
:10197000161770F00E94090B9A818C8190FF27C086
:101980008F5F8C83DF91CF911F91FF90EF9008952F
:1019900020910901422F410F5527551FCA019A0175
:1019A000220F331F280F391F22553D4F70E0C7010A
:1019B0000E94A92B962F8C814091AC026091AB02C2
:1019C000199F800D11240E948E0A1F5FCFCF815076
:1019D000D8CFAF92BF92CF92DF92EF92FF920F9348
:1019E0001F93CF93DF93FC0182810FEF80FF01E013
:1019F00010E04BE0A42E80910B011817C8F00E9454
:101A0000090B80917101013009F055C0811102C0AC
:101A100080910B01815080937101DF91CF911F91D3
:101A20000F91FF90EF90DF90CF90BF90AF9008950F
:101A3000C0910901C12ED12CCC0DDD2DD11DCE01BF
:101A4000880F991FC80FD91FC255DD4F1982188200
:101A50001A8234E0E32EF12CB12C809171018B0DB0
:101A60008C301CF16A2D0E94872B892F082E000CC8
:101A7000990BC816D90691F48091AC028E9DA001F5
:101A80008F9D500D112455954795559547959E016D
:101A90006091AB028091AA020E948E0AB00EF1E022
:101AA000EF1AF108D1F61F5FA6CF87FFDFCF909125
:101AB0000B01890FDBCF90E0019660910B0170E084
:101AC0000E94A92BA8CF0F931F93CF93DF938091F0
:101AD000090190910A0123E0829FF0011124E2554F
:101AE000FD4F891740F1C0E0D3E060910B01C617AC
:101AF00040F10E94090B2091050180917001820F35
:101B00008093700190910601920F9093060119162F
:101B100054F4082E000C990B40910B014150550BC9
:101B2000841795071CF0219520930501DF91CF9133
:101B30001F910F9108951182108212828F5F339648
:101B4000D0CF0C2F10E070E0C8010E94A92B20918B
:101B50000901820F482F50E020917001022E000CE5
:101B6000330B02171307BCF020910601022E000C64
:101B7000330B201731077CF08D9F900111242255E3
:101B80003D4F4091AC026091AB028091AA020E944D
:101B90008E0ACF5FAACFFA01EE0FFF1FE40FF51FE9
:101BA000E255FD4F118210821282F3CF8F929F92E5
:101BB000AF92BF92CF92DF92EF92FF920F931F935B
:101BC000CF93DF93EC014C81042F10E09801D801F2
:101BD0000E94ED2B9B01AC010E94032C4B015C0188
:101BE000E0E2F0E0E01BF10BA5E5B0E0AC019B0109
:101BF0000E94032C6B017C019F01DF010E94E52BF9
:101C00009B01AC010E940E2C9B01AC01280D391DDB
:101C10004A1D5B1DC701B6010E94BD2BF22E822F0B
:101C200090E039E23F1560F143E0249F90011124D8
:101C300035952795122F109500E085E5E82EEF18D1
:101C400080910B01081758F10E94090B9C8181E0DB
:101C5000992319F0903219F48FEF80930401809149
:101C60000401890F8C83DF91CF911F910F91FF9019
:101C7000EF90DF90CF90BF90AF909F908F9008959E
:101C800025E530E0B901681B790B9B01220F331F5A
:101C9000260F371F37FFCCCF2F5F3F4FC9CF8E2D79
:101CA00001FD8F2D20910901622F600F7727771F8B
:101CB0009B01220F331F260F371F22553D4F412F07
:101CC0006091AB020E948E0A0F5FBACF0F931F93F1
:101CD000CF93DF93EC0110E000E090910B0190179F
:101CE000110609F06CF40E94090B8C8190E00196BA
:101CF000817099278C83DF91CF911F910F91089567
:101D000020910901A801420F511D9A01220F331F92
:101D1000240F351F22553D4F4C816091AB028091BD
:101D2000AA0296959017110651F04CF0442349F001
:101D30004091AC020E948E0A0F5F1F4FCECF44230A
:101D4000B9F340E0F7CF8F929F92AF92BF92CF92BC
:101D5000DF92EF92FF920F931F93CF93DF93FC01DB
:101D6000B280948081E0848300E015E05BE4A52EDE
:101D700088248394EE24EA94F12C7BE4C72ED12CA2
:101D800080910B01081770F0DF91CF911F910F9197
:101D9000FF90EF90DF90CF90BF90AF909F908F908B
:101DA0000C94090BC02FD0E01C9FF0011D9FF00D7B
:101DB0001124EE58FE4F91101CC013821282209104
:101DC0000901CE01820F911D9C01220F331F280FA4
:101DD000391F22553D4F1C9FF0011D9FF00D11240E
:101DE000EE58FE4F4281618180810E948E0A0F5F12
:101DF000C7CF2381222379F12150238334818A2D77
:101E0000821B311101C0822F1C9FF0011D9FF00D1C
:101E10001124EE58FE4F9091AC02899FC00111240D
:101E2000B6010E94952B6283211104C0332311F067
:101E30001482A38222E02B1510F21C9FF0011D9F3B
:101E4000F00D1124EE58FE4F8091AA0280838091FC
:101E5000AB028183B4CF0E94622C823091400CF09F
:101E6000AECF82E08B1530F50E94622CB7010E9444
:101E7000A92B1C9FF0011D9FF00D1124EE58FE4F61
:101E8000808322E02B15C8F40E94622C2091AB02C3
:101E90002695622F70E00E94A92B280F1C9FF0014D
:101EA0001D9FF00D1124EE58FE4F21831282A38254
:101EB000848285CF8091AA02DCCF2091AB02EECF45
:101EC000E9EAF2E080818E7F808360817181828186
:101ED00093810E94AF0A1092B1012FEF80E792E048
:101EE000215080409040E1F700C000000C94090BA5
:101EF000E9EAF2E080818E7F80831092B1012FEFBA
:101F000080E792E0215080409040E1F700C000005F
:101F10000C94090B6091A902669570E04BE050E0CB
:101F20008CE091E00E947B2C892B19F481E0809356
:101F3000B1010E9488249093AA018093A901089579
:101F40009091A90290FF35C09170811128C09260D4
:101F50009093A902662351F06091A9027091AA02A0
:101F60008091AB029091AC020E94AF0A6091A902ED
:101F7000669570E04BE050E08CE091E00E947B2C95
:101F8000892BA1F01092B10181E08093AC014091C6
:101F9000AC026091AB028091AA020C94A90C8B3226
:101FA00010F09465D5CF880F982BD2CF0E948A0F5E
:101FB000EBCF0895682F9091A902969581E0890F43
:101FC0008B3208F081E00C94A00F81E00C94DA0FC2
:101FD000682F9091A90296958FEF890F09F48AE2F4
:101FE0000C94A00F81E00C94E80F61E00C94A00F1A
:101FF000E9EAF2E080818160808386950C94F50F98
:102000008091A90280FD0C94600F0C94F80F60E0A1
:102010000C94A00F8091AF0181112EC00E948A22E2
:10202000811104C00E9427230E94C10A0E94AB0AAA
:102030006093A9027093AA028093AB029093AC02C2
:102040006E7F61F40E94C10A0E94AB0A6093A902EC
:102050007093AA028093AB029093AC020E949C0AF8
:102060001092B1018091A90280FF03C086950E9461
:10207000071081E08093AF010895E9EAF2E08081E2
:102080008160808386950C9407101092B1010895A9
:102090000F931F93CF93DF938091B101882309F4AD
:1020A0009DC08091B001E091A902E695E81BE09304
:1020B000AB018230C9F5F0E0ED5BFD4FE491CE2F2E
:1020C000D0E00EE51BE08091AC01882389F01092EE
:1020D000AC010E9488249E0120953095820F931FA9
:1020E0009093AA018093A9011092AE011092AD01C4
:1020F0008091A9019091AA010E94A0248C179D07AC
:1021000008F46CC0E091A901F091AA01CE0FDF1F85
:10211000D093AA01C093A90189EA91E0F801DF9167
:10212000CF911F910F910994863049F4F0E0E05C63
:10213000FD4FE491CE2FD0E002E71BE0C4CF893001
:1021400051F4E695F0E0E35CFD4FE491CE2FD0E052
:102150000CEA1CE0B8CF8F3051F4E695F0E0E65C75
:10216000FD4FE491CE2FD0E009EE1CE0ACCF8531DD
:1021700049F4F0E0E95CFD4FE491CE2FD0E003E6B6
:102180001DE0A1CFC8E2D0E006ED1DE0883109F4E2
:102190009ACF833239F4E5E3F2E0C591D49102E8B5
:1021A0001BE091CFC4EFD1E006E61EE0843209F4D3
:1021B0008ACFC0EDD7E00DE81AE0853209F083CF71
:1021C0008E2F63E00E947B2BE92FF0E0EE5CFD4F49
:1021D000E491CE2FD0E003EA1EE075CFDF91CF91DE
:1021E0001F910F910895FA01811101C0FB0109941B
:1021F000CF93DF93C82FD62F0E94D00A8C1740F0C0
:102200000E94D00A8D1720F4DF91CF910C94E50F36
:102210008C2FDF91CF910C94F50F0F931F93CF93D9
:102220008C01FB01C281CC2309F465C00E948E2180
:102230008272F801E25CFC45E431F10538F4E250C9
:10224000F34D0C94DF2B0E940010C0E08C2FCF9137
:102250001F910F91089542EF5FE065EE7FE00E94CD
:10226000F310F3CF45EE5FE062EF7FE0F8CF4AE690
:102270005CE06DE57CE0F3CF4DE55CE06AE67CE098
:10228000EECF48E85CE069E77CE0E9CF49E75CE055
:1022900068E87CE0E4CF46EA5CE067E97CE0DFCF19
:1022A00047E95CE066EA7CE0DACF43E05BE06CEEB5
:1022B0007AE0D5CF4CEE5AE063E07BE0D0CF81E00E
:1022C0000E94F50FC2CF65E082E00E94F810BDCFFA
:1022D00068E086E0FACF6EE089E0F7CF64E18FE056
:1022E000F4CF67E185E1F1CF88E1EACF62E289E1ED
:1022F000ECCF83E2E5CFC1E0A9CF539A4BB1477F42
:102300005BB15860EFB7F8949B01220F331F260F83
:10231000371F280F391F2817390741F4EFBF8FE502
:1023200094E00197F1F700C000000895DC016D9181
:10233000CD0178E05BB9000000C067FF4BB9660FC4
:10234000000000C000C000C04BB900C07A9591F7F2
:10235000E2CFCF92DF92EF92FF920F931F93CF9332
:10236000DF936C017B0164E670E088E70E94B116A0
:10237000EC0197FD12C010E000E0F601E00FF11F44
:10238000849164E670E00E940D17EC01892B29F41A
:102390000F5F1F4F0E151F0581F70E949017CE018A
:1023A000DF91CF911F910F91FF90EF90DF90CF9031
:1023B0000895EFECF2E080E092E0DF019C011D92D5
:1023C00021503040E1F7F093D404E093D3048FEF31
:1023D0009FEF9093DE018093DD0108950E94A40594
:1023E0008093D90180FD0FC080E88093D8010E94BE
:1023F000AB166DE070E083E694E00E94A911892B92
:1024000021F080E0089580E2F0CF8091D90163E06F
:1024100070E081FD26C080E694E00E94A911892B1E
:1024200081F76DE070E080E594E00E94A911892BAE
:1024300041F70E949424605A75418F4F9F4F6093DB
:10244000CF047093D0048093D1049093D2040E945F
:10245000D91181E08093DC018093DB011092DA01D5
:1024600008958DE594E0D9CF2091D80136E0839F7F
:10247000C0011124629F800D911D1124811522E05D
:10248000920714F090E080E081539D4F9093D40424
:102490008093D30408952091D3043091D404295C0F
:1024A00032404091D801642F70E0C9010E94952B01
:1024B000481B463010F4240F311D211582E03807E7
:1024C00010F030E020E021533D4F3093D4042093AE
:1024D000D30408951F93CF93DF93162F8A3031F4DE
:1024E00081E0DF91CF911F910C94E4128D3011F4B3
:1024F00080E0F7CFC091D304D091D40496E0FE01E0
:10250000A2EBB1E001900D929A95E1F7803EC8F000
:1025100086E0FE0111928A95E9F711111EC0C09163
:10252000D304D091D40446E050E0BE0182EB91E0A8
:102530000E94882C892BF9F4DF91CF911F910C9484
:102540004B12F6E08F9FB001112460597B4F46E09B
:1025500050E0CE010E94722CE0CFE091D304F091C4
:10256000D4049F012A5F3F4F2E173F07C1F280819D
:1025700080958193F9CFCF5CD240CE0125E096952E
:1025800087952A95E1F721E030E0A90102C0440FC8
:10259000551F8A95E2F7CA014091DD015091DE0195
:1025A000842B952B269645E0D695C7954A95E1F75D
:1025B00002C0220F331FCA95E2F7822B932B909310
:1025C000DE018093DD01B8CFCF93382FE091D304A3
:1025D000F091D404EF5CF2402091D801622F70E0BA
:1025E000CF010E94952B281B822F332369F066E0D0
:1025F0000E947B2BC82FC15010F4CF91089560E04A
:1026000080E20E946A12F7CF9F01280F311D211529
:10261000324018F080E0F0E0E0E08E0F9F2F911D37
:1026200081539D4F9093D4048093D304E6CF1F939E
:10263000CF93DF93EC01162FFE018491811104C02A
:10264000DF91CF911F910895612F0E946A12219608
:10265000F3CF0E94171381E00C94E4120E9494249B
:10266000605A75418F4F9F4F6093CF047093D00491
:102670008093D1049093D2048091DB01811108C032
:1026800062E070E08EE494E00E94A911892B19F0B9
:102690008091DB01089581E08093DB01F9CF2F92D7
:1026A0003F925F926F927F928F929F92AF92BF9272
:1026B000CF92DF92EF92FF920F931F93CF93DF930E
:1026C0002091DD013091DE012115310531F080913D
:1026D000DA0161E070E0882399F0DF91CF911F91DA
:1026E0000F91FF90EF90DF90CF90BF90AF909F90B1
:1026F0008F907F906F905F903F902F9008958F5FA5
:10270000082F10E01B01082E02C0220C331C0A9473
:10271000E2F7A10142235323452B89F39091D9017C
:1027200090FD44C08295880F8076809319019801AE
:10273000369527953695279520931C01815E8093C9
:102740001A0110921D0124E630E047E050E067E1F5
:1027500071E088E70E943C17892B09F0BECFA801E1
:1027600025E0440F551F2A95E1F78091D90180FD9E
:102770002BC041535D4F04E610E020E230E060E4FE
:1027800088E70E946317892B09F0A7CF0E942E13B8
:10279000E101C095D0958091DD019091DE01C823C3
:1027A000D923D093DE01C093DD0197CF880F880F26
:1027B000880F8093190110921C01895F80931A0180
:1027C00083E080931D01BFCFE8EBF1E080E2DF0101
:1027D0001D928A95E9F7A7E6B1E003E611E08BE6E2
:1027E000C82E81E0D82E97E0592E772473948D91CE
:1027F000E80129918E01240F352F311D21533D4FC2
:10280000E82FF0E0E854FE4F90E080E0652C681A75
:10281000872C082E01C0880C0A94EAF77901A12CB4
:10282000E701B9907E01B820662D6A196770962E6F
:10283000062E000C770BDB2D01C0DD0F9A94EAF712
:102840007195619571096770772701C0B6946A9593
:10285000EAF7BD2A6081962E9B289082A39468E0B7
:10286000A612DECF019631968830910579F6CA1608
:10287000DB0609F0BCCF04E610E020E230E048EBD4
:1028800051E07DCF8091DB01882369F062E070E048
:102890008CE494E00E94A911892B19F08091DB014E
:1028A00008951092DB018091DB0191E08927089562
:1028B0000F931F938091DC01882301F160E080E099
:1028C0000E9434120E94A6050E944F138091DB01E2
:1028D0008823A1F00E9494240091CF041091D00489
:1028E0002091D1043091D204601B710B820B930BA9
:1028F00097FD04C01F910F910C9442141F910F91EA
:102900000895AF92BF92CF92DF92EF92FF920F9312
:102910001F93CF93DF937C015B01C42FD22FFC0167
:1029200082818823F9F04093E1010E9488249093EA
:10293000E0018093DF0180E28C0F883008F061C0F5
:10294000C77081E001C0880FCA95EAF7DF91CF9187
:102950001F910F91FF90EF90DF90CF90BF90AF90BD
:102960000C94C2191091E101141340C08091DF0151
:102970009091E0010E94A0246C01B701C5010E9462
:10298000811EC816D90690F5C0E2CD0F1D17B9F00B
:1029900080E2810F883040F4177081E001C0880F19
:1029A0001A95EAF70E94C919C83048F481E09D2FB2
:1029B000977001C0880F9A95EAF70E94C219802F7C
:1029C0000E94AF19C830E8F4D77081E001C0880FC9
:1029D000DA95EAF7DF91CF911F910F91FF90EF9079
:1029E000DF90CF90BF90AF900C94C91980E28C0F0C
:1029F000883038F4C77081E001C0880FCA95EAF7C3
:102A0000E9CFDF91CF911F910F91FF90EF90DF9071
:102A1000CF90BF90AF9008950F939C01CB01233FBF
:102A20004CE5340759F1A8F4283DFCE53F0701F1D6
:102A3000293D4CE53407D1F1273D3C4591F406E2B0
:102A400021EE41EE67ED7CE50E94811480E00F915C
:102A50000895253FFCE53F07E9F0B0F0263F3C45EF
:102A6000F9F0FC018281882339F11092E101EFCF66
:102A700007E225EE45EE68ED7CE5E6CF06E221EEC5
:102A800040EE63EF7CE5E0CF07E225EE44EE64EF35
:102A90007CE5DACF06E221EE42EE65EF7CE5D4CFAD
:102AA00007E225EE46EE66EF7CE5CECF08E221E0B8
:102AB00045EE69ED7CE5C8CF81E0C9CFCF93DF93C8
:102AC000EC01FB018281882309F419C1C230FCE5C5
:102AD000DF07C0F1C6319CE5D90730F09E012A5FBF
:102AE0003C452930310570F50E949D229093DA040F
:102AF0008093D904C031ECE5DE0709F4CFC008F0BB
:102B00005BC0C8308CE5D80709F4B6C088F5C4307E
:102B1000ECE5DE0709F4A8C0C0F4C2308CE5D807A4
:102B200009F49CC08091D9048260C330DC4509F46B
:102B300098C08091D9049091DA040E94AB220E943F
:102B40000B1C80E0DF91CF9108958091D9048061C2
:102B5000C630ECE5DE0709F484C08091D9048860B2
:102B6000C730DC4508F47DC08091D904806279C00B
:102B7000CC308CE5D80709F489C070F48091D90471
:102B80008C60CA30ECE5DE0709F46BC008F478C04D
:102B90008091D9048E7F65C0CE308CE5D80709F4CA
:102BA00079C08091D9048B7FCF30DC4508F459C0BF
:102BB0008091D9048F7E55C0CB3FECE5DE0709F448
:102BC00057C030F5C3318CE5D80709F46FC078F4ED
:102BD000C131ECE5DE0709F465C0C231DC4509F01E
:102BE000A8CF0E940B1C8091D9048F773AC0C531C1
:102BF0008CE5D80709F462C008F476C08091DA0445
:102C00008160CA3FDC4509F094CF8093DA0491CF0C
:102C1000CF3FFCE5DF0709F44DC088F48091DA046A
:102C20008D7FCD3F9CE5D90781F38091DA048E7FBB
:102C3000CE3FDC4550F38091DA048360E6CFC130AB
:102C4000FDE5DF0709F459C008F444C080E0C23054
:102C5000DD4509F06ECF0E9429236BCF8091D90406
:102C600081608093D90465CF8091D9048460F9CFC5
:102C70008091DA048260C9CF8091D9048064F1CF59
:102C80000E940B1C8091D9048068EBCF8091D904FD
:102C90008D7FE7CF8091D904877FE3CF8091D904DE
:102CA0008F7DDFCF8091D9048F7BDBCF8091D904DA
:102CB000837FD7CF8091DA048C7FA7CF8091D9040E
:102CC00082FB992790F921E0922790FB82F990FBF3
:102CD00083F9C7CF8091DA04982F909591708E7FF9
:102CE000892B90FB81F991CF0E940B1C9091D90404
:102CF000892F97FB87F98058B4CF81E0ACCF81E072
:102D000021CFCF93DF93EB0186319C4511F50E94D3
:102D10008E219A81992399F08A7A91E009F490E0C2
:102D20009093E201811109C089E20E9469210E9409
:102D3000DA2180E0DF91CF91089585E3F6CF80918D
:102D4000E201811104C089E20E947021F0CF85E385
:102D5000FBCF81E0EFCF1092B9008CE08093B800F8
:102D60000895EF92FF920F931F93CF93DF93182F45
:102D7000EB011092BC0084EA8093BC000E9488247E
:102D80007C018091BC0087FF27C08091B900887FBB
:102D9000883029F08091B900887F8031D9F510936F
:102DA000BB0084E88093BC000E9488248C01809141
:102DB000BC0087FF24C02091B900287F90E080E00C
:102DC0002831B1F081E090E0203411F490E080E00F
:102DD0009195819591090CC0CF3FDC0791F20E943B
:102DE00088248E199F098C179D0758F28EEF9FEF4C
:102DF000DF91CF911F910F91FF90EF900895CF3FFA
:102E0000DC07A9F20E948824801B910B8C179D0778
:102E100070F2ECCF8FEF9FEFEBCF0F931F93CF9319
:102E2000DF93EB018093BB0084E88093BC000E9499
:102E300088248C018091BC0087FF11C02091B900CB
:102E4000287F81E090E0283211F490E080E09195B5
:102E500081959109DF91CF911F910F910895CF3FF7
:102E6000DC0741F30E948824801B910B8C179D077F
:102E700008F38EEF9FEFEECFCF92DF92EF92FF92AB
:102E80000F931F93CF93DF936B018A017901B901EF
:102E90000E94B116E6010C0D1D1DC017D10761F48B
:102EA00024E92093BC00DF91CF911F910F91FF90F7
:102EB000EF90DF90CF90089597FDF2CFB701899101
:102EC0000E940D17EACFCF92DF92EF92FF920F93FD
:102ED0001F93CF93DF93C62F6A017901B8010E9437
:102EE000B11697FD0CC0B8018C2F0E940D17E6019A
:102EF000EC0CFD1CCE15DF0511F097FF0CC024E98A
:102F00002093BC00DF91CF911F910F91FF90EF9024
:102F1000DF90CF900895B80189910E940D17EACFF4
:102F200084E98093BC0008959093E8018093E701C1
:102F30000895E091E701F091E801309721F00190C8
:102F4000F081E02D099480E00895E091E701F0918F
:102F5000E801309711F480E008950190F081E02DB0
:102F600009950895E091E701F091E801309799F013
:102F700020912A01222359F02091D90427FF07C06C
:102F8000DC012C9111962C93119725E02C93028053
:102F9000F381E02D099408952091E5013091E60137
:102FA0002817390771F09093E6018093E501E091CD
:102FB000E701F091E801309721F00680F781E02DDC
:102FC000099408952091E3013091E401281739070D
:102FD00071F09093E4018093E301E091E701F091B7
:102FE000E801309721F00084F185E02D09940895DF
:102FF00085B7806885BF85B7806885BF08950895C7
:1030000008950C94FF1708950C9403180E94F81764
:103010000E9400180C94011881E008950C940C187B
:103020000E947F240E94F80880E00E94EE110E9416
:10303000F7240E940A100C9404189F92AF92BF923A
:10304000CF92DF92EF92FF920F931F93CF93DF9374
:10305000CDB7DEB72A970FB6F894DEBF0FBECDBF4F
:103060000E943E09C82E0E940E18882309F466C0EB
:103070008AEEA82E81E0B82E10E000E0902E802F7E
:103080000E94ED08E82EF501D1905F01D81609F4F1
:103090004FC08091750281FD0E94F30880E0FF24FB
:1030A000F394DE249D2D9F2109F43DC08E839F82E1
:1030B000EF2081E009F480E088870E948824816005
:1030C000782F9A8789874E815F8168858A850E94DB
:1030D000C118F801E651FE4F8081F826F0820E9467
:1030E00048100E945814C1100E942E130E94991774
:1030F0009091E901891799F10E9499178093E9014C
:103100002A960FB6F894DEBF0FBECDBFDF91CF91E8
:103110001F910F91FF90EF90DF90CF90BF90AF90F5
:103120009F900C94A0068F5FFF0C863009F0BACFF9
:103130000F5F1F4F0730110509F0A0CF8FEF898374
:103140008A831B820E9488248160782F9D838C83D0
:1031500049815A816B818D810E94C118C0CF2A9606
:103160000FB6F894DEBF0FBECDBFDF91CF911F9198
:103170000F91FF90EF90DF90CF90BF90AF909F9016
:103180000895CF93DF93CDB7DEB72B970FB6F894A2
:10319000DEBF0FBECDBF4F83588769877A878B8785
:1031A0001E821D8285E0FE013796DE011196019098
:1031B0000D928A95E1F749815A816B817C818D81DD
:1031C0009E812B960FB6F894DEBF0FBECDBFDF9168
:1031D000CF910C94841EFC01808191810C943B2141
:1031E000CF93C82F882309F469C08238C1F40E94A4
:1031F000991781FD63C089E30E9469210E94DA2149
:103200002FEF81EE94E0215080409040E1F700C024
:10321000000089E30E947021CF910C94DA21833859
:10322000A1F40E94991780FD49C083E50E9469219D
:103230000E94DA212FEF81EE94E0215080409040EF
:10324000E1F700C0000083E5E5CF8438A1F40E94D7
:10325000991782FD33C087E40E9469210E94DA2118
:103260002FEF81EE94E0215080409040E1F700C0C4
:10327000000087E4CFCF8CEF8C0F813A90F46C2F55
:1032800080911E0190911F010E944223882329F002
:103290008C2F0E9470210E94DA218C2F0E946921BC
:1032A000BBCF80E28C0F883048F4C77081E001C04A
:1032B000880FCA95EAF70E949121AECFCF91089569
:1032C000882309F44BC0823871F40E94991781FF5A
:1032D00045C089E30E9469210E94DA2189E30E94A6
:1032E00070210C94DA21833859F40E94991780FFD9
:1032F00035C083E50E9469210E94DA2183E5EFCF82
:10330000843859F40E94991782FF28C087E40E94EC
:1033100069210E94DA2187E4E2CF9CEF980F913A6D
:10332000F0F290E2980F983050F4877091E001C06D
:10333000990F8A95EAF7892F0E949721D2CF9BE5B2
:10334000980F933020F490E080E00C94CC17885ACA
:10335000873120F490E080E00C94E2170895CF9339
:10336000C82F0E94F018C93349F42FEF87EE93E07D
:10337000215080409040E1F700C000008C2FCF9199
:103380000C946019882321F00E9491210C94DA2179
:103390000895882321F00E9497210C94DA21089542
:1033A000BF92CF92DF92EF92FF920F931F93CF9332
:1033B000DF936C01D62FC72FFC01158112951F706A
:1033C000028101110E94AE210E948721E82E8823EC
:1033D00091F00023D1F08C2F807F803421F080E2A7
:1033E0008D0F883090F082E00E9425220E94872174
:1033F00091E0E82EE926BC2EB2949FE0B922EB2D95
:10340000F0E0EE5EF24D0C94DF2BE12CF4CF1C2F9C
:103410001F70C07F11F01295107F0023A9F01123B7
:1034200059F080E28D0F883010F0D11109C0812F42
:103430000E9491210E94DA218D2F0E94F01814C061
:10344000812F0E94A121F6CF8D2F0E946019112398
:1034500059F080E28D0F883010F0D1112CC0812FEF
:103460000E9497210E94DA212B2D2850330B243003
:10347000310520F40E9499170E94A006EE2009F45D
:1034800077C10E94832180FD73C1F60112820E94E0
:103490007D210E940620C6010E94D91B0E947D2129
:1034A000DF91CF911F910F91FF90EF90DF90CF9020
:1034B000BF900C942720812F0E94A721D3CFFC2FEF
:1034C000FF70FF2EC07FC03219F0F29480EFF82217
:1034D000DD2369F0D13049F1002391F1112351F13D
:1034E000F601858180FFA8CF8F70858323C00023DC
:1034F00081F0111106C00E94C1218F290E94C219BA
:10350000B3CF1130C1F70E94C1218F290E94C7217A
:10351000ABCF111106C00E94D0218F2D0E94C91976
:10352000A3CF113009F4A0CFF6CF002329F0163035
:1035300008F09ACF8F2DE2CF153008F095CFEDCF60
:10354000112359F3D93349F4FFEF27EE33E0F1505B
:1035500020403040E1F700C000008D2F0E9460192C
:1035600083CF8C2F837009F041C001117DCF4D2F87
:10357000429546954770440F440F0D2F0F7010E091
:1035800030E020E0042E04C0000F111F221F331F63
:103590000A94D2F760E070E0CB01D4FF0FC06FE077
:1035A00070E080E090E004C0660F771F881F991FCD
:1035B0004A95D2F76095709580959095C695C69579
:1035C000C370602B712B822B932BC23049F058F4BF
:1035D000C13019F00E94BA1F47CF0E94A81F44CFE4
:1035E0000E94CC1F41CF0E94A61F3ECF869500238C
:1035F00011F08C2F8170882309F436CF4D2F42951E
:1036000046954770440F440F0D2F0F7010E030E0C7
:1036100020E0042E04C0000F111F221F331F0A9444
:10362000D2F760E070E0CB01D4FF0FC06FE070E034
:1036300080E090E004C0660F771F881F991F4A95AD
:10364000D2F76095709580959095C695C695C37094
:10365000602B712B822B932BC23049F058F4C13070
:1036600019F00E947D2000CF0E946B20FDCE0E94A9
:103670008F20FACE0E94E01FF7CECF70002329F0F2
:103680008C2F0E9406208D2F39CF8D2F0E94C919B3
:103690008C2F0E942720E8CED23F89F160F4D03FE2
:1036A000C9F0D13F29F1002309F442C01111C4CE61
:1036B0008C2F8F7121C0D33F39F1D43FA1F7002364
:1036C00069F1CF718C2F0E94062063E08C2F0E943D
:1036D0001022CACE002341F0153008F0C5CE8C2F41
:1036E0008F710E944A20C0CE163008F0BDCEF7CFB1
:1036F0008C2F8F71002369F20E940620B5CE8C2F8B
:103700008F710023C9F3C5CF002329F08C2F8F714F
:103710000E94F11FA9CE0E94EC1FA6CE81E00E945C
:103720002522123008F4A0CE82E00E9425229CCEF1
:10373000112359F0D93309F010CF8FEF97EEE3E062
:1037400081509040E040E1F706CF8C2F8F71A1CFE0
:103750004C2F4F706D2FC6010E94FA060E941E1F4B
:1037600083CE4C2F4F706D2FC6010E94FD067CCE7C
:10377000DF91CF911F910F91FF90EF90DF90CF904D
:10378000BF9008950F931F93CF93DF93EC0168814F
:1037900079818A810E9445218C010E94A1200E948A
:1037A000A51FB801CE01DF91CF911F910F910C940D
:1037B000D019CF93DF93EC018B819C81892B29F069
:1037C0008881998189238F3F59F4DF91CF910895A2
:1037D000CE010E94C21BCE01DF91CF910C94300626
:1037E000CE010E94B8068111F3CF0E948721882361
:1037F00061F38A81882349F382E0DF91CF910C94B1
:1038000025220E94AE210E94BE210C94DA210E9442
:1038100077210C94011C0E949E210C94071CE92F17
:10382000E295EF70E250EE3070F4F0E0EE5DF24DB4
:103830000C94DF2B803F19F020F4883E20F481E0C7
:103840000895843FE1F380E00895883EC0F3813F0E
:10385000D1F7F5CF93FB882780F908950E943B218B
:103860000C940F1CCF93DF9300D000D00F92CDB7F4
:10387000DEB70F900F900F900F900F90DF91CF91C8
:103880000895CF93DF9300D000D000D0CDB7DEB73E
:1038900026960FB6F894DEBF0FBECDBFDF91CF9155
:1038A00008951F93CF93DF93C091F20116E08091AA
:1038B000F3018C1304C0DF91CF911F910895D0E0E4
:1038C0001C9FF0011D9FF00D1124EC50FE4F408114
:1038D000518162817381848195810E94411C21966E
:1038E000C770E5CF409124025091250260912602D5
:1038F0007091270280912802909129020C94411C1A
:103900001F93CF93DF9380912902807FA9F4809148
:103910002602882389F08091F201C091F301609121
:10392000240270912502A0912702B0912802D62F7F
:10393000D72316E0C81304C0DF91CF911F910895DB
:1039400090E0109711F0DF3F19F401968770F2CFE5
:10395000189F9001199F300D1124F901EC50FE4F72
:1039600041814713F2CF40814613EFCF428141118D
:10397000ECCF438154814A1B5B0B483C510528F72F
:10398000809129028F70806180932902F901E750AC
:10399000FE4F80818F708061808384E292E00E947C
:1039A000D91BDF91CF911F910C94511CAF92BF9204
:1039B000CF92DF92EF92FF920F931F93CF93DF93FB
:1039C000CDB7DEB761970FB6F894DEBF0FBECDBF9F
:1039D0008C0185E0F801DE011D9601900D928A951B
:1039E000E1F7F80140815181E28084E2C82E82E053
:1039F000D82E60912702709128026115710509F493
:103A000061C19091240220912502892F82238F3F4A
:103A100009F458C1A380B480F0902602F501E61B9A
:103A2000F70BFF2009F4FCC080912902382F307F6A
:103A3000E83CF10508F0B2C0311179C0FE2C251325
:103A400023C0941321C0E1101FC08F708061809348
:103A500029020E94721CC6010E94D91B8091290272
:103A6000F80185838F2D61960FB6F894DEBF0FBEE7
:103A7000CDBFDF91CF911F910F91FF90EF90DF901D
:103A8000CF90BF90AF900895AB2829F0842F852365
:103A90008F3F09F033C180E0F82FF170DF2E80FFF7
:103AA0003CC08091F2012091F30136E0821315C0F1
:103AB0004D875E878D859E850E943B21292F22950B
:103AC0002F702230F0F0243018F59F70F1F0F801DB
:103AD0009581907FD1F4D12C1EC090E0389FF001E9
:103AE000399FF00D1124EC50FE4F6181651306C023
:103AF0006081641303C062816E110FC001968770EC
:103B0000D5CF9F7011F0882331F3805E883018F391
:103B1000C8010E94D91BFD2CA5CFEE2009F4A2CF2D
:103B200080912902816080932902F12C9BCF25137B
:103B300006C0941304C0F801EE2009F48DC04D872F
:103B40005E878D859E850E942E1C882319F1EE20AC
:103B500009F180912902803270F020912402309185
:103B6000250238872F831986BB86AA868C87CE01CB
:103B700007960E94D91B86E0F801A4E2B2E001900A
:103B80000D928A95E1F70E94801C0E94721CFF240E
:103B9000F39468CFC8010E94D91BF9CF311113C02B
:103BA0007A2DB98AA88A6E2D89890E94321C84E2F6
:103BB00092E00E94D91B86E0F60111928A95E9F7FE
:103BC0000E94721CB2CF25130FC094130DC0E110D8
:103BD0000BC0F8018583C8010E94D91B86E0F6015D
:103BE00011928A95E9F73ECF4D875E878D859E8538
:103BF0000E942E1C882371F2EE2061F2809129022E
:103C0000803208F4B8CF20912402309125023A8303
:103C100029831B82BD82AC828E83CE010196A9CFFF
:103C2000E83CF10508F041C0FE2CEE2009F4B2CFCB
:103C300025132AC0941328C08091290280FD1BC03F
:103C4000982F907FC1F0F8018583903F31F0982F35
:103C5000907F905F8F70892B8583C8010E94D91B4C
:103C600086E0F801A4E2B2E001900D928A95E1F7B6
:103C70000E94721CF7CE86E0F801A4E2B2E0019047
:103C80000D928A95E1F7EECE4D875E878D859E85F4
:103C90000E942E1C81116FCF809129028160809338
:103CA0002902C8010E94D91BDDCE7A2DB98AA88AC3
:103CB0006E2D89890E94321C86E0F60111928A9548
:103CC000E9F7D6CFEE2009F465CF4D875E878D8565
:103CD0009E850E942E1CF82E882309F45BCF86E077
:103CE000F801A4E2B2E001900D928A95E1F784E236
:103CF00092E00E94EB180E94801CBACF81E08E25D2
:103D0000CBCE88EC90E008951F93CF93DF93CDB78F
:103D1000DEB72C970FB6F894DEBF0FBECDBF4F8332
:103D2000588769877A878B879C87CE0107960E9480
:103D3000D61C882369F08A859B85892B39F04F81B1
:103D40005885842F85238F3F09F071C016E05FC02E
:103D500086E0FE013796DE01119601900D928A955C
:103D6000E1F78A859B85892B89F388859F81892343
:103D70008F3F61F32091F30130E0C9010196877014
:103D800099274091F2014817190671F40E940B1C03
:103D90001092F3011092F20186E0E4E2F2E0DF011A
:103DA0001D928A95E9F7D2CF96E0929FD001939F1A
:103DB000B00D1124AC50BE4FFE01319601900D9212
:103DC0009A95E1F78093F3010E94511CBFCF819F28
:103DD000C00111248C509E4F0E94D61C8823E9F00C
:103DE000E091F2011E9FF0011124EC50FE4F408142
:103DF000518162817381848195810E94411C8091EF
:103E0000F20190E00196877099278093F2018091EA
:103E1000F2019091F3018913DACF2C960FB6F89442
:103E2000DEBF0FBECDBFDF91CF911F910895698591
:103E30007A858B859C850E94411C88CFEF92FF92EA
:103E40000F931F93CF93DF938C01892B81F0F12C7B
:103E5000EE24E394E8012196F8018491843770F40C
:103E6000843008F05FC08130B1F08230A1F1DF9181
:103E7000CF911F910F91FF90EF900895853709F42E
:103E80004CC008F43DC09CE7980F903780F78F77BF
:103E90000E94601949C00E5F1F4FFE01849190E29D
:103EA000980F983060F48770FE2D01C0FF0F8A953F
:103EB000EAF78F2F0E94B1210E94DA2102C00E94EE
:103EC000F0188F2D815030F2EFE9FFE03197F1F7D4
:103ED00000C00000F7CF0E5F1F4FFE01849190E2FB
:103EE000980F983050F48770FE2D01C0FF0F8A950F
:103EF000EAF78F2F0E94B721DFCF0E946019E1CF30
:103F00000E5F1F4FFE01C491C150D8F28FE99FE0B0
:103F10000197F1F700C00000F7CF0E5F1F4FFE01C1
:103F2000F490CFCF0E94F0188E01CBCF08950C945F
:103F3000961F0E94971F60934C0270934D028093CE
:103F40004E0290934F020C94011C08950C94991FFB
:103F50000F931F9300914C0210914D0220914E023D
:103F600030914F02602B712B822B932B1F910F915D
:103F70000C94991F0F931F9300914C0210914D02C6
:103F800020914E0230914F026023712382239323AC
:103F90001F910F910C94991F0F931F9300914C0246
:103FA00010914D0220914E0230914F0260277127EF
:103FB000822793271F910F910C94991F0C949C05B5
:103FC0000E94DE1F609348027093490280934A0268
:103FD00090934B020C94011C60E070E0CB010C94B8
:103FE000E01F0F931F9341E050E060E070E08A0112
:103FF0009B0104C0000F111F221F331F8A95D2F7A7
:10400000C901B8011F910F910C94E01F0F931F93EA
:1040100041E050E060E070E004C0440F551F661FAF
:10402000771F8A95D2F78091480290914902A0911A
:104030004A02B0914B028A019B01082B192B2A2BB3
:104040003B2BC901B8011F910F910C94E01F0F93F6
:104050001F9341E050E060E070E004C0440F551F42
:10406000661F771F8A95D2F7CB01BA0160957095CC
:1040700080959095009148021091490220914A0242
:1040800030914B0260237123822393231F910F9160
:104090000C94E01F0F931F9341E050E060E070E04C
:1040A00004C0440F551F661F771F8A95D2F7809171
:1040B000480290914902A0914A02B0914B028A01B4
:1040C0009B01082719272A273B27C901B8011F91FF
:1040D0000F910C94E01F0F931F93009148021091D1
:1040E000490220914A0230914B02602B712B822BA6
:1040F000932B1F910F910C94E01F0F931F9300912E
:1041000048021091490220914A0230914B026023EB
:104110007123822393231F910F910C94E01F0F931F
:104120001F93009148021091490220914A02309158
:104130004B0260277127822793271F910F910C94C0
:10414000E01F0895E92FEE0FE90FEE0F8E0F982F65
:10415000977041E001C0440F9A95EAF786958695DD
:10416000869595E0899FF0011124E65DFD4F30E0D2
:1041700020E070E05191DF011197CB01022E02C0C7
:10418000969587950A94E2F7817081958527842317
:1041900085278C932F5F3F4F2530310559F70895C0
:1041A000E92FEE0FE90FEE0F8E0F982F977086957F
:1041B0008695869525E0829FF0011124E65DFD4FEE
:1041C00050E040E080E0219130E0092E02C03695B9
:1041D00027950A94E2F721703327042E01C0220F9D
:1041E0000A94EAF7822B4F5F5F4F4530510559F72C
:1041F0000895BF92CF92DF92EF92FF920F931F9399
:10420000CF93DF938C01C0904802D0904902E09098
:104210004A02F0904B0280914C0290914D02A09185
:104220004E02B0914F02C82AD92AEA2AFB2ACFE1CE
:10423000D0E0BC2ED701C6010C2E04C0B695A795C0
:10424000979587950A94D2F780FD0EC0219788F73D
:10425000B12C8B2DDF91CF911F910F91FF90EF909B
:10426000DF90CF90BF900895B8018C2F0E941A075D
:10427000019761F3EECFCF93DF93EC010E94F92019
:10428000BE01DF91CF910C941A071F93CF93DF9358
:10429000EB019091F101992331F0CB01DF91CF91A6
:1042A0001F910C943B21882379F0CB010E94F920C7
:1042B000182F682FCE010E94A220BE01812FDF910E
:1042C000CF911F910C941A07CB010E94D020182F78
:1042D000F4CF682F80911E0190911F010C94C2238E
:1042E000682F80911E0190911F010C94CD23809125
:1042F0001E0190911F010C94D82380915002859546
:1043000085958595089580915002877008959091C4
:104310005002977081E009F480E008958091740262
:10432000089590917402892B80937402089580956A
:1043300090917402982390937402089510927402DD
:10434000089590917302892B80937302089580954C
:1043500090917302982390937302089510927302C0
:10436000089590917202892B80937202089580952E
:1043700090917202982390937202089510927202A3
:10438000089580915102089508950C94C42190914C
:104390005102981721F0809351020C94C521089581
:1043A00080915102882329F01092510280E00C94F0
:1043B000C5210895E0911E01F0911F0180917402C2
:1043C0008083E0911E01F0911F0180819091730222
:1043D000892B8083E0911E01F0911F0180819091D3
:1043E0007202892B808390915102992381F0E09190
:1043F0001E01F0911F018081892B808380911E0115
:1044000090911F010E942E2381110E94D021809142
:104410001E0190911F010C94B21708950C940D2267
:1044200098E0899F90011124622B609350020E94B2
:104430000620809150028595859585950C940E22D5
:104440001092500280E00C940E22909150028095C0
:10445000892380935002282F277071F4282F082E6B
:10446000000C330B9217130639F0859585958595C9
:104470000E9427200C9420220895CF92DF92EF9281
:10448000FF926C01EE24FF2420E0C114D104E1046A
:10449000F10419F0C701B60120E1C72ED82EE92E8C
:1044A000FF24C114D104E104F10419F0285FC7010D
:1044B000B6016B017C0154E0F694E794D794C7945D
:1044C0005A95D1F7C114D104E104F10419F02C5F1D
:1044D000C701B6016B017C0142E0F694E794D794E2
:1044E000C7944A95D1F7C114D104E104F10419F03D
:1044F0002E5FC701B6019695879577956795672BCF
:10450000682B692B09F02F5F822FFF90EF90DF90CF
:10451000CF90089590E080E00E94A32C21E08C3E93
:104520009E4F09F020E0822F089582E090E00C94E5
:10453000952C83E090E00C94952CCF9384E090E050
:104540000E94952CC82F81E290E00E94952C982F14
:104550008C2FCF910895CF93C92F682F84E090E0DE
:104560000E94A92C6C2F81E290E0CF910C94A92C91
:10457000AB01BC018FE090E00C94BB2CAB01BC0103
:1045800083E190E00C94BB2C60E070E0CB010C94D4
:10459000BE2260E070E0CB010E94B8220C94C422DD
:1045A0006CEE7EEF90E080E00E94C72C60E082E03D
:1045B00090E00E94A92C60E083E090E00E94A92C8A
:1045C00010924C0210924D0210924E0210924F0225
:1045D00060E084E090E00E94A92C60E081E290E03D
:1045E0000E94A92C60E085E090E00E94A92C60E088
:1045F00086E090E00E94A92C6FEF87E090E00E9497
:10460000A92C40E050E0BA0188E090E00E94BB2C69
:1046100060E08DE090E00E94A92C40E050E0BA01FB
:1046200088E190E00E94BB2C60E087E190E00E946E
:10463000A92C40E050E0BA018CE190E00E94BB2C34
:1046400060E080E290E00E94A92C0C94C9220C94B6
:10465000D022682F8EE090E00C94A92CFC013296B9
:1046600080912A01882321F08091D9049EE187FF5F
:1046700096E080E0915008F4089521912223D1F32F
:104680008F5FF8CF662301F120912A012223F1F0F8
:104690002091D90427FF1AC0462F46954695469586
:1046A0004E3190F4677021E030E002C0220F331FDA
:1046B0006A95E2F7840F911DFC01828190E0282326
:1046C000392381E0232B69F480E00895FC013296C0
:1046D00008962191261721F0E817F907D1F7F4CFB2
:1046E00081E008959C01FC0132969FEF80E04191AA
:1046F000461751F09F3F19F4411101C0982F8F5F69
:104700008630A9F79F3F09F40895290F311D97FDC1
:104710003A95F90162830895FC0132960896219139
:10472000261303C0DF0111971C92E817F907B9F7A8
:104730000895E62FE695E695E695EE3168F4E80FE4
:10474000F92FF11D677021E030E001C0220F6A955A
:10475000EAF78281822B82830895E62FE695E6951B
:10476000E695EE3170F4E80FF92FF11D677021E046
:1047700030E001C0220F6A95EAF720958281282354
:104780002283089520912A01222329F02091D9041F
:1047900027FD0C9499230C94722320912A01222343
:1047A00029F02091D90427FD0C94AD230C948C237F
:1047B000FC01329680912A01882351F08091D9041E
:1047C00087FF06C08EE1DF011D928A95E9F7089503
:1047D00086E0F9CF089508950C94EB230E94EC2312
:1047E0008091DF04843009F439C01092760288E1A8
:1047F00090E020E40FB6F894A895809360000FBE77
:104800002093600080E00E94A0060E9445108091E5
:10481000770281110AC081E0809377028091A9021A
:104820008170809378020E94780F0E94EC2383B7F6
:10483000817F846083BF83B7816083BF78948895CC
:1048400083B78E7F83BF0FB6F894A89580916000E0
:10485000886180936000109260000FBE08950895F3
:10486000CF930E94EA230E943E090E942F24C0E0B9
:104870008C2F0E94ED08811105C0CF5FC730C1F7B2
:10488000CF91089581E0FCCF08950C9444240E94B8
:104890000B1C0E9499170E94A0061092770280912B
:1048A000780281110E943D100E948A0F0C944524C9
:1048B0001F921FB61F9211248F939F93AF93BF93A4
:1048C00080917602811113C08091D5049091D60415
:1048D000A091D704B091D8044196A11DB11D809339
:1048E000D5049093D604A093D704B093D804BF9175
:1048F000AF919F918F911F901FBE1F90189582E0DE
:1049000084BD93E095BD9AEF97BD80936E000895A6
:104910002FB7F8948091D5049091D604A091D70434
:10492000B091D8042FBF08952FB7F8946091D504A3
:104930007091D6048091D7049091D8042FBF089528
:104940009C014FB7F8948091D5049091D604A09122
:10495000D704B091D8044FBF821B930B089578946D
:104960001F921FB61F9211248F939F93AF93BF93F3
:104970008091D5049091D604A091D704B091D80429
:104980000196A11DB11D8093D5049093D604A093E8
:10499000D704B093D804BF91AF919F918F911F908E
:1049A0001FBE1F90189581E08093E00080E2809305
:1049B000D8001092C9008FE19EE40197F1F700C082
:1049C000000087E090EBDC018093E8049093E90419
:1049D000A093EA04B093EB0488E19CE00FB6F8944E
:1049E000A895809360000FBE90936000FFCF0E9457
:1049F0008A22811102C00E9427230E94952280935F
:104A000075020E949D229093DA048093D9040E943B
:104A10009922682F70E090E080E00E94A61F6091CC
:104A200048027091490280914A0290914B020C9485
:104A3000DE1F80919902089508950895CF93DF9322
:104A4000EC0180912A018823B1F18091D90487FF7C
:104A500032C060E282E08093E9008FEF9091E8003D
:104A6000815095FD06C095ED9A95F1F700008111F2
:104A7000F5CF8091E80085FF1BC080912A0170E08E
:104A800050E040E0811104C050E040E068E070E098
:104A9000CE010E94EA268091E8008E778093E8009C
:104AA00080E2FE01A9E7B2E001900D928A95E1F75C
:104AB000DF91CF91089568E081E0CDCF0895809196
:104AC000DE04811109C00E947A280E94D7288091B3
:104AD000E20084608093E20008951092DE0408955D
:104AE000089508950C94472442E061EC81E00E940F
:104AF000F62742E261EC82E00C94F6278091E10413
:104B0000833009F45FC030F48130C1F1823009F4A0
:104B10009BC008958A3009F487C08B3009F46DC0BA
:104B2000893009F04EC08091E004813209F049C01B
:104B30008091E4049091E504029708F042C08091CE
:104B4000E800877F8093E8008091E80082FF35C00D
:104B50009091F3008091F200029729F48091F10086
:104B60008B7F813021F48091F100809399028091B4
:104B7000E8008B778093E8000C942A288091E00469
:104B8000813AF9F48091E800877F8093E800809172
:104B9000E4049091E504892B61F460E289E792E0F6
:104BA00070E00E9439278091E8008B778093E800BD
:104BB000089560E090E080E0F3CF8091DF04811100
:104BC000C3CF08958091E004813AD9F78091E4043D
:104BD0009091E504892BA9F78091E800877F809365
:104BE000E8008091E80080FFFCCF80912A0180934B
:104BF000F1008091E8008E77BDCF8091E004813292
:104C000001F78091E4049091E504892BD1F680911D
:104C1000E800877F8093E8000E942A288091E204C0
:104C200080932A010C940B1C8091E004813249F698
:104C30008091E800877F8093E8000E942A28809175
:104C4000E30480939A0208958091E004813A09F088
:104C5000B8CF8091E800877F8093E8008091E800DA
:104C600080FFFCCF80919A02C2CF84B7877F84BF38
:104C70000FB6F894A89580916000886180936000D9
:104C8000109260000FBE80E890E00FB6F894809319
:104C90006100909361000FBE0E9406180E947A285E
:104CA0000E94D7288091E20084608093E20078948B
:104CB0000E94602B0E94101880E291E00E949417DD
:104CC0008091DF04853019F00E941D18F9CF0E94F1
:104CD000EE238091DD04882399F30E9430248823F9
:104CE00079F30E94D426ECCF0C947626292F332713
:104CF0002330310519F168F42130310509F44AC037
:104D00002230310509F44BC090E080E030E020E033
:104D100028C02132310579F122323105A9F780E42A
:104D200090E026E63AE061157105D9F08BE390E05A
:104D30002BE23AE061307105A1F0E6CF992781308E
:104D4000910599F0009741F08230910589F0039721
:104D5000D9F6E0EBF9E002C0EAEDF9E0849190E0E9
:104D60009F01FA01318320830895ECECF9E0F6CF3E
:104D7000E6EBF9E0F3CF89E090E020EF39E0611550
:104D8000710579F389E090E029E03AE0613071053E
:104D900041F3BACF82E190E029E13AE0E2CF8BE340
:104DA00090E02EED39E0DDCF80E189BD82E189BD63
:104DB00009B400FEFDCF8091D8008F7D8093D8008C
:104DC0008091E00082608093E0008091E00081FDAE
:104DD000FCCF0895AF92BF92CF92DF92FF920F93D4
:104DE0001F93CF93DF936C01EB018A010E94492846
:104DF000F82E811123C00115110539F0F8018081C9
:104E00009181C81BD90BC80ED91EB12CA12C20979B
:104E1000A9F08091E80085FD22C08091E8008E779E
:104E20008093E80001151105A1F0F80180819181BE
:104E3000A80EB91EB182A08285E0F82E8F2DDF91D9
:104E4000CF911F910F91FF90DF90CF90BF90AF90C7
:104E500008950E9449288823D1F2F82EEFCFF60159
:104E600081916F018093F1002197FFEFAF1ABF0A84
:104E7000CECFFC018091E6049091E7048617970756
:104E8000A0F06115710529F49091E8009E77909348
:104E9000E80090E06115710551F4911108C080910E
:104EA000E80082FF34C080E00895BC01F2CF809119
:104EB000DF048823C1F18530C1F18091E80083FDD2
:104EC00030C08091E80082FDEACF8091E80080FF49
:104ED000E1CF8091F3002091F200382F6115710528
:104EE00019F02830310558F091E02830310509F0EB
:104EF00090E02091E8002E772093E800CBCF8191BD
:104F00008093F100615071092F5F3F4FE7CF80918F
:104F1000DF04882341F0853041F08091E80083FF71
:104F2000BECF81E0089582E0089583E00895FC01FA
:104F30008091E6049091E70486179707A0F0611529
:104F4000710529F48091E8008E778093E80090E065
:104F50006115710551F4911108C08091E80082FF3C
:104F600035C080E00895BC01F2CF8091DF04882332
:104F7000C9F18530C9F18091E80083FD31C080918D
:104F8000E80082FDEACF8091E80080FFE1CF8091C8
:104F9000F3002091F200382F6115710519F02830C7
:104FA000310558F091E02830310509F090E080910A
:104FB000E8008E778093E800CBCF84918093F10056
:104FC0003196615071092F5F3F4FE6CF8091DF042A
:104FD000882341F0853041F08091E80083FFBDCF08
:104FE00081E0089582E0089583E00895982F973036
:104FF00028F08F708093E90081E008959093E90094
:10500000242F762F50E0981731F07091EC0020910A
:10501000ED005091F00021FD02C09F5FE8CF30917C
:10502000EB003E7F3093EB003091ED003D7F3093FD
:10503000ED003091EB0031603093EB007093EC00A9
:105040002093ED005093F0002091EE0027FDE5CF76
:1050500080E008958091E00487FF13C08091E8000C
:1050600082FF06C08091E8008B778093E80004C03F
:105070008091DF048111F2CF08958091DF048823AD
:10508000D9F38091E80080FFF8CF8091E8008E7717
:10509000ECCF2091E4003091E50095E6A901209144
:1050A000EC00822F817020FF06C08091E80080FF15
:1050B00006C080E008952091E80022FD1AC080918A
:1050C000DF04882389F0853089F08091EB0085FD2D
:1050D0000FC02091E4003091E50042175307F9F228
:1050E0009150E1F684E0089582E0089583E0089508
:1050F00081E008950E94E8280E94F028E0EEF0E0A8
:10510000808181608083E8EDF0E080818F7780830B
:1051100019BCA7EDB0E08C918E7F8C9380818F7E3F
:1051200080831092DE0408950F931F93CF93DF9333
:105130000E94E8280E94F028C8EDD0E088818F778F
:10514000888388818068888388818F7D888319BC63
:105150001092DF041092DB041092DD041092DC0444
:1051600000EE10E0F80180818B7F80838881816070
:10517000888342E060E080E00E94F627E1EEF0E004
:1051800080818E7F8083E2EEF0E080818160808389
:10519000808188608083F80180818E7F8083888110
:1051A00080618883DF91CF911F910F910895E8ED81
:1051B000F0E080818F7E8083E7EDF0E08081816088
:1051C000808384E082BF81E08093DE040C94942885
:1051D000E8EDF0E080818E7F80831092E2000895F8
:1051E0001092DA001092E10008951F920F920FB60C
:1051F0000F9211242F933F934F935F936F937F935D
:105200008F939F93AF93BF93EF93FF938091E100B0
:1052100082FF0BC08091E20082FF07C08091E10015
:105220008B7F8093E1000E945F2B8091DA0080FFEA
:1052300019C08091D80080FF15C08091DA008E7F60
:105240008093DA008091D90080FF96C080E189BD0B
:1052500082E189BD09B400FEFDCF81E08093DF04C7
:105260000E945F258091E10080FF19C08091E200DB
:1052700080FF15C08091E2008E7F8093E2008091D4
:10528000E20080618093E2008091D8008062809388
:10529000D80019BC85E08093DF040E9471258091BD
:1052A000E10084FF2BC08091E20084FF27C080E1F1
:1052B00089BD82E189BD89B5982F917080FFFBCFB0
:1052C0008091D8008F7D8093D8008091E1008F7EFF
:1052D0008093E1008091E2008F7E8093E2008091D4
:1052E000E20081608093E2008091DB04882309F46E
:1052F00049C084E08093DF040E9472258091E10020
:1053000083FF29C08091E20083FF25C08091E100E6
:10531000877F8093E10082E08093DF041092DB04BA
:105320008091E1008E7F8093E1008091E2008E7F8A
:105330008093E2008091E20080618093E20042E08D
:1053400060E080E00E94F6278091F0008860809302
:10535000F0000E947025FF91EF91BF91AF919F9156
:105360008F917F916F915F914F913F912F910F900E
:105370000FBE0F901F90189519BC1092DF040E9469
:105380006D2570CF8091E30087FD93E09093DF045B
:10539000B3CF1F920F920FB60F9211242F933F930A
:1053A0004F935F936F937F938F939F93AF93BF932D
:1053B000CF93DF93EF93FF93D091E900DF7080915B
:1053C000EC00C82FC17080FDC0E81092E900809108
:1053D000F000877F8093F00078940E940D2A10924D
:1053E000E9008091F00088608093F000CD2BCF70B1
:1053F000C093E900FF91EF91DF91CF91BF91AF9101
:105400009F918F917F916F915F914F913F912F91DC
:105410000F900FBE0F901F9018951F93CF93DF939F
:10542000CDB7DEB7AA970FB6F894DEBF0FBECDBFDB
:1054300080EE94E02091F100FC012193CF01F4E093
:10544000883E9F07B9F70E947E258091E80083FF80
:105450001EC18091E0049091E1049A3008F017C1D8
:10546000E92FF0E0E05DF24D0C94DF2B803899F0ED
:10547000823809F00CC18091E4048F70873008F005
:1054800006C18093E9008091EB0085FB882780F9B5
:105490001092E90006C08091DC049091DD04911126
:1054A00082609091E800977F9093E8008093F100EC
:1054B0001092F1008091E8008E77E5C0882309F40E
:1054C000D3C0823009F0E3C08091E2048111D6C0DC
:1054D0008091E4048F702FEF280F263008F0D7C09A
:1054E0008093E9002091EB0020FFC8C0933031F495
:1054F0008091EB0080628093EB00C0C09091EB0044
:1055000090619093EB0021E030E001C0220F8A957A
:10551000EAF72093EA001092EA008091EB0088609D
:10552000EACF8111B4C01091E2041F778091E300AB
:105530008078812B8093E3008091E800877F8093BF
:10554000E8000E942A288091E80080FFFCCF80912B
:10555000E30080688093E30082E0111183E0809390
:10556000DF0495C08058823008F091C08091E20439
:105570009091E3048C3D23E09207A1F583E08A83B8
:105580008AE289834FB7F894DE01139620E03EE06B
:1055900051E2E32FF0E050935700E49120FF03C065
:1055A000E295EF703F5FEF708E2F90E0EA30C0F031
:1055B000C7968D939D932F5F243159F74FBF8091EC
:1055C000E800877F8093E8006AE270E0CE010196F0
:1055D0000E9439278091E8008B778093E80057C0BC
:1055E000C096E7CF6091E4047091E504AE014F5F8F
:1055F0005F4F0E947426BC01892B09F448C090912A
:10560000E800977F9093E80089819A810E9497270C
:10561000E1CF8038E1F58091E800877F8093E80052
:105620008091DB048093F10045CF811130C09091CF
:10563000E204923060F58091E800877F8093E80073
:105640009093DB040E942A288091DB04882311F0C8
:1056500084E005C08091E30087FDFACF81E080936C
:10566000DF040E94742513C08091E204813079F434
:1056700081E0933009F080E08093DD041092E9002E
:105680008091E800877F8093E8000E942A2880911B
:10569000E80083FF0AC08091E800877F8093E800DC
:1056A0008091EB0080628093EB00AA960FB6F8948D
:1056B000DEBF0FBECDBFDF91CF911F91089508953A
:1056C000CF938091DF048823A1F0C091E900CF70CF
:1056D0009091EC00892F817090FD80E8C82B10928A
:1056E000E9008091E80083FD0E940D2ACF70C093ED
:1056F000E900CF910895991B79E004C0991F96178E
:1057000008F0961B881F7A95C9F78095089587FB46
:10571000082E062687FD819567FD61950E947B2BEB
:105720000EF4919507FC81950895AA1BBB1B51E1CE
:1057300007C0AA1FBB1FA617B70710F0A61BB70B01
:10574000881F991F5A95A9F780959095BC01CD01A6
:10575000089597FB072E16F4009407D077FD09D023
:105760000E94952B07FC05D03EF4909581959F4FA4
:105770000895709561957F4F0895A1E21A2EAA1B96
:10578000BB1BFD010DC0AA1FBB1FEE1FFF1FA217F1
:10579000B307E407F50720F0A21BB30BE40BF50BEE
:1057A000661F771F881F991F1A9469F76095709577
:1057B000809590959B01AC01BD01CF010895EE0F3E
:1057C000FF1F0590F491E02D09940E94ED2B3323E7
:1057D00012F48A1B9B0B0C94FE2BA29FB001B39F6B
:1057E000C001A39F700D811D1124911DB29F700DEA
:1057F000811D1124911D08950E94ED2BB7FF08957E
:10580000821B930B08950E94ED2BA59F900DB49FD2
:10581000900DA49F800D911D11240895B7FF0C9445
:10582000032C0E94032C821B930B08958F929F924E
:10583000AF92BF92CF92DF92EF92FF92CF93DF931E
:10584000EC01688179818A819B81611571058105EF
:10585000910521F464E279ED8BE597E02DE133EFDA
:1058600041E050E00E94DD2C49015A019B01AC014E
:10587000A7EAB1E40E94032C6B017C01ACEEB4EF0B
:10588000A50194010E94112CDC01CB018C0D9D1D02
:10589000AE1DBF1DB7FF03C00197A109B0488883A3
:1058A0009983AA83BB839F77DF91CF91FF90EF907D
:1058B000DF90CF90BF90AF909F908F9008950E94FF
:1058C000162C089580E091E00E94162C0895B0E017
:1058D000A0E08093000190930101A0930201B09396
:1058E00003010895FB01DC0102C005900D924150B7
:1058F0005040D8F70895FC014150504030F00190DD
:105900000616D1F73197CF01089588279927089572
:10591000FB01DC0104C08D910190801921F44150FC
:105920005040C8F7881B990B0895F999FECF92BD96
:1059300081BDF89A992780B50895A6E1B0E044E0CA
:1059400050E00C94CF2CA8E1B0E042E050E00C9481
:10595000CF2C262FF999FECF92BD81BDF89A0197E1
:1059600000B4021639F01FBA20BD0FB6F894FA9AA7
:10597000F99A0FBE08950396272F0E94AA2C0E9421
:10598000A92C252F0E94AA2C242F0C94AA2C019616
:10599000272F0E94AA2C0C94A92CDC01CB01FC011E
:1059A000F999FECF06C0F2BDE1BDF89A319600B478
:1059B0000D9241505040B8F70895052E97FB1EF404
:1059C00000940E94F42C57FD07D00E94BD2B07FCC9
:1059D00003D04EF40C94F42C5095409530952195BD
:1059E0003F4F4F4F5F4F089590958095709561950B
:1059F0007F4F8F4F9F4F0895F894FFCF23112B11A6
:105A0000321137113C11411146114B1150115511F2
:105A10005A115F11631168116B116E1171117411BC
:105A200076117911071A071A5F1A5F1A341A341A95
:105A3000341A341AB11A3D1B4C1B4C1BA81B341AC8
:105A4000341AB11B1A1C1A1C231C231C251C231CD2
:105A5000231C231C1A1C1A1C2A1C231C231C2A1C52
:105A6000362A5E2A472B5E2A472B912AB22A472BD9
:045A7000092B152BBE
:105A740001000000010102000B000B0B01191A1BAD
:105A84001C1D1E1F2021220021007F220003520220
:105A940019251E251C251D255E2501946697C634EF
:105AA40035F4F5F6F731333200010202020206063C
:105AB400060909090909090F0F0F0F0F0F1515150D
:105AC400181919191919191919191923242525250A
:0C5AD400252525000810181810080000F7
:00000001FF
