:100000000C94C0050C9407060C9407060C948F1AE8
:100010000C9407060C9407060C9407060C9407062C
:100020000C9407060C9407060C94D32E0C94A72F5F
:100030000C944D270C9407060C9407060C940706A5
:100040000C9407060C9407060C9407060C940706FC
:100050000C9407060C94A4270C9407060C9407062E
:100060000C9407060C9407060C9407060C940706DC
:100070000C9407060C9407060C9407060C940706CC
:100080000C9407060C9407060C9407060C940706BC
:100090000C9407060C9407060C9407060C940706AC
:1000A0000C9407060C9407060C94070629001E0002
:1000B0001F002000210022002B0014001A0008005D
:1000C00015001700E00004001600070009000A00F0
:1000D000E1001D001B000600190005000000E20001
:1000E000E30001512C002F003500270026002500D9
:1000F000240023002D00130012000C0018001C0027
:10010000340033000F000E000D000B00E500380036
:1001100037003600100011000000E7002A000251ED
:100120002800300001000100010001000100010071
:100130003A003B003C003D003E003F0035001E02FF
:100140001F02200221022202010001000100010021
:100150000100010000000100010001000100010098
:100160000100010001000100010001004500440000
:1001700043004200410040003502270226022502CA
:1001800024022302310230022F022E022D0200002F
:100190000000010001000351010001000100010005
:1001A000010001000100010035001E001F002000B9
:1001B000210022003A003B003C003D003E003F0091
:1001C000400041004200430044004500000001009F
:1001D00001000351010001000100010001000100C4
:1001E0000100010001002700260025002400230053
:1001F00000004F005200510050000000310030005C
:100200002F002E002D002E02000001000100010031
:1002100001000100000000000000000000000000DC
:1002200000000000000000000000000000000000CE
:1002300000000000000000000000000000000000BE
:1002400000000000000001000100010001000000AA
:10025000000000000000000000000000000000009E
:100260000000000000000000C95CC75CC55CC25C07
:1002700000000000CA5CC85CC65CC35C00000000F3
:1002800000000100010001000100000032190A0015
:10029000047F3F1F643214643214783C1E1E140A1B
:1002A000052223252628292A2C2D2F3032333536B6
:1002B000383A3B3D3E4042434547494A4C4E5051F7
:1002C000535557595A5C5E6062646668696B6D6F1E
:1002D00071737577797B7D7F81838587898A8C8E21
:1002E00090929496989A9C9E9FA1A3A5A7A8AAAC29
:1002F000AEAFB1B3B4B6B8B9BBBCBEBFC1C2C3C563
:10030000C6C7C9CACBCCCDCED0D1D2D2D3D4D5D604
:10031000D7D7D8D9D9DADADBDBDBDCDCDCDCDCDD37
:10032000DDDDDDDCDCDCDCDCDBDBDBDADAD9D9D81B
:10033000D7D7D6D5D4D3D2D2D1D0CECDCCCBCAC9B3
:10034000C7C6C5C3C2C1BFBEBCBBB9B8B6B4B3B1E2
:10035000AFAEACAAA8A7A5A3A19F9E9C9A9896947D
:1003600092908E8C8A89878583817F7D7B79777552
:1003700073716F6D6B6968666462605E5C5A595731
:10038000555351504E4C4A4947454342403E3D3BF0
:100390003A3836353332302F2D2C2A29282625237A
:1003A00022FFAA7F55400001010101010101010165
:1003B0000202020202020202020303030303030316
:1003C00003040404040404040505050505060606E3
:1003D0000606070707070708080808090909090AA0
:1003E0000A0A0B0B0B0C0C0C0D0D0D0E0E0E0F0F45
:1003F0000F101011111112121313141415151616D3
:100400001717181819191A1A1B1B1C1D1D1E1E1F41
:100410002020212222232424252626272829292A90
:100420002B2C2D2D2E2F30313232333435363738B8
:10043000393A3B3C3D3E3F404142434445464748B4
:10044000494A4C4D4E4F50515354555658595A5B8A
:100450005D5E5F616264656668696B6C6D6F70722A
:10046000737577787A7B7D7E8082838587888A8C96
:100470008E8F91939596989A9C9EA0A2A3A5A7A9CA
:10048000ABADAFB1B3B5B7BABCBEC0C2C4C6C9CBC1
:10049000CDCFD1D4D6D8DBDDDFE2E4E7E9EBEEF077
:1004A000F3F5F8FAFDFF00AE00AF00DA02818FD954
:1004B000F1DB40A4A62EAF00A0C000A1C800AED5BD
:1004C00080A81FD300408D14200000000000000011
:1004D0003E5B4F5B3E003E6B4F6B3E001C3E7C3EE6
:1004E0001C00183C7E3C18001C577D571C001C5EED
:1004F0007F5E1C0000183C180000FFE7C3E7FF0008
:10050000001824180000FFE7DBE7FF0030483A0638
:100510000E00262979292600407F05050700407F27
:1005200005253F005A3CE73C5A007F3E1C1C080052
:10053000081C1C3E7F0014227F2214005F5F005FB6
:100540005F0006097F017F00006689956A00606090
:100550006060600094A2FFA2940008047E0408007A
:1005600010207E20100008082A1C0800081C2A08F9
:1005700008001E10101010000C1E0C1E0C0030384D
:100580003E383000060E3E0E06000000000000005F
:1005900000005F000000000700070000147F147FC8
:1005A0001400242A7F2A12002313086462003649AB
:1005B00056205000000807030000001C22410000E4
:1005C0000041221C00002A1C7F1C2A0008083E084B
:1005D00008000080703000000808080808000000CB
:1005E000606000002010080402003E5149453E00B2
:1005F00000427F4000007249494946002141494D6F
:1006000033001814127F10002745454539003C4A35
:10061000494931004121110907003649494936004D
:10062000464949291E000000140000000040340023
:100630000000000814224100141414141400004196
:10064000221408000201590906003E415D594E007E
:100650007C1211127C007F49494936003E414141DC
:1006600022007F4141413E007F49494941007F09C5
:10067000090901003E41415173007F0808087F00CD
:1006800000417F4100002040413F01007F081422CB
:1006900041007F40404040007F021C027F007F04F9
:1006A00008107F003E4141413E007F0909090600D4
:1006B0003E4151215E007F091929460026494949DA
:1006C000320003017F0103003F4040403F001F20F4
:1006D00040201F003F4038403F006314081463006F
:1006E0000304780403006159494D4300007F4141F0
:1006F0004100020408102000004141417F00040233
:100700000102040040404040400000030708000090
:100710002054547840007F284444380038444444EE
:100720002800384444287F003854545418000008E6
:100730007E0902001824241C78007F080404780035
:1007400000447D4000002040403D00007F102844D0
:10075000000000417F4000007C04780478007C08A1
:10076000040478003844444438007C1824241800D9
:10077000182424187C007C080404080048545454AD
:10078000240004043F4424003C4040207C001C2002
:1007900040201C003C4030403C00442810284400CD
:1007A0004C9090907C004464544C440000083641C6
:1007B0000000000077000000004136080000020140
:1007C000020402003C2623263C00000000000080BA
:1007D000808080000000000080E070180C1830E07D
:1007E00080000010F8901030783010B8FC381000FD
:1007F0000000000000F8FCF800000000000000000D
:1008000000000000001C9C1C00000000F8FCF80028
:1008100000000000001CFCF8C00000000000008088
:10082000E0F87C1C000000F0FCFCFC1C1C1C1C1CE8
:100830001C1C1C000000000000C0F0F8381C1C1C30
:100840001C1C1C3CF8F0E000E0F0F0F0E0ECEEF7EF
:10085000F37020007C7C7C7E007E7E7E7F7F7F002C
:100860000080C0E07E5B4F5BFEC00000C000DCD7B4
:10087000DEDEDED7DC00C00000000000000000006B
:100880000000000000000000000000000000000F59
:10089000BCE0818181838382870C183060C00000B6
:1008A0001FFE90B9FFBB91983C1811133F11000037
:1008B0000000000000FFFFFF00000000000000003B
:1008C0000000000000FFFFFF00000000FFFFFF002E
:1008D00000000000000000030F7FF8E080F0FC3F04
:1008E0000F0100000000003F3F3F1C1C1C1C1C3C73
:1008F00078F8F0E08000000000C3E7FF7E3C387825
:10090000787070F8FFDF87000F1F3F7F7F7F7F7F4A
:100910003F1E0C001F1F1F3F003F3F3F7F7F7F0098
:10092000307B7F7830202030787F3B0003000F7FC2
:100930000F0F0F7F0F0003000000000000000000F9
:1009400000000000000000000000183C2466634125
:10095000C18180808080808081C14162386C4CC6BA
:100960008181808080808081C14362361C180000B4
:100970000000000000FFFFFFC0C0C0C0C0C0C0C07A
:10098000C0800000007FFF7F000000007FFFFFC0ED
:1009900080000000E0E0C0C0C0E0F97F1F07000059
:1009A0000000000000000070F0E0E0C0C0C0C0E047
:1009B000F0F87F3F0F0000000F3F7FF9E0E0C0C07C
:1009C000C0C0C0E0F97F3F1F000000000000000031
:1009D0000000000000000000000000000000000017
:1009E0000000000000000000000000000000000007
:1009F00000000000000000000000000000000000F7
:100A000000000000000000000000040330000000AF
:100A10000E034C0069006C007900350038000000BE
:100A200010036C0069006C00690075006D007300B4
:100A300000000403090409023B00020100A0FA09B6
:100A400004000001030101000921110100012240FD
:100A5000000705810308000A0904010001030000E2
:100A60000009211101000122BC00070582032000BA
:100A70000A1201100100000008D8042DEB0001014A
:100A800002030105010902A10185020901A1000576
:100A900009190129051500250195057501810295A2
:100AA00001750381010501093009311581257F9503
:100AB000027508810609381581257F950175088121
:100AC00006050C0A38021581257F950175088106F7
:100AD000C0C005010980A101850319012AB70015CD
:100AE0000126B700950175108100C0050C0901A110
:100AF00001850419012AA002150126A0029501759D
:100B0000108100C005010906A1018505050719E04E
:100B100029E71500250195087501810205071900CF
:100B200029EF1500250195F07501810205081901CD
:100B30002905950575019102950175039101C0057F
:100B4000010906A101050719E029E715002501950E
:100B500008750181029501750881010507190029B1
:100B6000FF150026FF00950675088100050819018C
:100B70002905950575019102950175039101C00044
:100B800011241FBECFEFDAE0DEBFCDBF04B603FEF7
:100B900027C080917D0790917E07A0917F07B0913B
:100BA00080078730904BA740B04BD1F410927D075F
:100BB00010927E0710927F071092800714BE84B7B0
:100BC000877F84BF0FB6F894A895809160008861F4
:100BD00080936000109260000FBEE0E0F8E309959A
:100BE00012E0A0E0B1E0E2EEFBE602C005900D925B
:100BF000A83CB107D9F727E0A8ECB2E001C01D92EC
:100C0000AD37B207E1F70E94132C0C94B7350C9462
:100C1000000080916A0490916B04A0916C04B091E3
:100C20006D0484309105A105B105E1F128F5009727
:100C3000A105B10571F16AE971E082309105A10564
:100C4000B10549F1BF93AF939F938F9385EB91E0EB
:100C50009F938F931F9288E18F9388EC94E09F93EA
:100C60008F930E947A328DB79EB70A960FB6F8948A
:100C70009EBF0FBE8DBF13C088309105A105B10581
:100C800029F08E309105A105B105E1F667EA71E022
:100C900002C06EE771E088EC94E00E94733288EC49
:100CA00094E008956DE871E0F6CF84E091E0089556
:100CB000CF93C0E28C33910520F4FC01E952FE4F42
:100CC000C0811F92CF939F938F93FB0180811F92CE
:100CD0008F9381811F928F9386EC91E09F938F93E6
:100CE0001F9288E18F938FED92E09F938F930E94E4
:100CF0007A328DB79EB70E960FB6F8949EBF0FBE90
:100D00008DBF8091C8029091C902449761F41092FE
:100D1000C9021092C802EAECF2E080E2819392E00C
:100D2000EE3DF907D9F78091C8029091C902FC0104
:100D3000E653FD4FC08301969093C9028093C80289
:100D4000CF9108958FED92E008958AEC92E0089596
:100D50000C94CC06CF93C82F0E94D20A811101C0F7
:100D6000C2E08C2FCF9108950E94D20A882379F097
:100D70000E94090660E00E946E150E94A20660E0D3
:100D80000E946E150E94A50660E00C946E150E94EC
:100D9000550660E00C945215FB01228121110E943E
:100DA000580681E00895811108C089EA611101C0E7
:100DB0008AEA0E947A1D80E008958130E1F78EE48E
:100DC0006111F7CF8BE4F5CF81E0089508950C947D
:100DD000E6061F93CF93DF9300D000D00F92CDB7DC
:100DE000DEB749835A836B833091090489819A81E4
:100DF00031111DC06623B9F02223A9F00E9462249C
:100E0000182F682F89819A810E940B2469817A8129
:100E1000812F0F900F900F900F900F90DF91CF9137
:100E20001F910C949B070E943924182FEFCF0E942A
:100E3000622469817A81EDCFFC01262F40815181A6
:100E40006281738184810C94E906CF93DF93EC0176
:100E500060E00E941C07BE01DF91CF910C94E70671
:100E60000E949925811102C00E9436260C948409A3
:100E70000C94870908950C943A0781E008950C9426
:100E80003D07CF93C82F0E943B078C2FCF910C9426
:100E90003F0708950E94FC1F0E9449072FEF84E33B
:100EA0009CE0215080409040E1F700C000000C948D
:100EB000C8270F931F93CF93DF93EC0161E00E944B
:100EC0001C078C01BE010E94A806882359F1BE01AF
:100ED000C8010E945117882329F1BE01C8010E9450
:100EE000A3178823F9F0BE01C8010E94C618882301
:100EF000C9F0BE01C8010E944612882399F08A8178
:100F0000882339F001158CE5180751F00E3D1C457A
:100F100079F0CE01DF91CF911F910F910C94E406EF
:100F20000E944A0780E0DF91CF911F910F910895B1
:100F30000E943626F7CF972F70E026E0929F600D33
:100F4000711D1124FB019CE3899FE00DF11D11240B
:100F5000EE0FFF1FE455FF4F859194910895CF93B5
:100F6000DF930E949B070E94A908EC01811521E5EF
:100F7000920708F042C0811530E5930708F09DC044
:100F8000883E910530F5803E910508F092C0883A80
:100F9000910588F4853A910508F084C08130910567
:100FA00009F487C0009709F484C0049708F081C051
:100FB000D0E0C0E07EC08F3B9105D0F7C85AD0E0AA
:100FC000CC0FDD1FCD5EDD4F0990D881C02DD464DC
:100FD00070C08115904250F4C11581E0D80708F027
:100FE00068C0C03FD10520F3D06563C0C11590E44F
:100FF000D907F0F2DF70D06A5CC0811525E5920751
:1010000000F5811534E5930708F08BC0811543E5A1
:10101000940708F073C0C11582E5D80708F469C0C9
:10102000CE018370992721E030E002C0220F331FE8
:101030008A95E2F7C695C69580E2C89FE001112423
:1010400054C0C11599E5D907A8F4C11528E5D20700
:1010500008F06CC0C11536E5D30708F0A9CF8C2F76
:101060000E944009C82FD0E0DC2FCC27CC27DF71AD
:10107000D0621FC0C1154AE5D40708F45CC0CE0198
:1010800090568115904208F093CF8D2F8F710E945A
:10109000400990E0982F882788279F719C012C2B6E
:1010A000E901E6CFC55AD0E0CF5BDD4FC881D0E083
:1010B000D064CE01DF91CF910895E4E096958795B5
:1010C000EA95E1F783702C2F26952695237040E250
:1010D000249F90011124382B8C2F8370C1E0D0E025
:1010E00002C0CC0FDD1F8A95E2F7C22BD32BDC6840
:1010F000E0CFDC2FCC27C16FD06ADBCF837099277C
:1011000021E030E002C0220F331F8A95E2F7C69536
:10111000C69590E2C99FE0011124C22BD32BDA6857
:10112000C8CFD82FCC27C46FD06AC3CFDC2FCC2731
:10113000C06FD06ABECF8C2F8F700E94400934E000
:10114000D695C7953A95E1F7CF709C2FEC01D06901
:10115000B0CF82389105B1F1B0F48133910509F433
:1011600075C048F48932910509F469C08A32910545
:1011700009F473C008958533910509F459C0893382
:10118000910501F10895833E9105A9F138F4803E5F
:101190009105F9F0823E910549F10895863E910549
:1011A000A9F1873E9105C9F1843E910519F5209179
:1011B0006F0721FF1FC080916E0784FD14C087EE6A
:1011C00090E0089520916E072370A1F080EE90E0EA
:1011D000089520916E0720FD47C030916F0730FFC2
:1011E00009C024FF44C090E080E004C020916E0755
:1011F00022FDF7CF089520916E0722FD3BC030916C
:101200006F0730FDE3CF24FFF5CFEDCF20916E07C0
:1012100023FFF0CF24FDE7CFD2CF20916E0723FD2F
:101220002CC030916F0731FFEECF84EE90E008952F
:1012300020916E0725FFDECF89E290E0089520918E
:101240006E0725FFD7CF85E390E0089520916E07C4
:1012500026FFD0CF8AE290E0089520916E0726FF06
:10126000C9CF81E390E0089589E390E0089583EE8B
:1012700090E0089582EE90E0089586EE90E0089563
:1012800090916E0792FF06C0282F28712830F9F43C
:10129000877F846093FF06C0282F28712831F1F4DE
:1012A000877E846120916F0720FF06C0382F387138
:1012B0003830D9F4877F816021FF06C0282F28713C
:1012C0002831D1F4877E816194FD877E0895282F8F
:1012D00024712430F9F68B7F8860DCCF282F2471AD
:1012E000243101F78B7E8861DDCF382F31713130A9
:1012F00019F78E7F8860E0CF282F2171213121F7E7
:101300008E7E8861E1CF08950C94830908950C9432
:101310008609E82FF0E0E651FB4F8081089508959B
:1013200080EA8A95F1F7089508950E94F00A809165
:1013300044018091440195E0811190E09093F5047F
:1013400085E0891B8093F404AAE4B2E061E070E0D8
:101350008D91E82FE295EF70F0E041A18F709B0135
:1013600001C0220F8A95EAF7922F9095942391A3BA
:1013700082A1822B82A382E0AF34B80749F7A4E4AC
:10138000B2E061E070E08D91E82FE295EF70F0E05F
:1013900041A18F709B0101C0220F8A95EAF7922F1D
:1013A0009095942391A382A1822B82A382E0AA34F8
:1013B000B80749F7E0EEF4E0AAEEB4E08AEE94E074
:1013C00011921D928E179F07D9F785E00E949B0A04
:1013D0000E9430070C94FA0A0E94D20A8823F9F07E
:1013E0008091F40490E086519B4F0E940D0B811177
:1013F00013C08091F7028F5F8093F702863050F020
:10140000E091F404F0E0E651FB4F10821182128269
:10141000138214820C9438071092F702FBCF80914C
:10142000F50490E086519B4F0E942C0B0C9494097C
:101430008F929F92AF92BF92CF92DF92EF92FF92E4
:101440000F931F93CF93DF938AE4A82E82E0B82EE8
:1014500000EE14E0912CCC24C394D12CF5018191A1
:101460005F01C82FC295CF70D0E099A18F7076012F
:1014700001C0EE0C8A95EAF7892F8E2989A38AA1EB
:101480008E2C809488218AA30E949009E4E4F2E0E3
:1014900050E040E020E03191A32FA295AF70B0E082
:1014A00090968C9190E03F7002C0959587953A9503
:1014B000E2F780FD3CC08C2D042E01C0880F0A94F9
:1014C000EAF7282B4F5F5F4F4630510521F789A17E
:1014D000882289A28AA1E82AEAA2F8018081281735
:1014E00041F1208381E0982A0F5F1F4FFFE4AF1680
:1014F000F2E0BF0609F0B2CF6091F50470E06651EA
:101500007B4F292D45E080EE94E00E949C0A0E94CA
:10151000EC09892DDF91CF911F910F91FF90EF90F2
:10152000DF90CF90BF90AF909F908F90089580E014
:10153000C8CF80E0D8CF0895FF920F931F93CF9329
:10154000DF93F82E092F162FD72FC42F222349F00F
:1015500081E08093FA020E947D279093F9028093A4
:10156000F8028091FA028823A1F08091F80290910C
:10157000F9020E949527069760F0EF2DF02FA12F1A
:10158000BD2FCE0FDF2FD11DEC17FD0741F41092B8
:10159000FA02DF91CF911F910F91FF9008958191F1
:1015A0008D93F2CF8091FB02811111C08091D80000
:1015B00080618093D8008AE18A95F1F700C090910C
:1015C000D900892F817090FF82E08093FB0281E037
:1015D0009091FB02913009F080E008950C94D20ABA
:1015E0000E94EE0A809344010E94D20A81110C9459
:1015F000010B08950E94D20A811102C00C94070BBE
:10160000089561E070E085E491E00C943C1A61E09B
:1016100070E085E491E00C94451ACF93DF93D82FC6
:10162000C92F90E080E00E941E1B009799F4ED2FD7
:10163000FC2FDC01A350BD4F2C91219301968530E6
:101640009105B9F782E093E00E94B11381E0DF9148
:10165000CF91089580E0FBCF30E020E0FC01419184
:10166000CF01F901E350FD4F40832F5F3F4F2530FD
:101670003105A1F782E093E00C94A813EF92FF925A
:101680000F931F93CF93DF93EB01E82FD11110C07D
:10169000442321F0F0E0EA55FC4FE4916E2F7E2FB9
:1016A0008E2FDF91CF911F910F91FF90EF900895B2
:1016B0000D2F10E0282F30E0442329F02A553C4F0D
:1016C000F901249130E0F6E0CF9FC0011124EFEF43
:1016D000F0E0BF010E947331AB018C2F90E0880FC6
:1016E000991FA5E5A49FB001A59F700D1124861B2D
:1016F000970B982F990F980FBF01601B710B629F7A
:10170000D001639FB00D729FB00D11248B2F9D9F50
:10171000B0011124672F7727EF01C61BD70BBE013D
:10172000629FE001639FD00D729FD00D11247F0155
:10173000E91AF108E09EB001E19E700DF09E700D77
:101740001124672F7727E61BF70BE29F8001E39FA9
:10175000100DF29F100D1124E12F722F4230510510
:1017600099F048F44115510569F04130510581F077
:10177000EB2F8D2F07C04430510569F080F04630C3
:101780005105B1F76E2F8DCFE22F7B2F812FFACF2E
:10179000E22F7D2FF7CFEB2F822F712FF3CF7B2FEF
:1017A000822FED2FEFCF41E00C943E0B0895CF93A5
:1017B000DF93762FE901682F842F0E94D30B798362
:1017C00068838A83DF91CF910895493708F048E70D
:1017D0000C94D70B8091F604982F9E7F61F4817052
:1017E00082608093F6048091F904893718F088E7C5
:1017F0008093F90408958635B0F381708465F1CF44
:1018000088E090E00C942135CF92DF92EF92FF9226
:101810006B017C010E94EA0BB701A60188E090E011
:10182000FF90EF90DF90CF900C943F35E6EFF4E01F
:1018300083E0808311828FEF828388E78383148221
:1018400060817181828193810C94040C8091F604F3
:1018500080FF02C08695089580E008959091FA0473
:10186000933018F49F5F9093FA04882351F06091AD
:10187000F6047091F7048091F8049091F9040C94A7
:10188000040C089581E00C942E0C9091FA04992395
:1018900019F091509093FA04882351F06091F60466
:1018A0007091F7048091F8049091F9040C94040C61
:1018B000089581E00C94450C70E00C94B512609191
:1018C00051018091F60480FF0AC08091500123E00D
:1018D000829FC001112485509B4F0C945C0C809119
:1018E00052019091530123E0829FF0011124E550B1
:1018F000FB4F891750F71182108212828F5F339647
:10190000F8CF9091F60490FF14C09091520120916D
:10191000530133E0939FF0011124E550FB4F9217E0
:1019200010F00C945F0C8183608342839F5F339639
:10193000F6CF0895CF93DF9300D00F92CDB7DEB7E7
:101940009091F60490FF0AC09E012F5F3F4F0E94C6
:10195000E50B4B8169818A810E94810C0F900F9069
:101960000F90DF91CF910895CF93DF93EC01EC813D
:10197000F0E0EF55FD4F4491E6EFF4E062818181A4
:101980000E949A0C8C818F5F8C83DF91CF91089598
:10199000CF93DF93EC01E6EFF4E0438162818C8129
:1019A0000E949A0C8C818F5F8C83DF91CF91089578
:1019B0000F931F93CF93DF9300D00F92CDB7DEB775
:1019C0008C018091030381110AC09E012F5F3F4F5C
:1019D00048E76FEF0E94E50B8A8180930303F801CB
:1019E0006481613069F08091030340E0662361F017
:1019F00040E0623011F44091030380E060E004C0F5
:101A00006091030340E080E00E94810CF801848132
:101A100090E0019663E070E00E94873184830F902C
:101A20000F900F90DF91CF911F910F910895AF927A
:101A3000BF92CF92DF92EF92FF920F931F93CF93BB
:101A4000DF9300D00F92CDB7DEB7182FF62E042FFC
:101A5000E22E9091F60490FF29C0E92FE695AE2F73
:101A6000B0E0AC5ABD4F8C918093BC039E7F923006
:101A700059F59E012F5F3F4F812F0E94E50B4B814F
:101A800069818A810E94810C1093F704F092F80416
:101A90000093F904EE2051F06091F6047091F70480
:101AA0008091F8049091F9040E94040C0F900F901B
:101AB0000F90DF91CF911F910F91FF90EF90DF90EA
:101AC000CF90BF90AF900895823019F40091F9043F
:101AD000DBCF863019F41091F704D6CF8930D9F3D3
:101AE000893191F6E9518E2F8170D82EE695F0E07C
:101AF000EF55FC4FA590B490C12CBB2460915401CC
:101B0000C61618F00E945F0CBFCF2C2D30E0A29EAD
:101B1000C001A39E900DB29E900D112470E00E9412
:101B20007331812FD11013C0860F40915201420FA3
:101B3000532F511D9A01220F331F240F351F25509B
:101B40003B4F402F6F2D0E94E50BC394D7CF861BD0
:101B5000ECCFE6EFF4E09181282F438162818AE0A7
:101B6000890F0C94170D81E00C94A90DE6EFF4E0B9
:101B70009181282F4381628186EF890F0C94170D84
:101B800081E00C94B60DE6EFF4E0628121E1620F92
:101B900008F46FEF282F438181810C94170D81E0A9
:101BA0000C94C30DE6EFF4E0628121E1621B08F4BE
:101BB00060E0282F438181810C94170D81E00C9403
:101BC000D20DE6EFF4E0438121E1420F08F44FEF3C
:101BD000282F628181810C94170D81E00C94E10D16
:101BE000E6EFF4E0438121E1421B08F440E0282FB6
:101BF000628181810C94170D81E00C94F00D20E03E
:101C00000C94170DEF92FF921F93CF93DF93EC018B
:101C100010E0EE24EA94F12C60915401161770F054
:101C20000E945F0C9A818C8190FF27C08F5F8C830C
:101C3000DF91CF911F91FF90EF9008952091520175
:101C4000422F410F5527551FCA019A01220F331FFA
:101C5000280F391F25503B4F70E0C7010E94873184
:101C6000962F8C814091F9046091F804199F800DA2
:101C700011240E94E50B1F5FCFCF8150D8CFAF92C8
:101C8000BF92CF92DF92EF92FF920F931F93CF9369
:101C9000DF93FC0182810FEF80FF01E010E043E25F
:101CA000A42E809154011817C8F00E945F0C8091F7
:101CB0000503013009F055C0811102C08091540123
:101CC000815080930503DF91CF911F910F91FF9079
:101CD000EF90DF90CF90BF90AF900895C0915201E8
:101CE000C12ED12CCC0DDD2DD11DCE01880F991F19
:101CF000C80FD91FC550DB4F198218821A8234E0F1
:101D0000E32EF12CB12C809105038B0D84321CF154
:101D10006A2D0E946531892F082E000C990BC81678
:101D2000D90691F48091F9048E9DA0018F9D500DEC
:101D3000112455954795559547959E016091F80456
:101D40008091F7040E94E50BB00EF1E0EF1AF10864
:101D5000D1F61F5FA6CF87FFDFCF90915401890F87
:101D6000DBCF90E001966091540170E00E948731D2
:101D7000A8CF0F931F93CF93DF938091520190913F
:101D8000530123E0829FF0011124E550FB4F891796
:101D900040F1C0E0D3E060915401C61740F10E94C9
:101DA0005F0C20914E0180910403820F8093040305
:101DB00090914F01920F90934F01191654F4082EF1
:101DC000000C990B409154014150550B8417950715
:101DD0001CF0219520934E01DF91CF911F910F911F
:101DE00008951182108212828F5F3396D0CF0C2F0C
:101DF00010E070E0C8010E94873120915201820FEB
:101E0000482F50E020910403022E000C330B0217E0
:101E10001307BCF020914F01022E000C330B20174A
:101E200031077CF08D9F9001112425503B4F40914C
:101E3000F9046091F8048091F7040E94E50BCF5FEC
:101E4000AACFFA01EE0FFF1FE40FF51FE550FB4F7D
:101E5000118210821282F3CF8F929F92AF92BF9223
:101E6000CF92DF92EF92FF920F931F93CF93DF9366
:101E7000EC014C81042F10E09801D8010E94CB3175
:101E80009B01AC010E94E1314B015C01E0E2F0E01A
:101E9000E01BF10BA5E5B0E0AC019B010E94E13134
:101EA0006B017C019F01DF010E94C3319B01AC01EA
:101EB0000E94EC319B01AC01280D391D4A1D5B1DB0
:101EC000C701B6010E949B31F22E822F90E039E2C9
:101ED0003F1560F143E0249F90011124359527952B
:101EE000122F109500E085E5E82EEF18809154013F
:101EF000081758F10E945F0C9C8181E0992319F02A
:101F0000903219F48FEF80934D0180914D01890F2C
:101F10008C83DF91CF911F910F91FF90EF90DF9015
:101F2000CF90BF90AF909F908F90089525E530E0BF
:101F3000B901681B790B9B01220F331F260F371F36
:101F400037FFCCCF2F5F3F4FC9CF8E2D01FD8F2D97
:101F500020915201622F600F7727771F9B01220F7C
:101F6000331F260F371F25503B4F412F6091F80438
:101F70000E94E50B0F5FBACF0F931F93CF93DF93B0
:101F8000EC0110E000E0909154019017110609F067
:101F90006CF40E945F0C8C8190E00196817099270F
:101FA0008C83DF91CF911F910F9108952091520161
:101FB000A801420F511D9A01220F331F240F351F14
:101FC00025503B4F4C816091F8048091F704969521
:101FD0009017110651F04CF0442349F04091F90458
:101FE0000E94E50B0F5F1F4FCECF4423B9F340E0B3
:101FF000F7CF8F929F92AF92BF92CF92DF92EF92E4
:10200000FF920F931F93CF93DF93FC01B2809480D4
:1020100081E0848300E015E05BE4A52E88248394AE
:10202000EE24EA94F12C7BE4C72ED12C809154014C
:10203000081770F0DF91CF911F910F91FF90EF90F3
:10204000DF90CF90BF90AF909F908F900C945F0CDB
:10205000C02FD0E01C9FF0011D9FF00D1124EA5FFE
:10206000FC4F91101CC01382128220915201CE01AC
:10207000820F911D9C01220F331F280F391F2550FD
:102080003B4F1C9FF0011D9FF00D1124EA5FFC4F98
:102090004281618180810E94E50B0F5FC7CF238160
:1020A000222379F12150238334818A2D821B31111F
:1020B00001C0822F1C9FF0011D9FF00D1124EA5FCB
:1020C000FC4F9091F904899FC0011124B6010E9430
:1020D00073316283211104C0332311F01482A3826F
:1020E00022E02B1510F21C9FF0011D9FF00D112412
:1020F000EA5FFC4F8091F70480838091F80481832C
:10210000B4CF0E944032823091400CF0AECF82E0DA
:102110008B1530F50E944032B7010E9487311C9F19
:10212000F0011D9FF00D1124EA5FFC4F808322E037
:102130002B15C8F40E9440322091F8042695622F96
:1021400070E00E948731280F1C9FF0011D9FF00D49
:102150001124EA5FFC4F21831282A382848285CFFF
:102160008091F704DCCF2091F804EECFE6EFF4E0A5
:1021700080818E7F808360817181828193810E94C2
:10218000040C1092BD032FEF80E792E021508040B5
:102190009040E1F700C000000C945F0C6091F604E1
:1021A000669570E04BE050E085E591E00E94593281
:1021B000892B19F481E08093BD030E947D279093C1
:1021C000B6038093B50308959091F60490FF35C04F
:1021D0009170811128C092609093F604662351F0AB
:1021E0006091F6047091F7048091F8049091F904DD
:1021F0000E94040C6091F604669570E04BE050E09C
:1022000085E591E00E945932892BA1F01092BD031F
:1022100081E08093B8034091F9046091F8048091C3
:10222000F7040C94FF0D8B3210F09465D5CF880F16
:10223000982BD2CF0E94CE10EBCF0895682F9091AB
:10224000F604969581E0890F8B3208F081E00C94BA
:10225000E41081E00C941E11682F9091F60496957D
:102260008FEF890F09F48AE20C94E41081E00C945A
:102270002C1161E00C94E410E6EFF4E080818160C1
:10228000808386950C9439118091F60480FD0C941E
:10229000B6100C943C1160E00C94E4108091BB03E8
:1022A00081112EC00E949925811104C00E943626FA
:1022B0000E94160C0E94000C6093F6047093F704C1
:1022C0008093F8049093F9046E7F61F40E94160CD9
:1022D0000E94000C6093F6047093F7048093F80456
:1022E0009093F9040E94EA0B1092BD038091F604CA
:1022F00080FF03C086950E944B1181E08093BB0351
:1023000008950F931F93CF93DF938091BD0388238C
:1023100009F49DC08091BC03E091F604E695E81BAA
:10232000E093B7038230C9F5F0E0E356FD4FE49146
:10233000CE2FD0E004EB1CE08091B803882389F015
:102340001092B8030E947D279E0120953095820F40
:10235000931F9093B6038093B5031092BA03109223
:10236000B9038091B5039091B6030E9495278C170D
:102370009D0708F46CC0E091B503F091B603CE0F51
:10238000DF1FD093B603C093B50385EB93E0F8014C
:10239000DF91CF911F910F910994863049F4F0E0BD
:1023A000E656FD4FE491CE2FD0E008EC1CE0C4CF00
:1023B000893051F4E695F0E0E956FD4FE491CE2FD7
:1023C000D0E002E01EE0B8CF8F3051F4E695F0E0A7
:1023D000EC56FD4FE491CE2FD0E00FE31EE0ACCFE2
:1023E000853149F4F0E0EF56FD4FE491CE2FD0E077
:1023F00009EB1EE0A1CFC8E2D0E00CE21FE088317B
:1024000009F49ACF833239F4EFE8F2E0C591D49120
:1024100008ED1CE091CFC4EFD1E00CEB1FE084325B
:1024200009F48ACFC0EDD7E006ED1BE0853209F054
:1024300083CF8E2F63E00E945931E92FF0E0E457FB
:10244000FD4FE491CE2FD0E009EF1FE075CFDF9173
:10245000CF911F910F910895FA01811101C0FB01E5
:102460000994CF93DF93C82FD62F0E94260C8C1788
:1024700040F00E94260C8D1720F4DF91CF910C9430
:1024800029118C2FDF91CF910C9439111F93CF9389
:10249000DF93EC01FB011281111110C00E94F7249F
:1024A0008272FE01E25CFC45E431F10508F05BC09C
:1024B000E754FA4C0C94BD310E944411812FDF91F6
:1024C000CF911F91089546E351E169E271E10E94C5
:1024D0002C12F4CF49E251E166E371E1F8CF40EC10
:1024E0005DE063EB7DE0F3CF43EB5DE060EC7DE02E
:1024F000EECF4EED5DE06FEC7DE0E9CF4FEC5DE0BF
:102500006EED7DE0E4CF4CEF5DE06DEE7DE0DFCF82
:102510004DEE5DE06CEF7DE0DACF49E55CE062E432
:102520007CE0D5CF42E45CE069E57CE0D0CF81E09F
:102530000E943911C3CF65E082E00E943112BECF04
:1025400068E086E0FACF6EE089E0F7CF64E18FE0E3
:10255000F4CF67E185E1F1CF88E1EACF62E289E17A
:10256000ECCF83E2E5CF11E0A9CF539A4BB1477F7F
:102570005BB15860EFB7F8949B01220F331F260F11
:10258000371F280F391F2817390741F4EFBF8FE590
:1025900094E00197F1F700C000000895DC016D910F
:1025A000CD0178E05BB9000000C067FF4BB9660F52
:1025B000000000C000C000C04BB900C07A9591F780
:1025C000E2CF0C94D30680914401811106C084EFC0
:1025D0008093610185EF8093600120916101A22FBA
:1025E000A295AF70B0E091963C9191972F7081E0E9
:1025F00090E0BC01022E01C0660F0A94EAF7462F54
:102600004095432391964C93919792963C91929743
:10261000362B92963C93929740916001E42FE2957D
:10262000EF70F0E031A14F70042E01C0880F0A94C2
:10263000EAF7982F9095932391A392A1892B82A3D7
:1026400090968C9190E002C0959587952A95E2F737
:10265000817020A130E002C0359527954A95E2F7B8
:1026600092E020FF90E0892B8093C3039091440176
:1026700081E098279093BF03891B8093BE03089540
:10268000CF93E091C303EE0FEE0F20916101A22FD3
:10269000A295AF70B0E090968C9190E02F7002C040
:1026A000959587952A95E2F7817099274091600169
:1026B000A42FA295AF70B0E090962C9130E04F70AF
:1026C00002C0359527954A95E2F7A9014170552733
:1026D00020FF02C042E050E0842BE82BE093C303CC
:1026E000C091BF03EF70F0E0E158FD4F8081909101
:1026F000C203890F8093C20384306CF0EC2F0C2E40
:10270000000CFF0BE054FC4F80818F5F808360E002
:102710008C2F0E94E1128091C2038D3F6CF4EC2F4C
:102720000C2E000CFF0BE054FC4F80818150808305
:1027300061E08C2F0E94E1128091C203837887FFB1
:1027400003C081508C6F8F5F8093C203CF91089537
:10275000E091BF03F0E0E054FC4F2081FC012083B6
:102760000895FF920F931F93CF93DF93D091BE03F1
:102770000D2F10E000541C4FFC01C081F801808136
:10278000C81BFC2E1F1464F08C2FC7FD80E0C81BF3
:10279000C11110C0DF91CF911F910F91FF9008954B
:1027A000FA94F80180818F5F808360E08D2F0E9412
:1027B000E112E8CFCF5FF80180818150808361E032
:1027C0008D2F0E94E112E4CFCF92DF92EF92FF9221
:1027D0000F931F93CF93DF936C017B0164E670E04E
:1027E00088E70E94F618EC0197FD12C010E000E0A7
:1027F000F601E00FF11F849164E670E00E94521927
:10280000EC01892B29F40F5F1F4F0E151F0581F76F
:102810000E94D519CE01DF91CF911F910F91FF90AA
:10282000EF90DF90CF900895E4E6F5E080E092E04D
:10283000DF019C011D9221503040E1F7F0936907C0
:10284000E09368078FEF9FEF9093F0038093EF037F
:1028500008950E94AA068093EB0380FD0FC080E8D4
:102860008093EA030E94F0186DE070E08DEB94E035
:102870000E94E413892B21F080E0089580E2F0CFDC
:102880008091EB0363E070E081FD26C08AEB94E069
:102890000E94E413892B81F76DE070E08AEA94E0EE
:1028A0000E94E413892B41F70E948927605A7541E1
:1028B0008F4F9F4F609364077093650780936607FF
:1028C000909367070E94141481E08093EE03809335
:1028D000ED031092EC03089587EB94E0D9CF20919B
:1028E000EA0336E0839FC0011124629F800D911D91
:1028F0001124811522E0920714F090E080E08C59B9
:102900009A4F90936907809368070895209168070C
:10291000309169072E5535404091EA03642F70E0ED
:10292000C9010E947331481B463010F4240F311D39
:10293000211582E0380710F030E020E02C593A4FA2
:10294000309369072093680708951F93CF93DF930F
:10295000162F8A3031F481E0DF91CF911F910C94D2
:102960001F158D3011F480E0F7CFC0916807D0912A
:10297000690796E0FE01A4ECB3E001900D929A95F0
:10298000E1F7803EC8F086E0FE0111928A95E9F7F2
:1029900011111EC0C0916807D091690746E050E050
:1029A000BE0184EC93E00E946632892BF9F4DF913A
:1029B000CF911F910C948614F6E08F9FB0011124E3
:1029C00066537B4F46E050E0CE010E945032E0CF8C
:1029D000E0916807F09169079F012A5F3F4F2E172A
:1029E0003F07C1F2808180958193F9CFC456D540CD
:1029F000CE0125E0969587952A95E1F721E030E014
:102A0000A90102C0440F551F8A95E2F7CA014091FF
:102A1000EF035091F003842B952B269645E0D69535
:102A2000C7954A95E1F702C0220F331FCA95E2F716
:102A3000822B932B9093F0038093EF03B8CFCF9327
:102A4000382FE0916807F0916907E456F54020912E
:102A5000EA03622F70E0CF010E947331281B822F9E
:102A6000332369F066E00E945931C82FC15010F439
:102A7000CF91089560E080E20E94A514F7CF9F01F6
:102A8000280F311D2115324018F080E0F0E0E0E021
:102A90008E0F9F2F911D8C599A4F909369078093A9
:102AA0006807E6CFFF920F931F93CF93DF93EC015C
:102AB000F62EFC0101900020E9F78F010150110969
:102AC000C017D10730F0DF91CF911F910F91FF9088
:102AD00008956F2D89910E94A514F2CF0E9452157E
:102AE00081E00C941F150E948927605A75418F4F11
:102AF0009F4F609364077093650780936607909378
:102B000067078091ED03811108C062E070E088EAF8
:102B100094E00E94E413892B19F08091ED0308954D
:102B200081E08093ED03F9CF2F923F925F926F92F5
:102B30007F928F929F92AF92BF92CF92DF92EF924D
:102B4000FF920F931F93CF93DF932091EF03309168
:102B5000F0032115310531F08091EC0361E070E064
:102B6000882399F0DF91CF911F910F91FF90EF9003
:102B7000DF90CF90BF90AF909F908F907F906F909D
:102B80005F903F902F9008958F5F082F10E01B01FA
:102B9000082E02C0220C331C0A94E2F7A101422342
:102BA0005323452B89F39091EB0390FD44C082950C
:102BB000880F807680936401980136952795369525
:102BC000279520936701815E8093650110926801CB
:102BD00024E630E047E050E062E671E088E70E94DA
:102BE0008119892B09F0BECFA80125E0440F551F9C
:102BF0002A95E1F78091EB0380FD2BC04C595A4F89
:102C000004E610E020E230E060E488E70E94A819C2
:102C1000892B09F0A7CF0E947315E101C095D095CB
:102C20008091EF039091F003C823D923D093F00350
:102C3000C093EF0397CF880F880F880F80936401AC
:102C400010926701895F8093650183E0809368013A
:102C5000BFCFEAECF3E080E2DF011D928A95E9F74D
:102C6000A3E9B2E00FE812E087E9C82E82E0D82E8F
:102C700097E0592E772473948D91E80129918E0164
:102C8000240F352F311D2C593A4FE82FF0E0E65331
:102C9000FC4F90E080E0652C681A872C082E01C05C
:102CA000880C0A94EAF77901A12CE701B9907E011A
:102CB000B820662D6A196770962E062E000C770BC9
:102CC000DB2D01C0DD0F9A94EAF7719561957109CA
:102CD0006770772701C0B6946A95EAF7BD2A6081CC
:102CE000962E9B289082A39468E0A612DECF0196D0
:102CF00031968830910579F6CA16DB0609F0BCCF0B
:102D000004E610E020E230E04AEC53E07DCF809111
:102D1000ED03882369F062E070E086EA94E00E94A7
:102D2000E413892B19F08091ED0308951092ED03BF
:102D30008091ED0391E0892708950F931F9380916F
:102D4000EE03882301F160E080E00E946F140E948E
:102D5000B4060E9494158091ED038823A1F00E948F
:102D600089270091640710916507209166073091CB
:102D70006707601B710B820B930B97FD04C01F91BB
:102D80000F910C9487161F910F910895AF92BF92E7
:102D9000CF92DF92EF92FF920F931F93CF93DF9327
:102DA0007C015B01C42FD22FFC0182818823F9F0C2
:102DB0004093F3030E947D279093F2038093F103E5
:102DC00080E28C0F883008F061C0C77081E001C0DC
:102DD000880FCA95EAF7DF91CF911F910F91FF906D
:102DE000EF90DF90CF90BF90AF900C948D1D10911D
:102DF000F303141340C08091F1039091F2030E94F9
:102E000095276C01B701C5010E946022C816D9063A
:102E100090F5C0E2CD0F1D17B9F080E2810F883028
:102E200040F4177081E001C0880F1A95EAF70E94FC
:102E3000941DC83048F481E09D2F977001C0880F21
:102E40009A95EAF70E948D1D802F0E947A1DC83046
:102E5000E8F4D77081E001C0880FDA95EAF7DF91D6
:102E6000CF911F910F91FF90EF90DF90CF90BF9087
:102E7000AF900C94941D80E28C0F883038F4C770AA
:102E800081E001C0880FCA95EAF7E9CFDF91CF91C1
:102E90001F910F91FF90EF90DF90CF90BF90AF9078
:102EA00008950F939C01CB01233F4CE5340759F162
:102EB000A8F4283DFCE53F0701F1293D4CE5340726
:102EC000D1F1273D3C4591F406E221EE41EE67ED5C
:102ED0007CE50E94C61680E00F910895253FFCE531
:102EE0003F07E9F0B0F0263F3C45F9F0FC01828154
:102EF000882339F11092F303EFCF07E225EE45EE78
:102F000068ED7CE5E6CF06E221EE40EE63EF7CE57E
:102F1000E0CF07E225EE44EE64EF7CE5DACF06E28F
:102F200021EE42EE65EF7CE5D4CF07E225EE46EEDA
:102F300066EF7CE5CECF08E221E045EE69ED7CE569
:102F4000C8CF81E0C9CFCF93DF93EC01FB01828131
:102F5000882309F419C1C230FCE5DF07C0F1C6318E
:102F60009CE5D90730F09E012A5F3C4529303105A8
:102F700070F50E94AC2590936F0780936E07C03167
:102F8000ECE5DE0709F4CFC008F05BC0C8308CE583
:102F9000D80709F4B6C088F5C430ECE5DE0709F4BB
:102FA000A8C0C0F4C2308CE5D80709F49CC0809159
:102FB0006E078260C330DC4509F498C080916E07CB
:102FC00090916F070E94BA250E94FC1F80E0DF915C
:102FD000CF91089580916E078061C630ECE5DE07E1
:102FE00009F484C080916E078860C730DC4508F41E
:102FF0007DC080916E07806279C0CC308CE5D807A7
:1030000009F489C070F480916E078C60CA30ECE5D9
:10301000DE0709F46BC008F478C080916E078E7FDC
:1030200065C0CE308CE5D80709F479C080916E0771
:103030008B7FCF30DC4508F459C080916E078F7EBE
:1030400055C0CB3FECE5DE0709F457C030F5C3317E
:103050008CE5D80709F46FC078F4C131ECE5DE07E0
:1030600009F465C0C231DC4509F0A8CF0E94FC1FFD
:1030700080916E078F773AC0C5318CE5D80709F487
:1030800062C008F476C080916F078160CA3FDC455A
:1030900009F094CF80936F0791CFCF3FFCE5DF0716
:1030A00009F44DC088F480916F078D7FCD3F9CE57A
:1030B000D90781F380916F078E7FCE3FDC4550F3B7
:1030C00080916F078360E6CFC130FDE5DF0709F42B
:1030D00059C008F444C080E0C230DD4509F06ECF2D
:1030E0000E9438266BCF80916E07816080936E07B7
:1030F00065CF80916E078460F9CF80916F07826001
:10310000C9CF80916E078064F1CF0E94FC1F80912F
:103110006E078068EBCF80916E078D7FE7CF80913F
:103120006E07877FE3CF80916E078F7DDFCF809121
:103130006E078F7BDBCF80916E07837FD7CF809127
:103140006F078C7FA7CF80916E0782FB992790F93C
:1031500021E0922790FB82F990FB83F9C7CF809101
:103160006F07982F909591708E7F892B90FB81F936
:1031700091CF0E94FC1F90916E07892F97FB87F9D2
:103180008058B4CF81E0ACCF81E021CFCF93DF93E3
:10319000EB0186319C4511F50E94F7249A81992311
:1031A00099F08A7A91E009F490E09093F403811108
:1031B00009C089E20E94D2240E94362580E0DF9176
:1031C000CF91089585E3F6CF8091F403811104C077
:1031D00089E20E94D924F0CF85E3FBCF81E0EFCFD5
:1031E0001092B9008CE08093B8000895EF92FF929E
:1031F0000F931F93CF93DF93182FEB011092BC0016
:1032000084EA8093BC000E947D277C018091BC00F1
:1032100087FF27C08091B900887F883029F080918E
:10322000B900887F8031D9F51093BB0084E8809382
:10323000BC000E947D278C018091BC0087FF24C0C8
:103240002091B900287F90E080E02831B1F081E042
:1032500090E0203411F490E080E0919581959109FF
:103260000CC0CF3FDC0791F20E947D278E199F0989
:103270008C179D0758F28EEF9FEFDF91CF911F9132
:103280000F91FF90EF900895CF3FDC07A9F20E94C5
:103290007D27801B910B8C179D0770F2ECCF8FEF71
:1032A0009FEFEBCF0F931F93CF93DF93EB018093AF
:1032B000BB0084E88093BC000E947D278C01809134
:1032C000BC0087FF11C02091B900287F81E090E009
:1032D000283211F490E080E0919581959109DF9179
:1032E000CF911F910F910895CF3FDC0741F30E94CA
:1032F0007D27801B910B8C179D0708F38EEF9FEFA6
:10330000EECFCF92DF92EF92FF920F931F93CF9366
:10331000DF936B018A017901B9010E94F618E60179
:103320000C0D1D1DC017D10761F424E92093BC00CA
:10333000DF91CF911F910F91FF90EF90DF90CF9091
:10334000089597FDF2CFB70189910E945219EACFF3
:10335000CF92DF92EF92FF920F931F93CF93DF9361
:10336000C62F6A017901B8010E94F61897FD0CC0BA
:10337000B8018C2F0E945219E601EC0CFD1CCE15F1
:10338000DF0511F097FF0CC024E92093BC00DF910A
:10339000CF911F910F91FF90EF90DF90CF90089504
:1033A000B80189910E945219EACF84E98093BC0048
:1033B00008958EE14A9B02C08150E1F74A9BFECFFF
:1033C00008955A9880E28A95F1F75A9A0895FC0177
:1033D0003BE03A95F1F720E090E080E031E040E119
:1033E0004A95F1F7880F4A9B02C08160232742E08B
:1033F0004A95F1F7000040E14A95F1F79F5F6913A4
:10340000EECF90E19A95F1F799B132E03A95F1F764
:10341000000040E14A95F1F792FB992790F9922735
:103420002081920F90830895EF92FF920F931F9344
:10343000CF93DF930F92CDB7DEB719828C017C0159
:10344000E60EF11C0E151F0561F481E099819111C2
:1034500080E00F90DF91CF911F910F91FF90EF903F
:1034600008950E94D91968E0CE0101960E94E719DB
:10347000F80181938F01E6CF9093F7038093F603D1
:103480006093F503529A5A9A08959093F7038093A4
:10349000F6036093F50352985A9AEA9AE9E6F0E047
:1034A00080818F7C808308956150770B91E001C00B
:1034B000990F6A95EAF720E031E0911108C02223C4
:1034C00091F05A9A80E28A95F1F75A980895492F17
:1034D000482339F05A9A232740E24A95F1F7969506
:1034E000ECCF5A98F9CF5A98EDCFFF920F931F93D4
:1034F000CF93DF93EC018C01060F111DC017D1078C
:1035000031F4DF91CF911F910F91FF900895F990C1
:103510000E94E11968E08F2D0E94541AEFCF1F928C
:103520000F920FB60F9211240F931F932F933F9377
:103530004F935F936F937F938F939F93AF93BF93BB
:10354000EF93FF93CF93DF930F92CDB7DEB719823E
:103550000E94D91967E0CE0101960E94E719082F51
:10356000069506950695982F92959570202F2570B3
:10357000920F292F2370969596958770920F891335
:1035800044C08981811141C08091F5038017E8F121
:1035900020E12A95F1F75A9A529A82E08A95F1F73A
:1035A00000C0A8E00A9FC00111240091F603109109
:1035B000F703080F191F5A98F8016581662321F057
:1035C000868197810E94751A0E94E119F0E1FA95AF
:1035D000F1F75A9852985A9A20E12A95F1F7D801B2
:1035E00012966C911297662331F113968D919C91EE
:1035F0000E94141AD801ED91FC91882311F088E003
:1036000001C082E080830E94D9190F90DF91CF9191
:10361000FF91EF91BF91AF919F918F917F916F91AA
:103620005F914F913F912F911F910F910F900FBE7E
:103630000F901F901895ED91FC91E1CF0F931F9380
:10364000CF93DF932091F503281719060CF471C06E
:103650008C0193E0000F111F9A95E1F7C091F603DA
:10366000D091F703C00FD11FF894529A5A9825E0D1
:103670002A95F1F70000982F969595708570980F10
:10368000892F837096959695980F092B0E94E119C2
:1036900000C067E0802F0E94541A80E18A95F1F7FC
:1036A00052985A9A4A9B17C087E090E04A9915C0F1
:1036B0006D81662321F18E819F810E94141A8111F0
:1036C0001EC0529A5A9AE881F98182E080837894E8
:1036D00082E090E00DC000C0E5CF019771F4529AEE
:1036E0005A9AE881F98181E08083789481E090E0C2
:1036F000DF91CF911F910F91089500C0D7CF0E9405
:10370000D91920E22A95F1F75A98529A80E18A95C0
:10371000F1F76A81662321F08B819C810E94751AE2
:103720000E94E119E881F9811082789490E080E0AC
:10373000DFCF84E090E0DCCF9093FD038093FC0327
:103740000895E091FC03F091FD03309721F0019082
:10375000F081E02D099480E00895E091FC03F09160
:10376000FD03309799F020917D01222359F020919B
:103770006E0727FF07C0DC012C9111962C9311973F
:1037800025E02C930280F381E02D09940895E091C7
:10379000FC03F091FD03309739F022E0DC012C931B
:1037A0000480F581E02D099408952091FA03309169
:1037B000FB032817390771F09093FB038093FA03FA
:1037C000E091FC03F091FD03309721F00680F78132
:1037D000E02D099408952091F8033091F9032817FA
:1037E000390771F09093F9038093F803E091FC039B
:1037F000F091FD03309721F00084F185E02D0994CC
:10380000089585B7806885BF85B7806885BF0895AE
:10381000089508950C94081C08950C940C1C0E94A3
:10382000011C0E94091C0C940A1C0C94D20A0E94D0
:1038300074270E94950980E00E9429140E94D927CC
:103840000E944E110E94E3120C940D1C9F92AF92A5
:10385000BF92CF92DF92EF92FF920F931F93CF937D
:10386000DF93CDB7DEB72A970FB6F894DEBF0FBE51
:10387000CDBF0E94180AC82E0E94151C882309F487
:103880006AC08FEFA82E83E0B82E10E000E0902EE3
:10389000802F0E948909E82EF501D1905F01D8168A
:1038A00009F453C08091970481FD0E948F0980E044
:1038B000FF24F394DE249D2D9F2109F441C08E83C3
:1038C0009F82EF2081E009F480E088870E947D27B5
:1038D0008160782F9A8789874E815F8168858A8584
:1038E0000E94CE1CF801E150FC4F8081F826F08246
:1038F0000E9481110E9440130E949D16C1100E94D7
:1039000073150E9484290E94A11B9091FE038917C0
:1039100099F10E94A11B8093FE032A960FB6F8949A
:10392000DEBF0FBECDBFDF91CF911F910F91FF90F2
:10393000EF90DF90CF90BF90AF909F900C94410795
:103940008F5FFF0C863009F0B6CF0F5F1F4F0A3034
:10395000110509F09CCF8FEF89838A831B820E9417
:103960007D278160782F9D838C8349815A816B816B
:103970008D810E94CE1CBCCF2A960FB6F894DEBF74
:103980000FBECDBFDF91CF911F910F91FF90EF90B0
:10399000DF90CF90BF90AF909F900895CF93DF932B
:1039A000CDB7DEB72B970FB6F894DEBF0FBECDBFF5
:1039B0004F83588769877A878B871E821D8285E0AF
:1039C000FE013796DE01119601900D928A95E1F77E
:1039D00049815A816B817C818D819E812B960FB6A6
:1039E000F894DEBF0FBECDBFDF91CF910C94632260
:1039F000FC01808191810C94A424CF93C82F88234B
:103A000009F447C08CEF8C0F813AA0F46C2F8091A1
:103A1000690190916A010E945126882329F08C2F18
:103A20000E94D9240E9436258C2F0E94D224CF9147
:103A30000C94362580E28C0F883048F4C77081E002
:103A400001C0880FCA95EAF70E94FA24F0CFEBE58F
:103A5000EC0FE33040F4F0E0EB53FD4F808190E059
:103A6000CF910C94D51BE8E5EC0FE73150F4F0E072
:103A7000EE0FFF1FE956FD4F80819181CF910C948D
:103A8000EB1BC03F30F08C2F0E947E28CF910C940E
:103A90006929CF910895882361F19CEF980F913A9D
:103AA00020F40E94D9240C94362590E2980F983087
:103AB00050F4877091E001C0990F8A95EAF7892F39
:103AC0000E940025F0CF9BE5980F933020F490E002
:103AD00080E00C94D51B98E5980F973120F490E086
:103AE00080E00C94EB1B803F20F00E94E6280C94B1
:103AF00069290895CF93C82F0E94FD1CC93349F44A
:103B00002FEF87EE93E0215080409040E1F700C016
:103B100000008C2FCF910C944B1D882321F00E9424
:103B2000FA240C9436250895882321F00E9400255C
:103B30000C9436250895BF92CF92DF92EF92FF92B8
:103B40000F931F93CF93DF936C01D62FC72FFC01E8
:103B5000058102950F70128111110E9417250E9494
:103B6000F024E82E882391F01123E9F08C2F807F38
:103B7000803421F080E28D0F8830A8F082E00E942E
:103B800081250E94F02491E0E82EE926BC2EB29413
:103B90009FE0B922FBE0FB15A8F1EB2DF0E0E35329
:103BA000FA4C0C94BD31E12CF1CF0C2F0F70C07F7B
:103BB00011F00295007F1123A9F0002359F080E253
:103BC0008D0F883010F0D11109C0802F0E94FA2487
:103BD0000E9436258D2F0E94FD1C14C0802F0E944C
:103BE0000A25F6CF8D2F0E944B1D002359F080E24D
:103BF0008D0F883010F0D1112CC0802F0E9400252D
:103C00000E9436252B2D2850330B2430310520F40B
:103C10000E94A11B0E944107EE2009F48EC10E9460
:103C2000EC2480FD8AC1F60112820E94E6240E94E3
:103C30006F23C6010E94BE1F0E94E624DF91CF9130
:103C40001F910F91FF90EF90DF90CF90BF900C9459
:103C50009023802F0E941025D3CF2C2F2F70F22E6F
:103C6000C07FC03219F0F29480EFF822DD2369F0B2
:103C7000D13049F1112391F1002351F1F6018581F1
:103C800080FFA8CF8F70858323C0112381F001119D
:103C900006C00E941D258F290E948D1DB3CF0130C3
:103CA000C1F70E941D258F290E942325ABCF01114A
:103CB00006C00E942C258F2D0E94941DA3CF013099
:103CC00009F4A0CFF6CF112329F0063008F09ACFDF
:103CD0008F2DE2CF053008F095CFEDCF002359F3BB
:103CE000D93349F4FFEF27EE33E0F1502040304064
:103CF000E1F700C000008D2F0E944B1D83CF8C2F59
:103D000086958695837069F0813009F07BCF8D2F81
:103D10009C2F9370111102C090E080E00E94EB1B79
:103D200071CF8D2F9C2F9370111102C090E080E015
:103D30000E94D51B67CF8D2F112329F00E947E286A
:103D40000E9469295FCF0E94E628FACF8C2F8370EA
:103D500009F041C0111156CF4D2F4295469547703D
:103D6000440F440F0D2F0F7010E030E020E0042EC0
:103D700004C0000F111F221F331F0A94D2F760E006
:103D800070E0CB01D4FF0FC06FE070E080E090E006
:103D900004C0660F771F881F991F4A95D2F7609558
:103DA000709580959095C695C695C370602B712BC4
:103DB000822B932BC23049F058F4C13019F00E9485
:103DC000212320CF0E940F231DCF0E9433231ACF1F
:103DD0000E940D2317CF8695112311F08C2F81702F
:103DE000882309F40FCF4D2F429546954770440F15
:103DF000440F0D2F0F7010E030E020E0042E04C0BF
:103E0000000F111F221F331F0A94D2F760E070E0E9
:103E1000CB01D4FF0FC06FE070E080E090E004C001
:103E2000660F771F881F991F4A95D2F76095709586
:103E300080959095C695C695C370602B712B822B8B
:103E4000932BC23049F058F4C13019F00E94E62398
:103E5000D9CE0E94D423D6CE0E94F823D3CE0E947E
:103E60004923D0CECF70112329F08C2F0E946F23CD
:103E70008D2F12CF8D2F0E94941D8C2F0E94902386
:103E8000C1CED23F89F160F4D03FC9F0D13F29F1D2
:103E9000112309F442C001119DCE8C2F8F7121C0D6
:103EA000D33F39F1D43FA1F7112369F1CF718C2FA2
:103EB0000E946F2363E08C2F0E946C25A3CE1123F8
:103EC00041F0053008F09ECE8C2F8F710E94B323F5
:103ED00099CE063008F096CEF7CF8C2F8F71112334
:103EE00069F20E946F238ECE8C2F8F711123C9F33C
:103EF000C5CF112329F08C2F8F710E945A2382CEB7
:103F00000E9455237FCE81E00E948125023008F473
:103F100079CE82E00E94812575CE002359F0D933F5
:103F200009F0E9CE8FEF97EEE3E081509040E0405A
:103F3000E1F7DFCE8C2F8F71A1CFDF91CF911F9151
:103F40000F91FF90EF90DF90CF90BF9008950F9367
:103F50001F93CF93DF93EC01688179818A810E945E
:103F6000AE248C010E940A240E940C23B801CE01C9
:103F7000DF91CF911F910F910C949B1DCF93DF93F5
:103F8000EC018B819C81892B29F08881998189237F
:103F90008F3F59F4DF91CF910895CE010E94A71F62
:103FA000CE01DF91CF910C942507CE010E945907D5
:103FB0008111F3CF0E94F024882361F38A81882342
:103FC00049F382E0DF91CF910C9481250E9417255F
:103FD0000E941A250E9436250E94902A0E94692973
:103FE00090E080E00E94D51B90E080E00C94EB1BF9
:103FF0000E94E0240C94E61F0E9407250C94F81FF1
:10400000E92FE295EF70E250EE3070F4F0E0E75205
:10401000FA4C0C94BD31803F19F020F4883E20F416
:1040200081E00895843FE1F380E00895883EC0F385
:10403000813FD1F7F5CF93FB882780F908950E943F
:10404000A4240C940020CF93DF9300D000D00F92D3
:10405000CDB7DEB70F900F900F900F900F90DF91BC
:10406000CF910895CF93DF9300D000D000D0CDB78B
:10407000DEB726960FB6F894DEBF0FBECDBFDF9138
:10408000CF9108951F93CF93DF93C0910A0416E058
:1040900080910B048C1304C0DF91CF911F91089580
:1040A000D0E01C9FF0011D9FF00D1124E45FFB4F39
:1040B0004081518162817381848195810E94322087
:1040C0002196C770E5CF40913C0450913D0460912A
:1040D0003E0470913F0480914004909141040C94FF
:1040E00032201F93CF93DF9380914104807FA9F406
:1040F00080913E04882389F080910A04C0910B04CA
:1041000060913C0470913D04A0913F04B091400443
:10411000D62FD72316E0C81304C0DF91CF911F918B
:10412000089590E0109711F0DF3F19F40196877021
:10413000F2CF189F9001199F300D1124F901E45F0F
:10414000FB4F41814713F2CF40814613EFCF4281AD
:104150004111ECCF438154814A1B5B0B443651051E
:1041600028F7809141048F70806180934104F901A8
:10417000EF5EFB4F80818F70806180838CE394E0E1
:104180000E94BE1FDF91CF911F910C944220AF92ED
:10419000BF92CF92DF92EF92FF920F931F93CF9334
:1041A000DF93CDB7DEB761970FB6F894DEBF0FBED1
:1041B000CDBF8C0185E0F801DE011D9601900D92C6
:1041C0008A95E1F7F80140815181E2808CE3C82EA5
:1041D00084E0D82E60913F04709140046115710510
:1041E00009F44FC190913C0420913D04892F822312
:1041F0008F3F09F446C1A380B480F0903E04F501DE
:10420000E61BF70BFF2009F40AC180914104382F07
:10421000307FE436F10508F0C0C0311179C0FE2CC2
:10422000251323C0941321C0E1101FC08F7080613B
:10423000809341040E946320C6010E94BE1F8091AA
:104240004104F80185838F2D61960FB6F894DEBF87
:104250000FBECDBFDF91CF911F910F91FF90EF90D7
:10426000DF90CF90BF90AF900895AB2829F0842FB6
:1042700085238F3F09F021C180E0F82FF170DF2EF8
:1042800080FF3CC080910A0420910B0436E0821329
:1042900015C04D875E878D859E850E94A424292F99
:1042A00022952F702230F0F0243018F59F70F1F035
:1042B000F8019581907FD1F4D12C1EC090E0389FF9
:1042C000F001399FF00D1124E45FFB4F618165130C
:1042D00006C06081641303C062816E110FC0019635
:1042E0008770D5CF9F7011F0882331F3805E8830BE
:1042F00018F3C8010E94BE1FFD2CA5CFEE2009F4C3
:10430000A2CF80914104816080934104F12C9BCF26
:10431000251314C0941312C0E11010C0F801858356
:10432000C8010E94BE1F86E0F801ACE3B4E0019032
:104330000D928A95E1F70E94632085CF4D875E87B5
:104340008D859E850E941F20882319F1EE2009F19A
:1043500080914104803270F020913C0430913D0402
:1043600038872F831986BB86AA868C87CE0107964D
:104370000E94BE1F86E0F801ACE3B4E001900D920C
:104380008A95E1F70E9471200E946320FF24F39434
:104390005ACFC8010E94BE1FF9CF311113C07A2D28
:1043A000B98AA88A6E2D89890E9423208CE394E023
:1043B0000E94BE1F86E0F60111928A95E9F70E94DD
:1043C0006320A4CF25130FC094130DC0E1100BC0C0
:1043D000F8018583C8010E94BE1F86E0F601119294
:1043E0008A95E9F730CF4D875E878D859E850E943F
:1043F0001F20882371F2EE2061F280914104803207
:1044000008F4B8CF20913C0430913D043A832983CD
:104410001B82BD82AC828E83CE010196A9CFE43689
:10442000F10510F5FE2CEE2009F4B3CF25130BC0D7
:10443000941309C086E0F801ACE3B4E001900D925A
:104440008A95E1F700CF4D875E878D859E850E9416
:104450001F2081118FCF809141048160809341049E
:10446000C8010E94BE1FEFCE7A2DB98AA88A6E2D90
:1044700089890E94232086E0F60111928A95E9F746
:104480005ACFEE2009F485CF4D875E878D859E85B6
:104490000E941F20F82E882309F47BCF86E0F801C4
:1044A000ACE3B4E001900D928A95E1F78CE394E0DF
:1044B0000E94F81C0E9471203ECF81E08E25DDCE47
:1044C00084E690E008951F93CF93DF93CDB7DEB7D6
:1044D0002C970FB6F894DEBF0FBECDBF4F83588721
:1044E00069877A878B879C87CE0107960E94C720B1
:1044F000882369F08A859B85892B39F04F815885FF
:10450000842F85238F3F09F071C016E05FC086E0DD
:10451000FE013796DE01119601900D928A95E1F722
:104520008A859B85892B89F388859F8189238F3F85
:1045300061F320910B0430E0C9010196877099273F
:1045400040910A044817190671F40E94FC1F10924A
:104550000B0410920A0486E0ECE3F4E0DF011D9204
:104560008A95E9F7D2CF96E0929FD001939FB00D44
:104570001124A45FBB4FFE01319601900D929A95D4
:10458000E1F780930B040E944220BFCF819FC001BE
:104590001124845F9B4F0E94C7208823E9F0E0919B
:1045A0000A041E9FF0011124E45FFB4F40815181FA
:1045B00062817381848195810E94322080910A04F6
:1045C00090E001968770992780930A0480910A04ED
:1045D00090910B048913DACF2C960FB6F894DEBFB6
:1045E0000FBECDBFDF91CF911F91089569857A8568
:1045F0008B859C850E94322088CF08950C94FD22E3
:104600000E94FE2260936E0470936F048093700486
:10461000909371040C94E61F08950C9400230F935B
:104620001F9300916E0410916F04209170043091DB
:104630007104602B712B822B932B1F910F910C9483
:1046400000230F931F9300916E0410916F0420912B
:1046500070043091710460237123822393231F918E
:104660000F910C9400230F931F9300916E041091EF
:104670006F042091700430917104602771278227A4
:1046800093271F910F910C9400230C94FD220C94FE
:1046900045230E94472360936A0470936B048093C0
:1046A0006C0490936D040C94E61F60E070E0CB0105
:1046B0000C9449230F931F9341E050E060E070E0B9
:1046C0008A019B0104C0000F111F221F331F8A950E
:1046D000D2F7C901B8011F910F910C9449230F9390
:1046E0001F9341E050E060E070E004C0440F551FAC
:1046F000661F771F8A95D2F780916A0490916B04A8
:10470000A0916C04B0916D048A019B01082B192BB8
:104710002A2B3B2BC901B8011F910F910C944923FF
:104720000F931F9341E050E060E070E004C0440F3D
:10473000551F661F771F8A95D2F7CB01BA01609586
:1047400070958095909500916A0410916B0420916A
:104750006C0430916D0460237123822393231F9195
:104760000F910C9449230F931F9341E050E060E0B8
:1047700070E004C0440F551F661F771F8A95D2F75B
:1047800080916A0490916B04A0916C04B0916D04C7
:104790008A019B01082719272A273B27C901B8014D
:1047A0001F910F910C9449230F931F9300916A045A
:1047B00010916B0420916C0430916D04602B712B6F
:1047C000822B932B1F910F910C9449230F931F93CE
:1047D00000916A0410916B0420916C0430916D0477
:1047E00060237123822393231F910F910C944923FB
:1047F0000F931F9300916A0410916B0420916C0435
:1048000030916D0460277127822793271F910F91A4
:104810000C9449230895E92FEE0FE90FEE0F8E0F48
:10482000982F977041E001C0440F9A95EAF786955A
:104830008695869595E0899FF0011124EE5BFB4FEC
:1048400030E020E070E05191DF011197CB01022EA2
:1048500002C0969587950A94E2F781708195852725
:10486000842385278C932F5F3F4F2530310559F7DF
:104870000895E92FEE0FE90FEE0F8E0F982F977026
:1048800086958695869525E0829FF0011124EE5B42
:10489000FB4F50E040E080E0219130E0092E02C063
:1048A000369527950A94E2F721703327042E01C02C
:1048B000220F0A94EAF7822B4F5F5F4F4530510574
:1048C00059F70895BF92CF92DF92EF92FF920F9324
:1048D0001F93CF93DF938C01C0906A04D0906B0438
:1048E000E0906C04F0906D0480916E0490916F04E0
:1048F000A0917004B0917104C82AD92AEA2AFB2A2F
:10490000CFE1D0E0BC2ED701C6010C2E04C0B69575
:10491000A795979587950A94D2F780FD0EC02197A9
:1049200088F7B12C8B2DDF91CF911F910F91FF90C4
:10493000EF90DF90CF90BF900895B8018C2F0E9428
:10494000AF07019761F3EECFCF93DF93EC010E94A5
:104950006224BE01DF91CF910C94AF071F93CF93D8
:10496000DF93EB0190910904992331F0CB01DF91A2
:10497000CF911F910C94A424882379F0CB010E943D
:104980006224182F682FCE010E940B24BE01812FB4
:10499000DF91CF911F910C94AF07CB010E94392476
:1049A000182FF4CF682F8091690190916A010C94BF
:1049B000D126682F8091690190916A010C94DC26C0
:1049C0008091690190916A010C94E72680917204AC
:1049D00085958595859508958091720487700895D1
:1049E00090917204977081E009F480E008958091BD
:1049F0009604089590919604892B809396040895C7
:104A0000809590919604982390939604089510921F
:104A10009604089590919504892B809395040895A8
:104A20008095909195049823909395040895109201
:104A30009504089510929404089580917304089544
:104A400008950C94202590917304981721F0809379
:104A500073040C942125089580917304882329F010
:104A60001092730480E00C9421250895E09169016F
:104A7000F0916A01809196048083E0916901F09140
:104A80006A01808190919504892B8083E09169016E
:104A9000F0916A01808190919404892B8083909198
:104AA0007304992381F0E0916901F0916A0180819A
:104AB000892B80838091690190916A010E943D2633
:104AC00081110E942C258091690190916A010C94BA
:104AD000AD1B08950C94692598E0899F90011124DD
:104AE000622B609372040E946F23809172048595FB
:104AF000859585950C946A251092720480E00C943B
:104B00006A25909172048095892380937204282FDE
:104B1000277071F4282F082E000C330B9217130600
:104B200039F08595859585950E9490230C947C2578
:104B3000089590E080E00E94273521E08C3E9E4F52
:104B400009F020E0822F089582E090E00C9419355E
:104B500083E090E00C941935CF9384E090E00E94BC
:104B60001935C82F81E290E00E941935982F8C2FBB
:104B7000CF910895CF93C92F682F84E090E00E94D1
:104B80002D356C2F81E290E0CF910C942D35AB0147
:104B9000BC018FE090E00C943F35AB01BC0183E198
:104BA00090E00C943F3560E070E0CB010C94CD2593
:104BB00060E070E0CB010E94C7250C94D3256CEE19
:104BC0007EEF90E080E00E944B3560E082E090E074
:104BD0000E942D3560E083E090E00E942D35109218
:104BE0006E0410926F04109270041092710460E0D1
:104BF00084E090E00E942D3560E081E290E00E9428
:104C00002D3560E085E090E00E942D3560E086E083
:104C100090E00E942D356FEF87E090E00E942D35E7
:104C200040E050E0BA0188E090E00E943F3560E04B
:104C30008DE090E00E942D3540E050E0BA0188E11F
:104C400090E00E943F3560E087E190E00E942D35C2
:104C500040E050E0BA018CE190E00E943F3560E016
:104C600080E290E00E942D350C94D8250C94DF252D
:104C7000682F8EE090E00C942D35FC0132968091E7
:104C80007D01882321F080916E079EE187FF96E0E9
:104C900080E0915008F4089521912223D1F38F5F91
:104CA000F8CF662301F120917D012223F1F02091BC
:104CB0006E0727FF1AC0462F4695469546954E31FA
:104CC00090F4677021E030E002C0220F331F6A9534
:104CD000E2F7840F911DFC01828190E028233923A3
:104CE00081E0232B69F480E00895FC013296089658
:104CF0002191261721F0E817F907D1F7F4CF81E0C9
:104D000008959C01FC0132969FEF80E04191461787
:104D100051F09F3F19F4411101C0982F8F5F8630E9
:104D2000A9F79F3F09F40895290F311D97FD3A9582
:104D3000F90162830895FC013296089621912613A9
:104D400003C0DF0111971C92E817F907B9F708951E
:104D5000E62FE695E695E695EE3168F4E80FF92F33
:104D6000F11D677021E030E001C0220F6A95EAF77B
:104D70008281822B82830895E62FE695E695E6955B
:104D8000EE3170F4E80FF92FF11D677021E030E08B
:104D900001C0220F6A95EAF7209582812823228399
:104DA000089520917D01222329F020916E0727FD8F
:104DB0000C94A8260C94812620917D01222329F0B1
:104DC00020916E0727FD0C94BC260C949B26FC01B9
:104DD000329680917D01882351F080916E0787FF84
:104DE00006C08EE1DF011D928A95E9F7089586E0FD
:104DF000F9CF089508950C94FA260E94FB2680911D
:104E00007407843049F11092980488E190E020E41E
:104E10000FB6F894A895809360000FBE20936000B1
:104E200080E00E9441070E94FB2683B7817F846057
:104E300083BF83B7816083BF7894889583B78E7F63
:104E400083BF0FB6F894A895809160008861809325
:104E50006000109260000FBE08950895CF930E94E5
:104E6000F9260E94180A0E942D27C0E08C2F0E946C
:104E70008909811105C0CF5FCA30C1F7CF9108956C
:104E800081E0FCCF08950C9442270E94FC1F0E94F1
:104E9000A11B0E9441070C9443271F921FB61F922B
:104EA00011248F939F93AF93BF93809198048111A6
:104EB00013C080916A0790916B07A0916C07B09125
:104EC0006D074196A11DB11D80936A0790936B07F2
:104ED000A0936C07B0936D07BF91AF919F918F9195
:104EE0001F901FBE1F90189582E084BD93E095BD72
:104EF0009AEF97BD80936E0008952FB7F894809134
:104F00006A0790916B07A0916C07B0916D072FBF56
:104F100008952FB7F89460916A0770916B0780919C
:104F20006C0790916D072FBF08959C014FB7F894BF
:104F300080916A0790916B07A0916C07B0916D0703
:104F40004FBF821B930B089578941F921FB61F9238
:104F500011248F939F93AF93BF9380916A07909191
:104F60006B07A0916C07B0916D070196A11DB11D53
:104F700080936A0790936B07A0936C07B0936D07BB
:104F8000BF91AF919F918F911F901FBE1F90189559
:104F900087E797E7909301088093000888E19AE0FB
:104FA0000FB6F894A895809360000FBE90936000B0
:104FB000FFCF0E949925811102C00E9436260E94CF
:104FC000A425809397040E94AC2590936F0780934B
:104FD0006E070E94A825682F70E090E080E00E9494
:104FE0000D2360916A0470916B0480916C04909120
:104FF0006D040C94472380919F0480FF12C0609140
:10500000700185E0689FB0011124759567957595CD
:10501000679560387105A8F561157105A1F1862FB6
:10502000089581FF09C06091700185E0689FB0011B
:10503000112475956795EDCF6091700182FD0AC0CE
:1050400080919E048823D1F090916F01609170014E
:10505000891728F085E0689FB0011124DACF869F78
:10506000B001112485E0869F9001879F300D1124A7
:10507000692F70E0C9010E948731CBCF65E070E0F5
:10508000CECF8FE7089581E0089580919F0480FF3F
:105090000CC060916C0170E075956795759567958A
:1050A0006115710549F1862F089581FF06C0609151
:1050B0006C0170E075956795F3CF60916C0182FD8E
:1050C0000BC090919D049923A1F060916B01809198
:1050D0006C01961738F0682F70E06038710500F3A6
:1050E0008FE70895899FC001112470E00E948731E5
:1050F000F4CF61E070E0D7CF81E00895803F31F4D4
:105100000E94FB2781958093A3040895813F19F4A1
:105110000E94FB27F8CF823F31F40E94FB27819544
:105120008093A2040895833F19F40E94FB27F8CFCF
:10513000893F29F40E9445288093A40408958A3F5A
:1051400021F40E9445288195F7CF8B3F31F40E94CE
:10515000452881958093A50408958C3F19F40E94F9
:105160004528F8CF843F31F48091A1048160809379
:10517000A1040895853F21F48091A1048260F7CFB6
:10518000863F21F48091A1048460F1CF873F21F410
:105190008091A1048860EBCF883F21F48091A10425
:1051A0008061E5CF8D3F31F480919F0481608093D1
:1051B0009F0408958E3F21F480919F048260F7CF71
:1051C0008F3FB9F780919F048460F1CF9091A20442
:1051D000803F59F48091A30487FF0DC01092A3046F
:1051E00091110BC010929E0408C0813F81F4809100
:1051F000A30418169CF3992381F08091A404909144
:10520000A504892B09F064C010929D040895823F83
:1052100049F497FFF0CF1092A2048091A30481116A
:10522000ECCFE0CF833F19F41916ACF3E4CF209113
:10523000A404893F29F41216F4F61092A404DBCFDB
:105240008A3F19F427FFD7CFF8CF2091A5048B3FD1
:1052500029F427FFD0CF1092A504CDCF8C3F19F4AD
:105260001216CCF3C8CF843F31F48091A1048E7F15
:105270008093A104C0CF853F21F48091A1048D7F4C
:10528000F7CF863F21F48091A1048B7FF1CF873F38
:1052900021F48091A104877FEBCF883F21F4809196
:1052A000A1048F7EE5CF8D3F31F480919F048E7FE6
:1052B00080939F04A0CF8E3F21F480919F048D7F27
:1052C000F7CF8F3F09F097CF80919F048B7FF0CF6E
:1052D00008950E947D279C019091A2048091A304CF
:1052E000982B21F030939C0420939B049091A4046C
:1052F0008091A504982B21F030939A04209399046F
:1053000080EA94E00C94C71BEF92FF920F931F93D7
:10531000CF93DF9300D000D000D0CDB7DEB786E0CA
:10532000E0EAF4E0DE01119601900D928A95E1F732
:10533000E090A204F090A3040091A4041091A504AD
:105340001092A2041092A3041092A4041092A50437
:105350008E2D8F2991F080919B0490919C040E9446
:105360009527AC0190919E04992309F43FC0809148
:1053700071018417150608F447C0802F812B91F026
:105380008091990490919A040E949527AC01909184
:105390009D04992309F477C080916D018417150647
:1053A00008F47FC08091A2049091A304892B90916E
:1053B000A404892B9091A504892B11F00E946929DE
:1053C00086E0FE013196A0EAB4E001900D928A9544
:1053D000E1F726960FB6F894DEBF0FBECDBFDF9182
:1053E000CF911F910F91FF90EF900895209172013E
:1053F0008AE0289F900111242417350708F0BDCFBB
:105400009F5F90939E0402C09F3FD1F7EE2059F01A
:105410000E94FB279FEF1E140CF491E0899F802DC2
:1054200011248093A204FF2059F00E94FB279FEFD4
:105430001F140CF491E0899F802D11248093A30404
:105440003091A204332309F498CF2091A30422239E
:1054500009F493CF45EB3403C0011124992359F08B
:105460009093A20445EB240390011124332339F0D7
:105470003093A30482CF81E08093A204F3CF81E034
:105480008093A3047ACF20916E018AE0289F900137
:1054900011242417350708F085CF9F5F90939D0452
:1054A00002C09F3FD1F7002359F00E9445289FEF8B
:1054B00010160CF491E0899F802D11248093A40490
:1054C000112359F00E9445289FEF11160CF491E02A
:1054D000899F802D11248093A5043091A404332347
:1054E00009F460CF2091A504222309F45BCF45EB9A
:1054F0003403C0011124992359F09093A40445EB7F
:10550000240390011124332339F03093A5044ACFAA
:1055100081E08093A404F3CF81E08093A50442CF7F
:1055200086E0E0EAF4E0DF011D928A95E9F7109247
:105530009E0410929D0410929F0408958091C604C9
:105540000895CF93DF9300D00F92CDB7DEB790913F
:105550007407943019F589837B836A8382E0809392
:10556000E9008FEF9091E800815095FD06C095ED20
:105570009A95F1F700008111F5CF8091E80085FF41
:105580000DC050E040E063E070E0CE0101960E9463
:10559000C82C8091E8008E778093E8000F900F90E0
:1055A0000F90DF91CF910895BC0184E00C94A12A63
:1055B000BC0183E00C94A12A9C0182E08093E90065
:1055C0009FEF8091E800915085FD06C085ED8A959A
:1055D000F1F700009111F5CF8091E80085FF0CC034
:1055E00050E040E066E070E0C9010E94C82C809164
:1055F000E8008E778093E8000895CF93DF93EC0165
:1056000080917D018823B1F180916E0787FF32C0C0
:1056100060E282E08093E9008FEF9091E800815092
:1056200095FD06C095ED9A95F1F700008111F5CF33
:105630008091E80085FF1BC080917D0170E050E003
:1056400040E0811104C050E040E068E070E0CE012D
:105650000E94C82C8091E8008E778093E80080E259
:10566000FE01A6EAB4E001900D928A95E1F7DF9180
:10567000CF91089568E081E0CDCF809173078111CB
:1056800009C00E94582E0E94B52E8091E2008460CD
:105690008093E20008951092730708950895089585
:1056A0000C94452742E061EC81E00E94D42D42E257
:1056B00061EC82E00C94D42D80917607833009F45C
:1056C0005FC030F48130C1F1823009F49BC008958D
:1056D0008A3009F487C08B3009F46DC0893009F035
:1056E0004EC080917507813209F049C080917907D9
:1056F00090917A07029708F042C08091E800877F76
:105700008093E8008091E80082FF35C09091F3001B
:105710008091F200029729F48091F1008B7F813013
:1057200021F48091F1008093C6048091E8008B778A
:105730008093E8000C94082E80917507813AF9F463
:105740008091E800877F8093E800809179079091AD
:105750007A07892B61F460E286EA94E070E00E94A7
:10576000172D8091E8008B778093E800089560E022
:1057700090E080E0F3CF809174078111C3CF08954A
:1057800080917507813AD9F78091790790917A07CE
:10579000892BA9F78091E800877F8093E8008091AA
:1057A000E80080FFFCCF80917D018093F100809123
:1057B000E8008E77BDCF80917507813201F7809127
:1057C000790790917A07892BD1F68091E800877F3D
:1057D0008093E8000E94082E8091770780937D01D6
:1057E0000C94FC1F80917507813249F68091E80086
:1057F000877F8093E8000E94082E8091780780932D
:10580000C704089580917507813A09F0B8CF809157
:10581000E800877F8093E8008091E80080FFFCCF5C
:105820008091C704C2CF84B7877F84BF0FB6F89436
:10583000A89580916000886180936000109260005C
:105840000FBE80E890E00FB6F894809361009093CB
:1058500061000FBE0E940F1C0E94582E0E94B52EA0
:105860008091E20084608093E20078940E943E314F
:105870000E94171C83E791E00E949C1B8091740793
:10588000853019F00E94261CF9CF0E94FD268091D8
:105890007207882399F30E942E27882379F30E94A8
:1058A000B22CECCF0C94542C292F33272330310504
:1058B00019F168F42130310509F44AC0223031056C
:1058C00009F44BC090E080E030E020E028C02132B5
:1058D000310579F122323105A9F780E490E02FE318
:1058E0003BE061157105D9F08CEB90E023E83AE0DC
:1058F00061307105A1F0E6CF99278130910599F0CB
:10590000009741F08230910589F00397D9F6EAE0DB
:10591000FAE002C0E2E3FAE0849190E09F01FA012C
:10592000318320830895E0E2FAE0F6CFE0E1FAE087
:10593000F3CF89E090E028E43AE06115710579F34E
:1059400089E090E021E63AE06130710541F3BACF99
:1059500082E190E021E73AE0E2CF8BE390E026E3BA
:105960003AE0DDCF80E189BD82E189BD09B400FE66
:10597000FDCF8091D8008F7D8093D8008091E0008A
:1059800082608093E0008091E00081FDFCCF08956B
:10599000AF92BF92CF92DF92FF920F931F93CF935C
:1059A000DF936C01EB018A010E94272EF82E8111F2
:1059B00023C00115110539F0F80180819181C81BC0
:1059C000D90BC80ED91EB12CA12C2097A9F080911B
:1059D000E80085FD22C08091E8008E778093E80082
:1059E00001151105A1F0F80180819181A80EB91E61
:1059F000B182A08285E0F82E8F2DDF91CF911F918B
:105A00000F91FF90DF90CF90BF90AF9008950E94CC
:105A1000272E8823D1F2F82EEFCFF60181916F0166
:105A20008093F1002197FFEFAF1ABF0ACECFFC01A0
:105A300080917B0790917C0786179707A0F06115EE
:105A4000710529F49091E8009E779093E80090E02A
:105A50006115710551F4911108C08091E80082FF31
:105A600034C080E00895BC01F2CF80917407882390
:105A7000C1F18530C1F18091E80083FD30C0809193
:105A8000E80082FDEACF8091E80080FFE1CF8091BD
:105A9000F3002091F200382F6115710519F02830BC
:105AA000310558F091E02830310509F090E020915F
:105AB000E8002E772093E800CBCF81918093F1000E
:105AC000615071092F5F3F4FE7CF809174078823A2
:105AD00041F0853041F08091E80083FFBECF81E046
