:100000000C94BA060C94D7060C94D7060C94472D82
:100010000C94D7060C94D7060C94D7060C94D706EC
:100020000C94D7060C94D7060C94691B0C94241AD4
:100030000C94181D0C94D7060C94D7060C94D70674
:100040000C94D7060C94D7060C94D7060C94D706BC
:100050000C94D7060C94AF1C0C94D7060C94D706BE
:100060000C94D7060C94D7060C94D7060C94D7069C
:100070000C94D7060C94D7060C94D7060C94D7068C
:100080000C94D7060C94D7060C94D7060C94D7067C
:100090000C94D7060C94D7060C94D7060C94D7066C
:1000A0000C94D7060C94D7060C94D706E80D020ED4
:1000B000090EF30EF30E410E4D0E5C0EF30E640EA0
:1000C000F30EF30EF30E6C0EDF12DF121A131A1377
:1000D0004C1368134E144E147213E613F713F713F0
:1000E00026264D2602284D2602289926BC260228BF
:1000F000BD27CD2700DA0281FFD9F1DB20A4A62E8F
:10010000AF00A0C000A1C800AED580A81FD300409A
:100110008D1420002077706D0A0020200041646A51
:1001200075737400526169736520004C6F77657256
:100130002000515745525459006C61796572200076
:10014000808182838485868788898A8B8C8D8E8F37
:100150009091929394A0A1A2A3A4A5A6A7A8A9AAAE
:10016000ABACADAEAFB0B1B2B3B4C0C1C2C3C4C525
:10017000C6C7C8C9CACBCCCDCECFD0D1D2D3D4007C
:10018000FD377A585A000004E6D6B4460200210131
:1001900016000000742FE5A3E005C7015C5D003D7B
:1001A0008889C65436C3174FE4E20F535D9075DB60
:1001B00008C965CE09CBAEF2FFD16E9644531750F5
:1001C000A9573CF31C36AD768D7A7A850BC9433E30
:1001D00038EE515A3E9C7DCEB4C813B9F1CF886732
:1001E000CEB8A9BF34EAE3499914A741D5576A228A
:1001F0009C4F0765976DEDE65205C276003360F7B8
:1002000088AF8348607DF4FD32CB5CB4A3130FA7A5
:1002100079664A7A762F3B30DDCAA3AAFD617C0E4F
:100220003B1587C37683075D3BDD124776E5A83D26
:100230001F79BCA9EAD200281FB159F012878D5846
:100240008EB0E9D5FFF4E903A04E8AAB492B16A482
:100250000CD6DB26072A60542BABFF81864810D3CF
:10026000DE5CC6B9BB689DF8152AF17BB847E73B51
:10027000B48E1DC999D80C800D5362FBA3A7CA4741
:10028000DAC48DA5D400E4E0B68391325BFE7CB97C
:1002900052F711374FBEFCB3E328B73538102A1B8D
:1002A00049CA110AF865AD63E9DB025F78A396C617
:1002B000F1162682AA735DAB26F1710555F4D70AB3
:1002C0002670CB8BE97F1031D1D48C8FFE74B9BAF4
:1002D000E044C24CBC510C2D33D5C383EC4DC6E772
:1002E000B18A91DCFD2D84C79284B72A1FE6A8024B
:1002F0000BE48425F3DCA34CFFF38400D549FD2DEA
:100300004E472EFA0001F802C80B0000C135F8FF75
:10031000B1C467FB020000000004595A29001E0006
:100320001F002000210022002B0014001A000800EA
:1003300015001700E00004001600070009000A007D
:10034000E1001D001B00060019000500000001511E
:10035000E300E2002C002F003500270026002500D6
:10036000240023002D00130012000C0018001C00B4
:10037000340033000F000E000D000B00E5003800C4
:10038000370036001000110000000251E7002A007B
:1003900028003000010001000100010001000100FF
:1003A00001001E021F0220022102220201001E0083
:1003B0001F002000210022000100010001000100B7
:1003C0000100010000000100010001000100010026
:1003D00001000100010001000100010001002702ED
:1003E0002602250224022302010027002600250000
:1003F00024002300010030022F022E0235003102BA
:1004000000000100010001000100010001000100E5
:1004100001000100010001003A003B003C003D00EA
:100420003E003F0001000100010001000100010049
:1004300001000100010001000100010000000100B5
:1004400001000100010001000100010001000100A4
:10045000010001004500440043004200410040000B
:1004600000004F0052005100500000000100310018
:1004700030002F002E002E020000010001000100BC
:10048000010001000000000000000000000000006A
:10049000000000000000000000000000000000005C
:1004A000000000000000000000000000000000004C
:1004B0000000000000000100010001000100000038
:1004C000000000000000000000000000000000002C
:1004D000000000000000000000000000000000001C
:1004E000000000000000000000000000000000000C
:1004F00000000100010001000100000000000000F8
:1005000000000000000000000000000000000000EB
:1005100000000000000000000000000000000000DB
:1005200000000000000000000000000000000100CA
:1005300001000100010000000000000000000000B8
:1005400000000000000000000000000000000000AB
:10055000000000000000000000000000000000009B
:100560000000000000000000000001000100010088
:10057000010000000000000000000000000000007A
:10058000000000000000000000000000000000006B
:10059000000000000000000000000000000000005B
:1005A0000000000000000100010001000100000047
:1005B000000000000000000000000000000000003B
:1005C000000000000000000000000000000000002B
:1005D000000000000000000000000000000000001B
:1005E00000000100010001000100000000AF00AEAA
:1005F00005010902A10185020901A10005091901EE
:1006000029051500250195057501810295017503E0
:1006100081010501093009311581257F9502750891
:10062000810609381581257F950175088106050C1D
:100630000A38021581257F950175088106C0C0051D
:10064000010980A101850319012AB700150126B708
:1006500000950175108100C0050C0901A1018504F8
:1006600019012AA002150126A0029501751081002A
:10067000C00660FF0961A1010962150026FF00950F
:1006800020750881020963150026FF009520750872
:100690009102C005010906A101050719E029E71526
:1006A00000250195087501810295017508810105F4
:1006B00007190029FF150026FF009506750881001F
:1006C0000508190129059505750191029501750324
:1006D0009101C009025B00030100A0FA09040000B7
:1006E0000103010100092111010001224000070559
:1006F0008103080001090401000203000000092130
:1007000011010001222200070582032000010705D4
:100710000303200001090402000103000000092175
:10072000110100012281000705840320000112014C
:10073000000200000008D8042DEB000101020301B3
:100740001C037600690061006C003A006600360008
:1007500034006300320062003300630000000E03C7
:100760004C0069006C00790035003800000010036F
:100770006C0069006C00690075006D00730000007A
:100780000403090400000000000000000000000055
:100790000000000000000000000000000000000059
:1007A00000000000000000007E0F00D4FFFFFFC724
:1007B0000000007800000000000000002A2B280044
:1007C0000000000000000000000000000000002900
:1007D000000000002C1E3420212224342627252E40
:1007E000362D3738271E1F20212223242526333378
:1007F000362E37381F0405060708090A0B0C0D0EA4
:100800000F101112131415161718191A1B1C1D2F6F
:100810003130232D350405060708090A0B0C0D0E8F
:100820000F101112131415161718191A1B1C1D2F4F
:100830003130354C0000000000003E5B4F5B3E0055
:100840003E6B4F6B3E001C3E7C3E1C00183C7E3CC9
:1008500018001C577D571C001C5E7F5E1C00001892
:100860003C180000FFE7C3E7FF0000182418000051
:10087000FFE7DBE7FF0030483A060E00262979291A
:100880002600407F05050700407F05253F005A3CB4
:10089000E73C5A007F3E1C1C0800081C1C3E7F00E1
:1008A00014227F2214005F5F005F5F0006097F0152
:1008B0007F00006689956A0060606060600094A2B5
:1008C000FFA2940008047E04080010207E2010007F
:1008D00008082A1C0800081C2A0808001E1010100E
:1008E00010000C1E0C1E0C0030383E383000060E76
:1008F0003E0E060000000000000000005F00000047
:10090000000700070000147F147F1400242A7F2AA8
:100910001200231308646200364956205000000874
:1009200007030000001C224100000041221C0000BF
:100930002A1C7F1C2A0008083E080800008070302E
:10094000000008080808080000006060000020108F
:10095000080402003E5149453E0000427F4000002D
:100960007249494946002141494D33001814127F0C
:1009700010002745454539003C4A4949310041218D
:1009800011090700364949493600464949291E00E0
:100990000000140000000040340000000008142291
:1009A0004100141414141400004122140800020120
:1009B000590906003E415D594E007C1211127C001F
:1009C0007F49494936003E41414122007F41414132
:1009D0003E007F49494941007F09090901003E4124
:1009E000415173007F0808087F0000417F410000EB
:1009F0002040413F01007F08142241007F404040D9
:100A000040007F021C027F007F0408107F003E41EF
:100A100041413E007F09090906003E4151215E0027
:100A20007F091929460026494949320003017F01FF
:100A300003003F4040403F001F2040201F003F4038
:100A400038403F0063140814630003047804030073
:100A50006159494D4300007F4141410002040810A3
:100A60002000004141417F00040201020400404097
:100A70004040400000030708000020545478400024
:100A80007F284444380038444444280038444428EB
:100A90007F0038545454180000087E0902001824BE
:100AA000241C78007F080404780000447D40000086
:100AB0002040403D00007F102844000000417F405E
:100AC00000007C04780478007C0804047800384432
:100AD000444438007C1824241800182424187C006E
:100AE0007C080404080048545454240004043F447F
:100AF00024003C4040207C001C2040201C003C4046
:100B000030403C004428102844004C9090907C00D9
:100B10004464544C44000008364100000000770053
:100B200000000041360800000201020402003C26D9
:100B300023263C0000000000008080808000000030
:100B4000000080E070180C1830E080000010F89071
:100B50001030783010B8FC3810000000000000F8A9
:100B6000FCF8000000000000000000000000001C75
:100B70009C1C00000000F8FCF80000000000001CB5
:100B8000FCF8C000000000000080E0F87C1C0000C1
:100B900000F0FCFCFC1C1C1C1C1C1C1C1C00000091
:100BA000000000C0F0F8381C1C1C1C1C1C3CF8F099
:100BB000E000E0F0F0F0E0ECEEF7F37020007C7C79
:100BC0007C7E007E7E7E7F7F7F000080C0E07E5B3B
:100BD0004F5BFEC00000C000DCD7DEDEDED7DC00ED
:100BE000C000000000000000000000000000000045
:100BF0000000000000000000000FBCE08181818344
:100C00008382870C183060C000001FFE90B9FFBBC4
:100C100091983C1811133F1100000000000000FFE4
:100C2000FFFF00000000000000000000000000FFC7
:100C3000FFFF00000000FFFFFF00000000000000B9
:100C400000030F7FF8E080F0FC3F0F010000000080
:100C5000003F3F3F1C1C1C1C1C3C78F8F0E080004F
:100C6000000000C3E7FF7E3C3878787070F8FFDF43
:100C700087000F1F3F7F7F7F7F7F3F1E0C001F1F5E
:100C80001F3F003F3F3F7F7F7F00307B7F783020DA
:100C90002030787F3B0003000F7F0F0F0F7F0F0086
:100CA0000300000000000000000000000000000041
:100CB00000000000183C24666341C1818080808070
:100CC000808081C14162386C4CC681818080808087
:100CD0008081C14362361C1800000000000000FF44
:100CE000FFFFC0C0C0C0C0C0C0C0C0800000007F47
:100CF000FF7F000000007FFFFFC080000000E0E0F9
:100D0000C0C0C0E0F97F1F07000000000000000025
:100D10000070F0E0E0C0C0C0C0E0F0F87F3F0F001E
:100D200000000F3F7FF9E0E0C0C0C0C0C0E0F97F25
:100D30003F1F000000000000000000000000000055
:100D400000000000000000000000000000000000A3
:100D50000000000000000000000000000000000093
:100D60000000000000000000000000000000000083
:100D70000000000011241FBECFEFDAE0DEBFCDBFC0
:100D800011E0A0E0B1E0E0EFF4E602C005900D92C2
:100D9000AC39B107D9F725E0ACE9B1E001C01D924B
:100DA000AE34B207E1F70E94D9060C9476320C9467
:100DB0000000ADE3B0E0EFEDF6E00C947C2E85B7DB
:100DC000806885BF85B7806885BF84B7877F84BF0B
:100DD0000FB6F894A89580916000886180936000B8
:100DE000109260000FBE90E080E80FB6F8948093F8
:100DF0006100909361000FBE8CE694E190939D0199
:100E000080939C010E948B280E94681A0E940E1BEE
:100E10008091E20084608093E20078948091E902FE
:100E20008823A1F01091E9001F709091EC00892FA8
:100E3000817090FD80E8182B1092E9008091E80005
:100E400083FD0E9441251F701093E90082E084BD5C
:100E500093E095BD9AEF97BD80936E0010929E012E
:100E600010929F011092A0011092A1010E94D72818
:100E7000811102C00E94C7280E947A158093000148
:100E80000E947A1581110E94022D809100018091AB
:100E90000001882311F090E001C095E09093AD012E
:100EA00085E0891B8093AC0107E411E02CE4E22E7D
:100EB00021E0F22ED8018D918D018F3F11F00E941B
:100EC000F915E016F106B1F70CE411E0F801819193
:100ED0008F018F3F11F00E94F915F1E002351F07D5
:100EE000A9F78AE0EFE2F2E0DF01282F1D922A95B0
:100EF000E9F7E2EAF1E0DF011D928A95E9F780E087
:100F000090E00E94D42E883E9E4F21F40E94D72864
:100F1000811102C00E948E1782E090E00E94CC2EC8
:100F20008093B20184E090E00E94CC2E182F82E2E0
:100F300090E00E94CC2E212F30E0382B3093AF016F
:100F40002093AE010E943918EFE3FCE93197F1F7E5
:100F500000C000000E94391880912F0280FF08C055
:100F60006FEF7FEF80E090E00E94F82E0E949E1CC1
:100F700083E090E00E94CC2E0E94F71F0E947A1519
:100F8000811102C082E001C080E08093280280E8E5
:100F90008093F4020E94B82B6DE070E087E091E04E
:100FA0000E94D924892B09F043C08091280263E074
:100FB00070E081FD3AC084E091E00E94D924892B41
:100FC000B9F56DE070E084EF90E00E94D924892BA0
:100FD00079F50E94001DDC01CB01805A9541AF4F8D
:100FE000BF4F8093A9029093AA02A093AB02B09343
:100FF000AC02E7EFF2E080E092E0DF019C011D929D
:1010000021503040E1F7F093FE04E093FD048FEFB0
:101010009FEF9093F6028093F50281E08093AE02F9
:101020008093AD021092290203C081E091E0C5CF08
:101030000E947A15811102C00E94052D81E091E085
:101040009093B8028093B70222242394312C80918C
:10105000E902853009F048C000E112E18091E9021F
:10106000853009F03BC08091E902843031F10E9463
:10107000301E1092BB0288E190E0A0E40FB6F89415
:10108000A895809360000FBEA093600083B7817F16
:10109000846083BF83B7816083BF7894889583B76A
:1010A0008E7F83BF0FB6F894A89580916000886109
:1010B00080936000109260000FBE8091E802882348
:1010C00009F4CCCF0E943918EFE2F2E0819181114E
:1010D000B2C6B2E0E933FB07C9F7C0CF1092DC0219
:1010E0000E94FC1F0E946D1D0E94391803EB11E045
:1010F000EFE2F2E0FDAFECAFDF01F80191918D91ED
:10110000892721E0ED3BF20719F08823B9F322C0CB
:10111000811120C00E940C1D8C018091B001909122
:10112000B1010817190709F49EC68FEF89AB8AAB86
:101130001BAA0E940C1D8160782F9DAB8CAB49A926
:101140005AA96BA98DA90E94CC0F1093B1010093ED
:10115000B00189C60E947A15882E8FE2E82E82E0BF
:10116000F82ED12CD7019D907D01F801A080A924F3
:1011700019F1C12CBB24B3948A2D8B21B1F08820A6
:10118000A1F0CEAADFAA91E0892D8B2109F490E08D
:1011900098AF0E940C1D8160782F9AAF89AF4EA93D
:1011A0005FA968AD8AAD0E94CC0FC394BB0CF6E07A
:1011B000CF12E2CFD8019C92D3940F5F1F4FBAE0B9
:1011C000DB12D0CF0E94001DF1E0FBAF0E947A1528
:1011D000882309F4F6C08091B3029091B402892B60
:1011E00041F18091BD019091BE010E94F11C8C01E2
:1011F000BE01655D7F4F86E0FB0111928A95E9F79C
:101200008091B3029091B4020E946F2880179107D9
:1012100080F48091B302FDE08F9FC0011124FC0196
:10122000E25EFA4F208122FD04C0865E9A4F0E9442
:10123000991DC090CA01D090CB010D2C000CEE0876
:10124000FF0810910D01412F50E0ECECF1E081E03E
:1012500090E04817590764F0219131914901330F0B
:10126000AA08BB08C80CD91CEA1CFB1C0196F1CFCC
:10127000F7FE03C0C12CD12C76016091C60170919C
:10128000C7018091C8019091C9010E94D51C2B0112
:101290003C01A0E6BAEEA70196010E94842F4B0103
:1012A0005C0148EC149F90011124C901330FAA0B73
:1012B000BB0B9C01AD01240D351D461D571DA5E03E
:1012C000B0E00E94842F9B01AC01C501B4010E94D3
:1012D000362F49015A0157FD0BC0213F3105410509
:1012E00051054CF000EF802E912CA12CB12C03C0A5
:1012F000812C912C540199EC49165104610471041C
:1013000014F18091C50190E0019669E170E00E94BE
:10131000222F8093C501880F991FFC01E653FE4FD1
:1013200011821082183110F41F5F01C018E1109370
:101330000D010E94001D6093C6017093C701809348
:10134000C8019093C901A2E0CA16D104E104F104D6
:101350001CF4812C912C54016091C1017091C20147
:101360008091C3019091C4010E94D51C6B017C0146
:10137000653671058105910584F00E94001D60931A
:10138000C1017093C2018093C3019093C401809105
:10139000FC018093C0018092BF011091C001A09117
:1013A000BF01B0E0A11BB109A70196010E948F2FD8
:1013B00024E630E040E050E00E94582F120F1093D6
:1013C000FC018091AE02882309F46EC180912A024B
:1013D00090912B020E94F11CC29708F469C00E94F0
:1013E0000C1D90932B0280932A0287EF92E090933A
:1013F000FE048093FD040E947A15882309F454C0EA
:1014000089E391E00E94FB238091F3020E94600F28
:10141000813059F038F0823069F0833071F48DE119
:1014200091E005C082E391E002C08BE291E00E946E
:10143000FB2319C084E291E0FACF1F928F9388E3D7
:1014400091E09F938F9381E092E09F938F930E940E
:10145000C32F81E092E00E9409240F900F900F901B
:101460000F900F900F908AE191E00E94FB238091F2
:10147000FC011F928F9382E491E09F938F938DEFF5
:1014800091E09F938F930E94C32F8DEF91E00E9474
:10149000092484E191E00E94FB230F900F900F90AC
:1014A0000F900F900F9004C080E491E00E94FB2306
:1014B0008091AE02882309F4DCC02091F5023091BE
:1014C000F6022115310509F4D4C080912902811159
:1014D000D0C0882E912C7101082E02C0EE0CFF1C8A
:1014E0000A94E2F7A9014E215F21452B11F48F5F89
:1014F000F0CF909128029401A5E0220F331FAA9506
:10150000E1F790FD12C08295880F807680931001DC
:10151000220F232F221F330B319520931301815E5D
:10152000809311011092140112C0E5E036952795C1
:10153000EA95E1F7220F220F220F2093100110925B
:101540001301295F2093110183E08093140124E6A5
:1015500030E047E050E06EE071E088E70E94602CE8
:10156000892B09F086C08091280280FD23C0C40128
:1015700075E0880F991F7A95E1F7AC0149505D4FEE
:1015800004E610E020E230E060E488E70E94812C6D
:10159000892B09F06EC00E944A1EE094F09480915D
:1015A000F5029091F602E822F922F092F602E0921A
:1015B000F5025FC080E2E8E0F2E0DF011D928A956B
:1015C000E9F755E0880C991C5A95E1F766E5462E37
:1015D00061E0562E42E551E0F20181912F01DA01DE
:1015E0009D91AD01B401690F711D69507D4F90E06F
:1015F000885F9D4FFC0107E09F01281B390BC22C1F
:1016000001C0CC0C2A95EAF73B01D12CD3011D91E6
:101610003D011C21202F2D192770B22E022E000C07
:10162000330BB12F01C0BB0FBA94EAF7BB2E319533
:10163000219531092770332701C016952A95EAF7BD
:10164000B12A1081B12AB082D39428E0D212DECF21
:10165000015031960F3F81F63AE5431631E05306CB
:1016600009F0BACF04E610E020E230E048E052E0B2
:101670008BCF8091AD028823B9F00E94001D0091AC
:10168000A9021091AA022091AB023091AC02DC01B8
:10169000CB01801B910BA20BB30B8F3F9F4FAF4F22
:1016A000BF4710F40E94301E8BAD81110E944A1E6C
:1016B00086E0E6E0F5E08E010F5F1F4FD801019054
:1016C0000D928A95E1F71092080510920905109283
:1016D0000A0510920B058B81811104C08C8188232F
:1016E00009F453C080910405909105050E94F11CF6
:1016F0009C0190910005992309F4C0C3253131055F
:1017000008F443C09F3F19F09F5F90930005FB8052
:10171000FF2061F00E9497291F1414F491E001C08A
:101720009FEF899F802D112480930805FC80FF2066
:1017300061F00E9497291F1414F491E001C09FEFFB
:10174000899F802D1124809309053091080533234A
:10175000E1F0209109052223C1F045EB3403C001DB
:101760001124992319F09093080503C081E0809318
:10177000080535EB2303C0011124992319F0909338
:10178000090503C081E0809309058D81811104C0A2
:101790008E81882309F453C080910205909103053E
:1017A0000E94F11C9C019091FF04992309F46BC3E2
:1017B0002135310508F443C09F3F19F09F5F909396
:1017C000FF04FD80FF2061F00E9475291F1414F4AE
:1017D00091E001C09FEF899F802D112480930A051D
:1017E000FE80FF2061F00E9475291F1414F491E01F
:1017F00001C09FEF899F802D112480930B053091AC
:101800000A053323E1F020910B052223C1F045EBBB
:101810003403C0011124992319F090930A0503C0E1
:1018200081E080930A0535EB2303C001112499233D
:1018300019F090930B0503C081E080930B0546E0FF
:1018400050E0B80186E095E00E94A62F892BA9F40C
:101850008091080581110FC08091090581110BC08D
:1018600080910A05811107C081E090910B059111CB
:1018700003C080E001C081E080FD0E948E2B86E0E5
:10188000F801A6E0B5E001900D928A95E1F70E947B
:101890006D1D90912C02891721F080932C020E94DB
:1018A000001D8091E902843009F0D1CB83E0809360
:1018B000E9008091E80082FFCACB8091E80085FFB3
:1018C00021C00E94871A81111BC040E2C42ED12C76
:1018D000780109C08091F100D7018D937D01B1E0BD
:1018E000CB1AD10869F08091E80085FDF3CF809193
:1018F000E8008B778093E8000E94871A882399F389
:1019000091E001C090E08091E8008B778093E8003F
:10191000992309F49CCBE090A702F090A80289815A
:10192000E114F10461F08E3F09F05DC28A818330D9
:1019300008F442C18550833008F055C23DC189305A
:1019400009F44FC2F0F4843009F46DC050F48230D1
:10195000C1F108F05BC0813009F043C21A8289E00E
:10196000B1C1863009F466C008F03BC22D813E81CA
:101970003227232732274C816B818A810E941A28C3
:1019800032C2803109F4B4C080F48D3009F455C0FE
:1019900028F48C3009F025C280E1AEC08E3009F405
:1019A0004FC08F3009F476C01CC2823109F4A6C042
:1019B00008F4A1C0833109F4CBC08E3F09F4FCC008
:1019C00010C28A81823009F450C2833051F08130D4
:1019D00009F007C20E94001D9B838C837D836E8368
:1019E00002C280912D0190912E01892B09F4FBC137
:1019F000FE013396CE010D96ACADBDAD2D91BDAFC0
:101A0000ACAF2193E817F907B9F7EDC18A818230AD
:101A100009F0E7C16B817C818D819E810E947D2FC1
:101A20000E94A328E0C14C816B818A810E944128D9
:101A30009D8322C20E949D1ED6C11A8281EE42C1A0
:101A4000EA80FB80FE24EF24FE24AC80B12CBDE1B3
:101A5000AB16B10408F0C7C16801C701815E9C4F95
:101A60009601201B310B2A153B0508F0BCC1E1EEA5
:101A7000EE16F10430F40E94CC2ED60114968C930D
:101A800002C0F6011482FFEFEF1AFF0A2FEFC21A0D
:101A9000D20AE3CF80912D0190912E01892B09F478
:101AA000A2C1EA80FB80FE24EF24FE24CC80D12C4E
:101AB0003DE1C316D10408F096C15801C701815E0B
:101AC0009C4F9501201B310B2C153D0508F08BC157
:101AD00041EEE416F10428F4D50114966C910E94AD
:101AE000DA2EBFEFEB1AFB0AEFEFAE1ABE0AE6CF13
:101AF0000E94701E78C186E08A8375C1EA80FB80EF
:101B0000FE24EF24FE24AC80B12CFDE1AF16B1041D
:101B100008F069C16801C70187969601201B310B47
:101B20002A153B0508F05FC120EDE21622E0F2061F
:101B300030F40E94CC2ED60114968C9302C0F6018C
:101B40001482FFEFEF1AFF0A2FEFC21AD20AE3CF77
:101B5000EA80FB80FE24EF24FE24CC80D12C3DE1E2
:101B6000C316D10408F03FC140EDE41642E0F4068C
:101B700008F039C180ED92E08E199F098C159D0502
:101B800008F431C15801C70187969501201B310B1C
:101B90002C153D0508F027C1A0EDEA16A2E0FA06D3
:101BA00020F4F50164810E94DA2EFFEFEF1AFF0A9C
:101BB0002FEFA21AB20AE7CFEA818E2F90E08E3083
:101BC000910508F010C1FC01EA5AFF4F0C94772FE1
:101BD00088E0E0E3F1E0DE01919601900D928A95B4
:101BE000E1F780E2D8011D928A95E9F785E08983C3
:101BF00088E0FE01B196DE01159601900D928A955E
:101C0000E1F7F1C08CE9898381E08A831B821C8221
:101C1000EAC08C8190E0982F88272B81820F911D3C
:101C2000092E000CAA0BBB0B35E0880F991FAA1FC9
:101C3000BB1F3A95D1F7AC01BD01405E5F4F6F4FBE
:101C40007F4F481759076A077B0708F4CCC08C39C7
:101C5000E1E09E07A105B10508F0C5C04D39F1E0EE
:101C60005F076105710520F04CE951E060E070E02C
:101C7000481B590BBC0160587E4FC8010E94B32E0F
:101C8000B2C040E250E06FEF70E0C8010E94BC2F8C
:101C900080912D018983EA82A6C021E030E0309353
:101CA000A8022093A70282E390E090932E028093F3
:101CB0002D020E940C1D97C080912D018983EA821C
:101CC00080912D028B838FC040E250E06FEF70E077
:101CD000C8010E94BC2F87C08B81813059F018F059
:101CE000823001F180C080E2D8011D928A95E9F727
:101CF00084E078C08C819AE0D92E7E01B1E2EB0EAF
:101D0000F11CF7012D2D11922A95E9F7B7010E94D8
:101D1000FC1E8983F701DE01129601900D92DA9480
:101D2000E1F761C06C818AE0FE013596DE01919693
:101D300001900D928A95E1F789A19AA181153CE560
:101D4000930741F420912D0130912E01232B11F4A2
:101D500080E090E09AA389A38BA19CA181154CE51A
:101D6000940741F420912D0130912E01232B11F481
:101D700080E090E09CA38BA38DA19EA18115ACE592
:101D80009A0741F420912D0130912E01232B11F45B
:101D900080E090E09EA38DA38FA198A58115BCE55E
:101DA0009B0741F420912D0130912E01232B11F43A
:101DB00080E090E098A78FA3643070F4EAE06E9F13
:101DC000B001112469507D4F4AE050E0CE01819668
:101DD0000E94FE2E80E001C08FEF89830E948B2835
:101DE00002C08FEF89838091E902843009F02FC906
:101DF0008091E9008F702091EC00922F917020FD6E
:101E000090E8F92EF82A82E08093E9008091E800BA
:101E100080FF0CC040E050E060E270E0C8010E942A
:101E200017258091E8008E778093E8008F2D8F70C2
:101E30008093E9000CC909BD19BD09B400FEFDCFAE
:101E40008091D8008F7D8093D8008091E0008260DF
:101E50008093E0008091E00081FDFCCF1092DC02D5
:101E60000E94FC1FFBC81BAEB1C986E290E00E9435
:101E7000CC2E1B821C821D828E83B5CF2B30310568
:101E800008F042CC82CC2B30310508F097CCD7CC6F
:101E90001092DC020E94FC1F2FEF84E39CE0215093
:101EA00080409040E1F700C000009AE088E10FB662
:101EB000F894A895809360000FBE90936000FFCFC8
:101EC000982F92959F7019F0892F24E001C020E08F
:101ED000982F9695969511F02E5F892F982F9695AD
:101EE00009F02F5F822F0895A5E0B0E0EAE7FFE058
:101EF0000C948B2E25E0FC01DE01119601900D92D1
:101F00002A95E1F7FC01228189819A81222359F0E7
:101F1000662349F00E942D1F182F682F89819A810E
:101F20000E949D1F03C00E94691F182F69817A813A
:101F3000812F0E94801E2596E3E00C94A72E9C0121
:101F40003A9521153F4130F5BC0166277270AC010E
:101F5000442754709C012227387094FF0FC090FFD3
:101F600002C080E101C080E0672B09F08062452B50
:101F700009F08064232B79F080680895892F81709F
:101F8000672B09F08260452B09F08460232B19F040
:101F90008860089580E00895A7E1B0E0E2EDFFE0F9
:101FA0000C94872E4B8B5C8B6D8B7E8B8F8B611192
:101FB0001092B20216E0CE010D96DC01E12F1D92C7
:101FC000EA95E9F725E0FE017396DC0101900D9298
:101FD0002A95E1F76F87FC01DE011796812F0190AA
:101FE0000D928A95E1F7CE0107960E94A3218111F7
:101FF00037C086E0FE013796DE01119601900D9202
:102000008A95E1F7DF800885EA84FB84A701602FC9
:102010008D2D0E942018811123C02091470230E0AD
:10202000C9010196877099274091780250E0841782
:10203000950779F1D9820A83FD82EC82129FD00143
:10204000139FB00D1124A85BBD4F96E0FE013196A1
:1020500001900D929A95E1F7809347020E942F1804
:1020600016E08091780290914702891701F1189F3C
:10207000C0011124885B9D4F0E94A3218823B9F0E1
:102080008091780290E0019687709927809378027A
:10209000E8CF1092DC020E94FC1F109247021092BF
:1020A0007802E1E4F2E0DF011D921A95E9F7679604
:1020B000E7E00C94A32EA4E0B0E0E1E6F0E10C949C
:1020C000822E7C01DC0113964D915C911497119640
:1020D0006C9111978C910E9420188111F9C361E0D5
:1020E000C7010E94740F8C01F7018281882399F146
:1020F000C80190568115F0E29F0748F0905E811567
:1021000020E1920720F0915C81159F4118F4C801ED
:10211000992708C00F3F110509F010F4C80102C04B
:1021200080E090E09C01245031092432310518F000
:102130008B970E9780F4E091C501F0E0EE0FFF1F42
:10214000E653FE4F808191818F3F4FE7940719F04E
:10215000019691838083D70112968C918823E1F0B8
:102160008091B3029091B4020097B1F0081719075B
:1021700099F0BDE08B9FC0011124FC01E25EFA4F93
:10218000208124602083865E9A4FFC0111830083A6
:102190000E94991D1092B202D70112968C91882349
:1021A00009F4B9C0C80182519F45409708F081C326
:1021B0008FEF93E00E94CC2E81118AC36EEEF62E33
:1021C000F00E0FE113E0FF2071F00115B4E01B07E2
:1021D00009F47EC3C8010E94CC2E811101C0FA947B
:1021E0000F5F1F4FF0CF19821A821B821C82CC24F2
:1021F000CA947801EFEFEE1AFE0AC8010E94CC2EB5
:1022000089831A82882309F463C3813009F07EC070
:102210005801F2E0AF0EB11CC7010E94CC2ED82E9F
:102220008A83882309F454C38FEF8D0D833060F4C3
:10223000780123E0E20EF11CC5010E94CC2E8B83B5
:10224000811164C08701D5CF8BEF8D0D833078F578
:10225000480143E0840E911CC5010E94CC2E8B8363
:10226000811102C07401EECF780154E0E50EF11C3B
:10227000C4010E94CC2E8C83882321F32B813C81C6
:1022800021308FEF380718F0922F80E001C0C9018C
:10229000A6E0DA1631F0B7E0DB1631F00E94E22A50
:1022A000D1CF0E94A72ACECF0E941F2ACBCFE4E035
:1022B000DE1611F07501C6CFC5010E94CC2ED82EB6
:1022C0007801F4E0EF0EF11CC80103960E94CC2EB9
:1022D000DD2009F4FDC2882309F4FAC2282F30E07A
:1022E00021503109C29EA001C39E500D11248D2D95
:1022F00090E00197840F951F019708F4A3CFAFE9F1
:10230000BFE01197F1F700C00000F6CFCE010196B3
:102310000E942D2497CF0031FFE51F0731F481E0A3
:102320000E94DE1F0E942124D3C201312FE5120733
:1023300011F482E0F5CF6801B7E5DB1AEFEFCE16B6
:10234000D10411F008F043C060E175E08C2D0E94CB
:10235000FC1E892BE1F58DE08C9DF0018D9DF00D2B
:102360001124E65EFA4F82818130C9F48091100514
:1023700090911105892B59F18091120590911305C7
:10238000892B29F18091140590911505892BF9F479
:102390008091160590911705892B49F018C082305D
:1023A000B1F48091140590911505892B81F02DE0F1
:1023B0002C9DC0012D9D900D1124FC01E25EFA4F71
:1023C00020812E7F2083865E9A4F0E94991DC8012E
:1023D00097558F3F910511F008F04EC05801BB246E
:1023E0002DE0029FF0011124AF01465E5A4F6A01B1
:1023F000D70112969C911297E25EFA4F808190FB72
:1024000080F9808312969C91992389F10E940C1D7A
:102410009093BE018093BD01F60182818F5F82831C
:102420009091B2028091DC02892B83830580F68132
:10243000E02D309739F0D6011B966D917C911C9759
:10244000C60109958DE08A9DF0018B9DF00D112448
:10245000E25EFA4F808181FF03C090E080E002C01D
:10246000902F812F9093B3028093B40205C081FF17
:1024700003C0CA010E947E1D033FBCE51B0741F15A
:1024800090F4083DFCE51F07E9F0093D2CE5120733
:1024900089F1073D4CE51407B1F506E221EE41EE66
:1024A00067ED7CE52CC0053F5CE51507E9F0B0F071
:1024B000063F9CE5190739F507E225EE46EE66EF83
:1024C0007CE51DC007E225EE45EE68ED7CE517C012
:1024D00006E221EE40EE63EF7CE511C007E225EE57
:1024E00044EE64EF7CE50BC006E221EE42EE65EFC0
:1024F0007CE505C008E221E045EE69ED7CE5C70119
:102500000E94BE1DE5C1D70112968C91882311F15E
:102510001092B1020E3DBCE51B07C1F0073AEDE594
:102520001E07B1F00115FCE51F07A1F41092DC02B3
:102530000E94FC1F2FEF44E35CE0215040405040DC
:10254000E1F700C000000E949E1CC2C10E948E17CD
:102550000E94480FD7010D911C91882349F0C801B2
:102560000E942D1FD82E682FC8010E949D1F04C0F5
:10257000C8010E94691FD82EB8018D2D0E94801EAF
:102580000E941016082FC82ED70112962C91129770
:1025900015964C91342F32953F70D92ED2945FE02E
:1025A000D5228D2C912CA12CB12CBCE08B16910442
:1025B00008F074C1F401EC59FF4F0C94772F892F68
:1025C000807F9F70192F882311F01295107F22238E
:1025D000B9F0112309F44EC180E2800F883010F069
:1025E000C11006C09091DC02192B1093DC0205C0CB
:1025F0009091B202192B1093B2020E94F9173AC1BE
:10260000802F0E943020112309F448C1005E1095EC
:10261000083010F0C11006C09091DC02192310930D
:10262000DC0205C09091B20219231093B2020E94FD
:10263000F91734C1592F507F892F8F70503211F004
:102640008295807FE1E0CE120AC0222321F036304D
:1026500008F024C10EC0353008F020C11AC0222372
:1026600059F0332331F040FF05C14F70D701159663
:102670004C930E94262012C1332359F0093309F0EC
:102680000AC1BFEFE7EEF3E0B150E040F040E1F700
:1026900000C10E941B2002C1892F869586958370F8
:1026A00019F0813059F0FAC0222319F0802F93706D
:1026B00002C080E090E00E94571DF6C0222319F06E
:1026C000802F937002C080E090E00E94411DECC01A
:1026D000222319F00E94B72902C00E94F0280E940C
:1026E0008E2BE2C0892F8370A9F52111DBC0802FCA
:1026F000829586958770880F880F202F2F70082E5F
:1027000001C0220F0A94EAF704FF09C04FE050E02D
:1027100001C0440F8A95EAF7842F809501C080E0BC
:1027200096959695492F4370423069F088F49091C0
:102730008102413019F0822B892302C0922B892B10
:102740000E94F71FAFC0822B909181028927F8CF9A
:10275000822BF6CF222319F0892F817001C0869534
:10276000882309F49FC0802F829586958770880FF3
:10277000880F202F2F70082E01C0220F0A94EAF72D
:1027800004FF09C04FE050E001C0440F8A95EAF70A
:10279000842F809501C080E096959695492F4370CF
:1027A000423059F078F49091F302413019F0822BC5
:1027B000892309C0922B892B06C0822B9091F302AA
:1027C000892701C0822B0E94D21F6CC0192F1F7055
:1027D000222339F0812F0E94EB1F802F0E94262098
:1027E00061C00E941B20812F0E94DE1F5BC041EF51
:1027F000841709F1481720F050EF851741F036C0D3
:10280000A2EF8A17F9F0B3EF8B1719F12FC022232B
:1028100079F0353008F042C0292F2F7181E090E027
:1028200001C0880F2A95EAF79091F30289271BC00F
:102830003630A0F5F1CF222339F0892F8F710E9415
:10284000EB1F2CC02223C9F3892F8F710E94DE1F3A
:1028500025C0222339F09F7181E001C0880F9A952D
:10286000EAF701C080E00E94D21F18C0222331F095
:10287000332319F3802F0E94732010C0332321F3D8
:10288000893349F4EFEFF7EE23E0E150F0402040C8
:10289000E1F700C00000802F0E94302088EF8D0DEE
:1028A000843010F40E946D1D60E0C7010E94740F17
:1028B0000FC000314FE5140711F481E006C001316B
:1028C0005FE5150709F083CD82E00E94EB1F2ACD5A
:1028D0002496ECE00C949E2E80E008959091AE0139
:1028E00092FF0DC0282F2871283019F4877F84604B
:1028F00006C0282F2471243011F48B7F886093FF49
:102900000DC0282F2871283119F4877E846106C0F4
:10291000282F2471243111F48B7E88612091AF011E
:1029200020FF0DC0382F3871383019F4877F81604F
:1029300006C0382F3171313011F48E7F886021FF4D
:102940000DC0282F2871283119F4877E816106C0B7
:10295000282F2171213111F48E7E886194FD877EAC
:102960000895A0E0B0E0E7EBF4E10C94842E7C0144
:102970005B016A018091A4028A3018F001E010E046
:1029800002C00AE010E0C1E0D0E0B501C701F601E5
:102990000995811115C021960C171D0794F0CC9F45
:1029A0009001CD9F300D300D112480E090E045E383
:1029B0004A95F1F70000019682179307C1F7E5CF1A
:1029C00081E0CDB7DEB7EAE00C94A02EEF92FF9243
:1029D0001F93CF93DF9300D000D000D0CDB7DEB7E8
:1029E0007B0180E090E00E94ED2D882309F456C021
:1029F0004091180150E04115510511F041E050E0BF
:102A00006091190170911A016A567D4FCE010696A8
:102A10000E94B32F60919202709193028091940270
:102A2000909195020E94D51C64367105810591052F
:102A300038F487E992E00E9400259E81891781F190
:102A400081E090E00E94ED2D182F882391F04091B5
:102A5000200150E04630510510F045E050E0609113
:102A60002101709122016A567D4FCE0101960E948C
:102A7000B32F87E992E00E94002591E02E81281370
:102A800090E0192311F10E94001D6093920270934F
:102A9000930280939402909395020CC010E001C0C1
:102AA00011E085E0E7E9F2E0DE01119601900D9278
:102AB0008A95E1F7112349F085E0FE013196ADE8F2
:102AC000B2E001900D928A95E1F785E0EDE8F2E041
:102AD000D70101900D928A95E1F7812F26960FB6C6
:102AE000F894DEBF0FBECDBFDF91CF911F91FF9055
:102AF000EF90089580918C02811118C08091D800C8
:102B000080618093D8008AE18A95F1F700C08091B6
:102B1000D90080FD02C082E001C081E080938C0278
:102B2000823021F40E94681A1092E90281E09091AB
:102B30008C02913009F080E00895A4E0B0E0E3EA6F
:102B4000F5E10C948A2E6091A0027091A10280910F
:102B5000A2029091A3020E94D51C643671058105E2
:102B6000910508F441C00E947A15882319F00E944B
:102B7000001D0EC00E94001D00919E0110919F013A
:102B80002091A0013091A101600F711F821F931F3E
:102B9000DC01CB010296A11DB11D89839A83AB8311
:102BA000BC8380912601909127018A569D4F4091C8
:102BB000250150E04530510510F044E050E0BE01E1
:102BC0006F5F7F4F0E94B32F82E090E00E94ED2D57
:102BD000882359F00E94001D6093A0027093A10207
:102BE0008093A2029093A30281E02496E4E00C94E7
:102BF000A62EF894E82FE295EF70F0E031A1282F8F
:102C00002F7081E090E001C0880F2A95EAF7982F95
:102C10009095932391A392A1892B82A378940895F0
:102C2000CF93DF938238910569F1B0F48133910538
:102C300009F477C048F48932910509F469C08A32F1
:102C4000910509F473C092C08533910509F45BC006
:102C500089339105B9F08AC0833E910591F138F42A
:102C6000803E9105D1F0823E910531F17FC0863ED4
:102C70009105D9F1873E9105E9F1843E910509F06E
:102C800075C028C02091AE0120FD5BC021FD59C058
:102C90002091AF0123FD61C069C08091AE0180FD2C
:102CA0004AC08091AF0180FF4CC08091AE0184FD8D
:102CB00030C183EE90E02FC18091AE0182FF3EC013
:102CC000F4CF8091AE0182FD39C08091AF0180FDCB
:102CD00038C0EBCF8091AF0181FF39C08091AE0148
:102CE00084FD17C187EE90E016C18091AE0183FF8D
:102CF0002BC0F4CF8091AE0183FD26C08091AF013F
:102D000081FD25C0EBCF8091AE0185FD26C022C09C
:102D10008091AE0185FD1EC08091AF0183FF1DC073
:102D20000AC08091AE0186FD1BC01DC08091AE011E
:102D300086FD19C015C089E390E0EDC082EE90E0F9
:102D4000EAC080EE90E0E7C086EE90E0E4C084EE5A
:102D500090E0E1C085E390E0DEC089E290E0DBC076
:102D60008AE290E0D8C081E390E0D5C0811530E5DB
:102D7000930708F045C0811540E4940718F09F7050
:102D8000906AC9C08F3B910520F5883A910558F0AB
:102D9000885AE82FF0E0EE0FFF1FE35AFE4F8081C4
:102DA00091819464B8C0853A910548F0855AE82F1E
:102DB000F0E0E65AFE4F808190E09064ACC0843031
:102DC000910508F0A8C0019709F0A3C081E090E048
:102DD000A2C08F3F910509F068F4803F910510F083
:102DE000906599C09C01205E31092830310508F0BA
:102DF00090C091C0811520E2920708F48CC089C070
:102E0000811534E5930708F051C0811543E5940717
:102E1000A8F0AC014370552721E030E002C0220F3A
:102E2000331F4A95E2F7982F9695969540E2949F26
:102E3000C0011124822B932B9A686DC0811522E565
:102E40009207A8F0AC014370552721E030E002C0A2
:102E5000220F331F4A95E2F7982F9695969540E2F8
:102E6000949FC0011124822B932B9C6854C0811520
:102E700031E59307B0F4482F4F704695469520E210
:102E8000429FA0011124982F937021E030E002C0EE
:102E9000220F331F9A95E2F7C9019D68842B952B69
:102EA0003AC0982F8827816F906A35C0EC01811550
:102EB0004AE59407F8F4C11589E5D80790F08C2FFE
:102EC0008F700E946E1494E0D695C7959A95E1F79D
:102ED000CF70D0E0DC2FCC27D0699E01282BC90110
:102EE0001AC0C11528E5D207A0F09C2F8827806F53
:102EF000906A11C090568115904258F48D2F8F71B1
:102F00000E946E14282F2F71CE0199279062922B68
:102F100002C080E090E0DF91CF91089568EE7EEFEF
:102F200080E090E00E94F82E60E082E090E00E9455
:102F3000DA2E60E083E090E00E94DA2E10928102A7
:102F400060E084E090E00E94DA2E64E082E290E0AB
:102F50000E94DA2E60E085E090E00E94DA2E60E0C8
:102F600086E090E00E94DA2E6FEF87E090E00E940A
:102F7000DA2E40E050E0BA0188E090E00E94EC2EAA
:102F800060E08DE090E00E94DA2E40E050E0BA016F
:102F900088E190E00E94EC2E60E087E190E00E94E2
:102FA000DA2E40E050E0BA018CE190E00E94EC2E75
:102FB00060E070E080E290E00E94F82E40E050E097
:102FC000BA0188E190E00E94EC2E80E00E94A828DF
:102FD0000E94C72840E050E0BA018FE090E00E94D4
:102FE000EC2E40E050E0BA0183E190E00E94EC2E2C
:102FF00008959091DC028091B202892B809339026E
:1030000048E050E069E772E089E392E00E94A62F71
:10301000892BA9F088E0E9E3F2E0A9E7B2E00190AA
:103020000D928A95E1F7E091B702F091B8023097DE
:1030300031F00280F381E02D89E392E00995089553
:10304000452B41F06F3F41F491E08F3F09F090E054
:10305000892F03C081E001C080E0817008958091D4
:10306000780290914702891719F08F5F8770FBCF24
:103070000895AFE0B0E0EFE3F8E10C947F2EAE01ED
:103080004F5F5F4F7A018AE0DA011D928A95E9F776
:1030900007E411E06A018CE4682E81E0782EAA240E
:1030A000A394B12C22E5822E21E0922EF80180819A
:1030B0008F3F09F440C0F894E82FE295EF70F0E0FC
:1030C00021A18F70A50102C0440F551F8A95E2F718
:1030D000CA01922F982B91A392A18095892382A354
:1030E000789400C0ECE4F1E0512C31E021912F3FC5
:1030F00089F0A22FA295AF70B0E090968C9190E0ED
:103100002F7002C0959587952A95E2F780FD02C041
:10311000832F01C080E0582A330F8E169F0631F7A7
:10312000D8018C918F3F11F00E94F915B0EABA9541
:10313000F1F7F60150820F5F1F4FFFEFCF1ADF0A42
:103140006016710609F0B2CF4AE050E0B70182EA9A
:1031500091E00E94A62F009741F02AE0F701A2EA31
:10316000B1E001900D922A95E1F70091AD01892B14
:1031700049F081E0809384020E940C1D90938302A9
:103180008093820280918402811102C0F12C22C0BE
:1031900080918202909183020E94F11C0597B0F306
:1031A00010E0015D1D4F45E050E062EA71E0C801AA
:1031B0000E94A62F892B59F085E0E2EAF1E0D801C0
:1031C00001900D928A95E1F7FF24F39401C0F12C50
:1031D000109284020E947A15E091AD01882309F4CF
:1031E00058C06E012BE0C20ED11C85E0D6011D92A5
:1031F0008A95E9F70E2F10E0015D1D4F8091A40222
:103200008A3048F446EE54E1B601C8010E94B11478
:10321000882399F00AC080918502909186020E94CD
:10322000F11C843F914070F71AC04DE955E1B60199
:10323000C8010E94B114811171C08091A4028F3F16
:1032400019F08F5F8093A4028091A4028A3008F461
:1032500067C00E940C1D9093860280938502809126
:103260008B02882309F454C085E0F60111928A95F7
:10327000E9F710928B02A091AC01B0E0A15DBD4FC7
:1032800085E0FE013B9601900D928A95E1F781E081
:1032900040C0F0E0E15DFD4F85E0A7E9B2E00190BC
:1032A0000D928A95E1F787E992E00E9400258093CC
:1032B000960280909C0290909D02A0909E02B090F9
:1032C0009F028091870290918802A0918902B0911B
:1032D0008A0288169906AA06BB06D1F08092870258
:1032E00090928802A0928902B0928A020E947A1576
:1032F00081110EC00E94001D861A970AA80AB90AF9
:1033000080929E0190929F01A092A001B092A10193
:1033100080E08F292F96EFE00C949B2E1092A40250
:103320008091AC0190E045E050E0B601815D9D4F99
:103330000E94A62F21E020938B02892B09F09BCFBE
:10334000E7CF08958091DE0208958093C0027093C4
:10335000C2026093C1028091E9028430F9F4809343
:10336000E9008FEF9091E800815095FD06C095ED42
:103370009A95F1F700008111F5CF8091E80085FF63
:103380000DC040E050E063E070E080EC92E00E940D
:1033900017258091E8008E778093E8000895BC019E
:1033A00084E00E94A5190895BC0183E00E94A5193C
:1033B000089524E02093E9002FEF3091E800215098
:1033C00035FD06C035ED3A95F1F700002111F5CF36
:1033D0002091E80025FF0BC040E050E066E070E07F
:1033E0000E9417258091E8008E778093E800089569
:1033F000CF93DF9321E02093E9002FEF3091E80095
:10340000215035FD06C035ED3A95F1F70000211148
:10341000F5CF2091E80025FF14C0EC0140E050E01A
:1034200068E070E00E9417258091E8008E77809315
:10343000E80088E0FE01AFEDB2E001900D928A95C0
:10344000E1F7DF91CF9108951F920F920FB60F927F
:1034500011242F933F934F935F936F937F938F9399
:103460009F93AF93BF93CF93DF93EF93FF93C0915D
:10347000E900CF708091EC00D82FD17080FDD0E8AA
:103480001092E9008091F000877F8093F00078949B
:103490000E9441251092E9008091F000886080939D
:1034A000F000CD2BCF70C093E900FF91EF91DF9139
:1034B000CF91BF91AF919F918F917F916F915F91CC
:1034C0004F913F912F910F900FBE0F901F90189525
:1034D000E8EDF0E080818E7F80831092E200109210
:1034E000DA001092E100A0EEB0E08C9181608C9344
:1034F00080818F77808319BCA7EDB0E08C918E7F9F
:103500008C9380818F7E80831092C30208952091D6
:10351000E4003091E50095E64091EC00842F817045
:1035200040FF23C08091E80080FD1DC08091E9022A
:10353000882399F0853099F08091EB0085FD11C0CA
:103540004091E4005091E5002417350729F391508C
:1035500011F09A01E1CF84E0089582E0089583E0BC
:10356000089581E0089580E008954091E80042FFC9
:10357000DDCF08958091EB0287FF11C08091E800B4
:1035800082FD05C08091E9028111F8CF11C08091C0
:10359000E8008B770BC08091E902882349F0809185
:1035A000E80080FFF8CF8091E8008E778093E800F4
:1035B0000895982F973068F59093E900981739F09F
:1035C0007091EC002091ED005091F00003C0242F89
:1035D000762F50E021FD02C09F5FECCF3091EB00D1
:1035E0003E7F3093EB003091ED003D7F3093ED0056
:1035F0003091EB0031603093EB007093EC0020933E
:10360000ED005093F0002091EE0027FDE5CF80E023
:1036100008958F708093E90081E00895A0E0B0E004
:10362000E4E1FBE10C94862EC8EDD0E088818F7E2A
:103630008883E7EDF0E080818160808384E082BF51
:1036400081E08093C30288818E7F888302EE10E040
:10365000F80110821092DA0081EEC82ED12CF6010A
:10366000108288818F7788838881806888838881A9
:103670008F7D888319BC1092E9021092EA021092A1
:10368000E8021092E70290EEE92EF12CF70180811A
:103690008B7F808388818160888342E060E080E066
:1036A0000E94D91AF60180818E7F8083F801808183
:1036B00081608083808188608083F70180818E7F34
:1036C0008083888180618883CDB7DEB7E8E00C9481
:1036D000A22E1F920F920FB60F9211242F933F9399
:1036E0004F935F936F937F938F939F93AF93BF930A
:1036F000EF93FF938091E10082FF09C08091E20087
:1037000082FF05C08091E1008B7F8093E100809172
:10371000DA0080FF2AC08091D80080FF26C0809107
:10372000DA008E7F8093DA008091D90080FF18C084
:1037300080E189BD82E189BD09B400FEFDCF81E051
:103740008093E9028091C30281110FC00E94681A20
:103750000E940E1B8091E20084608093E20005C00D
:1037600019BC1092E9021092C3028091E10080FF1F
:1037700017C08091E20080FF13C08091E2008E7F2D
:103780008093E2008091E20080618093E20080916A
:10379000D80080628093D80019BC85E08093E9024C
:1037A0008091E10084FF30C08091E20084FF2CC052
:1037B00080E189BD82E189BD09B400FEFDCF809121
:1037C000D8008F7D8093D8008091E1008F7E809318
:1037D000E1008091E2008F7E8093E2008091E20020
:1037E00081608093E2008091EA02882311F084E0F6
:1037F00007C08091E30087FD02C081E001C083E043
:103800008093E9028091E9028091E10083FF27C063
:103810008091E20083FF23C08091E100877F809345
:10382000E10082E08093E9021092EA028091E100D7
:103830008E7F8093E1008091E2008E7F8093E20092
:103840008091E20080618093E20042E060E080E0ED
:103850000E94D91A8091F00088608093F000FF9157
:10386000EF91BF91AF919F918F917F916F915F91F8
:103870004F913F912F910F900FBE0F901F90189571
:103880002091F1023091F2022617370748F06115B6
:10389000710539F42091E8002E772093E80001C0EB
:1038A000B901FC0120E06115710579F18091E9020F
:1038B0008823F1F18530F1F18091E80083FD3CC06F
:1038C0008091E80082FD2EC08091E80080FFEBCF60
:1038D0002091F3008091F20090E0922B6115710528
:1038E00051F08830910538F421912093F100615016
:1038F00071090196F3CF21E0089709F020E080914B
:10390000E8008E778093E800CECF2111CFCF0AC098
:103910008091E902882361F0853061F08091E800B0
:1039200083FD0AC08091E80082FFF2CF80E0089515
:1039300082E0089583E0089581E0089587E797E79E
:1039400090930108809300089AE088E10FB6F894FC
:10395000A895809360000FBE90936000FFCF78948D
:103960001F920F920FB60F9211248F939F93AF93D4
:10397000BF938091BC029091BD02A091BE02B09114
:10398000BF020196A11DB11D8093BC029093BD02A0
:10399000A093BE02B093BF02BF91AF919F918F9150
:1039A0000F900FBE0F901F901895CF92DF92EF925D
:1039B000FF922FB7F894C090BC02D090BD02E09067
:1039C000BE02F090BF022FBFA7019601261B370B46
:1039D000480B590BCA01B901FF90EF90DF90CF90CF
:1039E00008959C014FB7F8948091BC029091BD025C
:1039F000A091BE02B091BF024FBF821B930B0895EE
:103A00002FB7F8946091BC027091BD028091BE0204
:103A10009091BF022FBF08952FB7F8948091BC02F8
:103A20009091BD02A091BE02B091BF022FBF089538
:103A30001F920F920FB60F9211248F939F93AF9303
:103A4000BF938091BB02811113C08091BC02909101
:103A5000BD02A091BE02B091BF024196A11DB11D51
:103A60008093BC029093BD02A093BE02B093BF02AC
:103A7000BF91AF919F918F910F900FBE0F901F90AC
:103A800018952091B9023091BA022817390771F0C0
:103A90009093BA028093B902E091B702F091B80214
:103AA000309721F00084F185E02D0995089520914B
:103AB000B5023091B6022817390771F09093B6021B
:103AC0008093B502E091B702F091B802309721F0EF
:103AD0000680F781E02D099508950E947A158823C4
:103AE00059F0E091B702F091B802309729F00190B7
:103AF000F081E02D0995089580E00895CF93DF933C
:103B0000EC01E985FA85309719F06B857C8509957C
:103B10008B8180959091B20289238093B2020E949A
:103B2000F91785E0FE0111928A95E9F7DF91CF91AF
:103B30000895CF93DF93EC018C8181FD12C08260E8
:103B40008C839091B2028B81892B8093B2020E9468
:103B5000F917EF81F885309721F06B857C85CE01D0
:103B600009951092B4021092B3028C8180FD03C0BB
:103B7000CE010E947E1DDF91CF910895A0E0B0E0BC
:103B8000E4ECFDE10C94842E7C015B01C42FD22F68
:103B9000FC0182818823B1F04093B1020E940C1D88
:103BA0009093B0028093AF0280E28C0F883008F0CF
:103BB00052C0C77081E001C0880FCA95EAF70E9421
:103BC000262049C08091B102481335C08091AF02D0
:103BD0009091B0020E94F11C6C01B701C5010E94D6
:103BE0006F28C816D90638F510E21D0FCD17B9F0A9
:103BF00080E28C0F883040F4C77081E001C0880FEC
:103C0000CA95EAF70E941B20183010F581E09D2F1D
:103C1000977001C0880F9A95EAF70E942620802F9E
:103C20000E94EA201830B8F4D77081E001C0880FF4
:103C3000DA95EAF70AC080E28C0F883060F4C7702A
:103C400081E001C0880FCA95EAF70E941B2003C0DB
:103C5000802F0E94EA20CDB7DEB7EAE00C94A02EB8
:103C60008091AE029091AD02882389F0992369F08A
:103C700062E070E08EEE95E00E94D924892B19F065
:103C80008091AD0208951092AD029091AD0281E055
:103C9000892708958091AE028823F9F00E94001DC3
:103CA000DC01CB01805A9541AF4FBF4F8093A902F1
:103CB0009093AA02A093AB02B093AC028091AD02A4
:103CC00081110BC062E070E08CEE95E00E94D92477
:103CD000892B19F481E08093AD028091AD020895A3
:103CE000CF93DF93CFE1D3E060E0CE010E94DA2EE4
:103CF0002196C11584E0D807B9F7DF91CF910895D7
:103D00002091A7023091A802232BA1F4703F39F42F
:103D1000603F81F48091A5029091A60208958630BB
:103D200048F47A3038F4663028F4462F672F0E9422
:103D30004128089580E090E00895AAE0B0E0E3EA29
:103D4000FEE10C94802EA0902D01B0902E0181E018
:103D500090E090932E0180932D01612CC12CD12CE9
:103D6000712CE12CF12C00E010E046018E0C9F1C20
:103D7000F801EE0FFF1FE80DF91DE45EFC4F2591E1
:103D80003491402F672D862D0E941A280F5F1F4FF8
:103D90000630110569F78CE0E80EF11C73948AE097
:103DA0007812E1CF88E7C80ED11C639486E06812D0
:103DB000D7CF1A8219821C821B821E821D8218860E
:103DC0001F8284E690E09A87898707EF12E04AE035
:103DD00050E0B801CE0101960E94FE2E065F1F4FF3
:103DE0000F3183E0180799F7B0922E01A0922D01B0
:103DF0002A96EEE00C949C2E843080F49B01982F40
:103E00008AE0989FB001112469507D4F4AE050E04C
:103E1000C9010E94BC2E80E090E008958FEF9FEFD3
:103E2000089580E090E00E94571D80E090E00E949D
:103E3000411D1092B2020E94F917E6E0F5E086E01B
:103E4000DF011D928A95E9F7109200051092FF0498
:103E5000109201050E948E2B0895CF92DF92FF925F
:103E60000F931F93CF93DF936C010091F302809126
:103E70008102082BC7E0D0E010E0C8010C2E02C080
:103E8000959587950A94E2F780FD04C02197A8F7DD
:103E9000F12C09C0FC2EB6018C2F0E94801E0E94BE
:103EA0001016019799F38F2DDF91CF911F910F91EC
:103EB000FF90DF90CF900895CF93DF93EC010E94A5
:103EC0002D1FBE010E94801E0E941016DF91CF910F
:103ED0000895292F9A3078F5863068F590E036E01D
:103EE000239F800D911D1124682F677023E0969504
:103EF00087952A95E1F7FC01EE0FFF1FE80FF91FE8
:103F0000EC53FD4F40E050E080E0219130E0062E80
:103F100002C0369527950A94E2F721703327042EC4
:103F200001C0220F0A94EAF7822B4F5F5F4F4330A4
:103F3000510559F7089580E00895292F9A3088F5A2
:103F4000863078F590E036E0239F800D911D112496
:103F5000282F277051E001C0550F2A95EAF723E07A
:103F6000969587952A95E1F7FC01EE0FFF1FE80F64
:103F7000F91FEC53FD4F20E030E070E04081CB01B1
:103F8000022E02C0969587950A94E2F7817081957A
:103F900084278523842781932F5F3F4F233031056A
:103FA00069F70895982F9670963011F4886001C0D3
:103FB000877F8093F3020E94111F089521E030E073
:103FC00001C0220F8A95EAF720958091F30282239F
:103FD0000E94D21F089521E030E001C0220F8A958F
:103FE000EAF78091F302822B0E94D21F08958093FA
:103FF00081020E94111F089586E0EBE3F2E0DF01E9
:104000001D928A95E9F70E94111F0895882341F0B7
:1040100080959091B20289238093B2020E94F91791
:104020000895882339F09091B202892B8093B202CF
:104030000E94F9170895882341F080959091DC0241
:1040400089238093DC020E94F9170895882339F0B0
:104050009091DC02892B8093DC020E94F91708956D
:10406000882309F43FC09CEF980F913A60F4E9E38C
:10407000F2E09281891301C01282319642E0EF335F
:10408000F407B9F714C090E2980F983098F487704D
:1040900021E030E0A90102C0440F551F8A95E2F7E4
:1040A000CA0180959091DC0289238093DC020E94F2
:1040B000F91708959BE5980F933028F480E090E07D
:1040C0000E94571D089598E5980F973128F480E0D5
:1040D00090E00E94411D0895803F20F00E94F0284A
:1040E0000E948E2B08950F931F93CF93882309F47A
:1040F0006DC0C82F8CEF8C0F813A50F50BE312E0A6
:1041000081E492E0F8012191C21721F08E179F07F8
:10411000D1F70EC0E9E3F2E08FE392E02281C2130F
:1041200001C0128231968E179F07C1F70E94F917BE
:10413000EFEF80E0D8019D918D01C917C9F0EF3FE5
:1041400019F4911101C0E82F8F5F863099F735C0BF
:1041500080E28C0F883078F4C77081E090E001C075
:10416000880FCA95EAF79091DC02892B8093DC02D4
:104170000E94F9172BC0EBE5EC0FE33040F4F0E0C0
:10418000E65AFE4F808190E00E94571D1FC0E8E56F
:10419000EC0FE73150F4F0E0EE0FFF1FE35AFE4F53
:1041A000808191810E94411D11C0C03F78F08C2F09
:1041B0000E94B7290E948E2B09C0EF3FC9F20E2E34
:1041C000000CFF0BE75CFD4FC283D2CFCF911F9154
:1041D0000F9108951F93CF93DF93182F893319F010
:1041E000C0E0D0E002C0C0E5D0E0812F0E94732083
:1041F000209741F08FE99FE00197F1F700C00000A0
:104200002197F6CF812F0E943020DF91CF911F910F
:104210000895A0E0B0E0EFE0F1E20C94852E8091EB
:10422000460282958F7009F056C080914302882320
:1042300009F451C0C091780286E0B82E80914702FF
:10424000C81709F448C0F0904102E0904202C090C3
:104250004402D0904502A6016E2D8F2D0E94201899
:10426000D0E0811135C0BC9E8001BD9E100D11248F
:10427000F801E85BFD4F81818E112AC080818F118A
:1042800027C08281811124C0E380F480EC18FD08EE
:1042900060E081E492E00E94740F61E472E00E94A9
:1042A0006F28E816F906A0F4809146028F708061AD
:1042B00080934602F801E35BFD4F80818F7080613F
:1042C000808381E492E00E945B100E942F1803C05B
:1042D0002196C770B3CFCDB7DEB7E9E00C94A12E1D
:1042E0000F931F93CF938C01FC0143815481618113
:1042F00080810E942018C82F81111DC0F801808183
:1043000091810E945C1F92959F70963079F010F415
:10431000925001C09A50923088F4803F71F018F4A6
:10432000883E60F40AC0843F49F407C0883E28F004
:10433000813F21F402C0C0E001C0C1E08C2FCF91C9
:104340001F910F910895A1E1B0E0E9EAF1E20C9428
:104350007E2E8C0185E0F801DE011D9601900D9204
:104360008A95E1F7F801E28081E4A82E82E0B82E78
:104370008090440290904502A40160914202809195
:1043800041020E942018682E811147C1F801C380A4
:10439000D480F0904302C601881999094C01FF208E
:1043A00009F4FAC04080518060E0C5010E94740F9A
:1043B000B5010E946F28709046028816990608F091
:1043C000B7C04091440250914502B0904102A09084
:1043D0004202872D807F6A2D09F054C08B2D0E94E8
:1043E0002018811118C0F80181818A1114C08081C0
:1043F0008B1111C0FE2CE1100EC0872D8F708061D3
:104400008093460281E492E00E945B108091460214
:10441000F80185833FC1A601652D842D0E942018D7
:10442000811103C081E08E2502C080E090E0F82F6A
:10443000F170FF2E80FF1CC080917802209147020E
:1044400036E0821709F404C190E0389FF001399FEB
:10445000F00D1124E85BFD4F4181541206C04081EC
:10446000441203C04281E41203C001968770E9CF71
:10447000FE2CEE2009F40EC18091460281608093EB
:10448000460262C08B2D0E942018811110C0F801D5
:1044900081818A110CC080818B1109C0E11007C095
:1044A0007582C8010E945B1086E0F8019BC0C801BC
:1044B0000E9470218823B1F1EE20A1F120914602E3
:1044C000822F82958F7090E0029774F08091410264
:1044D0009091420298878F831986DB86CA862C8743
:1044E000CE0107960E945B1086E0F801A1E4B2E0DD
:1044F00001900D928A95E1F70E94092116C09090D3
:104500004102809042024091440250914502682D40
:10451000892D0E9420188823C9F0C8010E947021AB
:10452000811122C0C8010E945B10FF24F394B2C025
:10453000872D807F21F781E492E00E945B1086E066
:10454000F50111928A95E9F7F12CA4C0F801818157
:104550008811E3CF80818911E0CFE110DECF758231
:10456000C8010E945B1053C0EE20E1F22091460288
:10457000822F82958F7090E002970CF4B5CF8091D6
:104580004102909142029A8389831B82DD82CC8210
:104590002E83CE010196A6CF60E081E492E00E94D6
:1045A000740F61E472E00E946F288816990678F50E
:1045B000FE2CEE2009F4B6CFE0904102D0904202EA
:1045C00040914402509145026D2D8E2D0E9420187D
:1045D00081110FC0F80181818D110BC080818E1176
:1045E00008C086E0A1E4B2E001900D928A95E1F75F
:1045F00051C0C8010E947021811176CF809146027E
:10460000816080934602C8010E945B1043C086E02F
:10461000F50111928A95E9F73DC0EE2009F482CFA9
:10462000C8010E947021F82E882309F47BCF86E010
:10463000F801A1E4B2E001900D928A95E1F7809132
:104640004102909142020E945C1F0E94092122C0F7
:104650004D865E868D859E850E945C1F292F229542
:104660002F70223028F49F7039F0811105C00BC0E3
:10467000243028F49F7049F4805E883020F0C8010F
:104680000E945B106F2CF62C05C0F8019581907F7D
:1046900099F7F9CF8F2D6196E0E10C949A2ECF9384
:1046A000DF93C091FD04D091FE048A30B1F42091D3
:1046B000F402CE01875F9240622F70E00E94682E64
:1046C000281B822F66E00E94162FC82FC15008F4C5
:1046D0008FC080E20E944F23F9CF8D30E9F4C75F8D
:1046E000D2402091F402622F70E0CE010E94682E29
:1046F000281B822F9E01280F311D2115324018F0F2
:1047000080E0C0E0D0E0C80FD11DC950DD4FD0938C
:10471000FE04C093FD046CC096E0FE01A7EFB4E078
:1047200001900D929A95E1F7803E30F086E0FE010F
:1047300011928A95E9F70BC0F6E08F9FB001112422
:104740006C5C774F46E050E0CE010E94B32EC091E2
:10475000FD04D091FE0446E050E0BE0187EF94E0F6
:104760000E94A62F892B49F19E01275F3240A901A3
:1047700085E0569547958A95E1F781E090E0BC0188
:1047800002C0660F771F4A95E2F74091F5025091FB
:10479000F602462B572B2B5F3F4F65E0369527954A
:1047A0006A95E1F702C0880F991F2A95E2F7842BDA
:1047B000952B9093F6028093F5029E01215F324083
:1047C0004091F402642F70E0C9010E94682E481BDA
:1047D000463010F4240F311D211582E0380710F007
:1047E00020E030E029503D4F3093FE042093FD043B
:1047F000DF91CF910895CF93DF93EC01FE01849177
:10480000882321F00E944F232196F8CFDF91CF918A
:1048100008950F931F93CF93DF93EC01FC01019058
:104820000020E9F78F0101501109C017D10720F4CA
:1048300089910E944F23F9CFDF91CF911F910F9162
:1048400008958091F302982F9670963011F4886045
:1048500001C0877F0E94D21F0895A0E0B0E0E3E38B
:10486000F4E20C94842EEC018AE0A82E2881222305
:1048700009F49AC0213009F041C08981813039F4AE
:104880008E010E5F1F4F8A810E94EA2008C082308D
:1048900041F48E010E5F1F4F8A810E947320E80150
:1048A00081C0833039F48E010E5F1F4F8A810E94D0
:1048B0003020F5CF843011F0219674C02A812296E1
:1048C00080E090E030E0205331092A30310558F47F
:1048D000A89EA001A99E500D1124C901840F951F07
:1048E00021962881EFCF009709F45CC0EFE9FFE043
:1048F0003197F1F700C000000197F5CFE22FF0E00B
:10490000EC54F84FB490822F86958695869590E06A
:10491000FC01EC55F84FE4902770F12C022E02C0F8
:10492000F594E7940A94E2F7F1E0EF22FF24FC010A
:10493000EC56F84FC490D12C022E02C0D594C794E7
:104940000A94E2F731E0C322DD24FC01EC57F84F72
:10495000049110E002C0159507952A95E2F70170C1
:104960001127E114F10419F081EE0E947320C114A3
:10497000D10419F086EE0E9473208B2D0E94EA204C
:10498000C114D10419F086EE0E943020E114F10424
:1049900019F081EE0E9430200115110519F08CE20A
:1049A0000E94EA20219662CFCDB7DEB7EAE00C94F0
:1049B000A02EEF92FF920F931F93CF93DF93EC0102
:1049C0007B0164E670E088E70E94BE2B8C01EC0E50
:1049D000FD1ECE15DF0561F017FD0AC0FE018491B2
:1049E00064E670E00E94312C8C012196892B89F3BA
:1049F0000E94A82CC801CDB7DEB7E6E00C94A42E27
:104A0000FC01AC014B5F5F4F8FEF91E32191822757
:104A100028E030E087FF03C0880F892701C0880F96
:104A200021503109B9F7E417F50781F70895EF929E
:104A3000FF920F931F93CF93DF937C018B010E9412
:104A4000871A811119C0E70101151105A1F08091A4
:104A5000E80085FD0AC08091E8008E778093E80029
:104A60000E94871A882381F307C089918093F100FF
:104A700001501109E9CF80E0CDB7DEB7E6E00C9434
:104A8000A42EAAE2B0E0E7E4F5E20C948B2EEBEE64
:104A9000F2E083EF92E02091F10021938E179F07BF
:104AA000D1F78091EC02833009F463C030F4813097
:104AB00071F0823009F49FC0B6C08A3009F48BC00F
:104AC0008B3009F46EC0893009F0ADC020C08091F0
:104AD000EB02813A09F0A7C08091E800877F8093BC
:104AE000E8008091EF029091F002892B21F468E0B8
:104AF0008FED92E003C060E080E090E070E00E9403
:104B0000401C8091E8008B778093E8008CC08091F6
:104B1000EB02813209F087C08091EF029091F002A0
:104B2000009719F0029709F07EC08091E800877F16
:104B30008093E8008091E80082FD05C08091E90241
:104B40008111F8CF70C02091F3008091F20090E0C5
:104B5000922B029731F48091F100813011F0863070
:104B600021F48091F1008093DE028091E8008B7740
:104B700056C08091EB02813A09F055C08091EF0256
:104B80009091F002892B09F04EC08091E800877F58
:104B90008093E8008091E80080FFFCCF80912F0196
:104BA00039C08091EB028132F1F58091EF02909152
:104BB000F002892BC1F58091E800877F8093E8009F
:104BC0000E94BA1A8091ED0280932F011092DC02AC
:104BD0000E94FC1F28C08091EB02813221F5809158
:104BE000E800877F8093E8000E94BA1A8091EE0265
:104BF0008093DD0218C08091EB02813AA1F480918C
:104C0000E800877F8093E8008091E80080FFFCCF78
:104C10008091DD028093F1008091E8008E7780938F
:104C2000E8000E94BA1A8091E80083FFEBC18091EE
:104C3000EB029091EC02492F50E04A30510508F008
:104C4000E1C1FA01E059FF4F0C94772F803821F031
:104C5000823809F0D7C108C08091E7029091E8023C
:104C6000992389F082600FC08091EF028F708730A6
:104C700008F0C8C18093E9008091EB0085FB88278C
:104C800080F91092E9009091E800977F9093E800F6
:104C90008093F1001092F1007CC1282F2D7F09F044
:104CA000B1C1882319F0823061F0ACC18091ED026E
:104CB000813009F0A7C1933009F080E08093E802C9
:104CC0002EC08091ED0281112AC08091EF028F7079
:104CD0002FEF280F263008F095C18093E90020912E
:104CE000EB0020FF1CC0933021F48091EB00806228
:104CF00014C09091EB0090619093EB0021E030E0C4
:104D0000A90102C0440F551F8A95E2F74093EA00BB
:104D10001092EA008091EB0088608093EB00109283
:104D2000E9008091E800877F8093E8000E94BA1A2A
:104D300069C1811167C11091ED021F778091E30075
:104D40008078812B8093E3008091E800877F8093B7
:104D5000E8000E94BA1A8091E80080FFFCCF8091A1
:104D6000E30080688093E300111102C082E001C07B
:104D700083E08093E90246C18058823008F042C146
:104D80002091ED023091EE022C3D53E0350779F58C
:104D900083E08A838AE289834FB7F894DE01139611
:104DA00020E03EE051E2E32FF0E050935700E49121
:104DB00020FF03C0E295EF703F5FEF708E2F90E011
:104DC000EA3010F0C79601C0C0968D939D932F5F77
:104DD000243149F74FBF8091E800877F8093E80036
:104DE0006AE270E0CE0101960E94401CC0C0809132
:104DF000EF029091F002432F552743305105B1F057
:104E000068F44130510509F40CC14230510509F0F4
:104E1000F9C08BE590E0E3EDF6E057C04132510573
:104E200089F14232510509F43CC0ECC0C90199270F
:104E300081309105B9F070F082309105D9F0039777
:104E400009F0E0C0E0E4F7E0E4918E2F90E0E0E4C8
:104E5000F7E038C0E0E8F7E0E4918E2F90E0E0E87A
:104E6000F7E030C0EEE6F7E0E4918E2F90E0EEE65A
:104E7000F7E028C0EEE5F7E0E4918E2F90E0EEE554
:104E8000F7E020C08330910508F0BCC0880F991F5F
:104E9000FC01EA56FE4F0190F081E02D89E090E0A0
:104EA00014C08330910508F0ADC0FC01EE0FFF1F68
:104EB000E057FE4F0190F081E02DDC01A357BE4F7B
:104EC0008C9190E0009709F49DC02091E800277F25
:104ED0002093E8002091F1023091F202281739075F
:104EE00008F4C90140E0009789F12091E9022223EA
:104EF00009F43DC02530D9F12091E80023FD37C0E9
:104F00002091E80022FD2FC02091E80020FFEBCF88
:104F10004091F3002091F20030E0342B009759F0DB
:104F20002830310540F444914093F10031960197C7
:104F30002F5F3F4FF3CF41E02830310509F040E0CB
:104F40002091E8002E772093E800CDCF4111CDCFFE
:104F50000AC08091E902882351F0853041F08091A8
:104F6000E80083FD04C08091E80082FFF2CF8091C9
:104F7000E8008B778093E80045C0803809F042C094
:104F80008091E800877F8093E8008091EA02809317
:104F9000F1008091E8008E77C7CE811133C08091F7
:104FA000ED029091EE029927029764F58091E80056
:104FB000877F8093E8001091ED021093EA020E942F
:104FC000BA1A111106C08091E30087FD02C081E08A
:104FD00001C084E08093E90242E061EC81E00E943C
:104FE000D91A42E261EC84E00E94D91A42E261ECF3
:104FF00082E00E94D91A42E260EC83E00E94D91A52
:105000008091E9028091E80083FF10C08091E80060
:10501000877F8093E8008091EB0080628093EB00B3
:1050200005C082E190E0EEE2F7E04FCFAA96E3E020
:105030000C94A72E1F93CF93DF93962F8630E8F41E
:105040006A30D8F44630C8F4632F122FC42FD0E052
:10505000CC0FDD1F2CE0929FC00DD11D112498E7CD
:10506000899FC00DD11D1124CE0187960E94DA2E92
:10507000612FCE0188960E94DA2EDF91CF911F9189
:1050800008950F931F93CF93DF93863008F56A300E
:10509000F8F44630E8F4C42FD0E0CC0FDD1F2CE04C
:1050A000629FC00DD11D112438E7839FC00DD11D13
:1050B0001124CE0187960E94CC2E90E0182F002755
:1050C000CE0188960E94CC2E9801282BC90102C0DF
:1050D00080E090E0DF91CF911F910F910895AAE0B9
:1050E000B0E0E5E7F8E20C948C2E9C0137552F3F99
:1050F000310509F050F4BE016F5F7F4F0E94FC1E26
:10510000892B19F489859A8502C084E690E02A9655
:10511000E2E00C94A82EEAE1F5E080E090E06DEE8C
:105120007AE244E15BE229E53AE2768365835087DF
:105130004783328721879487838701963D96843001
:10514000910599F7089586E290E00E94DA2E08957D
:10515000CF93C82F811102C06FEF01C063E583E2D6
:1051600090E00E94DA2EC11102C06FEF01C06EE123
:1051700084E290E00E94DA2EC11102C06FEF01C0FC
:1051800065E585E290E00E94DA2ECF91089580E0F7
:105190000E94A82860E070E0CB010E94A3280E9432
:1051A0009D1E0E94701E81E00E94A828089583E23F
:1051B00090E00E94CC2E833581F484E290E00E943E
:1051C000CC2E8E3151F485E290E00E94CC2E91E0FD
:1051D000853509F090E0892F01C080E08170089545
:1051E000803F39F48091090587FF6AC01092090554
:1051F00067C0813F29F4809109051816BCF360C08F
:1052000090910805823F29F497FF5AC01092080533
:1052100057C0833F19F41916CCF352C090910A0578
:10522000893F31F419160CF04BC010920A0548C0A2
:105230008A3F19F497FF44C0F8CF8B3F39F480912F
:105240000B0587FF3DC010920B053AC08C3F29F437
:1052500080910B051816BCF333C0843F21F4809174
:1052600007058E7F17C0853F21F4809107058D7F4C
:1052700011C0863F21F4809107058B7F0BC0873FCB
:1052800021F480910705877F05C0883F31F4809124
:1052900007058F7E8093070513C08D3F21F4809111
:1052A00001058E7F0BC08E3F21F4809101058D7F1B
:1052B00005C08F3F29F4809101058B7F8093010504
:1052C00080910805811106C080910905811102C0F5
:1052D0001092000580910A05811106C080910B058E
:1052E000811102C01092FF0408958091010580FD94
:1052F00016C081FD16C082FD18C08091FF0488236E
:1053000091F0883290F428E0829FC001112468E275
:1053100070E00E94222F862F672B29F007C082E0C1
:10532000089584E0089581E0089588E008958091CB
:10533000010580FD14C081FD14C082FD16C080915E
:105340000005882381F08E3180F420E5829FC00122
:1053500011246EE170E00E94222F862F089584E1CF
:10536000089588E2089588E0089580E50895803FD3
:1053700021F40E949729819504C0813F29F40E945D
:105380009729809309050895823F21F40E94972967
:10539000819504C0833F29F40E94972980930805D2
:1053A0000895893F19F40E94752905C08A3F31F498
:1053B0000E947529819580930A0508958B3F21F4F9
:1053C0000E947529819504C08C3F29F40E9475299B
:1053D00080930B050895843F21F480910705816037
:1053E00017C0853F21F480910705826011C0863F78
:1053F00021F48091070584600BC0873F21F48091E0
:105400000705886005C0883F31F4809107058061F9
:105410008093070508958D3F21F4809101058160F7
:105420000BC08E3F21F480910105826005C08F3F43
:1054300029F4809101058460809301050895A5E019
:10544000B0E0E5E2FAE20C948A2E8C019093A60279
:105450008093A502011580E21807B8F4802F0E94FE
:105460003020C801805E9109089718F001151105D8
:1054700031F4C8010E949F0F0E941B2016C0C80172
:105480000E949F0F0E94062010C080EF89838A83AC
:105490001B820E940C1D8160782F9D838C83498123
:1054A0005A816B818D810E94CC0F2596E4E00C948B
:1054B000A62E0F931F93CF93DF938C01EB0160E136
:1054C00075E08C2F0E94FC1E892BE1F5DD27C45F5F
:1054D000DA4F8881F80112821882833079F048F41B
:1054E000813041F1823071F5809112059091130560
:1054F00009C0843051F08530E9F024C08091140552
:10550000909115050097B1F01BC080911605909100
:1055100017050097A9F4209110053091110580918D
:105520001205909113052115310541F0009741F4C2
:10553000C90106C08091100590911105009711F0E6
:105540000E941F2ADF91CF911F910F910895A5E02E
:10555000B0E0EDEAFAE20C948A2E8C019093A60258
:105560008093A502011580E21807B8F4C801805E97
:105570009109089718F00115110531F4C8010E942E
:105580009F0F0E94262005C0C8010E949F0F0E9405
:105590001120802F0E94732011C080EF89838A839D
:1055A00081E08B830E940C1D8160782F9D838C830A
:1055B00049815A816B818D810E94CC0F2596E4E050
:1055C0000C94A62ECF93DF93EC010E94A72ACE0164
:1055D0000E941F2ADF91CF9108950F931F93CF93BD
:1055E000DF938C01862F60E175E00E94FC1E892B01
:1055F000B1F4C0911005D0911105209781F0F80108
:105600008281833039F4CE010E94E22ACE010E94C9
:10561000E22A02C0843018F0CE010E94E22ADF9113
:10562000CF911F910F9108950F931F93CF93DF9305
:105630008C01EB0160E175E08C2F0E94FC1E892B30
:1056400009F067C0DD27F8018281813039F4948147
:1056500092FD13C090FF11C082E00FC0823041F470
:10566000F801848182FD06C080FD06C083E005C08C
:1056700086E003C085E001C084E0C45FDA4F888320
:105680008330B1F028F4813071F0823031F041C0C4
:105690008430A9F0853079F13CC080911205909159
:1056A00013050097A1F5809110059091110520C078
:1056B00080911405909115050097E9F028C080911C
:1056C000160590911705009711F58091100590919E
:1056D0001105009749F00E94E22A809112059091ED
:1056E0001305009781F013C0809112059091130566
:1056F000009779F00CC080911005909111050097EA
:1057000041F00E94E22A80911005909111050E94BB
:10571000A72ADF91CF911F910F9108950E940C1D30
:1057200020910805211104C020910905222321F0B0
:10573000909305058093040520910A05211104C06A
:1057400020910B05222321F09093030580930205FD
:10575000E091B702F091B802309749F082E080936F
:1057600006050480F581E02D86E095E00995089511
:105770001092B9008CE08093B8000895A0E0B0E0EA
:10578000E4ECFBE20C94832EB82EEB010E940C1D7E
:105790006C01C431D10558F0CF3F8FEFD80759F0D5
:1057A000CE0164E170E00E94682E7B0107C0EE2408
:1057B000E394F12C03C025E0E22EF12C84E8A82E1E
:1057C00094EA992E1092BC009092BC000E940C1D8D
:1057D0008C018091BC0087FD07C0C8010E94F11CAC
:1057E000E816F906B0F729C08091B900887F8830A3
:1057F00041F08091B900887F803119F00FEF1FEFE1
:105800001EC0B092BB00A092BC000E940C1D8C0177
:105810008091BC0087FD07C0C8010E94F11CE816FA
:10582000F906B0F70AC08091B900887F883111F07D
:10583000803421F700E010E00EC00EEF1FEFCF3FE5
:105840008FEFD80709F4BECFC6010E94F11CC8171C
:10585000D90708F0B7CFC801CDB7DEB7EBE00C949D
:105860009F2E0F931F93CF93DF93EB018093BB0089
:1058700084E88093BC000E940C1D8C018091BC00C8
:1058800087FD0DC0CF3F8FEFD807C1F3C8010E943D
:10589000F11CC817D90790F78EEF9FEF0CC020912D
:1058A000B900287F81E090E0283211F480E090E098
:1058B000919581959109DF91CF911F910F91089555
:1058C000A0E0B0E0E6E6FCE20C94862E6B018A01D3
:1058D0007901B9010E94BE2BE6010C0D1D1DC017F8
:1058E000D10741F424E92093BC00CDB7DEB7E8E04E
:1058F0000C94A22E97FDF6CFB70189910E94312C0E
:10590000EECFA0E0B0E0E7E8FCE20C94862EC62FD4
:105910006A017901B8010E94BE2B97FD11C0B80140
:105920008C2F0E94312CE601EC0CFD1CCE15DF05FE
:1059300039F097FD05C0B80189910E94312CF6CF4E
:1059400024E92093BC00CDB7DEB7E8E00C94A22E8A
:1059500084E98093BC0008958EE14A9B02C0815087
:10596000E1F74A9BFECF08955A9880E28A95F1F7B5
:105970005A9A0895FC012AE02A95F1F728E090E070
:1059800080E031E040E14A95F1F7880F4A9B02C080
:105990008160932700C0000040E14A95F1F7215053
:1059A00089F720E12A95F1F729B100C0000030E124
:1059B0003A95F1F722FB222720F992272081920FB6
:1059C00090830895A1E0B0E0E8EEFCE20C94882E0C
:1059D00019828C017C01E60EF11C0E151F0551F099
:1059E0000E94AC2CCE0101960E94BA2CF801819342
:1059F0008F01F3CF81E09981911180E02196E6E05B
:105A00000C94A42E529A5A9A089552985A9AEA9A45
:105A1000E9E6F0E080818F7C80830895615091E019
:105A200001C0990F6A95EAF720E031E0992361F00F
:105A3000492F482319F05A9A232701C05A9840E267
:105A40004A95F1F79695F2CF222311F05A9A01C0A8
:105A50005A9880E28A95F1F75A980895FF920F9329
:105A60001F93CF93DF93EC018C01060F111DC0171C
:105A7000D10741F0F9900E94B42C68E08F2D0E946C
:105A80000E2DF5CFCDB7DEB7E5E00C94A52E1F9215
:105A90000F920FB60F9211240F931F932F933F93E2
:105AA0004F935F936F937F938F939F93AF93BF9326
:105AB000EF93FF93CF93DF931F92CDB7DEB7198299
:105AC0000E94AC2CCE0101960E94BA2C082F06959C
:105AD00006950695902F96959570202F2570920F1C
