:100000000C9474030C94BB030C94BB030C94BB03BF
:100010000C94BB030C94BB030C94BB030C94BB0368
:100020000C94BB030C94BB030C94AB270C947D285D
:100030000C94631E0C94BB030C94BB030C94BB0385
:100040000C94BB030C94BB030C94BB030C94BB0338
:100050000C94BB030C94CB1E0C94BB030C94BB03FD
:100060000C94BB030C94BB030C94BB030C94BB0318
:100070000C94BB030C94BB030C94BB030C94BB0308
:100080000C94BB030C94BB030C94BB030C94BB03F8
:100090000C94BB030C94BB030C94BB030C94BB03E8
:1000A0000C94BB030C94BB030C94BB03CB0DCE0D83
:1000B000D60DDB0DE00DE50DEA0DEF0DF40DF90D9C
:1000C000FE0D030E050E080E0B0E0E0E110E140E75
:1000D000160E1B0E9F139F13D113D1131E143C1425
:1000E000941594157E141315241524158415941550
:1000F00094158D151A161A162C162C1623162C1656
:100100002C162C161A161A1628162C162C1628160B
:10011000EA281129092A1129092A5D298029092A91
:10012000D729E629000000000000000000000000C0
:1001300000000000000000000000000000000000BF
:1001400000000000000000000000000000000000AF
:10015000000000000000000000000000000000009F
:10016000000000000000000000000000000000008F
:10017000000000000000000000000000000000007F
:10018000000000000000000000000000000000006F
:1001900000000000290014001A00080015001700D4
:1001A0001C0018000C00120013002F002A00C25C73
:1001B0002B6104001600070009000A000B000D0067
:1001C0000E000F003400330028000000E1001D0085
:1001D0001B00060019000500110010003600370052
:1001E0003400E100520000006500E000E300E6009A
:1001F00001512C002C000251E600E4004C0050009C
:1002000051004F0035001E001F0020002100220079
:100210002300240025002600270030003100C35CA5
:1002200001002D002E002F00300031005000510041
:1002300052004F00330001000100000001000100E6
:1002400001000100010001000100010001000100A6
:10025000330001004B00000001000100010001001B
:1002600001000100010003510100010001004A00EA
:100270004E004D0035023A003B003C003D003E0080
:100280003F0040004100420043004400450001009F
:100290000100010001000100010001000100010056
:1002A0000100010001000100010000000100010047
:1002B0000100010001000100010001000100C85C13
:1002C00001000100C95C0000010001000100010003
:1002D0000351010001000100010001000100C65CA2
:1002E000CA5CC55C010001000100010001000100C1
:1002F00001000100010001000100010001000100F6
:1003000001000100010001000100010001000100E5
:1003100001000100010001000100000001000100D6
:1003200001000100010001000100010001000100C5
:1003300001000100010000000100010001000100B6
:1003400001000100010001000100010001000100A5
:100350000100010000047F3F1F64321464321478EE
:100360003C1E1E140A052223252628292A2C2D2F5F
:100370003032333536383A3B3D3E404243454749BB
:100380004A4C4E5051535557595A5C5E60626466F0
:1003900068696B6D6F71737577797B7D7F818385FC
:1003A00087898A8C8E90929496989A9C9E9FA1A3FE
:1003B000A5A7A8AAACAEAFB1B3B4B6B8B9BBBCBE22
:1003C000BFC1C2C3C5C6C7C9CACBCCCDCED0D1D29E
:1003D000D2D3D4D5D6D7D7D8D9D9DADADBDBDBDCA0
:1003E000DCDCDCDCDDDDDDDDDCDCDCDCDCDBDBDB4C
:1003F000DADAD9D9D8D7D7D6D5D4D3D2D2D1D0CEAC
:10040000CDCCCBCAC9C7C6C5C3C2C1BFBEBCBBB9B0
:10041000B8B6B4B3B1AFAEACAAA8A7A5A3A19F9E2E
:100420009C9A98969492908E8C8A89878583817FF6
:100430007D7B79777573716F6D6B696866646260D7
:100440005E5C5A5957555351504E4C4A49474543A3
:1004500042403E3D3B3A3836353332302F2D2C2A40
:10046000292826252322FFAA7F55400001010101EA
:10047000010101010102020202020202020203035F
:10048000030303030303040404040404040505052F
:1004900005050606060606070707070708080808F1
:1004A000090909090A0A0A0B0B0B0C0C0C0D0D0D9E
:1004B0000E0E0E0F0F0F1010111111121213131434
:1004C00014151516161717181819191A1A1B1B1CAC
:1004D0001D1D1E1E1F202021222223242425262606
:1004E000272829292A2B2C2D2D2E2F30313232333B
:1004F0003435363738393A3B3C3D3E3F4041424344
:100500004445464748494A4C4D4E4F505153545527
:100510005658595A5B5D5E5F616264656668696BD7
:100520006C6D6F7072737577787A7B7D7E80828355
:100530008587888A8C8E8F91939596989A9C9EA099
:10054000A2A3A5A7A9ABADAFB1B3B5B7BABCBEC0A6
:10055000C2C4C6C9CBCDCFD1D4D6D8DBDDDFE2E46F
:10056000E7E9EBEEF0F3F5F8FAFDFF0403300000E5
:10057000000C03430061006A0061006C0000001A77
:1005800003570061006C006C006500740062007528
:100590000072006E00650072000000040309040987
:1005A000023B00020100A0FA09040000010301015E
:1005B0000009211101000122400007058103080004
:1005C0000A090401000103000000092111010001D2
:1005D00022BC000705820320000A1201100100005E
:1005E0000008EDFE6060010001020301050109023F
:1005F000A10185020901A1000509190129051500BC
:10060000250195057501810295017503810105019B
:10061000093009311581257F950275088106093851
:100620001581257F950175088106050C0A3802158C
:1006300081257F950175088106C0C005010980A14B
:1006400001850319012AB700150126B70095017528
:10065000108100C0050C0901A101850419012AA01F
:1006600002150126A002950175108100C00501093F
:1006700006A1018505050719E029E7150025019563
:1006800008750181020507190029EF15002501955C
:10069000F07501810205081901290595057501917B
:1006A00002950175039101C005010906A101050725
:1006B00019E029E7150025019508750181029501CA
:1006C000750881010507190029FF150026FF00950F
:1006D0000675088100050819012905950575019120
:1006E00002950175039101C011241FBECFEFDAE01E
:1006F000DEBFCDBF04B603FE27C0809111039091E9
:100700001203A0911303B09114038730904BA740BC
:10071000B04BD1F4109211031092120310921303F4
:100720001092140314BE84B7877F84BF0FB6F89469
:10073000A8958091600088618093600010926000AD
:100740000FBEE0E0F8E3099511E0A0E0B1E0E8EBCE
:10075000F5E502C005900D92AE3CB107D9F723E054
:10076000AEECB1E001C01D92A131B207E1F70E94E9
:10077000DA240C94DA2A0C940000259A2D98269AF3
:100780002E98279A2F980895089561FF02C02F9AF6
:100790000AC062FF02C02F9803C063FF03C02F9AF4
:1007A0002E9A08952F982E98089581FF02C02D9AB1
:1007B00008952D980895811107C0662311F08AEAE3
:1007C00001C089EA0C944C13089581E0089581E0FA
:1007D00008950C94E7031F93CF93DF9300D000D0CC
:1007E0001F92CDB7DEB749835A836B832091F50101
:1007F00089819A81211112C0662349F00E946A1BE7
:10080000182F682F89819A810E94131B03C00E94B0
:100810003E1B182F69817A81812F04C00E946A1BB8
:1008200069817A810F900F900F900F900F90DF9158
:10083000CF911F910C949704FC01408151816281FA
:10084000738184810C94EB030E949C1C811102C073
:100850000E94461D0E945C0E0C94B1060E94730E0D
:100860000C94AF060C94D50381E008950C943404E5
:10087000CF93C82F0E9432048C2F0E943604CF9150
:10088000089508950E9408160E9441042FEF84E302
:100890009CE0215080409040E1F700C000000C94A3
:1008A000F11E0F931F93CF93DF93EC010E941C0462
:1008B0008C01BE010E94E903882379F1BE01C801C1
:1008C0000E94300F882349F1BE01C8010E94710FB8
:1008D000882319F1BE01C8010E949C108823E9F009
:1008E000BE01C8010E94B40D8823B9F08A81882313
:1008F00069F001158CE5180731F00E3D1C4531F407
:100900000E94461D0AC00E94420407C0CE01DF912A
:10091000CF911F910F910C94E50380E0DF91CF916F
:100920001F910F91089580E090E00895089528E3C5
:10093000829FC0011124FC012EE0729FE00DF11D89
:100940001124E60FF11DEE0FFF1FEC5DFE4F8591A8
:1009500094910895880F991FFC01EC5AFC4F8591E2
:1009600094910895CF93DF930E9497040E94CA0543
:10097000EC018115904508F041C0C11580E4D8070D
:1009800008F0D1C0C83ED10510F5C03ED10508F031
:10099000FDC0C83AD10578F4C53AD10508F0A2C027
:1009A000C130D10509F4F2C008F4EEC0C430D1055D
:1009B00008F0ECC0E9C0CF3BD10508F49BC0C03CB7
:1009C000D10508F4E1C0CE01805C91099EC0C1153B
:1009D00090E2D90758F4C11521E0D20708F0D6C03B
:1009E000C03FD10508F4D0C0D065D0C0C11580E3A8
:1009F000D80708F08EC0CE019F7087C0C11595E55D
:100A0000D90708F043C0C11524E5D20708F0A2C0F9
:100A1000C11582E5D80708F5C11591E5D90708F099
:100A200085C0CE0174E0969587957A95E1F783703D
:100A30009C2F937021E030E002C0220F331F9A9563
:100A4000E2F73C68382BCF70C695C69580E2C89F08
:100A5000E0011124C22BD32B99C09E0123703327B0
:100A60008C2F86958695C115D34508F064C0C1E0EA
:100A7000D0E002C0CC0FDD1F2A95E2F720E2829F72
:100A8000C0011124C82BD92BDC6880C0C11529E511
:100A9000D207A0F4C11588E5D80708F060C0C115D9
:100AA00096E5D90708F070C08C2F0E945E068F7102
:100AB000C82FD0E0DC2FCC27D06268C0C1152AE552
:100AC000D20708F451C0CE0190568115904208F02B
:100AD0005BC08D2F8F710E945E06DD27D0628F7103
:100AE000D82B54C0C55AD0E0CD5ADE4FC881D0E0D3
:100AF000D0644CC0C85AD0E0CC0FDD1FCB5DDE4FB8
:100B00000990D881C02DD46441C00E94AA04EC0190
:100B10003DC0CE019927D3FF03C0EC01D86C36C08D
:100B2000EC01D06C33C0DF70D06A30C0DC2FCC2732
:100B3000C16FD06A2BC0C1E0D0E002C0CC0FDD1F76
:100B40002A95E2F720E2829FC0011124C82BD92BFD
:100B5000DA681CC0DC2FCC27C46FD06A17C0DC2F2A
:100B6000CC27C06FD06A12C08C2F8F700E945E0697
:100B700094E0D695C7959A95E1F7CF70D0E0DC2F39
:100B8000CC27D069C82B02C0C0E0D0E0CE01DF91F5
:100B9000CF9108958238910569F1B0F481339105C0
:100BA00009F46DC048F48932910509F463C08A32B2
:100BB000910509F469C008958533910509F455C07C
:100BC00089339105B9F00895833E910569F138F4B0
:100BD000803E9105B1F0823E910509F10895863E6F
:100BE0009105A9F1873E9105B9F1843E910509F07F
:100BF00064C023C02091020320FD4FC021FD4DC0E1
:100C000008958091020380FD44C08091030380FF1A
:100C100044C08091020384FD42C083EE4DC08091A8
:100C2000020382FF38C0F5CF8091020382FD33C0FA
:100C30008091030380FD31C0ECCF8091030381FFDD
:100C400032C08091020384FD2AC087EE35C08091B6
:100C5000020383FF26C0F5CF8091020383FD21C0EC
:100C60008091030381FD1FC0ECCF8091020385FDBD
:100C70001CC01DC08091020385FD19C016C0809163
:100C8000020386FD16C017C08091020386FD13C0C3
:100C900010C089E311C082EE0FC080EE0DC080E06D
:100CA0000BC086EE09C084EE07C089E205C085E36B
:100CB00003C08AE201C081E390E0089590910203AD
:100CC00092FF0DC0282F2871283019F4877F846087
:100CD00006C0282F2471243011F48B7F886093FF85
:100CE0000DC0282F2871283119F4877E846106C031
:100CF000282F2471243111F48B7E88612091030305
:100D000020FF0DC0382F3871383019F4877F81608B
:100D100006C0382F3171313011F48E7F886021FF89
:100D20000DC0282F2871283119F4877E816106C0F3
:100D3000282F2171213111F48E7E886194FD877EE8
:100D40000895E82FF0E0EE0FFF1FE754FD4F80817C
:100D500091810895089580EA8A95F1F708950C9499
:100D6000C4030C94BD03CF93DF93A4E6B1E048E63F
:100D700051E061E070E08D91E82FE295EF70F0E0D6
:100D800021A18F70EB0102C0CC0FDD1F8A95E2F725
:100D9000CE019C2F9095922391A392A1892B82A39F
:100DA0004A175B0741F7A6E5B1E041E050E08D91BD
:100DB000E82FE295EF70F0E021A18F70BA0102C038
:100DC000660F771F8A95E2F7CB01962F90959223B5
:100DD00091A392A1892B82A371E0A436B70739F7BA
:100DE0001092B2021092B1021092BA021092B9029D
:100DF0001092B4021092B3021092BC021092BB0285
:100E00001092B6021092B5021092BE021092BD026C
:100E10001092B8021092B7021092C0021092BF0254
:100E200084E00E94B407DF91CF910C9424042F92A8
:100E30003F924F925F926F927F928F929F92AF926A
:100E4000BF92CF92DF92EF92FF920F931F93CF93B7
:100E5000DF9384E6C82E81E0D82E01EB12E099EBF7
:100E6000492E92E0592E312C88248394912C5801DC
:100E7000D8016D907C9011971D921C92F601819182
:100E80006F01C82FC295CF70D0E099A18F70740107
:100E900001C0EE0C8A95EAF7892F8E2989A38AA1D1
:100EA0002E2C209482218AA30E94AB06E6E5F1E075
:100EB00020E030E06191A62FA295AF70B0E090964F
:100EC0008C91D8014D915C9190E06F7002C0959526
:100ED00087956A95E2F780FD08C0C401022E02C022
:100EE000880F991F0A94E2F702C080E090E0482B37
:100EF000592BD8014D935C932F5F3F4F2E30310516
:100F0000C9F689A1282229A28AA1E82AEAA20E5FAD
:100F10001F4F81E0F501208131812615370509F445
:100F200080E0382A4016510609F0A1CF232D44E075
:100F300069EB72E081EB92E00E94B5070E942E04FB
:100F4000832DDF91CF911F910F91FF90EF90DF9054
:100F5000CF90BF90AF909F908F907F906F905F9059
:100F60004F903F902F9008950895FF920F931F93F5
:100F7000CF93DF93F82E092F162FD72FC42F2223BC
:100F800049F081E08093D0010E94951E9093CF019B
:100F90008093CE018091D0018823D9F08091CE0139
:100FA0009091CF010E94A11E069798F0EF2DF02F8F
:100FB000A12FBD2F80E090E04C2F50E084179507C3
:100FC00034F4219131912D933D930196F7CF1092F6
:100FD000D001DF91CF911F910F91FF900895EF9273
:100FE000FF920F931F93CF93DF93F62E472FE82F97
:100FF000F0E0711106C0E559FB4F6491762F862F02
:1010000072C0272F30E0E559FB4FE4910E2F10E01E
:1010100056E0659FC0011124CFEFD0E0BE010E94D1
:101020004B2A5BEA5603C001579F900D11248F0D88
:10103000911D8F0D911D982F990F890F7E01E21A36
:10104000F30AE09ED001E19EB00DF09EB00D112498
:10105000489FA0011124452F55277E01E41AF50A67
:10106000E09EA001E19E500DF09E500D11247E01E6
:10107000E81AF108E29EC001E39E900DF29E900DE9
:101080001124892F9927C81BD90BC09FC001C19F6C
:10109000900DD09F900D11246230710591F048F4AD
:1010A00061157105E1F061307105A9F48B2F752F81
:1010B00019C06430710561F038F06630710579F05F
:1010C0000AC0892F7B2F0EC08E2F7B2FE52F0AC0E1
:1010D0008E2F792F02C0852F7E2FEB2F03C08B2FF1
:1010E0007E2FE92F6E2FDF91CF911F910F91FF90EF
:1010F000EF9008950895CF93DF93762FE901682F3D
:10110000842F0E94EF07798368838A83DF91CF91D0
:1011100008958091C102282F269530E021153105D0
:1011200019F48170826005C02532310524F0817088
:1011300088648093C102089588E090E00C949A2A14
:10114000CF92DF92EF92FF926B017C010E9489089F
:10115000B701A60188E090E0FF90EF90DF90CF907C
:101160000C94B82AE1ECF2E083E0808311828FEFE7
:1011700082838383148260817181828193810C9444
:10118000A0088091C10280FF02C08695089580E08A
:1011900008958091C502833018F48F5F8093C50253
:1011A0006091C1027091C2028091C3029091C40209
:1011B0000C94A0088091C502882319F08150809377
:1011C000C5026091C1027091C2028091C3029091E8
:1011D000C4020C94A0086091040170E08091C102E7
:1011E00080FF0AC08091D50123E0829FC0011124B5
:1011F0008A539D4F0C94570E8091D4019091030116
:10120000891780F7E82FF0E09F01220F331FE20FCC
:10121000F31FEA53FD4F1182108212828F5FF0CFCD
:101220009091C10290FF16C09091D40120910301CA
:10123000921770F4E92FF0E0DF01AA0FBB1FEA0F4D
:10124000FB1FEA53FD4F8183608342839F5FF0CF92
:101250000C94EB080895CF93DF9300D01F92CDB785
:10126000DEB79091C10290FF0AC09E012F5F3F4FF1
:101270000E947B084B8169818A810E9410090F902E
:101280000F900F90DF91CF910895CF93DF93EC01F2
:10129000EC81F0E0EA59FC4F4491E1ECF2E062812C
:1012A00081810E942B098C818F5F8C83DF91CF918C
:1012B0000895CF93DF93EC01E1ECF2E0438162818A
:1012C0008C810E942B098C818F5F8C83DF91CF9161
:1012D00008950F931F93CF93DF9300D01F92CDB744
:1012E000DEB78C018091D10181110AC09E012F5F70
:1012F0003F4F4FEF6FEF0E947B088A818093D101AF
:10130000F8018481813051F028F0823061F44091FD
:10131000D1010AC08091D10140E007C06091D101A4
:1013200040E080E003C040E080E060E00E941009FF
:10133000F801848190E0019663E070E00E945F2AEA
:1013400084830F900F900F90DF91CF911F910F9199
:101350000895AF92BF92CF92DF92EF92FF920F93D8
:101360001F93CF93DF9300D01F92CDB7DEB7182F16
:10137000F62E042FE22E9091C10290FF6DC0E92F4E
:10138000E695AE2FB0E0A859BE4F8C918093DD0159
:101390009E7F923061F49E012F5F3F4F812F0E940C
:1013A0007B084B8169818A810E94100943C0823089
:1013B00019F40091C4023EC0863019F41091C202A3
:1013C00039C08930D9F38931A9F5E9518E2F81705F
:1013D000D82EE695F0E0EA59FB4FA590B490C12CC9
:1013E000BB2460910201C61618F52C2D30E0A29E98
:1013F000C001A39E900DB29E900D112470E00E943A
:101400004B2A812FD11002C0860F01C0861B9091FC
:10141000D401290F311DA901440F551F240F351F79
:101420002A533D4F402F6F2D0E947B08C394D9CF84
:101430000E94EB081093C202F092C3020093C40210
:10144000EE2051F06091C1027091C2028091C302FE
:101450009091C4020E94A0080F900F900F90DF910E
:10146000CF911F910F91FF90EF90DF90CF90BF90A1
:10147000AF900895E1ECF2E09181282F43816281E1
:1014800088E0890F0C94A90981E00C943A0AE1ECF8
:10149000F2E09181282F4381628188EF890F0C94BB
:1014A000A90981E00C94470AE1ECF2E0628128E0AE
:1014B000620F08F46FEF282F438181810C94A909F2
:1014C00081E00C94540AE1ECF2E0628128E0621BB6
:1014D00008F460E0282F438181810C94A90981E000
:1014E0000C94630AE1ECF2E0438128E0420F08F437
:1014F0004FEF282F628181810C94A90981E00C941F
:10150000720AE1ECF2E0438128E0421B08F440E07B
:10151000282F628181810C94A90981E00C94810AB1
:1015200020E00C94A909FF920F931F93CF93DF93B0
:10153000EC01F12C0FEF10E060910201F616F0F4CF
:101540008091D4012F2D30E0280F311DC901880F63
:10155000991F280F391F2A533D4F70E0C8010E9480
:101560005F2A962F8C814091C4026091C302F99E3C
:10157000800D11240E947B08F394DECF0E94EB08BB
:101580009A818C8190FF02C08F5F01C081508C8353
:10159000DF91CF911F910F91FF900895AF92BF926D
:1015A000CF92DF92EF92FF920F931F93CF93DF932F
:1015B000FC01828180FF02C00FEF01C001E010E05A
:1015C00042E1A42E80910201181708F043C08091D7
:1015D000D401C12ED12CE601C80FD11DCE01880F38
:1015E000991FC80FD91FCA53DD4F198218821A825A
:1015F00034E0E32EF12CB12C8091D3018B0D83319B
:101600002CF06A2D0E943D2A892F05C087FF03C058
:1016100090910201890F082E000C990BC816D9066B
:1016200091F48091C4028E9DA0018F9D500D1124D4
:1016300055954795559547959E016091C3028091B8
:10164000C2020E947B08B00EF1E0EF1AF108A1F689
:101650001F5FB8CF0E94EB088091D301013031F4B5
:10166000811102C080910201815007C090E0019673
:101670006091020170E00E945F2A8093D301DF91A4
:10168000CF911F910F91FF90EF90DF90CF90BF907F
:10169000AF900895CF938091D40190910301891761
:1016A00070F4E82FF0E09F01220F331FE20FF31FC9
:1016B000EA53FD4F1182108212828F5FF0CFC0E09B
:1016C00060910201C617C0F5EC2FF0E070E0CF0189
:1016D0000E945F2A2091D401820F2091D201022E14
:1016E000000C330B90E0E217F307CCF020910101DE
:1016F000022E000C330B2E173F078CF09C01220F9B
:10170000331F820F931F9C012A533D4F4091C40207
:101710006091C3028091C2020E947B080BC0FC0151
:10172000EE0FFF1F8E0F9F1FFC01EA53FD4F11822A
:1017300010821282CF5FC4CF0E94EB08209100017B
:101740008091D201820F8093D20190910101920F7A
:101750009093010119165CF4082E000C990B40912E
:10176000020150E041505109841795071CF0219562
:1017700020930001CF9108950F931F93CF93DF9390
:101780008C01FC0184819581019681709927958354
:101790008483C0E0D5E580910201C81700F58091EF
:1017A000D4012C2F30E0280F311DC901880F991F5B
:1017B000280F391F2A533D4F4C2F4695F80184813D
:1017C0009581840F911D81704091C4026091C30284
:1017D0008D9F802D11240E947B08CF5FDCCFDF918D
:1017E000CF911F910F910C94EB080F931F93CF9300
:1017F000DF93EC0100E010E080910201282F30E03F
:101800000217130724F59091D4019801290F311D77
:10181000A901440F551F240F351F2A533D4F8695AC
:1018200090E04C81081719071CF4442331F002C0E2
:10183000411103C04091C40201C040E06091C30265
:101840008091C2020E947B080F5F1F4FD5CF0E947C
:10185000EB088C8190E00196817099278C83DF9151
:10186000CF911F910F910895E1ECF2E080818E7F7E
:10187000808360817181828193810E94A00810928F
:10188000DE012FEF80E792E0215080409040E1F7A9
:1018900000C000000C94EB086091C102669570E0F6
:1018A0004BE050E085E091E00E94852A892B19F4F5
:1018B00081E08093DE010E94951E9093D701809372
:1018C000D60108959091C10290FF35C091708111A9
:1018D00002C0926006C0853210F0986402C0880F82
:1018E000982B9093C102662351F06091C1027091D0
:1018F000C2028091C3029091C4020E94A00860912C
:10190000C102669570E04BE050E085E091E00E94F6
:10191000852A892B19F01092DE0102C00E944C0C1E
:1019200081E08093D9014091C4026091C30280910B
:10193000C2020C94900A0895682F9091C102969566
:1019400081E0890F853208F081E00C94620C81E01F
:101950000C949C0C682F9091C10296958FEF890F83
:1019600009F484E20C94620C81E00C94AA0C61E00E
:101970000C94620CE1ECF2E08081816080838695BA
:101980000C94B70C8091C10280FD0C94340C0C9423
:10199000BA0C60E00C94620C8091DC0181112EC0C5
:1019A0000E949C1C811104C00E94461D0E94B20826
:1019B0000E949C086093C1027093C2028093C3028C
:1019C0009093C4026E7F61F40E94B2080E949C084A
:1019D0006093C1027093C2028093C3029093C402C9
:1019E0000E9489081092DE018091C10280FF03C02D
:1019F00086950E94C90C81E08093DC0108950F93C5
:101A00001F93CF93DF938091DE01882309F48CC06C
:101A10008091DD01E091C102E695E81BE093D801D9
:101A2000823049F4F0E0EE59FC4FE491CE2FD0E043
:101A300005E419E049C0863049F4F0E0E15AFC4F72
:101A4000E491CE2FD0E009E519E03EC0893051F491
:101A5000E695F0E0E45AFC4FE491CE2FD0E003E9A4
:101A60001AE032C08F3051F4E695F0E0E75AFC4FAF
:101A7000E491CE2FD0E00EEC1AE026C0853149F477
:101A8000F0E0EA5AFC4FE491CE2FD0E00AE41BE0EC
:101A90001BC0883181F0833239F4E4E5F3E0C5916D
:101AA000D49109E619E010C0843251F4C4EFD1E0BA
:101AB00005EF1BE009C0C8EED3E00CEB1BE004C04F
:101AC000C0EDD7E00AE718E08091D901882389F0BA
:101AD0001092D9010E94951E9E0120953095820F8B
:101AE000931F9093D7018093D6011092DB0110923F
:101AF000DA018091D6019091D7010E94A11E8C1726
:101B00009D0790F0E091D601F091D701CE0FDF1F35
:101B1000D093D701C093D60186ED91E0F801DF9113
:101B2000CF911F910F910994DF91CF911F910F9148
:101B30000895882311F0FA0101C0FB010994CF93A5
:101B4000DF93C82FD62F0E94C1088C1740F00E9447
:101B5000C1088D1720F4DF91CF910C94A70C8C2F26
:101B6000DF91CF910C94B70C0F931F93CF93FB0190
:101B7000C281CC2309F463C08C010E94EB1B8272EA
:101B8000F801E25CFC45E431F10508F059C0EA5A7D
:101B9000FF4F0C94732A0E94C20C06C044EB5CE019
:101BA00067EA7CE00E94990DC0E04AC047EA5CE029
:101BB00064EB7CE0F7CF41E55AE064E47AE0F2CFF1
:101BC00044E45AE061E57AE0EDCF4FE65AE060E6A2
:101BD0007AE0E8CF40E65AE06FE67AE0E3CF4DE8FE
:101BE0005AE06EE77AE0DECF4EE75AE06DE87AE041
:101BF000D9CF4AED58E069EC78E0D4CF49EC58E011
:101C00006AED78E0CFCF81E017C065E082E010C0D8
:101C100068E086E00DC06EE089E00AC064E18FE014
:101C200007C067E185E104C088E106C062E289E19E
:101C30000E949F0DB9CF83E20E94B70CB5CFC1E0DF
:101C40008C2FCF911F910F91089521B3342F309590
:101C5000232331B3432B3FB7F894FC01680F791F5E
:101C6000E617F70789F0819198E041BB000000C0BA
:101C700087FF21BB880F000000C000C000C021BB4F
:101C800000C09A9591F7ECCF3FBF089520B3242B65
:101C900020BB9B01220F331F620F731F0E94250E72
:101CA00087EC90E00197F1F700C00000089540E84C
:101CB0000C94460E0C94DB0356985E9A57985F9AE4
:101CC00089B186FB882780F929B130E0220F232FC4
:101CD000221F330B232B11F490E001C092E0892BDB
:101CE0008093E1010895E091E101EE0FEE0FE093A2
:101CF000E10129B126FB882780F990E029B130E085
:101D0000220F232F221F330B2115310511F022E062
:101D100030E0822B932B8E2B8093E1018F70E82F84
:101D2000F0E0E357FE4F90818091E001890F8093AE
:101D3000E00184304CF08091DF018F5F8093DF0100
:101D400060E080E00E945A0E8091E0018D3F4CF4EB
:101D50008091DF0181508093DF0161E080E00E948B
:101D60005A0E8091E001837887FF03C081508C6F09
:101D70008F5F8093E00108950F931F93CF93DF93BC
:101D8000C62FD42F122FFC0182818823C9F06093C3
:101D9000E4010E94951E9093E3018093E20180E2AA
:101DA0008C0F883008F057C0C77081E001C0880FE1
:101DB000CA95EAF7DF91CF911F910F910C945F13B1
:101DC0008091E401681330C08091E2019091E301B9
:101DD0000E94A11E883C910538F500E20D0FCD1739
:101DE000B9F080E28C0F883040F4C77081E001C008
:101DF000880FCA95EAF70E946613083028F581E03B
:101E00009D2F977001C0880F9A95EAF70E945F1383
:101E1000812F0E944C130830F0F4D77081E001C08C
:101E2000880FDA95EAF70AC080E28C0F883098F4C0
:101E3000C77081E001C0880FCA95EAF7DF91CF91A2
:101E40001F910F910C946613812FDF91CF911F91F9
:101E50000F910C944C13DF91CF911F910F91089526
:101E60009C01CB01233F4CE53407F9F078F4283D81
:101E7000FCE53F07B9F0293D4CE5340711F1273D5A
:101E80003C4531F526E241EE61EE1EC0253FFCE502
:101E90003F0799F070F0263F3C45D1F427E245EE2C
:101EA00066EE12C027E245EE0EC026E241EE60EE7D
:101EB0000BC027E245EE64EE07C026E241EE62EE7B
:101EC00003C028E241E065EE0E94BC0E80E0089568
:101ED000FC018281882319F01092E401089581E0C9
:101EE0000895CF93DF93EC01FB018281882309F4ED
:101EF0001FC1C230FCE5DF0708F41BC1C6319CE5F9
:101F0000D90738F09E012A5F3C452930310508F099
:101F100010C10E94B91C9093030380930203C03147
:101F2000ECE5DE0709F4C3C008F041C0C8308CE519
:101F3000D80709F49AC0F0F4C430ECE5DE0709F4E0
:101F400087C068F4C2308CE5D80709F477C0C33085
:101F5000DC4509F0E3C080910203826076C0C630A0
:101F6000ECE5DE0709F46EC008F07BC08091020347
:101F700088606BC0CC308CE5D80709F485C068F464
:101F8000CA30ECE5DE0709F474C008F079C00E949D
:101F9000081680910203806858C0CE308CE5D807BF
:101FA00009F476C008F07FC0809102038BC0CB3F5C
:101FB000ECE5DE0709F44FC018F5C3318CE5D8070E
:101FC00009F47DC078F4C131ECE5DE0709F473C093
:101FD000C231DC4509F0A2C00E94081680910203BC
:101FE0008F7733C0C5318CE5D80709F472C008F487
:101FF00086C0CA3FDC4509F091C0809103033EC012
:10200000CF3FFCE5DF0709F45FC058F4CD3F9CE506
:10201000D90709F444C008F43FC0809103038260EB
:102020002DC0C130FDE5DF0709F475C008F45DC0BF
:10203000C230DD4509F072C080E06EC080910203BD
:10204000816003C08091020380618093020366C0B7
:102050008091020311C08091030382608093030387
:102060005DC0809102038062F0CF809102038064A2
:10207000ECCF8091020388608460E7CF8160EECF6F
:10208000809102038E7FE1CF809102038D7FDDCFAF
:1020900080910203877FD9CF8091030318C080917C
:1020A00003038D7FDBCF809102038F7ECECF8091A3
:1020B00002038F7DCACF809102038F7BC6CF8091B0
:1020C0000203877F8B7FC1CF809103038D7F8E7F3B
:1020D000C5CF8091020382FB222720F991E092274D
:1020E00090FB82F990FB83F9B0CF80910303982F86
:1020F000909591708E7F892B90FB81F9AFCF0E94D4
:1021000008168091020387FB222720F991E092278D
:1021100090FB87F99ACF81E00E94481D80910203CD
:10212000909103030E94CA1C0E94081680E001C01F
:1021300081E0DF91CF910895CF93DF9386319C4565
:1021400041F5EB010E94EB1B982F8A812091100131
:1021500030911101882379F09A7A81E009F480E0C6
:102160008093E501911102C069E201C065E3C901F4
:102170000E94E31D0AC08091E501811102C069E25D
:1021800001C065E3C9010E94EE1D0E94391C80E078
:1021900001C081E0DF91CF9108959093EB0180938E
:1021A000EA010895E091EA01F091EB01309721F006
:1021B0000190F081E02D099480E00895E091EA011A
:1021C000F091EB01309799F020912401222359F0EE
:1021D0002091020327FF07C0DC012C9111962C935C
:1021E000119725E02C930280F381E02D0994089546
:1021F000E091EA01F091EB01309739F022E0DC0147
:102200002C930480F581E02D099408952091E80134
:102210003091E9012817390771F09093E901809313
:10222000E801E091EA01F091EB01309721F006809E
:10223000F781E02D099408952091E6013091E7019E
:102240002817390771F09093E7018093E601E09138
:10225000EA01F091EB01309721F00084F185E02D47
:102260000994089585B7806885BF85B7806885BF64
:10227000089508950C9439110C943A110C94391165
:102280000C9439110E9432110E943E110C943C11A1
:1022900081E008950E948C1E0E94B3060E94611F77
:1022A0000E94CC0C0C9440117F928F929F92AF921F
:1022B000BF92CF92DF92EF92FF920F931F93CF9333
:1022C000DF93CDB7DEB72A970FB6F894DEBF0FBE07
:1022D000CDBF0E9417070E944811811111C08FEFD6
:1022E00089838A831B820E94951E8160782F9D833B
:1022F0008C8349815A816B818D810E9406124FC067
:102300004DEEA42E41E0B42E00E010E0702E802FA0
:102310000E94A1066C01F501819091905F018826D1
:1023200099268114910431F40F5F1F4F0430110579
:1023300069F7D5CF80917E0281FD0E94AA0680E0D8
:10234000EE24E394F12C94012E213F21232B09F15B
:102350008E837F82CE20DF2081E0CD2809F480E0CB
:1023600088870E94951E8160782F9A8789874E8181
:102370005F8168858A850E940612000F111FF8018F
:10238000E351FE4F80819181E826F926F182E082B7
:1023900006C08F5FEE0CFF1C8E30A9F6C5CF0E94E1
:1023A000FF0C0E9415220E94D2109091EC01891717
:1023B000C9F00E94D2108093EC012A960FB6F894CF
:1023C000DEBF0FBECDBFDF91CF911F910F91FF9068
:1023D000EF90DF90CF90BF90AF909F908F907F90C5
:1023E0000C9438042A960FB6F894DEBF0FBECDBF0A
:1023F000DF91CF911F910F91FF90EF90DF90CF90E1
:10240000BF90AF909F908F907F900895CF93DF9370
:10241000CDB7DEB72B970FB6F894DEBF0FBECDBF9A
:102420004F83588769877A878B87DE01119686E00C
:10243000FD0111928A95E9F785E0FE01379601903A
:102440000D928A95E1F749815A816B817C818D815A
:102450009E810E94D8182B960FB6F894DEBF0FBE4F
:10246000CDBFDF91CF910895FC01808191810E94C1
:10247000AC1B0895CF93882309F4A4C0C82F8238D9
:10248000C1F40E94D21081FD9DC069E380911001CA
:10249000909111010E94E31D0E94391C2FEF81EEE3
:1024A00094E0215080409040E1F700C0000069E3D3
:1024B00019C0833801F50E94D21080FD83C063E506
:1024C00080911001909111010E94E31D0E94391C1E
:1024D0002FEF81EE94E0215080409040E1F700C062
:1024E000000063E580911001909111010E94EE1DA2
:1024F000CF910C94391C8438C1F40E94D21082FD13
:1025000061C067E480911001909111010E94E31D68
:102510000E94391C2FEF81EE94E0215080409040C2
:10252000E1F700C0000067E4DDCF8CEF8C0F813A4B
:10253000D0F46C2F80911001909111010E94631DC5
:10254000882349F06C2F80911001909111010E9415
:10255000EE1D0E94391C6C2F809110019091110189
:102560000E94E31DC5CF80E28C0F883048F4C7700D
:1025700081E001C0880FCA95EAF70E94EE1BB8CF30
:10258000EBE5EC0FE33040F4F0E0E553FE4F8081E3
:1025900090E0CF910C940611E8E5EC0FE73150F490
:1025A000F0E0EE0FFF1FE356FE4F80819181CF9147
:1025B0000C941C11C03F30F08C2F0E941D21CF9134
:1025C0000C940A22CF910895882309F464C08238BC
:1025D00079F40E94D21081FF5EC069E380911001FE
:1025E000909111010E94E31D0E94391C69E310C003
:1025F0008338B1F40E94D21080FF4DC063E5809112
:102600001001909111010E94E31D0E94391C63E5A5
:1026100080911001909111010E94EE1D0C94391CC3
:10262000843879F40E94D21082FF35C067E480912B
:102630001001909111010E94E31D0E94391C67E472
:10264000E7CF9CEF980F913A10F4682FE1CF90E21A
:10265000980F983050F4877091E001C0990F8A95D7
:10266000EAF7892F0E94F41BD9CF9BE5980F93308E
:1026700020F480E090E00C94061198E5980F9731D3
:1026800020F480E090E00C941C11803F20F00E9428
:1026900085210C940A220895CF93C82F0E943A12E4
:1026A000C93349F42FEF87EE93E0215080409040EA
:1026B000E1F700C000008C2FCF910C94E412882326
:1026C00021F00E94EE1B0C94391C0895882321F000
:1026D0000E94F41B0C94391C0895CF92DF92EF9264
:1026E000FF920F931F93CF93DF937C01062FC72F89
:1026F000FC01158112951F70D281D1110E940B1C13
:102700000E94E41B882379F0DD2369F080E2800FCA
:10271000883048F082E00E94831C0E94E41B91E014
:10272000D82ED92601C0D12CCC2EC2948FE0C8223D
:102730008C2D90E0FC01E659FF4F0C94732A8C2FEE
:10274000807FCF70882311F0C295C07FDD2399F080
:10275000CC2309F4C4C180E2800F883010F001114D
:1027600004C08C2F0E94EE1B03C08C2F0E94FE1B06
:102770000E94391CB4C1802F0E94E412CC2309F4BA
:10278000D3C180E2800F883010F0011104C08C2F7B
:102790000E94F41B03C08C2F0E94041C0E94391C51
:1027A000C3C18C2F807FCF70803211F0C295C07F63
:1027B000002319F00130C9F022C0DD2371F011238C
:1027C00041F0113031F40E941E1C8C2B0E94261CFB
:1027D000ABC10E941E1C8C2B1DC0112319F011309F
:1027E00009F4A2C10E942F1C25C0DD2321F0163060
:1027F00008F09AC10EC0153008F096C11BC0DD2349
:1028000061F0112331F0F701858180FF68C18F707D
:1028100085838C2F0E945F1387C1112359F00933E0
:1028200009F06EC1FFEF27EE83E0F15020408040B9
:10283000E1F764C18C2F0E94661376C18C2F8695B8
:102840008695837019F0813061F06EC1DD2321F02F
:10285000802F9C2F937002C080E090E00E940611B0
:102860006BC1DD2321F0802F9C2F937002C080E08C
:1028700090E00E941C1160C1DD23F9F0053F51F08A
:10288000063F71F0043FA9F48091FC029091FD0293
:1028900081600BC08091FC029091FD02826005C0B6
:1028A0008091FC029091FD0284609093FD028093E0
:1028B000FC02802F0E941D211EC0053F51F0063FE3
:1028C00071F0043FA9F48091FC029091FD028E7F8B
:1028D0000BC08091FC029091FD028D7F05C080911C
:1028E000FC029091FD028B7F9093FD028093FC028D
:1028F000802F0E9485210E940A221EC18C2F837086
:1029000009F045C0D11114C1402F4295469547703A
:10291000440F440F602F6F70862F90E0A0E0B0E06E
:10292000042E04C0880F991FAA1FBB1F0A94D2F758
:1029300004FF10C00FE010E020E030E004C0000F02
:10294000111F221F331F4A95D2F70095109520952D
:10295000309503C000E010E09801C695C695C3709D
:10296000BC01CD01602B712B822B932BC23049F01F
:1029700058F4C13019F00E94291ADAC00E94171ABF
:10298000D7C00E943B1AD4C00E94151AD1C0DD23C3
:1029900019F08C2F817001C08695882309F4C8C076
:1029A000402F429546954770440F440F602F6F703B
:1029B000862F90E0A0E0B0E0042E04C0880F991F9D
:1029C000AA1FBB1F0A94D2F704FF10C00FE010E04B
:1029D00020E030E004C0000F111F221F331F4A9572
:1029E000D2F7009510952095309503C000E010E0D7
:1029F0009801C695C695C370BC01CD01602B712BA3
:102A0000822B932BC23049F058F4C13019F00E9448
:102A1000EE1A8EC00E94DC1A8BC00E94001B88C078
:102A20000E944F1A85C0CF70DD2339F08C2F0E9491
:102A3000751A802F0E945F137BC0802F0E9466133F
:102A40008C2F0E94961A74C0023F01F128F4003FB7
:102A500041F0013FA1F03FC0033FF9F0043F39F1DD
:102A60003AC0DD2341F0153008F05EC08C2F8F7125
:102A70000E94BB1A59C0163008F056C0F7CFDD23AC
:102A800039F08C2F8F710E94751A4EC0DD23C9F367
:102A90008C2F8F710E94961A47C0DD2329F08C2F4E
:102AA0008F710E94601A40C00E945B1A3DC0DD23F6
:102AB00049F0CF718C2F0E94751A63E08C2F0E9411
:102AC0006E1C32C081E00E94831C123068F182E0EB
:102AD0000E94831C29C0DD2331F0112391F2802F45
:102AE0000E943A1221C0112399F2093349F49FEF51
:102AF000E7EEF3E09150E040F040E1F700C0000065
:102B0000802F0E94E41210C04C2F4F70602FC7011D
:102B10000E9493040E9486190FC04C2F4F70602FA3
:102B2000C7010E94960408C088EF8C0D843020F401
:102B30000E94D2100E943804DD20C9F00E94E01BE0
:102B400080FD15C0F70112820E94DA1B0E94751ADF
:102B5000C7010E94C0150E94DA1BDF91CF911F911F
:102B60000F91FF90EF90DF90CF900C94961ADF9129
:102B7000CF911F910F91FF90EF90DF90CF9008952C
:102B80000F931F93CF93DF93EC01988189812B8161
:102B90003C81232B31F08F3F31F481E09F3F19F4CA
:102BA00003C081E001C080E080FD13C0CE010E941F
:102BB0005104882371F0688179818A810E94B71B52
:102BC0008C010E94121B0E94031AB801CE010E94C0
:102BD0006D13DF91CF911F910F9108950E940B1CEF
:102BE0000E941B1C0E94391C0E9434230E940A224E
:102BF00080E090E00E94061180E090E00C941C11AF
:102C000080911001909111010E94F91D0C94EE1514
:102C10000E94FB1B0C940016E92FE295EF704E2FDB
:102C200050E0FA013297EE30F105B0F4E658FF4F6C
:102C30000C94732A803F91F018F4883E68F40EC01B
:102C4000843F51F40BC0883E48F0813F29F406C010
:102C500093FB882780F9089580E0089581E0089526
:102C60000E94AC1B0E940C160895CF93DF9300D0F6
:102C700000D01F92CDB7DEB70F900F900F900F903E
:102C80000F90DF91CF910895CF93DF9300D000D0C4
:102C900000D0CDB7DEB726960FB6F894DEBF0FBED4
:102CA000CDBFDF91CF9108951F93CF93DF93C09154
:102CB000F60116E08091F701C81799F0D0E01C9F4B
:102CC000F0011D9FF00D1124E850FE4F408151810D
:102CD00062817381848195810E9444162196C77018
:102CE000E9CFDF91CF911F91089540912802509133
:102CF000290260912A0270912B0280912C029091FE
:102D00002D020C944416CF9380912D0282958F70E2
:102D100009F05FC080912A02882309F45AC080918B
:102D2000F601B091F70170912802A091290240911B
:102D30002B0250912C0291E07F3F09F090E0692F27
:102D4000C6E08B1709F445C04115510521F0AF3F8E
:102D500021F020E003C021E001C0262F90E020FDFB
:102D600035C0C89FF001C99FF00D1124E850FE4FF7
:102D700021812A132BC02081271328C022812111F1
:102D800025C0238134812417350710F421503109DF
:102D9000241B350B283C3105C8F420912D022F70DF
:102DA000206120932D0226E0289FF001299FF00D3D
:102DB0001124E350FE4F80818F708061808388E210
:102DC00092E00E94C015CF910C9454160196877022
:102DD000B8CFCF910895AF92BF92CF92DF92EF928A
:102DE000FF920F931F93CF93DF93CDB7DEB7619719
:102DF0000FB6F894DEBF0FBECDBF8C0185E0F801A1
:102E0000DE011D9601900D928A95E1F7D8014C9153
:102E100011965C9111971296EC9030912802609176
:102E2000290280912B0290912C02009731F06F3F84
:102E300031F421E03F3F19F403C021E001C020E05C
:102E4000B22FB170BB2E20FD60C1F801C380D480C9
:102E5000A0902A02AA2009F4EEC020912D02C816E3
:102E6000D90628F0D601A81BB90BCD0104C0809566
:102E700090958C0D9D1DFF24F394883C910580F066
:102E8000F12C207F09F09CC07C2DD98AC88A6E2D38
:102E900089890E94351688E292E00E94C0152DC1F2
:102EA000822F807F09F054C0561314C0431312C000
:102EB000FE2CE1100FC02F70206120932D020E9484
:102EC000751688E292E00E94C01580912D02F801EB
:102ED00085835CC1CD2831F05F3F31F481E04F3F05
:102EE00019F403C081E001C080E080FD03C081E0EF
:102EF0008E2502C080E090E0F82FF170FF2E80FF59
:102F00001CC08091F6012091F70136E0821709F488
:102F10001AC190E0389FF001399FF00D1124E8505C
:102F2000FE4F6181561306C06081461303C0628163
:102F3000E61203C001968770E9CFFE2CEE2009F45B
:102F400025C180912D02816080932D02F12C1EC13C
:102F5000561309C0431307C0E11005C080912D022C
:102F6000F8018583A4C04D875E878D859E850E946C
:102F70003016882379F1EE2069F120912D02822FFD
:102F800082958F7090E0029774F080912802909162
:102F9000290298878F831986DB86CA862C87CE0103
:102FA00007960E94C01586E0F801A8E2B2E0019001
:102FB0000D928A95E1F70E9483160E9475160DC046
:102FC000561771F04D875E878D859E850E9430165D
:102FD00081111AC0C8010E94C015FF24F394D6C005
:102FE0004313F0CFE110EECF80912D02F8018583DD
:102FF000C8010E94C01586E0E8E2F2E0DF011D9200
:103000008A95E9F7FA2CC2C0EE2021F320912D0217
:10301000822F82958F7090E002972CF28091280287
:10302000909129029A8389831B82DD82CC822E8330
:10303000CE010196B6CFC816D90628F0F601E81BD6
:10304000F90BCF0104C0809590958C0D9D1D883C97
:10305000910548F0F12C7C2DD98AC88A6E2D89897A
:103060000E9435164AC0FE2CEE2009F4B3CF561349
:1030700033C0431331C020912D0220FD24C0822F84
:1030800082958F70482F50E041155105E1F0D8012D
:1030900015962C9315974F30510549F08F5F982F57
:1030A0009295907F822F8F70892B15968C93C801F3
:1030B0000E94C01586E0F801A8E2B2E001900D92EE
:1030C0008A95E1F73DC086E0F801A8E2B2E0019000
:1030D0000D928A95E1F75AC04D875E878D859E8552
:1030E0000E94301681115FCF80912D028160809304
:1030F0002D02C8010E94C01549C0E8E2F2E086E056
:10310000DF011D928A95E9F71BC0EE2009F462CF1A
:103110004D875E878D859E850E943016F82E882308
:1031200009F458CF86E0F801A8E2B2E001900D92D0
:103130008A95E1F788E292E00E9434120E94831699
:103140000E94751623C04D875E878D859E850E94DF
:10315000AC1B292F22952F70223028F49F7039F054
:10316000811105C00BC0243028F49F7049F4805EA3
:10317000883020F0C8010E94C015BF2CFB2C06C06F
:10318000D80115969C91907F91F7F8CF8F2D61967D
:103190000FB6F894DEBF0FBECDBFDF91CF911F9168
:1031A0000F91FF90EF90DF90CF90BF90AF90089578
:1031B0001F93CF93DF93CDB7DEB72C970FB6F8945C
:1031C000DEBF0FBECDBF4F83588769877A878B8755
:1031D0009C87CE0107960E94EB168823D1F09F8131
:1031E00088852A853B85232B31F08F3F31F481E0A0
:1031F0009F3F19F403C081E001C080E080FD47C01B
:103200004F81588569857A858B859C850E944416F7
:103210003EC086E0FE013796DE01119601900D92C8
:103220008A95E1F7FF81E8856A857B8561157105DF
:1032300031F0EF3F31F481E0FF3F19F403C081E04A
:1032400001C080E080FD23C02091F70130E0C9017A
:103250000196877099274091F60150E084179507F1
:10326000F1F1F983EA837D836C8396E0929FD0012C
:10327000939FB00D1124A850BE4FFE0131960190CE
:103280000D929A95E1F78093F7010E94541616E08B
:103290008091F6019091F701891771F1189FC00193
:1032A000112488509E4F0E94EB16882329F1E0914B
:1032B000F6011E9FF0011124E850FE4F408151811C
:1032C00062817381848195810E9444168091F60108
:1032D00090E00196877099278093F601D9CF0E94DC
:1032E00008161092F7011092F601E8E2F2E086E08B
:1032F000DF011D928A95E9F72C960FB6F894DEBF90
:103300000FBECDBFDF91CF911F910895EF92FF9235
:103310000F931F93CF93DF938C01892B09F46CC01B
:10332000F12CEE24E394E8012196F801849184378E
:1033300040F4843008F051C0813081F0823019F1BE
:103340005BC0853709F444C0A8F19CE7980F90371B
:1033500008F052C08F770E94E41241C00E5F1F4FE9
:10336000FE01849190E2980F983050F48770FE2D02
:1033700001C0FF0F8A95EAF78F2F0E940E1C14C020
:103380000E943A122DC00E5F1F4FFE01849190E201
:10339000980F983060F48770FE2D01C0FF0F8A955A
:1033A000EAF78F2F0E94141C0E94391C19C00E943A
:1033B000E41216C00E5F1F4FFE01C491CC2381F0B2
:1033C0008FE99FE00197F1F700C00000C150F6CFF0
:1033D0000E5F1F4FFE01F49003C00E943A128E014F
:1033E0008F2D882309F49FCFEFE9FFE03197F1F7A4
:1033F00000C000008150F5CFDF91CF911F910F9158
:10340000FF90EF900895089508950C94041A0C9479
:10341000051A0E94071A6093550270935602809312
:103420005702909358020C94EE150C94091A0F93BE
:103430001F9300915502109156022091570230912E
:103440005802602B712B822B932B1F910F910C94A0
:10345000091A0F931F930091550210915602209163
:1034600057023091580260237123822393231F91C6
:103470000F910C94091A0F931F930091550210910C
:1034800056022091570230915802602771278227F7
:1034900093271F910F910C94091A0C94C5030E9455
:1034A0004D1A60935102709352028093530290938D
:1034B00054020C94EE1560E070E0CB010C944F1AAE
:1034C0000F931F9341E050E060E070E08A019B01A0
:1034D00004C0000F111F221F331F8A95D2F7C901A4
:1034E000B8011F910F910C944F1A0F931F9341E055
:1034F00050E060E070E004C0440F551F661F771F66
:103500008A95D2F78091510290915202A091530274
:10351000B09154028A019B01082B192B2A2B3B2BBB
:10352000C901B8011F910F910C944F1A0F931F936B
:1035300041E050E060E070E004C0440F551F661F9A
:10354000771F8A95D2F74095509560957095809138
:10355000510290915202A0915302B09154028A01FB
:103560009B01082319232A233B23C901B8011F917A
:103570000F910C944F1A0F931F9341E050E060E0BD
:1035800070E004C0440F551F661F771F8A95D2F75D
:103590008091510290915202A0915302B091540235
:1035A0008A019B01082719272A273B27C901B8014F
:1035B0001F910F910C944F1A0F931F93009151027A
:1035C000109152022091530230915402602B712BC2
:1035D000822B932B1F910F910C944F1A0F931F93D3
:1035E00000915102109152022091530230915402E5
:1035F00060237123822393231F910F910C944F1A00
:103600000F931F9300915102109152022091530287
:103610003091540260277127822793271F910F91C1
:103620000C944F1A08952EE0929F800D1124E82FDC
:10363000E695E695E695877051E001C0550F8A95AD
:10364000EAF785E0E89FF0011124E25DFD4F20E0FC
:1036500030E070E04081CB01022E02C09695879544
:103660000A94E2F7817081958427852384278193CA
:103670002F5F3F4F2530310569F708952EE0929F67
:10368000800D1124682F669566956695982F977022
:1036900085E0689FB001112440E050E080E0FB012C
:1036A000E40FF51FE25DFD4F208130E0092E02C0DE
:1036B000369527950A94E2F721703327042E01C02E
:1036C000220F0A94EAF7822B4F5F5F4F4530510576
:1036D00031F70895BF92CF92DF92EF92FF920F934E
:1036E0001F93CF93DF938C01C0905102D090520270
:1036F000E0905302F090540280915502909156024E
:10370000A0915702B0915802C82AD92AEA2AFB2A66
:10371000CFE1D0E0D701C6010C2E04C0B695A79525
:10372000979587950A94D2F780FD04C0219790F76A
:10373000B12C07C0BC2EB8018C2F0E94B204019797
:10374000A9F38B2DDF91CF911F910F91FF90EF90F7
:10375000DF90CF90BF900895CF93DF93EC010E944C
:103760006A1BBE010E94B204DF91CF9108951F939E
:10377000CF93DF93EB019091F501992321F0CB01D9
:103780000E94AC1B13C0882349F0CB010E946A1B26
:10379000182F682FCE010E94131B04C0CB010E947A
:1037A0003E1B182FBE01812F0E94B204DF91CF91E2
:1037B0001F91089580915902859585958595089565
:1037C000809159028770089590915902977081E015
:1037D00009F480E0089580917D02089590917D0222
:1037E000892B80937D020895809590917D02892395
:1037F00080937D02089510927D02089590917C023D
:10380000892B80937C020895809590917C02892376
:1038100080937C02089510927C02089590917B021F
:10382000892B80937B020895809590917B02892358
:1038300080937B02089510927B02089580915A0232
:10384000089508950C94211C0C94221C90915A0206
:10385000981721F080935A020C94241C08958091AB
:103860005A02882329F010925A0280E00C94241CFA
:103870000895E0911001F091110180917D02808303
:10388000E0911001F0911101908180917C02892BCF
:103890008083E0911001F0911101908180917B0271
:1038A000892B808380915A02882381F0E091100156
:1038B000F09111019081892B80838091100190916A
:1038C00011010E944D1D81110E942F1C8091100139
:1038D000909111010C94DE100C94211C98E0899FAA
:1038E00090011124262B209359020E94751A809171
:1038F00059028595859585950C946C1C10925902FA
:1039000080E00C946C1C2091590280958223809356
:103910005902982F977079F430E0482F082E000C48
:10392000550B2417350739F08595859585950E94A7
:10393000961A0C947E1C089580E090E00E94A02AC4
:1039400021E08C3E9E4F09F020E0822F089582E016
:1039500090E00C94922A682F82E090E00C94A62AC2
:1039600083E090E00C94922A682F83E090E00C941E
:10397000A62ACF9384E090E00E94922AC82F81E289
:1039800090E00E94922A2C2F30E0A901582BCA0106
:10399000CF910895CF93C92F682F84E090E00E94C3
:1039A000A62A6C2F81E290E0CF910C94A62AAB015D
:1039B000BC018FE090E00C94B82AAB01BC0183E11C
:1039C00090E00C94B82A60E070E0CB010C94DD1C10
:1039D00060E070E0CB010E94D71C0C94E31C6CEEFD
:1039E0007EEF80E090E00E94C42A60E082E090E0F8
:1039F0000E94A62A60E083E090E00E94A62A10922E
:103A0000550210925602109257021092580260E02E
:103A100084E090E00E94A62A60E081E290E00E94AB
:103A2000A62A60E085E090E00E94A62A60E086E099
:103A300090E00E94A62A6FEF87E090E00E94A62AFD
:103A400040E050E0BA0188E090E00E94B82A60E0CF
:103A50008DE090E00E94A62A40E050E0BA0188E1A3
:103A600090E00E94B82A60E087E190E00E94A62AD8
:103A700040E050E0BA018CE190E00E94B82A60E09A
:103A800080E290E00E94A62A0C94E81C0C94EF1CA3
:103A9000682F8EE090E00C94A62AFC01329680916B
:103AA0002401882331F08091020387FF02C09EE148
:103AB00001C096E080E0915028F021912223D9F3B3
:103AC0008F5FF9CF0895662351F1209124012223BD
:103AD000E9F02091020327FF19C0462F469546952D
:103AE00046954E31E0F4677021E030E002C0220FCD
:103AF000331F6A95E2F7FC01E40FF11D828190E02B
:103B00002823392381E0232B69F409C0FC01329674
:103B100008962191621729F0E817F907D1F780E09C
:103B2000089581E008959C01FC0132969FEF80E0AA
:103B30004191461789F09F3F19F4411101C0982F18
:103B40008F5F8630A9F79F3F39F0F901E90FF11D2A
:103B500097FDFA956283089508959C012A5F3F4F6F
:103B6000FC014281461301C012820196821793071D
:103B7000B9F70895262F2695269526952E3168F4B7
:103B8000FC01E20FF11D677021E030E001C0220F5F
:103B90006A95EAF78281282B22830895262F26959D
:103BA000269526952E3170F4FC01E20FF11D677009
:103BB00021E030E001C0220F6A95EAF7209582816A
:103BC00028232283089520912401222329F0209183
:103BD000020327FD0C94BA1D0C94931D209124011F
:103BE000222329F02091020327FD0C94CE1D0C9472
:103BF000AD1D20912401FC013296222331F08091E9
:103C0000020387FF02C08EE101C086E0DF011D9242
:103C10008A95E9F7089508950C940B1E0C940B1ED9
:103C2000CF930E940E1E0E9417070E940C1EC0E038
:103C30008C2F0E94A106892B29F4CF5FC430C1F7D5
:103C400080E001C081E0CF9108950C940B1E0C948C
:103C5000251E0E94271E80910803843049F110928E
:103C60007F0220E488E190E00FB6F894A895809355
:103C700060000FBE2093600080E00E9438040E9424
:103C8000271E83B7817F846083BF83B7816083BF32
:103C90007894889583B78E7F83BF0FB6F894A895E4
:103CA00080916000886180936000109260000FBE78
:103CB00008950C940B1E0E9408160E94D2100E94B8
:103CC00038040C94591E1F920F920FB60F921124B4
:103CD0008F939F93AF93BF9380917F02811113C005
:103CE0008091FE029091FF02A0910003B091010328
:103CF0004196A11DB11D8093FE029093FF02A093F7
:103D00000003B0930103BF91AF919F918F910F90EA
:103D10000FBE0F901F90189582E084BD93E095BD73
:103D20009AEF97BD80936E0008952FB7F894809115
:103D3000FE029091FF02A0910003B09101032FBFFA
:103D40000895CF92DF92EF92FF920F931F932FB7B8
:103D5000F8944091FE025091FF026091000370912F
:103D600001032FBF6A017B01EE24FF248C0120E0B8
:103D700030E0C016D106E206F30610F441505109B6
:103D80009A01281B390BC9011F910F91FF90EF90E9
:103D9000DF90CF90089578941F920F920FB60F92F4
:103DA00011248F939F93AF93BF938091FE029091C4
:103DB000FF02A0910003B09101030196A11DB11D66
:103DC0008093FE029093FF02A0930003B09301033F
:103DD000BF91AF919F918F910F900FBE0F901F9049
:103DE000189581E08093E00080E28093D8001092E3
:103DF000C9008FE19EE40197F1F700C0000087E061
:103E000090EBDC018093110390931203A0931303B2
:103E1000B09314039CE088E10FB6F894A8958093C2
:103E200060000FBE90936000FFCFAF92BF92CF9221
:103E3000DF92EF92FF920F931F93CF93C0E0CC24B9
:103E4000C394D12CE82EF12C8C2F0E94A1065C018A
:103E500000E010E0C601002E02C0880F991F0A94EE
:103E6000E2F78A219B21892B31F40F5F1F4F0E301F
:103E7000110581F70AC0602F7C2F80E00E94970413
:103E8000E816F90691F781E004C0CF5FC430E1F68F
:103E900080E0CF911F910F91FF90EF90DF90CF9036
:103EA000BF90AF900895CF93C82F8CE20E94151F4A
:103EB000882321F08C2FCF910C94151F80E0CF9197
:103EC0000895CF930E949C1C811102C00E94461D40
:103ED000C5E6C15049F00E9417078FE39CE901979E
:103EE000F1F700C00000F5CF89E20E94531F811155
:103EF00020C18AE20E94531F81110E94461D85E065
:103F00000E94531F81110E94F11E0E94A71C8093E2
:103F10007E0287E00E94531F8823A9F18BE10E9453
:103F2000531F882351F080917E0281FB222720F9C4
:103F300091E0922790FB81F90EC08EE00E94531F02
:103F4000882361F080917E0282FB222720F991E094
:103F5000922790FB82F980937E0215C080E10E9437
:103F6000531F90917E02882341F093FB222720F972
:103F700081E0822780FB93F904C0892F809580FB24
:103F800090F990937E0280917E020E94AB1C0E9469
:103F9000B91C909303038093020380EE0E94531F89
:103FA000882341F080910203982F909590FB80F92F
:103FB0008093020389E30E94531F882359F0809164
:103FC000020381FB222720F991E0922790FB81F9DF
:103FD0008093020382EE0E94531F882359F0809140
:103FE000020382FB222720F991E0922790FB82F9BD
:103FF0008093020386EE0E94531F882359F080911C
:10400000020383FB222720F991E0922790FB83F99A
:104010008093020383EE0E94531F882359F08091FE
:10402000020384FB222720F991E0922790FB84F978
:104030008093020385E30E94531F882359F08091E7
:10404000020385FB222720F991E0922790FB85F956
:104050008093020381E30E94531F882359F08091CB
:10406000020386FB222720F991E0922790FB86F934
:104070008093020381E10E94531F882359F08091AD
:10408000020387FB222720F991E0922790FB87F912
:104090008093020380910203909103030E94CA1C43
:1040A00087E20E94531FC82F8EE10E94531F811187
:1040B000C2608FE10E94531F8111C46080E20E94A0
:1040C000531F8111C86081E20E94531F8111C0619A
:1040D00082E20E94531F8111C06283E20E94531F3B
:1040E0008111C06484E20E94531F882311F0C068CC
:1040F00002C0CC2329F08C2F0E94B41C6C2F03C06B
:104100000E94B01C682F70E080E090E00E94151AB9
:104110008FE00E94531F882319F081E00E94481D00
:1041200085E10E94531F882321F080E0CF910C94F9
:10413000481DCF9108958091870280FF0BC0609148
:10414000170185E0689FB0011124759567957595F5
:1041500067952BC081FF09C06091170185E0689FBA
:10416000B00111247595679520C082FF07C060914A
:10417000170185E0689FB001112417C09091860255
:104180009923D1F060911601961788F720911701B5
:1041900085E0289F90011124929FA001939F500DCC
:1041A000112470E0CA010E945F2A6038710540F452
:1041B0006115710519F406C065E070E0862F089559
:1041C0008FE7089581E008958091870280FF08C0FD
:1041D0006091130170E0759567957595679521C09D
:1041E00081FF06C06091130170E07595679519C055
:1041F00082FF04C06091130170E010C090918602AC
:10420000992399F0609112019617A0F780911301FC
:10421000899FC001112470E00E945F2A60387105F7
:1042200040F46115710519F406C061E070E0862F55
:1042300008958FE7089581E00895803F21F40E945A
:104240009B20819504C0813F29F40E949B2080938C
:104250008B020895823F21F40E949B20819504C027
:10426000833F29F40E949B2080938A020895893F0E
:1042700019F40E94E42005C08A3F31F40E94E42032
:10428000819580938C0208958B3F21F40E94E42055
:10429000819504C08C3F29F40E94E42080938D0214
:1042A0000895843F21F480918902816017C0853F81
:1042B00021F480918902826011C0863F21F48091AF
:1042C000890284600BC0873F21F480918902886055
:1042D00005C0883F31F48091890280618093890212
:1042E00008958D3F21F48091870281600BC08E3F3D
:1042F00021F480918702826005C08F3F29F480916C
:1043000087028460809387020895803F39F480910A
:104310008B0287FF6CC010928B0269C0813F29F429
:1043200080918B021816BCF362C090918A02823F82
:1043300029F497FF5CC010928A0259C0833F19F498
:104340001916CCF354C0893F41F480918C021816A1
:104350000CF04DC010928C024AC08A3F29F4809123
:104360008C0287FF44C0F6CF8B3F39F480918D02D9
:1043700087FF3DC010928D023AC08C3F29F4809196
:104380008D021816BCF333C0843F21F4809189025A
:104390008E7F17C0853F21F4809189028D7F11C0E7
:1043A000863F21F4809189028B7F0BC0873F21F4E7
:1043B00080918902877F05C0883F31F4809189020E
:1043C0008F7E8093890213C08D3F21F480918702F4
:1043D0008E7F0BC08E3F21F4809187028D7F05C0B8
:1043E0008F3F29F4809187028B7F80938702809191
:1043F0008A0281110EC080918B0281110AC08091C6
:104400008C02811106C080918D02811102C0109230
:104410008602089588E892E00E94F8100E94951E96
:1044200090938502809384020895CF93DF9300D008
:1044300000D000D0CDB7DEB786E0E8E8F2E0DE01DC
:10444000119601900D928A95E1F780918A0281116F
:1044500005C080918B02882309F47AC08091820282
:10446000909183020E94A11EAC0190918602992333
:1044700039F02091180130E02417350758F068C052
:10448000209119018AE0289F9001112424173507F3
:1044900018F05EC09F3F19F09F5F909386021092C4
:1044A0008C0210928D0280918A02181624F40E94C8
:1044B0009B2080938A0280918A0287FF05C00E9418
:1044C0009B20819580938A0280918B02181624F498
:1044D0000E949B2080938B0280918B0287FF05C0F6
:1044E0000E949B20819580938B0230918A02332316
:1044F000E1F020918B022223C1F045EB3403C0018F
:104500001124992319F090938A0203C081E08093CB
:104510008A0235EB2303C0011124992319F09093EB
:104520008B0203C081E080938B020E940A2280915B
:10453000840290918502909383028093820286E0A8
:10454000FE013196A8E8B2E001900D928A95E1F75C
:1045500080918C02811105C080918D02882309F41D
:104560007AC080918002909181020E94A11EAC01CC
:1045700090918602992339F02091140130E024179C
:10458000350758F068C0209115018AE0289F9001F6
:1045900011242417350718F05EC09F3F19F09F5F64
:1045A0009093860210928A0210928B0280918C0264
:1045B000181624F40E94E42080938C0280918C02CF
:1045C00087FF05C00E94E420819580938C02809132
:1045D0008D02181624F40E94E42080938D028091AD
:1045E0008D0287FF05C00E94E420819580938D0293
:1045F00030918C023323E1F020918D022223C1F00F
:1046000045EB3403C0011124992319F090938C02D7
:1046100003C081E080938C0235EB2303C001112499
:10462000992319F090938D0203C081E080938D024D
:104630000E940A22809184029091850290938102C7
:104640008093800286E0FE013196A8E8B2E00190F6
:104650000D928A95E1F726960FB6F894DEBF0FBE4D
:10466000CDBFDF91CF910895E8E8F2E086E0DF0169
:104670001D928A95E9F7109286021092870208959A
:104680008091AE020895CF93DF9300D01F92CDB7F3
:10469000DEB790910803943019F589837B836A8390
:1046A00082E08093E9008FEF9091E800815095FDC2
:1046B00006C095ED9A95F1F700008111F5CF809134
:1046C000E80085FF0DC040E050E063E070E0CE01FF
:1046D00001960E949F258091E8008E778093E800E4
:1046E0000F900F900F90DF91CF910895CF93DF93AC
:1046F000EC010E948225823011F0843031F4BE0139
:1047000084E0DF91CF910C944323DF91CF91089502
:10471000BC0183E00C944323CF93DF93EC010E9410
:104720008225823011F08430F9F482E08093E90030
:104730008FEF9091E800815095FD06C095ED9A9518
:10474000F1F700008111F5CF8091E80085FF0CC0E2
:1047500040E050E066E070E0CE010E949F2580912D
:10476000E8008E778093E800DF91CF910895CF9392
:10477000DF93EC010E948225823011F08430D9F55C
:1047800080912401882339F08091020387FF03C0C0
:1047900060E282E002C068E081E08093E9008FEF90
:1047A0009091E800815095FD06C095ED9A95F1F73E
:1047B00000008111F5CF8091E80085FF1CC0809139
:1047C0002401811105C040E050E068E070E003C0C2
:1047D00070E040E050E0CE010E949F258091E8000B
:1047E0008E778093E80080E2FE01AEE8B2E00190AF
:1047F0000D928A95E1F7DF91CF910895809107039B
:10480000811109C00E9430270E948D278091E2000B
:1048100084608093E200089510920703089508953C
:1048200008950C945B1E42E061EC81E00E94A92691
:1048300042E261EC82E00C94A92680910A03833065
:1048400009F460C030F4813071F0823009F499C00D
:1048500008958A3009F485C08B3009F46BC0893023
:1048600009F0A7C020C080910903813A09F0A1C0D6
:104870008091E800877F8093E80080910D039091FC
:104880000E03892B21F460E28EE892E003C060E021
:1048900080E090E070E00E94EA258091E8008B774C
:1048A0008093E800089580910903813209F081C066
:1048B00080910D0390910E03029708F07AC08091C9
:1048C000E800877F8093E8008091E80082FD05C0C2
:1048D000809108038111F8CF6CC02091F300809182
:1048E000F20090E0922B029729F48091F1008B7FE7
:1048F000813021F48091F1008093AE028091E80034
:104900008B7753C080910903813A09F052C080919E
:104910000D0390910E03892B09F04BC08091E800A4
:10492000877F8093E8008091E80080FFFCCF809132
:10493000240136C0809109038132D9F580910D039D
:1049400090910E03892BA9F58091E800877F8093D1
:10495000E8000E94DE2680910B03809324010C94D2
:10496000081680910903813221F58091E800877F44
:104970008093E8000E94DE2680910C038093AF02B2
:10498000089580910903813AA1F48091E800877F1E
:104990008093E8008091E80080FFFCCF8091AF0217
:1049A0008093F1008091E8008E778093E8000C946A
:1049B000DE26089584B7877F84BF0FB6F894A89544
:1049C00080916000886180936000109260000FBE4B
:1049D00090E080E80FB6F8948093610090936100B6
:1049E0000FBE0E9442110E9430270E948D278091A5
:1049F000E20084608093E20078940E94222A0E9460
:104A00004A118AE191E00E94CD108091080385301F
:104A100069F40E94291E809106038823B1F30E9445
:104A2000101E882391F30E948925EFCF0E94541114
:104A3000ECCF0C941B25292F332723303105C9F0E7
:104A400060F42130310581F02230310509F04AC08F
:104A50008BE390E02FE935E049C02132310511F1B7
:104A60002232310579F13EC082E190E02AED35E055
:104A70003DC099278130910561F040F08230910569
:104A800059F0039779F5EBE6F5E008C0EBE9F5E0BE
:104A900005C0EFE7F5E002C0E1E7F5E0849190E0C2
:104AA0009F0124C06115710541F061307105D1F499
:104AB00089E090E02AEC35E019C089E090E021EB34
:104AC00035E014C06115710541F06130710551F494
:104AD0008CEB90E02CEE35E009C080E490E028EA11
:104AE00036E004C080E090E020E030E0FA0131835D
:104AF0002083089580910803843011F081E00895A7
:104B000082E008958091B002811102C00C947A2550
:104B1000089580E189BD82E189BD09B400FEFDCF21
:104B20008091D8008F7D8093D8008091E0008260D2
:104B30008093E0008091E00081FDFCCF0895CF924A
:104B4000DF92EF92FF920F931F93CF93DF93EC01CD
:104B50008B017A010E94FD26811133C0E114F1041A
:104B600039F0F70180819181081B190BC80FD91FFB
:104B7000C12CD12C0115110519F18091E80085FD9A
:104B800016C08091E8008E778093E800E114F1046C
:104B900049F0F70180819181C80ED91ED182C0826F
:104BA00085E00FC00E94FD26882321F30AC0899169
:104BB0008093F10001501109FFEFCF1ADF0ADACF1D
:104BC00080E0DF91CF911F910F91FF90EF90DF90E8
:104BD000CF90089520910F033091100326173707C7
:104BE00048F06115710539F42091E8002E77209383
:104BF000E80001C0B901FC0120E06115710579F1FF
:104C0000809108038823F1F18530F1F18091E8006B
:104C100083FD3CC08091E80082FD2EC08091E800B9
:104C200080FFEBCF2091F3008091F20090E0922B77
:104C30006115710551F08830910538F42191209368
:104C4000F100615071090196F3CF21E0089709F056
:104C500020E08091E8008E778093E800CECF21118C
:104C6000CFCF0AC080910803882361F0853061F0BE
:104C70008091E80083FD0AC08091E80082FFF2CFB6
:104C800080E0089582E0089583E0089581E008952A
:104C900020910F03309110032617370748F0611554
:104CA000710539F42091E8002E772093E80001C0C7
:104CB000B901FC0120E06115710591F180910803B3
:104CC000882309F440C0853009F43FC08091E80092
:104CD00083FD3DC08091E80082FD2FC08091E800F7
:104CE00080FFE9CF2091F3008091F20090E0922BB9
:104CF0006115710559F08830910540F42491209395
:104D0000F1003196615071090196F2CF21E00897C8
:104D100009F020E08091E8008E778093E800CBCF07
:104D20002111CCCF0AC080910803882361F085301F
:104D300061F08091E80083FD0AC08091E80082FF65
:104D4000F2CF80E0089582E0089583E0089581E045
:104D50000895982F973068F59093E900981739F0E7
:104D60007091EC002091ED005091F00003C0242FD1
:104D7000762F50E021FD02C09F5FECCF3091EB0019
:104D80003E7F3093EB003091ED003D7F3093ED009E
:104D90003091EB0031603093EB007093EC00209386
:104DA000ED005093F0002091EE0027FDE5CF80E06C
:104DB00008958F708093E90081E008958091090340
:104DC00087FF11C08091E80082FD05C08091080333
:104DD0008111F8CF11C08091E8008B770BC08091D2
:104DE0000803882349F08091E80080FFF8CF809184
:104DF000E8008E778093E80008952091E4003091D8
:104E0000E50095E64091EC00842F817040FF23C0BF
:104E10008091E80080FD1DC080910803882399F0EF
:104E2000853099F08091EB0085FD11C04091E40040
:104E30005091E5002417350729F3915011F09A019C
:104E4000E1CF84E0089582E0089583E0089581E051
:104E5000089580E008954091E80042FFDDCF089575
:104E60000E949E270E94A627E0EEF0E080818160EC
:104E70008083E8EDF0E080818F77808319BCA7ED17
:104E8000B0E08C918E7F8C9380818F7E8083109296
:104E9000070308950F931F93CF93DF930E949E27DC
:104EA0000E94A627C8EDD0E088818F77888388810B
:104EB0008068888388818F7D888319BC109208035D
:104EC00010920403109206031092050300EE10E006
:104ED000F80180818B7F808388818160888342E0B4
:104EE00060E080E00E94A926E1EEF0E080818E7F04
:104EF0008083E2EEF0E08081816080838081886041
:104F00008083F80180818E7F80838881806188839F
:104F1000DF91CF911F910F910895E8EDF0E080812E
:104F20008F7E8083E7EDF0E080818160808384E084
:104F300082BF81E0809307030C944A27E8EDF0E0FC
:104F400080818E7F80831092E20008951092DA00B3
:104F50001092E10008951F920F920FB60F92112444
:104F60002F933F934F935F936F937F938F939F9371
:104F7000AF93BF93EF93FF938091E10082FF0BC04B
:104F80008091E20082FF07C08091E1008B7F8093D7
:104F9000E1000E94212A8091DA0080FF1FC08091E9
:104FA000D80080FF1BC08091DA008E7F8093DA00EA
:104FB0008091D90080FF0DC080E189BD82E189BD6B
:104FC00009B400FEFDCF81E0809308030E94FE2318
:104FD00005C019BC109208030E940C248091E100C6
:104FE00080FF19C08091E20080FF15C08091E2002F
:104FF0008E7F8093E2008091E20080618093E200E6
:105000008091D80080628093D80019BC85E080939D
:1050100008030E9410248091E10084FF30C0809139
:10502000E20084FF2CC080E189BD82E189BD09B422
:1050300000FEFDCF8091D8008F7D8093D8008091B5
:10504000E1008F7E8093E1008091E2008F7E80936B
:10505000E2008091E20081608093E200809104038D
:10506000882311F084E007C08091E30087FD02C02F
:1050700081E001C083E0809308030E9411248091A5
:10508000E10083FF29C08091E20083FF25C0809169
:10509000E100877F8093E10082E080930803109213
:1050A00004038091E1008E7F8093E1008091E20013
:1050B0008E7F8093E2008091E20080618093E20025
:1050C00042E060E080E00E94A9268091F0008860C4
:1050D0008093F0000E940F24FF91EF91BF91AF9158
:1050E0009F918F917F916F915F914F913F912F9100
:1050F0000F900FBE0F901F9018951F920F920FB632
:105100000F9211242F933F934F935F936F937F934D
:105110008F939F93AF93BF93CF93DF93EF93FF93BF
:10512000C091E900CF708091EC00D82FD17080FD44
:10513000D0E81092E9008091F000877F8093F00022
:1051400078940E94C1281092E9008091F000886054
:105150008093F000CD2BCF70C093E900FF91EF91C9
:10516000DF91CF91BF91AF919F918F917F916F917F
:105170005F914F913F912F910F900FBE0F901F9015
:1051800018951F93CF93DF93CDB7DEB7AA970FB6CD
:10519000F894DEBF0FBECDBFE9E0F3E08091F100EF
:1051A000819323E0E131F207C9F70E941D24809129
:1051B000E80083FF2EC18091090390910A03492FD3
:1051C00050E04A30510508F024C1FA01E857FF4F7A
:1051D0000C94732A803821F0823809F01AC108C073
:1051E0008091050390910603992389F082600FC096
:1051F00080910D038F70873008F00BC18093E90018
:105200008091EB0085FB882780F91092E90090914E
:10521000E800977F9093E8008093F1001092F100EE
:10522000D1C0282F2D7F09F0F4C0882319F08230D7
:1052300061F0EFC080910B03813009F0EAC0933038
:1052400009F080E0809306032EC080910B0381114A
:105250002AC080910D038F702FEF280F263008F0A1
:10526000D8C08093E9002091EB0020FF1CC0933050
:1052700021F48091EB00806214C09091EB0090616A
:105280009093EB0021E030E0A90102C0440F551FCC
:105290008A95E2F74093EA001092EA008091EB00D1
:1052A00088608093EB001092E9008091E800877F8E
:1052B0008093E8000E94DE26ACC08111AAC0109144
:1052C0000B031F778091E3008078812B8093E300AC
:1052D0008091E800877F8093E8000E94DE2680911D
:1052E000E80080FFFCCF8091E30080688093E300BA
:1052F000111102C082E001C083E08093080389C0DD
:105300008058823008F085C080910B0390910C0387
:105310008C3D53E0950779F583E08A838AE289839F
:105320004FB7F894DE01139620E03EE051E2E32F00
:10533000F0E050935700E49120FF03C0E295EF7036
:105340003F5FEF708E2F90E0EA3010F0C79601C0FB
:10535000C0968D939D932F5F243149F74FBF809165
:10536000E800877F8093E8006AE270E0CE01019652
:105370000E94EA2516C060910D0370910E03AE01E4
:105380004F5F5F4F0E941925BC01892B09F441C072
:105390009091E800977F9093E80089819A810E941C
:1053A00048268091E8008B778093E80032C08038EF
:1053B00081F58091E800877F8093E8008091040365
:1053C0008093F1008091E8008E7772CF811121C027
:1053D00080910B0390910C0399270297D4F480914C
:1053E000E800877F8093E80080910B03809304039B
:1053F0000E94DE2680910403811106C08091E300A3
:1054000087FD02C081E001C084E0809308030E9410
:1054100013248091E80083FF0AC08091E800877F11
:105420008093E8008091EB0080628093EB00AA9665
:105430000FB6F894DEBF0FBECDBFDF91CF911F91A5
:1054400008950895CF93809108038823A1F0C09117
:10545000E900CF709091EC00892F817090FD80E879
:10546000C82B1092E9008091E80083FD0E94C128BA
:10547000CF70C093E900CF91089587FB082E0626D0
:1054800087FD819567FD61950E94792A0EF49195BB
:1054900007FC81950895AA1BBB1B51E107C0AA1FF9
:1054A000BB1FA617B70710F0A61BB70B881F991FC5
:1054B0005A95A9F780959095BC01CD01089597FB69
:1054C000072E16F4009407D077FD09D00E944B2ACE
:1054D00007FC05D03EF4909581959F4F08957095F7
:1054E00061957F4F0895EE0FFF1F0590F491E02D19
:1054F0000994991B79E004C0991F961708F0961B30
:10550000881F7A95C9F780950895FC014150504055
:1055100030F001900616D1F73197CF010895882712
:1055200099270895F999FECF92BD81BDF89A9927E0
:1055300080B50895A6E1B0E044E050E00C94CC2A98
:10554000A8E1B0E042E050E00C94CC2A262FF99973
:10555000FECF92BD81BDF89A019700B4021639F0D2
:105560001FBA20BD0FB6F894FA9AF99A0FBE0895A3
:105570000396272F0E94A72A0E94A62A252F0E9461
:10558000A72A242F0C94A72A0196272F0E94A72A26
:105590000C94A62ADC01CB01FC01F999FECF06C0D0
:1055A000F2BDE1BDF89A319600B40D9241505040E1
:0855B000B8F70895F894FFCF4D
:1055B800010212121201191A1B1C1D1E1F20212282
:1055C8005B022808641E140A321E4023B7238C236A
:1055D8008823762301E200E900EA00B500B600B7A7
:1055E80000CD008301CC008A01920194012102239D
:1055F8000224022502260227022A02B300B4006F01
:10560800007000818283F4F1F0C63031323390911A
:10561800929334F694956766000102020202060628
:10562800060909090909090F0F0F0F0F0F1515159D
:105638001819191919191919191919232400FF0109
:1056480000010000FFFF0000010001FF00E200E987
:1056580000EA00B500B600B700CD008301CC008A8F
:105668000192019401210223022402250226022725
:0E567800022A02B300B4006F0070008182832A
:00000001FF
