:100000000C945D010C94A4010C94A4010C94A40123
:100010000C94A4010C94A4010C94A4010C94A401CC
:100020000C94A4010C94A4010C9405190C94D919F6
:100030000C944E140C94A4010C94A4010C94A401EF
:100040000C94A4010C94A4010C94A4010C94A4019C
:100050000C94A4010C9499140C94A4010C94A40184
:100060000C94A4010C94A4010C94A4010C94A4017C
:100070000C94A4010C94A4010C94A4010C94A4016C
:100080000C94A4010C94A4010C94A4010C94A4015C
:100090000C94A4010C94A4010C94A4010C94A4014C
:1000A0000C94A4010C94A4010C94A401165C1400FB
:1000B0001A000800150017001C0018000C001200A0
:1000C00013002A002B6104001600070009000A0033
:1000D0000B000D000E000F00340028424C621D0082
:1000E0001B000600190005002C41110010003664A9
:1000F0003768386835001E001F00200021002200EC
:1001000023002400250026002700310001002D00D7
:100110002E003100010001005000510052004F003C
:100120003300010001000100010001000100010095
:1001300001000100010030002F0046003A003B00A2
:100140003C003D003E003F004000410042004300B3
:100150004400450001000100010001000100010010
:100160004A004E004B004D0049000100005C0100B8
:100170000100010001000100010001000100010077
:1001800001000100040330000000100347004E008E
:10019000410050006B0069006E0000001E03340037
:1001A0003000500065007200630065006E0074004E
:1001B0002E0063006C007500620000000403090457
:1001C00009023B00020100A0FA090400000103013A
:1001D00001000921110100012240000705810308E7
:1001E000000A0904010001030000000921110100B7
:1001F00001226D000705820320000A120110010090
:10020000000008EDFEAE79010001020301050109BD
:1002100080A101850319012AB700150126B70095B1
:100220000175108100C0050C0901A10185041901A7
:100230002AA002150126A002950175108100C005B3
:10024000010906A1018505050719E029E715002523
:10025000019508750181020507190029EF15002590
:100260000195F075018102050819012905950575AB
:10027000019102950175039101C005010906A101D3
:10028000050719E029E71500250195087501810288
:100290009501750881010507190029FF150026FF42
:1002A0000095067508810005081901290595057551
:1002B000019102950175039101C011241FBECFEF7A
:1002C000DAE0DEBFCDBF04B603FE27C08091540242
:1002D00090915502A0915602B09157028730904BF1
:1002E000A740B04BD1F410925402109255021092D4
:1002F00056021092570214BE84B7877F84BF0FB690
:10030000F894A895809160008861809360001092B5
:1003100060000FBEE0E0F8E3099511E0A0E0B1E075
:10032000EAEFF7E302C005900D92AE37B107D9F7B7
:1003300022E0AEE7B1E001C01D92A435B207E1F7BB
:100340000E9445160C94D31B0C94000081E0089584
:1003500081E008950C94A80108950C94AC011F93BA
:10036000CF93DF9300D000D00F92CDB7DEB7498393
:100370005A836B833091920189819A8131111DC01A
:100380006623B9F02223A9F00E945511182F682F77
:1003900089819A810E94011169817A81812F0F9050
:1003A0000F900F900F900F90DF91CF911F910C94B1
:1003B0005F020E942D11182FEFCF0E945511698105
:1003C0007A81EDCFFC01262F4081518162817381BA
:1003D00084810C94AF01CF93DF93EC0160E00E9425
:1003E000E201BE01DF91CF910C94AD010E94991200
:1003F000811102C00E9436130C9462040C946504AF
:1004000008950C94000281E008950C940302CF93A8
:10041000C82F0E9401028C2FCF910C9405020895E1
:100420000E94680C0E940F022FEF84E39CE0215091
:1004300080409040E1F700C000000C94BD140F9381
:100440001F93CF93DF93EC0161E00E94E2018C01E6
:10045000BE010E94AA01882329F1BE01C8010E94A1
:100460001A068823F9F0BE01C8010E946C06882391
:10047000C9F0BE01C8010E948F07882399F08A81C4
:10048000882339F001158CE5180751F00E3D1C4505
:1004900079F0CE01DF91CF911F910F910C94A601BD
:1004A0000E94100280E0DF91CF911F910F9108957B
:1004B0000E943613F7CF90E080E008950895972FBB
:1004C00070E02CE0929F600D711D1124FB0194E2FD
:1004D000899FE00DF11D1124EE0FFF1FE455FF4F22
:1004E000859194910895FC01EE0FFF1FEC57FE4F8C
:1004F000859194910895CF93DF930E945F020E94AB
:100500008703EC01811520E5920708F041C08115B1
:1005100030E4930708F0B4C0803E910518F5803CA4
:10052000910508F09DC0883A910570F4853A9105CF
:1005300008F08EC081309105F9F00097E9F004973A
:10054000D8F4D0E0C0E018C08F3B9105D0F7C85A6E
:10055000D0E0CC0FDD1FC35FDE4F0990D881C02DE6
:10056000D4640AC08115904258F4C11581E0D807BF
:1005700018F4C83ED10528F7CE01DF91CF91089538
:10058000C11590E3D90708F071C0CE019F706AC011
:10059000811525E5920758F5811534E5930708F094
:1005A0009EC0811542E5940750F4C11581E5D80736
:1005B00008F469C0DC2FCC27C16FD06ADDCF982F3B
:1005C000969596959E0123703327C115D34508F063
:1005D00077C0C1E0D0E002C0CC0FDD1F2A95E2F762
:1005E00020E2929FC0011124C82BD92B67C0C115EE
:1005F00089E5D807A8F4C11598E5D90708F074C0B3
:10060000C11526E5D20708F09CCF8C2F0E941E044E
:10061000C82FD0E0DC2FCC27CC27DF71D062ACCF45
:10062000C1153AE5D30708F464C0CE019056811590
:10063000904208F086CF8D2F8F710E941E0490E0AB
:10064000982F882788279F719C012C2BE901E6CFE2
:10065000C55AD0E0C55CDE4FC881D0E0D0648CCFF5
:10066000805C91090E947302EC0186CFCE0199272C
:10067000D3FF03C0EC01D86C7FCFEC01D06C7CCFF2
:10068000DF70D06A79CFCE01E4E096958795EA9540
:10069000E1F783702C2F26952695237090E2299FF1
:1006A00090011124382B8C2F8370C1E0D0E002C060
:1006B000CC0FDD1F8A95E2F7C22BD32BDC685CCF11
:1006C000C1E0D0E002C0CC0FDD1F2A95E2F730E296
:1006D000939FC0011124C82BD92BDA684DCFD82F96
:1006E000CC27C46FD06A48CFDC2FCC27C06FD06A2C
:1006F00043CF8C2F8F700E941E0434E0D695C7958F
:100700003A95E1F7CF709C2FEC01D06935CF823854
:100710009105B1F1B0F48133910509F475C048F445
:100720008932910509F469C08A32910509F473C0D0
:1007300008958533910509F459C08933910501F174
:100740000895833E9105A9F138F4803E9105F9F0B2
:10075000823E910549F10895863E9105A9F1873EB3
:100760009105C9F1843E910519F52091460221FFBA
:100770001FC08091450284FD14C087EE90E008956B
:10078000209145022370A1F080EE90E00895209121
:10079000450220FD47C03091460230FF09C024FFCA
:1007A00044C090E080E004C02091450222FDF7CFD4
:1007B00008952091450222FD3BC03091460230FD54
:1007C000E3CF24FFF5CFEDCF2091450223FFF0CFFB
:1007D00024FDE7CFD2CF2091450223FD2CC03091DC
:1007E000460231FFEECF84EE90E00895209145025D
:1007F00025FFDECF89E290E008952091450225FF94
:10080000D7CF85E390E008952091450226FFD0CF11
:100810008AE290E008952091450226FFC9CF81E346
:1008200090E0089589E390E0089583EE90E00895C4
:1008300082EE90E0089586EE90E008959091450252
:1008400092FF06C0282F28712830F9F4877F846032
:1008500093FF06C0282F28712831F1F4877E846128
:100860002091460220FF06C0382F38713830D9F465
:10087000877F816021FF06C0282F28712831D1F49D
:10088000877E816194FD877E0895282F247124300E
:10089000F9F68B7F8860DCCF282F2471243101F793
:1008A0008B7E8861DDCF382F3171313019F78E7F23
:1008B0008860E0CF282F2171213121F78E7E886159
:1008C000E1CF08950C94610408950C946404E82F1A
:1008D000F0E0EE0FFF1FE55CFD4F808191810895F0
:1008E000089580EA8A95F1F70895CF93DF93AAE4FB
:1008F000B1E04DE451E0C1E0D0E08D91E82FE29508
:10090000EF70F0E061A18F709E0101C0220F8A9507
:10091000EAF7922F9095962391A382A1822B82A32E
:100920004A175B0751F7AEE3B1E04AE451E0C1E09A
:10093000D0E08D91E82FE295EF70F0E061A18F702B
:100940009E0101C0220F8A95EAF7922F9095962377
:1009500091A382A1822B82A34A175B0751F71092C1
:1009600036021092350210923C0210923B02109215
:1009700038021092370210923E0210923D021092FD
:100980003A02109239021092400210923F0283E024
:100990000E945505DF91CF910C94F6018F929F92A2
:1009A000AF92BF92CF92DF92EF92FF920F931F937D
:1009B000CF93DF938AE4E82E81E0F82E05E312E07E
:1009C000912CAA24A394B12CF70181917F01C82F07
:1009D000C295CF70D0E099A18F70650101C0CC0C99
:1009E0008A95EAF7892F8C2989A38AA18C2C809477
:1009F00088218AA30E947104EEE3F1E050E040E018
:100A000030E020E06191A62FA295AF70B0E0909603
:100A10008C9190E06F7002C0959587956A95E2F78A
:100A200080FD3EC0C501042E02C0880F991F0A94A4
:100A3000E2F7282B392B4F5F5F4F4C30510511F7F0
:100A400089A1882289A28AA1C82ACAA2F801808124
:100A500091812817390739F13183208381E0982A61
:100A60000E5F1F4FFDE4EF16F1E0FF0609F0ACCF7B
:100A7000292D43E06BE372E085E392E00E94560586
:100A80000E94FE01892DDF91CF911F910F91FF9060
:100A9000EF90DF90CF90BF90AF909F908F90089590
:100AA00090E080E0C6CF80E0DACF0895FF920F9308
:100AB0001F93CF93DF93F82E092F162FD72FC42F14
:100AC000222349F081E0809380010E947E1490935C
:100AD0007F0180937E01809180018823A1F0809125
:100AE0007E0190917F010E948A14069760F0EF2D9D
:100AF000F02FA12FBD2F90E080E0D0E08C179D0754
:100B000044F010928001DF91CF911F910F91FF90DF
:100B10000895219131912D933D930196EFCFAF929E
:100B2000BF92CF92DF92EF92FF920F931F93CF93DA
:100B3000DF937C015B01C42FD22FFC0182818823CB
:100B4000F9F0409383010E947E1490938201809378
:100B5000810180E28C0F883008F061C0C77081E0AD
:100B600001C0880FCA95EAF7DF91CF911F910F91CD
:100B7000FF90EF90DF90CF90BF90AF900C94FB0967
:100B800010918301141340C08091810190918201E2
:100B90000E948A146C01B701C5010E94DE0EC816BE
:100BA000D90690F5C0E2CD0F1D17B9F080E2810F94
:100BB000883040F4177081E001C0880F1A95EAF779
:100BC0000E94020AC83048F481E09D2F977001C04E
:100BD000880F9A95EAF70E94FB09802F0E94E80986
:100BE000C830E8F4D77081E001C0880FDA95EAF7E1
:100BF000DF91CF911F910F91FF90EF90DF90CF90F9
:100C0000BF90AF900C94020A80E28C0F883038F4C9
:100C1000C77081E001C0880FCA95EAF7E9CFDF917C
:100C2000CF911F910F91FF90EF90DF90CF90BF90E9
:100C3000AF9008950F939C01CB01233F4CE53407FF
:100C400059F1A8F4283DFCE53F0701F1293D4CE5A9
:100C50003407D1F1273D3C4591F406E221EE41EE07
:100C600067ED7CE50E948F0580E00F910895253F98
:100C7000FCE53F07E9F0B0F0263F3C45F9F0FC0108
:100C80008281882339F110928301EFCF07E225EEAC
:100C900045EE68ED7CE5E6CF06E221EE40EE63EF3F
:100CA0007CE5E0CF07E225EE44EE64EF7CE5DACFA9
:100CB00006E221EE42EE65EF7CE5D4CF07E225EEB9
:100CC00046EE66EF7CE5CECF08E221E045EE69ED29
:100CD0007CE5C8CF81E0C9CFCF93DF93EC01FB0166
:100CE0008281882309F419C1C230FCE5DF07C0F115
:100CF000C6319CE5D90730F09E012A5F3C4529307A
:100D0000310570F50E94AC12909346028093450223
:100D1000C031ECE5DE0709F4CFC008F05BC0C83095
:100D20008CE5D80709F4B6C088F5C430ECE5DE07D9
:100D300009F4A8C0C0F4C2308CE5D80709F49CC0FF
:100D4000809145028260C330DC4509F498C08091EF
:100D50004502909146020E94BA120E94680C80E0FF
:100D6000DF91CF910895809145028061C630ECE516
:100D7000DE0709F484C0809145028860C730DC45F5
:100D800008F47DC080914502806279C0CC308CE54A
:100D9000D80709F489C070F4809145028C60CA308C
:100DA000ECE5DE0709F46BC008F478C080914502D9
:100DB0008E7F65C0CE308CE5D80709F479C080916C
:100DC00045028B7FCF30DC4508F459C08091450245
:100DD0008F7E55C0CB3FECE5DE0709F457C030F5F8
:100DE000C3318CE5D80709F46FC078F4C131ECE564
:100DF000DE0709F465C0C231DC4509F0A8CF0E94C6
:100E0000680C809145028F773AC0C5318CE5D807D0
:100E100009F462C008F476C0809146028160CA3F3E
:100E2000DC4509F094CF8093460291CFCF3FFCE59B
:100E3000DF0709F44DC088F4809146028D7FCD3FD5
:100E40009CE5D90781F3809146028E7FCE3FDC4539
:100E500050F3809146028360E6CFC130FDE5DF07A5
:100E600009F459C008F444C080E0C230DD4509F0FF
:100E70006ECF0E9438136BCF8091450281608093C2
:100E8000450265CF809145028460F9CF809146028A
:100E90008260C9CF809145028064F1CF0E94680CC6
:100EA000809145028068EBCF809145028D7FE7CF2E
:100EB00080914502877FE3CF809145028F7DDFCF10
:100EC000809145028F7BDBCF80914502837FD7CF16
:100ED000809146028C7FA7CF8091450282FB9927A3
:100EE00090F921E0922790FB82F990FB83F9C7CF1C
:100EF00080914602982F909591708E7F892B90FB60
:100F000081F991CF0E94680C90914502892F97FB3F
:100F100087F98058B4CF81E0ACCF81E021CFCF9367
:100F2000DF93EB0186319C4511F50E94EA119A810D
:100F3000992399F08A7A91E009F490E090938401E2
:100F4000811109C089E20E94C5110E94361280E019
:100F5000DF91CF91089585E3F6CF809184018111CF
:100F600004C089E20E94CC11F0CF85E3FBCF81E081
:100F7000EFCF90938A01809389010895E0918901D0
:100F8000F0918A01309721F00190F081E02D0994D1
:100F900080E00895E0918901F0918A01309799F0FD
:100FA00020910C01222359F02091450227FF07C010
:100FB000DC012C9111962C93119725E02C93028043
:100FC000F381E02D099408952091870130918801E3
:100FD0002817390771F09093880180938701E09179
:100FE0008901F0918A01309721F00680F781E02D88
:100FF00009940895209185013091860128173907B9
:1010000071F09093860180938501E0918901F091C0
:101010008A01309721F00084F185E02D099408952C
:1010200085B7806885BF85B7806885BF08950895B6
:1010300008950C94170808950C941B080E9410083A
:101040000E9418080C94190881E008950C94240853
:101050000E9475140E9475040E94CE140C941C0802
:101060007F928F929F92AF92BF92CF92DF92EF9238
:10107000FF920F931F93CF93DF93CDB7DEB72A97DD
:101080000FB6F894DEBF0FBECDBF0E94CE040E9403
:101090002608882309F46FC04CE8A42E41E0B42E42
:1010A00010E000E0702E802F0E9467046C01F501B3
:1010B000819091905F018816990609F456C080913D
:1010C000110281FD0E94700480E0EE24E394F12C73
:1010D0008C249D2494012E213F21232B09F43FC011
:1010E0008E837F82CE20DF2081E0CD2809F480E04E
:1010F00088870E947E148160782F9A8789874E8125
:101100005F8168858A850E94E008000F111FF80141
:10111000E457FE4F80819181E826F926F182E08232
:101120000E94BE0790918B018917B1F10E94BE0702
:1011300080938B012A960FB6F894DEBF0FBECDBF09
:10114000DF91CF911F910F91FF90EF90DF90CF90A3
:10115000BF90AF909F908F907F900C9407028F5F0D
:10116000EE0CFF1C8C3009F0B5CF0F5F1F4F033022
:10117000110509F097CF8FEF89838A831B820E9424
:101180007E148160782F9D838C8349815A816B8185
:101190008D810E94E008C4CF2A960FB6F894DEBF76
:1011A0000FBECDBFDF91CF911F910F91FF90EF90B8
:1011B000DF90CF90BF90AF909F908F907F900895D9
:1011C000CF93DF93CDB7DEB72B970FB6F894DEBF82
:1011D0000FBECDBF4F83588769877A878B871E8262
:1011E0001D8285E0FE013796DE01119601900D9279
:1011F0008A95E1F749815A816B817C818D819E813D
:101200002B960FB6F894DEBF0FBECDBFDF91CF9106
:101210000C94E10EFC01808191810C949711CF9385
:10122000C82F882309F483C08238C1F40E94BE0706
:1012300081FD7DC089E30E94C5110E9436122FEF07
:1012400081EE94E0215080409040E1F700C0000022
:1012500089E30E94CC11CF910C9436128338A1F40B
:101260000E94BE0780FD63C083E50E94C5110E94F5
:1012700036122FEF81EE94E0215080409040E1F74C
:1012800000C0000083E5E5CF8438A1F40E94BE07CA
:1012900082FD4DC087E40E94C5110E9436122FEFD7
:1012A00081EE94E0215080409040E1F700C00000C2
:1012B00087E4CFCF8CEF8C0F813A90F46C2F809124
:1012C0000001909101010E945113882329F08C2F75
:1012D0000E94CC110E9436128C2F0E94C511BBCFE8
:1012E00080E28C0F883048F4C77081E001C0880F1D
:1012F000CA95EAF70E94ED11AECFEBE5EC0FE330B3
:1013000040F4F0E0E558FE4F808190E0CF910C94DE
:10131000E407C85AC73158F4EC2FF0E0EE0FFF1F76
:10132000E35BFE4F80819181CF910C94FA07CF91BE
:101330000895882309F44BC0823871F40E94BE07D7
:1013400081FF45C089E30E94C5110E94361289E3DE
:101350000E94CC110C943612833859F40E94BE07B7
:1013600080FF35C083E50E94C5110E94361283E5D7
:10137000EFCF843859F40E94BE0782FF28C087E46B
:101380000E94C5110E94361287E4E2CF9CEF980FAD
:10139000913AF0F290E2980F983050F4877091E013
:1013A00001C0990F8A95EAF7892F0E94F311D2CFD5
:1013B0009BE5980F933020F490E080E00C94E407D4
:1013C000885A873120F490E080E00C94FA07089561
:1013D000CF93C82F0E940F09C93349F42FEF87EE2E
:1013E00093E0215080409040E1F700C000008C2F36
:1013F000CF910C949909882321F00E94ED110C944F
:1014000036120895882321F00E94F3110C943612AD
:101410000895BF92CF92DF92EF92FF920F931F93A6
:10142000CF93DF936C01D62FC72FFC010581029566
:101430000F70128111110E940A120E94E311E82E0E
:10144000882391F01123D1F08C2F807F803421F0FC
:1014500080E28D0F883090F082E00E9481120E941D
:10146000E31191E0E82EE926BC2EB2949FE0B92268
:10147000EB2DF0E0EB52F44E0C948B1BE12CF4CFEF
:101480000C2F0F70C07F11F00295007F1123A9F07F
:10149000002359F080E28D0F883010F0D11109C07F
:1014A000802F0E94ED110E9436128D2F0E940F098D
:1014B00014C0802F0E94FD11F6CF8D2F0E94990934
:1014C000002359F080E28D0F883010F0D1112CC02C
:1014D000802F0E94F3110E9436122B2D2850330BBF
:1014E0002430310520F40E94BE070E940702EE203E
:1014F00009F493C10E94DF1180FD8FC1F6011282B1
:101500000E94D9110E946510C6010E942E0C0E94F3
:10151000D911DF91CF911F910F91FF90EF90DF9044
:10152000CF90BF900C948610802F0E940312D3CFCF
:10153000FC2FFF70FF2EC07FC03219F0F29480EFB5
:10154000F822DD2369F0D13049F1112391F1002314
:1015500051F1F601858180FFA8CF8F70858323C06C
:10156000112381F0011106C00E941D128F290E94D3
:10157000FB09B3CF0130C1F70E941D128F290E94D1
:101580002312ABCF011106C00E942C128F2D0E9496
:10159000020AA3CF013009F4A0CFF6CF112329F01E
:1015A000063008F09ACF8F2DE2CF053008F095CFA6
:1015B000EDCF002359F3D93349F4FFEF27EE33E0A1
:1015C000F15020403040E1F700C000008D2F0E9414
:1015D000990983CF8C2F86958695837069F0813029
:1015E00009F07BCF8D2F9C2F9370111102C090E0DA
:1015F00080E00E94FA0771CF8D2F9C2F93701111FC
:1016000002C090E080E00E94E40767CF8C2F8370D7
:1016100009F041C0111161CF4D2F42954695477099
:10162000440F440F0D2F0F7010E030E020E0042E27
:1016300004C0000F111F221F331F0A94D2F760E06D
:1016400070E0CB01D4FF0FC06FE070E080E090E06D
:1016500004C0660F771F881F991F4A95D2F76095BF
:10166000709580959095C695C695C370602B712B2B
:10167000822B932BC23049F058F4C13019F00E94EC
:1016800017102BCF0E94051028CF0E94291025CFBC
:101690000E94031022CF8695112311F08C2F8170A8
:1016A000882309F41ACF4D2F429546954770440F71
:1016B000440F0D2F0F7010E030E020E0042E04C026
:1016C000000F111F221F331F0A94D2F760E070E051
:1016D000CB01D4FF0FC06FE070E080E090E004C069
:1016E000660F771F881F991F4A95D2F760957095EE
:1016F00080959095C695C695C370602B712B822BF3
:10170000932BC23049F058F4C13019F00E94DC101C
:10171000E4CE0E94CA10E1CE0E94EE10DECE0E94FE
:101720003F10DBCECF70112329F08C2F0E94651063
:101730008D2F1DCF8D2F0E94020A8C2F0E948610A4
:10174000CCCED23F89F160F4D03FC9F0D13F29F12E
:10175000112309F442C00111A8CE8C2F8F7121C032
:10176000D33F39F1D43FA1F7112369F1CF718C2F09
:101770000E94651063E08C2F0E946C12AECE112384
:1017800041F0053008F0A9CE8C2F8F710E94A9106E
:10179000A4CE063008F0A1CEF7CF8C2F8F71112385
:1017A00069F20E94651099CE8C2F8F711123C9F3B5
:1017B000C5CF112329F08C2F8F710E9450108DCE30
:1017C0000E944B108ACE81E00E948112023008F400
:1017D00084CE82E00E94811280CE002359F0D9335A
:1017E00009F0F4CE8FEF97EEE3E081509040E040B7
:1017F000E1F7EACE8C2F8F71A1CF4C2F4F706D2F58
:10180000C6010E945B020E947B0F67CE4C2F4F7077
:101810006D2FC6010E945E0260CEDF91CF911F91B5
:101820000F91FF90EF90DF90CF90BF9008950F93AE
:101830001F93CF93DF93EC01688179818A810E94A5
:10184000A1118C010E9400110E940210B801CE016A
:10185000DF91CF911F910F910C94090ACF93DF93E1
:10186000EC018B819C81892B29F0888199818923C6
:101870008F3F59F4DF91CF910895CE010E94170C4C
:10188000CE01DF91CF910C94EB01CE010E941F029B
:101890008111F3CF0E94E311882361F38A818823A9
:1018A00049F382E0DF91CF910C9481120E940A12D9
:1018B0000E941A120E94361290E080E00E94E40713
:1018C00090E080E00C94FA070E94D3110C94560C1F
:1018D0000E94FA110C94640CE92FE295EF70E2502B
:1018E000EE3070F4F0E0EB51F44E0C948B1B803F23
:1018F00019F020F4883E20F481E00895843FE1F35C
:1019000080E00895883EC0F3813FD1F7F5CF93FB87
:10191000882780F908950E9497110C946C0CCF933E
:10192000DF9300D000D00F92CDB7DEB70F900F90AD
:101930000F900F900F90DF91CF910895CF93DF9389
:1019400000D000D000D0CDB7DEB726960FB6F89401
:10195000DEBF0FBECDBFDF91CF9108951F93CF9310
:10196000DF93C091930116E0809194018C1304C021
:10197000DF91CF911F910895D0E01C9FF0011D9F32
:10198000F00D1124EB56FE4F40815181628173812D
:10199000848195810E949E0C2196C770E5CF40916D
:1019A000C5015091C6016091C7017091C801809135
:1019B000C9019091CA010C949E0C1F93CF93DF93A1
:1019C0008091CA01807FA9F48091C701882389F0A2
:1019D00080919301C09194016091C5017091C601FD
:1019E000A091C801B091C901D62FD72316E0C81322
:1019F00004C0DF91CF911F91089590E0109711F0EE
:101A0000DF3F19F401968770F2CF189F9001199F5C
:101A1000300D1124F901EB56FE4F41814713F2CFEF
:101A200040814613EFCF42814111ECCF4381548175
:101A30004A1B5B0B483C510528F78091CA018F7007
:101A400080618093CA01F901E656FE4F80818F7054
:101A50008061808385EC91E00E942E0CDF91CF9114
:101A60001F910C94AE0CAF92BF92CF92DF92EF9287
:101A7000FF920F931F93CF93DF93CDB7DEB761979C
:101A80000FB6F894DEBF0FBECDBF8C0185E0F80124
:101A9000DE011D9601900D928A95E1F7F8014081D3
:101AA0005181E28085ECC82E81E0D82E6091C8017A
:101AB0007091C9016115710509F461C19091C50169
:101AC0002091C601892F82238F3F09F458C1A3803A
:101AD000B480F090C701F501E61BF70BFF2009F475
:101AE000FCC08091CA01382F307FE83CF10508F036
:101AF000B2C0311179C0FE2C251323C0941321C02C
:101B0000E1101FC08F7080618093CA010E94CF0CCA
:101B1000C6010E942E0C8091CA01F80185838F2D89
:101B200061960FB6F894DEBF0FBECDBFDF91CF91A7
:101B30001F910F91FF90EF90DF90CF90BF90AF90EB
:101B40000895AB2829F0842F85238F3F09F033C1F6
:101B500080E0F82FF170DF2E80FF3CC08091930170
:101B60002091940136E0821315C04D875E878D85E4
:101B70009E850E949711292F22952F702230F0F018
:101B8000243018F59F70F1F0F8019581907FD1F421
:101B9000D12C1EC090E0389FF001399FF00D112428
:101BA000EB56FE4F6181651306C06081641303C06C
:101BB00062816E110FC001968770D5CF9F7011F0B2
:101BC000882331F3805E883018F3C8010E942E0C00
:101BD000FD2CA5CFEE2009F4A2CF8091CA0181602F
:101BE0008093CA01F12C9BCF251306C0941304C027
:101BF000F801EE2009F48DC04D875E878D859E85A6
:101C00000E948B0C882319F1EE2009F18091CA0102
:101C1000803270F02091C5013091C60138872F8342
:101C20001986BB86AA868C87CE0107960E942E0C49
:101C300086E0F801A5ECB1E001900D928A95E1F7FC
:101C40000E94DD0C0E94CF0CFF24F39468CFC801E2
:101C50000E942E0CF9CF311113C07A2DB98AA88AAF
:101C60006E2D89890E948F0C85EC91E00E942E0CCC
:101C700086E0F60111928A95E9F70E94CF0CB2CF67
:101C800025130FC094130DC0E1100BC0F80185831C
:101C9000C8010E942E0C86E0F60111928A95E9F7A0
:101CA0003ECF4D875E878D859E850E948B0C882355
:101CB00071F2EE2061F28091CA01803208F4B8CF4F
:101CC0002091C5013091C6013A8329831B82BD82D0
:101CD000AC828E83CE010196A9CFE83CF10508F0D5
:101CE00041C0FE2CEE2009F4B2CF25132AC0941374
:101CF00028C08091CA0180FD1BC0982F907FC1F041
:101D0000F8018583903F31F0982F907F905F8F701E
:101D1000892B8583C8010E942E0C86E0F801A5EC72
:101D2000B1E001900D928A95E1F70E94CF0CF7CEB9
:101D300086E0F801A5ECB1E001900D928A95E1F7FB
:101D4000EECE4D875E878D859E850E948B0C81111E
:101D50006FCF8091CA0181608093CA01C8010E943F
:101D60002E0CDDCE7A2DB98AA88A6E2D89890E9423
:101D70008F0C86E0F60111928A95E9F7D6CFEE2016
:101D800009F465CF4D875E878D859E850E948B0CFB
:101D9000F82E882309F45BCF86E0F801A5ECB1E0CA
:101DA00001900D928A95E1F785EC91E00E940A0975
:101DB0000E94DD0CBACF81E08E25CBCE88EC90E07E
:101DC00008951F93CF93DF93CDB7DEB72C970FB64F
:101DD000F894DEBF0FBECDBF4F83588769877A87DF
:101DE0008B879C87CE0107960E94330D882369F06C
:101DF0008A859B85892B39F04F815885842F8523CF
:101E00008F3F09F071C016E05FC086E0FE01379693
:101E1000DE01119601900D928A95E1F78A859B85E6
:101E2000892B89F388859F8189238F3F61F32091D6
:101E3000940130E0C9010196877099274091930180
:101E40004817190671F40E94680C109294011092C0
:101E5000930186E0E5ECF1E0DF011D928A95E9F758
:101E6000D2CF96E0929FD001939FB00D1124AB5634
:101E7000BE4FFE01319601900D929A95E1F7809345
:101E800094010E94AE0CBFCF819FC00111248B56DC
:101E90009E4F0E94330D8823E9F0E09193011E9F2D
:101EA000F0011124EB56FE4F408151816281738114
:101EB000848195810E949E0C8091930190E001960F
:101EC0008770992780939301809193019091940159
:101ED0008913DACF2C960FB6F894DEBF0FBECDBFB4
:101EE000DF91CF911F91089569857A858B859C85B7
:101EF0000E949E0C88CFEF92FF920F931F93CF9377
:101F0000DF938C01892B81F0F12CEE24E394E8011E
:101F10002196F8018491843770F4843008F05FC012
:101F20008130B1F08230A1F1DF91CF911F910F91FB
:101F3000FF90EF900895853709F44CC008F43DC038
:101F40009CE7980F903780F78F770E94990949C0D6
:101F50000E5F1F4FFE01849190E2980F983060F45D
:101F60008770FE2D01C0FF0F8A95EAF78F2F0E9420
:101F70000D120E94361202C00E940F098F2D81504F
:101F800030F2EFE9FFE03197F1F700C00000F7CF42
:101F90000E5F1F4FFE01849190E2980F983050F42D
:101FA0008770FE2D01C0FF0F8A95EAF78F2F0E94E0
:101FB0001312DFCF0E949909E1CF0E5F1F4FFE0180
:101FC000C491C150D8F28FE99FE00197F1F700C0AA
:101FD0000000F7CF0E5F1F4FFE01F490CFCF0E949D
:101FE0000F098E01CBCF08950C94F30F0E94F40FCC
:101FF0006093E8017093E9018093EA019093EB010B
:102000000C94560C08950C94F60F0F931F930091A7
:10201000E8011091E9012091EA013091EB01602B78
:10202000712B822B932B1F910F910C94F60F0F9312
:102030001F930091E8011091E9012091EA0130918C
:10204000EB0160237123822393231F910F910C9442
:10205000F60F0F931F930091E8011091E901209171
:10206000EA013091EB0160277127822793271F91A6
:102070000F910C94F60F0C94F30F0C943B100E94EC
:102080003D106093E4017093E5018093E601909325
:10209000E7010C94560C60E070E0CB010C943F100B
:1020A0000F931F9341E050E060E070E08A019B01D4
:1020B00004C0000F111F221F331F8A95D2F7C901D8
:1020C000B8011F910F910C943F100F931F9341E0A3
:1020D00050E060E070E004C0440F551F661F771F9A
:1020E0008A95D2F78091E4019091E501A091E601F3
:1020F000B091E7018A019B01082B192B2A2B3B2B5E
:10210000C901B8011F910F910C943F100F931F93B9
:1021100041E050E060E070E004C0440F551F661FCE
:10212000771F8A95D2F7CB01BA016095709580959B
:1021300090950091E4011091E5012091E601309124
:10214000E70160237123822393231F910F910C9445
:102150003F100F931F9341E050E060E070E004C037
:10216000440F551F661F771F8A95D2F78091E401AF
:102170009091E501A091E601B091E7018A019B01F0
:10218000082719272A273B27C901B8011F910F915A
:102190000C943F100F931F930091E4011091E501FF
:1021A0002091E6013091E701602B712B822B932B5C
:1021B0001F910F910C943F100F931F930091E40116
:1021C0001091E5012091E6013091E7016023712330
:1021D000822393231F910F910C943F100F931F9311
:1021E0000091E4011091E5012091E6013091E701B1
:1021F00060277127822793271F910F910C943F101E
:1022000008952CE0929F800D1124982F977041E043
:1022100001C0440F9A95EAF786958695869595E0D4
:10222000899FF0011124E553FE4F90E080E070E0BB
:102230005191DF0111979B01082E02C03695279519
:102240000A94E2F7217021952527242325272C9332
:1022500001968530910561F708952CE0929F800DDD
:102260001124982F977086958695869525E0829FF4
:10227000F0011124E553FE4F50E040E080E0219151
:1022800030E0092E02C0369527950A94E2F72170B6
:102290003327042E01C0220F0A94EAF7822B4F5FE6
:1022A0005F4F4530510559F70895BF92CF92DF92A5
:1022B000EF92FF920F931F93CF93DF938C01C09007
:1022C000E401D090E501E090E601F090E701809113
:1022D000E8019091E901A091EA01B091EB01C82ACF
:1022E000D92AEA2AFB2ACFE1D0E0BC2ED701C601C9
:1022F0000C2E04C0B695A795979587950A94D2F7AA
:1023000080FD0EC0219788F7B12C8B2DDF91CF91E6
:102310001F910F91FF90EF90DF90CF90BF900895A5
:10232000B8018C2F0E947B02019761F3EECFCF930F
:10233000DF93EC010E945511BE01DF91CF910C9407
:102340007B021F93CF93DF93EB019091920199232E
:1023500031F0CB01DF91CF911F910C94971188231D
:1023600079F0CB010E945511182F682FCE010E94E1
:102370000111BE01812FDF91CF911F910C947B023F
:10238000CB010E942D11182FF4CF682F80910001EE
:10239000909101010C94D113682F809100019091CC
:1023A00001010C94DC1380910001909101010C94C7
:1023B000E7138091EC018595859585950895809129
:1023C000EC01877008959091EC01977081E009F419
:1023D00080E0089580911002089590911002892B59
:1023E0008093100208958095909110029823909305
:1023F0001002089510921002089590910F02892BF7
:1024000080930F020895809590910F0298239093E6
:102410000F02089510920F02089590910E02892BD9
:1024200080930E020895809590910E0298239093C8
:102430000E02089510920E0208958091ED01089504
:1024400008950C9420129091ED01981721F080933B
:10245000ED010C94211208958091ED01882329F05B
:102460001092ED0180E00C9421120895E09100019A
:10247000F0910101809110028083E0910001F091C0
:102480000101808190910F02892B8083E0910001EE
:10249000F0910101808190910E02892B80839091AF
:1024A000ED01992381F0E0910001F091010180811B
:1024B000892B808380910001909101010E943D133E
:1024C00081110E942C1280910001909101010C94C5
:1024D000CA0708950C94691298E0899F900111240D
:1024E000622B6093EC010E9465108091EC01859550
:1024F000859585950C946A121092EC0180E00C94FD
:102500006A129091EC01809589238093EC01282F29
:10251000277071F4282F082E000C330B9217130626
:1025200039F08595859585950E9486100C947C12CE
:10253000089590E080E00E94991B21E08C3E9E4F20
:1025400009F020E0822F089582E090E00C94911B26
:1025500083E090E00C94911BCF9384E090E00E9484
:10256000911BC82F81E290E00E94911B982F8C2F25
:10257000CF910895CF93C92F682F84E090E00E94F7
:102580009F1B6C2F81E290E0CF910C949F1BAB01BD
:10259000BC018FE090E00C94B11BAB01BC0183E166
:1025A00090E00C94B11B60E070E0CB010C94CD1274
:1025B00060E070E0CB010E94C7120C94D3126CEE65
:1025C0007EEF90E080E00E94BD1B60E082E090E042
:1025D0000E949F1B60E083E090E00E949F1B10928E
:1025E000E8011092E9011092EA011092EB0160E01B
:1025F00084E090E00E949F1B60E081E290E00E94F6
:102600009F1B60E085E090E00E949F1B60E086E0F9
:1026100090E00E949F1B6FEF87E090E00E949F1B5D
:1026200040E050E0BA0188E090E00E94B11B60E019
:102630008DE090E00E949F1B40E050E0BA0188E1ED
:1026400090E00E94B11B60E087E190E00E949F1B38
:1026500040E050E0BA018CE190E00E94B11B60E0E4
:1026600080E290E00E949F1B0C94D8120C94DF1221
:10267000682F8EE090E00C949F1BFC0132968091B5
:102680000C01882321F0809145029EE187FF96E0AE
:1026900080E0915008F4089521912223D1F38F5FB7
:1026A000F8CF662301F120910C012223F1F0209153
:1026B000450227FF1AC0462F4695469546954E314E
:1026C00090F4677021E030E002C0220F331F6A955A
:1026D000E2F7840F911DFC01828190E028233923C9
:1026E00081E0232B69F480E00895FC01329608967E
:1026F0002191261721F0E817F907D1F7F4CF81E0EF
:1027000008959C01FC0132969FEF80E041914617AD
:1027100051F09F3F19F4411101C0982F8F5F86300F
:10272000A9F79F3F09F40895290F311D97FD3A95A8
:10273000F90162830895FC013296089621912613CF
:1027400003C0DF0111971C92E817F907B9F7089544
:10275000E62FE695E695E695EE3168F4E80FF92F59
:10276000F11D677021E030E001C0220F6A95EAF7A1
:102770008281822B82830895E62FE695E695E69581
:10278000EE3170F4E80FF92FF11D677021E030E0B1
:1027900001C0220F6A95EAF72095828128232283BF
:1027A000089520910C01222329F02091450227FD54
:1027B0000C94A8130C94811320910C01222329F06E
:1027C0002091450227FD0C94BC130C949B13FC0133
:1027D000329680910C01882351F08091450287FF49
:1027E00006C08EE1DF011D928A95E9F7089586E023
:1027F000F9CF089508950C94FA130E94FB13809169
:102800004B02843049F11092120288E190E020E4FA
:102810000FB6F894A895809360000FBE20936000D7
:1028200080E00E9407020E94FB1383B7817F8460CF
:1028300083BF83B7816083BF7894889583B78E7F89
:1028400083BF0FB6F894A89580916000886180934B
:102850006000109260000FBE08950895CF930E940B
:10286000F9130E94CE040E942D14C0E08C2F0E9408
:102870006704892B31F4CF5FC330C1F780E0CF917B
:10288000089581E0FCCF08950C9443140E94680CD5
:102890000E94BE070E9407020C9444141F921FB6A8
:1028A0001F9211248F939F93AF93BF938091120235
:1028B000811113C08091410290914202A091430284
:1028C000B09144024196A11DB11D809341029093A5
:1028D0004202A0934302B0934402BF91AF919F91F3
:1028E0008F911F901FBE1F90189582E084BD93E0CA
:1028F00095BD9AEF97BD80936E0008952FB7F89419
:102900008091410290914202A0914302B091440211
:102910002FBF08959C014FB7F89480914102909188
:102920004202A0914302B09144024FBF821B930B1D
:10293000089578941F921FB61F9211248F939F932E
:10294000AF93BF938091410290914202A0914302C4
:10295000B09144020196A11DB11D80934102909354
:102960004202A0934302B0934402BF91AF919F9162
:102970008F911F901FBE1F90189587E797E7909340
:1029800001088093000888E19AE00FB6F894A895B2
:10299000809360000FBE90936000FFCF0E94991259
:1029A000811102C00E9436130E94A412809311026A
:1029B0000E94AC1290934602809345020E94A81296
:1029C000682F70E090E080E00E9403106091E401C5
:1029D0007091E5018091E6019091E7010C943D1022
:1029E0008091330208950895CF93DF9300D00F9222
:1029F000CDB7DEB790914B02943019F589837B8374
:102A00006A8382E08093E9008FEF9091E800815023
:102A100095FD06C095ED9A95F1F700008111F5CF6F
:102A20008091E80085FF0DC050E040E063E070E079
:102A3000CE0101960E94FA168091E8008E7780936D
:102A4000E8000F900F900F90DF91CF910895BC0197
:102A500084E00C94F414BC0183E00C94F414CF9340
:102A6000DF93EC0180910C018823B1F18091450244
:102A700087FF32C060E282E08093E9008FEF90919F
:102A8000E800815095FD06C095ED9A95F1F700009C
:102A90008111F5CF8091E80085FF1BC080910C016A
:102AA00070E050E040E0811104C050E040E068E098
:102AB00070E0CE010E94FA168091E8008E77809334
:102AC000E80080E2FE01A3E1B2E001900D928A9558
:102AD000E1F7DF91CF91089568E081E0CDCF80915B
:102AE0004A02811109C00E948A180E94E718809149
:102AF000E20084608093E200089510924A020895F3
:102B0000089508950C94461442E061EC81E00E941F
:102B1000061842E261EC82E00C94061880914D02A6
:102B2000833009F45FC030F48130C1F1823009F4A0
:102B30009BC008958A3009F487C08B3009F46DC0BA
:102B4000893009F04EC080914C02813209F049C0B1
:102B50008091500290915102029708F042C08091FA
:102B6000E800877F8093E8008091E80082FF35C00D
:102B70009091F3008091F200029729F48091F10086
:102B80008B7F813021F48091F1008093330280911A
:102B9000E8008B778093E8000C943A1880914C02FF
:102BA000813AF9F48091E800877F8093E800809172
:102BB000500290915102892B61F460E283E192E02E
:102BC00070E00E9449178091E8008B778093E800BD
:102BD000089560E090E080E0F3CF80914B02811196
:102BE000C3CF089580914C02813AD9F78091500269
:102BF00090915102892BA9F78091E800877F8093FB
:102C0000E8008091E80080FFFCCF80910C01809368
:102C1000F1008091E8008E77BDCF80914C02813227
:102C200001F78091500290915102892BD1F6809149
:102C3000E800877F8093E8000E943A1880914E0256
:102C400080930C010C94680C80914C02813249F6FF
:102C50008091E800877F8093E8000E943A18809175
:102C60004F0280933402089580914C02813A09F01A
:102C7000B8CF8091E800877F8093E8008091E800DA
:102C800080FFFCCF80913402C2CF84B7877F84BF9E
:102C90000FB6F894A89580916000886180936000D9
:102CA000109260000FBE80E890E00FB6F894809319
:102CB0006100909361000FBE0E941E080E948A1856
:102CC0000E94E7188091E20084608093E20078948B
:102CD0000E94701B0E94280882E091E00E94B907C0
:102CE00080914B02853019F00E943008F9CF0E9484
:102CF000FD1380914902882399F30E942E148823A2
:102D000079F30E94E416ECCF0C948616292F332712
:102D10002330310519F168F42130310509F44AC036
:102D20002230310509F44BC090E080E030E020E033
:102D300028C02132310579F122323105A9F780E42A
:102D400090E02AE732E061157105D9F08DE690E058
:102D50002DE032E061307105A1F0E6CF9927813096
:102D6000910599F0009741F08230910589F0039721
:102D7000D9F6E4E8F1E002C0ECEBF1E0849190E0F8
:102D80009F01FA01318320830895ECE9F1E0F6CF49
:102D9000EAE8F1E0F3CF89E090E022ED31E061155F
:102DA000710579F389E090E02BEE31E06130710537
:102DB00041F3BACF82E190E02BEF31E0E2CF8BE339
:102DC00090E020EC31E0DDCF80E189BD82E189BD7A
:102DD00009B400FEFDCF8091D8008F7D8093D8008C
:102DE0008091E00082608093E0008091E00081FDAE
:102DF000FCCF0895AF92BF92CF92DF92FF920F93D4
:102E00001F93CF93DF936C01EB018A010E94591845
:102E1000F82E811123C00115110539F0F8018081C8
:102E20009181C81BD90BC80ED91EB12CA12C20979B
:102E3000A9F08091E80085FD22C08091E8008E779E
:102E40008093E80001151105A1F0F80180819181BE
:102E5000A80EB91EB182A08285E0F82E8F2DDF91D9
:102E6000CF911F910F91FF90DF90CF90BF90AF90C7
:102E700008950E9459188823D1F2F82EEFCFF60159
:102E800081916F018093F1002197FFEFAF1ABF0A84
:102E9000CECFFC0180915202909153028617970782
:102EA000A0F06115710529F49091E8009E77909348
:102EB000E80090E06115710551F4911108C080910E
:102EC000E80082FF34C080E00895BC01F2CF809119
:102ED0004B028823C1F18530C1F18091E80083FD68
:102EE00030C08091E80082FDEACF8091E80080FF49
:102EF000E1CF8091F3002091F200382F6115710528
:102F000019F02830310558F091E02830310509F0EA
:102F100090E02091E8002E772093E800CBCF8191BC
:102F20008093F100615071092F5F3F4FE7CF80918F
:102F30004B02882341F0853041F08091E80083FF07
:102F4000BECF81E0089582E0089583E00895FC01FA
:102F5000809152029091530286179707A0F0611555
:102F6000710529F48091E8008E778093E80090E065
:102F70006115710551F4911108C08091E80082FF3C
:102F800035C080E00895BC01F2CF80914B028823C8
:102F9000C9F18530C9F18091E80083FD31C080918D
:102FA000E80082FDEACF8091E80080FFE1CF8091C8
:102FB000F3002091F200382F6115710519F02830C7
:102FC000310558F091E02830310509F090E080910A
:102FD000E8008E778093E800CBCF84918093F10056
:102FE0003196615071092F5F3F4FE6CF80914B02C0
:102FF000882341F0853041F08091E80083FFBDCF08
:1030000081E0089582E0089583E00895982F973035
:1030100028F08F708093E90081E008959093E90093
:10302000242F762F50E0981731F07091EC0020910A
:10303000ED005091F00021FD02C09F5FE8CF30917C
:10304000EB003E7F3093EB003091ED003D7F3093FD
:10305000ED003091EB0031603093EB007093EC00A9
:103060002093ED005093F0002091EE0027FDE5CF76
:1030700080E0089580914C0287FF13C08091E800A2
:1030800082FF06C08091E8008B778093E80004C03F
:1030900080914B028111F2CF089580914B028823D9
:1030A000D9F38091E80080FFF8CF8091E8008E7717
:1030B000ECCF2091E4003091E50095E6A901209144
:1030C000EC00822F817020FF06C08091E80080FF15
:1030D00006C080E008952091E80022FD1AC080918A
:1030E0004B02882389F0853089F08091EB0085FDC3
:1030F0000FC02091E4003091E50042175307F9F228
:103100009150E1F684E0089582E0089583E0089507
:1031100081E008950E94F8180E940019E0EEF0E0A6
:10312000808181608083E8EDF0E080818F7780830B
:1031300019BCA7EDB0E08C918E7F8C9380818F7E3F
:10314000808310924A0208950F931F93CF93DF93C9
:103150000E94F8180E940019C8EDD0E088818F778E
:10316000888388818068888388818F7D888319BC63
:1031700010924B021092470210924902109248029C
:1031800000EE10E0F80180818B7F80838881816070
:10319000888342E060E080E00E940618E1EEF0E003
:1031A00080818E7F8083E2EEF0E080818160808389
:1031B000808188608083F80180818E7F8083888110
:1031C00080618883DF91CF911F910F910895E8ED81
:1031D000F0E080818F7E8083E7EDF0E08081816088
:1031E000808384E082BF81E080934A020C94A4181B
:1031F000E8EDF0E080818E7F80831092E2000895F8
:103200001092DA001092E10008951F920F920FB60B
:103210000F9211242F933F934F935F936F937F935C
:103220008F939F93AF93BF93EF93FF938091E100B0
:1032300082FF0BC08091E20082FF07C08091E10015
:103240008B7F8093E1000E946F1B8091DA0080FFEA
:1032500019C08091D80080FF15C08091DA008E7F60
:103260008093DA008091D90080FF96C080E189BD0B
:1032700082E189BD09B400FEFDCF81E080934B025D
:103280000E946F158091E10080FF19C08091E200DB
:1032900080FF15C08091E2008E7F8093E2008091D4
:1032A000E20080618093E2008091D8008062809388
:1032B000D80019BC85E080934B020E948115809153
:1032C000E10084FF2BC08091E20084FF27C080E1F1
:1032D00089BD82E189BD89B5982F917080FFFBCFB0
:1032E0008091D8008F7D8093D8008091E1008F7EFF
:1032F0008093E1008091E2008F7E8093E2008091D4
:10330000E20081608093E20080914702882309F403
:1033100049C084E080934B020E9482158091E100B5
:1033200083FF29C08091E20083FF25C08091E100E6
:10333000877F8093E10082E080934B0210924702E6
:103340008091E1008E7F8093E1008091E2008E7F8A
:103350008093E2008091E20080618093E20042E08D
:1033600060E080E00E9406188091F0008860809301
:10337000F0000E948015FF91EF91BF91AF919F9156
:103380008F917F916F915F914F913F912F910F900E
:103390000FBE0F901F90189519BC10924B020E94FF
:1033A0007D1570CF8091E30087FD93E090934B02F1
:1033B000B3CF1F920F920FB60F9211242F933F930A
:1033C0004F935F936F937F938F939F93AF93BF932D
:1033D000CF93DF93EF93FF93D091E900DF7080915B
:1033E000EC00C82FC17080FDC0E81092E900809108
:1033F000F000877F8093F00078940E941D1A10924D
:10340000E9008091F00088608093F000CD2BCF70B0
:10341000C093E900FF91EF91DF91CF91BF91AF9100
:103420009F918F917F916F915F914F913F912F91DC
:103430000F900FBE0F901F9018951F93CF93DF939F
:10344000CDB7DEB7AA970FB6F894DEBF0FBECDBFDB
:103450008CE492E02091F100FC012193CF01F2E095
:1034600084359F07B9F70E948E158091E80083FF8D
:103470001EC180914C0290914D029A3008F017C104
:10348000E92FF0E0ED50F44E0C948B1B803899F04E
:10349000823809F00CC1809150028F70873008F09B
:1034A00006C18093E9008091EB0085FB882780F9B5
:1034B0001092E90006C08091480290914902911152
:1034C00082609091E800977F9093E8008093F100EC
:1034D0001092F1008091E8008E77E5C0882309F40E
:1034E000D3C0823009F0E3C080914E028111D6C072
:1034F000809150028F702FEF280F263008F0D7C030
:103500008093E9002091EB0020FFC8C0933031F494
:103510008091EB0080628093EB00C0C09091EB0043
:1035200090619093EB0021E030E001C0220F8A957A
:10353000EAF72093EA001092EA008091EB0088609D
:10354000EACF8111B4C010914E021F778091E30041
:103550008078812B8093E3008091E800877F8093BF
:10356000E8000E943A188091E80080FFFCCF80912B
:10357000E30080688093E30082E0111183E0809390
:103580004B0295C08058823008F091C080914E0265
:1035900090914F028C3D23E09207A1F583E08A834E
:1035A0008AE289834FB7F894DE01139620E03EE06B
:1035B00051E2E32FF0E050935700E49120FF03C065
:1035C000E295EF703F5FEF708E2F90E0EA30C0F031
:1035D000C7968D939D932F5F243159F74FBF8091EC
:1035E000E800877F8093E8006AE270E0CE010196F0
:1035F0000E9449178091E8008B778093E80057C0BC
:10360000C096E7CF6091500270915102AE014F5FBA
:103610005F4F0E948416BC01892B09F448C0909129
:10362000E800977F9093E80089819A810E94A7170C
:10363000E1CF8038E1F58091E800877F8093E80052
:10364000809147028093F10045CF811130C0909165
:103650004E02923060F58091E800877F8093E80009
:10366000909347020E943A1880914702882311F0F4
:1036700084E005C08091E30087FDFACF81E080936C
:103680004B020E94841513C080914E02813079F460
:1036900081E0933009F080E0809349021092E900C4
:1036A0008091E800877F8093E8000E943A1880911B
:1036B000E80083FF0AC08091E800877F8093E800DC
:1036C0008091EB0080628093EB00AA960FB6F8948D
:1036D000DEBF0FBECDBFDF91CF911F91089508953A
:1036E000CF9380914B028823A1F0C091E900CF7065
:1036F0009091EC00892F817090FD80E8C82B10928A
:10370000E9008091E80083FD0E941D1ACF70C093EC
:10371000E900CF910895EE0FFF1F0590F491E02D81
:103720000994F999FECF92BD81BDF89A992780B589
:103730000895A8E1B0E042E050E00C94C51B262FAC
:10374000F999FECF92BD81BDF89A019700B4021697
:1037500039F01FBA20BD0FB6F894FA9AF99A0FBE45
:1037600008950396272F0E94A01B0E949F1B252FC0
:103770000E94A01B242F0C94A01B0196272F0E94AF
:10378000A01B0C949F1BDC01CB01FC01F999FECF1F
:1037900006C0F2BDE1BDF89A319600B40D924150D9
:1037A0005040B8F70895F894FFCF400A400A980AAD
:1037B000980AEA0A6D0A6D0A6D0A060B920BA10BB4
:1037C000A10BFD0B6D0A6D0A060C770C770C800CB3
:1037D000800C820C800C800C800C770C770C870C92
:1037E000800C800C870C461A6E1A571B6E1A571BDA
:0A37F000A11AC21A571B191B251B52
:1037FA00EE01F0142F15F3142B15271501E200E939
:10380A0000EA00B500B600B700CD008301CC008AFB
:10381A000192019401210223022402250226022791
:10382A00022A02B300B4006F007000818283669797
:10383A00C63436323331F7F6F5F4919094E200E962
:10384A0000EA00B500B600B700CD008301CC008ABB
:10385A000192019401210223022402250226022751
:0E386A00022A02B300B4006F00700081828356
:00000001FF
