:100000000C9402030C9449030C9449030C94490387
:100010000C9449030C9449030C9449030C94490330
:100020000C9449030C9449030C943B270C940F281F
:100030000C94601E0C9449030C9449030C944903DE
:100040000C9449030C9449030C9449030C94490300
:100050000C9449030C94AB1E0C9449030C94490373
:100060000C9449030C9449030C9449030C944903E0
:100070000C9449030C9449030C9449030C944903D0
:100080000C9449030C9449030C9449030C944903C0
:100090000C9449030C9449030C9449030C944903B0
:1000A0000C9449030C9449030C944903290014004F
:1000B0001A000800150017001C0018000C001200A0
:1000C00013002F002A00C25C2B61040016000700F9
:1000D00009000A000B000D000E000F003300340071
:1000E00028000000E1001D001B00060019000500AB
:1000F00011001000360037003800E1005200000007
:100100006500E000E300E20001512C002C000251E8
:10011000E600E4004C00500051004F0035001E0086
:100120001F002000210022002300240025002600BB
:10013000270030003100C35C01002D002E002F008D
:10014000300031005000510052004F0033000100D8
:100150000100000001000100010001000100010098
:100160000100010001000100460001004B000000F9
:100170000100010001000100010001000100035124
:100180000100010001004A004E004D0035023A0016
:100190003B003C003D003E003F004000410042006B
:1001A000430044004500010001000100010001007E
:1001B0000100010001000100010001000100010037
:1001C0000100000001000100010001000100010028
:1001D000010001000100C85CC75C0100C95C0000AF
:1001E00001000100010001000351010001000100B4
:1001F000010001000100C65CCA5CC55C0100010091
:1002000001000100010001000100010001000100E6
:1002100001000100010001000100010001000100D6
:1002200001000100010001000100010001000100C6
:1002300001000000010001000100010001000100B7
:1002400001000100010001000100010001000000A7
:100250000100010001000100010001000100010096
:1002600001000100010001000100010032190A0033
:10027000047F3F1F643214643214783C1E1E140A3B
:10028000052223252628292A2C2D2F3032333536D6
:10029000383A3B3D3E4042434547494A4C4E505117
:1002A000535557595A5C5E6062646668696B6D6F3E
:1002B00071737577797B7D7F81838587898A8C8E41
:1002C00090929496989A9C9E9FA1A3A5A7A8AAAC49
:1002D000AEAFB1B3B4B6B8B9BBBCBEBFC1C2C3C583
:1002E000C6C7C9CACBCCCDCED0D1D2D2D3D4D5D625
:1002F000D7D7D8D9D9DADADBDBDBDCDCDCDCDCDD58
:10030000DDDDDDDCDCDCDCDCDBDBDBDADAD9D9D83B
:10031000D7D7D6D5D4D3D2D2D1D0CECDCCCBCAC9D3
:10032000C7C6C5C3C2C1BFBEBCBBB9B8B6B4B3B102
:10033000AFAEACAAA8A7A5A3A19F9E9C9A9896949D
:1003400092908E8C8A89878583817F7D7B79777572
:1003500073716F6D6B6968666462605E5C5A595751
:10036000555351504E4C4A4947454342403E3D3B10
:100370003A3836353332302F2D2C2A29282625239A
:1003800022FFAA7F55400001010101010101010185
:100390000202020202020202020303030303030336
:1003A0000304040404040404050505050506060603
:1003B0000606070707070708080808090909090AC0
:1003C0000A0A0B0B0B0C0C0C0D0D0D0E0E0E0F0F65
:1003D0000F101011111112121313141415151616F3
:1003E0001717181819191A1A1B1B1C1D1D1E1E1F62
:1003F0002020212222232424252626272829292AB1
:100400002B2C2D2D2E2F30313232333435363738D8
:10041000393A3B3C3D3E3F404142434445464748D4
:10042000494A4C4D4E4F50515354555658595A5BAA
:100430005D5E5F616264656668696B6C6D6F70724A
:10044000737577787A7B7D7E8082838587888A8CB6
:100450008E8F91939596989A9C9EA0A2A3A5A7A9EA
:10046000ABADAFB1B3B5B7BABCBEC0C2C4C6C9CBE1
:10047000CDCFD1D4D6D8DBDDDFE2E4E7E9EBEEF097
:10048000F3F5F8FAFDFF0403300000000C0343000D
:1004900061006A0061006C0000001A0357006100EF
:1004A0006C006C00650074006200750072006E00E4
:1004B0006500720000000403090409023B00020108
:1004C00000A0FA0904000001030101000921110143
:1004D00000012240000705810308000A0904010009
:1004E000010300000009211101000122BC000705E1
:1004F000820320000A1201100100000008EDFE60D6
:100500006001000102030105010902A10185020940
:1005100001A1000509190129051500250195057599
:100520000181029501750381010501093009311529
:1005300081257F95027508810609381581257F95EB
:100540000175088106050C0A38021581257F950181
:1005500075088106C0C005010980A1018503190144
:100560002AB700150126B700950175108100C00556
:100570000C0901A101850419012AA002150126A078
:1005800002950175108100C005010906A1018505CC
:10059000050719E029E71500250195087501810275
:1005A0000507190029EF1500250195F07501810255
:1005B0000508190129059505750191029501750335
:1005C0009101C005010906A101050719E029E715F8
:1005D00000250195087501810295017508810105C5
:1005E00007190029FF150026FF00950675088100F0
:1005F00005081901290595057501910295017503F5
:100600009101C00011241FBECFEFDAE0DEBFCDBFE5
:1006100004B603FE27C08091730390917403A091E8
:100620007503B09176038730904BA740B04BD1F45F
:100630001092730310927403109275031092760354
:1006400014BE84B7877F84BF0FB6F894A8958091B5
:100650006000886180936000109260000FBEE0E04F
:10066000F8E3099511E0A0E0B1E0E4EDF6E502C0A1
:1006700005900D92AC3DB107D9F723E0ACEDB1E0A8
:1006800001C01D92A337B207E1F70E947B240C94AE
:100690002C2B0C940000259A2D98269A2E98279A98
:1006A0002F980895089561FF03C02F9A2E980895FA
:1006B00062FF03C02F982E9A089563FF02C02F9AFD
:1006C000FACF2F98F3CF81FF02C02D9A08952D986D
:1006D0000895811106C08AEA611101C089EA0C946B
:1006E000E313089581E0089581E008950C94740364
:1006F00008950C9478031F93CF93DF9300D000D01C
:100700000F92CDB7DEB749835A836B8330915B027A
:1007100089819A8131111DC06623B9F02223A9F085
:100720000E945D1B182F682F89819A810E94091BE6
:1007300069817A81812F0F900F900F900F900F9009
:10074000DF91CF911F910C9430040E94351B182F1C
:10075000EFCF0E945D1B69817A81EDCFFC01262FCE
:10076000408151816281738184810C947B03CF939A
:10077000DF93EC0160E00E94AE03BE01DF91CF91F8
:100780000C9479030E94A11C811102C00E94481D93
:100790000C943B060C943D060C94630381E0089591
:1007A0000C94CE03CF93C82F0E94CC038C2FCF91F3
:1007B0000C94D00308950E9472160E94DA032FEF62
:1007C00084E39CE0215080409040E1F700C00000AD
:1007D0000C94CF1E0F931F93CF93DF93EC0161E036
:1007E0000E94AE038C01BE010E947603882359F15A
:1007F000BE01C8010E94EE0F882329F1BE01C80185
:100800000E9440108823F9F0BE01C8010E946311C4
:100810008823C9F0BE01C8010E946A0E882399F09E
:100820008A81882339F001158CE5180751F00E3DB7
:100830001C4579F0CE01DF91CF911F910F910C945F
:1008400072030E94DB0380E0DF91CF911F910F9133
:1008500008950E94481DF7CF90E080E00895089524
:10086000972F70E02EE0929F600D711D1124FB0107
:1008700098E3899FE00DF11D1124EE0FFF1FE45551
:10088000FF4F859194910895FC01EE0FFF1FE459ED
:10089000FD4F859194910895CF93DF930E9430048A
:1008A0000E946105EC01811520E5920708F042C025
:1008B000811530E4930708F0BDC0883E910528F506
:1008C000803E910508F09DC0883A910588F4853AEC
:1008D000910508F08FC08130910509F492C000970E
:1008E00009F48FC0049708F08CC0D0E0C0E089C044
:1008F0008F3B910508F489C0805C9109C03CD1050B
:10090000A0F30E944404EC017CC08115904250F495
:10091000C11581E0D80708F074C0C03FD10528F3A5
:10092000D0656FC0C11590E3D90708F079C0CE013A
:100930009F70E7CF811525E5920758F5811534E5BD
:10094000930708F0A6C0811542E5940750F4C1153D
:1009500081E5D80708F471C0DC2FCC27C16FD06ABD
:1009600050C0982F969596959E0123703327C115F8
:10097000D34508F07FC0C1E0D0E002C0CC0FDD1F3E
:100980002A95E2F720E2929FC0011124C82BD92BAF
:100990006FC0C11589E5D807A8F4C11598E5D90736
:1009A00008F07CC0C11526E5D20708F09ECF8C2F39
:1009B0000E94F805C82FD0E0DC2FCC27CC27DF71B0
:1009C000D0621FC0C1153AE5D30708F46CC0CE0150
:1009D00090568115904208F088CF8D2F8F710E941C
:1009E000F80590E0982F882788279F719C012C2B71
:1009F000E901E6CFC55AD0E0C65ADE4FC881D0E043
:100A0000D064CE01DF91CF910895C85AD0E0CC0FC9
:100A1000DD1FC45DDE4F0990D881C02DD464F1CFB5
:100A2000CE019927D3FF03C0EC01D86CEACFEC01CB
:100A3000D06CE7CFDF70D06AE4CFCE01E4E09695CA
:100A40008795EA95E1F783702C2F269526952370DC
:100A500090E2299F90011124382B8C2F8370C1E0E4
:100A6000D0E002C0CC0FDD1F8A95E2F7C22BD32B5A
:100A7000DC68C7CFC1E0D0E002C0CC0FDD1F2A95F3
:100A8000E2F730E2939FC0011124C82BD92BDA681A
:100A9000B8CFD82FCC27C46FD06AB3CFDC2FCC27E8
:100AA000C06FD06AAECF8C2F8F700E94F80534E0F3
:100AB000D695C7953A95E1F7CF709C2FEC01D06998
:100AC000A0CF82389105B1F1B0F48133910509F4DA
:100AD00075C048F48932910509F469C08A329105DC
:100AE00009F473C008958533910509F459C0893319
:100AF000910501F10895833E9105A9F138F4803EF6
:100B00009105F9F0823E910549F10895863E9105DF
:100B1000A9F1873E9105C9F1843E910519F520910F
:100B2000650321FF1FC08091640384FD14C087EE1C
:100B300090E00895209164032370A1F080EE90E08E
:100B400008952091640320FD47C03091650330FF74
:100B500009C024FF44C090E080E004C020916403F9
:100B600022FDF7CF08952091640322FD3BC0309110
:100B7000650330FDE3CF24FFF5CFEDCF2091640373
:100B800023FFF0CF24FDE7CFD2CF2091640323FDD4
:100B90002CC03091650331FFEECF84EE90E00895D4
:100BA0002091640325FFDECF89E290E00895209133
:100BB000640325FFD7CF85E390E008952091640377
:100BC00026FFD0CF8AE290E008952091640326FFAB
:100BD000C9CF81E390E0089589E390E0089583EE22
:100BE00090E0089582EE90E0089586EE90E00895FA
:100BF0009091640392FF06C0282F28712830F9F4E1
:100C0000877F846093FF06C0282F28712831F1F474
:100C1000877E84612091650320FF06C0382F3871DC
:100C20003830D9F4877F816021FF06C0282F2871D2
:100C30002831D1F4877E816194FD877E0895282F25
:100C400024712430F9F68B7F8860DCCF282F247143
:100C5000243101F78B7E8861DDCF382F317131303F
:100C600019F78E7F8860E0CF282F2171213121F77D
:100C70008E7E8861E1CF0C944B030C945203E82FD5
:100C8000F0E0EE0FFF1FE35EFC4F8081918108953D
:100C9000089580EA8A95F1F70895CF93DF93ABE644
:100CA000B1E04FE651E0C1E0D0E08D91E82FE29550
:100CB000EF70F0E061A18F709E0101C0220F8A9554
:100CC000EAF7922F9095962391A382A1822B82A37B
:100CD0004A175B0751F7ADE5B1E04BE651E0C1E0E3
:100CE000D0E08D91E82FE295EF70F0E061A18F7078
:100CF0009E0101C0220F8A95EAF7922F90959623C4
:100D000091A382A1822B82A34A175B0751F710920D
:100D100016031092150310921E0310921D031092D9
:100D20001803109217031092200310921F031092C1
:100D30001A031092190310922203109221031092A9
:100D40001C0310921B03109224031092230384E0CF
:100D50000E943507DF91CF910C94C2038F929F922E
:100D6000AF92BF92CF92DF92EF92FF920F931F93B9
:100D7000CF93DF938BE6E82E81E0F82E05E113E0B8
:100D8000912CAA24A394B12CF70181917F01C82F43
:100D9000C295CF70D0E099A18F70650101C0CC0CD5
:100DA0008A95EAF7892F8C2989A38AA18C2C8094B3
:100DB00088218AA30E944906EDE5F1E050E040E079
:100DC00030E020E06191A62FA295AF70B0E0909640
:100DD0008C9190E06F7002C0959587956A95E2F7C7
:100DE00080FD3EC0C501042E02C0880F991F0A94E1
:100DF000E2F7282B392B4F5F5F4F4E30510511F72B
:100E000089A1882289A28AA1C82ACAA2F801808160
:100E100091812817390739F13183208381E0982A9D
:100E20000E5F1F4FFFE6EF16F1E0FF0609F0ACCFB3
:100E3000292D44E06DE173E085E193E00E943607DF
:100E40000E94CA03892DDF91CF911F910F91FF90CE
:100E5000EF90DF90CF90BF90AF909F908F900895CC
:100E600090E080E0C6CF80E0DACF0895FF920F9344
:100E70001F93CF93DF93F82E092F162FD72FC42F50
:100E8000222349F081E08093DE010E94901E90931E
:100E9000DD018093DC018091DE018823A1F0809147
:100EA000DC019091DD010E949C1E069760F0EF2D01
:100EB000F02FA12FBD2F90E080E0D0E08C179D0790
:100EC00044F01092DE01DF91CF911F910F91FF90BE
:100ED0000895219131912D933D930196EFCFEF929B
:100EE000FF920F931F93CF93DF93EB01E82FD11164
:100EF00010C0442321F0F0E0EA57FC4FE4916E2F3C
:100F00007E2F8E2FDF91CF911F910F91FF90EF9049
:100F100008950D2F10E0282F30E0442329F02A57A0
:100F20003C4FF901249130E0F6E0CF9FC00111243D
:100F3000EFEFF0E0BF010E94DB29AB018C2F90E0C6
:100F4000880F991FA5E5A49FB001A59F700D1124DE
:100F5000861B970B982F990F980FBF01601B710B81
:100F6000629FD001639FB00D729FB00D11248B2F33
:100F70009D9FB0011124672F7727EF01C61BD70B68
:100F8000BE01629FE001639FD00D729FD00D1124BE
:100F90007F01E91AF108E09EB001E19E700DF09E1C
:100FA000700D1124672F7727E61BF70BE29F800156
:100FB000E39F100DF29F100D1124E12F722F42308C
:100FC000510599F048F44115510569F0413051053A
:100FD00081F0EB2F8D2F07C04430510569F080F070
:100FE00046305105B1F76E2F8DCFE22F7B2F812F29
:100FF000FACFE22F7D2FF7CFEB2F822F712FF3CF78
:101000007B2F822FED2FEFCF41E00C946F070895D7
:10101000CF93DF93762FE901682F842F0E94040875
:10102000798368838A83DF91CF9108958091250326
:10103000982F9E7F29F48170826080932503089504
:101040008635E8F381708465F8CF88E090E00C94F1
:10105000CD2ACF92DF92EF92FF926B017C010E942A
:101060001608B701A60188E090E0FF90EF90DF90AE
:10107000CF900C94EB2AE5E2F3E083E080831182C9
:101080008FEF828383831482608171818281938157
:101090000C9429088091250380FF02C0869508954D
:1010A00080E0089590912903933018F49F5F909306
:1010B0002903882351F060912503709126038091C4
:1010C0002703909128030C942908089581E00C943B
:1010D000520890912903992319F091509093290374
:1010E000882351F060912503709126038091270396
:1010F000909128030C942908089581E00C946908C4
:1011000070E00C94DA0E609108018091250380FF55
:101110000AC08091070123E0829FC0011124865DEF
:101120009C4F0C9480088091090190910A0123E062
:10113000829FF0011124E65DFC4F891750F7118260
:10114000108212828F5F3396F8CF9091250390FF23
:1011500014C09091090120910A0133E0939FF0019E
:101160001124E65DFC4F921710F00C9483088183E4
:10117000608342839F5F3396F6CF0895CF93DF93CA
:1011800000D00F92CDB7DEB79091250390FF0AC033
:101190009E012F5F3F4F0E9408084B8169818A8121
:1011A0000E94A5080F900F900F90DF91CF910895A6
:1011B000CF93DF93EC01EC81F0E0EF57FD4F4491CA
:1011C000E5E2F3E0628181810E94BE088C818F5F3D
:1011D0008C83DF91CF910895CF93DF93EC01E5E20B
:1011E000F3E0438162818C810E94BE088C818F5F15
:1011F0008C83DF91CF9108950F931F93CF93DF934B
:1012000000D00F92CDB7DEB78C018091DF01811144
:101210000AC09E012F5F3F4F4FEF6FEF0E940808FB
:101220008A818093DF01F8016481613069F08091E7
:10123000DF0140E0662361F040E0623011F440914C
:10124000DF0180E060E004C06091DF0140E080E009
:101250000E94A508F801848190E0019663E070E0A7
:101260000E94EF2984830F900F900F90DF91CF9110
:101270001F910F910895AF92BF92CF92DF92EF929C
:10128000FF920F931F93CF93DF9300D00F92CDB7B0
:10129000DEB7182FF62E042FE22E9091250390FF33
:1012A00029C0E92FE695AE2FB0E0A159BE4F8C9131
:1012B000809343029E7F923059F59E012F5F3F4FEE
:1012C000812F0E9408084B8169818A810E94A508AC
:1012D00010932603F092270300932803EE2051F089
:1012E0006091250370912603809127039091280334
:1012F0000E9429080F900F900F90DF91CF911F91BE
:101300000F91FF90EF90DF90CF90BF90AF90089536
:10131000823019F400912803DBCF863019F4109144
:101320002603D6CF8930D9F3893191F6E9518E2F32
:101330008170D82EE695F0E0EF57FC4FA590B49061
:10134000C12CBB2460910B01C61618F00E948308C3
:10135000BFCF2C2D30E0A29EC001A39E900DB29E67
:10136000900D112470E00E94DB29812FD11013C051
:10137000860F40910901420F532F511D9A01220FF0
:10138000331F240F351F265D3C4F402F6F2D0E94C9
:101390000808C394D7CF861BECCFE5E2F3E0918138
:1013A000282F4381628188E0890F0C943B0981E0FA
:1013B0000C94CD09E5E2F3E09181282F438162810D
:1013C00088EF890F0C943B0981E00C94DA09E5E27F
:1013D000F3E0628128E0620F08F46FEF282F438169
:1013E00081810C943B0981E00C94E709E5E2F3E08C
:1013F000628128E0621B08F460E0282F438181812C
:101400000C943B0981E00C94F609E5E2F3E043819A
:1014100028E0420F08F44FEF282F628181810C945D
:101420003B0981E00C94050AE5E2F3E0438128E002
:10143000421B08F440E0282F628181810C943B0913
:1014400081E00C94140A20E00C943B09EF92FF9287
:101450001F93CF93DF93EC0110E0EE24EA94F12C7C
:1014600060910B01161770F00E9483089A818C819D
:1014700090FF27C08F5F8C83DF91CF911F91FF90EA
:10148000EF90089520910901422F410F5527551FD4
:10149000CA019A01220F331F280F391F265D3C4FC6
:1014A00070E0C7010E94EF29962F8C81409128039C
:1014B00060912703199F800D11240E9408081F5F67
:1014C000CFCF8150D8CFAF92BF92CF92DF92EF9221
:1014D000FF920F931F93CF93DF93FC0182810FEF55
:1014E00080FF01E010E042E1A42E80910B0118176B
:1014F000C8F00E9483088091E101013009F055C0D5
:10150000811102C080910B0181508093E101DF9134
:10151000CF911F910F91FF90EF90DF90CF90BF90F0
:10152000AF900895C0910901C12ED12CCC0DDD2DB5
:10153000D11DCE01880F991FC80FD91FC65DDC4F82
:10154000198218821A8234E0E32EF12CB12C80919A
:10155000E1018B0D83311CF16A2D0E94CD29892F69
:10156000082E000C990BC816D90691F48091280317
:101570008E9DA0018F9D500D112455954795559531
:1015800047959E0160912703809126030E940808D9
:10159000B00EF1E0EF1AF108D1F61F5FA6CF87FF7A
:1015A000DFCF90910B01890FDBCF90E00196609126
:1015B0000B0170E00E94EF29A8CF0F931F93CF93E8
:1015C000DF938091090190910A0123E0829FF0014D
:1015D0001124E65DFC4F891740F1C0E0D3E0609133
:1015E0000B01C61740F10E948308209105018091EC
:1015F000E001820F8093E00190910601920F909399
:101600000601191654F4082E000C990B40910B0199
:101610004150550B841795071CF021952093050127
:10162000DF91CF911F910F91089511821082128244
:101630008F5F3396D0CF0C2F10E070E0C8010E946E
:10164000EF2920910901820F482F50E02091E001FD
:10165000022E000C330B02171307BCF02091060179
:10166000022E000C330B201731077CF08D9F900168
:101670001124265D3C4F40912803609127038091FF
:1016800026030E940808CF5FAACFFA01EE0FFF1FC2
:10169000E40FF51FE65DFC4F118210821282F3CF3A
:1016A0008F929F92AF92BF92CF92DF92EF92FF9272
:1016B0000F931F93CF93DF93EC014C81042F10E025
:1016C0009801D8010E94332A9B01AC010E94492A4B
:1016D0004B015C01E0E2F0E0E01BF10BA5E5B0E0BE
:1016E000AC019B010E94492A6B017C019F01DF0133
:1016F0000E942B2A9B01AC010E94542A9B01AC0141
:10170000280D391D4A1D5B1DC701B6010E94032A21
:10171000F22E822F90E039E23F1560F143E0249FE2
:101720009001112435952795122F109500E085E53D
:10173000E82EEF1880910B01081758F10E948308DA
:101740009C8181E0992319F0903219F48FEF8093F6
:10175000040180910401890F8C83DF91CF911F9147
:101760000F91FF90EF90DF90CF90BF90AF909F9040
:101770008F90089525E530E0B901681B790B9B0136
:10178000220F331F260F371F37FFCCCF2F5F3F4F5E
:10179000C9CF8E2D01FD8F2D20910901622F600F81
:1017A0007727771F9B01220F331F260F371F265DD8
:1017B0003C4F412F609127030E9408080F5FBACF6A
:1017C0000F931F93CF93DF93EC0110E000E0909113
:1017D0000B019017110609F06CF40E9483088C81AC
:1017E00090E00196817099278C83DF91CF911F91B2
:1017F0000F91089520910901A801420F511D9A01EE
:10180000220F331F240F351F265D3C4F4C81609102
:1018100027038091260396959017110651F04CF0FE
:10182000442349F0409128030E9408080F5F1F4F8E
:10183000CECF4423B9F340E0F7CF8F929F92AF927F
:10184000BF92CF92DF92EF92FF920F931F93CF93AD
:10185000DF93FC01B280948081E0848300E015E096
:101860005BE4A52E88248394EE24EA94F12C7BE497
:10187000C72ED12C80910B01081770F0DF91CF910A
:101880001F910F91FF90EF90DF90CF90BF90AF909E
:101890009F908F900C948308C02FD0E01C9FF00184
:1018A0001D9FF00D1124EE51FE4F91101CC01382AC
:1018B000128220910901CE01820F911D9C01220FFD
:1018C000331F280F391F265D3C4F1C9FF0011D9FC1
:1018D000F00D1124EE51FE4F4281618180810E9402
:1018E00008080F5FC7CF2381222379F1215023837A
:1018F00034818A2D821B311101C0822F1C9FF0017F
:101900001D9FF00D1124EE51FE4F90912803899FE9
:10191000C0011124B6010E94DB296283211104C099
:10192000332311F01482A38222E02B1510F21C9FA6
:10193000F0011D9FF00D1124EE51FE4F8091260302
:101940008083809127038183B4CF0E94A82A8230AC
:1019500091400CF0AECF82E08B1530F50E94A82AA2
:10196000B7010E94EF291C9FF0011D9FF00D11246B
:10197000EE51FE4F808322E02B15C8F40E94A82A66
:10198000209127032695622F70E00E94EF29280FEF
:101990001C9FF0011D9FF00D1124EE51FE4F21837D
:1019A0001282A382848285CF80912603DCCF20918E
:1019B0002703EECFE5E2F3E080818E7F80836081B4
:1019C0007181828193810E942908109244022FEF35
:1019D00080E792E0215080409040E1F700C0000095
:1019E0000C94830860912503669570E04BE050E00D
:1019F0008CE091E00E94B82A892B19F481E0809351
:101A000044020E94901E90933D0280933C020895F0
:101A10009091250390FF35C09170811128C092608C
:101A200090932503662351F060912503709126035E
:101A300080912703909128030E9429086091250333
:101A4000669570E04BE050E08CE091E00E94B82A8F
:101A5000892BA1F01092440281E080933F024091D3
:101A6000280360912703809126030C94230A8B326C
:101A700010F09465D5CF880F982BD2CF0E94F20C2E
:101A8000EBCF0895682F90912503969581E0890FFB
:101A90008B3208F081E00C94080D81E00C94420D2B
:101AA000682F9091250396958FEF890F09F48AE2AC
:101AB0000C94080D81E00C94500D61E00C94080D1D
:101AC000E5E2F3E080818160808386950C945D0D72
:101AD0008091250380FD0C94DA0C0C94600D60E07D
:101AE0000C94080D8091420281112EC00E94A11C0D
:101AF000811104C00E94481D0E943B080E942508D5
:101B00006093250370932603809327039093280303
:101B10006E7F61F40E943B080E94250860932503B4
:101B20007093260380932703909328030E9416083E
:101B3000109244028091250380FF03C086950E9485
:101B40006F0D81E08093420208950F931F93CF930E
:101B5000DF9380914402882309F49DC08091430261
:101B6000E0912503E695E81BE0933E028230C9F53B
:101B7000F0E0E358FD4FE491CE2FD0E008ED18E0FF
:101B800080913F02882389F010923F020E94901EAC
:101B90009E0120953095820F931F90933D02809374
:101BA0003C02109241021092400280913C029091BE
:101BB0003D020E949C1E8C179D0708F46CC0E091AA
:101BC0003C02F0913D02CE0FDF1FD0933D02C09347
:101BD0003C028CE392E0F801DF91CF911F910F91CD
:101BE0000994863049F4F0E0E658FD4FE491CE2F99
:101BF000D0E00CEE18E0C4CF893051F4E695F0E067
:101C0000E958FD4FE491CE2FD0E006E21AE0B8CFBC
:101C10008F3051F4E695F0E0EC58FD4FE491CE2F73
:101C2000D0E003E61AE0ACCF853149F4F0E0EF589C
:101C3000FD4FE491CE2FD0E00DED1AE0A1CFC8E228
:101C4000D0E000E51BE0883109F49ACF833239F403
:101C5000EFE6F2E0C591D4910CEF18E091CFC4EF1C
:101C6000D1E000EE1BE0843209F48ACFC0EDD7E06A
:101C700007E018E0853209F083CF8E2F63E00E94E1
:101C8000C129E92FF0E0E459FD4FE491CE2FD0E0D7
:101C90000DE11CE075CFDF91CF911F910F91089559
:101CA000FA01811101C0FB010994CF93DF93C82F82
:101CB000D62F0E944A088C1740F00E944A088D17C0
:101CC00020F4DF91CF910C944D0D8C2FDF91CF91AB
:101CD0000C945D0D0F931F93CF938C01FB01C28178
:101CE000CC2309F465C00E94F21B8272F801E25C09
:101CF000FC45E431F10538F4E25DF44D0C94252AFD
:101D00000E94680DC0E08C2FCF911F910F91089514
:101D10004AE55DE06DE47DE00E94500EF3CF4DE4B6
:101D20005DE06AE57DE0F8CF44EE59E067ED79E0EB
:101D3000F3CF47ED59E064EE79E0EECF42E05AE0B0
:101D400063EF79E0E9CF43EF59E062E07AE0E4CF76
:101D500040E25AE061E17AE0DFCF41E15AE060E23F
:101D60007AE0DACF4DE758E066E678E0D5CF46E690
:101D700058E06DE778E0D0CF81E00E945D0DC2CFE2
:101D800065E082E00E94550EBDCF68E086E0FACFA4
:101D90006EE089E0F7CF64E18FE0F4CF67E185E1A1
:101DA000F1CF88E1EACF62E289E1ECCF83E2E5CFCF
:101DB000C1E0A9CF879A41B34F7751B35068EFB7CD
:101DC000F8949B01220F331F260F371F280F391F4E
:101DD0002817390741F4EFBF8FE594E00197F1F739
:101DE00000C000000895DC016D91CD0178E051BB89
:101DF000000000C067FF41BB660F000000C000C0CC
:101E000000C041BB00C07A9591F7E2CF0C94690302
:101E100056985E9A57985F9A89B186FB882780F911
:101E200029B130E0220F232F221F330B90E0232B08
:101E300009F092E0892B809347020895E0914702D0
:101E4000EE0FEE0FE093470289B186FB222720F9BF
:101E500089B190E0880F892F881F990B009711F0A6
:101E600082E090E0822BE82BE0934702EF70F0E0F5
:101E7000E656FE4F808190914602890F809346027C
:101E800084304CF0809145028F5F8093450260E082
:101E900080E00E94060F809146028D3F4CF48091B5
:101EA000450281508093450261E080E00E94060F68
:101EB00080914602837887FF03C081508C6F8F5FCB
:101EC000809346020895AF92BF92CF92DF92EF9235
:101ED000FF920F931F93CF93DF937C015B01C42F7D
:101EE000D22FFC0182818823F9F040934A020E949C
:101EF000901E909349028093480280E28C0F8830B4
:101F000008F061C0C77081E001C0880FCA95EAF788
:101F1000DF91CF911F910F91FF90EF90DF90CF90C5
:101F2000BF90AF900C94F61310914A02141340C066
:101F300080914802909149020E949C1E6C01B70159
:101F4000C5010E94E818C816D90690F5C0E2CD0F69
:101F50001D17B9F080E2810F883040F4177081E0DE
:101F600001C0880F1A95EAF70E94FD13C83048F4A3
:101F700081E09D2F977001C0880F9A95EAF70E9423
:101F8000F613802F0E94E313C830E8F4D77081E085
:101F900001C0880FDA95EAF7DF91CF911F910F9179
:101FA000FF90EF90DF90CF90BF90AF900C94FD1317
:101FB00080E28C0F883038F4C77081E001C0880F50
:101FC000CA95EAF7E9CFDF91CF911F910F91FF906A
:101FD000EF90DF90CF90BF90AF9008950F939C014A
:101FE000CB01233F4CE5340759F1A8F4283DFCE52B
:101FF0003F0701F1293D4CE53407D1F1273D3C4530
:1020000091F406E221EE41EE67ED7CE50E94630F5C
:1020100080E00F910895253FFCE53F07E9F0B0F01F
:10202000263F3C45F9F0FC018281882339F110926A
:102030004A02EFCF07E225EE45EE68ED7CE5E6CFFC
:1020400006E221EE40EE63EF7CE5E0CF07E225EE0D
:1020500044EE64EF7CE5DACF06E221EE42EE65EF76
:102060007CE5D4CF07E225EE46EE66EF7CE5CECFE9
:1020700008E221E045EE69ED7CE5C8CF81E0C9CFFB
:10208000CF93DF93EC01FB018281882309F419C10E
:10209000C230FCE5DF07C0F1C6319CE5D90730F05E
:1020A0009E012A5F3C452930310570F50E94BE1C17
:1020B0009093650380936403C031ECE5DE0709F477
:1020C000CFC008F05BC0C8308CE5D80709F4B6C0B3
:1020D00088F5C430ECE5DE0709F4A8C0C0F4C230CE
:1020E0008CE5D80709F49CC0809164038260C330FA
:1020F000DC4509F498C080916403909165030E94C7
:10210000CC1C0E94721680E0DF91CF9108958091DF
:1021100064038061C630ECE5DE0709F484C0809179
:1021200064038860C730DC4508F47DC08091640397
:10213000806279C0CC308CE5D80709F489C070F48E
:10214000809164038C60CA30ECE5DE0709F46BC053
:1021500008F478C0809164038E7F65C0CE308CE532
:10216000D80709F479C0809164038B7FCF30DC45B8
:1021700008F459C0809164038F7E55C0CB3FECE5D5
:10218000DE0709F457C030F5C3318CE5D80709F4F0
:102190006FC078F4C131ECE5DE0709F465C0C231E7
:1021A000DC4509F0A8CF0E947216809164038F77F6
:1021B0003AC0C5318CE5D80709F462C008F476C08E
:1021C000809165038160CA3FDC4509F094CF80931C
:1021D000650391CFCF3FFCE5DF0709F44DC088F4DC
:1021E000809165038D7FCD3F9CE5D90781F3809178
:1021F00065038E7FCE3FDC4550F38091650383609D
:10220000E6CFC130FDE5DF0709F459C008F444C04A
:1022100080E0C230DD4509F06ECF0E944A1D6BCFD1
:102220008091640381608093640365CF809164032F
:102230008460F9CF809165038260C9CF8091640387
:102240008064F1CF0E947216809164038068EBCFA6
:10225000809164038D7FE7CF80916403877FE3CF14
:10226000809164038F7DDFCF809164038F7BDBCF10
:1022700080916403837FD7CF809165038C7FA7CF44
:102280008091640382FB992790F921E0922790FBCB
:1022900082F990FB83F9C7CF80916503982F9095C1
:1022A00091708E7F892B90FB81F991CF0E947216DD
:1022B00090916403892F97FB87F98058B4CF81E010
:1022C000ACCF81E021CFCF93DF93EB0186319C45EA
:1022D00011F50E94F21B9A81992399F08A7A91E074
:1022E00009F490E090934B02811109C089E20E94A9
:1022F000CD1B0E943E1C80E0DF91CF91089585E3C5
:10230000F6CF80914B02811104C089E20E94D41B58
:10231000F0CF85E3FBCF81E0EFCF90935102809324
:1023200050020895E0915002F0915102309721F04F
:102330000190F081E02D099480E00895E091500231
:10234000F0915102309799F020912B01222359F0FE
:102350002091640327FF07C0DC012C9111962C9378
:10236000119725E02C930280F381E02D09940895C4
:10237000E0915002F0915102309739F022E0DC01F7
:102380002C930480F581E02D0994089520914E024C
:1023900030914F022817390771F090934F028093C4
:1023A0004E02E0915002F0915102309721F00680E8
:1023B000F781E02D0994089520914C0230914D024F
:1023C0002817390771F090934D0280934C02E091E9
:1023D0005002F0915102309721F00084F185E02DF8
:1023E0000994089585B7806885BF85B7806885BFE3
:1023F0000895089508950C94F91108950C94FD1111
:102400000E94F2110E94FA110C94FB1181E00895D0
:102410000C9406120E94871E0E944D060E943E1FC9
:102420000E94720D0E94080F0C94FE117F928F92F1
:102430009F92AF92BF92CF92DF92EF92FF920F9353
:102440001F93CF93DF93CDB7DEB72A970FB6F894DB
:10245000DEBF0FBECDBF0E94AE060E9408128823C9
:1024600009F475C043E5A42E42E0B42E10E000E06C
:10247000702E802F0E943F066C01F5018190919093
:102480005F018816990609F45CC08091E40281FD21
:102490000E94480680E0EE24E394F12C8C249D24D5
:1024A00094012E213F21232B09F445C08E837F8286
:1024B000CE20DF2081E0CD2809F480E088870E94CB
:1024C000901E8160782F9A8789874E815F81688509
:1024D0008A850E94CC12000F111FF801ED5AFD4FA2
:1024E00080819181E826F926F182E0820E94A50D83
:1024F0000E941E0F0E94EC210E94921190915202A4
:102500008917B1F10E949211809352022A960FB658
:10251000F894DEBF0FBECDBFDF91CF911F910F9119
:10252000FF90EF90DF90CF90BF90AF909F908F90F3
:102530007F900C94D2038F5FEE0CFF1C8E3009F05D
:10254000AFCF0F5F1F4F0430110509F091CF8FEF10
:1025500089838A831B820E94901E8160782F9D83CD
:102560008C8349815A816B818D810E94CC12BECFB0
:102570002A960FB6F894DEBF0FBECDBFDF91CF9184
:102580001F910F91FF90EF90DF90CF90BF90AF9091
:102590009F908F907F900895CF93DF93CDB7DEB754
:1025A0002B970FB6F894DEBF0FBECDBF4F83588771
:1025B00069877A878B871E821D8285E0FE013796A8
:1025C000DE01119601900D928A95E1F749815A81B9
:1025D0006B817C818D819E812B960FB6F894DEBF36
:1025E0000FBECDBFDF91CF910C94EB18FC01808121
:1025F00091810C949F1BCF93C82F882309F48BC023
:102600008238C1F40E94921181FD85C089E30E9445
:10261000CD1B0E943E1C2FEF81EE94E021508040A4
:102620009040E1F700C0000089E30E94D41BCF91E5
:102630000C943E1C8338A1F40E94921180FD6BC063
:1026400083E50E94CD1B0E943E1C2FEF81EE94E09B
:10265000215080409040E1F700C0000083E5E5CFC5
:102660008438A1F40E94921182FD55C087E40E9433
:10267000CD1B0E943E1C2FEF81EE94E02150804044
:102680009040E1F700C0000087E4CFCF8CEF8C0FC3
:10269000813A90F46C2F80911701909118010E945B
:1026A000631D882329F08C2F0E94D41B0E943E1C9E
:1026B0008C2F0E94CD1BBBCF80E28C0F883048F45A
:1026C000C77081E001C0880FCA95EAF70E94F51B28
:1026D000AECFEBE5EC0FE33040F4F0E0E852FE4F14
:1026E000808190E0CF910C94C611E8E5EC0FE731C2
:1026F00050F4F0E0EE0FFF1FE655FE4F8081918110
:10270000CF910C94DC11C03F30F08C2F0E94E6205A
:10271000CF910C94D121CF910895882309F452C010
:10272000823871F40E94921181FF4CC089E30E94AB
:10273000CD1B0E943E1C89E30E94D41B0C943E1CBE
:10274000833859F40E94921180FF3CC083E50E94B7
:10275000CD1B0E943E1C83E5EFCF843859F40E94C4
:10276000921182FF2FC087E40E94CD1B0E943E1C65
:1027700087E4E2CF9CEF980F913AF0F290E2980F45
:10278000983050F4877091E001C0990F8A95EAF76C
:10279000892F0E94FB1BD2CF9BE5980F933020F42A
:1027A00090E080E00C94C61198E5980F973120F4E2
:1027B00090E080E00C94DC11803F20F00E944E21DC
:1027C0000C94D1210895CF93C82F0E94FB12C933D6
:1027D00049F42FEF87EE93E0215080409040E1F7DD
:1027E00000C000008C2FCF910C948D13882321F012
:1027F0000E94F51B0C943E1C0895882321F00E9432
:10280000FB1B0C943E1C0895BF92CF92DF92EF9277
:10281000FF920F931F93CF93DF936C01D62FC72F97
:10282000FC01058102950F70128111110E94121C8A
:102830000E94EB1BE82E882391F01123D1F08C2FFE
:10284000807F803421F080E28D0F883090F082E02C
:102850000E94891C0E94EB1B91E0E82EE926BC2E09
:10286000B2949FE0B922EB2DF0E0EE5BF44D0C94B6
:10287000252AE12CF4CF0C2F0F70C07F11F00295A8
:10288000007F1123A9F0002359F080E28D0F8830DA
:1028900010F0D11109C0802F0E94F51B0E943E1C30
:1028A0008D2F0E94FB1214C0802F0E94051CF6CFB2
:1028B0008D2F0E948D13002359F080E28D0F8830F8
:1028C00010F0D1112CC0802F0E94FB1B0E943E1CD7
:1028D0002B2D2850330B2430310520F40E94921107
:1028E0000E94D203EE2009F49EC10E94E71B80FDE6
:1028F0009AC1F60112820E94E11B0E946D1AC60164
:102900000E9434160E94E11BDF91CF911F910F911D
:10291000FF90EF90DF90CF90BF900C948E1A802F95
:102920000E940B1CD3CFFC2FFF70FF2EC07FC03244
:1029300019F0F29480EFF822DD2369F0D13049F1EB
:10294000112391F1002351F1F601858180FFA8CF79
:102950008F70858323C0112381F0011106C00E946E
:10296000251C8F290E94F613B3CF0130C1F70E94B6
:10297000251C8F290E942B1CABCF011106C00E9481
:10298000341C8F2D0E94FD13A3CF013009F4A0CF7A
:10299000F6CF112329F0063008F09ACF8F2DE2CF21
:1029A000053008F095CFEDCF002359F3D93349F422
:1029B000FFEF27EE33E0F15020403040E1F700C058
:1029C00000008D2F0E948D1383CF8C2F86958695C6
:1029D000837069F0813009F07BCF8D2F9C2F93702D
:1029E000111102C090E080E00E94DC1171CF8D2FA8
:1029F0009C2F9370111102C090E080E00E94C611DC
:102A000067CF8D2F112329F00E94E6200E94D1214B
:102A10005FCF0E944E21FACF8C2F837009F041C006
:102A2000111156CF4D2F429546954770440F440FD4
:102A30000D2F0F7010E030E020E0042E04C0000FD6
:102A4000111F221F331F0A94D2F760E070E0CB0100
:102A5000D4FF0FC06FE070E080E090E004C0660F2C
:102A6000771F881F991F4A95D2F7609570958095BA
:102A70009095C695C695C370602B712B822B932BB6
:102A8000C23049F058F4C13019F00E94211A20CF09
:102A90000E940F1A1DCF0E94331A1ACF0E940D1ADE
:102AA00017CF8695112311F08C2F8170882309F49C
:102AB0000FCF4D2F429546954770440F440F0D2F71
:102AC0000F7010E030E020E0042E04C0000F111F52
:102AD000221F331F0A94D2F760E070E0CB01D4FFCD
:102AE0000FC06FE070E080E090E004C0660F771FD9
:102AF000881F991F4A95D2F760957095809590959B
:102B0000C695C695C370602B712B822B932BC23058
:102B100049F058F4C13019F00E94E41AD9CE0E944D
:102B2000D21AD6CE0E94F61AD3CE0E94471AD0CE21
:102B3000CF70112329F08C2F0E946D1A8D2F12CF88
:102B40008D2F0E94FD138C2F0E948E1AC1CED23F72
:102B500089F160F4D03FC9F0D13F29F1112309F484
:102B600042C001119DCE8C2F8F7121C0D33F39F10E
:102B7000D43FA1F7112369F1CF718C2F0E946D1AF8
:102B800063E08C2F0E94741CA3CE112341F005300A
:102B900008F09ECE8C2F8F710E94B11A99CE06300C
:102BA00008F096CEF7CF8C2F8F71112369F20E9417
:102BB0006D1A8ECE8C2F8F711123C9F3C5CF1123BF
:102BC00029F08C2F8F710E94581A82CE0E94531ABE
:102BD0007FCE81E00E94891C023008F479CE82E029
:102BE0000E94891C75CE002359F0D93309F0E9CE33
:102BF0008FEF97EEE3E081509040E040E1F7DFCEC9
:102C00008C2F8F71A1CF4C2F4F706D2FC6010E945A
:102C10002C040E9485195CCE4C2F4F706D2FC6017D
:102C20000E942F0455CEDF91CF911F910F91FF90FD
:102C3000EF90DF90CF90BF9008950F931F93CF93A5
:102C4000DF93EC01688179818A810E94A91B8C0144
:102C50000E94081B0E940C1AB801CE01DF91CF918F
:102C60001F910F910C940414CF93DF93EC018B818F
:102C70009C81892B29F08881998189238F3F59F480
:102C8000DF91CF910895CE010E941D16CE01DF91F4
:102C9000CF910C94B703CE010E94EA038111F3CFC8
:102CA0000E94EB1B882361F38A81882349F382E029
:102CB000DF91CF910C94891C0E94121C0E94221C4F
:102CC0000E943E1C0E94F8220E94D12190E080E0E8
:102CD0000E94C61190E080E00C94DC110E94DB1B86
:102CE0000C945C160E94021C0C946E16E92FE2955F
:102CF000EF70E250EE3070F4F0E0EE5AF44D0C94C8
:102D0000252A803F19F020F4883E20F481E00895C0
:102D1000843FE1F380E00895883EC0F3813FD1F71E
:102D2000F5CF93FB882780F908950E949F1B0C9490
:102D30007616CF93DF9300D000D00F92CDB7DEB7D9
:102D40000F900F900F900F900F90DF91CF910895FB
:102D5000CF93DF9300D000D000D0CDB7DEB726965A
:102D60000FB6F894DEBF0FBECDBFDF91CF910895AF
:102D70001F93CF93DF93C0915C0216E080915D02B8
:102D80008C1304C0DF91CF911F910895D0E01C9F58
:102D9000F0011D9FF00D1124E25AFD4F4081518139
:102DA00062817381848195810E94A8162196C770E3
:102DB000E5CF40918E0250918F0260919002709108
:102DC000910280919202909193020C94A8161F9305
:102DD000CF93DF9380919302807FA9F4809190023A
:102DE000882389F080915C02C0915D0260918E021F
:102DF00070918F02A0919102B0919202D62FD723A9
:102E000016E0C81304C0DF91CF911F91089590E0A0
:102E1000109711F0DF3F19F401968770F2CF189FD9
:102E20009001199F300D1124F901E25AFD4F4181A3
:102E30004713F2CF40814613EFCF42814111ECCFCF
:102E4000438154814A1B5B0B483C510528F7809114
:102E500093028F70806180939302F901ED59FD4FC9
:102E600080818F70806180838EE892E00E943416AA
:102E7000DF91CF911F910C94B816AF92BF92CF9271
:102E8000DF92EF92FF920F931F93CF93DF93CDB713
:102E9000DEB761970FB6F894DEBF0FBECDBF8C01D1
:102EA00085E0F801DE011D9601900D928A95E1F70B
:102EB000F80140815181E2808EE8C82E82E0D82E50
:102EC00060919102709192026115710509F461C1DE
:102ED00090918E0220918F02892F82238F3F09F4D7
:102EE00058C1A380B480F0909002F501E61BF70B67
:102EF000FF2009F4FCC080919302382F307FE83C1A
:102F0000F10508F0B2C0311179C0FE2C251323C0A1
:102F1000941321C0E1101FC08F70806180939302D1
:102F20000E94D916C6010E94341680919302F801BE
:102F300085838F2D61960FB6F894DEBF0FBECDBF8F
:102F4000DF91CF911F910F91FF90EF90DF90CF9085
:102F5000BF90AF900895AB2829F0842F85238F3F31
:102F600009F033C180E0F82FF170DF2E80FF3CC004
:102F700080915C0220915D0236E0821315C04D877E
:102F80005E878D859E850E949F1B292F22952F701D
:102F90002230F0F0243018F59F70F1F0F80195819F
:102FA000907FD1F4D12C1EC090E0389FF001399F62
:102FB000F00D1124E25AFD4F6181651306C0608156
:102FC000641303C062816E110FC001968770D5CF64
:102FD0009F7011F0882331F3805E883018F3C801A8
:102FE0000E943416FD2CA5CFEE2009F4A2CF8091CB
:102FF0009302816080939302F12C9BCF251306C02E
:10300000941304C0F801EE2009F48DC04D875E874B
:103010008D859E850E949516882319F1EE2009F171
:1030200080919302803270F020918E0230918F0255
:1030300038872F831986BB86AA868C87CE01079690
:103040000E94341686E0F801AEE8B2E001900D92DD
:103050008A95E1F70E94E7160E94D916FF24F3949F
:1030600068CFC8010E943416F9CF311113C07A2DF0
:10307000B98AA88A6E2D89890E9499168EE892E0F5
:103080000E94341686E0F60111928A95E9F70E94B3
:10309000D916B2CF25130FC094130DC0E1100BC089
:1030A000F8018583C8010E94341686E0F60111926A
:1030B0008A95E9F73ECF4D875E878D859E850E9474
:1030C0009516882371F2EE2061F28091930280328E
:1030D00008F4B8CF20918E0230918F023A83298371
:1030E0001B82BD82AC828E83CE010196A9CFE83CC3
:1030F000F10508F041C0FE2CEE2009F4B2CF2513F3
:103100002AC0941328C08091930280FD1BC0982F81
:10311000907FC1F0F8018583903F31F0982F907F28
:10312000905F8F70892B8583C8010E94341686E0DA
:10313000F801AEE8B2E001900D928A95E1F70E94A5
:10314000D916F7CE86E0F801AEE8B2E001900D9214
:103150008A95E1F7EECE4D875E878D859E850E942C
:10316000951681116FCF80919302816080939302B5
:10317000C8010E943416DDCE7A2DB98AA88A6E2D38
:1031800089890E94991686E0F60111928A95E9F7DD
:10319000D6CFEE2009F465CF4D875E878D859E855D
:1031A0000E949516F82E882309F45BCF86E0F8017B
:1031B000AEE8B2E001900D928A95E1F78EE892E0D8
:1031C0000E94F6120E94E716BACF81E08E25CBCE80
:1031D00088EC90E008951F93CF93DF93CDB7DEB7CF
:1031E0002C970FB6F894DEBF0FBECDBF4F83588724
:1031F00069877A878B879C87CE0107960E943D1747
:10320000882369F08A859B85892B39F04F81588501
:10321000842F85238F3F09F071C016E05FC086E0E0
:10322000FE013796DE01119601900D928A95E1F725
:103230008A859B85892B89F388859F8189238F3F88
:1032400061F320915D0230E0C901019687709927F2
:1032500040915C024817190671F40E947216109290
:103260005D0210925C0286E0EEE8F2E0DF011D9262
:103270008A95E9F7D2CF96E0929FD001939FB00D47
:103280001124A25ABD4FFE01319601900D929A95DC
:10329000E1F780935D020E94B816BFCF819FC00105
:1032A0001124825A9D4F0E943D178823E9F0E09136
:1032B0005C021E9FF0011124E25AFD4F40815181B2
:1032C00062817381848195810E94A81680915C023D
:1032D00090E001968770992780935C0280915C0250
:1032E00090915D028913DACF2C960FB6F894DEBF69
:1032F0000FBECDBFDF91CF911F91089569857A856B
:103300008B859C850E94A81688CFEF92FF920F9321
:103310001F93CF93DF938C01892B81F0F12CEE2446
:10332000E394E8012196F8018491843770F48430A5
:1033300008F05FC08130B1F08230A1F1DF91CF9110
:103340001F910F91FF90EF900895853709F44CC0BD
:1033500008F43DC09CE7980F903780F78F770E9464
:103360008D1349C00E5F1F4FFE01849190E2980FAC
:10337000983060F48770FE2D01C0FF0F8A95EAF740
:103380008F2F0E94151C0E943E1C02C00E94FB123F
:103390008F2D815030F2EFE9FFE03197F1F700C057
:1033A0000000F7CF0E5F1F4FFE01849190E2980F4F
:1033B000983050F48770FE2D01C0FF0F8A95EAF710
:1033C0008F2F0E941B1CDFCF0E948D13E1CF0E5F59
:1033D0001F4FFE01C491C150D8F28FE99FE00197C1
:1033E000F1F700C00000F7CF0E5F1F4FFE01F49011
:1033F000CFCF0E94FB128E01CBCF08950C94FD1904
:103400000E94FE196093BB027093BC028093BD02C0
:103410009093BE020C945C1608950C94001A0F93BE
:103420001F930091BB021091BC022091BD0230910C
:10343000BE02602B712B822B932B1F910F910C944A
:10344000001A0F931F930091BB021091BC022091B0
:10345000BD023091BE0260237123822393231F910A
:103460000F910C94001A0F931F930091BB021091BF
:10347000BC022091BD023091BE02602771278227D5
:1034800093271F910F910C94001A0C9453030E94E0
:10349000451A6093B7027093B8028093B902909373
:1034A000BA020C945C1660E070E0CB010C94471AF1
:1034B0000F931F9341E050E060E070E08A019B01B0
:1034C00004C0000F111F221F331F8A95D2F7C901B4
:1034D000B8011F910F910C94471A0F931F9341E06D
:1034E00050E060E070E004C0440F551F661F771F76
:1034F0008A95D2F78091B7029091B802A091B90253
:10350000B091BA028A019B01082B192B2A2B3B2B65
:10351000C901B8011F910F910C94471A0F931F9383
:1035200041E050E060E070E004C0440F551F661FAA
:10353000771F8A95D2F7CB01BA0160957095809577
:1035400090950091B7021091B8022091B902309184
:10355000BA0260237123822393231F910F910C944D
:10356000471A0F931F9341E050E060E070E004C001
:10357000440F551F661F771F8A95D2F78091B702B7
:103580009091B802A091B902B091BA028A019B0150
:10359000082719272A273B27C901B8011F910F9136
:1035A0000C94471A0F931F930091B7021091B80221
:1035B0002091B9023091BA02602B712B822B932B90
:1035C0001F910F910C94471A0F931F930091B7020C
:1035D0001091B8022091B9023091BA026023712390
:1035E000822393231F910F910C94471A0F931F93DB
:1035F0000091B7021091B8022091B9023091BA023D
:1036000060277127822793271F910F910C94471AE7
:1036100008952EE0929F800D1124982F977041E01D
:1036200001C0440F9A95EAF786958695869595E0B0
:10363000899FF0011124EC56FD4F90E080E070E08E
:103640005191DF0111979B01082E02C036952795F5
:103650000A94E2F7217021952527242325272C930E
:1036600001968530910561F708952EE0929F800DB7
:103670001124982F977086958695869525E0829FD0
:10368000F0011124EC56FD4F50E040E080E0219124
:1036900030E0092E02C0369527950A94E2F7217092
:1036A0003327042E01C0220F0A94EAF7822B4F5FC2
:1036B0005F4F4530510559F70895BF92CF92DF9281
:1036C000EF92FF920F931F93CF93DF938C01C090E3
:1036D000B702D090B802E090B902F090BA0280919F
:1036E000BB029091BC02A091BD02B091BE02C82A5B
:1036F000D92AEA2AFB2ACFE1D0E0BC2ED701C601A5
:103700000C2E04C0B695A795979587950A94D2F785
:1037100080FD0EC0219788F7B12C8B2DDF91CF91C2
:103720001F910F91FF90EF90DF90CF90BF90089581
:10373000B8018C2F0E944C04019761F3EECFCF9318
:10374000DF93EC010E945D1BBE01DF91CF910C94D1
:103750004C041F93CF93DF93EB0190915B0299236D
:1037600031F0CB01DF91CF911F910C949F1B8823E7
:1037700079F0CB010E945D1B182F682FCE010E94AB
:10378000091BBE01812FDF91CF911F910C944C0436
:10379000CB010E94351B182FF4CF682F80911701A1
:1037A000909118010C94E31D682F8091170190915E
:1037B00018010C94EE1D80911701909118010C9442
:1037C000F91D8091BF028595859585950895809115
:1037D000BF02877008959091BF02977081E009F44D
:1037E00080E008958091E30208959091E302892B8F
:1037F0008093E302089580959091E302982390933B
:10380000E30208951092E30208959091E202892B59
:103810008093E202089580959091E202982390931C
:10382000E20208951092E20208959091E102892B3C
:103830008093E102089580959091E10298239093FE
:10384000E10208951092E10208958091C002089566
:1038500008950C94281C9091C002981721F0809331
:10386000C0020C94291C08958091C002882329F07D
:103870001092C00280E00C94291C0895E091170179
:10388000F09118018091E3028083E0911701F0919B
:10389000180180819091E202892B8083E0911701C9
:1038A000F091180180819091E102892B80839091A1
:1038B000C002992381F0E0911701F09118018081F5
:1038C000892B808380911701909118010E944F1DD0
:1038D00081110E94341C80911701909118010C9461
:1038E0009E1108950C94711C98E0899F90011124F9
:1038F000622B6093BF020E946D1A8091BF02859572
:10390000859585950C94721C1092BF0280E00C94F2
:10391000721C9091BF02809589238093BF02282F4B
:10392000277071F4282F082E000C330B9217130602
:1039300039F08595859585950E948E1A0C94841C86
:10394000089590E080E00E94D32A21E08C3E9E4FB3
:1039500009F020E0822F089582E090E00C94C52ABF
:10396000682F82E090E00C94D92A83E090E00C94D8
:10397000C52A682F83E090E00C94D92ACF9384E085
:1039800090E00E94C52AC82F81E290E00E94C52ADB
:10399000982F8C2FCF910895CF93C92F682F84E053
:1039A00090E00E94D92A6C2F81E290E0CF910C9494
:1039B000D92AAB01BC018FE090E00C94EB2AAB015B
:1039C000BC0183E190E00C94EB2A60E070E0CB0155
:1039D0000C94DF1C60E070E0CB010E94D91C0C94B9
:1039E000E51C6CEE7EEF90E080E00E94F72A60E03C
:1039F00082E090E00E94D92A60E083E090E00E949B
:103A0000D92A1092BB021092BC021092BD021092F1
:103A1000BE0260E084E090E00E94D92A60E081E28A
:103A200090E00E94D92A60E085E090E00E94D92AC7
:103A300060E086E090E00E94D92A6FEF87E090E096
:103A40000E94D92A40E050E0BA0188E090E00E944C
:103A5000EB2A60E08DE090E00E94D92A40E050E03F
:103A6000BA0188E190E00E94EB2A60E087E190E0F3
:103A70000E94D92A40E050E0BA018CE190E00E9417
:103A8000EB2A60E080E290E00E94D92A0C94EA1CC4
:103A90000C94F11C682F8EE090E00C94D92AFC0164
:103AA000329680912B01882321F0809164039EE15E
:103AB00087FF96E080E0915008F408952191222339
:103AC000D1F38F5FF8CF662301F120912B012223E0
:103AD000F1F02091640327FF1AC0462F46954695C2
:103AE00046954E3190F4677021E030E002C0220F1D
:103AF000331F6A95E2F7840F911DFC01828190E0EB
:103B00002823392381E0232B69F480E00895FC0108
:103B1000329608962191261721F0E817F907D1F778
:103B2000F4CF81E008959C01FC0132969FEF80E084
:103B30004191461751F09F3F19F4411101C0982F50
:103B40008F5F8630A9F79F3F09F40895290F311D33
:103B500097FD3A95F90162830895FC013296089623
:103B60002191261303C0DF0111971C92E817F90772
:103B7000B9F70895E62FE695E695E695EE3168F4F7
:103B8000E80FF92FF11D677021E030E001C0220F2E
:103B90006A95EAF78281822B82830895E62FE69563
:103BA000E695E695EE3170F4E80FF92FF11D677098
:103BB00021E030E001C0220F6A95EAF7209582816A
:103BC00028232283089520912B01222329F020917C
:103BD000640327FD0C94BA1D0C94931D20912B01B6
:103BE000222329F02091640327FD0C94CE1D0C9410
:103BF000AD1DFC01329680912B01882351F08091FC
:103C0000640387FF06C08EE1DF011D928A95E9F704
:103C1000089586E0F9CF089508950C940C1E0E9433
:103C20000D1E80916A03843049F11092E50288E10B
:103C300090E020E40FB6F894A895809360000FBE42
:103C40002093600080E00E94D2030E940D1E83B783
:103C5000817F846083BF83B7816083BF78948895B8
:103C600083B78E7F83BF0FB6F894A89580916000CC
:103C7000886180936000109260000FBE08950895DF
:103C8000CF930E940B1E0E94AE060E943F1EC0E012
:103C90008C2F0E943F06892B31F4CF5FC430C1F7CF
:103CA00080E0CF91089581E0FCCF08950C94551EDB
:103CB0000E9472160E9492110E94D2030C94561E0A
:103CC0001F921FB61F9211248F939F93AF93BF93A0
:103CD0008091E502811113C080916003909161038E
:103CE000A0916203B09163034196A11DB11D809321
:103CF000600390936103A0936203B0936303BF9149
:103D0000AF919F918F911F901FBE1F90189582E0D9
:103D100084BD93E095BD9AEF97BD80936E000895A2
:103D20002FB7F8948091600390916103A091620392
:103D3000B09163032FBF08959C014FB7F894809111
:103D4000600390916103A0916203B09163034FBF40
:103D5000821B930B089578941F921FB61F92112413
:103D60008F939F93AF93BF93809160039091610372
:103D7000A0916203B09163030196A11DB11D8093D0
:103D8000600390936103A0936203B0936303BF91B8
:103D9000AF919F918F911F901FBE1F90189581E04A
:103DA0008093E00080E28093D8001092C9008FE1F8
:103DB0009EE40197F1F700C0000087E090EBDC0182
:103DC0008093730390937403A0937503B093760369
:103DD00088E19CE00FB6F894A895809360000FBE30
:103DE00090936000FFCFAF92BF92CF92DF92EF929D
:103DF000FF920F931F93CF93C0E0CC24C394D12C98
:103E0000E82EF12C8C2F0E943F065C0110E000E0B0
:103E1000C601002E02C0880F991F0A94E2F78A217A
:103E20009B21892B99F40F5F1F4F0E30110581F7ED
:103E3000CF5FC43039F780E0CF911F910F91FF9091
:103E4000EF90DF90CF90BF90AF900895602F7C2FC0
:103E500080E00E943004E816F90629F781E0ECCFF3
:103E6000CF93C82F8CE20E94F31E882321F08C2F61
:103E7000CF910C94F31E80E0CF910895CF930E94D0
:103E8000A11C811102C00E94481DC5E608C00E9405
:103E9000AE068FE39CE90197F1F700C00000C15026
:103EA000B1F789E20E94301F81110BC18AE20E94A2
:103EB000301F81110E94481D85E00E94301F811132
:103EC0000E94CF1E0E94AC1C8093E40287E00E94F7
:103ED000301F882371F08BE10E94301F882309F482
:103EE000CDC09091E402892F8D7F91FF82608093F5
:103EF000E4028091E4020E94B01C0E94BE1C9093D8
:103F000065038093640380EE0E94301F882341F094
:103F100090916403892F8E7F90FF8160809364036A
:103F200089E30E94301F882341F090916403892F18
:103F30008D7F91FF82608093640382EE0E94301F28
:103F4000882341F090916403892F8B7F92FF8460D6
:103F50008093640386EE0E94301F882341F0909185
:103F60006403892F877F93FF88608093640383EEC7
:103F70000E94301F882341F090916403892F8F7E27
:103F800094FF80618093640385E30E94301F88233F
:103F900041F090916403892F8F7D95FF806280931B
:103FA000640381E30E94301F882341F090916403F1
:103FB000892F8F7B96FF80648093640381E10E9448
:103FC000301F882341F090916403892F97FB87F974
:103FD00080588093640380916403909165030E94EC
:103FE000CC1C87E20E94301FC82F8EE10E94301F38
:103FF0008111C2608FE10E94301F8111C46080E294
:104000000E94301F8111C86081E20E94301F81111F
:10401000C06182E20E94301F8111C06283E20E946F
:10402000301F8111C06484E20E94301F882309F48C
:1040300042C0C0688C2F0E94B91C6C2F70E090E0C9
:1040400080E00E940D1A6091B7027091B8028091D1
:10405000B9029091BA020E94451A8FE00E94301F67
:10406000882319F081E00E944A1D85E10E94301FDB
:10407000882339F180E0CF910C944A1D8EE00E9494
:10408000301F882339F09091E402892F8B7F92FFB3
:1040900084602DCF80E10E94301F9091E40288233C
:1040A00029F0892F877F93FF886021CF892F8E7F0A
:1040B00090FF81601CCFC111BDCF0E94B51C682F3D
:1040C000BDCFCF9108958091EC0280FF12C0609126
:1040D0001E0185E0689FB00111247595679575955F
:1040E000679560387105A8F561157105A1F1862FF6
:1040F000089581FF09C060911E0185E0689FB001AD
:10410000112475956795EDCF60911E0182FD0AC05F
:104110008091EB028823D1F090911D0160911E01E6
:10412000891728F085E0689FB0011124DACF869FB7
:10413000B001112485E0869F9001879F300D1124E6
:10414000692F70E0C9010E94EF29CBCF65E070E0D4
:10415000CECF8FE7089581E008958091EC0280FF33
:104160000CC060911A0170E075956795759567951B
:104170006115710549F1862F089581FF06C0609190
:104180001A0170E075956795F3CF60911A0182FD71
:104190000BC09091EA029923A1F0609119018091DE
:1041A0001A01961738F0682F70E06038710500F337
:1041B0008FE70895899FC001112470E00E94EF29C4
:1041C000F4CF61E070E0D7CF81E00895803F31F413
:1041D0000E94632081958093F0020895813F19F435
:1041E0000E946320F8CF823F31F40E9463208195C2
:1041F0008093EF020895833F19F40E946320F8CF63
:10420000893F29F40E94AD208093F10208958A3FEE
:1042100021F40E94AD208195F7CF8B3F31F40E94AD
:10422000AD2081958093F20208958C3F19F40E948D
:10423000AD20F8CF843F31F48091EE02816080930D
:10424000EE020895853F21F48091EE028260F7CF5F
:10425000863F21F48091EE028460F1CF873F21F404
:104260008091EE028860EBCF883F21F48091EE02CE
:104270008061E5CF8D3F31F48091EC0281608093C5
:10428000EC0208958E3F21F48091EC028260F7CF1A
:104290008F3FB9F78091EC028460F1CF9091EF02EB
:1042A000803F59F48091F00287FF0DC01092F00218
:1042B00091110BC01092EB0208C0813F81F48091F4
:1042C000F00218169CF3992381F08091F1029091ED
:1042D000F202892B09F064C01092EA020895823F2D
:1042E00049F497FFF0CF1092EF028091F002811114
:1042F000ECCFE0CF833F19F41916ACF3E4CF209153
:10430000F102893F29F41216F4F61092F102DBCF84
:104310008A3F19F427FFD7CFF8CF2091F2028B3FC5
:1043200029F427FFD0CF1092F202CDCF8C3F19F4A1
:104330001216CCF3C8CF843F31F48091EE028E7F09
:104340008093EE02C0CF853F21F48091EE028D7FF5
:10435000F7CF863F21F48091EE028B7FF1CF873F2C
:1043600021F48091EE02877FEBCF883F21F480918A
:10437000EE028F7EE5CF8D3F31F48091EC028E7F8F
:104380008093EC02A0CF8E3F21F48091EC028D7FD0
:10439000F7CF8F3F09F097CF8091EC028B7FF0CF62
:1043A00008950E94901E9C019091EF028091F0026E
:1043B000982B21F03093E9022093E8029091F102CA
:1043C0008091F202982B21F03093E7022093E602CD
:1043D0008DEE92E00C94B811EF92FF920F931F9321
:1043E000CF93DF9300D000D000D0CDB7DEB786E00A
:1043F000EDEEF2E0DE01119601900D928A95E1F763
:10440000E090EF02F090F0020091F1021091F202C0
:104410001092EF021092F0021092F1021092F2024A
:104420008E2D8F2991F08091E8029091E9020E94EF
:104430009C1EAC019091EB02992309F43FC080913E
:104440001F018417150608F447C0802F812B91F0B7
:104450008091E6029091E7020E949C1EAC0190912F
:10446000EA02992309F477C080911B01841715068D
:1044700008F47FC08091EF029091F002892B909117
:10448000F102892B9091F202892B11F00E94D12127
:1044900086E0FE013196ADEEB2E001900D928A9574
:1044A000E1F726960FB6F894DEBF0FBECDBFDF91C1
:1044B000CF911F910F91FF90EF90089520912001CF
:1044C0008AE0289F900111242417350708F0BDCFFA
:1044D0009F5F9093EB0202C09F3FD1F7EE2059F00F
:1044E0000E9463209FEF1E140CF491E0899F802DA1
:1044F00011248093EF02FF2059F00E9463209FEF68
:104500001F140CF491E0899F802D11248093F002F8
:104510003091EF02332309F498CF2091F002222347
:1045200009F493CF45EB3403C0011124992359F0CA
:104530009093EF0245EB240390011124332339F0CB
:104540003093F00282CF81E08093EF02F3CF81E0DD
:104550008093F0027ACF20911C018AE0289F90017D
:1045600011242417350708F085CF9F5F9093EA0246
:1045700002C09F3FD1F7002359F00E94AD209FEF6A
:1045800010160CF491E0899F802D11248093F10284
:10459000112359F00E94AD209FEF11160CF491E009
:1045A000899F802D11248093F2023091F1023323F0
:1045B00009F460CF2091F202222309F45BCF45EB8E
:1045C0003403C0011124992359F09093F10245EB73
:1045D000240390011124332339F03093F2024ACF9F
:1045E00081E08093F102F3CF81E08093F20242CF29
:1045F00086E0EDEEF2E0DF011D928A95E9F7109278
:10460000EB021092EA021092EC02089580911303DB
:104610000895CF93DF9300D00F92CDB7DEB790917E
:104620006A03943019F589837B836A8382E08093DF
:10463000E9008FEF9091E800815095FD06C095ED5F
:104640009A95F1F700008111F5CF8091E80085FF80
:104650000DC050E040E063E070E0CE0101960E94A2
:1046600030258091E8008E778093E8000F900F90BE
:104670000F90DF91CF910895BC0184E00C94092341
:10468000BC0183E00C9409239C0182E08093E90043
:104690009FEF8091E800915085FD06C085ED8A95D9
:1046A000F1F700009111F5CF8091E80085FF0CC073
:1046B00050E040E066E070E0C9010E943025809142
:1046C000E8008E778093E8000895CF93DF93EC01A4
:1046D00080912B018823B1F18091640387FF32C060
:1046E00060E282E08093E9008FEF9091E8008150D2
:1046F00095FD06C095ED9A95F1F700008111F5CF73
:104700008091E80085FF1BC080912B0170E050E094
:1047100040E0811104C050E040E068E070E0CE016C
:104720000E9430258091E8008E778093E80080E237
:10473000FE01A3EFB2E001900D928A95E1F7DF91BF
:10474000CF91089568E081E0CDCF80916903811118
:1047500009C00E94C0260E941D278091E20084604B
:104760008093E200089510926903089508950895D2
:104770000C94581E42E061EC81E00E943C2642E22B
:1047800061EC82E00C943C2680916C03833009F448
:104790005FC030F48130C1F1823009F49BC00895CC
:1047A0008A3009F487C08B3009F46DC0893009F074
:1047B0004EC080916B03813209F049C080916F0334
:1047C00090917003029708F042C08091E800877FC3
:1047D0008093E8008091E80082FF35C09091F3005B
:1047E0008091F200029729F48091F1008B7F813053
:1047F00021F48091F100809313038091E8008B777E
:104800008093E8000C94702680916B03813AF9F450
:104810008091E800877F8093E80080916F039091FA
:104820007003892B61F460E283EF92E070E00E94F4
:104830007F258091E8008B778093E800089560E001
:1048400090E080E0F3CF80916A038111C3CF089597
:1048500080916B03813AD9F780916F039091700337
:10486000892BA9F78091E800877F8093E8008091E9
:10487000E80080FFFCCF80912B018093F1008091B4
:10488000E8008E77BDCF80916B03813201F7809174
:104890006F0390917003892BD1F68091E800877F98
:1048A0008093E8000E94702680916D0380932B0115
:1048B0000C94721680916B03813249F68091E80066
:1048C000877F8093E8000E94702680916E0380931A
:1048D0001403089580916B03813A09F0B8CF809159
:1048E000E800877F8093E8008091E80080FFFCCF9C
:1048F00080911403C2CF84B7877F84BF0FB6F8942A
:10490000A89580916000886180936000109260009B
:104910000FBE80E890E00FB6F8948093610090930A
:1049200061000FBE0E9400120E94C0260E941D2737
:104930008091E20084608093E20078940E94A6292E
:104940000E940A1281E291E00E948D1180916A0317
:10495000853019F00E941612F9CF0E940F1E809127
:104960006803882399F30E94401E882379F30E94EC
:104970001A25ECCF0C94BC24292F33272330310582
:1049800019F168F42130310509F44AC022303105AB
:1049900009F44BC090E080E030E020E028C02132F4
:1049A000310579F122323105A9F780E490E023EC5A
:1049B00035E061157105D9F08CEB90E027E035E02A
:1049C00061307105A1F0E6CF99278130910599F00A
:1049D000009741F08230910589F00397D9F6E6E817
:1049E000F4E002C0E6EBF4E0849190E09F01FA016C
:1049F000318320830895EAE9F4E0F6CFECE8F4E0AF
:104A0000F3CF89E090E02CEC34E06115710579F387
:104A100089E090E025EE34E06130710541F3BACFD2
:104A200082E190E025EF34E0E2CF8BE390E02AEBE7
:104A300034E0DDCF80E189BD82E189BD09B400FEAB
:104A4000FDCF8091D8008F7D8093D8008091E000C9
:104A500082608093E0008091E00081FDFCCF0895AA
:104A6000AF92BF92CF92DF92FF920F931F93CF939B
:104A7000DF936C01EB018A010E948F26F82E8111D1
:104A800023C00115110539F0F80180819181C81BFF
:104A9000D90BC80ED91EB12CA12C2097A9F080915A
:104AA000E80085FD22C08091E8008E778093E800C1
:104AB00001151105A1F0F80180819181A80EB91EA0
:104AC000B182A08285E0F82E8F2DDF91CF911F91CA
:104AD0000F91FF90DF90CF90BF90AF9008950E940C
:104AE0008F268823D1F2F82EEFCFF60181916F0146
:104AF0008093F1002197FFEFAF1ABF0ACECFFC01E0
:104B0000809171039091720386179707A0F0611549
:104B1000710529F49091E8009E779093E80090E069
:104B20006115710551F4911108C08091E80082FF70
:104B300034C080E00895BC01F2CF80916A038823DD
:104B4000C1F18530C1F18091E80083FD30C08091D2
:104B5000E80082FDEACF8091E80080FFE1CF8091FC
:104B6000F3002091F200382F6115710519F02830FB
:104B7000310558F091E02830310509F090E020919E
:104B8000E8002E772093E800CBCF81918093F1004D
:104B9000615071092F5F3F4FE7CF80916A038823EF
:104BA00041F0853041F08091E80083FFBECF81E085
:104BB000089582E0089583E00895FC0180917103D7
:104BC0009091720386179707A0F06115710529F47B
:104BD0008091E8008E778093E80090E06115710580
:104BE00051F4911108C08091E80082FF35C080E047
:104BF0000895BC01F2CF80916A038823C9F1853002
:104C0000C9F18091E80083FD31C08091E80082FD08
:104C1000EACF8091E80080FFE1CF8091F3002091FE
:104C2000F200382F6115710519F02830310558F060
:104C300091E02830310509F090E08091E8008E770E
:104C40008093E800CBCF84918093F100319661503E
:104C500071092F5F3F4FE6CF80916A03882341F0AF
:104C6000853041F08091E80083FFBDCF81E0089559
:104C700082E0089583E00895982F973028F08F7090
:104C80008093E90081E008959093E900242F762F26
:104C900050E0981731F07091EC002091ED005091A8
:104CA000F00021FD02C09F5FE8CF3091EB003E7F16
:104CB0003093EB003091ED003D7F3093ED0030916B
:104CC000EB0031603093EB007093EC002093ED002B
:104CD0005093F0002091EE0027FDE5CF80E008958D
:104CE00080916B0387FF13C08091E80082FF06C0AC
:104CF0008091E8008B778093E80004C080916A037C
:104D00008111F2CF089580916A038823D9F38091AD
:104D1000E80080FFF8CF8091E8008E77ECCF2091FB
:104D2000E4003091E50095E6A9012091EC00822F86
:104D3000817020FF06C08091E80080FF06C080E0FF
:104D400008952091E80022FD1AC080916A0388230B
:104D500089F0853089F08091EB0085FD0FC02091AE
:104D6000E4003091E50042175307F9F29150E1F663
:104D700084E0089582E0089583E0089581E0089535
:104D80000E942E270E943627E0EEF0E080818160AD
:104D90008083E8EDF0E080818F77808319BCA7EDF8
:104DA000B0E08C918E7F8C9380818F7E8083109277
:104DB000690308950F931F93CF93DF930E942E27CB
:104DC0000E943627C8EDD0E088818F77888388815C
:104DD0008068888388818F7D888319BC10926A03DC
:104DE00010926603109268031092670300EE10E0C1
:104DF000F80180818B7F808388818160888342E095
:104E000060E080E00E943C26E1EEF0E080818E7F51
:104E10008083E2EEF0E08081816080838081886021
:104E20008083F80180818E7F808388818061888380
:104E3000DF91CF911F910F910895E8EDF0E080810F
:104E40008F7E8083E7EDF0E080818160808384E065
:104E500082BF81E0809369030C94DA26E8EDF0E0EC
:104E600080818E7F80831092E20008951092DA0094
:104E70001092E10008951F920F920FB60F92112425
:104E80002F933F934F935F936F937F938F939F9352
:104E9000AF93BF93EF93FF938091E10082FF0BC02C
:104EA0008091E20082FF07C08091E1008B7F8093B8
:104EB000E1000E94A5298091DA0080FF19C080914D
:104EC000D80080FF15C08091DA008E7F8093DA00D1
:104ED0008091D90080FF96C080E189BD82E189BDC3
:104EE00009B400FEFDCF81E080936A030E94A523F0
:104EF0008091E10080FF19C08091E20080FF15C021
:104F00008091E2008E7F8093E2008091E2008061D8
:104F10008093E2008091D80080628093D80019BC11
:104F200085E080936A030E94B7238091E10084FFAB
:104F30002BC08091E20084FF27C080E189BD82E11F
:104F400089BD89B5982F917080FFFBCF8091D800E3
:104F50008F7D8093D8008091E1008F7E8093E10067
:104F60008091E2008F7E8093E2008091E200816078
:104F70008093E20080916603882309F449C084E0AD
:104F800080936A030E94B8238091E10083FF29C0C7
:104F90008091E20083FF25C08091E100877F8093AC
:104FA000E10082E080936A03109266038091E10041
:104FB0008E7F8093E1008091E2008E7F8093E200FB
:104FC0008091E20080618093E20042E060E080E056
:104FD0000E943C268091F00088608093F0000E943F
:104FE000B623FF91EF91BF91AF919F918F917F91E8
:104FF0006F915F914F913F912F910F900FBE0F9046
:105000001F90189519BC10926A030E94B32370CFA9
:105010008091E30087FD93E090936A03B3CF1F92E2
:105020000F920FB60F9211242F933F934F935F93DC
:105030006F937F938F939F93AF93BF93CF93DF93A0
:10504000EF93FF93D091E900DF708091EC00C82FBF
:10505000C17080FDC0E81092E9008091F000877F68
:105060008093F00078940E9453281092E900809178
:10507000F00088608093F000CD2BCF70C093E900E2
:10508000FF91EF91DF91CF91BF91AF919F918F9160
:105090007F916F915F914F913F912F910F900FBE34
:1050A0000F901F9018951F93CF93DF93CDB7DEB766
:1050B000AA970FB6F894DEBF0FBECDBF8BE693E084
:1050C0002091F100FC012193CF01F3E083379F078A
:1050D000B9F70E94C4238091E80083FF1EC180912C
:1050E0006B0390916C039A3008F017C1E92FF0E040
:1050F000E05AF44D0C94252A803899F0823809F052
:105100000CC180916F038F70873008F006C18093C7
:10511000E9008091EB0085FB882780F91092E90077
:1051200006C080916703909168039111826090910D
:10513000E800977F9093E8008093F1001092F100CF
:105140008091E8008E77E5C0882309F4D3C08230CF
:1051500009F0E3C080916D038111D6C080916F0387
:105160008F702FEF280F263008F0D7C08093E9000A
:105170002091EB0020FFC8C0933031F48091EB0008
:1051800080628093EB00C0C09091EB00906190939F
:10519000EB0021E030E001C0220F8A95EAF720936E
:1051A000EA001092EA008091EB008860EACF81115A
:1051B000B4C010916D031F778091E3008078812B3C
:1051C0008093E3008091E800877F8093E8000E944D
:1051D00070268091E80080FFFCCF8091E30080681A
:1051E0008093E30082E0111183E080936A0395C00D
:1051F0008058823008F091C080916D0390916E03C9
:105200008C3D23E09207A1F583E08A838AE28983BB
:105210004FB7F894DE01139620E03EE051E2E32F11
:10522000F0E050935700E49120FF03C0E295EF7047
:105230003F5FEF708E2F90E0EA30C0F0C7968D93FD
:105240009D932F5F243159F74FBF8091E800877FEE
:105250008093E8006AE270E0CE0101960E947F250B
:105260008091E8008B778093E80057C0C096E7CF25
:1052700060916F0370917003AE014F5F5F4F0E94AA
:10528000BA24BC01892B09F448C09091E800977FAB
:105290009093E80089819A810E94DD25E1CF8038D2
:1052A000E1F58091E800877F8093E80080916603B4
:1052B0008093F10045CF811130C090916D03923001
:1052C00060F58091E800877F8093E8009093660303
:1052D0000E94702680916603882311F084E005C047
:1052E0008091E30087FDFACF81E080936A030E94FA
:1052F000BA2313C080916D03813079F481E093303B
:1053000009F080E0809368031092E9008091E80042
:10531000877F8093E8000E9470268091E80083FFD9
:105320000AC08091E800877F8093E8008091EB00BD
:1053300080628093EB00AA960FB6F894DEBF0FBE92
:10534000CDBFDF91CF911F9108950895CF938091A4
:105350006A038823A1F0C091E900CF709091EC001E
:10536000892F817090FD80E8C82B1092E900809110
:10537000E80083FD0E945328CF70C093E900CF91CD
:105380000895991B79E004C0991F961708F0961BA1
:10539000881F7A95C9F78095089587FB082E062601
:1053A00087FD819567FD61950E94C1290EF4919555
:1053B00007FC81950895AA1BBB1B51E107C0AA1FDA
:1053C000BB1FA617B70710F0A61BB70B881F991FA6
:1053D0005A95A9F780959095BC01CD01089597FB4A
:1053E000072E16F4009407D077FD09D00E94DB2920
:1053F00007FC05D03EF4909581959F4F08957095D8
:1054000061957F4F0895A1E21A2EAA1BBB1BFD01D7
:105410000DC0AA1FBB1FEE1FFF1FA217B307E40793
:10542000F50720F0A21BB30BE40BF50B661F771FEB
:10543000881F991F1A9469F76095709580959095CB
:105440009B01AC01BD01CF010895EE0FFF1F059038
:10545000F491E02D09940E94332A332312F48A1B1D
:105460009B0B0C94442AA29FB001B39FC001A39F41
:10547000700D811D1124911DB29F700D811D11248D
:10548000911D08950E94332AB7FF0895821B930B44
:1054900008950E94332AA59F900DB49F900DA49F5C
:1054A000800D911D11240895B7FF0C94492A0E9484
:1054B000492A821B930B08958F929F92AF92BF92BD
:1054C000CF92DF92EF92FF92CF93DF93EC0168814E
:1054D00079818A819B81611571058105910521F48E
:1054E00064E279ED8BE597E02DE133EF41E050E0A8
:1054F0000E940D2B49015A019B01AC01A7EAB1E4BE
:105500000E94492A6B017C01ACEEB4EFA501940125
:105510000E94572ADC01CB018C0D9D1DAE1DBF1DC5
:10552000B7FF03C00197A109B04888839983AA8374
:10553000BB839F77DF91CF91FF90EF90DF90CF906B
:10554000BF90AF909F908F9008950E945C2A08951D
:1055500080E091E00E945C2A0895B0E0A0E0809392
:10556000000190930101A0930201B09303010895FB
:10557000FC014150504030F001900616D1F73197B0
:10558000CF010895882799270895F999FECF92BDF4
:1055900081BDF89A992780B50895A6E1B0E044E06E
:1055A00050E00C94FF2AA8E1B0E042E050E00C94F7
:1055B000FF2A262FF999FECF92BD81BDF89A019757
:1055C00000B4021639F01FBA20BD0FB6F894FA9A4B
:1055D000F99A0FBE08950396272F0E94DA2A0E9497
:1055E000D92A252F0E94DA2A242F0C94DA2A019630
:1055F000272F0E94DA2A0C94D92ADC01CB01FC0166
:10560000F999FECF06C0F2BDE1BDF89A319600B41B
:105610000D9241505040B8F70895052E97FB1EF4A7
:1056200000940E94242B57FD07D00E94032A07FCF8
:1056300003D04EF40C94242B509540953095219531
:105640003F4F4F4F5F4F08959095809570956195AE
:105650007F4F8F4F9F4F0895F894FFCF800E880E95
:105660008F0E940E990E9E0EA30EA80EAD0EB20EC6
:10567000B70EBC0EC00EC50EC80ECB0ECE0ED10E90
:10568000D30ED60E3B143B1493149314E51401155A
:10569000681468140C159815A715A7150316681437
:1056A00068140C16811681168A168A168C168A16AC
:1056B0008A168A168116811691168A168A169116EE
:1056C0007C28A4288D29A4288D29D728F8288D295D
:0456D0004F295B29DA
:1056D40001000000010102001200121201191A1B3C
:1056E4001C1D1E1F202122C1022808641E140A3218
:1056F4001E06236523442340233C2301E200E900E2
:10570400EA00B500B600B700CD008301CC008A01E1
:105714009201940121022302240225022602270277
:105724002A02B300B4006F007000818283F4F1F0A8
:10573400C6303132339091929334F6949567660073
:1057440001020202020606060909090909090F0FE6
:105754000F0F0F0F151515181919191919191919EA
:105764001919232425252525252500FF01000100DD
:1057740000FFFF0000010001FF00E200E900EA0071
:10578400B500B600B700CD008301CC008A019201B8
:1057940094012102230224022502260227022A025E
:0C57A400B300B4006F007000818283002D
:00000001FF
