:100000000C94BF020C9406030C9406030C94060394
:100010000C9406030C9406030C9406030C9406033C
:100020000C9406030C9406030C9461260C9435275B
:100030000C94991D0C9406030C9406030C9406036F
:100040000C9406030C9406030C9406030C9406030C
:100050000C9406030C94E41D0C9406030C94060304
:100060000C9406030C9406030C9406030C940603EC
:100070000C9406030C9406030C9406030C940603DC
:100080000C9406030C9406030C9406030C940603CC
:100090000C9406030C9406030C9406030C940603BC
:1000A0000C9406030C9406030C9406035F00600096
:1000B000610014001A000800150017001C00180049
:1000C0000C00120013005C005D005E0004001600CE
:1000D000070009000A000B000D000E000F002800A9
:1000E00059005A005B001D611B6406411942000063
:1000F0002C62000005781174107149004A004B0011
:1001000029007F00AA00A900AE004A004E004B0063
:100110004D0000004C0052004E002B00000000007B
:10012000000000005000510052004F002A00500013
:1001300051004F00E000E2000100035100002C627A
:100140000000E700E600E4005300000000001E008D
:100150001F0020002100220023002400250026008B
:100160002700000000000000350000002D002E00D8
:1001700031002F003000330034002A00000000005E
:100180000000E000E2000351010000002C620000CA
:100190003600370038000000000000003A003B0045
:1001A0003C003D003E003F00400041004200430053
:1001B00000000000000044004500000000000000B6
:1001C00000000000000000004C00000000000000E3
:1001D000E000E2000100010000002C620000E700E6
:1001E000E600E40032190A00047F3F1F6432146401
:1001F0003214783C1E1E140A052223252628292A9B
:100200002C2D2F3032333536383A3B3D3E40424379
:100210004547494A4C4E5051535557595A5C5E60B8
:1002200062646668696B6D6F71737577797B7D7FCA
:1002300081838587898A8C8E90929496989A9C9EC9
:100240009FA1A3A5A7A8AAACAEAFB1B3B4B6B8B9E5
:10025000BBBCBEBFC1C2C3C5C6C7C9CACBCCCDCE4D
:10026000D0D1D2D2D3D4D5D6D7D7D8D9D9DADADB30
:10027000DBDBDCDCDCDCDCDDDDDDDDDCDCDCDCDCBC
:10028000DBDBDBDADAD9D9D8D7D7D6D5D4D3D2D2FB
:10029000D1D0CECDCCCBCAC9C7C6C5C3C2C1BFBEE3
:1002A000BCBBB9B8B6B4B3B1AFAEACAAA8A7A5A34E
:1002B000A19F9E9C9A98969492908E8C8A8987850D
:1002C00083817F7D7B79777573716F6D6B696866EC
:1002D0006462605E5C5A5957555351504E4C4A49BE
:1002E00047454342403E3D3B3A3836353332302F66
:1002F0002D2C2A292826252322FFAA7F55400001DC
:1003000001010101010101010202020202020202D5
:1003100002030303030303030304040404040404A7
:10032000050505050506060606060707070707086B
:10033000080808090909090A0A0A0B0B0B0C0C0C1E
:100340000D0D0D0E0E0E0F0F0F10101111111212B8
:1003500013131414151516161717181819191A1A35
:100360001B1B1C1D1D1E1E1F202021222223242496
:10037000252626272829292A2B2C2D2D2E2F3031D2
:100380003232333435363738393A3B3C3D3E3F40E4
:100390004142434445464748494A4C4D4E4F5051CF
:1003A0005354555658595A5B5D5E5F616264656689
:1003B00068696B6C6D6F7072737577787A7B7D7E10
:1003C0008082838587888A8C8E8F91939596989A60
:1003D0009C9EA0A2A3A5A7A9ABADAFB1B3B5B7BA78
:1003E000BCBEC0C2C4C6C9CBCDCFD1D4D6D8DBDD4C
:1003F000DFE2E4E7E9EBEEF0F3F5F8FAFDFF0403E2
:10040000300000000E0341006C00700068006100C5
:10041000390000001A0357006F0072006C0064007E
:1004200073007000610077006E0030003000000043
:100430000403090409023B00020100A0FA090400B8
:100440000001030101000921110100012240000700
:1004500005810308000A09040100010300000009E6
:10046000211101000122BC000705820320000A12AD
:1004700001100100000008EDFE60600100010203B0
:100480000105010902A10185020901A1000509195F
:100490000129051500250195057501810295017554
:1004A0000381010501093009311581257F95027508
:1004B00008810609381581257F9501750881060593
:1004C0000C0A38021581257F950175088106C0C088
:1004D00005010980A101850319012AB7001501262C
:1004E000B700950175108100C0050C0901A10185B7
:1004F0000419012AA002150126A002950175108198
:1005000000C005010906A1018505050719E029E7D5
:10051000150025019508750181020507190029EFCD
:100520001500250195F075018102050819012905BD
:10053000950575019102950175039101C0050109A9
:1005400006A101050719E029E715002501950875A1
:100550000181029501750881010507190029FF1520
:100560000026FF0095067508810005081901290578
:10057000950575019102950175039101C000112443
:100580001FBECFEFDAE0DEBFCDBF04B603FE27C04B
:100590008091E6029091E702A091E802B091E90211
:1005A0008730904BA740B04BD1F41092E6021092E6
:1005B000E7021092E8021092E90214BE84B7877F26
:1005C00084BF0FB6F894A8958091600088618093ED
:1005D0006000109260000FBEE0E0F8E3099511E0C2
:1005E000A0E0B1E0E0E2F5E502C005900D92AA3C82
:1005F000B107D9F722E0AAECB1E001C01D92A63EF6
:10060000B207E1F70E94A1230C94522A0C94000037
:10061000539A5B980895089580FF02C05B9A0895ED
:100620005B98089581E0089581E008950C94140387
:1006300008950C9418031F93CF93DF9300D000D03C
:100640000F92CDB7DEB749835A836B833091030293
:1006500089819A8131111DC06623B9F02223A9F046
:100660000E94961A182F682F89819A810E94421A37
:1006700069817A81812F0F900F900F900F900F90CA
:10068000DF91CF911F910C94D0030E946E1A182F06
:10069000EFCF0E94961A69817A81EDCFFC01262F57
:1006A000408151816281738184810C941B03CF93BB
:1006B000DF93EC0160E00E944E03BE01DF91CF9119
:1006C0000C9419030E94DA1B811102C00E94811C44
:1006D0000C94DB050C94DD050C940C0381E008956B
:1006E0000C946E03CF93C82F0E946C038C2FCF9174
:1006F0000C94700308950E94A9150E947A032FEFAD
:1007000084E39CE0215080409040E1F700C000006D
:100710000C94081E0F931F93CF93DF93EC0161E0BD
:100720000E944E038C01BE010E941603882359F1DA
:10073000BE01C8010E94290F882329F1BE01C8010A
:100740000E947B0F8823F9F0BE01C8010E949E1011
:100750008823C9F0BE01C8010E94020E882399F0C7
:100760008A81882339F001158CE5180751F00E3D78
:100770001C4579F0CE01DF91CF911F910F910C9420
:1007800012030E947B0380E0DF91CF911F910F91B4
:1007900008950E94811CF7CF90E080E008950895AD
:1007A000972F70E02DE0929F600D711D1124FB01C9
:1007B00097E2899FE00DF11D1124EE0FFF1FE45514
:1007C000FF4F859194910895FC01EE0FFF1FEC51AE
:1007D000FE4F859194910895CF93DF930E94D003AB
:1007E0000E940105EC01811520E5920708F042C046
:1007F000811530E4930708F0BDC0883E910528F5C7
:10080000803E910508F09DC0883A910588F4853AAC
:10081000910508F08FC08130910509F492C00097CE
:1008200009F48FC0049708F08CC0D0E0C0E089C004
:100830008F3B910508F489C0805C9109C03CD105CB
:10084000A0F30E94E403EC017CC08115904250F4B7
:10085000C11581E0D80708F074C0C03FD10528F366
:10086000D0656FC0C11590E3D90708F079C0CE01FB
:100870009F70E7CF811525E5920758F5811534E57E
:10088000930708F0A6C0811542E5940750F4C115FE
:1008900081E5D80708F471C0DC2FCC27C16FD06A7E
:1008A00050C0982F969596959E0123703327C115B9
:1008B000D34508F07FC0C1E0D0E002C0CC0FDD1FFF
:1008C0002A95E2F720E2929FC0011124C82BD92B70
:1008D0006FC0C11589E5D807A8F4C11598E5D907F7
:1008E00008F07CC0C11526E5D20708F09ECF8C2FFA
:1008F0000E949805C82FD0E0DC2FCC27CC27DF71D1
:10090000D0621FC0C1153AE5D30708F46CC0CE0110
:1009100090568115904208F088CF8D2F8F710E94DC
:10092000980590E0982F882788279F719C012C2B91
:10093000E901E6CFC55AD0E0C65ADE4FC881D0E003
:10094000D064CE01DF91CF910895C85AD0E0CC0F8A
:10095000DD1FC45DDE4F0990D881C02DD464F1CF76
:10096000CE019927D3FF03C0EC01D86CEACFEC018C
:10097000D06CE7CFDF70D06AE4CFCE01E4E096958B
:100980008795EA95E1F783702C2F2695269523709D
:1009900090E2299F90011124382B8C2F8370C1E0A5
:1009A000D0E002C0CC0FDD1F8A95E2F7C22BD32B1B
:1009B000DC68C7CFC1E0D0E002C0CC0FDD1F2A95B4
:1009C000E2F730E2939FC0011124C82BD92BDA68DB
:1009D000B8CFD82FCC27C46FD06AB3CFDC2FCC27A9
:1009E000C06FD06AAECF8C2F8F700E94980534E014
:1009F000D695C7953A95E1F7CF709C2FEC01D06959
:100A0000A0CF82389105B1F1B0F48133910509F49A
:100A100075C048F48932910509F469C08A3291059C
:100A200009F473C008958533910509F459C08933D9
:100A3000910501F10895833E9105A9F138F4803EB6
:100A40009105F9F0823E910549F10895863E9105A0
:100A5000A9F1873E9105C9F1843E910519F52091D0
:100A6000D80221FF1FC08091D70284FD14C087EEF9
:100A700090E008952091D7022370A1F080EE90E0DD
:100A800008952091D70220FD47C03091D80230FF51
:100A900009C024FF44C090E080E004C02091D70248
:100AA00022FDF7CF08952091D70222FD3BC030915F
:100AB000D80230FDE3CF24FFF5CFEDCF2091D70250
:100AC00023FFF0CF24FDE7CFD2CF2091D70223FD23
:100AD0002CC03091D80231FFEECF84EE90E0089523
:100AE0002091D70225FFDECF89E290E00895209182
:100AF000D70225FFD7CF85E390E008952091D70254
:100B000026FFD0CF8AE290E008952091D70226FFF9
:100B1000C9CF81E390E0089589E390E0089583EEE2
:100B200090E0089582EE90E0089586EE90E00895BA
:100B30009091D70292FF06C0282F28712830F9F42F
:100B4000877F846093FF06C0282F28712831F1F435
:100B5000877E84612091D80220FF06C0382F38712B
:100B60003830D9F4877F816021FF06C0282F287193
:100B70002831D1F4877E816194FD877E0895282FE6
:100B800024712430F9F68B7F8860DCCF282F247104
:100B9000243101F78B7E8861DDCF382F3171313000
:100BA00019F78E7F8860E0CF282F2171213121F73E
:100BB0008E7E8861E1CF0C9408030C940B03E82F20
:100BC000F0E0EE0FFF1FE754FD4F80819181089503
:100BD000089580EA8A95F1F70895CF93DF93AAE606
:100BE000B1E04DE651E0C1E0D0E08D91E82FE29513
:100BF000EF70F0E061A18F709E0101C0220F8A9515
:100C0000EAF7922F9095962391A382A1822B82A33B
:100C10004A175B0751F7ADE5B1E04AE651E0C1E0A4
:100C2000D0E08D91E82FE295EF70F0E061A18F7038
:100C30009E0101C0220F8A95EAF7922F9095962384
:100C400091A382A1822B82A34A175B0751F71092CE
:100C5000B4021092B3021092BA021092B90210922A
:100C6000B6021092B5021092BC021092BB02109212
:100C7000B8021092B7021092BE021092BD0283E039
:100C80000E94CD06DF91CF910C9462038F929F92C8
:100C9000AF92BF92CF92DF92EF92FF920F931F938A
:100CA000CF93DF938AE6E82E81E0F82E03EB12E083
:100CB000912CAA24A394B12CF70181917F01C82F14
:100CC000C295CF70D0E099A18F70650101C0CC0CA6
:100CD0008A95EAF7892F8C2989A38AA18C2C809484
:100CE00088218AA30E94E905EDE5F1E050E040E0AB
:100CF00030E020E06191A62FA295AF70B0E0909611
:100D00008C9190E06F7002C0959587956A95E2F797
:100D100080FD3EC0C501042E02C0880F991F0A94B1
:100D2000E2F7282B392B4F5F5F4F4D30510511F7FC
:100D300089A1882289A28AA1C82ACAA2F801808131
:100D400091812817390739F13183208381E0982A6E
:100D50000E5F1F4FFDE6EF16F1E0FF0609F0ACCF86
:100D6000292D43E069EB72E083EB92E00E94CE060E
:100D70000E946A03892DDF91CF911F910F91FF90FF
:100D8000EF90DF90CF90BF90AF909F908F9008959D
:100D900090E080E0C6CF80E0DACF0895FF920F9315
:100DA0001F93CF93DF93F82E092F162FD72FC42F21
:100DB000222349F081E08093CC010E94C91D9093C9
:100DC000CB018093CA018091CC018823A1F080914E
:100DD000CA019091CB010E94D51D069760F0EF2DBE
:100DE000F02FA12FBD2F90E080E0D0E08C179D0761
:100DF00044F01092CC01DF91CF911F910F91FF90A1
:100E00000895219131912D933D930196EFCFEF926B
:100E1000FF920F931F93CF93DF93EB01E82FD11134
:100E200010C0442321F0F0E0E250FD4FE4916E2F1A
:100E30007E2F8E2FDF91CF911F910F91FF90EF901A
:100E400008950D2F10E0282F30E0442329F0225080
:100E50003D4FF901249130E0F6E0CF9FC00111240D
:100E6000EFEFF0E0BF010E940129AB018C2F90E071
:100E7000880F991FA5E5A49FB001A59F700D1124AF
:100E8000861B970B982F990F980FBF01601B710B52
:100E9000629FD001639FB00D729FB00D11248B2F04
:100EA0009D9FB0011124672F7727EF01C61BD70B39
:100EB000BE01629FE001639FD00D729FD00D11248F
:100EC0007F01E91AF108E09EB001E19E700DF09EED
:100ED000700D1124672F7727E61BF70BE29F800127
:100EE000E39F100DF29F100D1124E12F722F42305D
:100EF000510599F048F44115510569F0413051050B
:100F000081F0EB2F8D2F07C04430510569F080F040
:100F100046305105B1F76E2F8DCFE22F7B2F812FF9
:100F2000FACFE22F7D2FF7CFEB2F822F712FF3CF48
:100F30007B2F822FED2FEFCF41E00C940707089510
:100F4000CF93DF93762FE901682F842F0E949C07AF
:100F5000798368838A83DF91CF9108958091BF025E
:100F6000982F9E7F29F4817082608093BF0208953C
:100F70008635E8F381708465F8CF88E090E00C94C2
:100F8000F329CF92DF92EF92FF926B017C010E94D6
:100F9000AE07B701A60188E090E0FF90EF90DF90E8
:100FA000CF900C94112AEFEBF2E083E08083118262
:100FB0008FEF828383831482608171818281938128
:100FC0000C94C1078091BF0280FF02C086950895EE
:100FD00080E008959091C302933018F49F5F90933E
:100FE000C302882351F06091BF027091C0028091CA
:100FF000C1029091C2020C94C107089581E00C9443
:10100000EA079091C302992319F091509093C3027B
:10101000882351F06091BF027091C0028091C1029B
:101020009091C2020C94C107089581E00C940108CC
:1010300070E00C94720E609108018091BF0280FFF5
:101040000AC08091070123E0829FC00111248C53C4
:101050009D4F0C9418088091090190910A0123E09A
:10106000829FF0011124EC53FD4F891750F7118234
:10107000108212828F5F3396F8CF9091BF0290FF5B
:1010800014C09091090120910A0133E0939FF0016F
:101090001124EC53FD4F921710F00C941B08818320
:1010A000608342839F5F3396F6CF0895CF93DF939B
:1010B00000D00F92CDB7DEB79091BF0290FF0AC06B
:1010C0009E012F5F3F4F0E94A0074B8169818A815B
:1010D0000E943D080F900F900F90DF91CF910895DF
:1010E000CF93DF93EC01EC81F0E0E750FE4F4491A9
:1010F000EFEBF2E0628181810E9456088C818F5F64
:101100008C83DF91CF910895CF93DF93EC01EFEBC8
:10111000F2E0438162818C810E9456088C818F5F4E
:101120008C83DF91CF9108950F931F93CF93DF931B
:1011300000D00F92CDB7DEB78C018091CD01811127
:101140000AC09E012F5F3F4F4FEF6FEF0E94A00735
:101150008A818093CD01F8016481613069F08091CA
:10116000CD0140E0662361F040E0623011F440912F
:10117000CD0180E060E004C06091CD0140E080E0FE
:101180000E943D08F801848190E0019663E070E0E0
:101190000E94152984830F900F900F90DF91CF91BB
:1011A0001F910F910895AF92BF92CF92DF92EF926D
:1011B000FF920F931F93CF93DF9300D00F92CDB781
:1011C000DEB7182FF62E042FE22E9091BF0290FF6B
:1011D00029C0E92FE695AE2FB0E0A359BE4F8C9100
:1011E0008093F0019E7F923059F59E012F5F3F4F13
:1011F000812F0E94A0074B8169818A810E943D084E
:101200001093C002F092C1020093C202EE2051F08E
:101210006091BF027091C0028091C1029091C202A0
:101220000E94C1070F900F900F90DF91CF911F91F7
:101230000F91FF90EF90DF90CF90BF90AF90089507
:10124000823019F40091C202DBCF863019F410917C
:10125000C002D6CF8930D9F3893191F6E9518E2F6A
:101260008170D82EE695F0E0E750FD4FA590B49040
:10127000C12CBB2460910B01C61618F00E941B08FC
:10128000BFCF2C2D30E0A29EC001A39E900DB29E38
:10129000900D112470E00E940129812FD11013C0FC
:1012A000860F40910901420F532F511D9A01220FC1
:1012B000331F240F351F2C533D4F402F6F2D0E949D
:1012C000A007C394D7CF861BECCFEFEBF2E0918160
:1012D000282F4381628188E0890F0C94D30881E034
:1012E0000C946509EFEBF2E09181282F4381628134
:1012F00088EF890F0C94D30881E00C947209EFEB0E
:10130000F2E0628128E0620F08F46FEF282F43813A
:1013100081810C94D30881E00C947F09EFEBF2E01B
:10132000628128E0621B08F460E0282F43818181FC
:101330000C94D30881E00C948E09EFEBF2E043812A
:1013400028E0420F08F44FEF282F628181810C942E
:10135000D30881E00C949D09EFEBF2E0438128E093
:10136000421B08F440E0282F628181810C94D3084D
:1013700081E00C94AC0920E00C94D308EF92FF922A
:101380001F93CF93DF93EC0110E0EE24EA94F12C4D
:1013900060910B01161770F00E941B089A818C81D6
:1013A00090FF27C08F5F8C83DF91CF911F91FF90BB
:1013B000EF90089520910901422F410F5527551FA5
:1013C000CA019A01220F331F280F391F2C533D4F9A
:1013D00070E0C7010E941529962F8C814091C202AE
:1013E0006091C102199F800D11240E94A0071F5F08
:1013F000CFCF8150D8CFAF92BF92CF92DF92EF92F2
:10140000FF920F931F93CF93DF93FC0182810FEF25
:1014100080FF01E010E045E0A42E80910B01181739
:10142000C8F00E941B088091CF01013009F055C01F
:10143000811102C080910B0181508093CF01DF9117
:10144000CF911F910F91FF90EF90DF90CF90BF90C1
:10145000AF900895C0910901C12ED12CCC0DDD2D86
:10146000D11DCE01880F991FC80FD91FCC53DD4F56
:10147000198218821A8234E0E32EF12CB12C80916B
:10148000CF018B0D86301CF16A2D0E94F328892F25
:10149000082E000C990BC816D90691F48091C2024F
:1014A0008E9DA0018F9D500D112455954795559502
:1014B00047959E016091C1028091C0020E94A007E1
:1014C000B00EF1E0EF1AF108D1F61F5FA6CF87FF4B
:1014D000DFCF90910B01890FDBCF90E001966091F7
:1014E0000B0170E00E941529A8CF0F931F93CF9393
:1014F000DF938091090190910A0123E0829FF0011E
:101500001124EC53FD4F891740F1C0E0D3E0609106
:101510000B01C61740F10E941B0820910501809124
:10152000CE01820F8093CE0190910601920F90938D
:101530000601191654F4082E000C990B40910B016A
:101540004150550B841795071CF0219520930501F8
:10155000DF91CF911F910F91089511821082128215
:101560008F5F3396D0CF0C2F10E070E0C8010E943F
:10157000152920910901820F482F50E02091CE01BA
:10158000022E000C330B02171307BCF0209106014A
:10159000022E000C330B201731077CF08D9F900139
:1015A00011242C533D4F4091C2026091C1028091A1
:1015B000C0020E94A007CF5FAACFFA01EE0FFF1F63
:1015C000E40FF51FEC53FD4F118210821282F3CF0E
:1015D0008F929F92AF92BF92CF92DF92EF92FF9243
:1015E0000F931F93CF93DF93EC014C81042F10E0F6
:1015F0009801D8010E9459299B01AC010E946F29D2
:101600004B015C01E0E2F0E0E01BF10BA5E5B0E08E
:10161000AC019B010E946F296B017C019F01DF01DE
:101620000E9451299B01AC010E947A299B01AC01C7
:10163000280D391D4A1D5B1DC701B6010E942929CD
:10164000F22E822F90E039E23F1560F143E0249FB3
:101650009001112435952795122F109500E085E50E
:10166000E82EEF1880910B01081758F10E941B0813
:101670009C8181E0992319F0903219F48FEF8093C7
:10168000040180910401890F8C83DF91CF911F9118
:101690000F91FF90EF90DF90CF90BF90AF909F9011
:1016A0008F90089525E530E0B901681B790B9B0107
:1016B000220F331F260F371F37FFCCCF2F5F3F4F2F
:1016C000C9CF8E2D01FD8F2D20910901622F600F52
:1016D0007727771F9B01220F331F260F371F2C53AD
:1016E0003D4F412F6091C1020E94A0070F5FBACF0A
:1016F0000F931F93CF93DF93EC0110E000E09091E4
:101700000B019017110609F06CF40E941B088C81E4
:1017100090E00196817099278C83DF91CF911F9182
:101720000F91089520910901A801420F511D9A01BE
:10173000220F331F240F351F2C533D4F4C816091D6
:10174000C1028091C00296959017110651F04CF09D
:10175000442349F04091C2020E94A0070F5F1F4F2F
:10176000CECF4423B9F340E0F7CF8F929F92AF9250
:10177000BF92CF92DF92EF92FF920F931F93CF937E
:10178000DF93FC01B280948081E0848300E015E067
:101790005BE4A52E88248394EE24EA94F12C7BE468
:1017A000C72ED12C80910B01081770F0DF91CF91DB
:1017B0001F910F91FF90EF90DF90CF90BF90AF906F
:1017C0009F908F900C941B08C02FD0E01C9FF001BD
:1017D0001D9FF00D1124E053FE4F91101CC0138289
:1017E000128220910901CE01820F911D9C01220FCE
:1017F000331F280F391F2C533D4F1C9FF0011D9F95
:10180000F00D1124E053FE4F4281618180810E94DE
:10181000A0070F5FC7CF2381222379F121502383B3
:1018200034818A2D821B311101C0822F1C9FF0014F
:101830001D9FF00D1124E053FE4F9091C202899F2D
:10184000C0011124B6010E9401296283211104C044
:10185000332311F01482A38222E02B1510F21C9F77
:10186000F0011D9FF00D1124E053FE4F8091C00246
:1018700080838091C1028183B4CF0E94CE298230BF
:1018800091400CF0AECF82E08B1530F50E94CE294E
:10189000B7010E9415291C9FF0011D9FF00D112416
:1018A000E053FE4F808322E02B15C8F40E94CE291E
:1018B0002091C1022695622F70E00E941529280F01
:1018C0001C9FF0011D9FF00D1124E053FE4F21835A
:1018D0001282A382848285CF8091C002DCCF2091C6
:1018E000C102EECFEFEBF2E080818E7F80836081DA
:1018F0007181828193810E94C1071092F1012FEFC3
:1019000080E792E0215080409040E1F700C0000065
:101910000C941B086091BF02669570E04BE050E0AC
:101920008CE091E00E94DE29892B19F481E08093FC
:10193000F1010E94C91D9093EA018093E901089585
:101940009091BF0290FF35C09170811128C09260C4
:101950009093BF02662351F06091BF027091C00264
:101960008091C1029091C2020E94C1076091BF02A2
:10197000669570E04BE050E08CE091E00E94DE293B
:10198000892BA1F01092F10181E08093EC0140914C
:10199000C2026091C1028091C0020C94BB098B32DB
:1019A00010F09465D5CF880F982BD2CF0E948A0C67
:1019B000EBCF0895682F9091BF02969581E0890F33
:1019C0008B3208F081E00C94A00C81E00C94DA0CCE
:1019D000682F9091BF0296958FEF890F09F48AE2E4
:1019E0000C94A00C81E00C94E80C61E00C94A00C29
:1019F000EFEBF2E080818160808386950C94F50C9A
:101A00008091BF0280FD0C94720C0C94F80C60E085
:101A10000C94A00C8091EF0181112EC00E94DA1B62
:101A2000811104C00E94811C0E94D3070E94BD073F
:101A30006093BF027093C0028093C1029093C20270
:101A40006E7F61F40E94D3070E94BD076093BF02BE
:101A50007093C0028093C1029093C2020E94AE07AD
:101A60001092F1018091BF0280FF03C086950E9411
:101A7000070D81E08093EF0108950F931F93CF939B
:101A8000DF938091F101882309F49DC08091F001DA
:101A9000E091BF02E695E81BE093EB018230C9F5C7
:101AA000F0E0EB50FE4FE491CE2FD0E000E718E0DD
:101AB0008091EC01882389F01092EC010E94C91DED
:101AC0009E0120953095820F931F9093EA01809399
:101AD000E9011092EE011092ED018091E9019091DF
:101AE000EA010E94D51D8C179D0708F46CC0E09197
:101AF000E901F091EA01CE0FDF1FD093EA01C09314
:101B0000E90189EE91E0F801DF91CF911F910F91EA
:101B10000994863049F4F0E0EE50FE4FE491CE2F68
:101B2000D0E004E818E0C4CF893051F4E695F0E045
:101B3000E151FE4FE491CE2FD0E00EEB19E0B8CF8B
:101B40008F3051F4E695F0E0E451FE4FE491CE2F52
:101B5000D0E00BEF19E0ACCF853149F4F0E0E7516C
:101B6000FE4FE491CE2FD0E005E71AE0A1CFC8E206
:101B7000D0E008EE1AE0883109F49ACF833239F4C4
:101B8000E7EEF1E0C591D49104E918E091CFC4EFFC
:101B9000D1E008E71BE0843209F48ACFC0EDD7E03A
:101BA0000FE917E0853209F083CF8E2F63E00E94A2
:101BB000E728E92FF0E0EC51FE4FE491CE2FD0E082
:101BC00005EB1BE075CFDF91CF911F910F91089529
:101BD000FA01811101C0FB010994CF93DF93C82F53
:101BE000D62F0E94E2078C1740F00E94E2078D1763
:101BF00020F4DF91CF910C94E50C8C2FDF91CF91E5
:101C00000C94F50C0F931F93CF938C01FB01C281B1
:101C1000CC2309F465C00E942B1B8272F801E25CA0
:101C2000FC45E431F10538F4EC5AF54D0C944B29A0
:101C30000E94000DC0E08C2FCF911F910F9108954D
:101C400042EF5CE065EE7CE00E94E80DF3CF45EEEC
:101C50005CE062EF7CE0F8CF4CE759E06FE679E0BA
:101C6000F3CF4FE659E06CE779E0EECF4AE959E06F
:101C70006BE879E0E9CF4BE859E06AE979E0E4CF35
:101C800048EB59E069EA79E0DFCF49EA59E068EBCF
:101C900079E0DACF45E158E06EEF77E0D5CF4EEF4F
:101CA00057E065E178E0D0CF81E00E94F50CC2CF2B
:101CB00065E082E00E94ED0DBDCF68E086E0FACFDE
:101CC0006EE089E0F7CF64E18FE0F4CF67E185E172
:101CD000F1CF88E1EACF62E289E1ECCF83E2E5CFA0
:101CE000C1E0A9CF849A41B34F7E51B35061EFB7A1
:101CF000F8949B01220F331F260F371F280F391F1F
:101D00002817390741F4EFBF8FE594E00197F1F709
:101D100000C000000895DC016D91CD0178E051BB59
:101D2000000000C067FF41BB660F000000C000C09C
:101D300000C041BB00C07A9591F7E2CFAF92BF924D
:101D4000CF92DF92EF92FF920F931F93CF93DF9387
:101D50007C015B01C42FD22FFC0182818823F9F022
:101D60004093F4010E94C91D9093F3018093F20106
:101D700080E28C0F883008F061C0C77081E001C03C
:101D8000880FCA95EAF7DF91CF911F910F91FF90CD
:101D9000EF90DF90CF90BF90AF900C942D131091E7
:101DA000F401141340C08091F2019091F3010E945C
:101DB000D51D6C01B701C5010E941F18C816D906B0
:101DC00090F5C0E2CD0F1D17B9F080E2810F883089
:101DD00040F4177081E001C0880F1A95EAF70E945D
:101DE0003413C83048F481E09D2F977001C0880FEC
:101DF0009A95EAF70E942D13802F0E941A13C8307B
:101E0000E8F4D77081E001C0880FDA95EAF7DF9136
:101E1000CF911F910F91FF90EF90DF90CF90BF90E7
:101E2000AF900C94341380E28C0F883038F4C77074
:101E300081E001C0880FCA95EAF7E9CFDF91CF9121
:101E40001F910F91FF90EF90DF90CF90BF90AF90D8
:101E500008950F939C01CB01233F4CE5340759F1C2
:101E6000A8F4283DFCE53F0701F1293D4CE5340786
:101E7000D1F1273D3C4591F406E221EE41EE67EDBC
:101E80007CE50E949E0E80E00F910895253FFCE5C1
:101E90003F07E9F0B0F0263F3C45F9F0FC018281B4
:101EA000882339F11092F401EFCF07E225EE45EED9
:101EB00068ED7CE5E6CF06E221EE40EE63EF7CE5DF
:101EC000E0CF07E225EE44EE64EF7CE5DACF06E2F0
:101ED00021EE42EE65EF7CE5D4CF07E225EE46EE3B
:101EE00066EF7CE5CECF08E221E045EE69ED7CE5CA
:101EF000C8CF81E0C9CFCF93DF93EC01FB01828192
:101F0000882309F419C1C230FCE5DF07C0F1C631EE
:101F10009CE5D90730F09E012A5F3C452930310508
:101F200070F50E94F71B9093D8028093D702C031BE
:101F3000ECE5DE0709F4CFC008F05BC0C8308CE5E3
:101F4000D80709F4B6C088F5C430ECE5DE0709F41B
:101F5000A8C0C0F4C2308CE5D80709F49CC08091B9
:101F6000D7028260C330DC4509F498C08091D70263
:101F70009091D8020E94051C0E94A91580E0DF9173
:101F8000CF9108958091D7028061C630ECE5DE07DD
:101F900009F484C08091D7028860C730DC4508F41A
:101FA0007DC08091D702806279C0CC308CE5D807A3
:101FB00009F489C070F48091D7028C60CA30ECE5D6
:101FC000DE0709F46BC008F478C08091D7028E7FD9
:101FD00065C0CE308CE5D80709F479C08091D7026E
:101FE0008B7FCF30DC4508F459C08091D7028F7EBB
:101FF00055C0CB3FECE5DE0709F457C030F5C331DF
:102000008CE5D80709F46FC078F4C131ECE5DE0740
:1020100009F465C0C231DC4509F0A8CF0E94A915BA
:102020008091D7028F773AC0C5318CE5D80709F483
:1020300062C008F476C08091D8028160CA3FDC4556
:1020400009F094CF8093D80291CFCF3FFCE5DF0712
:1020500009F44DC088F48091D8028D7FCD3F9CE576
:10206000D90781F38091D8028E7FCE3FDC4550F3B3
:102070008091D8028360E6CFC130FDE5DF0709F427
:1020800059C008F444C080E0C230DD4509F06ECF8D
:102090000E94831C6BCF8091D70281608093D7020E
:1020A00065CF8091D7028460F9CF8091D802826099
:1020B000C9CF8091D7028064F1CF0E94A915809189
:1020C000D7028068EBCF8091D7028D7FE7CF8091D8
:1020D000D702877FE3CF8091D7028F7DDFCF8091BA
:1020E000D7028F7BDBCF8091D702837FD7CF8091C0
:1020F000D8028C7FA7CF8091D70282FB992790F9D5
:1021000021E0922790FB82F990FB83F9C7CF809161
:10211000D802982F909591708E7F892B90FB81F932
:1021200091CF0E94A9159091D702892F97FB87F92B
:102130008058B4CF81E0ACCF81E021CFCF93DF9343
:10214000EB0186319C4511F50E942B1B9A81992346
:1021500099F08A7A91E009F490E09093F501811169
:1021600009C089E20E94061B0E94771B80E0DF9174
:10217000CF91089585E3F6CF8091F501811104C0D8
:1021800089E20E940D1BF0CF85E3FBCF81E0EFCF0A
:102190009093FB018093FA010895E091FA01F09188
:1021A000FB01309721F00190F081E02D099480E04F
:1021B0000895E091FA01F091FB01309799F0209198
:1021C0002B01222359F02091D70227FF07C0DC0101
:1021D0002C9111962C93119725E02C930280F3817A
:1021E000E02D09940895E091FA01F091FB013097F8
:1021F00039F022E0DC012C930480F581E02D099474
:1022000008952091F8013091F9012817390771F0EC
:102210009093F9018093F801E091FA01F091FB01AC
:10222000309721F00680F781E02D099408952091E0
:10223000F6013091F7012817390771F09093F701F3
:102240008093F601E091FA01F091FB01309721F0C3
:102250000084F185E02D0994089585B7806885BFD5
:1022600085B7806885BF0895089508950C9434114A
:1022700008950C9438110E942D110E9435110C9470
:10228000361181E008950C9441110E94C01D0E94F6
:10229000ED050E94641E0E940A0D0C9439117F9274
:1022A0008F929F92AF92BF92CF92DF92EF92FF9266
:1022B0000F931F93CF93DF93CDB7DEB72A970FB657
:1022C000F894DEBF0FBECDBF0E9446060E944311A8
:1022D000882309F473C04DEFA42E41E0B42E10E022
:1022E00000E0702E802F0E94DF056C01F5018190C7
:1022F00091905F018816990609F45AC08091820274
:1023000081FD0E94E80580E0EE24E394F12C8C240A
:102310009D2494012E213F21232B09F443C08E8359
:102320007F82CE20DF2081E0CD2809F480E08887FD
:102330000E94C91D8160782F9A8789874E815F81AD
:1023400068858A850E940312000F111FF801E3506F
:10235000FE4F80819181E826F926F182E0820E9479
:102360003D0D0E9412210E94CD109091FC01891711
:10237000B1F10E94CD108093FC012A960FB6F8941B
:10238000DEBF0FBECDBFDF91CF911F910F91FF90A8
:10239000EF90DF90CF90BF90AF909F908F907F9005
:1023A0000C9472038F5FEE0CFF1C8D3009F0B1CFDF
:1023B0000F5F1F4F0330110509F093CF8FEF898313
:1023C0008A831B820E94C91D8160782F9D838C8324
:1023D00049815A816B818D810E940312C0CF2A9658
:1023E0000FB6F894DEBF0FBECDBFDF91CF911F9126
:1023F0000F91FF90EF90DF90CF90BF90AF909F90A4
:102400008F907F900895CF93DF93CDB7DEB72B9752
:102410000FB6F894DEBF0FBECDBF4F8358876987D4
:102420007A878B871E821D8285E0FE013796DE014A
:10243000119601900D928A95E1F749815A816B813D
:102440007C818D819E812B960FB6F894DEBF0FBEE6
:10245000CDBFDF91CF910C942218FC018081918136
:102460000C94D81ACF93C82F882309F48BC08238D4
:10247000C1F40E94CD1081FD85C089E30E94061B36
:102480000E94771B2FEF81EE94E021508040904016
:10249000E1F700C0000089E30E940D1BCF910C946E
:1024A000771B8338A1F40E94CD1080FD6BC083E5BB
:1024B0000E94061B0E94771B2FEF81EE94E02150B3
:1024C00080409040E1F700C0000083E5E5CF84380C
:1024D000A1F40E94CD1082FD55C087E40E94061B26
:1024E0000E94771B2FEF81EE94E0215080409040B6
:1024F000E1F700C0000087E4CFCF8CEF8C0F813A6A
:1025000090F46C2F80911701909118010E949C1CEF
:10251000882329F08C2F0E940D1B0E94771B8C2F83
:102520000E94061BBBCF80E28C0F883048F4C77036
:1025300081E001C0880FCA95EAF70E942E1BAECF3A
:10254000EBE5EC0FE33040F4F0E0EA53FE4F80811E
:1025500090E0CF910C940111E8E5EC0FE73150F4D5
:10256000F0E0EE0FFF1FE856FE4F80819181CF9182
:102570000C941711C03F30F08C2F0E940C20CF918B
:102580000C94F720CF910895882309F452C0823823
:1025900071F40E94CD1081FF4CC089E30E94061B9C
:1025A0000E94771B89E30E940D1B0C94771B8338D4
:1025B00059F40E94CD1080FF3CC083E50E94061BA9
:1025C0000E94771B83E5EFCF843859F40E94CD1029
:1025D00082FF2FC087E40E94061B0E94771B87E4BE
:1025E000E2CF9CEF980F913AF0F290E2980F98307A
:1025F00050F4877091E001C0990F8A95EAF7892F0E
:102600000E94341BD2CF9BE5980F933020F490E0CA
:1026100080E00C94011198E5980F973120F490E038
:1026200080E00C941711803F20F00E9474200C94DD
:10263000F7200895CF93C82F0E943212C93349F46E
:102640002FEF87EE93E0215080409040E1F700C0EB
:1026500000008C2FCF910C94C412882321F00E948B
:102660002E1B0C94771B0895882321F00E94341BA5
:102670000C94771B0895BF92CF92DF92EF92FF9256
:102680000F931F93CF93DF936C01D62FC72FFC01BD
:10269000058102950F70128111110E944B1B0E943F
:1026A000241BE82E882391F01123D1F08C2F807FFA
:1026B000803421F080E28D0F883090F082E00E941B
:1026C000C21B0E94241B91E0E82EE926BC2EB29486
:1026D0009FE0B922EB2DF0E0E859F54D0C944B2921
:1026E000E12CF4CF0C2F0F70C07F11F00295007F0A
:1026F0001123A9F0002359F080E28D0F883010F0EB
:10270000D11109C0802F0E942E1B0E94771B8D2F94
:102710000E94321214C0802F0E943E1BF6CF8D2FD4
:102720000E94C412002359F080E28D0F883010F00F
:10273000D1112CC0802F0E94341B0E94771B2B2D9F
:102740002850330B2430310520F40E94CD100E9414
:102750007203EE2009F49EC10E94201B80FD9AC1E5
:10276000F60112820E941A1B0E94A619C6010E943D
:102770006B150E941A1BDF91CF911F910F91FF9053
:10278000EF90DF90CF90BF900C94C719802F0E94DC
:10279000441BD3CFFC2FFF70FF2EC07FC03219F037
:1027A000F29480EFF822DD2369F0D13049F1112352
:1027B00091F1002351F1F601858180FFA8CF8F7040
:1027C000858323C0112381F0011106C00E945E1B86
:1027D0008F290E942D13B3CF0130C1F70E945E1BD9
:1027E0008F290E94641BABCF011106C00E946D1B94
:1027F0008F2D0E943413A3CF013009F4A0CFF6CF60
:10280000112329F0063008F09ACF8F2DE2CF053042
:1028100008F095CFEDCF002359F3D93349F4FFEFFA
:1028200027EE33E0F15020403040E1F700C00000D7
:102830008D2F0E94C41283CF8C2F8695869583702E
:1028400069F0813009F07BCF8D2F9C2F937011118F
:1028500002C090E080E00E94171171CF8D2F9C2F55
:102860009370111102C090E080E00E94011167CFC7
:102870008D2F112329F00E940C200E94F7205FCF9A
:102880000E947420FACF8C2F837009F041C011117F
:1028900056CF4D2F429546954770440F440F0D2F4C
:1028A0000F7010E030E020E0042E04C0000F111F74
:1028B000221F331F0A94D2F760E070E0CB01D4FFEF
:1028C0000FC06FE070E080E090E004C0660F771FFB
:1028D000881F991F4A95D2F76095709580959095BD
:1028E000C695C695C370602B712B822B932BC2307B
:1028F00049F058F4C13019F00E94581920CF0E94B5
:1029000046191DCF0E946A191ACF0E94441917CF89
:102910008695112311F08C2F8170882309F40FCF35
:102920004D2F429546954770440F440F0D2F0F7061
:1029300010E030E020E0042E04C0000F111F221F21
:10294000331F0A94D2F760E070E0CB01D4FF0FC0D0
:102950006FE070E080E090E004C0660F771F881F92
:10296000991F4A95D2F76095709580959095C69578
:10297000C695C370602B712B822B932BC23049F00C
:1029800058F4C13019F00E941D1AD9CE0E940B1ABA
:10299000D6CE0E942F1AD3CE0E948019D0CECF70EF
:1029A000112329F08C2F0E94A6198D2F12CF8D2F65
:1029B0000E9434138C2F0E94C719C1CED23F89F1D7
:1029C00060F4D03FC9F0D13F29F1112309F442C08E
:1029D00001119DCE8C2F8F7121C0D33F39F1D43F8F
:1029E000A1F7112369F1CF718C2F0E94A61963E022
:1029F0008C2F0E94AD1BA3CE112341F0053008F0AF
:102A00009ECE8C2F8F710E94EA1999CE063008F065
:102A100096CEF7CF8C2F8F71112369F20E94A619E1
:102A20008ECE8C2F8F711123C9F3C5CF112329F0BE
:102A30008C2F8F710E94911982CE0E948C197FCEAB
:102A400081E00E94C21B023008F479CE82E00E942D
:102A5000C21B75CE002359F0D93309F0E9CE8FEFB0
:102A600097EEE3E081509040E040E1F7DFCE8C2F1D
:102A70008F71A1CF4C2F4F706D2FC6010E94CC03D8
:102A80000E94BC185CCE4C2F4F706D2FC6010E9467
:102A9000CF0355CEDF91CF911F910F91FF90EF9013
:102AA000DF90CF90BF9008950F931F93CF93DF9344
:102AB000EC01688179818A810E94E21A8C010E946E
:102AC000411A0E944319B801CE01DF91CF911F91A5
:102AD0000F910C943B13CF93DF93EC018B819C817E
:102AE000892B29F08881998189238F3F59F4DF91BF
:102AF000CF910895CE010E945415CE01DF91CF9160
:102B00000C945703CE010E948A038111F3CF0E94D7
:102B1000241B882361F38A81882349F382E0DF91B3
:102B2000CF910C94C21B0E944B1B0E945B1B0E9406
:102B3000771B0E941E220E94F72090E080E00E94F6
:102B4000011190E080E00C9417110E94141B0C946A
:102B500093150E943B1B0C94A515E92FE295EF708D
:102B6000E250EE3070F4F0E0E858F54D0C944B294B
:102B7000803F19F020F4883E20F481E00895843FDE
:102B8000E1F380E00895883EC0F3813FD1F7F5CFAF
:102B900093FB882780F908950E94D81A0C94AD15EC
:102BA000CF93DF9300D000D00F92CDB7DEB70F9058
:102BB0000F900F900F900F90DF91CF910895CF93CA
:102BC000DF9300D000D000D0CDB7DEB726960FB689
:102BD000F894DEBF0FBECDBFDF91CF9108951F9354
:102BE000CF93DF93C091040216E0809105028C130D
:102BF00004C0DF91CF911F910895D0E01C9FF00198
:102C00001D9FF00D1124EA5FFD4F408151816281CB
:102C10007381848195810E94DF152196C770E5CF6D
:102C2000409136025091370260913802709139021A
:102C300080913A0290913B020C94DF151F93CF9341
:102C4000DF9380913B02807FA9F480913802882332
:102C500089F080910402C091050260913602709162
:102C60003702A0913902B0913A02D62FD72316E04D
:102C7000C81304C0DF91CF911F91089590E0109781
:102C800011F0DF3F19F401968770F2CF189F900181
:102C9000199F300D1124F901EA5FFD4F418147135F
:102CA000F2CF40814613EFCF42814111ECCF4381F7
:102CB00054814A1B5B0B483C510528F780913B022D
:102CC0008F70806180933B02F901E55FFD4F808149
:102CD0008F708061808386E392E00E946B15DF91A4
:102CE000CF911F910C94EF15AF92BF92CF92DF92CC
:102CF000EF92FF920F931F93CF93DF93CDB7DEB781
:102D000061970FB6F894DEBF0FBECDBF8C0185E092
:102D1000F801DE011D9601900D928A95E1F7F80108
:102D200040815181E28086E3C82E82E0D82E6091F6
:102D3000390270913A026115710509F461C19091EF
:102D4000360220913702892F82238F3F09F458C120
:102D5000A380B480F0903802F501E61BF70BFF204A
:102D600009F4FCC080913B02382F307FE83CF1052C
:102D700008F0B2C0311179C0FE2C251323C0941382
:102D800021C0E1101FC08F70806180933B020E94C0
:102D90001016C6010E946B1580913B02F8018583D5
:102DA0008F2D61960FB6F894DEBF0FBECDBFDF91B9
:102DB000CF911F910F91FF90EF90DF90CF90BF9038
:102DC000AF900895AB2829F0842F85238F3F09F019
:102DD00033C180E0F82FF170DF2E80FF3CC080917E
:102DE00004022091050236E0821315C04D875E87EC
:102DF0008D859E850E94D81A292F22952F7022300A
:102E0000F0F0243018F59F70F1F0F8019581907F73
:102E1000D1F4D12C1EC090E0389FF001399FF00D05
:102E20001124EA5FFD4F6181651306C06081641360
:102E300003C062816E110FC001968770D5CF9F705D
:102E400011F0882331F3805E883018F3C8010E94A6
:102E50006B15FD2CA5CFEE2009F4A2CF80913B028B
:102E6000816080933B02F12C9BCF251306C0941305
:102E700004C0F801EE2009F48DC04D875E878D8572
:102E80009E850E94CC15882319F1EE2009F18091CE
:102E90003B02803270F02091360230913702388741
:102EA0002F831986BB86AA868C87CE0107960E943F
:102EB0006B1586E0F801A6E3B2E001900D928A95C9
:102EC000E1F70E941E160E941016FF24F39468CFAB
:102ED000C8010E946B15F9CF311113C07A2DB98A40
:102EE000A88A6E2D89890E94D01586E392E00E94FF
:102EF0006B1586E0F60111928A95E9F70E9410168B
:102F0000B2CF25130FC094130DC0E1100BC0F80110
:102F10008583C8010E946B1586E0F60111928A959F
:102F2000E9F73ECF4D875E878D859E850E94CC1543
:102F3000882371F2EE2061F280913B02803208F426
:102F4000B8CF20913602309137023A8329831B8211
:102F5000BD82AC828E83CE010196A9CFE83CF105FB
:102F600008F041C0FE2CEE2009F4B2CF25132AC090
:102F7000941328C080913B0280FD1BC0982F907F46
:102F8000C1F0F8018583903F31F0982F907F905FDA
:102F90008F70892B8583C8010E946B1586E0F8012C
:102FA000A6E3B2E001900D928A95E1F70E94101617
:102FB000F7CE86E0F801A6E3B2E001900D928A9583
:102FC000E1F7EECE4D875E878D859E850E94CC15FC
:102FD00081116FCF80913B02816080933B02C801D9
:102FE0000E946B15DDCE7A2DB98AA88A6E2D89894B
:102FF0000E94D01586E0F60111928A95E9F7D6CFA6
:10300000EE2009F465CF4D875E878D859E850E94F1
:10301000CC15F82E882309F45BCF86E0F801A6E3EF
:10302000B2E001900D928A95E1F786E392E00E946A
:103030002D120E941E16BACF81E08E25CBCE88ECD1
:1030400090E008951F93CF93DF93CDB7DEB72C9711
:103050000FB6F894DEBF0FBECDBF4F835887698788
:103060007A878B879C87CE0107960E9474168823E7
:1030700069F08A859B85892B39F04F815885842F8B
:1030800085238F3F09F071C016E05FC086E0FE0126
:103090003796DE01119601900D928A95E1F78A85A7
:1030A0009B85892B89F388859F8189238F3F61F3D5
:1030B0002091050230E0C90101968770992740915F
:1030C00004024817190671F40E94A915109205020E
:1030D0001092040286E0E6E3F2E0DF011D928A9599
:1030E000E9F7D2CF96E0929FD001939FB00D1124C3
:1030F000AA5FBD4FFE01319601900D929A95E1F7BE
:10310000809305020E94EF15BFCF819FC00111245B
:103110008A5F9D4F0E9474168823E9F0E0910402B3
:103120001E9FF0011124EA5FFD4F408151816281B1
:103130007381848195810E94DF158091040290E063
:1031400001968770992780930402809104029091E0
:1031500005028913DACF2C960FB6F894DEBF0FBEA6
:10316000CDBFDF91CF911F91089569857A858B85B9
:103170009C850E94DF1588CFEF92FF920F931F93DB
:10318000CF93DF938C01892B81F0F12CEE24E39413
:10319000E8012196F8018491843770F4843008F0B6
:1031A0005FC08130B1F08230A1F1DF91CF911F91EA
:1031B0000F91FF90EF900895853709F44CC008F403
:1031C0003DC09CE7980F903780F78F770E94C4121C
:1031D00049C00E5F1F4FFE01849190E2980F983016
:1031E00060F48770FE2D01C0FF0F8A95EAF78F2FDC
:1031F0000E944E1B0E94771B02C00E9432128F2D2C
:10320000815030F2EFE9FFE03197F1F700C00000A4
:10321000F7CF0E5F1F4FFE01849190E2980F983018
:1032200050F48770FE2D01C0FF0F8A95EAF78F2FAB
:103230000E94541BDFCF0E94C412E1CF0E5F1F4FCC
:10324000FE01C491C150D8F28FE99FE00197F1F7D8
:1032500000C00000F7CF0E5F1F4FFE01F490CFCFEC
:103260000E9432128E01CBCF08950C9434190E9423
:1032700035196093590270935A0280935B029093C0
:103280005C020C94931508950C9437190F931F93B7
:103290000091590210915A0220915B0230915C0218
:1032A000602B712B822B932B1F910F910C9437194C
:1032B0000F931F930091590210915A0220915B02C3
:1032C00030915C0260237123822393231F910F911D
:1032D0000C9437190F931F930091590210915A02C1
:1032E00020915B0230915C0260277127822793272F
:1032F0001F910F910C9437190C9434190C947C196C
:103300000E947E1960935502709356028093570273
:10331000909358020C94931560E070E0CB010C94EC
:1033200080190F931F9341E050E060E070E08A0144
:103330009B0104C0000F111F221F331F8A95D2F773
:10334000C901B8011F910F910C9480190F931F931D
:1033500041E050E060E070E004C0440F551F661F7C
:10336000771F8A95D2F78091550290915602A091CD
:103370005702B09158028A019B01082B192B2A2B66
:103380003B2BC901B8011F910F910C9480190F9329
:103390001F9341E050E060E070E004C0440F551F0F
:1033A000661F771F8A95D2F7CB01BA016095709599
:1033B00080959095009155021091560220915702E8
:1033C0003091580260237123822393231F910F9120
:1033D0000C9480190F931F9341E050E060E070E07F
:1033E00004C0440F551F661F771F8A95D2F780913E
:1033F000550290915602A0915702B09158028A014D
:103400009B01082719272A273B27C901B8011F91CB
:103410000F910C9480190F931F93009155021091F6
:1034200056022091570230915802602B712B822B4B
:10343000932B1F910F910C9480190F931F93009160
:103440005502109156022091570230915802602384
:103450007123822393231F910F910C9480190F9352
:103460001F930091550210915602209157023091FE
:10347000580260277127822793271F910F910C9480
:10348000801908952DE0929F800D1124982F977038
:1034900041E001C0440F9A95EAF786958695869596
:1034A00095E0899FF0011124E45CFD4F90E080E0FD
:1034B00070E05191DF0111979B01082E02C03695F3
:1034C00027950A94E2F721702195252724232527A3
:1034D0002C9301968530910561F708952DE0929F18
:1034E000800D1124982F977086958695869525E0F6
:1034F000829FF0011124E45CFD4F50E040E080E049
:10350000219130E0092E02C0369527950A94E2F702
:1035100021703327042E01C0220F0A94EAF7822B70
:103520004F5F5F4F4530510559F70895BF92CF92D5
:10353000DF92EF92FF920F931F93CF93DF938C0153
:10354000C0905502D0905602E0905702F090580279
:103550008091590290915A02A0915B02B0915C0255
:10356000C82AD92AEA2AFB2ACFE1D0E0BC2ED7010B
:10357000C6010C2E04C0B695A795979587950A9419
:10358000D2F780FD0EC0219788F7B12C8B2DDF91EB
:10359000CF911F910F91FF90EF90DF90CF90BF9050
:1035A0000895B8018C2F0E94EC03019761F3EECFD0
:1035B000CF93DF93EC010E94961ABE01DF91CF9169
:1035C0000C94EC031F93CF93DF93EB0190910302D4
:1035D000992331F0CB01DF91CF911F910C94D81A30
:1035E000882379F0CB010E94961A182F682FCE01FC
:1035F0000E94421ABE01812FDF91CF911F910C943E
:10360000EC03CB010E946E1A182FF4CF682F809123
:103610001701909118010C941C1D682F80911701BF
:10362000909118010C94271D809117019091180119
:103630000C94321D80915D02859585958595089540
:1036400080915D028770089590915D02977081E08E
:1036500009F480E00895809181020895909181029B
:10366000892B8093810208958095909181029823FF
:1036700090938102089510928102089590918002A2
:10368000892B8093800208958095909180029823E1
:1036900090938002089510928002089590917F0285
:1036A000892B80937F020895809590917F029823C3
:1036B00090937F02089510927F02089580915E0298
:1036C000089508950C94611B90915E02981721F063
:1036D00080935E020C94621B089580915E028823A1
:1036E00029F010925E0280E00C94621B0895E09134
:1036F0001701F0911801809181028083E0911701F8
:10370000F0911801808190918002892B8083E09153
:103710001701F0911801808190917F02892B80839D
:1037200090915E02992381F0E0911701F0911801C8
:103730008081892B808380911701909118010E94CC
:10374000881C81110E946D1B8091170190911801B6
:103750000C94D91008950C94AA1B98E0899F9001AD
:103760001124622B60935D020E94A61980915D0274
:103770008595859585950C94AB1B10925D0280E034
:103780000C94AB1B90915D028095892380935D0220
:10379000282F277071F4282F082E000C330B921756
:1037A000130639F08595859585950E94C7190C9467
:1037B000BD1B089590E080E00E94F92921E08C3E35
:1037C0009E4F09F020E0822F089582E090E00C9453
:1037D000EB29682F82E090E00C94FF2983E090E0D1
:1037E0000C94EB29682F83E090E00C94FF29CF9391
:1037F00084E090E00E94EB29C82F81E290E00E94D3
:10380000EB29982F8C2FCF910895CF93C92F682F34
:1038100084E090E00E94FF296C2F81E290E0CF913C
:103820000C94FF29AB01BC018FE090E00C94112AAD
:10383000AB01BC0183E190E00C94112A60E070E0E0
:10384000CB010C94181C60E070E0CB010E94121CAC
:103850000C941E1C6CEE7EEF90E080E00E941D2A0E
:1038600060E082E090E00E94FF2960E083E090E069
:103870000E94FF291092590210925A0210925B0284
:1038800010925C0260E084E090E00E94FF2960E01A
:1038900081E290E00E94FF2960E085E090E00E94D4
:1038A000FF2960E086E090E00E94FF296FEF87E04B
:1038B00090E00E94FF2940E050E0BA0188E090E0EB
:1038C0000E94112A60E08DE090E00E94FF2940E014
:1038D00050E0BA0188E190E00E94112A60E087E19F
:1038E00090E00E94FF2940E050E0BA018CE190E0B6
:1038F0000E94112A60E080E290E00E94FF290C946F
:10390000231C0C942A1C682F8EE090E00C94FF2955
:10391000FC01329680912B01882321F08091D702FF
:103920009EE187FF96E080E0915008F40895219190
:103930002223D1F38F5FF8CF662301F120912B0171
:103940002223F1F02091D70227FF1AC0462F469577
:10395000469546954E3190F4677021E030E002C004
:10396000220F331F6A95E2F7840F911DFC018281BB
:1039700090E02823392381E0232B69F480E0089527
:10398000FC01329608962191261721F0E817F907D5
:10399000D1F7F4CF81E008959C01FC0132969FEFAE
:1039A00080E04191461751F09F3F19F4411101C049
:1039B000982F8F5F8630A9F79F3F09F40895290F4C
:1039C000311D97FD3A95F90162830895FC01329605
:1039D00008962191261303C0DF0111971C92E81766
:1039E000F907B9F70895E62FE695E695E695EE31E5
:1039F00068F4E80FF92FF11D677021E030E001C095
:103A0000220F6A95EAF78281822B82830895E62F3E
:103A1000E695E695E695EE3170F4E80FF92FF11D85
:103A2000677021E030E001C0220F6A95EAF7209527
:103A3000828128232283089520912B01222329F0BB
:103A40002091D70227FD0C94F31C0C94CC1C2091E0
:103A50002B01222329F02091D70227FD0C94071D6A
:103A60000C94E61CFC01329680912B01882351F0C6
:103A70008091D70287FF06C08EE1DF011D928A95F3
:103A8000E9F7089586E0F9CF089508950C94451D4F
:103A90000E94461D8091DD02843049F1109283021C
:103AA00088E190E020E40FB6F894A8958093600038
:103AB0000FBE2093600080E00E9472030E94461DAA
:103AC00083B7817F846083BF83B7816083BF78942D
:103AD000889583B78E7F83BF0FB6F894A8958091A1
:103AE0006000886180936000109260000FBE0895AE
:103AF0000895CF930E94441D0E9446060E94781D9F
:103B0000C0E08C2F0E94DF05892B31F4CF5FC330DA
:103B1000C1F780E0CF91089581E0FCCF08950C9427
:103B20008E1D0E94A9150E94CD100E9472030C9454
:103B30008F1D1F921FB61F9211248F939F93AF93D7
:103B4000BF9380918302811113C08091D302909121
:103B5000D402A091D502B091D6024196A11DB11D0B
:103B60008093D3029093D402A093D502B093D6024F
:103B7000BF91AF919F918F911F901FBE1F9018957D
:103B800082E084BD93E095BD9AEF97BD80936E006F
:103B900008952FB7F8948091D3029091D402A09108
:103BA000D502B091D6022FBF08959C014FB7F8946B
:103BB0008091D3029091D402A091D502B091D60207
:103BC0004FBF821B930B089578941F921FB61F92CC
:103BD00011248F939F93AF93BF938091D3029091C1
:103BE000D402A091D502B091D6020196A11DB11DBB
:103BF0008093D3029093D402A093D502B093D602BF
:103C0000BF91AF919F918F911F901FBE1F901895EC
:103C100087E797E7909301088093000888E19AE08E
:103C20000FB6F894A895809360000FBE9093600043
:103C3000FFCFAF92BF92CF92DF92EF92FF920F939E
:103C40001F93CF93C0E0CC24C394D12CE82EF12C49
:103C50008C2F0E94DF055C0110E000E0C601002E01
:103C600002C0880F991F0A94E2F78A219B21892BB1
:103C700099F40F5F1F4F0D30110581F7CF5FC330EF
:103C800039F780E0CF911F910F91FF90EF90DF9077
:103C9000CF90BF90AF900895602F7C2F80E00E945E
:103CA000D003E816F90629F781E0ECCFCF93C82FAF
:103CB0008CE20E94191E882321F08C2FCF910C9446
:103CC000191E80E0CF910895CF930E94DA1B8111D5
:103CD00002C00E94811CC5E608C00E9446068FE310
:103CE0009CE90197F1F700C00000C150B1F789E2EB
:103CF0000E94561E81110BC18AE20E94561E81113C
:103D00000E94811C85E00E94561E81110E94081E9F
:103D10000E94E51B8093820287E00E94561E882342
:103D200071F08BE10E94561E882309F4CDC090915A
:103D30008202892F8D7F91FF826080938202809121
:103D400082020E94E91B0E94F71B9093D802809385
:103D5000D70280EE0E94561E882341F09091D70230
:103D6000892F8E7F90FF81608093D70289E30E9424
:103D7000561E882341F09091D702892F8D7F91FFA5
:103D800082608093D70282EE0E94561E882341F003
:103D90009091D702892F8B7F92FF84608093D70206
:103DA00086EE0E94561E882341F09091D702892FFB
:103DB000877F93FF88608093D70283EE0E94561E10
:103DC000882341F09091D702892F8F7E94FF8061E4
:103DD0008093D70285E30E94561E882341F090917C
:103DE000D702892F8F7D95FF80628093D70281E370
:103DF0000E94561E882341F09091D702892F8F7B15
:103E000096FF80648093D70281E10E94561E88232A
:103E100041F09091D702892F97FB87F980588093C2
:103E2000D7028091D7029091D8020E94051C87E2A8
:103E30000E94561EC82F8EE10E94561E8111C2603C
:103E40008FE10E94561E8111C46080E20E94561EBE
:103E50008111C86081E20E94561E8111C06182E218
:103E60000E94561E8111C06283E20E94561E81117B
:103E7000C06484E20E94561E882309F442C0C068D0
:103E80008C2F0E94F21B6C2F70E090E080E00E946B
:103E90004419609155027091560280915702909199
:103EA00058020E947E198FE00E94561E882319F046
:103EB00081E00E94831C85E10E94561E882339F10F
:103EC00080E0CF910C94831C8EE00E94561E8823C4
:103ED00039F090918202892F8B7F92FF84602DCFE1
:103EE00080E10E94561E90918202882329F0892F3A
:103EF000877F93FF886021CF892F8E7F90FF81601D
:103F00001CCFC111BDCF0E94EE1B682FBDCFCF913A
:103F1000089580918A0280FF12C060911E0185E0A1
:103F2000689FB00111247595679575956795603800
:103F30007105A8F561157105A1F1862F089581FF1E
:103F400009C060911E0185E0689FB001112475953C
:103F50006795EDCF60911E0182FD0AC080918902B4
:103F60008823D1F090911D0160911E01891728F0DE
:103F700085E0689FB0011124DACF869FB00111243B
:103F800085E0869F9001879F300D1124692F70E096
:103F9000C9010E941529CBCF65E070E0CECF8FE735
:103FA000089581E0089580918A0280FF0CC060919D
:103FB0001A0170E07595679575956795611571059E
:103FC00049F1862F089581FF06C060911A0170E0C3
:103FD00075956795F3CF60911A0182FD0BC09091A2
:103FE00088029923A1F06091190180911A01961716
:103FF00038F0682F70E06038710500F38FE708959E
:10400000899FC001112470E00E941529F4CF61E05E
:1040100070E0D7CF81E00895803F31F40E94891F7E
:10402000819580938E020895813F19F40E94891F23
:10403000F8CF823F31F40E94891F819580938D02D1
:104040000895833F19F40E94891FF8CF893F29F40E
:104050000E94D31F80938F0208958A3F21F40E940B
:10406000D31F8195F7CF8B3F31F40E94D31F8195E9
:104070008093900208958C3F19F40E94D31FF8CFCB
:10408000843F31F480918C02816080938C0208958A
:10409000853F21F480918C028260F7CF863F21F426
:1040A00080918C028460F1CF873F21F480918C0253
:1040B0008860EBCF883F21F480918C028061E5CF4E
:1040C0008D3F31F480918A02816080938A02089545
:1040D0008E3F21F480918A028260F7CF8F3FB9F73B
:1040E00080918A028460F1CF90918D02803F59F4D3
:1040F00080918E0287FF0DC010928E0291110BC02D
:104100001092890208C0813F81F480918E021816B6
:104110009CF3992381F080918F0290919002892BDA
:1041200009F064C0109288020895823F49F497FF15
:10413000F0CF10928D0280918E028111ECCFE0CFF2
:10414000833F19F41916ACF3E4CF20918F02893F15
:1041500029F41216F4F610928F02DBCF8A3F19F47D
:1041600027FFD7CFF8CF209190028B3F29F427FF6C
:10417000D0CF10929002CDCF8C3F19F41216CCF311
:10418000C8CF843F31F480918C028E7F80938C0263
:10419000C0CF853F21F480918C028D7FF7CF863F81
:1041A00021F480918C028B7FF1CF873F21F48091A5
:1041B0008C02877FEBCF883F21F480918C028F7E29
:1041C000E5CF8D3F31F480918A028E7F80938A0201
:1041D000A0CF8E3F21F480918A028D7FF7CF8F3F51
:1041E00009F097CF80918A028B7FF0CF08950E94CB
:1041F000C91D9C0190918D0280918E02982B21F017
:10420000309387022093860290918F0280919002D2
:10421000982B21F030938502209384028BE892E062
:104220000C94F310EF92FF920F931F93CF93DF93B1
:1042300000D000D000D0CDB7DEB786E0EBE8F2E0EA
:10424000DE01119601900D928A95E1F7E0908D02C2
:10425000F0908E0200918F021091900210928D02C8
:1042600010928E0210928F02109290028E2D8F2942
:1042700091F080918602909187020E94D51DAC0139
:1042800090918902992309F43FC080911F018417FE
:10429000150608F447C0802F812B91F0809184028D
:1042A000909185020E94D51DAC01909188029923BE
:1042B00009F477C080911B018417150608F47FC0AC
:1042C00080918D0290918E02892B90918F02892B83
:1042D00090919002892B11F00E94F72086E0FE0158
:1042E0003196ABE8B2E001900D928A95E1F72696FF
:1042F0000FB6F894DEBF0FBECDBFDF91CF911F91F7
:104300000F91FF90EF900895209120018AE0289F5F
:10431000900111242417350708F0BDCF9F5F9093BB
:10432000890202C09F3FD1F7EE2059F00E94891FF9
:104330009FEF1E140CF491E0899F802D112480932F
:104340008D02FF2059F00E94891F9FEF1F140CF46B
:1043500091E0899F802D112480938E0230918D02EF
:10436000332309F498CF20918E02222309F493CFAE
:1043700045EB3403C0011124992359F090938D0229
:1043800045EB240390011124332339F030938E023E
:1043900082CF81E080938D02F3CF81E080938E0203
:1043A0007ACF20911C018AE0289F900111242417C4
:1043B000350708F085CF9F5F9093880202C09F3F2A
:1043C000D1F7002359F00E94D31F9FEF10160CF471
:1043D00091E0899F802D112480938F02112359F041
:1043E0000E94D31F9FEF11160CF491E0899F802D3E
:1043F00011248093900230918F02332309F460CF0F
:1044000020919002222309F45BCF45EB3403C001D5
:104410001124992359F090938F0245EB24039001C6
:104420001124332339F0309390024ACF81E08093F6
:104430008F02F3CF81E08093900242CF86E0EBE8D9
:10444000F2E0DF011D928A95E9F71092890210923D
:10445000880210928A0208958091B1020895CF9344
:10446000DF9300D00F92CDB7DEB79091DD0294308C
:1044700019F589837B836A8382E08093E9008FEF5B
:104480009091E800815095FD06C095ED9A95F1F761
:1044900000008111F5CF8091E80085FF0DC050E04C
:1044A00040E063E070E0CE0101960E9456248091C6
:1044B000E8008E778093E8000F900F900F90DF91C7
:1044C000CF910895BC0184E00C942F22BC0183E0BD
:1044D0000C942F229C0182E08093E9009FEF809151
:1044E000E800915085FD06C085ED8A95F1F7000042
:1044F0009111F5CF8091E80085FF0CC050E040E0BD
:1045000066E070E0C9010E9456248091E8008E7731
:104510008093E8000895CF93DF93EC0180912B0105
:104520008823B1F18091D70287FF32C060E282E038
:104530008093E9008FEF9091E800815095FD06C0CF
:1045400095ED9A95F1F700008111F5CF8091E80083
:1045500085FF1BC080912B0170E050E040E081118D
:1045600004C050E040E068E070E0CE010E945624B4
:104570008091E8008E778093E80080E2FE01A1E957
:10458000B2E001900D928A95E1F7DF91CF91089505
:1045900068E081E0CDCF8091DC02811109C00E94EA
:1045A000E6250E9443268091E20084608093E20029
:1045B00008951092DC020895089508950C94911DB9
:1045C00042E061EC81E00E94622542E261EC82E01F
:1045D0000C9462258091DF02833009F45FC030F4CF
:1045E0008130C1F1823009F49BC008958A3009F40A
:1045F00087C08B3009F46DC0893009F04EC08091BE
:10460000DE02813209F049C08091E2029091E3021A
:10461000029708F042C08091E800877F8093E8000D
:104620008091E80082FF35C09091F3008091F20004
:10463000029729F48091F1008B7F813021F48091E1
:10464000F1008093B1028091E8008B778093E800BD
:104650000C9496258091DE02813AF9F48091E8006D
:10466000877F8093E8008091E2029091E302892B9A
:1046700061F460E281E992E070E00E94A5248091FB
:10468000E8008B778093E800089560E090E080E098
:10469000F3CF8091DD028111C3CF08958091DE02B6
:1046A000813AD9F78091E2029091E302892BA9F730
:1046B0008091E800877F8093E8008091E80080FF88
:1046C000FCCF80912B018093F1008091E8008E77E0
:1046D000BDCF8091DE02813201F78091E20290919C
:1046E000E302892BD1F68091E800877F8093E80070
:1046F0000E9496258091E00280932B010C94A915CD
:104700008091DE02813249F68091E800877F8093B4
:10471000E8000E9496258091E1028093B2020895FC
:104720008091DE02813A09F0B8CF8091E800877F5E
:104730008093E8008091E80080FFFCCF8091B20276
:10474000C2CF84B7877F84BF0FB6F894A8958091B5
:104750006000886180936000109260000FBE80E866
:1047600090E00FB6F89480936100909361000FBEC3
:104770000E943B110E94E6250E9443268091E200A0
:1047800084608093E20078940E94CC280E944511B6
:1047900081E291E00E94C8108091DD02853019F01D
:1047A0000E944F11F9CF0E94481D8091DB0288239F
:1047B00099F30E94791D882379F30E944024ECCF5D
:1047C0000C94E223292F33272330310519F168F4A3
:1047D0002130310509F44AC02230310509F44BC0BB
:1047E00090E080E030E020E028C02132310579F10E
:1047F00022323105A9F780E490E02DE335E0611520
:104800007105D9F08CEB90E021E834E0613071055E
:10481000A1F0E6CF99278130910599F0009741F0FA
:104820008230910589F00397D9F6EEEFF3E002C0EC
:10483000E0E3F4E0849190E09F01FA01318320836A
:104840000895E4E1F4E0F6CFE4E0F4E0F3CF89E0AA
:1048500090E026E434E06115710579F389E090E099
:104860002FE534E06130710541F3BACF82E190E089
:104870002FE634E0E2CF8BE390E024E334E0DDCFB9
:1048800080E189BD82E189BD09B400FEFDCF809140
:10489000D8008F7D8093D8008091E0008260809363
:1048A000E0008091E00081FDFCCF0895AF92BF92BF
:1048B000CF92DF92FF920F931F93CF93DF936C0100
:1048C000EB018A010E94B525F82E811123C0011544
:1048D000110539F0F80180819181C81BD90BC80EF0
:1048E000D91EB12CA12C2097A9F08091E80085FD5C
:1048F00022C08091E8008E778093E80001151105B1
:10490000A1F0F80180819181A80EB91EB182A08228
:1049100085E0F82E8F2DDF91CF911F910F91FF90A1
:10492000DF90CF90BF90AF9008950E94B525882367
:10493000D1F2F82EEFCFF60181916F018093F10053
:104940002197FFEFAF1ABF0ACECFFC018091E4029E
:104950009091E50286179707A0F06115710529F47B
:104960009091E8009E779093E80090E061157105C2
:1049700051F4911108C08091E80082FF34C080E0BA
:104980000895BC01F2CF8091DD028823C1F185300A
:10499000C1F18091E80083FD30C08091E80082FD84
:1049A000EACF8091E80080FFE1CF8091F300209171
:1049B000F200382F6115710519F02830310558F0D3
:1049C00091E02830310509F090E02091E8002E7741
:1049D0002093E800CBCF81918093F1006150710961
:1049E0002F5F3F4FE7CF8091DD02882341F0853074
:1049F00041F08091E80083FFBECF81E0089582E01E
:104A0000089583E00895FC018091E4029091E5020D
:104A100086179707A0F06115710529F48091E800C9
:104A20008E778093E80090E06115710551F4911143
:104A300008C08091E80082FF35C080E00895BC0185
:104A4000F2CF8091DD028823C9F18530C9F18091D0
:104A5000E80083FD31C08091E80082FDEACF8091BB
:104A6000E80080FFE1CF8091F3002091F200382F21
:104A70006115710519F02830310558F091E02830A2
:104A8000310509F090E08091E8008E778093E8008E
:104A9000CBCF84918093F1003196615071092F5FE3
:104AA0003F4FE6CF8091DD02882341F0853041F011
:104AB0008091E80083FFBDCF81E0089582E00895F2
:104AC00083E00895982F973028F08F708093E90045
:104AD00081E008959093E900242F762F50E09817F5
:104AE00031F07091EC002091ED005091F00021FD2B
:104AF00002C09F5FE8CF3091EB003E7F3093EB0028
:104B00003091ED003D7F3093ED003091EB0031604E
:104B10003093EB007093EC002093ED005093F00085
:104B20002091EE0027FDE5CF80E008958091DE0220
:104B300087FF13C08091E80082FF06C08091E800E3
:104B40008B778093E80004C08091DD028111F2CF61
:104B500008958091DD028823D9F38091E80080FFD9
:104B6000F8CF8091E8008E77ECCF2091E40030916F
:104B7000E50095E6A9012091EC00822F817020FFCD
:104B800006C08091E80080FF06C080E00895209173
:104B9000E80022FD1AC08091DD02882389F085306B
:104BA00089F08091EB0085FD0FC02091E4003091E9
:104BB000E50042175307F9F29150E1F684E00895B9
:104BC00082E0089583E0089581E008950E945426CC
:104BD0000E945C26E0EEF0E0808181608083E8ED59
:104BE000F0E080818F77808319BCA7EDB0E08C91D5
:104BF0008E7F8C9380818F7E80831092DC0208955B
:104C00000F931F93CF93DF930E9454260E945C263C
:104C1000C8EDD0E088818F77888388818068888319
:104C200088818F7D888319BC1092DD021092D90291
:104C30001092DB021092DA0200EE10E0F80180819F
:104C40008B7F808388818160888342E060E080E0A0
:104C50000E946225E1EEF0E080818E7F8083E2EEAB
:104C6000F0E0808181608083808188608083F801AA
:104C700080818E7F8083888180618883DF91CF915E
:104C80001F910F910895E8EDF0E080818F7E808381
:104C9000E7EDF0E080818160808384E082BF81E085
:104CA0008093DC020C940026E8EDF0E080818E7F9A
:104CB00080831092E20008951092DA001092E100D1
:104CC00008951F920F920FB60F9211242F933F93C6
:104CD0004F935F936F937F938F939F93AF93BF9304
:104CE000EF93FF938091E10082FF0BC08091E2007F
:104CF00082FF07C08091E1008B7F8093E1000E94DA
:104D0000CB288091DA0080FF19C08091D80080FF05
:104D100015C08091DA008E7F8093DA008091D900EF
:104D200080FF96C080E189BD82E189BD09B400FEA3
:104D3000FDCF81E08093DD020E94CB228091E100D3
:104D400080FF19C08091E20080FF15C08091E200D1
:104D50008E7F8093E2008091E20080618093E20088
:104D60008091D80080628093D80019BC85E0809340
:104D7000DD020E94DD228091E10084FF2BC0809142
:104D8000E20084FF27C080E189BD82E189BD89B549
:104D9000982F917080FFFBCF8091D8008F7D8093FA
:104DA000D8008091E1008F7E8093E1008091E20045
:104DB0008F7E8093E2008091E20081608093E20028
:104DC0008091D902882309F449C084E08093DD02F0
:104DD0000E94DE228091E10083FF29C08091E200E1
:104DE00083FF25C08091E100877F8093E10082E00E
:104DF0008093DD021092D9028091E1008E7F809332
:104E0000E1008091E2008E7F8093E2008091E200D9
:104E100080618093E20042E060E080E00E946225D1
:104E20008091F00088608093F0000E94DC22FF9166
:104E3000EF91BF91AF919F918F917F916F915F9112
:104E40004F913F912F910F900FBE0F901F9018958B
:104E500019BC1092DD020E94D92270CF8091E3002C
:104E600087FD93E09093DD02B3CF1F920F920FB6B0
:104E70000F9211242F933F934F935F936F937F93E0
:104E80008F939F93AF93BF93CF93DF93EF93FF9352
:104E9000D091E900DF708091EC00C82FC17080FDD7
:104EA000C0E81092E9008091F000877F8093F000C5
:104EB00078940E9479271092E9008091F000886030
:104EC0008093F000CD2BCF70C093E900FF91EF915C
:104ED000DF91CF91BF91AF919F918F917F916F9112
:104EE0005F914F913F912F910F900FBE0F901F90A8
:104EF00018951F93CF93DF93CDB7DEB7AA970FB660
:104F0000F894DEBF0FBECDBF8EED92E02091F10090
:104F1000FC012193CF01F2E0863E9F07B9F70E9482
:104F2000EA228091E80083FF1EC18091DE02909109
:104F3000DF029A3008F017C1E92FF0E0EA57F54D8B
:104F40000C944B29803899F0823809F00CC180917B
:104F5000E2028F70873008F006C18093E9008091EB
:104F6000EB0085FB882780F91092E90006C080914C
:104F7000DA029091DB02911182609091E800977FB4
:104F80009093E8008093F1001092F1008091E80086
:104F90008E77E5C0882309F4D3C0823009F0E3C0DE
:104FA0008091E0028111D6C08091E2028F702FEFD4
:104FB000280F263008F0D7C08093E9002091EB003D
:104FC00020FFC8C0933031F48091EB008062809361
:104FD000EB00C0C09091EB0090619093EB0021E05A
:104FE00030E001C0220F8A95EAF72093EA00109280
:104FF000EA008091EB008860EACF8111B4C0109183
:10500000E0021F778091E3008078812B8093E3009A
:105010008091E800877F8093E8000E949625809128
:10502000E80080FFFCCF8091E30080688093E3007C
:1050300082E0111183E08093DD0295C080588230B8
:1050400008F091C08091E0029091E1028C3D23E054
:105050009207A1F583E08A838AE289834FB7F894A7
:10506000DE01139620E03EE051E2E32FF0E05093A2
:105070005700E49120FF03C0E295EF703F5FEF70AF
:105080008E2F90E0EA30C0F0C7968D939D932F5FEE
:10509000243159F74FBF8091E800877F8093E80063
:1050A0006AE270E0CE0101960E94A5248091E8009A
:1050B0008B778093E80057C0C096E7CF6091E202FB
:1050C0007091E302AE014F5F5F4F0E94E023BC018D
:1050D000892B09F448C09091E800977F9093E800ED
:1050E00089819A810E940325E1CF8038E1F5809182
:1050F000E800877F8093E8008091D9028093F100D7
:1051000045CF811130C09091E002923060F58091DE
:10511000E800877F8093E8009093D9020E9496254B
:105120008091D902882311F084E005C08091E300CA
:1051300087FDFACF81E08093DD020E94E02213C058
:105140008091E002813079F481E0933009F080E0D1
:105150008093DB021092E9008091E800877F8093C2
:10516000E8000E9496258091E80083FF0AC08091A4
:10517000E800877F8093E8008091EB008062809355
:10518000EB00AA960FB6F894DEBF0FBECDBFDF913D
:10519000CF911F9108950895CF938091DD028823C8
:1051A000A1F0C091E900CF709091EC00892F81703F
:1051B00090FD80E8C82B1092E9008091E80083FD03
:1051C0000E947927CF70C093E900CF910895991B71
:1051D00079E004C0991F961708F0961B881F7A95EE
:1051E000C9F78095089587FB082E062687FD8195CF
:1051F00067FD61950E94E7280EF4919507FC819563
:105200000895AA1BBB1B51E107C0AA1FBB1FA6170D
:10521000B70710F0A61BB70B881F991F5A95A9F75F
:1052200080959095BC01CD01089597FB072E16F44B
:10523000009407D077FD09D00E94012907FC05D012
:105240003EF4909581959F4F0895709561957F4F9D
:105250000895A1E21A2EAA1BBB1BFD010DC0AA1FB7
:10526000BB1FEE1FFF1FA217B307E407F50720F0CF
:10527000A21BB30BE40BF50B661F771F881F991F4A
:105280001A9469F760957095809590959B01AC0193
:10529000BD01CF010895EE0FFF1F0590F491E02DA1
:1052A00009940E945929332312F48A1B9B0B0C94F6
:1052B0006A29A29FB001B39FC001A39F700D811DF9
:1052C0001124911DB29F700D811D1124911D08950F
:1052D0000E945929B7FF0895821B930B08950E94DD
:1052E0005929A59F900DB49F900DA49F800D911DED
:1052F00011240895B7FF0C946F290E946F29821B17
:10530000930B08958F929F92AF92BF92CF92DF92AC
:10531000EF92FF92CF93DF93EC01688179818A81CC
:105320009B81611571058105910521F464E279ED98
:105330008BE597E02DE133EF41E050E00E94332A06
:1053400049015A019B01AC01A7EAB1E40E946F290F
:105350006B017C01ACEEB4EFA50194010E947D29A4
:10536000DC01CB018C0D9D1DAE1DBF1DB7FF03C021
:105370000197A109B04888839983AA83BB839F774B
:10538000DF91CF91FF90EF90DF90CF90BF90AF90E3
:105390009F908F9008950E948229089580E091E067
:1053A0000E9482290895B0E0A0E0809300019093CC
:1053B0000101A0930201B09303010895FC01415043
:1053C000504030F001900616D1F73197CF01089583
:1053D000882799270895F999FECF92BD81BDF89A43
:1053E000992780B50895A6E1B0E044E050E00C9420
:1053F000252AA8E1B0E042E050E00C94252A262FAF
:10540000F999FECF92BD81BDF89A019700B40216BA
:1054100039F01FBA20BD0FB6F894FA9AF99A0FBE68
:1054200008950396272F0E94002A0E94FF29252F06
:105430000E94002A242F0C94002A0196272F0E94F4
:10544000002A0C94FF29DC01CB01FC01F999FECF65
:1054500006C0F2BDE1BDF89A319600B40D924150FC
:105460005040B8F70895052E97FB1EF400940E9453
:105470004A2A57FD07D00E94292907FC03D04EF481
:105480000C944A2A50954095309521953F4F4F4FA7
:105490005F4F089590958095709561957F4F8F4FE0
:1054A0009F4F0895F894FFCF180E200E270E2C0E54
:1054B000310E360E3B0E400E450E4A0E4F0E540E68
:1054C000580E5D0E600E630E660E690E6B0E6E0E4C
:1054D00072137213CA13CA131C1438149F139F1328
:1054E0004314CF14DE14DE143A159F139F13431593
:1054F000B815B815C115C115C315C115C115C1150C
:10550000B815B815C815C115C115C815A227CA27E1
:10551000B328CA27B328FD271E28B3287528812859
:1055200001000000010102000500050501191A1B18
:105530001C1D1E1F2021225F022808641E140A322F
:105540001E2C228B226A226622622201E200E900DE
:10555000EA00B500B600B700CD008301CC008A0197
:10556000920194012102230224022502260227022D
:105570002A02B300B4006F00700081828397C66670
:1055800036323331F7F6F5919092943435000102BA
:105590000202020606060909090909090F0F0F0F81
:1055A0000F0F15151518191919191919191919198C
:1055B0002324252525252525E200E900EA00B5005C
:1055C000B600B700CD008301CC008A01920194019E
:1055D0002102230224022502260227022A02B30006
:0A55E000B4006F00700081828300A8
:00000001FF
