:100000000C94AB080C94F2080C94F2080C94653034
:100010000C94F2080C94F2080C94F2080C94F20878
:100020000C94F2080C94F2080C94941B0C94501B42
:100030000C94882F0C94F2080C94F2080C94F2089B
:100040000C94F2080C94F2080C94F2080C94F20848
:100050000C94F2080C944B170C94F2080C94F208D0
:100060000C94F2080C94F2080C94F2080C94F20828
:100070000C94F2080C94F2080C94F2080C94F20818
:100080000C94F2080C94F2080C94F2080C94F20808
:100090000C94F2080C94F2080C94F2080C94F208F8
:1000A0000C94F2080C94F2080C94F2082900140045
:1000B0001A000800150017002B6404001600070042
:1000C00009000A0002551D611B0006001900050009
:1000D00000000000000035002C002A4D2D00130008
:1000E00012000C0018001C00347433000F000E00C6
:1000F0000D000B001255387137003600100011004A
:10010000000000000000185528004C4E2900140083
:100110001A00090013000A002B64040015001600E1
:100120001700070002551D611B000600190005009D
:1001300000000000000035002C002A4D2D00330087
:100140001C0018000F000D00347412000C00080091
:1001500011000B00125538713700360010000E00E8
:10016000000000000000185528004C4E2900340003
:100170003600370013001C002B6404001200080036
:1001800018000C000255336114000D000E001B0016
:1001900000000000000035002C002A4D2D000F004B
:1001A000150006000A00090034741600110017003B
:1001B0000B00070012551D7119001A0010000500F0
:1001C000000000000000185528004C4E29001400C3
:1001D000070015001A0005002B64040016000B0030
:1001E00017000A0002551D611B00100006001900CF
:1001F00000000000000035002C002A4D2D003300C7
:100200001300180009000D0034740C0012000800DF
:1002100011001C0012553871370036000F000E0017
:10022000000000000000185528004C4E2900140062
:100230001A00070009000E002B64040016000800D5
:1002400017000A0002551D611B0006001900050079
:1002500000000000000035002C002A4D2D000E008B
:10026000090007001A0014003474180012000C0072
:1002700011001C00125538713700360010001300B1
:10028000000000000000185528004C4E2900140002
:1002900013001C00060005002B64040011000C0074
:1002A000160009000255336138000D000A003600BF
:1002B00000000000000035002C002A4D2D000F002A
:1002C0001D001800100019003474150012000700FA
:1002D0001700070012551B712D000E001A00370081
:1002E000000000000000185528004C4E290038007E
:1002F00036003700090014002B64040012000800C7
:100300000C00180002551D611B00060019001A00A0
:1003100000000000000035002C002A4D2D001300C5
:100320001C000700150010003474110016000E00A8
:1003300017000A00125533710F000D000B00050065
:10034000000000000000185528004C4E2900140041
:10035000090010000F001A002B6407001600170098
:100360001100150002551D6119000A0006001B004E
:1003700000000000000035002C002A4D2D000D006B
:100380000500120018001C00347433000B00080034
:1003900004000C0012553871370036000E001300AF
:1003A000000000000000185528004C4E010001001C
:1003B0000100010001000100010001000100010035
:1003C00001000100E1000100010001000100010045
:1003D0000000000000000100010001000100010018
:1003E0000100010001000100010001000100010005
:1003F00001000100E5000100010001000100010011
:1004000000000000000001000100010000000000E9
:1004100000000000000000000000000000000000DC
:1004200000000000000000000000000000000000CC
:1004300000000000000000000000000000000000BC
:1004400000000000000000000000000000000000AC
:10045000000000000000000000000000000000009C
:10046000000000000000000000000000000000008C
:10047000000000000000000000000000000000007C
:10048000000000000000000000000000000000006C
:10049000000000000000000000000000000000005C
:1004A000000000000000000000000000000000004C
:1004B000000000000000000000000000000000003C
:1004C000000000000000000000000000000000002C
:1004D000000000000000000000000000000000001C
:1004E000000000000000000000000000000000000C
:1004F00000000000000000000000000000000000FC
:1005000000000000000000000000000000000000EB
:1005100000000000000000000000000000000000DB
:1005200000000000000000000000000000000000CB
:1005300000000000000000000000000000000000BB
:1005400000000000000000000000000000000000AB
:10055000000000000000000000000000000000009B
:10056000000000000000000000000000000000008B
:10057000000000000000000000000000000000007B
:1005800000000000000000000000000044001E0207
:100590001F0220022102220245003A003B003C00DB
:1005A0003D003E0001003F0040004100420043008A
:1005B00000000000000001000100010044002702CB
:1005C0002602250224022302310230022F022E02CB
:1005D0002D02010001004F005200510050000100A7
:1005E00000000000000001000100010001001E00E9
:1005F0001F00200021002200010001000100010075
:1006000001000100010001000100010001000100E2
:1006100000000000000001000100010001002700AF
:100620002600250024002300310030002F002E007A
:100630002D00010001004D004B004E004A0001005A
:100640000000000000000100010001002E5DC35CFD
:10065000C55CC75CC95CC25C285D285C205C1D5C15
:100660001E5CFF5C145CC45CC65CC85CCA5C2F5D2D
:10067000000000000000E85C375D0100005C355DB3
:10068000345D335D325D315DDE5C2C5D2B5D2A5D5A
:10069000295DFE5C305DAB00A900AA00A800145CD7
:1006A000000000000000EA5C0853010000010101A5
:1006B000010101010101020202020202020202031F
:1006C00003030303030303040404040404040505EF
:1006D00005050506060606060707070707080808B2
:1006E00008090909090A0A0A0B0B0B0C0C0C0D0D61
:1006F0000D0E0E0E0F0F0F101011111112121313F9
:100700001414151516161717181819191A1A1B1B71
:100710001C1D1D1E1E1F20202122222324242526CD
:1007200026272829292A2B2C2D2D2E2F3031323205
:10073000333435363738393A3B3C3D3E3F40414211
:10074000434445464748494A4C4D4E4F50515354F7
:10075000555658595A5B5D5E5F61626465666869AB
:100760006B6C6D6F7072737577787A7B7D7E80822B
:10077000838587888A8C8E8F91939596989A9C9E74
:10078000A0A2A3A5A7A9ABADAFB1B3B5B7BABCBE84
:10079000C0C2C4C6C9CBCDCFD1D4D6D8DBDDDFE251
:1007A000E4E7E9EBEEF0F3F5F8FAFDFF00000000F6
:1007B00000003E5B4F5B3E003E6B4F6B3E001C3EBD
:1007C0007C3E1C00183C7E3C18001C577D571C00CA
:1007D0001C5E7F5E1C0000183C180000FFE7C3E7AA
:1007E000FF00001824180000FFE7DBE7FF00304897
:1007F0003A060E00262979292600407F05050700C4
:10080000407F05253F005A3CE73C5A007F3E1C1CB8
:100810000800081C1C3E7F0014227F2214005F5F2A
:10082000005F5F0006097F017F00006689956A000E
:1008300060606060600094A2FFA2940008047E04DF
:10084000080010207E20100008082A1C0800081C40
:100850002A0808001E10101010000C1E0C1E0C00A0
:1008600030383E383000060E3E0E06000000000014
:10087000000000005F000000000700070000147F78
:10088000147F1400242A7F2A1200231308646200B4
:10089000364956205000000807030000001C224182
:1008A00000000041221C00002A1C7F1C2A000808AE
:1008B0003E080800008070300000080808080800A2
:1008C0000000606000002010080402003E5149450D
:1008D0003E0000427F4000007249494946002141E4
:1008E000494D33001814127F100027454545390043
:1008F0003C4A49493100412111090700364949491B
:100900003600464949291E0000001400000000403E
:1009100034000000000814224100141414141400C0
:100920000041221408000201590906003E415D59A8
:100930004E007C1211127C007F49494936003E412D
:10094000414122007F4141413E007F4949494100E8
:100950007F09090901003E41415173007F080808E1
:100960007F0000417F4100002040413F01007F089F
:10097000142241007F40404040007F021C027F0063
:100980007F0408107F003E4141413E007F09090974
:1009900006003E4151215E007F0919294600264983
:1009A0004949320003017F0103003F4040403F00BE
:1009B0001F2040201F003F4038403F0063140814B0
:1009C00063000304780403006159494D4300007F2C
:1009D00041414100020408102000004141417F00D4
:1009E00004020102040040404040400000030708A8
:1009F00000002054547840007F2844443800384494
:100A000044442800384444287F0038545454180083
:100A100000087E0902001824241C78007F080404C2
:100A2000780000447D4000002040403D00007F10E1
:100A30002844000000417F4000007C0478047800D6
:100A40007C08040478003844444438007C1824248A
:100A50001800182424187C007C080404080048545A
:100A60005454240004043F4424003C4040207C00B3
:100A70001C2040201C003C4030403C0044281028F2
:100A800044004C9090907C004464544C4400000816
:100A900036410000000077000000004136080000E9
:100AA0000201020402003C2623263C000000000054
:100AB000000000000000000000000000C0E0F0F8AE
:100AC000F81800C0F0FCFEFFFFFFFFFFFFFF7E00F5
:100AD000000000000000000080C0E0E0E0E0E0E096
:100AE000E0E0C0800000000080C0E0E0E0E0E0E086
:100AF000E0E0C080000000E0E0C0C0E0E0E0E00036
:100B000000E0E0C0C0E0E0E0E0E0C0800000000005
:100B100080C0E0E0E0E0E0E0E0E0C0800000000055
:100B200000000000000000000000E0F0F0F0E0EC49
:100B3000EEF7F37020007C7C7C7E007E7E7E7F7FE3
:100B40007F000080C0E07E5B4F5BFEC00000C00005
:100B5000DCD7DEDEDED7DC00C000000000000000D5
:100B60000000000000000000000000000000000085
:100B70000000000000F8FCFEFFE000FFFFFFFFFFA9
:100B8000FF80FFFFFFFFFFFFFFFFFF1F07010000C8
:100B900000000000000000FFFFFF810000000000D7
:100BA0000081C3C3C30000FFFFFF810000000000FD
:100BB0000081FFFFFF0000FFFFFF010000000000B9
:100BC00000FFFFFF010000000001FFFFFF0000FF2A
:100BD000FFFF9D1C1C1C1C1C1C9DDFDFDF00000098
:100BE000000000000000000000000F1F3F7F7F7F1B
:100BF0007F7F3F1E0C001F1F1F3F003F3F3F7F7F37
:100C00007F00307B7F7830202030787F3B000300EE
:100C10000F7F0F0F0F7F0F00030000000000000088
:100C200000000000000000000000000000000000C4
:100C30000000000000030F1F3F3F3F3F1F1F3F3FCB
:100C40007F7F7F3F3F1F3F7F7F7F7F7C7878381C8F
:100C50000F00000000000000010307070707070757
:100C60000707030100000000010307070707070744
:100C7000070703010000000707070000000000004D
:100C8000000707070000000000000707070000003A
:100C90000103070707070707070703010000000014
:100CA0000000000000000000000000000000000044
:100CB0000000000000000000000000000000000034
:100CC0000000000000000000000000000000000024
:100CD0000000000000000000000000000000000014
:100CE00000000000000000000000000000AF00DA7B
:100CF00002818FD9F1DB40A4A62EAF00A0C000A1D5
:100D0000C800AED580A81FD300408D14200020203D
:100D100020206162636465666768696A6B6C6D6EEA
:100D20006F707172737475767778797A3132333483
:100D300035363738393014131B1A162D3D5B5D5C80
:100D4000233B27602C2E2F802020202020202020B5
:100D50002020202050532020202010202020202040
:100D60002020202020202020202020202020202083
:100D70002020202020202020202020202020202073
:100D80002020202020202020202020202020202063
:100D90002020202020202020202020202020202053
:100DA0002020202020202020202020202020202043
:100DB0002020202020202020202020202020202033
:100DC0002020202020202020202020202020202023
:100DD0002020202020202020202020202020202013
:100DE00020202020202020202020202020204353AD
:100DF00041432020202020202020202020202020AF
:100E00002020202020202020202020202063726B02
:100E100062642F726576312F6C65676163792F6428
:100E2000726173686E61204020302E31302E313671
:100E30002D31322D673665663033612D64697274E9
:100E4000792C204275696C74206F6E3A20323032F2
:100E5000302D31302D32322D31363A35343A30386A
:100E600000010128002D6B622063726B62642F7297
:100E70006576312F6C6567616379202D6B6D206419
:100E8000726173686E610020636F6D70696C6520BC
:100E90000020666C6173682000716D6B0000AE20ED
:100EA00043525058002045434C4E00204D4C544E68
:100EB00000204E4F524D0020574B4D4E00204456BF
:100EC000524B0020434F4C45002051525459004C86
:100ED000796F757400530043004E0020004C6F631F
:100EE0006B3A004E4B524F0020002000979800B7FD
:100EF000B800959600B5B600200042544D474B000F
:100F00004E756B650020004C617972002000416EC7
:100F1000696D002000555345523A004B4C6F677283
:100F200000808182838485868788898A8B8C8D8ED8
:100F30008F9091929394A0A1A2A3A4A5A6A7A8A9DB
:100F4000AAABACADAEAFB0B1B2B3B4C0C1C2C3C452
:100F5000C5C6C7C8C9CACBCCCDCECFD0D1D2D3D4C9
:100F60000005010980A101850319012AB7001501B7
:100F700026B700950175108100C0050C0901A1017B
:100F8000850419012AA002150126A00295017510F9
:100F90008100C005010906A1018505050719E029A1
:100FA000E71500250195087501810205071900293B
:100FB000EF1500250195F075018102050819012939
:100FC00005950575019102950175039101C0050113
:100FD0000906A101050719E029E715002501950873
:100FE000750181029501750881010507190029FF26
:100FF000150026FF009506750881000508190129CE
:1010000005950575019102950175039101C00902CD
:101010003B00020100A0FA090400000103010100E5
:101020000921110100012240000705810308000188
:10103000090401000103000000092111010001223F
:101040006D0007058203200001120110010000005D
:1010500008534601000100010203010403300000AF
:10106000003C03440072006100730068006E006180
:101070000020004800610063006B006500640020F0
:101080000043006F0072006E00650020004B006599
:1010900000790062006F00610072006400000010BF
:1010A0000366006F006F007300740061006E000043
:1010B000000403090400000000000000000000001C
:1010C0000000000000000000007E0F00D4FFFFFFC2
:1010D000C70000007800000000000000002A2B2854
:1010E0000000000000000000000000000000000000
:1010F00029000000002C1E3420212224342627251C
:101100002E362D3738271E1F202122232425263353
:1011100033362E37381F0405060708090A0B0C0D55
:101120000E0F101112131415161718191A1B1C1D67
:101130002F3130232D350405060708090A0B0C0D45
:101140000E0F101112131415161718191A1B1C1D47
:101150002F3130354C0011241FBECFEFDAE0DEBF57
:10116000CDBF04B603FE27C0809175079091760726
:10117000A0917707B09178078730904BA740B04B8C
:10118000D1F410927507109276071092770710929B
:10119000780714BE84B7877F84BF0FB6F894A895EC
:1011A00080916000886180936000109260000FBEA3
:1011B000E0E0F8E3099527E0A2E3B3E001C01D9267
:1011C000A537B207E1F713E0A0E0B1E0E4E8F6E606
:1011D00002C005900D92A233B107D9F70E94822C6C
:1011E0000C94F8320C940000E8EDF0E080818E7FE2
:1011F00080831092E2001092DA001092E100A0EEDB
:10120000B0E08C9181608C9380818F77808319BC52
:10121000A7EDB0E08C918E7F8C9380818F7E808350
:1012200010923D0708952091E4003091E50095E685
:10123000A9012091EC00822F817020FF06C08091CF
:10124000E80080FF06C080E008952091E80022FDBC
:101250001AC080916307882389F0853089F08091D6
:10126000EB0085FD0FC02091E4003091E5004217AE
:101270005307F9F29150E1F684E0089582E0089571
:1012800083E0089581E00895EF92FF920F931F93FA
:10129000CF937C018B010E941309C82F811117C0C5
:1012A0008091E80085FD0BC08091E8008E778093E7
:1012B000E8000E941309882399F3C82F08C0F7019A
:1012C00081917F018093F1000150110949F78C2F22
:1012D000CF911F910F91FF90EF9008958091650736
:1012E00087FF13C08091E80082FF06C08091E8006C
:1012F0008B778093E80004C0809163078111F2CF5F
:101300000895809163078823D9F38091E80080FFD6
:10131000F8CF8091E8008E77ECCF982F9093E9007A
:10132000242F762F50E0891731F07091EC00209136
:10133000ED005091F00021FD07C09F5F973071F7DD
:101340008093E90081E008953091EB003E7F309377
:10135000EB003091ED003D7F3093ED003091EB00DC
:1013600031603093EB007093EC002093ED005093CC
:10137000F0002091EE0027FDE0CF80E00895CF92AD
:10138000DF92EF92FF920F931F93CF93DF93C8EDFD
:10139000D0E088818F7E8883E7EDF0E080818160F6
:1013A000808384E082BF81E080933D0788818E7FC7
:1013B000888302EE10E0F80110821092DA0081EECC
:1013C000C82ED12CF601108288818F77888388817E
:1013D0008068888388818F7D888319BC1092630719
:1013E00010926407109262071092610790EEE92E46
:1013F000F12CF70180818B7F8083888181608883D5
:1014000042E060E080E00E948D09F60180818E7FDD
:101410008083F801808181608083808188608083FF
:10142000F70180818E7F8083888180618883DF914E
:10143000CF911F910F91FF90EF90DF90CF90089583
:10144000FC0180916B0790916C0786179707A0F0BD
:101450006115710529F49091E8009E779093E8005A
:1014600090E06115710551F4911108C08091E80078
:1014700082FF34C080E00895BC01F2CF8091630701
:101480008823C1F18530C1F18091E80083FD30C02F
:101490008091E80082FDEACF8091E80080FFE1CFF3
:1014A0008091F3002091F200382F6115710519F039
:1014B0002830310558F091E02830310509F090E0EE
:1014C0002091E8002E772093E800CBCF8191809384
:1014D000F100615071092F5F3F4FE7CF80916307A3
:1014E000882341F0853041F08091E80083FFBECF32
:1014F00081E0089582E0089583E008950895809141
:10150000400708959C014FB7F8948091F80490919A
:10151000F904A091FA04B091FB044FBF821B930B16
:10152000089520910C022223C9F02091030527FF82
:1015300015C0E62FE695E695E695EE31D8F4E80F6E
:10154000F92FF11D677021E030E001C0220F6A958C
:10155000EAF720958281282322830895FC013296A0
:1015600008962191621303C0DF0111971C92E817BE
:10157000F907B9F70895CF92DF92EF92FF926C01CD
:10158000EE24FF2420E0C114D104E104F10419F099
:10159000C701B60120E1C72ED82EE92EFF24C114C1
:1015A000D104E104F10419F0285FC701B6016B0111
:1015B0007C0154E0F694E794D794C7945A95D1F7F8
:1015C000C114D104E104F10419F02C5FC701B60184
:1015D0006B017C0142E0F694E794D794C7944A9556
:1015E000D1F7C114D104E104F10419F02E5FC70151
:1015F000B6019695879577956795672B682B692B2C
:1016000009F02F5F822FFF90EF90DF90CF90089529
:101610008091E904882331F01092E9041092E804E3
:101620001092E704089580959091E6049823909392
:10163000E60408951092E3041092E2041092E1048B
:1016400008958091E00481111092E0040895E92F3B
:10165000EE0FE90FEE0F8E0F982F977086958695F7
:10166000869525E0829FF0011124E254FB4F50E063
:1016700040E080E0219130E0092E02C036952795A8
:101680000A94E2F721703327042E01C0220F0A9436
:10169000EAF7822B4F5F5F4F4530510559F70895A8
:1016A000E92FEE0FE90FEE0F8E0F982F977041E0A4
:1016B00001C0440F9A95EAF786958695869595E040
:1016C000899FF0011124E254FB4F30E020E070E0EC
:1016D0005191DF011197CB01022E02C0969587959B
:1016E0000A94E2F7817081958527842385278C935E
:1016F0002F5F3F4F2530310559F708952091BD04E4
:1017000090918C0456E0291302C080E0089530E0E7
:10171000529FF001539FF00D1124E357FB4F71814D
:10172000761306C07081781303C07281741304C0ED
:101730002F5F3F4F2770E7CF81E00895452B39F0A9
:10174000682381E06F3F09F080E08170089581E0B7
:10175000FCCF8091BD0490918C04981301C0089532
:101760008F5F8770FACF20911804309119042817E1
:10177000390771F09093190480931804E091EA04FA
:10178000F091EB04309721F00084F185E02D09946D
:10179000089520911604309117042817390771F025
:1017A0009093170480931604E091EA04F091EB04FF
:1017B000309721F00680F781E02D09940895E0919B
:1017C000EA04F091EB04309721F00190F081E02DD4
:1017D000099480E00895FA01811101C0FB01099488
:1017E000EAE6F3E0818360834283339694E0EC3051
:1017F000F907C1F70895FC01EE0FFF1FE80FF91F6D
:10180000E659FC4F61834083228308950C94F00BCA
:101810000C94FB0B0F9347FD4195E8E3F0E0E41BCC
:10182000F10947FDF395EE9FA001EF9F500D500D7C
:101830001124229FF001239FF00DF00D11249A0135
:101840002E0F3F1FE22F2230310520F1213E9EE175
:10185000390730F5A901E5E056954795EA95E1F796
:1018600098E0940FF1E0AF2FA90FBB27BB1FAD018C
:1018700055954795E42F449FD001459FB00DB00D7D
:1018800011242A173B0770F49FEF940F9F1758F706
:10189000EFEFEF0F6E2F660F6E0F600F0F91089531
:1018A0009FEFE0CF4F3FB1F3F1E0F40FEFCFAF92F6
:1018B000BF92CF92DF92FF920F931F93CF93DF934C
:1018C000362F472FE82FF0E0E455F94F71110FC084
:1018D000E4918E2F2E2F6E2F722FDF91CF911F91BB
:1018E0000F91FF90DF90CF90BF90AF900895C72FDA
:1018F000D0E02491F22E022F10E056E0659FC00147
:101900001124EFEFF0E0BF010E946732832F90E0D7
:10191000880F991F35E5369FD001379FB00D1124F0
:101920008A1B9B0B982F990F980F6F01CC1ADD0A19
:10193000C09ED001C19EB00DD09EB00D11248B2F42
:10194000499FA0011124452F55276F01C41AD50ABC
:10195000C09EA001C19E500DD09E500D11245F016C
:10196000A91AB108AC9E6001AD9ED00CBC9ED00CF3
:101970001124CD2CDD24EC19FD09E09FE001E19F4D
:10198000D00DF09FD00D1124ED2F62307105A1F024
:1019900050F46115710509F49ECF6130710581F035
:1019A000EB2F852F98CF6430710569F080F0663099
:1019B000710509F490CFF4CFE22F2B2F8D2F8BCF11
:1019C000E22F252F88CFEB2F822F2D2F84CF2B2F87
:1019D0008F2DE52F80CF9091030592FF06C0282F11
:1019E00028712830F9F4877F846093FF06C0282F80
:1019F00028712831F1F4877E84612091040520FF4D
:101A000006C0382F38713830D9F4877F816021FFC4
:101A100006C0282F28712831D1F4877E816194FD7A
:101A2000877E0895282F24712430F9F68B7F8860F3
:101A3000DCCF282F2471243101F78B7E8861DDCF24
:101A4000382F3171313019F78E7F8860E0CF282F21
:101A50002171213121F78E7E8861E1CFCF93DF9311
:101A6000972F70E026E0929F600D711D1124FB01FD
:101A700030E3839FE00DF11D1124EE0FFF1FE455AD
:101A8000FF4FC591D491CE01C238D105B9F1E8F527
:101A9000C133D10509F499C050F5C932D10509F413
:101AA0008DC0CA32D10509F497C0C11542E5D407EB
:101AB00008F0B6C0C11521E5D20708F024C1C83E20
:101AC000D10508F09DC0C13ED10568F5C83AD105E1
:101AD00008F089C0C53AD10508F0EDC0C130D10584
:101AE00011F1209709F443C02497E8F440C0C533AE
:101AF000D10509F45CC0C933D105B9F620910305BD
:101B0000237089F080EE90E00EC0C33ED10591F1C4
:101B100068F4C03ED105F9F0C23ED10531F62091FE
:101B2000030522FD20C0DF91CF910895C63ED10567
:101B300061F1C73ED10581F1C43ED10509F0B5CFB1
:101B40002091040521FFEFCF8091030584FD0FC094
:101B500087EE90E0E8CF2091030520FD01C1309190
:101B6000040530FFE0CF83EE90E024FFDCCF90E06F
:101B700080E0D9CF2091030522FDF5C03091040506
:101B800030FDC0CF24FFCFCFF2CF2091030523FF3C
:101B9000CACF24FDECCFDCCF2091030523FDE6C0A6
:101BA0003091040531FFEECF84EE90E0BCCF209160
:101BB000030525FFB8CF89E290E0B5CF209103055A
:101BC00025FFB1CF85E390E0AECF2091030526FF3E
:101BD000AACF8AE290E0A7CF2091030526FFA3CFEA
:101BE00081E390E0A0CFCF3BD10508F6C85AD0E002
:101BF000CC0FDD1FC550DD4F88819981946493CF50
:101C0000C11530E5D30708F062C0C11540E4D40720
:101C100008F059C0DA95C115DF4108F484CFA7CF89
:101C2000C11536E5D30718F5C11545E5D40708F009
:101C300080C0C11584E5D80708F076C09C2F969522
:101C40009695AE0143705527C115D34508F460C081
:101C500021E030E002C0220F331F4A95E2F740E254
:101C6000949FC0011124822B932B9A685CCFC115DD
:101C70003AE5D30778F4C11549E5D40708F063C005
:101C8000C11588E5D80708F472CF9C2F8827806F8C
:101C9000906A49CFCE0190568115904208F067CFE7
:101CA0008D2F8F710E94EB0C90E0982F882788274A
:101CB0009F718C2B46C0C55AD0E0C850DD4F88813B
:101CC00090E0906430CFCE019F70906A2CCF9E013F
:101CD000E4E036952795EA95E1F723708C2F8695F9
:101CE0008695837030E2839FC0011124922BC370CC
:101CF00021E030E002C0220F331FCA95E2F7822BA9
:101D0000932B9C6810CF9C2F8827816F906A0BCFF4
:101D100021E030E002C0220F331F4A95E2F740E293
:101D2000949FC0011124EBCF9C2F8827846F906A69
:101D3000FACE8C2F0E94EB0C90E0982F88278827F2
:101D40009F719062F0CE8C2F8F700E94EB0C34E06C
:101D5000D695C7953A95E1F7CF709C2F9069E3CE61
:101D600089E390E0E0CE82EE90E0DDCE86EE90E07A
:101D7000DACEBF92CF92DF92EF92FF920F931F9332
:101D8000CF93DF938C01C090DC04D090DD04E09011
:101D9000DE04F090DF048091FF0490910005A09193
:101DA0000105B0910205C82AD92AEA2AFB2ACFE107
:101DB000D0E0BC2ED701C6010C2E04C0B695A79565
:101DC000979587950A94D2F780FD0EC0219788F7E2
:101DD000B12C8B2DDF91CF911F910F91FF90EF9040
:101DE000DF90CF90BF900895B8018C2F0E942E0DE8
:101DF000019761F3EECFCF93DF93EC010E94B90E10
:101E0000BE01DF91CF910C942E0D0E94FB0E292F65
:101E10002F7092959F7092509E3078F4E92FF0E0E9
:101E2000E650FD4C0C947B32803F19F020F4883E44
:101E300020F481E00895843FE1F380E00895883E36
:101E4000C0F3813FD1F7F5CF822F86958695869591
:101E500008951F93CF93DF9300D000D00F92CDB79A
:101E6000DEB749835A8389819A81662331F122231F
:101E700021F10E94B90E182F682F89819A810E9442
:101E8000500B8A81E981F0E096E0899FE00DF11D19
:101E9000112480E3189FE00DF11D1124EE0FFF1FA8
:101EA000E455FF4F859194910F900F900F900F90F4
:101EB0000F90DF91CF911F9108950E94270B182F4B
:101EC000E0CFCF92DF92EF92FF920F931F93CF93C9
:101ED000DF93762F50917007451708F4542F213067
:101EE00009F057C0E0916503F091660306950695E9
:101EF000069530E020E0E09F212DF09F200D311D60
:101F00001124322F36FD2095422F4F7036FD4F5F42
:101F10002695269526952670E22FF0E0E651FD4F96
:101F20009181949F902D412D112492959F704295FF
:101F3000407F942B2081920F37FD919597FD9195CD
:101F4000990F292F259F212D1124682F822F0E9460
:101F5000570CF62ED72EC82E0EEB11E0D0E0C0E0C5
:101F6000F80181918F018E218E1106C02C2D4F2DED
:101F70006D2DCE010E94080C2196C633D10581F744
:101F8000DF91CF911F910F91FF90EF90DF90CF9055
:101F90000895682F852F0E94570CF62ED72EC82E35
:101FA0000EEB11E0D0E0C0E0F80181918F018E21AD
:101FB0008E1106C02C2D4F2D6D2DCE010E94080CC8
:101FC0002196C633D10581F7DBCFEF920F93CF93E4
:101FD000C82FE62E6091FF047091000580910105E5
:101FE000909102050E94BB0A883070F4E82FF0E05F
:101FF000E85FFC4C009171072C2F0C947B324FEF63
:102000006FEF80E80E94610FCF910F91EF900895DC
:102010004FEF6FEF85EDF6CF4FEF6FEF8AE6F2CF20
:102020004AED6AED8EE1EECF4FEF60EB8BE0EACF49
:102030004FEF6FEF8BE2E6CF4FEF60E88AEEE2CF33
:102040004FEF6FEF8AEADECFCF93DF93A2EEB2E0DD
:1020500046EE52E0C1E0D0E08D91E82FE295EF70BE
:10206000F0E061A18F709E0101C0220F8A95EAF70E
:10207000922F9095962391A382A1822B82A34A1737
:102080005B0751F7DF91CF910895CF92DF92EF92E6
:10209000FF920F931F93CF93DF936C017B0164E654
:1020A00070E088E70E947831EC0197FD12C010E0E3
:1020B00000E0F601E00FF11F849164E670E00E94F9
:1020C000D431EC01892B29F40F5F1F4F0E151F052A
:1020D00081F70E945732CE01DF91CF911F910F916E
:1020E000FF90EF90DF90CF9008958091FC048111D4
:1020F00008C062E070E08CEE9CE00E944510892BE5
:1021000019F08091FC04089581E08093FC04F9CFDC
:10211000CF93DF9300D00F92CDB7DEB790916307D6
:10212000943019F589837B836A8382E08093E90088
:102130008FEF9091E800815095FD06C095ED9A953E
:10214000F1F700008111F5CF8091E80085FF0DC007
:1021500050E040E063E070E0CE0101960E94440947
:102160008091E8008E778093E8000F900F900F9099
:10217000DF91CF910895BC0184E00C948810BC01DC
:1021800083E00C948810CF93DF93EC0180910C02D4
:102190008823B1F18091030587FF32C060E282E0BD
:1021A0008093E9008FEF9091E800815095FD06C083
:1021B00095ED9A95F1F700008111F5CF8091E80037
:1021C00085FF1BC080910C0270E050E040E081115F
:1021D00004C050E040E068E070E0CE010E94440995
:1021E0008091E8008E778093E80080E2FE01A1E410
:1021F000B7E001900D928A95E1F7DF91CF910895B4
:1022000068E081E0CDCF539A3BB1377F2BB1286096
:102210004FB7F8948AE693E0FC015191CF0168E052
:102220002BB9000000C057FF3BB9550F000000C09C
:1022300000C000C03BB900C06A9591F7F4E08C3053
:102240009F0751F74FBF8FE594E00197F1F700C06A
:102250000000089580916003811111C08091D80021
:1022600080618093D8008AE18A95F1F700C090914F
:10227000D900892F817090FF82E08093600381E014
:1022800090916003913009F080E008959F92AF92A1
:10229000BF92CF92DF92EF92FF920F931F93CF9353
:1022A000DF9380912001C4E0D0E0882311F0D0E0DA
:1022B000C0E082EEC82E82E0D82EAE01465E5B4FB3
:1022C0007A018A01AA24A394B12C25E0922EF6016A
:1022D00081916F01E82FE295EF70F0E021A18F70FE
:1022E000A50102C0440F551F8A95E2F7CA01922F3B
:1022F000982B91A392A18095892382A350EA5A95A5
:10230000F1F7E2EFF2E020E050E040E03191A32F5E
:10231000A295AF70B0E090968C9190E03F7002C0B3
:10232000959587953A95E2F780FD39C0C501042E51
:1023300001C0880F0A94EAF7282B4F5F5F4F4630A1
:10234000510521F7F8018081821719F020839092BE
:1023500000010E9424100F5F1F4FF6EECF16F2E02F
:10236000DF0609F0B4CF80910001882359F0815035
:10237000809300018823A9F08FE99FE00197F1F78E
:1023800000C0000081E0DF91CF911F910F91FF907D
:10239000EF90DF90CF90BF90AF909F90089580E036
:1023A000CBCFC351DB4FF70191917F0199938F5FA1
:1023B0008430C9F7E7CFAB01BC0188E190E00C9411
:1023C000E632E2E2F4E08081887F81608083A3E2EC
:1023D000B4E08C91877080668C93A4E2B4E08C9119
:1023E0008C7F8C9360817181828193810C94DB114D
:1023F000E2E2F4E080818E7F80836081718182815E
:1024000093810C94DB11E2E2F4E0808181608083AF
:1024100060817181828193810C94DB11CF9384E080
:1024200090E00E94B032C82F81E290E00E94B0326A
:10243000982F8C2FCF91089590E080E00E94BE32BB
:1024400021E08933934109F020E0822F08951F9302
:10245000CF93DF93162F8A3031F481E0DF91CF9153
:102460001F910C94C8128D3011F480E0F7CFC09109
:10247000F504D091F60496E0FE01A0E1B4E00190ED
:102480000D929A95E1F7803EA8F186E0FE01119247
:102490008A95E9F7C091F504D091F604111136C080
:1024A00046E050E0BE0180E194E00E948A32CE52C4
:1024B000D5409E012A5F3F4F892B99F54091F70443
:1024C000642F70E0C9010E946732481B463010F447
:1024D000240F311D211582E0380710F030E020E094
:1024E000225D3A4F3093F6042093F504DF91CF91AB
:1024F0001F910895F6E08F9FB00111246455784F25
:1025000046E050E0CE010E948132C4CF9E012A5F96
:102510003F4FFE012E173F0719F28081809581936E
:10252000F9CF85E0D695C7958A95E1F741E050E06F
:10253000CA0102C0880F991FCA95E2F7609130075F
:1025400070913107862B972BB901E5E07695679559
:10255000EA95E1F702C0440F551F6A95E2F7842B14
:10256000952B9093310780933007A8CF1F93CF937B
:10257000DF93EC01162FFE018491811104C0DF91DD
:10258000CF911F910895612F0E9427122196F3CFBA
:10259000CF93382FE091F504F091F604EE52F54018
:1025A0002091F704622F70E0CF010E946732281B50
:1025B000822F332369F066E00E945B32C82FC1503E
:1025C00010F4CF91089560E080E20E942712F7CFC7
:1025D0009F01280F311D2115324018F080E0F0E0F6
:1025E000E0E08E0F9F2F911D825D9A4F9093F6042D
:1025F0008093F504E6CF45E050E06CE170E08DE6B5
:1026000097E00C94C43290916D07937059F08093C9
:102610006E0760936F07493708F048E740937007EB
:102620000C94FB120895EDE6F7E0438125E0421B90
:1026300008F440E08181628190E00C940313EDE6A0
:10264000F7E0438125E0420F08F44FEF818162817A
:1026500090E00C940313EDE6F7E0628128E0621B42
:1026600008F460E08181438190E00C940313EDE66F
:10267000F7E0628128E0620F08F46FEF8181438107
:1026800090E00C940313EDE6F7E0818143816281D1
:102690008850990B0C940313EDE6F7E0818190E0EC
:1026A0004381628108960C940313EDE6F7E02481E0
:1026B0003AE0230F08F42FEF24830C94FB12EDE68D
:1026C000F7E024813AE0231B08F420E024830C94F3
:1026D000FB1290916D07937099F0811109C094607D
:1026E00090936D071092F401662351F00C94FB1245
:1026F000843010F09C60F4CF880F880F982BF0CFB7
:10270000089580916D0786958695815009F483E040
:1027100061E00C94691380916D07869586958F5FB3
:10272000843008F081E061E00C9469134F925F926D
:102730006F927F928F929F92AF92BF92CF92DF92D1
:10274000EF92FF920F931F93CF93DF9380916103DA
:1027500090916203A0916303B09164032FB7F89442
:102760008090F8049090F904A090FA04B090FB04D3
:102770002FBF75016401C81AD90AEA0AFB0A2FB7EC
:10278000F8944091F8045091F9046091FA04709122
:10279000FB042FBF40936103509362036093630374
:1027A0007093640310915704E7E5F4E0C12FD0E083
:1027B0000197AF4FBF4F88199909AA09BB091D138B
:1027C0004FC0C093570460903E0710E0611008C0EE
:1027D00080916D07182F137019F0182F1695169504
:1027E0008091F401813009F45CC0882309F44BC066
:1027F000823009F494C1833009F49BC16110D5C1C2
:102800008091050580FFD1C1C0913E07C111CDC1A6
:1028100080916D07837009F4C8C1C090DC04D0902A
:10282000DD04E090DE04F090DF04C701B6010E94F1
:10283000BB0A8D3009F419C208F09AC1893009F435
:10284000A6C18A3009F49AC1C114D104E104F1048B
:1028500011F0CD2DC17062E08C2F0E94E50FA1C157
:10286000218D328D4901B12CA12C88159905AA051D
:10287000BB0520F4C150DF5F3296A1CF2C0D3D1D6A
:10288000328F218FF8CF109203014093650350934C
:102890006603609367037093680381E08093F4019B
:1028A000ADCF8091070118131CC090916D079370F4
:1028B0002091060130E081E09217130609F480E0D0
:1028C0008170809305011130B1F0112361F0C09146
:1028D0000301123009F44FC0133009F49EC080E0A8
:1028E00028C081E0EDCF882321F140E060E080E066
:1028F0000E94060CF4CFC09103018BE0C89FC02D4D
:1029000011240BE00C0FF02E073310F0B6E3FB2E72
:1029100060916E0770916F07809170070E94570C4D
:10292000E62ED72EC82ED0E0CF15A8F081E00633D2
:10293000B0F6909103019F5F9093030181115ECFE8
:1029400082E08093F40180910501811157CF11112C
:1029500055CF83E0A3CFFE01E254FE4F80819091DA
:102960000401892331F02C2D4E2D6D2DCE010E94B6
:10297000080C2196D9CF8BE0C89FC02D1124ABE065
:10298000CA2ECC0EBC2C36E33C1510F4F6E3BF2E59
:10299000409165035091660320917107269590E060
:1029A00080E0429F812D529F800D911D1124D82ED1
:1029B000D0E0CE01880F991FDC01AE5DBE4F7D01D6
:1029C000CB1530F081E035E33C1508F0B2CF87CF6E
:1029D000FE01E254FE4F8081909104018923C1F0F1
:1029E000F70121A92052330B40A94057550B6091A4
:1029F0006E0770916F07809170070D2D0E940A0C71
:102A00000E94570C462F282F672FCE010E94080CDA
:102A1000F2E0EF0EF11C2196D3CF9BE0C99FC02DB1
:102A200011247BE0772E7C0E072D90E3971508F498
:102A300000E3882361F040E060E080E00E94060C43
:102A4000E7E2F4E080E3DF011D928A95E9F7D0E048
:102A5000C02ED12C56E0552E6AEA462ECC15DD0547
:102A600034F081E0BFE2B71508F063CF38CF4E01F4
:102A7000B7E08B2299245E0143E0B594A7944A9570
:102A8000E1F7589CC001599C900D1124FC01E95DAF
:102A9000FB4FEA0DFB1D00818E5D9E4FFC01EA0D90
:102AA000FB1D80818F3F51F1E82EF12CF701E2549C
:102AB000FE4F808190910401892301F1202F35E59B
:102AC000231B08F420E0642D621B70916F07242DF6
:102AD000200F08F42FEF30917007822F880F820F9C
:102AE0008E5F282F239F212D1124822F0E94570CA7
:102AF000462F282F672FC7010E94080C31E0031BC7
:102B000008F400E0589CC001599C900D1124895D87
:102B10009B4FA80EB91ED5010C9321969FCF109301
:102B2000070180916D078370809306010E94031155
:102B300010CF4091650350916603609167037091D7
:102B400068032FB7F8948091F8049091F904A0914C
:102B5000FA04B091FB042FBF841B950BA60BB70B97
:102B60004097A105B10508F449CE1092F40146CE74
:102B70008E3009F471C08F3009F066CE22E0E22E6B
:102B80000091710720E04FEF6FEF80E008C032E066
:102B9000E32E0091710720E04FEF6FEF8CE10E9470
:102BA000610F61E080E00E94E50F80910F048823AF
:102BB00089F080910C0490910D040E94820A20916A
:102BC00021012817190608F059C02F9810920F04F8
:102BD00010920E0480916903811103C081E08093FB
:102BE00069038091050584FF5FC080916D0786951C
:102BF0008695833009F058C040918004509181043B
:102C000060918204709183042FB7F8948091F80446
:102C10009091F904A091FA04B091FB042FBF841B9A
:102C2000950BA60BB70B89399A43A105B105E0F1C5
:102C300060E082E0DF91CF911F910F91FF90EF90C4
:102C4000DF90CF90BF90AF909F908F907F906F90CC
:102C50005F904F900C94691392E0E92E00917107F8
:102C600020E04FEF6FEF8BE29ACF82E0E82E0091E9
:102C7000710720E04FEF6FEF85E591CF209123049E
:102C800022FFA8CF90910E0482FD07C09111A2CF20
:102C900081E080930E042F9A9DCF992309F49ACF57
:102CA00010920E042F9896CFDF91CF911F910F9124
:102CB000FF90EF90DF90CF90BF90AF909F908F905C
:102CC0007F906F905F904F900895EDE6F7E085E07C
:102CD000808380910D0290910E02A0910F0281835A
:102CE0009283A3838FE784830C94FB12EF92FF926D
:102CF0000F931F93CF93DF9380910905882309F4E5
:102D000094C00E94461180912001C4E0D0E0882345
:102D100011F0D0E0C0E0C351DB4F44E050E0BE0111
:102D20008CE593E00E948A327C0188819981AA8196
:102D3000BB8180935C0390935D03A0935E03B0938B
:102D40005F0380912001D0E0C0E0882311F0C4E04F
:102D5000D0E0909102018091010110E000E098170D
:102D600059F082E090E00E94F4308C01892B21F42C
:102D70008091010180930201809154039091550349
:102D8000E82AF92A90E080E0EF2811F081E090E055
:102D90000E94F430892B31F5809157038093010113
:102DA00010925503109254030115110511F10230D0
:102DB000110509F428985D98809156038F5F8093E0
:102DC0005603863040F180912001F0E0E0E0882356
:102DD00011F0E4E0F0E0E351FB4F10821182128227
:102DE000138219C081E090E09093550380935403BF
:102DF000DBCF289AC351DB4F809158039091590340
:102E0000A0915A03B0915B0388839983AA83BB8303
:102E10005D9A109256030E94961381E0DF91CF9144
:102E20001F910F91FF90EF9008950E94461180919D
:102E30002001E4E0F0E0882311F0F0E0E0E0E3516D
:102E4000FB4F30E090E080E0DC01A85ABC4F4C9191
:102E50002191421331E02C93019684309105A1F722
:102E600020915703230F2093570320912001211114
:102E700002C090E080E083519B4F40915C035091F1
:102E80005D0360915E0370915F03FC014083518399
:102E900062837383C0CF78941F921FB61F92112450
:102EA0008F939F93AF93BF938091F8049091F9040F
:102EB000A091FA04B091FB040196A11DB11D80936D
:102EC000F8049093F904A093FA04B093FB04BF9123
:102ED000AF919F918F911F901FBE1F9018952FB794
:102EE000F8948091F8049091F904A091FA04B091BB
:102EF000FB042FBF08958091E6049091E504892B8F
:102F00009091E404892B809334038091E904882311
:102F100029F10E946F172091E7043091E804821B89
:102F2000930B883B9B4010F00E94080B8091340368
:102F30009091E904892B8093340380910C028823BB
:102F400041F18091030587FF24C08EE1E6E3F3E0C1
:102F500090E0815000F591110E94080BE091EA0485
:102F6000F091EB043097E1F080910C02882359F046
:102F70008091030587FF07C0809134038093350358
:102F800085E0809334030280F381E02D84E393E0B5
:102F9000099486E0DBCF21912223D9F29F5FD9CF1C
:102FA00008951092E5041092E4040E947B1790E0CB
:102FB00080E00E94C90B90E080E00C94B30B0F936B
:102FC0001F938B019C0100271076222733270115C0
:102FD00010462105310569F470686093DC04709334
:102FE000DD048093DE049093DF041F910F910C9415
:102FF000D1177F77F2CF0F931F9341E050E060E04D
:1030000070E004C0440F551F661F771F8A95D2F7E2
:10301000CB01BA0160957095809590950091DC0484
:103020001091DD042091DE043091DF0460237123D0
:10303000822393231F910F910C94DF179091E30447
:10304000809589238093E304282F277071F4282F1B
:10305000082E000C330B9217130639F085958595D1
:1030600085950E94FB170C941A0B08950F931F93DC
:1030700041E050E060E070E004C0440F551F661F5F
:10308000771F8A95D2F78091DC049091DD04A0919E
:10309000DE04B091DF048A019B01082B192B2A2B37
:1030A0003B2BC901B8011F910F910C94DF1760935E
:1030B000FF047093000580930105909302050C9422
:1030C000D117CF93DF93C1E0D0E002C0CC0FDD1F5A
:1030D0008A95E2F76C2F83E090E00E94D432BE0123
:1030E00090E080E0DF91CF910C9457181092E604A5
:1030F00080910C02E6E3F3E0882359F08091030508
:1031000087FF07C08EE1DF011D928A95E9F70C94D5
:10311000D11786E0F8CF1F93CF93DF93CDB7DEB7FB
:10312000AA970FB6F894DEBF0FBECDBF85E697E035
:103130002091F100FC012193CF01F7E08D369F072C
:10314000B9F780916607833009F46FC0B8F4813015
:1031500009F446C0823009F4B0C08091E80083FFD2
:1031600087C280916507909166079A3008F080C207
:10317000E92FF0E0E05FFC4C0C947B328A3009F4DC
:103180008BC08B3009F46EC0893039F780916507A8
:10319000813219F78091690790916A070297E8F6E2
:1031A0008091E800877F8093E8008091E80082FFAB
:1031B00037C09091F3008091F200029729F480913A
:1031C000F1008B7F813021F48091F10080934007E2
:1031D0008091E8008B778093E8000E946E09BDCF54
:1031E00080916507813A09F0B8CF8091E800877F28
:1031F0008093E8008091690790916A07892B61F4B8
:1032000060E281E497E070E00E94200A8091E8008B
:103210008B778093E800A1CF60E090E080E0F3CF6F
:10322000809163078111C1CF98CF80916507813A62
:1032300009F093CF8091690790916A07892B09F073
:103240008CCF8091E800877F8093E8008091E80030
:1032500080FFFCCF80910C028093F1008091E80008
:103260008E77B9CF80916507813209F076CF809152
:10327000690790916A07892B09F06FCF8091E80068
:10328000877F8093E8000E946E0980916707809392
:103290000C020E94761861CF80916507813209F097
:1032A0005CCF8091E800877F8093E8000E946E09E0
:1032B0008091680780933F0750CF80916507813ADE
:1032C00009F04BCF8091E800877F8093E8008091E0
:1032D000E80080FFFCCF80913F07BECF803899F097
:1032E000823809F0C5C1809169078F70873008F076
:1032F000BFC18093E9008091EB0085FB882780F9AE
:103300001092E90006C080916107909162079111C7
:1033100082609091E800977F9093E8008093F1009D
:103320001092F1008091E8008E779EC1882309F405
:103330008CC1823009F09CC18091670781118FC1D7
:10334000809169078F702FEF280F263008F090C109
:103350008093E9002091EB0020FF81C1933031F48C
:103360008091EB0080628093EB0079C19091EB003B
:1033700090619093EB0021E030E001C0220F8A952C
:10338000EAF72093EA001092EA008091EB0088604F
:10339000EACF81116DC1109167071F778091E3001B
:1033A0008078812B8093E3008091E800877F809371
:1033B000E8000E946E098091E80080FFFCCF8091B8
:1033C000E30080688093E30082E0111183E0809342
:1033D00063074EC18058823008F04AC18091670768
:1033E000909168078C3D23E09207A1F583E08A83E2
:1033F0008AE289834FB7F894DE01139620E03EE01D
:1034000051E2E32FF0E050935700E49120FF03C016
:10341000E295EF703F5FEF708E2F90E0EA30C0F0E2
:10342000C7968D939D932F5F243159F74FBF80919D
:10343000E800877F8093E8006AE270E0CE010196A1
:103440000E94200A8091E8008B778093E80010C1E9
:10345000C096E7CF4091690750916A07292F33271B
:103460002330310509F445C078F52130310509F4E0
:103470007BC08BE390E0EEE0F0E12230310509F013
:10348000F7C02091E800277F2093E80020916B0788
:1034900030916C078217930708F49C0140E02115D6
:1034A000310509F070C041116EC08091E80082FDC5
:1034B000C9CF80916307882329F2853019F2809162
:1034C000E80083FFF2CFBECF2132310509F440C0BE
:1034D0002232310509F0CCC04115510509F44EC026
:1034E0004130510509F0C4C08DE690E0E1E6FFE00F
:1034F000C8CF992781309105D9F0009771F08230BB
:103500009105F1F0039709F0B3C0EBE5F0E1E49128
:103510008E2F90E0EBE5F0E107C0E1EBF0E1E49104
:103520008E2F90E0E1EBF0E1009709F4A1C0A9CF64
:10353000EFE9F0E1E4918E2F90E0EFE9F0E1F4CFD4
:10354000E1E6F0E1E4918E2F90E0E1E6F0E1ECCFEE
:103550004115510571F04130510509F089C089E0EC
:1035600090E0E9E3F0E18DCF82E190E0E9E4F0E181
:1035700088CF89E090E0E0E2F0E183CF80E490E062
:10358000EEECFFE07ECF80916307882309F45ACFE9
:10359000853009F457CF8091E80083FD53CF8091A7
:1035A000E80082FD82CF8091E80080FF78CF909183
:1035B000F3008091F2002115310519F08830910552
:1035C00050F041E0089709F040E08091E8008E77E4
:1035D0008093E80064CF44914093F10031962150EC
:1035E00031090196E8CF803809F042C08091E800A7
:1035F000877F8093E800809164078093F10092CEEA
:10360000811136C010916707123090F58091E80063
:10361000877F8093E800109364070E946E0911234E
:1036200011F084E005C08091E30087FDFACF81E0CE
:103630008093630742E061EC81E00E948D0942E2E1
:1036400061EC82E00E948D0913C080916707813090
:1036500079F481E0933009F080E080936207109262
:10366000E9008091E800877F8093E8000E946E095E
:103670008091E80083FF0AC08091E800877F8093F3
:10368000E8008091EB0080628093EB00AA960FB671
:10369000F894DEBF0FBECDBFDF91CF911F9108958B
:1036A0001F920F920FB60F9211242F933F934F93B7
:1036B0005F936F937F938F939F93AF93BF93CF93BA
:1036C000DF93EF93FF93D091E900DF708091EC00DE
:1036D000C82FC17080FDC0E81092E9008091F00011
:1036E000877F8093F00078940E948B181092E900F5
:1036F0008091F00088608093F000CD2BCF70C09354
:10370000E900FF91EF91DF91CF91BF91AF919F9130
:103710008F917F916F915F914F913F912F910F907A
:103720000FBE0F901F9018951F920F920FB60F9219
:1037300011242F933F934F935F936F937F938F93B6
:103740009F93AF93BF93EF93FF938091E10082FF2C
:1037500009C08091E20082FF05C08091E1008B7F6B
:103760008093E1008091DA0080FF24C08091D8002E
:1037700080FF20C08091DA008E7F8093DA008091F4
:10378000D90080FFA1C080E189BD82E189BD09B473
:1037900000FEFDCF81E08093630780913D0781119A
:1037A00009C00E94F4080E94BF098091E200846071
:1037B0008093E2008091E10080FF17C08091E200D9
:1037C00080FF13C08091E2008E7F8093E2008091A1
:1037D000E20080618093E2008091D8008062809353
:1037E000D80019BC85E0809363078091E10084FFD5
:1037F0002FC08091E20084FF2BC080E189BD82E16F
:1038000089BD89B5982F917080FFFBCF8091D8003A
:103810008F7D8093D8008091E1008F7E8093E100BE
:103820008091E2008F7E8093E2008091E2008160CF
:103830008093E20080916407882309F44BC084E000
:10384000809363070E9476180E94DF0B10923E0758
:103850008091E10083FF27C08091E20083FF23C0B5
:103860008091E100877F8093E10082E0809363078D
:10387000109264078091E1008E7F8093E100809137
:10388000E2008E7F8093E2008091E200806180936D
:10389000E20042E060E080E00E948D098091F0004B
:1038A00088608093F000FF91EF91BF91AF919F915D
:1038B0008F917F916F915F914F913F912F910F90D9
:1038C0000FBE0F901F90189519BC109263071092AD
:1038D0003D0770CF8091E30087FD93E090936307ED
:1038E000B1CF882341F080959091E504892380939E
:1038F000E5040C947B170895882339F09091E50432
:10390000982B9093E5040C947B170895882321F05D
:103910000E94130B0C947B170895882339F0909123
:10392000E604982B9093E6040C947B170895882363
:1039300041F19CEF980F913A38F4682F84E393E0BB
:103940000E94910A0C947B1790E2980F983050F4E3
:10395000877091E001C0990F8A95EAF7892F0E943C
:10396000130BF0CF9BE5980F933020F490E080E0AC
:103970000C94C90B885A873120F490E080E00C94B5
:10398000B30B0895CF93C82F882309F497C08CEF09
:103990008C0F813A08F067C080910C028823E9F10E
:1039A0008091030587FF39C0EC2FE695E695E695F3
:1039B000F0E0EC5CFC4F828190E04C2F477021E0FE
:1039C00030E002C0220F331F4A95E2F7822393238F
:1039D000892B61F06C2F84E393E00E94910A0E948E
:1039E0007B1725C08091030587FF25C0AC2FA695C6
:1039F000A695A695B0E0AC5CBC4FC77021E030E066
:103A000001C0220FCA95EAF712968C911297822B69
:103A100012968C93CF910C947B17E6E3F3E08CE342
:103A200093E02191C217B1F28E179F07D1F78091D1
:103A30000C028111D7CFA6E3B3E0EFEF80E09D91B8
:103A4000C91741F3EF3F19F4911101C0E82F8F5FBF
:103A50008630A9F7EF3FF1F20E2E000CFF0BEC5C65
:103A6000FC4FC283D7CF80E28C0F883068F4C770D8
:103A700021E030E001C0220FCA95EAF78091E60408
:103A8000822B8093E604C6CFEBE5EC0FE33040F4E5
:103A9000F0E0E850FD4F808190E0CF910C94C90B8D
:103AA000C85AC73158F4EC2FF0E0EE0FFF1FE55075
:103AB000FD4F80819181CF910C94B30BCF910895EC
:103AC000CF93C82F0E94C21CC93369F42FEF87EE31
:103AD00093E0215080409040E1F700C000008C2F1F
:103AE000CF910C94971C8FE19EE40197F1F7F5CFED
:103AF000CF92DF92EF92FF920F931F93CF93DF93BA
:103B0000EC018AE0C82EFE018491882309F4A0C04C
:103B1000813009F05DC031968491813029F522967B
:103B2000FE0184910E94601D21968FE99FE001971C
:103B3000F1F700C00000EFE9FFE03197F1F700C0B6
:103B400000008FE99FE00197F1F700C00000EFE966
:103B5000FFE03197F1F700C000008FE99FE0019787
:103B6000F1F700C00000CFCF823031F42296FE0181
:103B700084910E94C21CD8CF833031F42296FE017A
:103B800084910E94971CD0CF843009F05FC02296A8
:103B9000FE01249190E080E0FE0131962053330B2A
:103BA0002A30310550F0019708F4BECFEFE9FFE06D
:103BB0003197F1F700C00000F6CFC89EA001C99E62
:103BC000500D1124C901840F951F2491EF01E4CFFA
:103BD000E82FF0E0EB52FF4ED490082F06950695A3
:103BE000069510E0F801EB53FF4EE4908770F12C3E
:103BF000082E02C0F594E7940A94E2F721E0E2224D
:103C0000FF240B541F4EF801049110E002C01595DB
:103C100007958A95E2F701701127E114F10419F074
:103C200081EE0E94C21C0115110519F086EE0E945A
:103C3000C21C8D2D0E94601D012B19F086EE0E9482
:103C4000971CEF2809F470CF81EE9BCFEF016CCF6A
:103C5000DF91CF911F910F91FF90EF90DF90CF9068
:103C6000089598E0899F90011124622B6093E304EA
:103C70000E9436180E946F179093E2048093E1042B
:103C800008958091230482FD04C090910F04911146
:103C900012C082FF04C080910E0481110CC081E02B
:103CA00080930F0480930E040E946F1790930D046D
:103CB00080930C042F9A0895CF9382E084BD93E003
:103CC00095BD9AEF97BD80936E008EE090E00E94C4
:103CD000B03291E0811101C090E0909320010E94E8
:103CE0002A1163E070E0882309F428C188E091E09C
:103CF0000E94123078940E942410A2EFB2E061E09A
:103D000070E08D91E82FE295EF70F0E041A18F70A7
:103D10009B0101C0220F8A95EAF7922F9095942378
:103D200091A382A1822B82A322E0A83FB20749F788
:103D3000209A559A289A5D9AEDEEF4E0AAE1B4E053
:103D400085EF94E011921D928E179F07D9F70E947C
:103D50002A11809309050E941C12811102C00E9441
:103D6000AA1F109257048FEF9FEF909371048093D6
:103D700070049093730480937204909375048093FD
:103D800074049093770480937604909379048093DD
:103D9000780490937B0480937A0490937D048093BD
:103DA0007C0490937F0480937E040E941C128111F6
:103DB00004C00E94AA1F0E94651645E050E06CE115
:103DC00070E08DE697E00E94A03280916D078C7FB5
:103DD00011F40E9465168091340781608093340746
:103DE0000E941C12811102C00E94AA1F88E190E06B
:103DF0000E94B832609322047093230480932404B9
:103E000090932504262F269526952695972F872F64
:103E100083708295880F807E822B39F4677068608A
:103E2000609322049C7F90932304279A0E94411E52
:103E300080912001811109C082EDE0E1F2E0A2E26F
:103E4000B1E001900D928A95E1F780910905811109
:103E500083E080932E0780FD76C080E88093F7048E
:103E60000E9472316DE070E081E09DE00E9445109B
:103E7000892B79F580912E0763E070E081FD65C0A4
:103E80008EEF9CE00E944510892B19F56DE070E0E3
:103E90008EEE9CE00E944510892BD9F4EEE2F5E00D
:103EA00080E092E0DF019C011D9221503040E1F75B
:103EB000F093F604E093F5048FEF9FEF90933107B2
:103EC0008093300781E0809332078093FC04109246
:103ED0002F070E941C12811102C00E94AA1F82E0BB
:103EE00090E00E94B032809334070E940E129093AB
:103EF00004058093030583E090E00E94B032682FB0
:103F000070E090E080E00E945718609103056068BF
:103F100060930305C091040584E090E00E94D432D0
:103F20006C2F81E290E00E94D4328091050584FFDD
:103F30000FC060E082E0CF910C94691388E091E0BB
:103F40000E941B30D7CE80E289CF8BEF9CE09ACFC6
:103F5000CF91089569E373E190E080E00E94F2322E
:103F600060E082E090E00E94D43260E083E090E084
:103F70000E94D4321092FF041092000510920105A5
:103F80001092020560E084E090E00E94D43260E08C
:103F900081E290E00E94D43260E085E090E00E94EF
:103FA000D43260E086E090E00E94D4326FEF87E088
:103FB00090E00E94D43240E050E0BA0188E090E006
:103FC0000E94E63260E08DE090E00E94D43240E052
:103FD00050E0BA0188E190E00E94E63260E087E1BB
:103FE00090E00E94D43240E050E0BA018CE190E0D1
:103FF0000E94E63260E080E290E00E94D43240E02D
:1040000050E0BA018FE090E00E94E6321092050580
:1040100010920605109207051092080580E0816055
:1040200080930505409105055091060560910705AF
:104030007091080583E190E00E94E6320C945C1ECA
:104040003F924F925F926F927F928F929F92AF9228
:10405000BF92CF92DF92EF92FF920F931F93CF9375
:10406000DF938C01DC0113964D915C9114971196AE
:104070006C9111978C910E949E0B81110C94662972
:1040800021E0F801408151816281738184810E9425
:10409000290FEC01D80112968C91C63EBCE5DB07D6
:1040A00009F054C181110E940312D80112968C911B
:1040B000C93EBCE5DB0709F051C181110E94E11145
:1040C000F8018281CC3EFCE5DF0709F06CC1882352
:1040D00041F120912204322F3695369536959091F4
:1040E0002304892F83708295880F807E832B8F5FB6
:1040F000382F330F330F330F2770232B20932204D5
:104100008295869583709C7F892B80932304609190
:1041100022047091230480912404909125040E942C
:10412000DB11D80112968C91C23FBCE5DB0709F088
:104130006CC1882381F180912304982F96959695E0
:1041400096958091240483708295880F807E892BB8
:10415000843008F413C2815080932101282F220F4C
:10416000220F220F909123049770922B9093230497
:10417000829586958370909124049C7F892B8093EF
:10418000240460912204709123048091240490916E
:1041900025040E94DB118091220480FFFAC1D8011E
:1041A00012969C91992309F4EFC186958370823011
:1041B00008F4EDC1F80181812081F6E08F9FC001F4
:1041C00011248E5D9E4F820F911DDC01FC90BFEF8C
:1041D000EE24E394FB1201C0E12C70905704CE2C26
:1041E000D12CC601870D911D099764F188E090E0FC
:1041F0005C01AC18BD08B601685A7B4FA50188E583
:1042000094E00E949732B601605A7B4FA50180E688
:1042100094E00E949732A501440F551FB601660F26
:10422000771F60597B4F80E794E00E949732B60178
:1042300068597B4FA50188E694E00E9497327A94F2
:10424000709257048091570490E02F2D30E0A9011F
:10425000440F551F4E5A5E4F220F331FB9016D5A3E
:104260007E4F21E0280F9E1508F499C180935704D2
:1042700080916D078C7F8C3009F0DEC1F801D18010
:104280009081CC24CA94CD0C61E06D0DAFEFA90FE5
:1042900081E0890FED2CF12CA91780F426E02E9DEA
:1042A000F0012F9DF00D1124E95DFB4FEA0FF11D88
:1042B000208130E1230F08F42FEF2083292F30E0F5
:1042C00056E05E9DF0015F9DF00D1124AF01495D48
:1042D0005B4F5A017A01E20EF31EF7015081B0E202
:1042E0004B2F540F08F45FEF5083863050F4F501E4
:1042F000E80FF11D5081B0E14B2F540F08F45FEF30
:104300005083683008F460C16C2D70E0A91708F480
:10431000E0C196E0969FF001979FF00D1124E95DB2
:10432000FB4FDF01A20FB31F2C9130E1230F08F4E4
:104330002FEF2C93863008F07FC1E80FF11D20810C
:104340003DE0230F08F42FEF208376C1C73EECE554
:10435000DE0709F088C081110E94F811F8018281FE
:10436000CA3EFCE5DF0709F095C08823E1F0909193
:104370002204892F86958F5F8370880F997F892B00
:1043800080932204982F9670963019F4897F809339
:10439000220460912204709123048091240490915E
:1043A00025040E94DB11D80112968C91CD3EBCE50C
:1043B000DB0709F08BC0882341F120912204322FC2
:1043C00036953695369590912304892F8370829582
:1043D000880F807E832B8150382F330F330F330F9C
:1043E0002770232B209322048295869583709C7FCF
:1043F000892B80932304609122047091230480917F
:104400002404909125040E94DB11F8018281CF3EA3
:10441000FCE5DF0709F092C0882309F4BCCE809147
:104420002404982F969596959695809125048295CB
:10443000880F807E892B883708F0A2C0865F282FDE
:10444000220F220F220F909124049770922B9093A9
:10445000240482958695877090912504987F892BF6
:10446000809325048ECEC83EFCE5DF0709F01DCE03
:10447000882381F08091220480FF7BC00E94F81184
:10448000609122047091230480912404909125046A
:104490000E94DB11D80112968C91CB3EBCE5DB0764
:1044A00009F00ECE882391F090912304892F8B7F01
:1044B00092FF84608093230460912204709123040E
:1044C00080912404909125040E94DB11F8018281DF
:1044D000C13FFCE5DF0709F024CE882379F1809104
:1044E0002304982F96959695969580912404837031
:1044F0008295880F807E892B8436F0F58F5F8093BC
:104500002101282F220F220F220F90912304977050
:10451000922B909323048295869583709091240426
:104520009C7F892B80932404609122047091230442
:1045300080912404909125040E94DB11D8011296E9
:104540008C91C03FBCE5DB0709F025CE882309F438
:1045500022CE80912404982F9695969596958091D9
:1045600025048295880F807E892B843158F08A50EB
:1045700066CF0E94031284CF81E0C1CF84E6ECCDE8
:1045800088E75DCF84E15BCF867009F425CE0E9479
:10459000411EF8018281882309F41ECE0BCE90E0E3
:1045A000FC01E95AFB4FDA013C913183DB013C917C
:1045B0003187F18A880F991FFC01E95AFB4F128E4F
:1045C000118E91E0822F4DCE462F50E0A91798F41E
:1045D000B6E0B49FF001B59FF00D1124E95DFB4FEB
:1045E000EA0FF11DB0816DE0F62E6B2F7F2D670F66
:1045F00008F46FEF6083B6E0B49FF001B59FF00D53
:104600001124BF01695D7B4F7B01E20EF31EF701B0
:10461000408150E1450F08F44FEF4083863048F465
:10462000FB01E80FF11D40815DE0450F08F44FEFFD
:104630004083CD1408F468CED80112968C91811174
:104640005AC02FB7F8948091F8049091F904A09182
:10465000FA04B091FB042FBF8093800490938104EF
:10466000A0938204B09383048091050584FF0AC05F
:1046700080916D0786958695823021F460E083E015
:104680000E946913F8018281C033FDE5DF0709F05C
:10469000F5C0882309F481C090910505892F8F7E8C
:1046A00094FF8061809305054091050550910605B2
:1046B000609107057091080583E190E00E94E63261
:1046C0008091050584FF69C060E083E00E94691362
:1046D00064C096E0969FA001979F500D1124495DFC
:1046E0005B4FA40FB52FB11D4C915DE0450F08F451
:1046F0004FEF4C930ECE2FB7F8948091F804909121
:10470000F904A091FA04B091FB042FBF80930A052D
:1047100090930B05A0930C05B0930D05CE01905618
:104720008115B0E29B0750F0905E8115E0E19E0795
:1047300028F0915C81159F4108F097C0FE01FF278A
:104740008091F8018093F9018091F7018093F8013D
:104750008091F6018093F7018091F5018093F60135
:10476000EF3FF10529F0E25FF24FE491E093F501AC
:104770000E946F179093FE048093FD04D801129657
:104780008C91882309F45DCFC115BCE5DB0709F0E6
:1047900058CF80910905811154CFD80112969C9170
:1047A000992309F48CC2C230BCE5DB0708F438C297
:1047B000C631ECE5DE0738F09E012A5F3C45293022
:1047C000310508F02DC20E940E12909304058093CB
:1047D0000305C031FCE5DF0709F4F1C108F07FC132
:1047E000C8303CE5D30709F4E0C108F04EC1C4303D
:1047F0005CE5D50709F4D1C108F034C1C2307CE5CD
:10480000D70709F4C0C1C330DC4509F4C2C16091C7
:104810000305C091040584E090E00E94D4326C2F1F
:1048200081E290E00E94D4320E9476188091E304E5
:10483000877009F44BC5D80112968C91882309F42E
:1048400045C582E0DF91CF911F910F91FF90EF90CE
:10485000DF90CF90BF90AF909F908F907F906F90A0
:104860005F904F903F900C941E18F0E0E0E0CF3F37
:10487000D10511F008F064CFFE0162CFCD322DE5F5
:10488000D20760F5C9323DE5D30708F05BC0C53DEE
:104890004CE5D407C0F4C33C5CE5D50708F0CBC0B9
:1048A000C23C6CE5D60709F078CF882309F4BECF67
:1048B00080916D0791E0892780936D071092F40134
:1048C0000E94FB12B3CFC8327DE5D70709F065CF50
:1048D000882309F462CF8DE09EE031C0CF329DE5A0
:1048E000D90709F482C0C633ADE5DA0709F44AC036
:1048F000CE32BDE5DB0709F050CF81114ECF80915C
:10490000E6040E94EB0CF82E8091E9040E94EB0C67
:10491000E82E1092E6040E94080B89E99EE00E94AE
:10492000781D8F2D8E29827251F181E99EE00E94BF
:10493000781D85E69EE00E94781D81E69EE00E943B
:10494000781D2BCF882309F428CF9091E90480911A
:10495000E604892B0E94EB0C811105C08C2F895233
:104960000E9461181ACF982F927219F08C2F8552DD
:10497000F7CF817109F411CF8C2F8152F1CF87E8E5
:104980009EE0D5CF882339F00E946F17909385045D
:104990008093840402CF80918404909185040E94C6
:1049A000820A893C910598F081E00E947C1C86E097
:1049B0000E94C21CEFE1FEE43197F1F700C0000055
:1049C00086E00E94971C81E00E94711CE6CE81E087
:1049D0000E947C1C89E10E94C21C8FE19EE4019729
:1049E000F1F700C0000089E1ECCF882309F4D5CEAF
:1049F00090910505892F8E7F90FF8160809305053A
:104A000040910505509106056091070570910805D4
:104A100083E190E00E94E6328091050580FFBDCEE3
:104A20006091DC047091DD048091DE049091DF04DC
:104A30000E94DF17B2CE882309F4AFCE809105051E
:104A400084FF03C08F7E809305054091050550913A
:104A50000605609107057091080583E190E00E94CA
:104A6000E6329BCE809103058061C6309CE5D90774
:104A700009F48CC0809103058860C730DC4508F4D8
:104A800085C080910305806281C0809103058D7F80
:104A9000CC30BCE5DB0709F479C070F480910305E4
:104AA0008C60CA30FCE5DF0709F470C008F481C0EF
:104AB000809103058E7F6AC080910305877FCE3089
:104AC0003CE5D30709F462C0809103058B7FCF30AA
:104AD000DC4508F45BC0809103058F7E57C0CB3F57
:104AE0005CE5D50709F45DC030F5C3317CE5D70737
:104AF00009F46DC078F4C1319CE5D90709F463C0AD
:104B0000C231DC4509F083CE0E94761880910305FE
:104B10008F773CC0C531BCE5DB0709F460C008F401
:104B200074C0809104058160CA3FDC4509F06FCEF6
:104B3000809304056CCECF3F2CE5D20709F44BC01F
:104B400088F4809104058D7FCD3F4CE5D40781F337
:104B5000809104058E7FCE3FDC4550F380910405A3
:104B60008360E6CFC1306DE5D60709F457C008F47D
:104B700042C060E0C230DD4509F049CE8EE090E0F1
:104B80000E94D43244CE8091030581608093030556
:104B90003ECE809103058260F9CF80910305846049
:104BA000F5CF809104058260C3CF809103058064B6
:104BB000EDCF0E947618809103058068E7CF809141
:104BC00003058F7DE3CF809103058F7BDFCF80913D
:104BD0000305837FDBCF809104058C7FA9CF809173
:104BE000030582FB992790F921E0922790FB82F937
:104BF00090FB83F9CBCF80910405982F909591700D
:104C00008E7F892B90FB81F993CF0E94761890912B
:104C10000305892F97FB87F98058B8CF61E0AECFA5
:104C20008091E6048272FE01E25CFC45E431F1050C
:104C3000E8F5E65EFC4C0C947B3241E853E16BE80E
:104C400073E10E94EB0BF2CD4BE853E161E873E1B5
:104C5000F8CF43E453E16CE473E1F3CF4CE453E168
:104C600063E473E1EECF4BE253E167E373E1E9CF35
:104C700047E353E16BE273E1E4CF43E153E16FE1DA
:104C800073E1DFCF4FE153E163E173E1DACF4FE549
:104C900053E165E573E1D5CF45E553E16FE573E198
:104CA000D0CF61E081E00E946913C0CDC115ACE5B1
:104CB000DA0709F44BC0CE3DDC4509F47EC0F801AB
:104CC000C081D181992309F47BC0CE010E94B90E25
:104CD000F82E682FCE010E94500BBE018F2D0E942E
:104CE0002E0DD82FC92FA82ED8011596EC90159708
:104CF000E2943FE0E3221296DC90D1101092E5049A
:104D00008091E304877099F0DD2089F08C2F807FFB
:104D1000803421F080E28D0F883048F082E00E94DC
:104D20001E188091E3048770CC24C3948111C12C98
:104D30003C2E32942FE03222BBE0B31508F477C04A
:104D4000E32DF0E0E25DFC4C0C947B320E9476187F
:104D500040E060E08FEF0E94060C0E940311EFEF2D
:104D6000F4E32CE0E150F0402040E1F700C0000007
:104D70002F9881E08093E00080E28093D800109229
:104D8000C9008FE19EE40197F1F700C0000087E0C1
:104D900090EBDC018093750790937607A0937707DB
:104DA000B093780788E19CE00FB6F894A8958093BB
:104DB00060000FBE90936000FFCF0E94AA1F36CD07
:104DC000CE010E94270BF82E88CFEC2FEF70FE2E1D
:104DD000C07F19F0F29490EFF922DD20C9F0FF2096
:104DE00069F080E28D0F883010F0A1100BC0809127
:104DF000E604F82AF092E6040E947B178D2F0E94A9
:104E0000C21C15C08091E504F82AF092E504F4CFA5
:104E10008D2F0E94971CFF2051F0D05ED83010F0EB
:104E2000A1103FC08F2D0E94130B0E947B17232DD2
:104E30002850330B2430310510F40E94DF0BCC20B6
:104E4000B1F08091E30480FD12C0D80112961C924B
:104E50008595859585950E943618C8010E94202069
:104E60008091E3048595859585950E94FB1720E048
:104E7000F80140815181628173818481DF91CF91FA
:104E80001F910F91FF90EF90DF90CF90BF90AF9068
:104E90009F908F907F906F905F904F903F900C9479
:104EA000290FF0948091E504F822F092E504BDCF3B
:104EB000FC2FFF70FF2EC07FC03219F0F29480EFFC
:104EC000F822AA2051F021E0A21609F446C0DD2004
:104ED00009F44DC0EE2029F191CFDD2031F1E11030
:104EE00004C08091E9048F291DC031E0E3120FC096
:104EF0008091E904F82AF81609F499CF0E946F17F7
:104F00009093E8048093E704F092E90490CF42E0A4
:104F1000E412E7CF0E94080B8091E004F812F092AF
:104F2000E0048F2D0E948D1C82CFE11006C00E94EC
:104F3000080B8F2D0E94861C7ACF51E0E51208C025
:104F40008091E6048F2109F472CF0E94210BEFCFEC
:104F500062E0E61609F46BCFEACFDD2029F071E0BC
:104F60007E1508F464CFDDCFE11061CFE2CFEE20F3
:104F700001F389E3A812A2C19FEFA7EEB3E091501D
:104F8000A040B040E1F700C000008D2F0E94971CA8
:104F90004ECF8C2F86958695837069F0813009F00D
:104FA00046CF8D2F9C2F9370D11002C090E080E0EF
:104FB0000E94B30B3CCF8D2F9C2F9370D11002C059
:104FC00090E080E00E94C90B32CF8C2F837009F0F3
:104FD00065C0D1102CCF8D2F829586958770880F54
:104FE000880F6D2F6F70462E512C712C612C082E5E
:104FF00004C0440C551C661C771C0A94D2F740E090
:1050000050E0BA01D4FF0FC04FE050E060E070E024
:1050100004C0440F551F661F771F8A95D2F740952D
:10502000509560957095C695C695C370C23019F1BC
:10503000D8F48090FF0490900005A0900105B090F6
:105040000205C13069F04429552966297729CB0129
:10505000BA01682179218A219B210E945718E7CE45
:10506000482859286A287B28CB01BA016429752968
:1050700086299729F2CF4429552966297729409016
:10508000FF04509000056090010570900205CB016F
:10509000BA016425752586259725DFCF8695DD2005
:1050A00011F08C2F8170882309F4C1CE8D2F829549
:1050B00086958770880F880F6D2F6F70462E512C44
:1050C000712C612C082E04C0440C551C661C771CE6
:1050D0000A94D2F740E050E0BA01D4FF0FC04FE08D
:1050E00050E060E070E004C0440F551F661F771F5A
:1050F0008A95D2F74095509560957095C695C6955E
:10510000C370C23019F1D8F48090DC049090DD04B3
:10511000A090DE04B090DF04C13069F04429552925
:1051200066297729CB01BA01682179218A219B213F
:105130000E94DF177CCE482859286A287B28CB019B
:10514000BA016429752986299729F2CF442955295E
:10515000662977294090DC045090DD046090DE04DD
:105160007090DF04CB01BA0164257525862597254B
:10517000DFCFCF70DD2029F08C2F0E9436188D2FC5
:10518000D1CE8D2F0E94861C8C2F0E94FB174FCEF4
:105190008D2FF2EFAF1609F453C0FA1578F020EF17
:1051A000A21641F131EFA31609F442C0DD2009F443
:1051B00080C0E11023CE8C2F8F713FC043EFA41627
:1051C00009F443C054EFA512F1CF8091E004DD2033
:1051D00009F45BC00E94130B8091E3048770843054
:1051E00009F046C00E941A0B8C2F8F710E94FB178A
:1051F000C12C1DCEDD20B9F0E11019CECF7161E0D8
:1052000070E080E090E004C0660F771F881F991F50
:10521000CA95D2F74090DC045090DD046090DE0423
:105220007090DF04A1CF61E06E1508F400CEE6CFE8
:105230008C2F8F71DD2009F4A8CF0E943618F7CD8E
:105240008C2F8F71DD20C9F3A0CF60E070E0CB011F
:10525000DD2009F46DCFCF7161E070E080E090E077
:1052600004C0660F771F881F991FCA95D2F760CFB9
:1052700071E07E1508F4BCCFCF718C2F0E943618D8
:1052800063E08C2F0E94311EB3CF9091E604982BDF
:105290009093E60481E08E1540F40E941A0B0E9460
:1052A000210B64E08C2F8F71EDCF81E00E941E18DE
:1052B0009FCFEE2041F0893309F45ECEEFE1FEE4AA
:1052C0003197F1F760CE8C2F8F715FCFDF91CF9147
:1052D0001F910F91FF90EF90DF90CF90BF90AF9014
:1052E0009F908F907F906F905F904F903F90089528
:1052F000DF92EF92FF920F931F93CF93DF938091F2
:105300008B04807F61F480918804882341F0C091F0
:10531000BD0486E0D82E80918C048C1308C0DF91E8
:10532000CF911F910F91FF90EF90DF900895109112
:10533000860400918704E0908904F0908A04A70114
:10534000602F812F0E949E0BD0E0811147C0DC9E10
:10535000F001DD9EF00D1124E357FB4F51815013F6
:105360003DC0408141133AC08281811137C0038121
:1053700014810E191F0920E060918804709189043E
:1053800080918A040E94290F8430944621F188EC90
:1053900090E00817190710F580918B048F708061D9
:1053A00080938B0486E08C9FF0018D9FF00D11247B
:1053B000EE56FB4F80818F708061808386E894E099
:1053C0000E942020DF91CF911F910F91FF90EF90CD
:1053D000DF900C94A90B8CE291E0DBCF2196C77093
:1053E0009ACF7F928F929F92AF92BF92CF92DF928D
:1053F000EF92FF920F931F93CF93DF93CDB7DEB75A
:1054000061970FB6F894DEBF0FBECDBF8C0185E06B
:10541000F801DE011D9601900D928A95E1F7D80101
:10542000DC901196EC9011971296CC9080908904A4
:1054300090908A04A40160918704809186040E9460
:105440009E0B811197C1F801A380B480F09088046D
:10545000C501881999094C0120E0409186045091BA
:105460008704FF2009F434C16F2D70918904809165
:105470008A040E94290F8430944609F443C088ECC2
:1054800090E070908B048816990608F0D5C0409182
:10549000890450918A049090860480908704872D17
:1054A000807F682D09F082C0892D0E949E0BFC2C04
:1054B00081112BC08E1029C09D1027C0C11025C09E
:1054C000872D8F70806180938B0486E894E00E9422
:1054D000202080918B04F80185838F2D61960FB673
:1054E000F894DEBF0FBECDBFDF91CF911F910F911A
:1054F000FF90EF90DF90CF90BF90AF909F908F90F4
:105500007F9008958CE291E0BCCF20E0409186042A
:1055100050918704609188047091890480918A0475
:105520000E94290FA5016E2D8D2D0E949E0B8111C9
:1055300025C081E08C25F82FF170AF2E80FF2CC0A4
:105540004C2D6E2D8D2D0E947E0BB82E811124C006
:10555000DD86EE868D859E850E94FB0E292F229585
:105560002F70223068F0243090F49F7069F0D801D9
:1055700015969C91907F41F4FB2CAFCF80E0DBCF60
:105580009F7011F08823C1F3805E8830A8F3C801B2
:105590000E942020BA2CF0CFCC2009F49ECF80911D
:1055A0008B04816080938B04F12C97CF892D0E940E
:1055B0009E0B811114C08E1012C09D1010C0C1101E
:1055C0000EC0F8017582C8010E94202086E0F80113
:1055D000A6E8B4E001900D928A95E1F77ECFDD86D2
:1055E000EE868D859E850E94050F882309F1CC20CB
:1055F000F9F080918B04803270F020918604309114
:10560000870438872F831986BB86AA868C87CE01AC
:1056100007960E94202086E0F801A6E8B4E00190F9
:105620000D928A95E1F70E947829FF24F39455CFD3
:10563000C8010E942020F9CF872D807F61F486E881
:1056400094E00E94202086E0E6E8F4E0DF011D926D
:105650008A95E9F7A9CF90908604809087044091BD
:10566000890450918A04682D892D0E949E0B811116
:1056700013C08E1011C09D100FC0C1100DC0F801D5
:105680007582C8010E942020E6E8F4E086E0DF0190
:105690001D928A95E9F721CFDD86EE868D859E8560
:1056A0000E94050F882321F2CC2011F280918B04F7
:1056B000803208F4B0CF20918604309187043A8379
:1056C00029831B82BD82AC828E83CE010196A1CF3D
:1056D00060E07091890480918A040E94290F8430CF
:1056E000944681F188EC90E08816990608F03EC057
:1056F000FC2CCC2009F49CCFC0908604B090870489
:105700004091890450918A046B2D8C2D0E949E0B30
:1057100081111BC0BE1019C0CD1017C080918B0421
:1057200080FD54CF982F907F09F450CFF8018583E6
:10573000903F09F448CF982F907F905F8F70892B0E
:10574000858341CF8CE291E0CFCFDD86EE868D85DB
:105750009E850E94050F81115ECF80918B04816030
:1057600080938B04C8010E942020B7CE86E0E6E833
:10577000F4E08DCFCC2009F45BCFDD86EE868D85FD
:105780009E850E94050FF82E882309F451CF86E0EC
:10579000F801A6E8B4E001900D928A95E1F78091B6
:1057A0008604909187040E94FB0E0E94782995CE72
:1057B0001F93CF93DF93CDB7DEB767970FB6F894FB
:1057C000DEBF0FBECDBF4B8B5C8B6D8B7E8B8F8B0B
:1057D0001A8A198A85E0FE017396DE011D960190F2
:1057E0000D928A95E1F70E946F172091E1043091A4
:1057F000E204821B930B883B9B4020F08091E304E2
:1058000082FF7CC00E946F172091E7043091E8046A
:10581000821B930B883B9B4010F00E94080B86E094
:10582000FE013D96DE01179601900D928A95E1F7F3
:10583000CE0107960E94F12981112FC086E0FE015A
:105840003796DE01119601900D928A95E1F74A850F
:105850005B8568858F810E949E0B81111EC02091FF
:105860008C0430E0C9010196877099274091BD04EE
:105870004817190619F196E0929FD001939FB00D39
:105880001124A357BB4FFE01319601900D929A95BA
:10589000E1F780938C040E94A90B16E08091BD046F
:1058A00090918C04891318C067960FB6F894DEBFE8
:1058B0000FBECDBFDF91CF911F9108950E94761842
:1058C00010928C041092BD0486E0E6E8F4E0DF015B
:1058D0001D928A95E9F7E1CF819FC001112483577A
:1058E0009B4F0E94F1298823F9F28091BD0490E03A
:1058F0000196877099278093BD04D0CF82E00E94E3
:105900001E1880CFCDB7DEB72C970FB6F894DEBF48
:105910000FBECDBF84B7877F84BF0FB6F894A8951C
:1059200080916000886180936000109260000FBEDB
:1059300080E890E00FB6F894809361009093610046
:105940000FBE85B7806885BF85B7806885BF83E156
:1059500090E00E94B832609305057093060580932D
:105960000705909308050E94F4080E94BF098091E2
:10597000E20084608093E20078948091630788233A
:10598000A1F01091E9001F709091EC00892F8170B7
:1059900090FD80E8182B1092E9008091E80083FDCB
:1059A0000E948B181F701093E9000E945C1E82E019
:1059B00092E09093EB048093EA04AEE22A2EA5E0F5
:1059C0003A2E44244394512CDD24DA9480916307C9
:1059D000853009F4CEC00E947616ADEEB4E0E5E362
:1059E000F7E010E000E0302F8D912191281709F4A5
:1059F0000EC190E0FF24F3942827422F4F2109F491
:105A000001C199833A838F2191E009F490E09B834F
:105A10000E946F178160782F9D838C8349815A8102
:105A20006B818D810E94D82BF801EB5CF84F80814F
:105A3000F826F08280913207882309F48EC03092D4
:105A4000F6042092F50440910A0550910B056091EF
:105A50000C0570910D052FB7F8948091F804909182
:105A6000F904A091FA04B091FB042FBF841B950B9D
:105A7000A60BB70B81339547A105B10508F4DDC02E
:105A80008091FC04882351F062E070E08DE99EE093
:105A90000E944510892B11F41092FC0420913007CC
:105AA000309131072115310509F457C080912F0736
:105AB000811153C0082F10E07201082E02C0EE0CB5
:105AC000FF1C0A94E2F7A70142235323452B09F454
:105AD00099C190912E0790FD97C18295880F80768D
