:100000000C9458050C949F050C949F050C949F0527
:100010000C949F050C949F050C949F050C949F05D0
:100020000C949F050C949F050C9487290C94592AD5
:100030000C94A9200C949F050C949F050C949F058B
:100040000C949F050C949F050C949F050C949F05A0
:100050000C949F050C9411210C949F050C949F0502
:100060000C949F050C949F050C949F050C949F0580
:100070000C949F050C949F050C949F050C949F0570
:100080000C949F050C949F050C949F050C949F0560
:100090000C949F050C949F050C949F050C949F0550
:1000A0000C949F050C949F050C949F0599079B0742
:1000B000A6079D079F07A107A307A507A807AA07EB
:1000C000AC07B707AE07B007B207B407B607B90762
:1000D0003616361668166816A616C4162A182A1872
:1000E00006172A18A917A9171A182A182A18231840
:1000F000B617B617B617B617B617B617B617B61798
:10010000B617B617B617B617B617B617B617B61787
:10011000C717D517DC17E317ED17BB18BB18CD1899
:10012000CD18C418CD18CD18CD18BB18BB18C918D8
:10013000CD18CD18C918C62AED2AE52BED2AE52BD6
:10014000392B5C2BE52BB32BC22B07634236B79BB5
:10015000D8A71A39685618AEBAAB558C1D3CB7CC27
:100160005763BD6DEDFD753EF6177231BF0000009F
:10017000803F05A84CCDB2D44EB93836A9020C50F8
:10018000B9918688083CA6AAAA2ABE000000803F32
:10019000290014001A000800150017001C001800A0
:1001A0000C00120013002F002A002B61040016001F
:1001B000070009000A000B000D000E000F003400BC
:1001C0002800C25CE1001D001B00060019000500AC
:1001D0001100100037003700380052000000E00026
:1001E000E300E6002C41000000002C00000002515A
:1001F0004C00500051004F0035001E001F00200031
:1002000021002200230024002500260027003000C2
:10021000310001002D002E002F0030003100500071
:10022000510052004F0033000100010001000100A5
:1002300001000100010001000100010001000100B6
:1002400046004B0000000100010001000100000019
:10025000000001000000035101004A004E004D0063
:1002600035023A003B003C003D003E003F004000AC
:10027000410042004300440045000100010001002C
:100280000100010001000100010001000100010066
:100290000100C35C01000100010001000100010038
:1002A000010001000100C85CC75CC95C00000100DE
:1002B00001000100035100000000010000000100E6
:1002C0000100C65CCA5CC55C005C01000100010065
:1002D0000100010001000100010001000100010016
:1002E0000100010001000100010001000100010006
:1002F00001000100010001000100010001000100F6
:1003000001000100010001000100010001000100E5
:1003100001000100000001000100010001000000D7
:1003200000000100000001000100010001000100C7
:1003300001000100010001000100010001000100B5
:1003400001000100010001000100010001000100A5
:100350000100010001000100010001000100010095
:100360000100010001000100010001000100010085
:100370000100010001000100010001000000010076
:100380000100010001000000000001000000010068
:100390000100010001000100010001000100010055
:1003A0000100010001000100010001000100010045
:1003B0000100010001000100010001000100010035
:1003C0000100010001000100010001000100010025
:1003D0000100010001000100010001000100010015
:1003E0000100010000000100010001000100000007
:1003F00000000100000001000100010001000100F7
:1004000001000100010001000100010001000100E4
:1004100001000100010001000100010001000100D4
:1004200001000100010001000100010001000100C4
:1004300001000100010001000100010001000100B4
:1004400001000100010001000100010000000100A5
:100450000100010001000000000001000000010097
:100460000100010001000100010001000100010084
:100470000100010001000100010001000100010074
:100480000100010001000100010001000100010064
:100490000100010001000100010001000100010054
:1004A0000100010001000100010001000100010044
:1004B0000100010000000100010001000100000036
:1004C0000000010000000100010001000100010026
:1004D0000100010001000100010001000100010014
:1004E0000100010001000100010001000100010004
:1004F00001000100010001000100010001000100F4
:1005000001000100010001000100010001000100E3
:1005100001000100010001000100010000000100D4
:1005200001000100010000000000010000000100C6
:1005300001000100010001000100010001000100B3
:1005400001000100010001000100010001000100A3
:100550000100010001000100010001000100010093
:100560000100010001000100010001000100010083
:100570000100010001000100010001000100010073
:100580000100010000000100010001000100000065
:100590000000010000000100010001000100010055
:1005A0000100010001000100010001000100010043
:1005B0000100010001000100010001000100010033
:1005C0000100010001000100010001000100010023
:1005D0000100010001000100010001000100010013
:1005E0000100010001000100010001000000010004
:1005F00001000100010000000000010000000100F6
:1006000001000100010001000100010001000100E2
:1006100001000100010001000100010001000100D2
:1006200001000100010001000100010001000100C2
:1006300001000100010001000100010001000100B2
:1006400001000100010001000100010001000100A2
:100650000100010000000100010001000100000094
:100660000000010000000100010001000100010084
:100670000100010001000100010001000100010072
:100680000100010001000100010001000100010062
:100690000100010001000100010001000100010052
:1006A0000100010001000100010001000100010042
:1006B0000100010001000100010001000000010033
:1006C0000100010001000000000001000000010025
:1006D0000100010001000100010001000100010012
:1006E0000100010001000100010001000100010002
:1006F00001000100010001000100010001000100F2
:1007000001000100010001000100010001000100E1
:1007100001000100010001000100010001000100D1
:1007200001000100000001000100010001000000C3
:1007300000000100000001000100010001000100B3
:1007400001000100010001000100010001000100A1
:100750000100010001000100010001000100010091
:100760000100010001000100010001000100010081
:100770000100010001000100010001000100010071
:100780000100010001000100010001000000010062
:100790000100010001000000000001000000010054
:1007A0000100010001000100010001000100010041
:1007B0000100010001000100010001000100010031
:1007C0000100010001000100010001000100010021
:1007D0000100010001000100010001000100010011
:1007E0000100010001000100010001000100010001
:1007F00001000100000001000100010001000000F3
:1008000000000100000001000100010001000100E2
:1008100000047F3F1F643214643214783C1E1E149F
:100820000A056801F000B40078005A0000000000DA
:1008300000010101010101010101020202020202A3
:100840000202020303030303030303040404040476
:100850000405050505050606060606070707070839
:100860000808080909090A0A0A0A0B0B0B0C0C0CE8
:100870000D0D0D0E0E0F0F0F10101111111212137E
:10088000131414151516161717181819191A1A1BF8
:100890001C1C1D1D1E1F1F20202122222324252554
:1008A00026272728292A2B2B2C2D2E2F2F3031328B
:1008B00033343536363738393A3B3C3D3E3F40419C
:1008C000424344464748494A4B4C4D4F505152537E
:1008D000555657585A5B5C5E5F6062636466676931
:1008E0006A6C6D6E707173747678797B7C7E8081B2
:1008F000838486888A8B8D8F91929496989A9B9DFB
:100900009FA1A3A5A7A9ABADAFB1B3B5B7B9BBBD07
:10091000BFC1C4C6C8CACCCFD1D3D6D8DADCDFE1D8
:10092000E4E6E8EBEDF0F2F5F7FAFCFF0403300043
:10093000000012036B006500790062006F00610027
:10094000720064000000160371006D006B0062000D
:10095000750069006C00640065007200000004030B
:10096000090409023B00020100A0FA090400000189
:100970000301010009211101000122400007058146
:100980000308000A09040100010300000009211105
:1009900001000122C0000705820320000A12011095
:1009A0000100000008EDFE60600100010203010586
:1009B000010902A10185020901A100050919012906
:1009C00005150025019505750181029501750381C5
:1009D000010501093009311581257F9502750881CE
:1009E0000609381581257F950175088106050C0AD1
:1009F00038021581257F950175088106C0C0050163
:100A00000980A10185031601002603001A81002A2E
:100A10008300751095018100C0050C0901A10185B5
:100A200004160100269C021A01002A9C02751095EA
:100A3000018100C005010906A1018505050719E02E
:100A400029E715002501950875018102050819019E
:100A50002905950575019102950175039101050719
:100A6000190029EF1500250195F075018102C005D7
:100A7000010906A101050719E029E71500250195DF
:100A80000875018102950175088101050819012980
:100A900005950575019102950175039101050719E9
:100AA0000029FF150026FF00950675088100C0008B
:100AB00011241FBECFEFDAE0DEBFCDBF04B603FEC8
:100AC00027C08091820290918302A0918402B0910C
:100AD00085028730904BA740B04BD1F41092820230
:100AE00010928302109284021092850214BE84B781
:100AF000877F84BF0FB6F894A895809160008861C5
:100B000080936000109260000FBEE0E0F8E309956A
:100B100011E0A0E0B1E0EEECFFE502C005900D921F
:100B2000A233B107D9F722E0A2E3B1E001C01D92E0
:100B3000A238B207E1F70E94AF260C94E52F0C947F
:100B40000000259A2D98269A2E98279A2F98089576
:100B5000089561FF02C02F9A0AC062FF02C02F9859
:100B600003C063FF03C02F9A2E9A08952F982E98E2
:100B7000089581FF02C02D9A08952D98089581E06F
:100B8000089581E008950C94C1050E943D1F8111D4
:100B900002C00E94C11F0C94E30A0C94E50A0C9455
:100BA000B9050C94CF0508950E94A9180E94D30599
:100BB0002FEF84E39CE0215080409040E1F700C09B
:100BC00000000C943721FF920F931F93CF93DF9374
:100BD0008C01FC01C081D18180917A01811113C007
:100BE0008281882349F0CE010E940B1EF82E682FC7
:100BF000CE010E94B41D04C0CE010E94DF1DF82E5C
:100C0000BE018F2D04C0CE010E940B1EBE010E94AA
:100C10006D08EC01B8010E94C305882309F452C293
:100C2000CC3CFCE5DF0709F4E1C0E8F5C43C9CE5F9
:100C3000D90709F4A5C0F8F4C531FCE5DF0778F45D
:100C4000C2308CE5D80708F052C1C1159CE5D90720
:100C500009F467C0C130DC4509F46BC026C2C23C50
:100C6000FCE5DF0709F478C008F07EC0C631DC453A
:100C700009F4F4C11AC2F8018281C83CFCE5DF071F
:100C800009F49CC040F4C63CECE5DE0709F48AC0D8
:100C900008F482C08DC0CA3C9CE5D90709F49AC00B
:100CA00008F492C09DC0C43DFCE5DF0709F4F8C01C
:100CB000C0F4F8018281C03DFCE5DF0709F4BFC044
:100CC00040F4CE3CECE5DE0709F49DC008F496C084
:100CD000A8C0C23D9CE5D90709F4CFC008F4BFC045
:100CE000DAC0C93DFCE5DF0709F49DC160F4C73DEA
:100CF0009CE5D90709F44DC108F06EC1C53DDC453E
:100D000009F4DEC0D2C1CD3D8CE5D80709F4E6C0B8
:100D1000CE3D9CE5D907C1F0CC3DDC4509F0C5C10D
:100D2000D6C0F8018281882309F4CCC10E94D40581
:100D3000C9C1F8018281882309F4C4C180910302EA
:100D4000816080930302BEC1F8018281882309F487
:100D5000B9C10E94C11FB6C1F8018281882309F47C
:100D6000B1C10E94AB0FAEC1F8018281882309F4A2
:100D7000A9C10E948C1E827261F00E94470FA2C11D
:100D8000F8018281882309F49DC10E948C1E827221
:100D9000A1F30E94390F96C1882309F493C10E94E0
:100DA0003D0E90C1882309F48DC10E94600E8AC156
:100DB000882309F487C10E94800E84C1882309F426
:100DC00081C10E94A00E7EC1882309F47BC10E94CC
:100DD000C00E78C1882309F475C10E94E00E72C16B
:100DE000882309F46FC10E94FF0C6CC1F801828155
:100DF000882309F467C10E94140D64C1882309F493
:100E000061C181E029C0882309F45CC10E94F60C0D
:100E1000823028F00E94F60C853008F4BACF82E0C8
:100E20001BC0882309F44EC10E94F60C863028F0BE
:100E30000E94F60C883008F4ACCF86E00DC0882301
:100E400009F440C10E94F60C893028F00E94F60C8B
:100E50008E3008F49ECF89E00E944A0F33C1882368
:100E600009F430C10E94F60C8F3028F00E94F60C75
:100E7000843108F48ECF8FE0EFCF882309F422C1AC
:100E80000E94F60C853128F00E94F60C873108F498
:100E900080CF85E1E1CF882309F414C188E1DCCF5C
:100EA000F8018281882309F40DC10E94F60C893172
:100EB00028F00E94F60C823208F46BCF89E1CCCF87
:100EC000F8018281882309F4FDC083E2C5CFF801CF
:100ED0008281882309F4F6C080E006C0F80182818F
:100EE000882309F4EFC082E00E944E27EBC0F8018E
:100EF0008281882309F4DEC00E943D1F811102C057
:100F00000E94C11F0E945A1F90E090937402809328
:100F10007302FE01E350FC45E231F10530F4EA5A78
:100F2000FF4F809173020C948A2F8091730281602D
:100F300027C0826025C0846023C0806121C0806298
:100F40001FC080641DC080681BC08460886018C09A
:100F50008E7F16C08D7F14C08B7F12C08F7E10C015
:100F60008F7D0EC08F7B0CC08F770AC08B7F877FF1
:100F700007C087FB222720F991E0922790FB87F991
:100F800080937302809173020E945E1F0E94A918D1
:100F900099C0F8018281882351F0109237010E9494
:100FA000DB20909334018093330182E022C0809152
:100FB000370181110FC080913301909134010E945B
:100FC000E720883C910530F486E20E946D1486E2A9
:100FD0000E948B1582E024C0F8018281882361F091
:100FE000109238010E94DB209093360180933501E6
:100FF00080E20E94F31566C08091380181110FC014
:1010000080913501909136010E94E720883C91053E
:1010100030F487E20E946D1487E20E948B1580E213
:101020000E94FA154FC0F80182818111D9CF8091B9
:1010300038018111F4CF80913501909136010E94E1
:10104000E720883C910558F780E20E94FA1588E273
:101050000E946D1488E20E948B1534C00E948C1E81
:10106000982FF801828120910D0130910E01882383
:1010700079F09A7A81E009F480E08093320191114D
:1010800002C069E201C065E3C9010E9429200AC0CB
:1010900080913201811102C069E201C065E3C9019A
:1010A0000E9434200E94DA1E0DC081E08093370137
:1010B00080933801C801DF91CF911F910F91FF906C
:1010C0000C94BF0580E0DF91CF911F910F91FF90AD
:1010D000089580E090E00895089524E3829FC00180
:1010E0001124FC012DE0729FE00DF11D1124E60F8B
:1010F000F11DEE0FFF1FE057FE4F8591949108956B
:10110000880F991FFC01E05FF74F85919491089536
:10111000CF93DF930E946D080E94440AEC01811571
:10112000904508F041C0C11580E4D80708F028C1F7
:10113000C83ED10510F5C03ED10508F0A1C1C83A9E
:10114000D10578F4C53AD10508F0A2C0C130D10567
:1011500009F496C108F447C1C430D10508F090C124
:1011600042C1CF3BD10508F49EC0C03CD10508F474
:101170003AC1CE01805C9109F5C0C11590E2D90752
:1011800058F4C11521E0D20708F07AC1C03FD1055B
:1011900008F429C1D06574C1C11580E3D80708F0EF
:1011A000E5C0CE019F70DEC0C11595E5D90708F0F6
:1011B00043C0C11524E5D20708F0F9C0C11582E586
:1011C000D80708F5C11591E5D90708F0DCC0CE01B4
:1011D00074E0969587957A95E1F783709C2F9370CC
:1011E00021E030E002C0220F331F9A95E2F73C68FD
:1011F000382BCF70C695C69580E2C89FE0011124B8
:10120000C22BD32B3DC19E01237033278C2F869593
:101210008695C115D34508F0BBC0C1E0D0E002C03F
:10122000CC0FDD1F2A95E2F720E2829FC001112436
:10123000C82BD92BDC6824C1C11529E5D207A0F43D
:10124000C11588E5D80708F0B7C0C11596E5D907DC
:1012500008F0C9C08C2F0E94C00A8F71C82FD0E03F
:10126000DC2FCC27D0620CC1C1152AE5D20708F4C7
:10127000A8C0CE0190568115904208F0B4C08D2FC1
:101280008F710E94C00ADD27D0628F71D82BF8C001
:10129000C53AD10509F4AAC0C63AD10509F0A9C0DA
:1012A000C2E8D0E4EDC0C83AD10509F4A5C0C93AF6
:1012B000D10509F4A4C0CA3AD10509F4A3C0CB3AB8
:1012C000D10509F4A2C0CC3AD10509F4A1C0CB3BA9
:1012D000D10509F4A0C0CC3BD10509F49FC0CD3A9B
:1012E000D10509F49EC0C03BD10509F49DC0CE3A9A
:1012F000D10509F49CC0CF3AD10509F49BC0C13B8C
:10130000D10509F49AC0C23BD10509F499C0C33B89
:10131000D10509F498C0C43BD10509F497C0C53B79
:10132000D10509F496C0C63BD10509F495C0C73B69
:10133000D10509F494C0C83BD10509F493C0C93B59
:10134000D10509F492C0CD3BD10509F491C0CE3B43
:10135000D10509F490C0CA3BD10509F48FC0C0E0A3
:10136000D4E48EC00E948008EC018AC0CE01992787
:10137000D3FF03C0EC01D86C83C0EC01D06C80C0FB
:10138000DF70D06A7DC0DC2FCC27C16FD06A78C0F7
:10139000C1E0D0E002C0CC0FDD1F2A95E2F720E2C9
:1013A000829FC0011124C82BD92BDA6869C0DC2FB9
:1013B000CC27C46FD06A64C0DC2FCC27C06FD06A42
:1013C0005FC08C2F8F700E94C00A94E0D695C7959D
:1013D0009A95E1F7CF70D0E0DC2FCC27D06A8F70E0
:1013E000806EC82B4DC0C0E0D0E04AC0C1E8D0E458
:1013F00047C0C3E8D0E444C0C2EED4E441C0C9EE63
:10140000D4E43EC0CAEED4E43BC0C5EBD4E438C05B
:10141000C6EBD4E435C0C3EBD4E432C0C4EBD4E4AF
:101420002FC0C7EBD4E42CC0CCECD4E429C0CDEC65
:10143000D4E426C0C3E8D5E423C0CAE8D5E420C07C
:10144000C2E9D5E41DC0C4E9D5E41AC0C1E2D6E4BE
:1014500017C0C3E2D6E414C0C4E2D6E411C0C5E2AA
:10146000D6E40EC0C6E2D6E40BC0C7E2D6E408C09C
:10147000CFE6D4E405C0C0E7D4E402C0CAE2D6E4B3
:10148000CE01DF91CF9108958238910549F1B0F4F2
:101490008133910509F459C048F48932910509F462
:1014A0004FC08A32910509F455C0089585339105DE
:1014B00009F441C08933910599F00895833E91055F
:1014C00031F138F4803E910591F0823E9105A9F00A
:1014D0000895863E910501F1873E910539F1089501
:1014E0002091730220FD3BC021FD39C008958091F9
:1014F000730280FF34C089E341C08091730282FF90
:1015000030C08091730284FD2EC083EE37C080917D
:10151000730282FD26C0F5CF8091730283FF25C040
:101520008091730284FD1FC087EE28C080917302F2
:1015300083FD1BC0F5CF8091730285FD18C019C0D3
:101540008091730285FD15C012C08091730286FDE3
:1015500012C013C08091730286FD0FC00CC080EED4
:101560000DC082EE0BC080E009C086EE07C089E2A4
:1015700005C085E303C08AE201C081E390E00895DD
:101580009091730292FF0DC0282F2871283019F412
:10159000877F846006C0282F2471243011F48B7F4C
:1015A000886093FF0DC0282F2871283119F4877E99
:1015B000846106C0282F2471243111F48B7E886148
:1015C00094FD877E08950C94A1050C94A805ADE2C6
:1015D000B1E041E351E061E070E08D91E82FE295E8
:1015E000EF70F0E091A18F709B0101C0220F8A95EE
:1015F000EAF7822F8095892381A34A175B0769F751
:10160000A0E2B1E041E050E08D91E82FE295EF706B
:10161000F0E021A18F70BA0102C0660F771F8A9592
:10162000E2F7CB01962F9095922391A392A1892B5B
:1016300082A371E0AD32B70739F7109242011092E0
:10164000410110923A011092390110924401109216
:10165000430110923C0110923B01109246011092FE
:10166000450110923E0110923D01109248011092E6
:1016700047011092400110923F0184E00E94EB0B61
:101680000C94C5052F923F925F926F927F928F923A
:101690009F92AF92BF92CF92DF92EF92FF920F9301
:1016A0001F93CF93DF932DE2222E21E0322EA1E46F
:1016B000B1E039E4632E31E0732E20E001E010E068
:1016C0006D018D909C90119711961C921E92E101D4
:1016D00089911E01E82FE295EF70F0E031A18F7043
:1016E000A80102C0440F551F8A95E2F7CA01342BA6
:1016F00031A342A1382F3095432342A350EA5A9593
:10170000F1F790E2E92E91E0F92E40E050E0E70198
:1017100059907E01652D62956F7070E0EB0168A1B4
:10172000AD90BC90119770E0D52DDF7002C075951B
:101730006795DA95E2F760FD08C0B801042E02C093
:10174000660F771F0A94E2F702C060E070E06A2932
:101750007B2911967C936E934F5F5F4F4D305105FF
:10176000B1F691A1392331A392A1892B82A31296BC
:1017700081E0F601408151814815590509F480E066
:10178000282B6A167B0609F09BCF44E069E371E0E1
:1017900081E491E00E94EC0B0E94CD0581E0DF9195
:1017A000CF911F910F91FF90EF90DF90CF90BF905E
:1017B000AF909F908F907F906F905F903F902F9011
:1017C0000895E82FF0E0EE0FFF1FE75CFE4F8081E9
:1017D0009181089508950895FF920F931F93CF93D9
:1017E000DF93F82E092F162FD72FC42F222349F06D
:1017F00081E080934B010E94DB2090934A0180930B
:10180000490180914B018823D9F080914901909141
:101810004A010E94E720069798F0EF2DF02FA12FA4
:10182000BD2F80E090E04C2F50E08417950734F4F2
:10183000219131912D933D930196F7CF10924B0159
:10184000DF91CF911F910F91FF900895EF92FF923A
:101850000F931F93CF93DF93E901662309F44BC0E5
:10186000242F30E0EFEFF0E0E61BF109B901E69F2D
:101870009001E79F300DF69F300D1124232F8B012F
:10188000031B11095CE3E52EF12CB7010E94622FC6
:10189000FB01BC01069FC001079F900D169F900D94
:1018A0001124B7010E94622FE230F105B1F040F43B
:1018B000309779F0319711F5832F242F461B21C0E3
:1018C000E430F105A1F068F03597C1F4842F861B50
:1018D00018C0832F262F230F14C0862F830FE42FC9
:1018E00003C0E42FE61B842F432F2E2F0AC0842F22
:1018F000462F430F06C0842F242F03C080E020E032
:1019000040E0E42FF0E0E45DF74F4491E22FF0E097
:10191000E45DF74F9491E82FF0E0E45DF74FE49138
:1019200049839883EA83DF91CF911F910F91FF90B4
:10193000EF90089580913202282F26952F7330E082
:101940002115310519F48178826005C025323105F1
:1019500024F0817888648093320230913202432FE0
:10196000441F4427441F20913302522F550F852FC7
:10197000842B27FB992790F9893641E094077CF066
:1019800068E671E00E94762F80FB37F930933202CF
:1019900086952078822B90FB87F9809333020895F7
:1019A00088E090E00C94A52FCF92DF92EF92FF9207
:1019B0006B017C010E949A0CB701A60188E090E0BF
:1019C000FF90EF90DF90CF900C94C32FE2E3F2E012
:1019D00083E08083109233028FEF828383831482AB
:1019E00060817181828193810C94D40C8091320248
:1019F00080FF03C086958F73089580E008958091DD
:101A0000360290E001968430910514F083E090E076
:101A100080933602609132027091330280913402D9
:101A2000909135020C94D40C8091360290E001978D
:101A300097FF02C080E090E08430910514F083E0CD
:101A400090E080933602609132027091330280916F
:101A50003402909135020C94D40C8091320280FFB4
:101A600006C062E170E087E392E00C94F212E7E3D3
:101A7000F2E0118210821282339682E0ED36F8078E
:101A8000C1F7EFCF9091320290FF0CC0E7E3F2E094
:101A9000818360834283339692E0ED36F907C1F784
:101AA0000C942D0D0895CF93DF9300D01F92CDB7E6
:101AB000DEB72091320220FF0AC09E012F5F3F4F08
:101AC0000E94260C4B8169818A810E94420D0F90F1
:101AD0000F900F90DF91CF9108955F926F927F9258
:101AE0008F929F92AF92BF92CF92DF92EF92FF922E
:101AF0000F931F93CF93DF9300D01F92CDB7DEB724
:101B00008C01E62EF42E522E8091320280FF89C085
:101B1000982F9E77923061F49E012F5F3F4FC8014E
:101B20000E94260C4B8169818A810E94420D59C016
:101B3000E82FE695EF739EE39E0F9F73943018F4A1
:101B4000F09035024EC09AE39E0F9F73993068F46F
:101B5000881F8827881F90913302292F220F022F78
:101B6000082B97FB112710F93CC087E28E0F8F736B
:101B70008A30B8F5F0E07997E0FD02C021E001C0BD
:101B80002FEFEE7FEE5DF74F8591949162E170E06B
:101B90000E94622F26034001279F900C11245801B8
:101BA00088E9A81A8EEFB80A87E3C82E82E0D82EFB
:101BB00098E6692E77247394C501B3010E94622FC1
:101BC00096014F2D6E2D0E94260CA80CB91C83E0A7
:101BD000C80ED11C8DE6C81682E0D80669F70E94AF
:101BE0002D0D8091320200FB87F980933202902FF5
:101BF0009695809133028078892B10FB87F980932A
:101C00003302E0923402F0923502552051F0609197
:101C100032027091330280913402909135020E9419
:101C2000D40C0F900F900F90DF91CF911F910F91D7
:101C3000FF90EF90DF90CF90BF90AF909F908F90EC
:101C40007F906F905F900895282FE2E3F2E030815B
:101C5000331F3327331F40913302542F550F852FE5
:101C6000832B47FB992790F9089668E671E00E945C
:101C7000762F438162810C946D0D81E00C94240ECB
:101C8000282F30913202331F3327331F4091330204
:101C9000542F550F852F832B47FB992790F98830B8
:101CA00091051CF4805A9E4F05C0089768E671E0C4
:101CB0000E94762F40913502609134020C946D0D94
:101CC00081E00C94400E60913402262F30E0283FD2
:101CD000310514F4685F01C06FEF30913202331F99
:101CE0003327331F90913302592F550F97FB9927B4
:101CF00090F9282F40913502852F832B0C946D0D80
:101D000081E00C94630E60913402262F30E028307D
:101D1000310514F0685001C060E030913202331F89
:101D20003327331F90913302592F550F97FB992773
:101D300090F9282F40913502852F832B0C946D0D3F
:101D400081E00C94830E40913502242F30E0283F2F
:101D5000310514F4485F01C04FEF30913202331F58
:101D60003327331F90913302592F550F97FB992733
:101D700090F9282F60913402852F832B0C946D0DE0
:101D800081E00C94A30E40913502242F30E02830DE
:101D9000310514F0485001C040E030913202331F49
:101DA0003327331F90913302592F550F97FB9927F3
:101DB00090F9282F60913402852F832B0C946D0DA0
:101DC00081E00C94C30E20E00C946D0DCF939091A4
:101DD000320290FF40C09178811102C0926007C02A
:101DE000853210F0986403C08F73880F982B9093FE
:101DF0003202662351F06091320270913302809179
:101E00003402909135020E94D40CC09132026C2FA2
:101E100066956F7370E04BE050E082E091E00E94C5
:101E2000902F892B19F01092690103C081E08093F3
:101E30006901CC1FCC27CC1F90913302892F880FCA
:101E400097FB992790F940913502609134028C2BD1
:101E5000CF910C94E30ECF910895682F90913202A8
:101E600096959F7381E0890F853208F081E00C948C
:101E7000E60E81E00C942D0F682F9091320296951A
:101E80009F738FEF890F09F484E20C94E60E81E0D2
:101E90000C943C0F61E00C94E60EE2E3F2E08081EA
:101EA0008160808386958F730C944A0F60E00C9458
:101EB000E60E80916A01811135C080910302816034
:101EC000809303020E943D1F811104C00E94C11F24
:101ED0000E94E60C0E94D00C609332027093330291
:101EE00080933402909335026E7761F40E94E60C81
:101EF0000E94D00C609332027093330280933402BC
:101F0000909335020E949A0C81E080936901809140
:101F1000320280FF04C086958F730E94560F81E0C5
:101F200080936A010895E2E3F2E080818E7F8083EE
:101F300060817181828193810E94D40C1092690129
:101F40002FEF80E792E0215080409040E1F700C001
:101F500000000C942D0D8091320280FD0C94930FA3
:101F60000C944D0FCF93E82FF0E0E25EF74FC49151
:101F700080916701909168010E94E720EC2FF0E0CA
:101F80008E179F0708F443C00E94DB2090936801DE
:101F9000809367016091660170E080E090E00E94AC
:101FA000632D20E030E04FE753E40E94862C2BEDB8
:101FB0003FE049E450E40E948C2E0E94F92E0E94DA
:101FC000002D2BE43AE34EE25FE30E94192C20EF50
:101FD0003BEF48ED52E40E948C2E0E94322D462F9A
:101FE00080913202881F8827881F90913302292F01
:101FF000220F97FB992790F960913402822B0E945F
:10200000530D8091660190E0019680936601CF9117
:102010000895CF93E82FF0E0E55EF74FC4918091EB
:102020006401909165010E94E720EC2FF0E08E178B
:102030009F07E8F00E94DB20909365018093640184
:102040004091350260913402809162019091630168
:102050000E94530D8091620190916301019668E6A0
:1020600071E00E94622F9093630180936201CF918F
:102070000895CF92DF92FF920F931F93CF93DF9338
:10208000F82EE82FE695F0E0E85EF74FC4918091D6
:102090006001909161010E94E720EC2FF0E08E1723
:1020A0009F07B8F10E94DB2090936101809360014B
:1020B00007E312E0C0E0D0E088E6C82EDD24D39428
:1020C00080915E0190915F018C0F9D1FB6010E946F
:1020D000622F980140913502609134020E94260CD3
:1020E00064960D5F1F4FC83681E0D80749F70E94FC
:1020F0002D0D80915E0190915F01F0FE05C001966B
:10210000BE010E94622F01C0019790935F018093EE
:102110005E01DF91CF911F910F91FF90DF90CF90E3
:102120000895CF92DF92EF92FF920F931F93CF9378
:10213000DF9380FF02C01FEF01C011E08695E82FFA
:10214000F0E0EB5EF74FC49180915C0190915D01EE
:102150000E94E720EC2FF0E08E179F0708F45BC089
:102160000E94DB2090935D0180935C0127E3E22EC7
:1021700022E0F22EC0E0D0E0F7011182108212823C
:1021800094E0C92ED12C00E080915B01800F87FD87
:102190008E5E082E000C990BC817D907E9F48091C0
:1021A00035028C9DA0018D9D500D112455954795AC
:1021B0005595479580913202881F8827881F9091F6
:1021C0003302592F550F97FB992790F9970160918A
:1021D0003402852B0E94260C010FF1E0CF1AD108A2
:1021E00099F6219683E0E80EF11CC231D10521F663
:1021F0000E942D0D80915B01113031F4811102C0DC
:1022000081E107C0815005C090E00196BE010E94A7
:10221000762F80935B01DF91CF911F910F91FF90FB
:10222000EF90DF90CF9008950F931F93CF93DF939C
:10223000E82FF0E0EE5EF74FC49180915901909144
:102240005A010E94E720EC2FF0E08E179F0708F458
:1022500056C00E94DB2090935A0180935901C7E336
:10226000D2E0FE01118210821282339682E0ED36B6
:10227000F807C1F700E010E080915801082E000C2B
:10228000990B08171907ECF080910101082E000C3A
:10229000990B80179107ACF080913202881F882734
:1022A000881F90913302592F550F97FB992790F96A
:1022B0009E014091350260913402852B0E94260CCC
:1022C00003C0198218821A820F5F1F4F23960231B2
:1022D000110591F60E942D0D8091000190915801F9
:1022E000980F9093580120910101280F209301012C
:1022F000121614F491311CF0819580930001DF9146
:10230000CF911F910F910895EF92FF920F931F931A
:10231000CF93DF9380915601909157010E94E7205F
:10232000883E9340D0F10E94DB2090935701809328
:102330005601C0915401D09155012196C170DD27FD
:10234000D0935501C093540187E3E82E82E0F82E24
:1023500010E008E7812F8695FE01E80FF11DCF01FF
:102360008170992797014091350260913402FC01F8
:102370000E9FC0010F9F900D11240E94260C1F5F1D
:10238000F3E0EF0EF11C123129F7DF91CF911F918D
:102390000F91FF90EF900C942D0DDF91CF911F9135
:1023A0000F91FF90EF900895CF93DF9300D01F928D
:1023B000CDB7DEB780915201909153010E94E72082
:1023C000E0E1F8E02591349182179307C0F1809104
:1023D000510181110CC09E012F5F3F4F4FEF6FEFF6
:1023E00080E090E00E94260C8A81809351010E9437
:1023F000DB209093530180935201809150018130F2
:1024000051F028F0823061F4409151010AC080916E
:10241000510140E007C06091510140E080E003C0FD
:1024200040E080E060E00E94420D8091500190E029
:10243000019663E070E00E94762F809350010F9028
:102440000F900F90DF91CF9108950F931F93CF932B
:10245000DF9380914E0190914F010E94E720843FCD
:10246000914008F448C00E94DB2090934F01809374
:102470004E01C7E3D2E000E010E020914C01309122
:102480004D018091320290913302093011051CF404
:10249000232B79F002C0232B61F4881F8827881F23
:1024A000592F550F97FB992790F99E0140913502BE
:1024B0000AC0881F8827881F592F550F97FB992717
:1024C00090F99E0140E060913402852B0E94260C19
:1024D0000F5F1F4F23960231110579F60E942D0DD3
:1024E00080914C0190914D010196817099279093B4
:1024F0004D0180934C01DF91CF911F910F91089571
:10250000809169018823D9F190913202892F8695B3
:102510008F732EE3280F2F73243018F482500C94FD
:10252000B20F2AE3280F2F73233018F486500C942F
:10253000091027E3280F2F73263018F489500C94C4
:10254000391021E3280F2F73263018F48F500C9484
:1025500091102BE2280F2F73233018F485510C941F
:102560001411892F8E77803311F40C9484118634E2
:1025700011F40C94D411883411F40C94251208959C
:1025800021B3342F3095232331B3432B3FB7F89435
:10259000FC01680F791FE617F70789F0819198E031
:1025A00041BB000000C087FF21BB880F000000C0B6
:1025B00000C000C021BB00C09A9591F7ECCF3FBF8F
:1025C000089520B3242B20BB9B01220F331F620FE1
:1025D000731F0E94C01287EC90E00197F1F700C0D2
:1025E0000000089540E80C94E112909370018093EC
:1025F0006F010895E0916F01F0917001309721F023
:102600000190F081E02D099480E00895E0916F0140
:10261000F0917001309799F020911F01222359F019
:102620002091730227FF07C0DC012C9111962C9397
:10263000119725E02C930280F381E02D09940895F1
:10264000E0916F01F0917001309739F022E0DC01E8
:102650002C930480F581E02D0994089520916D015B
:1026600030916E012817390771F090936E018093B5
:102670006D01E0916F01F0917001309721F00680BB
:10268000F781E02D0994089520916B0130916C0140
:102690002817390771F090936C0180936B01E091DA
:1026A0006F01F0917001309721F00084F185E02DE9
:1026B0000994089585B7806885BF85B7806885BF10
:1026C000089508950C9461130C9462130C94611393
:1026D0000C9461130E945A130E9466130C946413A5
:1026E00081E008950E94D2200E94E70A0E94A7215B
:1026F0000E94590F0C9468135F926F927F928F9291
:102700009F92AF92BF92CF92DF92EF92FF920F9380
:102710001F93CF93DF93CDB7DEB72A970FB6F89408
:10272000DEBF0FBECDBF0E94420B0E94701381110D
:1027300011C08FEF89838A831B820E94DB20816016
:10274000782F9D838C8349815A816B818D810E9472
:10275000391456C092E7692E91E0792E00E010E01E
:1027600088248394912C502E802F0E94E10B6C01C1
:10277000F301A190B1903F01A826B926A114B1049C
:1027800031F40F5F1F4F0430110569F7D2CF8091EC
:10279000030281FD0E94EA0B80E090E07401082EA4
:1027A00002C0EE0CFF1C0A94E2F795012E213F2196
:1027B000232B09F18E835F82CE20DF2081E0CD289C
:1027C00009F480E088870E94DB208160782F9A8757
:1027D00089874E815F8168858A850E943914000F40
:1027E000111FF801EE58FE4F80819181E826F926ED
:1027F000F182E08205C001968D30910579F6C1CF56
:102800000E944A240E94FA12909171018917D9F00E
:102810000E94FA12809371012A960FB6F894DEBFD7
:102820000FBECDBFDF91CF911F910F91FF90EF9021
:10283000DF90CF90BF90AF909F908F907F906F90E0
:102840005F900C94D1052A960FB6F894DEBF0FBEA8
:10285000CDBFDF91CF911F910F91FF90EF90DF904F
:10286000CF90BF90AF909F908F907F906F905F9030
:102870000895CF93DF93CDB7DEB72B970FB6F894BB
:10288000DEBF0FBECDBF4F83588769877A878B879E
:10289000DE01119686E0FD0111928A95E9F785E047
:1028A000FE01379601900D928A95E1F749815A8190
:1028B0006B817C818D819E810E94791B2B960FB646
:1028C000F894DEBF0FBECDBFDF91CF910895FC011C
:1028D000808191810E944D1E0895882309F41AC1B8
:1028E0008238C1F40E94FA1281FD14C169E380911B
:1028F0000D0190910E010E9429200E94DA1E2FEFF7
:1029000081EE94E0215080409040E1F700C000004B
:1029100069E319C08338F9F40E94FA1280FDFAC005
:1029200063E580910D0190910E010E9429200E9483
:10293000DA1E2FEF81EE94E0215080409040E1F7C5
:1029400000C0000063E580910D0190910E010E948E
:1029500034200C94DA1E8438C1F40E94FA1282FDED
:10296000D9C067E480910D0190910E010E94292049
:102970000E94DA1E2FEF81EE94E0215080409040BB
:10298000E1F700C0000067E4DECF9CEF980F913ABA
:1029900040F4682F80910D0190910E010E94292032
:1029A000D8CF90E2980F983050F4877091E001C032
:1029B000990F8A95EAF7892F0E948F1ECACF9BE54F
:1029C000980F933070F4853A29F0863A31F083E815
:1029D00090E005C081E890E002C082E890E00C94AD
:1029E0002E1398E5980F973108F08EC0883A09F4B5
:1029F00045C0893A09F445C08A3A09F445C08B3A82
:102A000009F445C08C3A09F445C08B3B09F445C034
:102A10008C3B09F445C08D3A09F445C0803B09F46C
:102A200045C08E3A09F445C08F3A09F445C0813B50
:102A300009F445C0823B09F445C0833B09F445C015
:102A4000843B09F445C0853B09F445C0863B09F445
:102A500045C0873B09F445C0883B09F445C0893B24
:102A600009F445C08D3B09F445C08E3B09F445C0CF
:102A70008A3B09F445C080E090E044C082EE90E0DB
:102A800041C089EE90E03EC08AEE90E03BC085EB0D
:102A900090E038C086EB90E035C083EB90E032C028
:102AA00084EB90E02FC087EB90E02CC08CEC90E0A2
:102AB00029C08DEC90E026C083E891E023C08AE82D
:102AC00091E020C082E991E01DC084E991E01AC044
:102AD00081E292E017C083E292E014C084E292E0C7
:102AE00011C085E292E00EC086E292E00BC087E260
:102AF00092E008C08FE690E005C080E790E002C059
:102B00008AE292E00C944413803F20F00E9452230A
:102B10000C943F240895882309F464C0823879F422
:102B20000E94FA1281FF5EC069E380910D019091CD
:102B30000E010E9429200E94DA1E69E310C083382A
:102B4000B1F40E94FA1280FF4DC063E580910D013F
:102B500090910E010E9429200E94DA1E63E5809167
:102B60000D0190910E010E9434200C94DA1E8438DD
:102B700079F40E94FA1282FF35C067E480910D015A
:102B800090910E010E9429200E94DA1E67E4E7CF8F
:102B90009CEF980F913A10F4682FE1CF90E2980FD4
:102BA000983050F4877091E001C0990F8A95EAF748
:102BB000892F0E94951ED9CF9BE5980F933020F462
:102BC00080E090E00C942E1398E5980F973120F454
:102BD00080E090E00C944413803F20F00E94BA23E0
:102BE0000C943F240895882321F00E948F1E0C949A
:102BF000DA1E0895882321F00E94951E0C94DA1E97
:102C000008958F929F92AF92BF92DF92EF92FF92C0
:102C10000F931F93CF93DF937C01D62FC72FFC0117
:102C2000058102950F70128111110E94AC1E0E9445
:102C3000851E882379F0112369F080E28D0F88309A
:102C400048F082E00E94241F0E94851E91E0D82E49
:102C5000D92601C0D12CBC2EB2948FE0B8228B2D86
:102C600090E0FC01E859FF4F0C948A2F8C2F807F55
:102C7000CF70882311F0C295C07F112399F0CC2327
:102C800009F4C3C180E28D0F883010F0D11104C067
:102C90008C2F0E948F1E03C08C2F0E949F1E0E94AB
:102CA000DA1EB3C18D2F0E948B15CC2309F4D2C13B
:102CB00080E28D0F883010F0D11104C08C2F0E945B
:102CC000951E03C08C2F0E94A51E0E94DA1EC2C151
:102CD0008C2F807FCF70803211F0C295C07FDD23B2
:102CE00019F0D130C9F022C0112371F0002341F056
:102CF000013031F40E94BF1E8C2B0E94C71EAAC156
:102D00000E94BF1E8C2B3AC1002319F0013009F438
:102D1000A1C10E94D01E18C0112321F0063008F076
:102D200099C10EC0053008F095C10EC0112351F0B5
:102D3000002331F0F701858180FF67C18F708583A3
:102D40008C2F1CC1011172C18C2F1EC18C2F869536
:102D50008695837019F0813061F07CC1112321F0D8
:102D60008D2F9C2F937002C080E090E00E942E1364
:102D70007EC1112321F08D2F9C2F937002C080E023
:102D800090E00E94441373C11123F9F0D53F51F034
:102D9000D63F71F0D43FA9F480916D0290916E02FC
:102DA00081600BC080916D0290916E02826005C0BF
:102DB00080916D0290916E02846090936E02809378
:102DC0006D028D2F0E9452231EC0D53F51F0D63F79
:102DD00071F0D43FA9F480916D0290916E028E7FC4
:102DE0000BC080916D0290916E028D7F05C0809125
:102DF0006D0290916E028B7F90936E0280936D02B4
:102E00008D2F0E94BA230E943F2431C18C2F8370E2
:102E100009F04CC0111127C12D2F2295269527703E
:102E2000220F220F6D2F6F70862F90E0A0E0B0E090
:102E30004C015D01022E04C0880C991CAA1CBB1C0D
:102E40000A94D2F7D4FF12C08FE090E0A0E0B0E087
:102E500004C0880F991FAA1FBB1F2A95D2F7BC0177
:102E6000CD01609570958095909503C060E070E00D
:102E7000CB01C695C695C370C23051F080F4682965
:102E800079298A299B29C13071F00E94CA1CEBC0A4
:102E9000682979298A299B290E94DC1CE4C00E94A8
:102EA000CA1CC501B4010E94B81CDDC0112319F071
:102EB0008C2F817001C08695882309F4D4C02D2FF2
:102EC000229526952770220F220F6D2F6F70862F67
:102ED00090E0A0E0B0E04C015D01022E04C0880C3F
:102EE000991CAA1CBB1C0A94D2F7D4FF12C08FE015
:102EF00090E0A0E0B0E004C0880F991FAA1FBB1F9C
:102F00002A95D2F7BC01CD0160957095809590957A
:102F100003C060E070E0CB01C695C695C370C230B7
:102F200051F080F4682979298A299B29C13071F0F0
:102F30000E948F1D98C0682979298A299B290E949F
:102F4000A11D91C00E948F1DC501B4010E947D1D6D
:102F50008AC08D2F90E0FC01E05EF109E531F105BA
:102F600008F04FC0E858FF4F0C948A2FDF708C2F69
:102F70008F71112331F00E94161D8D2F0E94F315C1
:102F800069C00E94371D8D2F0E94FA1563C011235E
:102F900041F0053008F05EC08C2F8F710E945C1DDF
:102FA00059C0063008F056C0F7CF112339F08C2FE6
:102FB0008F710E94161D4EC01123C9F38C2F8F7183
:102FC0000E94371D47C0112329F08C2F8F710E945A
:102FD000011D40C00E94FC1C3DC0112349F0CF716F
:102FE0008C2F0E94161D63E08C2F0E940F1F32C091
:102FF00081E00E94241F023068F182E00E94241FB9
:1030000029C0112331F0002391F28D2F0E946D14FD
:1030100021C0002399F2D93349F4FFEF27EE83E072
:10302000F15020408040E1F700C000008D2F0E9449
:103030008B1510C04C2F4F706D2FC7010E9469086F
:103040000E94271C14C04C2F4F706D2FC7010E9487
:103050006C080DC098E0B91631F0B91640F086EF53
:103060008B0D823020F40E94FA120E94D105DD20DF
:10307000E1F00E94811E80FD18C0F70112820E94BB
:103080007B1E0E94161DC7010E9461180E947B1EB4
:10309000DF91CF911F910F91FF90EF90DF90BF9044
:1030A000AF909F908F900C94371DDF91CF911F911F
:1030B0000F91FF90EF90DF90BF90AF909F908F9017
:1030C00008950F931F93CF93DF93EC01988189812B
:1030D0002B813C81232B31F08F3F31F481E09F3FE6
:1030E00019F403C081E001C080E080FD13C0CE016F
:1030F0000E94E305882371F0688179818A810E94AA
:10310000581E8C010E94B31D0E94A41CB801CE0160
:103110000E940116DF91CF911F910F9108950E9497
:10312000AC1E0E94BC1E0E94DA1E0E94E1240E9476
:103130003F2480E090E00E942E1380E090E00C9409
:10314000441380910D0190910E010E943F200C9438
:103150008F180E949C1E0C94A118E92FE295EF7025
:103160004E2F50E0FA013297EE30F105B0F4E357FC
:10317000FF4F0C948A2F803F91F018F4803E68F442
:103180000EC0843F51F40BC0803E48F0813F29F4CB
:1031900006C093FB882780F9089580E0089581E0B8
:1031A00008950E944D1E0E94AD180895CF93DF939D
:1031B00000D000D01F92CDB7DEB70F900F900F90C8
:1031C0000F900F90DF91CF910895CF93DF9300D0B0
:1031D00000D000D0CDB7DEB726960FB6F894DEBF8C
:1031E0000FBECDBFDF91CF9108951F93CF93DF9393
:1031F000C0917B0116E080917C01C81799F0D0E066
:103200001C9FF0011D9FF00D1124E358FE4F4081DB
:10321000518162817381848195810E94E518219694
:10322000C770E9CFDF91CF911F9108954091AD0113
:103230005091AE016091AF017091B0018091B101E8
:103240009091B2010C94E518CF938091B2018295D0
:103250008F7009F05FC08091AF01882309F45AC0D4
:1032600080917B01B0917C017091AD01A091AE0184
:103270004091B0015091B10191E07F3F09F090E0A1
:10328000692FC6E08B1709F445C04115510521F09F
:10329000AF3F21F020E003C021E001C0262F90E0E5
:1032A00020FD35C0C89FF001C99FF00D1124E358DF
:1032B000FE4F21812A132BC02081271328C0228191
:1032C000211125C0238134812417350710F42150A2
:1032D0003109241B350B283C3105C8F42091B2017B
:1032E0002F7020612093B20126E0289FF001299FD2
:1032F000F00D1124EE57FE4F80818F708061808326
:103300008DEA91E00E946118CF910C94F518019616
:103310008770B8CFCF910895AF92BF92CF92DF92CE
:10332000EF92FF920F931F93CF93DF93CDB7DEB74A
:1033300061970FB6F894DEBF0FBECDBF8C0185E05C
:10334000F801DE011D9601900D928A95E1F7D801F2
:103350004C9111965C9111971296EC903091AD01C1
:103360006091AE018091B0019091B101009731F070
:103370006F3F31F421E03F3F19F403C021E001C069
:1033800020E0B22FB170BB2E20FD60C1F801C380D8
:10339000D480A090AF01AA2009F4EEC02091B20120
:1033A000C816D90628F0D601A81BB90BCD0104C058
:1033B000809590958C0D9D1DFF24F394883C91057C
:1033C00080F0F12C207F09F09CC07C2DD98AC88A1E
:1033D0006E2D89890E94D6188DEA91E00E946118AD
:1033E0002DC1822F807F09F054C0561314C043139F
:1033F00012C0FE2CE1100FC02F7020612093B2018B
:103400000E9416198DEA91E00E9461188091B20124
:10341000F80185835CC1CD2831F05F3F31F481E054
:103420004F3F19F403C081E001C080E080FD03C07C
:1034300081E08E2502C080E090E0F82FF170FF2E31
:1034400080FF1CC080917B0120917C0136E08217B7
:1034500009F41AC190E0389FF001399FF00D112452
:10346000E358FE4F6181561306C06081461303C0C6
:103470006281E61203C001968770E9CFFE2CEE2030
:1034800009F425C18091B20181608093B201F12CD1
:103490001EC1561309C0431307C0E11005C0809137
:1034A000B201F8018583A4C04D875E878D859E8516
:1034B0000E94D118882379F1EE2069F12091B201A0
:1034C000822F82958F7090E0029774F08091AD0109
:1034D0009091AE0198878F831986DB86CA862C87E8
:1034E000CE0107960E94611886E0F801ADEAB1E0CE
:1034F00001900D928A95E1F70E9424190E941619F5
:103500000DC0561771F04D875E878D859E850E9490
:10351000D11881111AC0C8010E946118FF24F394C8
:10352000D6C04313F0CFE110EECF8091B201F80185
:103530008583C8010E94611886E0EDEAF1E0DF01B1
:103540001D928A95E9F7FA2CC2C0EE2021F3209152
:10355000B201822F82958F7090E002972CF28091B9
:10356000AD019091AE019A8389831B82DD82CC826A
:103570002E83CE010196B6CFC816D90628F0F601E3
:10358000E81BF90BCF0104C0809590958C0D9D1D13
:10359000883C910548F0F12C7C2DD98AC88A6E2D83
:1035A00089890E94D6184AC0FE2CEE2009F4B3CFB8
:1035B000561333C0431331C02091B20120FD24C003
:1035C000822F82958F70482F50E041155105E1F010
:1035D000D80115962C9315974F30510549F08F5F00
:1035E000982F9295907F822F8F70892B15968C93B0
:1035F000C8010E94611886E0F801ADEAB1E00190CF
:103600000D928A95E1F73DC086E0F801ADEAB1E0A0
:1036100001900D928A95E1F75AC04D875E878D859E
:103620009E850E94D11881115FCF8091B201816087
:103630008093B201C8010E94611849C0EDEAF1E02F
:1036400086E0DF011D928A95E9F71BC0EE2009F4A0
:1036500062CF4D875E878D859E850E94D118F82E9A
:10366000882309F458CF86E0F801ADEAB1E0019073
:103670000D928A95E1F78DEA91E00E9467140E940D
:1036800024190E94161923C04D875E878D859E855B
:103690000E944D1E292F22952F70223028F49F70F2
:1036A00039F0811105C00BC0243028F49F7049F413
:1036B000805E883020F0C8010E946118BF2CFB2C6E
:1036C00006C0D80115969C91907F91F7F8CF8F2D69
:1036D00061960FB6F894DEBF0FBECDBFDF91CF91DC
:1036E0001F910F91FF90EF90DF90CF90BF90AF9020
:1036F00008951F93CF93DF93CDB7DEB72C970FB606
:10370000F894DEBF0FBECDBF4F83588769877A8795
:103710008B879C87CE0107960E948C198823D1F055
:103720009F8188852A853B85232B31F08F3F31F49B
:1037300081E09F3F19F403C081E001C080E080FD7B
:1037400047C04F81588569857A858B859C850E9405
:10375000E5183EC086E0FE013796DE011196019025
:103760000D928A95E1F7FF81E8856A857B85611571
:10377000710531F0EF3F31F481E0FF3F19F403C0F0
:1037800081E001C080E080FD23C020917C0130E019
:10379000C90101968770992740917B0150E08417F9
:1037A0009507F1F1F983EA837D836C8396E0929F1C
:1037B000D001939FB00D1124A358BE4FFE01319646
:1037C00001900D929A95E1F780937C010E94F51883
:1037D00016E080917B0190917C01891771F1189F0F
:1037E000C001112483589E4F0E948C19882329F10F
:1037F000E0917B011E9FF0011124E358FE4F4081B0
:10380000518162817381848195810E94E518809144
:103810007B0190E001968770992780937B01D9CF37
:103820000E94A91810927C0110927B01EDEAF1E050
:1038300086E0DF011D928A95E9F72C960FB6F89481
:10384000DEBF0FBECDBFDF91CF911F910895EF92E4
:10385000FF920F931F93CF93DF938C01892B09F471
:103860006CC0F12CEE24E394E8012196F8018491D8
:10387000843740F4843008F051C0813081F08230C8
:1038800019F15BC0853709F444C0A8F19CE7980F93
:10389000903708F052C08F770E948B1541C00E5FA1
:1038A0001F4FFE01849190E2980F983050F487707A
:1038B000FE2D01C0FF0F8A95EAF78F2F0E94AF1EE1
:1038C00014C00E946D142DC00E5F1F4FFE01849125
:1038D00090E2980F983060F48770FE2D01C0FF0FC2
:1038E0008A95EAF78F2F0E94B51E0E94DA1E19C032
:1038F0000E948B1516C00E5F1F4FFE01C491CC2392
:1039000081F08FE99FE00197F1F700C00000C150FE
:10391000F6CF0E5F1F4FFE01F49003C00E946D149E
:103920008E018F2D882309F49FCFEFE9FFE03197B7
:10393000F1F700C000008150F5CFDF91CF911F91CA
:103940000F91FF90EF900895089508950C94A51C91
:103950000C94A61C0E94A81C6093DA017093DB01F2
:103960008093DC019093DD010C948F180C94AA1CB9
:103970000F931F930091DA011091DB012091DC017C
:103980003091DD01602B712B822B932B1F910F91B6
:103990000C94AA1C0F931F930091DA011091DB0184
:1039A0002091DC013091DD01602371238223932378
:1039B0001F910F910C94AA1C0F931F930091DA0191
:1039C0001091DB012091DC013091DD01602771272E
:1039D000822793271F910F910C94AA1C0C94A90580
:1039E0000E94EE1C6093D6017093D7018093D8019A
:1039F0009093D9010C948F1860E070E0CB010C9487
:103A0000F01C0F931F9341E050E060E070E08A01EA
:103A10009B0104C0000F111F221F331F8A95D2F78C
:103A2000C901B8011F910F910C94F01C0F931F93C3
:103A300041E050E060E070E004C0440F551F661F95
:103A4000771F8A95D2F78091D6019091D701A091E6
:103A5000D801B091D9018A019B01082B192B2A2B7F
:103A60003B2BC901B8011F910F910C94F01C0F93CF
:103A70001F9341E050E060E070E004C0440F551F28
:103A8000661F771F8A95D2F740955095609570957F
:103A90008091D6019091D701A091D801B091D90120
:103AA0008A019B01082319232A233B23C901B8015A
:103AB0001F910F910C94F01C0F931F9341E050E065
:103AC00060E070E004C0440F551F661F771F8A95A1
:103AD000D2F78091D6019091D701A091D801B091F1
:103AE000D9018A019B01082719272A273B27C901E9
:103AF000B8011F910F910C94F01C0F931F9300912C
:103B0000D6011091D7012091D8013091D901602BB5
:103B1000712B822B932B1F910F910C94F01C0F9300
:103B20001F930091D6011091D7012091D8013091B7
:103B3000D90160237123822393231F910F910C9449
:103B4000F01C0F931F930091D6011091D701209183
:103B5000D8013091D90160277127822793271F91BF
:103B60000F910C94F01C08952DE0929F800D11246C
:103B7000E82FE695E695E695877051E001C0550F70
:103B80008A95EAF785E0E89FF0011124ED54FE4F95
:103B900020E030E070E04081CB01022E02C096951B
:103BA00087950A94E2F7817081958427852384277D
:103BB00081932F5F3F4F2530310569F708952DE040
:103BC000929F800D1124682F669566956695982FB3
:103BD000977085E0689FB001112440E050E080E0DC
:103BE000FB01E40FF51FED54FE4F208130E0092E5C
:103BF00002C0369527950A94E2F721703327042EE8
:103C000001C0220F0A94EAF7822B4F5F5F4F4530C5
:103C1000510531F70895BF92CF92DF92EF92FF9254
:103C20000F931F93CF93DF938C01C090D601D09058
:103C3000D701E090D801F090D9018091DA019091FC
:103C4000DB01A091DC01B091DD01C82AD92AEA2A62
:103C5000FB2ACFE1D0E0D701C6010C2E04C0B695F7
:103C6000A795979587950A94D2F780FD04C0219770
:103C700090F7B12C07C0BC2EB8018C2F0E94880889
:103C80000197A9F38B2DDF91CF911F910F91FF9099
:103C9000EF90DF90CF90BF900895CF93DF93EC012A
:103CA0000E940B1EBE010E948808DF91CF910895EB
:103CB0001F93CF93DF93EB0190917A01992321F029
:103CC000CB010E944D1E13C0882349F0CB010E94F6
:103CD0000B1E182F682FCE010E94B41D04C0CB010B
:103CE0000E94DF1D182FBE01812F0E948808DF91DE
:103CF000CF911F9108958091DE01859585958595D9
:103D000008958091DE01877008959091DE0197708B
:103D100081E009F480E00895809102020895909175
:103D20000202892B809302020895809590910202ED
:103D300089238093020208951092020208959091BF
:103D40000102892B809301020895809590910102D0
:103D500089238093010208951092010208959091A1
:103D60000002892B809300020895809590910002B3
:103D70008923809300020895109200020895809193
:103D8000DF01089508950C94C21E0C94C31E9091F7
:103D9000DF01981721F08093DF010C94C51E089570
:103DA0008091DF01882329F01092DF0180E00C94DC
:103DB000C51E0895E0910D01F0910E01809102025F
:103DC0008083E0910D01F0910E01908180910102BC
:103DD000892B8083E0910D01F0910E0190818091FB
:103DE0000002892B80838091DF01882381F0E0919C
:103DF0000D01F0910E019081892B808380910D013E
:103E000090910E010E94C31F81110E94D01E8091CB
:103E10000D0190910E010C9406130C94C21E98E0B3
:103E2000899F90011124262B2093DE010E94161DEC
:103E30008091DE018595859585950C940D1F1092D6
:103E4000DE0180E00C940D1F2091DE01809582231D
:103E50008093DE01982F977079F430E0482F082E78
:103E6000000C550B2417350739F0859585958595F8
:103E70000E94371D0C941F1F089580E090E00E945F
:103E8000AB2F21E08D3E9E4F09F020E0822F089558
:103E900082E090E00C949D2F682F82E090E00C94DB
:103EA000B12F83E090E00C949D2F682F83E090E089
:103EB0000C94B12F84E090E00C949D2F682F84E047
:103EC00090E00C94B12FAB01BC018FE090E00C941A
:103ED000C32FAB01BC0183E190E00C94C32F60E0E1
:103EE00070E0CB010C94691F60E070E0CB010E9490
:103EF000631F0C946F1F6DEE7EEF80E090E00E94D8
:103F0000CF2F60E082E090E00E94B12F60E083E07C
:103F100090E00E94B12F1092DA011092DB01109212
:103F2000DC011092DD0160E084E090E00E94B12F9E
:103F300060E085E090E00E94B12F60E086E090E0D4
:103F40000E94B12F6FEF87E090E00E94B12F40E018
:103F500050E0BA0188E090E00E94C32F60E08DE05D
:103F600090E00E94B12F40E050E0BA0188E190E07B
:103F70000E94C32F60E087E190E00E94B12F0C9473
:103F8000741F0C947B1FFC01329680911F018823C3
:103F900031F08091730287FF02C09EE101C096E07C
:103FA00080E0915028F021912223D9F38F5FF9CF3F
:103FB00008959C01FC0132969FEF80E041914617E5
:103FC00089F09F3F19F4411101C0982F8F5F86300F
:103FD000A9F79F3F39F0F901E90FF11D97FDFA9517
:103FE0006283089508959C012A5F3F4FFC0142813E
:103FF000461301C01282019682179307B9F70895FC
:10400000262F2695269526952E3168F4FC01E20F81
:10401000F11D677021E030E001C0220F6A95EAF7D8
:104020008281282B22830895262F26952695269572
:104030002E3170F4FC01E20FF11D677021E030E0D9
:1040400001C0220F6A95EAF72095828128232283F6
:10405000089520911F01222329F02091730227FD4A
:104060000C9400200C94D91F20911F01222329F0C9
:104070002091730227FD0C9414200C94F31F2091BF
:104080001F01FC013296222331F08091730287FFD9
:1040900002C08EE101C086E0DF011D928A95E9F73A
:1040A000089508950C9451200C945120CF930E94B0
:1040B00054200E94420B0E945220C0E08C2F0E948C
:1040C000E10B892B29F4CF5FC430C1F780E001C038
:1040D00081E0CF9108950C9451200C946B200E94A4
:1040E0006D2080917902843049F11092040220E41D
:1040F00088E190E00FB6F894A895809360000FBE19
:104100002093600080E00E94D1050E946D2083B75B
:10411000817F846083BF83B7816083BF78948895F3
:1041200083B78E7F83BF0FB6F894A8958091600007
:10413000886180936000109260000FBE08950C9417
:1041400051200E94A9180E94FA120E94D1050C94D5
:104150009F201F920F920FB60F9211248F939F935F
:10416000AF93BF9380910402811113C080916F02BD
:1041700090917002A0917102B09172024196A11DBE
:10418000B11D80936F0290937002A0937102B0935F
:104190007202BF91AF919F918F910F900FBE0F90C0
:1041A0001F90189582E084BD93E095BD9AEF97BD6E
:1041B00080936E0008952FB7F89480916F029091CC
:1041C0007002A0917102B09172022FBF0895CF9238
:1041D000DF92EF92FF920F931F932FB7F8944091C5
:1041E0006F025091700260917102709172022FBF44
:1041F0006A017B01EE24FF248C0120E030E0C01630
:10420000D106E206F30610F4415051099A01281B29
:10421000390BC9011F910F91FF90EF90DF90CF9064
:10422000089578941F920F920FB60F9211248F93D6
:104230009F93AF93BF9380916F0290917002A09172
:104240007102B09172020196A11DB11D80936F029F
:1042500090937002A0937102B0937202BF91AF91DC
:104260009F918F910F900FBE0F901F90189581E036
:104270008093E00080E28093D8001092C9008FE123
:104280009EE40197F1F700C0000087E090EBDC01AD
:104290008093820290938302A0938402B09385025C
:1042A0009CE088E10FB6F894A895809360000FBE5B
:1042B00090936000FFCFAF92BF92CF92DF92EF92C8
:1042C000FF920F931F93CF93C0E0CC24C394D12CC3
:1042D000E82EF12C8C2F0E94E10B5C0100E010E035
:1042E000C601002E02C0880F991F0A94E2F78A21A6
:1042F0009B21892B31F40F5F1F4F0D30110581F782
:104300000AC0602F7C2F80E00E946D08E816F90635
:1043100091F781E004C0CF5FC430E1F680E0CF9137
:104320001F910F91FF90EF90DF90CF90BF90AF90D3
:104330000895CF93C82F8CE20E945B21882321F03F
:104340008C2FCF910C945B2180E0CF910895CF9377
:104350000E943D1F811102C00E94C11FC5E6C150CD
:1043600049F00E94420B8FE39CE90197F1F700C0EE
:104370000000F5CF89E20E94992181110FC18AE2E4
:104380000E94992181110E94C11F85E00E949921FC
:1043900081110E9437210E94481F8093030287E009
:1043A0000E9499218823A9F18BE10E9499218823F9
:1043B00051F08091030281FB222720F991E092279E
:1043C00090FB81F90EC08EE00E949921882361F054
:1043D0008091030282FB222720F991E0922790FB33
:1043E00082F98093030215C080E10E949921909187
:1043F0000302882341F093FB222720F981E08227E2
:1044000080FB93F904C0892F809580FB90F99093ED
:104410000302809103020E944C1F0E945A1F90E0E9
:10442000909374028093730280EE0E9499218823F6
:1044300041F080917302982F909590FB80F98093C2
:10444000730289E30E949921882359F080917302B5
:1044500081FB222720F991E0922790FB81F980933C
:10446000730282EE0E949921882359F08091730291
:1044700082FB222720F991E0922790FB82F980931A
:10448000730286EE0E949921882359F0809173026D
:1044900083FB222720F991E0922790FB83F98093F8
:1044A000730283EE0E949921882359F08091730250
:1044B00084FB222720F991E0922790FB84F98093D6
:1044C000730285E30E949921882359F08091730239
:1044D00085FB222720F991E0922790FB85F98093B4
:1044E000730281E30E949921882359F0809173021D
:1044F00086FB222720F991E0922790FB86F9809392
:10450000730281E10E949921882359F080917302FE
:1045100087FB222720F991E0922790FB87F980936F
:104520007302809173020E945E1F87E20E949921AC
:10453000C82F8EE10E9499218111C2608FE10E94F3
:1045400099218111C46080E20E9499218111C86083
:1045500081E20E9499218111C06182E20E94992129
:104560008111C06283E20E9499218111C06484E2BA
:104570000E949921882311F0C06802C0CC2329F041
:104580008C2F0E94551F6C2F03C00E94511F682F53
:1045900070E080E090E0CF910C94B61CCF9108952C
:1045A0008091070280FF0BC06091120185E0689F37
:1045B000B001112475956795759567952BC081FF9E
:1045C00009C06091120185E0689FB00111247595C2
:1045D000679520C082FF07C06091120185E0689F47
:1045E000B001112417C0909108029923D1F0609175
:1045F0001101961788F72091120185E0289F9001FC
:104600001124929FA001939F500D112470E0CA01C4
:104610000E94762F6038710540F46115710519F418
:1046200006C065E070E0862F08958FE7089581E069
:1046300008958091070280FF08C06091100170E02A
:10464000759567957595679521C081FF06C0609146
:10465000100170E07595679519C082FF04C06091E4
:10466000100170E010C090910802992399F06091B8
:104670000F019617A0F780911001899FC0011124A6
:1046800070E00E94762F6038710540F46115710565
:1046900019F406C061E070E0862F08958FE7089551
:1046A00081E00895803F21F40E94D022819504C0CA
:1046B000813F29F40E94D02280930C020895823F0A
:1046C00021F40E94D022819504C0833F29F40E94E6
:1046D000D02280930B020895893F19F40E94192378
:1046E00005C08A3F31F40E941923819580930D0201
:1046F00008958B3F21F40E941923819504C08C3FBB
:1047000029F40E94192380930E020895843F21F416
:1047100080910A02816017C0853F21F480910A02CE
:10472000826011C0863F21F480910A0284600BC030
:10473000873F21F480910A02886005C0883F31F4E8
:1047400080910A02806180930A0208958D3F21F4CE
:104750008091070281600BC08E3F21F48091070297
:10476000826005C08F3F29F48091070284608093A6
:1047700007020895803F39F480910C0287FF6CC0D6
:1047800010920C0269C0813F29F480910C02181626
:10479000BCF362C090910B02823F29F497FF5CC08A
:1047A00010920B0259C0833F19F41916CCF354C070
:1047B000893F41F480910D0218160CF04DC0109203
:1047C0000D024AC08A3F29F480910D0287FF44C040
:1047D000F6CF8B3F39F480910E0287FF3DC01092D7
:1047E0000E023AC08C3F29F480910E021816BCF3D9
:1047F00033C0843F21F480910A028E7F17C0853F29
:1048000021F480910A028D7F11C0863F21F48091AE
:104810000A028B7F0BC0873F21F480910A02877FB9
:1048200005C0883F31F480910A028F7E80930A028E
:1048300013C08D3F21F4809107028E7F0BC08E3F05
:1048400021F4809107028D7F05C08F3F29F480916C
:1048500007028B7F8093070280910B0281110EC0AB
:1048600080910C0281110AC080910D02811106C055
:1048700080910E02811102C010920802089589E011
:1048800092E00E9420130E94DB2090930602809306
:10489000050208951F93CF93DF93809105029091B5
:1048A00006020E94E720AC0190910802992321F0B2
:1048B0002091130130E006C0209114018AE0289F66
:1048C000900111244217530708F477C080910B021E
:1048D000C0910C02D0910D0210910E02811107C0FF
:1048E000C11167C0D11165C0111163C066C09F3F7F
:1048F00019F09F5F90930802181624F40E94D022AA
:1049000080930B0280910B0287FF05C00E94D0228A
:10491000819580930B021C1624F40E94D022809370
:104920000C0280910C0287FF05C00E94D022819565
:1049300080930C0230910B023323C1F020910C02C2
:104940002223A1F045EB3403C0011124892F9111DA
:1049500001C081E080930B0235EB2303C0011124D9
:10496000892F911101C081E080930C021D1624F45F
:104970000E94192380930D0280910D0287FF05C0CC
:104980000E941923819580930D02111624F40E9430
:10499000192380930E0280910E0287FF05C00E94AA
:1049A0001923819580930E02DF91CF911F910C9472
:1049B0003F249F3F09F09DCFAECFDF91CF911F9154
:1049C0000895E9E0F2E086E0DF011D928A95E9F7BB
:1049D0001092080210920702089580912F02089504
:1049E0000F931F93CF93DF9300D01F92CDB7DEB705
:1049F0008C010E945E27823011F0843021F584E022
:104A000089831B830A8382E08093E9008FEF909172
:104A1000E800815095FD06C095ED9A95F1F70000EC
:104A20008111F5CF8091E80085FF0DC040E050E096
:104A300063E070E0CE0101960E947B278091E80040
:104A40008E778093E8000F900F900F90DF91CF91B9
:104A50001F910F910895CF93DF9300D01F92CDB790
:104A6000DEB720917902243031F523E02983805884
:104A700091099B838A8382E08093E9008FEF909174
:104A8000E800815095FD06C095ED9A95F1F700007C
:104A90008111F5CF8091E80085FF0DC040E050E026
:104AA00063E070E0CE0101960E947B278091E800D0
:104AB0008E778093E8000F900F900F90DF91CF9149
:104AC0000895CF93DF93EC010E945E27823011F0AE
:104AD0008430F9F482E08093E9008FEF9091E80050
:104AE000815095FD06C095ED9A95F1F70000811172
:104AF000F5CF8091E80085FF0CC040E050E066E013
:104B000070E0CE010E947B278091E8008E77809331
:104B1000E800DF91CF910895CF93DF93EC010E94DD
:104B20005E27823011F08430D9F580911F018823EF
:104B300039F08091730287FF03C060E282E002C017
:104B400068E081E08093E9008FEF9091E800815068
:104B500095FD06C095ED9A95F1F700008111F5CF0E
:104B60008091E80085FF1CC080911F01811105C064
:104B700040E050E068E070E003C070E040E050E0EA
:104B8000CE010E947B278091E8008E778093E80019
:104B900080E2FE01AFE0B2E001900D928A95E1F76C
:104BA000DF91CF91089580917802811109C00E9410
:104BB0000C290E9469298091E20084608093E200C0
:104BC0000895109278020895089508950C94A120F4
:104BD00042E061EC81E00E94852842E261EC82E0E3
:104BE0000C94852880917B02833009F460C030F4F6
:104BF000813071F0823009F499C008958A3009F447
:104C000085C08B3009F46BC0893009F0A7C020C083
:104C100080917A02813A09F0A1C08091E800877FF3
:104C20008093E80080917E0290917F02892B21F48D
:104C300060E28FE092E003C060E080E090E070E02E
:104C40000E94C6278091E8008B778093E800089542
:104C500080917A02813209F081C080917E02909128
:104C60007F02029708F07AC08091E800877F8093E6
:104C7000E8008091E80082FD05C0809179028111F1
:104C8000F8CF6CC02091F3008091F20090E0922B5D
:104C9000029729F48091F1008B7F813021F480917B
:104CA000F10080932F028091E8008B7753C08091B0
:104CB0007A02813A09F052C080917E0290917F027F
:104CC000892B09F04BC08091E800877F8093E80032
:104CD0008091E80080FFFCCF80911F0136C0809159
:104CE0007A028132D9F580917E0290917F02892BE0
:104CF000A9F58091E800877F8093E8000E94BA2898
:104D000080917C0280931F010C94A91880917A02F3
:104D1000813221F58091E800877F8093E8000E942E
:104D2000BA2880917D0280933002089580917A02A2
:104D3000813AA1F48091E800877F8093E800809118
:104D4000E80080FFFCCF809130028093F1008091D9
:104D5000E8008E778093E8000C94BA28089584B711
:104D6000877F84BF0FB6F894A89580916000886112
:104D700080936000109260000FBE80E88093610015
:104D8000109261000E946A130E940C290E946929F6
:104D90008091E20084608093E20078940E94FE2B70
:104DA0000E94721385E191E00E94F51280917902D0
:104DB000853069F40E946F20809177028823B1F3D7
:104DC0000E945620882391F30E946527EFCF0E940E
:104DD0007C130E948012EACF0C94EE26292F3327F1
:104DE00023303105C9F060F42130310581F02230E3
:104DF000310509F04AC08BE390E022E639E049C072
:104E00002132310511F12232310579F13EC082E1C2
:104E100090E02DE939E03DC099278130910561F09E
:104E200040F08230910559F0039779F5ECE2F9E012
:104E300008C0EEE5F9E005C0E6E4F9E002C0E2E30F
:104E4000F9E0849190E09F0124C06115710541F063
:104E500061307105D1F489E090E02DE839E019C0A6
:104E600089E090E024E739E014C06115710541F054
:104E70006130710551F480EC90E02FEA39E009C00F
:104E800080E490E02FE63AE004C080E090E020E08B
:104E900030E0FA013183208308950895CF93C82F1D
:104EA0000E944D27C0933102CF91089580917902DD
:104EB000843011F081E0089582E0089580913102FC
:104EC000811102C00C945627089580E189BD82E1CA
:104ED00089BD09B400FEFDCF8091D8008F7D8093FD
:104EE000D8008091E00082608093E0008091E00033
:104EF00081FDFCCF0895CF92DF92EF92FF920F9346
:104F00001F93CF93DF93EC018B017A010E94D92884
:104F1000811133C0E114F10439F0F70180819181EE
:104F2000081B190BC80FD91FC12CD12C0115110555
:104F300019F18091E80085FD16C08091E8008E7718
:104F40008093E800E114F10449F0F7018081918138
:104F5000C80ED91ED182C08285E00FC00E94D92818
:104F6000882321F30AC089918093F100015011092F
:104F7000FFEFCF1ADF0ADACF80E0DF91CF911F91E8
:104F80000F91FF90EF90DF90CF90089520918002D5
:104F9000309181022617370748F06115710539F401
:104FA0002091E8002E772093E80001C0B901FC01B0
:104FB00020E06115710579F1809179028823F1F182
:104FC0008530F1F18091E80083FD3CC08091E800DC
:104FD00082FD2EC08091E80080FFEBCF2091F3008E
:104FE0008091F20090E0922B6115710551F08830AC
:104FF000910538F421912093F100615071090196D7
:10500000F3CF21E0089709F020E08091E8008E7747
:105010008093E800CECF2111CFCF0AC080917902D2
:10502000882361F0853061F08091E80083FD0AC03B
:105030008091E80082FFF2CF80E0089582E0089539
:1050400083E0089581E008952091800230918102EB
:105050002617370748F06115710539F42091E800EB
:105060002E772093E80001C0B901FC0120E0611512
:10507000710591F180917902882309F440C085304F
:1050800009F43FC08091E80083FD3DC08091E800B5
:1050900082FD2FC08091E80080FFE9CF2091F300CE
:1050A0008091F20090E0922B6115710559F08830E3
:1050B000910540F424912093F100319661507109DB
:1050C0000196F2CF21E0089709F020E08091E800F6
:1050D0008E778093E800CBCF2111CCCF0AC080918E
:1050E0007902882361F0853061F08091E80083FDCA
:1050F0000AC08091E80082FFF2CF80E0089582E04C
:10510000089583E0089581E00895982F973068F519
:105110009093E900981739F07091EC002091ED0020
:105120005091F00003C0242F762F50E021FD02C0E3
:105130009F5FECCF3091EB003E7F3093EB003091DE
:10514000ED003D7F3093ED003091EB003160309306
:10515000EB007093EC002093ED005093F000209151
:10516000EE0027FDE5CF80E008958F708093E90081
:1051700081E0089580917A0287FF11C08091E80054
:1051800082FD05C0809179028111F8CF11C0809114
:10519000E8008B770BC080917902882349F08091D9
:1051A000E80080FFF8CF8091E8008E778093E800D8
:1051B00008952091E4003091E50095E64091EC00DF
:1051C000842F817040FF23C08091E80080FD1DC0C6
:1051D00080917902882399F0853099F08091EB00D5
:1051E00085FD11C04091E4005091E500241735077A
:1051F00029F3915011F09A01E1CF84E0089582E003
:10520000089583E0089581E0089580E00895409135
:10521000E80042FFDDCF08950E947A290E9482298A
:10522000E0EEF0E0808181608083E8EDF0E0808155
:105230008F77808319BCA7EDB0E08C918E7F8C9323
:1052400080818F7E80831092780208950F931F9340
:10525000CF93DF930E947A290E948229C8EDD0E083
:1052600088818F77888388818068888388818F7D13
:10527000888319BC109279021092750210927702FD
:105280001092760200EE10E0F80180818B7F80831F
:1052900088818160888342E060E080E00E94852808
:1052A000E1EEF0E080818E7F8083E2EEF0E08081AD
:1052B00081608083808188608083F80180818E7F17
:1052C0008083888180618883DF91CF911F910F91C6
:1052D0000895E8EDF0E080818F7E8083E7EDF0E0D7
:1052E00080818160808384E082BF81E08093780246
:1052F0000C942629E8EDF0E080818E7F8083109267
:10530000E20008951092DA001092E10008951F92D1
:105310000F920FB60F9211242F933F934F935F93E9
:105320006F937F938F939F93AF93BF93EF93FF936D
:105330008091E10082FF0BC08091E20082FF07C0F4
:105340008091E1008B7F8093E1000E94FD2B809192
:10535000DA0080FF1FC08091D80080FF1BC08091C1
:10536000DA008E7F8093DA008091D90080FF0DC033
:1053700080E189BD82E189BD09B400FEFDCF81E0F5
:10538000809379020E94D32505C019BC109279023E
:105390000E94E1258091E10080FF19C08091E20028
:1053A00080FF15C08091E2008E7F8093E2008091A3
:1053B000E20080618093E2008091D8008062809357
:1053C000D80019BC85E0809379020E94E525809180
:1053D000E10084FF30C08091E20084FF2CC080E1B6
:1053E00089BD82E189BD09B400FEFDCF8091D8005E
:1053F0008F7D8093D8008091E1008F7E8093E100C3
:105400008091E2008F7E8093E2008091E2008160D3
:105410008093E20080917502882311F084E007C038
:105420008091E30087FD02C081E001C083E08093AA
:1054300079020E94E6258091E10083FF29C08091D6
:10544000E20083FF25C08091E100877F8093E10027
:1054500082E080937902109275028091E1008E7F44
:105460008093E1008091E2008E7F8093E200809142
:10547000E20080618093E20042E060E080E00E9410
:1054800085288091F00088608093F0000E94E425D8
:10549000FF91EF91BF91AF919F918F917F916F910C
:1054A0005F914F913F912F910F900FBE0F901F90E2
:1054B00018951F920F920FB60F9211242F933F93BE
:1054C0004F935F936F937F938F939F93AF93BF930C
:1054D000CF93DF93EF93FF93C091E900CF7080915A
:1054E000EC00D82FD17080FDD0E81092E9008091B7
:1054F000F000877F8093F00078940E949D2A10929C
:10550000E9008091F00088608093F000CD2BCF708F
:10551000C093E900FF91EF91DF91CF91BF91AF91DF
:105520009F918F917F916F915F914F913F912F91BB
:105530000F900FBE0F901F9018951F93CF93DF937E
:10554000CDB7DEB7AA970FB6F894DEBF0FBECDBFBA
:10555000EAE7F2E08091F100819322E0E238F2077D
:10556000C9F70E94F2258091E80083FF2EC1809147
:105570007A0290917B02492F50E04A30510508F0A1
:1055800024C1FA01E556FF4F0C948A2F803821F090
:10559000823809F01AC108C0809176029091770292
:1055A000992389F082600FC080917E028F708730CE
:1055B00008F00BC18093E9008091EB0085FB882700
:1055C00080F91092E9009091E800977F9093E800AD
:1055D0008093F1001092F100D1C0282F2D7F09F0A7
:1055E000F4C0882319F0823061F0EFC080917C0212
:1055F000813009F0EAC0933009F080E080937702AF
:105600002EC080917C0281112AC080917E028F7011
:105610002FEF280F263008F0D8C08093E9002091A2
:10562000EB0020FF1CC0933021F48091EB008062DE
:1056300014C09091EB0090619093EB0021E030E07A
:10564000A90102C0440F551F8A95E2F74093EA0072
:105650001092EA008091EB0088608093EB0010923A
:10566000E9008091E800877F8093E8000E94BA28D3
:10567000ACC08111AAC010917C021F778091E30019
:105680008078812B8093E3008091E800877F80936E
:10569000E8000E94BA288091E80080FFFCCF80914A
:1056A000E30080688093E300111102C082E001C032
:1056B00083E08093790289C08058823008F085C0E9
:1056C00080917C0290917D028C3D53E0950779F5A5
:1056D00083E08A838AE289834FB7F894DE011396C8
:1056E00020E03EE051E2E32FF0E050935700E491D8
:1056F00020FF03C0E295EF703F5FEF708E2F90E0C8
:10570000EA3010F0C79601C0C0968D939D932F5F2D
:10571000243149F74FBF8091E800877F8093E800EC
:105720006AE270E0CE0101960E94C62716C0609121
:105730007E0270917F02AE014F5F5F4F0E94EC26A8
:10574000BC01892B09F441C09091E800977F9093A8
:10575000E80089819A810E9424288091E8008B7753
:105760008093E80032C0803881F58091E800877F1F
:105770008093E800809175028093F1008091E800A9
:105780008E7772CF811121C080917C0290917D0231
:1057900099270297D4F48091E800877F8093E800EE
:1057A00080917C02809375020E94BA2880917502D4
:1057B000811106C08091E30087FD02C081E001C035
:1057C00084E0809379020E94E8258091E80083FFBD
:1057D0000AC08091E800877F8093E8008091EB0009
:1057E00080628093EB00AA960FB6F894DEBF0FBEDE
:1057F000CDBFDF91CF911F9108950895CF938091F0
:1058000079028823A1F0C091E900CF709091EC005B
:10581000892F817090FD80E8C82B1092E90080915B
:10582000E80083FD0E949D2ACF70C093E900CF91CC
:1058300008955058BB27AA270E94312C0C94DC2DC8
:105840000E94CE2D38F00E94D52D20F039F49F3FD4
:1058500019F426F40C94A42D0EF4E095E7FB0C94B7
:105860009E2DE92F0E94ED2D58F3BA17620773079A
:105870008407950720F079F4A6F50C940F2E0EF40A
:10588000E0950B2EBA2FA02D0B01B90190010C0150
:10589000CA01A0011124FF27591B99F0593F50F468
:1058A000503E68F11A16F040A22F232F342F4427C0
:1058B000585FF3CF469537952795A795F0405395B8
:1058C000C9F77EF41F16BA0B620B730B840BBAF088
:1058D0009150A1F0FF0FBB1F661F771F881FC2F7F3
:1058E0000EC0BA0F621F731F841F48F48795779507
:1058F0006795B795F7959E3F08F0B0CF9395880FC1
:1059000008F09927EE0F9795879508950E949A2C95
:105910000C94DC2D0E94D52D58F00E94CE2D40F025
:1059200029F45F3F29F00C949E2D51110C94102EF8
:105930000C94A42D0E94ED2D68F39923B1F3552307
:1059400091F3951B550BBB27AA2762177307840792
:1059500038F09F5F5F4F220F331F441FAA1FA9F328
:1059600035D00E2E3AF0E0E832D091505040E69516
:10597000001CCAF72BD0FE2F29D0660F771F881F77
:10598000BB1F261737074807AB07B0E809F0BB0B6A
:10599000802DBF01FF2793585F4F3AF09E3F51057E
:1059A00078F00C949E2D0C94102E5F3FE4F3983EFB
:1059B000D4F3869577956795B795F7959F5FC9F767
:1059C000880F911D9695879597F90895E1E0660FE8
:1059D000771F881FBB1F621773078407BA0720F061
:1059E000621B730B840BBA0BEE1F88F7E0950895CA
:1059F00029F416F00C949E2D0C940F2E0C94A42DCB
:105A00000E94F52DA8F39638A0F707F80F92E894B6
:105A10002BE33AEA48EB5FE70E94A22E0F920F9227
:105A20000F924DB75EB70F920E94582EEAE4F1E054
:105A30000E94A72D4F915F91EF91FF91E595EE1F89
:105A4000FF1F49F0FE57E0684427EE0F441FFA9508
:105A5000E1F74195550B0E94222E0F9007FE0C9402
:105A6000162E08950E94F52D88F09F5798F0B92FB3
:105A70009927B751B0F0E1F0660F771F881F991F83
:105A80001AF0BA95C9F714C0B13091F00E940F2EE8
:105A9000B1E008950C940F2E672F782F8827B85FF8
:105AA00039F0B93FCCF3869577956795B395D9F7DB
:105AB0003EF490958095709561957F4F8F4F9F4FE5
:105AC0000895E89409C097FB3EF4909580957095F1
:105AD00061957F4F8F4F9F4F9923A9F0F92F96E93A
