:100000000C9449010C9490010C9490010C94900173
:100010000C9490010C9490010C9490010C9490011C
:100020000C9490010C9490010C945E1D0C94321E63
:100030000C9483140C9490010C9490010C949001F6
:100040000C9490010C9490010C9490010C949001EC
:100050000C9490010C94CE140C9490010C9490018B
:100060000C9490010C9490010C9490010C949001CC
:100070000C9490010C9490010C9490010C949001BC
:100080000C9490010C9490010C9490010C949001AC
:100090000C9490010C9490010C9490010C9490019C
:1000A0000C9490010C9490010C94900129001E0076
:1000B0001F00200000002100220023002400250052
:1000C000260027002A0014001A0008001500170057
:1000D0001C0018000C00120013002800E400E600C9
:1000E00004001600070009000A000B000D000E00B6
:1000F0000F00E5000000520000001D001B0006007C
:10010000190000002C000500110010000000500034
:1001100051004F000403300000001A035300680030
:1001200061006D0062006C006500730020005400E7
:100130004B004C0000000C034F007300630069008B
:10014000580000000403090409023B00020100A05A
:10015000FA09040000010301010009211101000155
:100160002240000705810308000A09040100010379
:1001700000000009211101000122BC0007058203D3
:1001800020000A1201100100000008EDFE424F019C
:10019000000102030105010902A10185020901A173
:1001A000000509190129051500250195057501812D
:1001B0000295017503810105010930093115812579
:1001C0007F95027508810609381581257F9501758F
:1001D000088106050C0A38021581257F95017508EE
:1001E0008106C0C005010980A101850319012AB754
:1001F00000150126B700950175108100C0050C0996
:1002000001A101850419012AA002150126A0029569
:100210000175108100C005010906A10185050507CA
:1002200019E029E7150025019508750181020507E8
:10023000190029EF1500250195F0750181020508C7
:100240001901290595057501910295017503910123
:10025000C005010906A101050719E029E7150025D8
:10026000019508750181029501750881010507193D
:100270000029FF150026FF00950675088100050876
:1002800019012905950575019102950175039101E3
:10029000C00011241FBECFEFDAE0DEBFCDBF04B631
:1002A00003FE27C080917B0290917C02A0917D0289
:1002B000B0917E028730904BA740B04BD1F41092A2
:1002C0007B0210927C0210927D0210927E0214BE7C
:1002D00084B7877F84BF0FB6F894A895809160009B
:1002E000886180936000109260000FBEE0E0F8E348
:1002F000099511E0A0E0B1E0ECEFF0E402C0059058
:100300000D92A838B107D9F722E0A8E8B1E001C002
:100310001D92AB37B207E1F70E949E1A0C9454204D
:100320000C94000081E0089581E008950C949401FC
:1003300008950C9498011F93CF93DF9300D000D0C1
:100340000F92CDB7DEB749835A836B8330919E01FC
:1003500089819A8131111DC06623B9F02223A9F049
:100360000E948011182F682F89819A810E942C1178
:1003700069817A81812F0F900F900F900F900F90CD
:10038000DF91CF911F910C944B020E945811182FAE
:10039000EFCF0E94801169817A81EDCFFC01262F79
:1003A000408151816281738184810C949B01CF9340
:1003B000DF93EC0160E00E94CE01BE01DF91CF919E
:1003C0000C9499010E94C412811102C00E946B1307
:1003D0000C9457040C945A0408950C94EC0181E099
:1003E00008950C94EF01CF93C82F0E94ED018C2F3C
:1003F000CF910C94F10108950E94930C0E94FB018F
:100400002FEF84E39CE0215080409040E1F700C052
:1004100000000C94F2140F931F93CF93DF93EC0121
:1004200061E00E94CE018C01BE010E9496018823EA
:1004300029F1BE01C8010E9417068823F9F0BE0108
:10044000C8010E9469068823C9F0BE01C8010E9444
:100450008C07882399F08A81882339F001158CE56F
:10046000180751F00E3D1C4579F0CE01DF91CF9178
:100470001F910F910C9492010E94FC0180E0DF918A
:10048000CF911F910F9108950E946B13F7CF90E0C9
:1004900080E008950895972F70E02DE0929F600D01
:1004A000711D1124FB0194E3899FE00DF11D1124BE
:1004B000EE0FFF1FE455FF4F859194910895FC01C5
:1004C000EE0FFF1FEC5EFE4F859194910895CF9340
:1004D000DF930E944B020E947C03EC01811520E512
:1004E000920708F042C0811530E4930708F0BDC0C0
:1004F000883E910528F5803E910508F09DC0883A18
:10050000910588F4853A910508F08FC081309105F6
:1005100009F492C0009709F48FC0049708F08CC0CA
:10052000D0E0C0E089C08F3B910508F489C0805CB1
:100530009109C03CD105A0F30E945F02EC017CC090
:100540008115904250F4C11581E0D80708F074C0BD
:10055000C03FD10528F3D0656FC0C11590E3D9071E
:1005600008F079C0CE019F70E7CF811525E592078D
:1005700058F5811534E5930708F0A6C0811542E5CA
:10058000940750F4C11581E5D80708F471C0DC2F39
:10059000CC27C16FD06A50C0982F969596959E0132
:1005A00023703327C115D34508F07FC0C1E0D0E0E8
:1005B00002C0CC0FDD1F2A95E2F720E2929FC00116
:1005C0001124C82BD92B6FC0C11589E5D807A8F411
:1005D000C11598E5D90708F07CC0C11526E5D207FA
:1005E00008F09ECF8C2F0E941304C82FD0E0DC2F80
:1005F000CC27CC27DF71D0621FC0C1153AE5D307E5
:1006000008F46CC0CE0190568115904208F088CF56
:100610008D2F8F710E94130490E0982F88278827D0
:100620009F719C012C2BE901E6CFC55AD0E0CD5B30
:10063000DE4FC881D0E0D064CE01DF91CF91089524
:10064000C85AD0E0CC0FDD1FCB5EDE4F0990D881B9
:10065000C02DD464F1CFCE019927D3FF03C0EC01A4
:10066000D86CEACFEC01D06CE7CFDF70D06AE4CF72
:10067000CE01E4E096958795EA95E1F783702C2FFB
:1006800026952695237090E2299F90011124382BFE
:100690008C2F8370C1E0D0E002C0CC0FDD1F8A95A3
:1006A000E2F7C22BD32BDC68C7CFC1E0D0E002C099
:1006B000CC0FDD1F2A95E2F730E2939FC001112491
:1006C000C82BD92BDA68B8CFD82FCC27C46FD06A03
:1006D000B3CFDC2FCC27C06FD06AAECF8C2F8F70FA
:1006E0000E94130434E0D695C7953A95E1F7CF7090
:1006F0009C2FEC01D069A0CF82389105B1F1B0F404
:100700008133910509F475C048F48932910509F4E3
:1007100069C08A32910509F473C008958533910543
:1007200009F459C08933910501F10895833E91057B
:10073000A9F138F4803E9105F9F0823E910549F126
:100740000895863E9105A9F1873E9105C9F1843E41
:10075000910519F520916D0221FF1FC080916C0257
:1007600084FD14C087EE90E0089520916C02237000
:10077000A1F080EE90E0089520916C0220FD47C02A
:1007800030916D0230FF09C024FF44C090E080E04A
:1007900004C020916C0222FDF7CF089520916C02D5
:1007A00022FD3BC030916D0230FDE3CF24FFF5CF39
:1007B000EDCF20916C0223FFF0CF24FDE7CFD2CF05
:1007C00020916C0223FD2CC030916D0231FFEECFE1
:1007D00084EE90E0089520916C0225FFDECF89E23F
:1007E00090E0089520916C0225FFD7CF85E390E03B
:1007F000089520916C0226FFD0CF8AE290E0089500
:1008000020916C0226FFC9CF81E390E0089589E32F
:1008100090E0089583EE90E0089582EE90E00895D0
:1008200086EE90E0089590916C0292FF06C0282F0A
:1008300028712830F9F4877F846093FF06C0282F41
:1008400028712831F1F4877E846120916D0220FFA8
:1008500006C0382F38713830D9F4877F816021FF86
:1008600006C0282F28712831D1F4877E816194FD3C
:10087000877E0895282F24712430F9F68B7F8860B5
:10088000DCCF282F2471243101F78B7E8861DDCFE6
:10089000382F3171313019F78E7F8860E0CF282FE3
:1008A0002171213121F78E7E8861E1CF08950C946A
:1008B000560408950C945904E82FF0E0EE0FFF1F42
:1008C000E05AFD4F808191810895089580EA8A95CC
:1008D000F1F70895CF93DF93A3E5B1E047E551E049
:1008E000C1E0D0E08D91E82FE295EF70F0E061A1DA
:1008F0008F709E0101C0220F8A95EAF7922F909582
:10090000962391A382A1822B82A34A175B0751F7FA
:10091000A6E4B1E043E551E0C1E0D0E08D91E82FDD
:10092000E295EF70F0E061A18F709E0101C0220F8F
:100930008A95EAF7922F9095962391A382A1822B14
:1009400082A34A175B0751F710925902109258027E
:10095000109261021092600210925B0210925A0291
:10096000109263021092620210925D0210925C0279
:10097000109265021092640210925F0210925E0261
:10098000109267021092660284E00E945205DF9185
:10099000CF910C94E2018F929F92AF92BF92CF922F
:1009A000DF92EF92FF920F931F93CF93DF9383E534
:1009B000E82E81E0F82E08E512E0912CAA24A394F9
:1009C000B12CF70181917F01C82FC295CF70D0E083
:1009D00099A18F70650101C0CC0C8A95EAF7892F27
:1009E0008C2989A38AA18C2C809488218AA30E94B7
:1009F0006604E6E4F1E050E040E030E020E06191A0
:100A0000A62FA295AF70B0E090968C9190E06F7099
:100A100002C0959587956A95E2F780FD3EC0C501B5
:100A2000042E02C0880F991F0A94E2F7282B392B55
:100A30004F5F5F4F4D30510511F789A1882289A280
:100A40008AA1C82ACAA2F801808191812817390792
:100A500039F13183208381E0982A0E5F1F4FF7E53B
:100A6000EF16F1E0FF0609F0ACCF292D44E060E677
:100A700072E088E592E00E9453050E94EA01892D08
:100A8000DF91CF911F910F91FF90EF90DF90CF906A
:100A9000BF90AF909F908F90089590E080E0C6CF78
:100AA00080E0DACF0895FF920F931F93CF93DF93E7
:100AB000F82E092F162FD72FC42F222349F081E0BB
:100AC00080938A010E94B3149093890180938801D6
:100AD00080918A018823A1F08091880190918901F9
:100AE0000E94BF14069760F0EF2DF02FA12FBD2FAD
:100AF00090E080E0D0E08C179D0744F010928A01CE
:100B0000DF91CF911F910F91FF9008952191319125
:100B10002D933D930196EFCFAF92BF92CF92DF928C
:100B2000EF92FF920F931F93CF93DF937C015B01B2
:100B3000C42FD22FFC0182818823F9F040938D01CC
:100B40000E94B31490938C0180938B0180E28C0FF0
:100B5000883008F061C0C77081E001C0880FCA9575
:100B6000EAF7DF91CF911F910F91FF90EF90DF9007
:100B7000CF90BF90AF900C94170A10918D01141371
:100B800040C080918B0190918C010E94BF146C0138
:100B9000B701C5010E94090FC816D90690F5C0E239
:100BA000CD0F1D17B9F080E2810F883040F4177027
:100BB00081E001C0880F1A95EAF70E941E0AC8302A
:100BC00048F481E09D2F977001C0880F9A95EAF74D
:100BD0000E94170A802F0E94040AC830E8F4D770D8
:100BE00081E001C0880FDA95EAF7DF91CF911F917C
:100BF0000F91FF90EF90DF90CF90BF90AF900C944B
:100C00001E0A80E28C0F883038F4C77081E001C082
:100C1000880FCA95EAF7E9CFDF91CF911F910F9125
:100C2000FF90EF90DF90CF90BF90AF9008950F931B
:100C30009C01CB01233F4CE5340759F1A8F4283D32
:100C4000FCE53F0701F1293D4CE53407D1F1273D93
:100C50003C4591F406E221EE41EE67ED7CE50E9411
:100C60008C0580E00F910895253FFCE53F07E9F0F2
:100C7000B0F0263F3C45F9F0FC018281882339F130
:100C800010928D01EFCF07E225EE45EE68ED7CE591
:100C9000E6CF06E221EE40EE63EF7CE5E0CF07E22F
:100CA00025EE44EE64EF7CE5DACF06E221EE42EE7B
:100CB00065EF7CE5D4CF07E225EE46EE66EF7CE5F6
:100CC000CECF08E221E045EE69ED7CE5C8CF81E0BA
:100CD000C9CFCF93DF93EC01FB018281882309F414
:100CE00019C1C230FCE5DF07C0F1C6319CE5D90768
:100CF00030F09E012A5F3C452930310570F50E9495
:100D0000E11290936D0280936C02C031ECE5DE0736
:100D100009F4CFC008F05BC0C8308CE5D80709F4EF
:100D2000B6C088F5C430ECE5DE0709F4A8C0C0F40D
:100D3000C2308CE5D80709F49CC080916C028260B7
:100D4000C330DC4509F498C080916C0290916D022B
:100D50000E94EF120E94930C80E0DF91CF910895E2
:100D600080916C028061C630ECE5DE0709F484C036
:100D700080916C028860C730DC4508F47DC08091AA
:100D80006C02806279C0CC308CE5D80709F489C048
:100D900070F480916C028C60CA30ECE5DE0709F4D7
:100DA0006BC008F478C080916C028E7F65C0CE3035
:100DB0008CE5D80709F479C080916C028B7FCF3025
:100DC000DC4508F459C080916C028F7E55C0CB3F42
:100DD000ECE5DE0709F457C030F5C3318CE5D807E0
:100DE00009F46FC078F4C131ECE5DE0709F465C0A1
:100DF000C231DC4509F0A8CF0E94930C80916C02AF
:100E00008F773AC0C5318CE5D80709F462C008F481
:100E100076C080916D028160CA3FDC4509F094CFB5
:100E200080936D0291CFCF3FFCE5DF0709F44DC001
:100E300088F480916D028D7FCD3F9CE5D90781F3C9
:100E400080916D028E7FCE3FDC4550F380916D0224
:100E50008360E6CFC130FDE5DF0709F459C008F42F
:100E600044C080E0C230DD4509F06ECF0E946D13B2
:100E70006BCF80916C02816080936C0265CF809112
:100E80006C028460F9CF80916D028260C9CF80913D
:100E90006C028064F1CF0E94930C80916C02806898
:100EA000EBCF80916C028D7FE7CF80916C02877FC2
:100EB000E3CF80916C028F7DDFCF80916C028F7BBE
:100EC000DBCF80916C02837FD7CF80916D028C7FC6
:100ED000A7CF80916C0282FB992790F921E092279D
:100EE00090FB82F990FB83F9C7CF80916D02982F18
:100EF000909591708E7F892B90FB81F991CF0E9404
:100F0000930C90916C02892F97FB87F98058B4CF8E
:100F100081E0ACCF81E021CFCF93DF93EB0186312D
:100F20009C4511F50E9415129A81992399F08A7AAD
:100F300091E009F490E090938E01811109C089E25B
:100F40000E94F0110E94611280E0DF91CF9108951C
:100F500085E3F6CF80918E01811104C089E20E9461
:100F6000F711F0CF85E3FBCF81E0EFCF90939401B1
:100F7000809393010895E0919301F091940130974B
:100F800021F00190F081E02D099480E00895E09136
:100F90009301F0919401309799F02091140122234C
:100FA00059F020916C0227FF07C0DC012C911196AB
:100FB0002C93119725E02C930280F381E02D099466
:100FC0000895E0919301F0919401309739F022E077
:100FD000DC012C930480F581E02D09940895209183
:100FE0009101309192012817390771F09093920185
:100FF00080939101E0919301F0919401309721F059
:101000000680F781E02D0994089520918F01309199
:1010100090012817390771F09093900180938F0108
:10102000E0919301F0919401309721F00084F185D3
:10103000E02D0994089585B7806885BF85B78068DD
:1010400085BF0895089508950C94220808950C947E
:1010500026080E941B080E9423080C94240881E0A3
:1010600008950C942F080E94AA140E946A040E94FA
:1010700061150C9427087F928F929F92AF92BF9236
:10108000CF92DF92EF92FF920F931F93CF93DF9354
:10109000CDB7DEB72A970FB6F894DEBF0FBECDBF2F
:1010A0000E94CB040E943108882309F471C046E9EC
:1010B000A42E41E0B42E10E000E0702E802F0E949C
:1010C0005C046C01F501819091905F01881699068E
:1010D00009F458C08091270281FD0E94650480E0D8
:1010E000EE24E394F12C8C249D2494012E213F21A5
:1010F000232B09F441C08E837F82CE20DF2081E044
:10110000CD2809F480E088870E94B3148160782F8D
:101110009A8789874E815F8168858A850E94ED085C
:10112000000F111FF801EA56FE4F80819181E826D9
:10113000F926F182E0820E940F180E94BB0790916D
:1011400095018917B1F10E94BB07809395012A96FA
:101150000FB6F894DEBF0FBECDBFDF91CF911F91C8
:101160000F91FF90EF90DF90CF90BF90AF909F9046
:101170008F907F900C94F3018F5FEE0CFF1C8D30ED
:1011800009F0B3CF0F5F1F4F0430110509F095CF61
:101190008FEF89838A831B820E94B3148160782F2A
:1011A0009D838C8349815A816B818D810E94ED08DA
:1011B000C2CF2A960FB6F894DEBF0FBECDBFDF9127
:1011C000CF911F910F91FF90EF90DF90CF90BF9044
:1011D000AF909F908F907F900895CF93DF93CDB77E
:1011E000DEB72B970FB6F894DEBF0FBECDBF4F838F
:1011F000588769877A878B871E821D8285E0FE016A
:101200003796DE01119601900D928A95E1F749819A
:101210005A816B817C818D819E812B960FB6F894CB
:10122000DEBF0FBECDBFDF91CF910C940C0FFC0140
:10123000808191810C94C211CF93C82F882309F427
:101240008BC08238C1F40E94BB0781FD85C089E351
:101250000E94F0110E9461122FEF81EE94E0215064
:1012600080409040E1F700C0000089E30E94F71140
:10127000CF910C9461128338A1F40E94BB0780FDCA
:101280006BC083E50E94F0110E9461122FEF81EE86
:1012900094E0215080409040E1F700C0000083E5D9
:1012A000E5CF8438A1F40E94BB0782FD55C087E4D6
:1012B0000E94F0110E9461122FEF81EE94E0215004
:1012C00080409040E1F700C0000087E4CFCF8CEF72
:1012D0008C0F813A90F46C2F809100019091010164
:1012E0000E948613882329F08C2F0E94F7110E94F8
:1012F00061128C2F0E94F011BBCF80E28C0F8830DE
:1013000048F4C77081E001C0880FCA95EAF70E94CF
:101310001812AECFEBE5EC0FE33040F4F0E0EB5702
:10132000FE4F808190E0CF910C94EF07E8E5EC0F41
:10133000E73150F4F0E0EE0FFF1FE95AFE4F8081D5
:101340009181CF910C940508C03F30F08C2F0E9402
:101350000917CF910C94F417CF910895882309F4BD
:1013600052C0823871F40E94BB0781FF4CC089E3F0
:101370000E94F0110E94611289E30E94F7110C94FF
:101380006112833859F40E94BB0780FF3CC083E59B
:101390000E94F0110E94611283E5EFCF843859F466
:1013A0000E94BB0782FF2FC087E40E94F0110E94B9
:1013B000611287E4E2CF9CEF980F913AF0F290E24D
:1013C000980F983050F4877091E001C0990F8A957A
:1013D000EAF7892F0E941E12D2CF9BE5980F933017
:1013E00020F490E080E00C94EF0798E5980F973197
:1013F00020F490E080E00C940508803F20F00E94EB
:1014000071170C94F4170895CF93C82F0E941C09EC
:10141000C93349F42FEF87EE93E02150804090408C
:10142000E1F700C000008C2FCF910C94AE09882307
:1014300021F00E9418120C9461120895882321F063
:101440000E941E120C9461120895BF92CF92DF92F7
:10145000EF92FF920F931F93CF93DF936C01D62FE0
:10146000C72FFC01058102950F70128111110E9496
:1014700035120E940E12E82E882391F01123D1F02C
:101480008C2F807F803421F080E28D0F883090F0A7
:1014900082E00E94AC120E940E1291E0E82EE92632
:1014A000BC2EB2949FE0B922EB2DF0E0EA5AFF4D3A
:1014B0000C94F81FE12CF4CF0C2F0F70C07F11F0AB
:1014C0000295007F1123A9F0002359F080E28D0FCF
:1014D000883010F0D11109C0802F0E9418120E948C
:1014E00061128D2F0E941C0914C0802F0E942812A7
:1014F000F6CF8D2F0E94AE09002359F080E28D0FA8
:10150000883010F0D1112CC0802F0E941E120E9432
:1015100061122B2D2850330B2430310520F40E940A
:10152000BB070E94F301EE2009F49EC10E940A123B
:1015300080FD9AC1F60112820E9404120E9490104E
:10154000C6010E94550C0E940412DF91CF911F9199
:101550000F91FF90EF90DF90CF90BF900C94B1105F
:10156000802F0E942E12D3CFFC2FFF70FF2EC07F42
:10157000C03219F0F29480EFF822DD2369F0D13007
:1015800049F1112391F1002351F1F601858180FF8A
:10159000A8CF8F70858323C0112381F0011106C06D
:1015A0000E9448128F290E94170AB3CF0130C1F759
:1015B0000E9448128F290E944E12ABCF011106C023
:1015C0000E9457128F2D0E941E0AA3CF013009F4EA
:1015D000A0CFF6CF112329F0063008F09ACF8F2D37
:1015E000E2CF053008F095CFEDCF002359F3D93382
:1015F00049F4FFEF27EE33E0F15020403040E1F7AF
:1016000000C000008D2F0E94AE0983CF8C2F8695DD
:101610008695837069F0813009F07BCF8D2F9C2FE8
:101620009370111102C090E080E00E94050871CF14
:101630008D2F9C2F9370111102C090E080E00E94CA
:10164000EF0767CF8D2F112329F00E9409170E9401
:10165000F4175FCF0E947117FACF8C2F837009F0B7
:1016600041C0111156CF4D2F429546954770440FFA
:10167000440F0D2F0F7010E030E020E0042E04C066
:10168000000F111F221F331F0A94D2F760E070E091
:10169000CB01D4FF0FC06FE070E080E090E004C0A9
:1016A000660F771F881F991F4A95D2F7609570952E
:1016B00080959095C695C695C370602B712B822B33
:1016C000932BC23049F058F4C13019F00E944210F7
:1016D00020CF0E9430101DCF0E9454101ACF0E94BC
:1016E0002E1017CF8695112311F08C2F817088232F
:1016F00009F40FCF4D2F429546954770440F440F84
:101700000D2F0F7010E030E020E0042E04C0000F19
:10171000111F221F331F0A94D2F760E070E0CB0143
:10172000D4FF0FC06FE070E080E090E004C0660F6F
:10173000771F881F991F4A95D2F7609570958095FD
:101740009095C695C695C370602B712B822B932BF9
:10175000C23049F058F4C13019F00E940711D9CEB7
:101760000E94F510D6CE0E941911D3CE0E946A10A5
:10177000D0CECF70112329F08C2F0E9490108D2F86
:1017800012CF8D2F0E941E0A8C2F0E94B110C1CE45
:10179000D23F89F160F4D03FC9F0D13F29F1112344
:1017A00009F442C001119DCE8C2F8F7121C0D33F0F
:1017B00039F1D43FA1F7112369F1CF718C2F0E9429
:1017C000901063E08C2F0E949712A3CE112341F05A
:1017D000053008F09ECE8C2F8F710E94D41099CEC8
:1017E000063008F096CEF7CF8C2F8F71112369F257
:1017F0000E9490108ECE8C2F8F711123C9F3C5CF0C
:10180000112329F08C2F8F710E947B1082CE0E94B1
:1018100076107FCE81E00E94AC12023008F479CEBF
:1018200082E00E94AC1275CE002359F0D93309F042
:10183000E9CE8FEF97EEE3E081509040E040E1F792
:10184000DFCE8C2F8F71A1CF4C2F4F706D2FC60123
:101850000E9447020E94A60F5CCE4C2F4F706D2F46
:10186000C6010E944A0255CEDF91CF911F910F9180
:10187000FF90EF90DF90CF90BF9008950F931F934C
:10188000CF93DF93EC01688179818A810E94CC112A
:101890008C010E942B110E942D10B801CE01DF9106
:1018A000CF911F910F910C94250ACF93DF93EC01F8
:1018B0008B819C81892B29F08881998189238F3F95
:1018C00059F4DF91CF910895CE010E943E0CCE01D4
:1018D000DF91CF910C94D701CE010E940B028111B0
:1018E000F3CF0E940E12882361F38A81882349F383
:1018F00082E0DF91CF910C94AC120E9435120E94CD
:1019000045120E9461120E941B190E94F41790E078
:1019100080E00E94EF0790E080E00C9405080E94B0
:10192000FE110C947D0C0E9425120C948F0CE92F53
:10193000E295EF70E250EE3070F4F0E0EA59FF4DBE
:101940000C94F81F803F19F020F4883E20F481E0C9
:101950000895843FE1F380E00895883EC0F3813F1D
:10196000D1F7F5CF93FB882780F908950E94C21123
:101970000C94970CCF93DF9300D000D00F92CDB78B
:10198000DEB70F900F900F900F900F90DF91CF91D7
:101990000895CF93DF9300D000D000D0CDB7DEB74D
:1019A00026960FB6F894DEBF0FBECDBFDF91CF9164
:1019B00008951F93CF93DF93C0919F0116E080910C
:1019C000A0018C1304C0DF91CF911F910895D0E046
:1019D0001C9FF0011D9FF00D1124EF55FE4F40811B
:1019E000518162817381848195810E94C90C219605
:1019F000C770E5CF4091D1015091D2016091D301E0
:101A00007091D4018091D5019091D6010C94C90CAC
:101A10001F93CF93DF938091D601807FA9F48091AB
:101A2000D301882389F080919F01C091A00160912A
:101A3000D1017091D201A091D401B091D501D62FDE
:101A4000D72316E0C81304C0DF91CF911F910895EA
:101A500090E0109711F0DF3F19F401968770F2CFF4
:101A6000189F9001199F300D1124F901EF55FE4F79
:101A700041814713F2CF40814613EFCF428141119C
:101A8000ECCF438154814A1B5B0B483C510528F73E
:101A90008091D6018F7080618093D601F901EA555B
:101AA000FE4F80818F708061808381ED91E00E9484
:101AB000550CDF91CF911F910C94D90CAF92BF922E
:101AC000CF92DF92EF92FF920F931F93CF93DF930A
:101AD000CDB7DEB761970FB6F894DEBF0FBECDBFAE
:101AE0008C0185E0F801DE011D9601900D928A952A
:101AF000E1F7F80140815181E28081EDC82E81E05B
:101B0000D82E6091D4017091D5016115710509F449
:101B100061C19091D1012091D201892F82238F3F01
:101B200009F458C1A380B480F090D301F501E61BFD
:101B3000F70BFF2009F4FCC08091D601382F307FCD
:101B4000E83CF10508F0B2C0311179C0FE2C251334
:101B500023C0941321C0E1101FC08F708061809357
:101B6000D6010E94FA0CC6010E94550C8091D60144
:101B7000F80185838F2D61960FB6F894DEBF0FBEF6
:101B8000CDBFDF91CF911F910F91FF90EF90DF902C
:101B9000CF90BF90AF900895AB2829F0842F852374
:101BA0008F3F09F033C180E0F82FF170DF2E80FF06
:101BB0003CC080919F012091A00136E0821315C0A6
:101BC0004D875E878D859E850E94C211292F2295A3
:101BD0002F702230F0F0243018F59F70F1F0F801EA
:101BE0009581907FD1F4D12C1EC090E0389FF001F8
:101BF000399FF00D1124EF55FE4F6181651306C02A
:101C00006081641303C062816E110FC001968770FA
:101C1000D5CF9F7011F0882331F3805E883018F3A0
:101C2000C8010E94550CFD2CA5CFEE2009F4A2CFCF
:101C30008091D60181608093D601F12C9BCF251332
:101C400006C0941304C0F801EE2009F48DC04D873E
:101C50005E878D859E850E94B60C882319F1EE2043
:101C600009F18091D601803270F02091D10130913C
:101C7000D20138872F831986BB86AA868C87CE012E
:101C800007960E94550C86E0F801A1EDB1E00190A5
:101C90000D928A95E1F70E94080D0E94FA0CFF242C
:101CA000F39468CFC8010E94550CF9CF311113C0CD
:101CB0007A2DB98AA88A6E2D89890E94BA0C81ED85
:101CC00091E00E94550C86E0F60111928A95E9F7A1
:101CD0000E94FA0CB2CF25130FC094130DC0E1106F
:101CE0000BC0F8018583C8010E94550C86E0F601FF
:101CF00011928A95E9F73ECF4D875E878D859E8547
:101D00000E94B60C882371F2EE2061F28091D60118
:101D1000803208F4B8CF2091D1013091D2013A83BA
:101D200029831B82BD82AC828E83CE010196A9CF0E
:101D3000E83CF10508F041C0FE2CEE2009F4B2CFDA
:101D400025132AC0941328C08091D60180FD1BC0A2
:101D5000982F907FC1F0F8018583903F31F0982F44
:101D6000907F905F8F70892B8583C8010E94550CEE
:101D700086E0F801A1EDB1E001900D928A95E1F7BE
:101D80000E94FA0CF7CE86E0F801A1EDB1E00190D7
:101D90000D928A95E1F7EECE4D875E878D859E8503
:101DA0000E94B60C81116FCF8091D6018160809323
:101DB000D601C8010E94550CDDCE7A2DB98AA88AB9
:101DC0006E2D89890E94BA0C86E0F60111928A95DF
:101DD000E9F7D6CFEE2009F465CF4D875E878D8574
:101DE0009E850E94B60CF82E882309F45BCF86E00E
:101DF000F801A1EDB1E001900D928A95E1F781ED36
:101E000091E00E9417090E94080DBACF81E08E254B
:101E1000CBCE88EC90E008951F93CF93DF93CDB79E
:101E2000DEB72C970FB6F894DEBF0FBECDBF4F8341
:101E3000588769877A878B879C87CE0107960E948F
:101E40005E0D882369F08A859B85892B39F04F8147
:101E50005885842F85238F3F09F071C016E05FC03D
:101E600086E0FE013796DE01119601900D928A956B
:101E7000E1F78A859B85892B89F388859F81892352
:101E80008F3F61F32091A00130E0C9010196877076
:101E9000992740919F014817190671F40E94930CED
:101EA0001092A00110929F0186E0E1EDF1E0DF01C8
:101EB0001D928A95E9F7D2CF96E0929FD001939F29
:101EC000B00D1124AF55BE4FFE01319601900D9219
:101ED0009A95E1F78093A0010E94D90CBFCF819F12
:101EE000C00111248F559E4F0E945E0D8823E9F09A
:101EF000E0919F011E9FF0011124EF55FE4F40819C
:101F0000518162817381848195810E94C90C809185
:101F10009F0190E001968770992780939F0180919F
:101F20009F019091A0018913DACF2C960FB6F894F7
:101F3000DEBF0FBECDBFDF91CF911F9108956985A0
:101F40007A858B859C850E94C90C88CFEF92FF9281
:101F50000F931F93CF93DF938C01892B81F0F12C8A
:101F6000EE24E394E8012196F8018491843770F41B
:101F7000843008F05FC08130B1F08230A1F1DF9190
:101F8000CF911F910F91FF90EF900895853709F43D
:101F90004CC008F43DC09CE7980F903780F78F77CE
:101FA0000E94AE0949C00E5F1F4FFE01849190E26E
:101FB000980F983060F48770FE2D01C0FF0F8A954E
:101FC000EAF78F2F0E9438120E94611202C00E940D
:101FD0001C098F2D815030F2EFE9FFE03197F1F7C6
:101FE00000C00000F7CF0E5F1F4FFE01849190E20A
:101FF000980F983050F48770FE2D01C0FF0F8A951E
:10200000EAF78F2F0E943E12DFCF0E94AE09E1CF88
:102010000E5F1F4FFE01C491C150D8F28FE99FE0BF
:102020000197F1F700C00000F7CF0E5F1F4FFE01D0
:10203000F490CFCF0E941C098E01CBCF08950C9451
:102040001E100E941F106093FE017093FF01809389
:102050000002909301020C947D0C08950C942110C1
:102060000F931F930091FE011091FF012091000238
:1020700030910102602B712B822B932B1F910F91BA
:102080000C9421100F931F930091FE011091FF01FA
:102090002091000230910102602371238223932357
:1020A0001F910F910C9421100F931F930091FE012B
:1020B0001091FF01209100023091010260277127E9
:1020C000822793271F910F910C9421100C941E10BE
:1020D0000C9466100E9468106093FA017093FB01E3
:1020E0008093FC019093FD010C947D0C60E070E006
:1020F000CB010C946A100F931F9341E050E060E015
:1021000070E08A019B0104C0000F111F221F331FC2
:102110008A95D2F7C901B8011F910F910C946A10EA
:102120000F931F9341E050E060E070E004C0440F63
:10213000551F661F771F8A95D2F78091FA019091FB
:10214000FB01A091FC01B091FD018A019B01082BCC
:10215000192B2A2B3B2BC901B8011F910F910C940D
:102160006A100F931F9341E050E060E070E004C0FC
:10217000440F551F661F771F8A95D2F7CB01BA010E
:1021800060957095809590950091FA011091FB01F2
:102190002091FC013091FD01602371238223932360
:1021A0001F910F910C946A100F931F9341E050E020
:1021B00060E070E004C0440F551F661F771F8A95CA
:1021C000D2F78091FA019091FB01A091FC01B091AE
:1021D000FD018A019B01082719272A273B27C901EE
:1021E000B8011F910F910C946A100F931F930091E7
:1021F000FA011091FB012091FC013091FD01602B4F
:10220000712B822B932B1F910F910C946A100F93BB
:102210001F930091FA011091FB012091FC01309174
:10222000FD0160237123822393231F910F910C944E
:102230006A100F931F930091FA011091FB012091F6
:10224000FC013091FD0160277127822793271F91A0
:102250000F910C946A1008952DE0929F800D112427
:10226000982F977041E001C0440F9A95EAF7869540
:102270008695869595E0899FF0011124E952FE4FDD
:1022800090E080E070E05191DF0111979B01082EF2
:1022900002C0369527950A94E2F7217021952527EB
:1022A000242325272C9301968530910561F7089505
:1022B0002DE0929F800D1124982F9770869586951A
:1022C000869525E0829FF0011124E952FE4F50E0EF
:1022D00040E080E0219130E0092E02C0369527953C
:1022E0000A94E2F721703327042E01C0220F0A94CA
:1022F000EAF7822B4F5F5F4F4530510559F708953C
:10230000BF92CF92DF92EF92FF920F931F93CF93E2
:10231000DF938C01C090FA01D090FB01E090FC01AA
:10232000F090FD018091FE019091FF01A0910002CB
:10233000B0910102C82AD92AEA2AFB2ACFE1D0E0CB
:10234000BC2ED701C6010C2E04C0B695A795979553
:1023500087950A94D2F780FD0EC0219788F7B12C9B
:102360008B2DDF91CF911F910F91FF90EF90DF9018
:10237000CF90BF900895B8018C2F0E9467020197FB
:1023800061F3EECFCF93DF93EC010E948011BE0189
:10239000DF91CF910C9467021F93CF93DF93EB01F2
:1023A00090919E01992331F0CB01DF91CF911F9144
:1023B0000C94C211882379F0CB010E948011182F50
:1023C000682FCE010E942C11BE01812FDF91CF9189
:1023D0001F910C946702CB010E945811182FF4CF63
:1023E000682F80910001909101010C940614682FD0
:1023F00080910001909101010C94111480910001D1
:10240000909101010C941C14809102028595859590
:102410008595089580910202877008959091020237
:10242000977081E009F480E0089580912602089574
:1024300090912602892B8093260208958095909191
:10244000260298239093260208951092260208955A
:1024500090912502892B8093250208958095909173
:10246000250298239093250208951092250208953D
:1024700090912402892B8093240208958095909155
:102480002402982390932402089510922402089520
:1024900080910302089508950C944B1290910302C9
:1024A000981721F0809303020C944C1208958091A8
:1024B0000302882329F01092030280E00C944C124E
:1024C0000895E0910001F09101018091260280833E
:1024D000E0910001F0910101808190912502892B0A
:1024E0008083E0910001F0910101808190912402AC
:1024F000892B808390910302992381F0E091000160
:10250000F09101018081892B80838091000190915D
:1025100001010E94721381110E94571280910001E3
:10252000909101010C94C70708950C94941298E0BF
:10253000899F90011124622B609302020E949010E7
:10254000809102028595859585950C94951210923F
:10255000020280E00C9495129091020280958923EA
:1025600080930202282F277071F4282F082E000C68
:10257000330B9217130639F08595859585950E9442
:10258000B1100C94A712089590E080E00E941A20E8
:1025900021E08C3E9E4F09F020E0822F089582E0DA
:1025A00090E00C941220682F82E090E00C942020A0
:1025B00083E090E00C941220682F83E090E00C946C
:1025C0002020CF9384E090E00E941220C82F81E267
:1025D00090E00E941220982F8C2FCF910895CF93D6
:1025E000C92F682F84E090E00E9420206C2F81E2A8
:1025F00090E0CF910C942020AB01BC018FE090E0E3
:102600000C943220AB01BC0183E190E00C943220A9
:1026100060E070E0CB010C94021360E070E0CB014D
:102620000E94FC120C9408136CEE7EEF90E080E0A8
:102630000E943E2060E082E090E00E94202060E066
:1026400083E090E00E9420201092FE011092FF0192
:10265000109200021092010260E084E090E00E947B
:10266000202060E081E290E00E94202060E085E090
:1026700090E00E94202060E086E090E00E94202010
:102680006FEF87E090E00E94202040E050E0BA0128
:1026900088E090E00E94322060E08DE090E00E94AF
:1026A000202040E050E0BA0188E190E00E94322012
:1026B00060E087E190E00E94202040E050E0BA0115
:1026C0008CE190E00E94322060E080E290E00E9485
:1026D00020200C940D130C941413682F8EE090E0BE
:1026E0000C942020FC01329680911401882321F063
:1026F00080916C029EE187FF96E080E0915008F4A3
:10270000089521912223D1F38F5FF8CF662301F141
:10271000209114012223F1F020916C0227FF1AC0AE
:10272000462F4695469546954E3190F4677021E0C8
:1027300030E002C0220F331F6A95E2F7840F911D2B
:10274000FC01828190E02823392381E0232B69F466
:1027500080E00895FC01329608962191261721F019
:10276000E817F907D1F7F4CF81E008959C01FC0147
:1027700032969FEF80E04191461751F09F3F19F448
:10278000411101C0982F8F5F8630A9F79F3F09F450
:102790000895290F311D97FD3A95F9016283089537
:1027A000FC01329608962191261303C0DF01119790
:1027B0001C92E817F907B9F70895E62FE695E69514
:1027C000E695EE3168F4E80FF92FF11D677021E00E
:1027D00030E001C0220F6A95EAF78281822B828362
:1027E0000895E62FE695E695E695EE3170F4E80F4C
:1027F000F92FF11D677021E030E001C0220F6A95CA
:10280000EAF72095828128232283089520911401DC
:10281000222329F020916C0227FD0C94DD130C94E7
:10282000B61320911401222329F020916C0227FD78
:102830000C94F1130C94D013FC0132968091140186
:10284000882351F080916C0287FF06C08EE1DF0182
:102850001D928A95E9F7089586E0F9CF08950895C5
:102860000C942F140E94301480917202843049F12C
:102870001092280288E190E020E40FB6F894A89521
:10288000809360000FBE2093600080E00E94F301FF
:102890000E94301483B7817F846083BF83B78160D7
:1028A00083BF7894889583B78E7F83BF0FB6F894E3
:1028B000A89580916000886180936000109260000C
:1028C0000FBE08950895CF930E942E140E94CB044A
:1028D0000E946214C0E08C2F0E945C04892B31F4AA
:1028E000CF5FC430C1F780E0CF91089581E0FCCF85
:1028F00008950C9478140E94930C0E94BB070E94C8
:10290000F3010C9479141F921FB61F9211248F9318
:102910009F93AF93BF9380912802811113C0809140
:10292000680290916902A0916A02B0916B0241968F
:10293000A11DB11D8093680290936902A0936A0261
:10294000B0936B02BF91AF919F918F911F901FBE6B
:102950001F90189582E084BD93E095BD9AEF97BDD6
:1029600080936E0008952FB7F8948091680290913B
:102970006902A0916A02B0916B022FBF08959C0179
:102980004FB7F8948091680290916902A0916A0211
:10299000B0916B024FBF821B930B089578941F92E6
:1029A0001FB61F9211248F939F93AF93BF93809173
:1029B000680290916902A0916A02B0916B0201963F
:1029C000A11DB11D8093680290936902A0936A02D1
:1029D000B0936B02BF91AF919F918F911F901FBEDB
:1029E0001F90189581E08093E00080E28093D800EA
:1029F0001092C9008FE19EE40197F1F700C000003A
:102A000087E090EBDC0180937B0290937C02A093A3
:102A10007D02B0937E0288E19CE00FB6F894A89501
:102A2000809360000FBE90936000FFCFAF92BF9283
:102A3000CF92DF92EF92FF920F931F93CF93C0E05C
:102A4000CC24C394D12CE82EF12C8C2F0E945C0452
:102A50005C0110E000E0C601002E02C0880F991F43
:102A60000A94E2F78A219B21892B99F40F5F1F4F6B
:102A70000D30110581F7CF5FC43039F780E0CF9179
:102A80001F910F91FF90EF90DF90CF90BF90AF908C
:102A90000895602F7C2F80E00E944B02E816F90613
:102AA00029F781E0ECCFCF93C82F8CE20E94161556
:102AB000882321F08C2FCF910C94161580E0CF91B4
:102AC0000895CF930E94C412811102C00E946B131B
:102AD000C5E608C00E94CB048FE39CE90197F1F79B
:102AE00000C00000C150B1F789E20E945315811166
:102AF0000BC18AE20E94531581110E946B1385E07D
:102B00000E94531581110E94F2140E94CF128093EB
:102B1000270287E00E945315882371F08BE10E9401
:102B20005315882309F4CDC090912702892F8D7FFA
:102B300091FF826080932702809127020E94D31226
:102B40000E94E11290936D0280936C0280EE0E94CD
:102B50005315882341F090916C02892F8E7F90FF4E
:102B6000816080936C0289E30E945315882341F0B1
:102B700090916C02892F8D7F91FF826080936C020F
:102B800082EE0E945315882341F090916C02892FA8
:102B90008B7F92FF846080936C0286EE0E945315B7
:102BA000882341F090916C02892F877F93FF886082
:102BB00080936C0283EE0E945315882341F090911C
:102BC0006C02892F8F7E94FF806180936C0285E375
:102BD0000E945315882341F090916C02892F8F7DBC
:102BE00095FF806280936C0281E30E9453158823D5
:102BF00041F090916C02892F8F7B96FF80648093C7
:102C00006C0281E10E945315882341F090916C027F
:102C1000892F97FB87F9805880936C0280916C0212
:102C200090916D020E94EF1287E20E945315C82F07
:102C30008EE10E9453158111C2608FE10E945315ED
:102C40008111C46080E20E9453158111C86081E245
:102C50000E9453158111C06182E20E9453158111B7
:102C6000C06283E20E9453158111C06484E20E9415
:102C70005315882309F442C0C0688C2F0E94DC12CF
:102C80006C2F70E090E080E00E942E106091FA01BD
:102C90007091FB018091FC019091FD010E946810F0
:102CA0008FE00E945315882319F081E00E946D1374
:102CB00085E10E945315882339F180E0CF910C946F
:102CC0006D138EE00E945315882339F090912702EE
:102CD000892F8B7F92FF84602DCF80E10E94531556
:102CE00090912702882329F0892F877F93FF88609E
:102CF00021CF892F8E7F90FF81601CCFC111BDCF66
:102D00000E94D812682FBDCFCF91089580912F02D5
:102D100080FF12C06091070185E0689FB001112417
:102D2000759567957595679560387105A8F5611576
:102D30007105A1F1862F089581FF09C060910701F7
:102D400085E0689FB001112475956795EDCF60917E
:102D5000070182FD0AC080912E028823D1F0909154
:102D6000060160910701891728F085E0689FB0018E
:102D70001124DACF869FB001112485E0869F90014F
:102D8000879F300D1124692F70E0C9010E94E41F54
:102D9000CBCF65E070E0CECF8FE7089581E0089556
:102DA00080912F0280FF0CC06091030170E0759547
:102DB0006795759567956115710549F1862F089599
:102DC00081FF06C06091030170E075956795F3CFB0
:102DD0006091030182FD0BC090912D029923A1F017
:102DE0006091020180910301961738F0682F70E01E
:102DF0006038710500F38FE70895899FC0011124A1
:102E000070E00E94E41FF4CF61E070E0D7CF81E072
:102E10000895803F31F40E94861681958093330295
:102E20000895813F19F40E948616F8CF823F31F44D
:102E30000E9486168195809332020895833F19F48B
:102E40000E948616F8CF893F29F40E94D0168093FD
:102E5000340208958A3F21F40E94D0168195F7CF5D
:102E60008B3F31F40E94D0168195809335020895EE
:102E70008C3F19F40E94D016F8CF843F31F4809132
:102E800031028160809331020895853F21F4809161
:102E900031028260F7CF863F21F480913102846055
:102EA000F1CF873F21F4809131028860EBCF883FDA
:102EB00021F4809131028061E5CF8D3F31F4809122
:102EC0002F02816080932F0208958E3F21F480911C
:102ED0002F028260F7CF8F3FB9F780912F02846075
:102EE000F1CF90913202803F59F48091330287FFF5
:102EF0000DC01092330291110BC010922E0208C027
:102F0000813F81F48091330218169CF3992381F05C
:102F10008091340290913502892B09F064C010929F
:102F20002D020895823F49F497FFF0CF10923202AC
:102F3000809133028111ECCFE0CF833F19F4191651
:102F4000ACF3E4CF20913402893F29F41216F4F651
:102F500010923402DBCF8A3F19F427FFD7CFF8CF86
:102F6000209135028B3F29F427FFD0CF10923502F4
:102F7000CDCF8C3F19F41216CCF3C8CF843F31F477
:102F8000809131028E7F80933102C0CF853F21F442
:102F9000809131028D7FF7CF863F21F480913102FD
:102FA0008B7FF1CF873F21F480913102877FEBCF78
:102FB000883F21F4809131028F7EE5CF8D3F31F43F
:102FC00080912F028E7F80932F02A0CF8E3F21F41D
:102FD00080912F028D7FF7CF8F3F09F097CF80919F
:102FE0002F028B7FF0CF08950E94B3149C01909123
:102FF000320280913302982B21F030932C022093DF
:103000002B029091340280913502982B21F030935D
:103010002A022093290280E392E00C94E107EF92C8
:10302000FF920F931F93CF93DF9300D000D000D077
:10303000CDB7DEB786E0E0E3F2E0DE011196019065
:103040000D928A95E1F7E0903202F0903302009100
:103050003402109135021092320210923302109213
:103060003402109235028E2D8F2991F080912B021F
:1030700090912C020E94BF14AC0190912E029923D2
:1030800009F43FC0809108018417150608F447C071
:10309000802F812B91F08091290290912A020E9429
:1030A000BF14AC0190912D02992309F477C080914F
:1030B00004018417150608F47FC0809132029091B4
:1030C0003302892B90913402892B90913502892B00
:1030D00011F00E94F41786E0FE013196A0E3B2E001
:1030E00001900D928A95E1F726960FB6F894DEBF0F
:1030F0000FBECDBFDF91CF911F910F91FF90EF9049
:103100000895209109018AE0289F90011124241735
:10311000350708F0BDCF9F5F90932E0202C09F3FFE
:10312000D1F7EE2059F00E9486169FEF1E140CF482
:1031300091E0899F802D112480933202FF2059F065
:103140000E9486169FEF1F140CF491E0899F802D3A
:1031500011248093330230913202332309F498CF43
:1031600020913302222309F493CF45EB3403C001AD
:103170001124992359F09093320245EB24039001D6
:103180001124332339F03093330282CF81E08093CE
:103190003202F3CF81E0809333027ACF2091050190
:1031A0008AE0289F900111242417350708F085CF65
:1031B0009F5F90932D0202C09F3FD1F7002359F0EB
:1031C0000E94D0169FEF10160CF491E0899F802D7D
:1031D000112480933402112359F00E94D0169FEFDE
:1031E00011160CF491E0899F802D112480933502F3
:1031F00030913402332309F460CF20913502222329
:1032000009F45BCF45EB3403C0011124992359F035
:103210009093340245EB240390011124332339F0B9
:10322000309335024ACF81E080933402F3CF81E0BE
:103230008093350242CF86E0E0E3F2E0DF011D92A9
:103240008A95E9F710922E0210922D0210922F0209
:103250000895809156020895CF93DF9300D00F9286
:10326000CDB7DEB790917202943019F589837B83D4
:103270006A8382E08093E9008FEF9091E8008150AB
:1032800095FD06C095ED9A95F1F700008111F5CFF7
:103290008091E80085FF0DC050E040E063E070E001
:1032A000CE0101960E94531B8091E8008E77809397
:1032B000E8000F900F900F90DF91CF910895BC011F
:1032C00084E00C942C19BC0183E00C942C199C0113
:1032D00082E08093E9009FEF8091E800915085FDA6
:1032E00006C085ED8A95F1F700009111F5CF809128
:1032F000E80085FF0CC050E040E066E070E0C901E6
:103300000E94531B8091E8008E778093E800089517
:10331000CF93DF93EC01809114018823B1F1809168
:103320006C0287FF32C060E282E08093E9008FEF99
:103330009091E800815095FD06C095ED9A95F1F7C2
:1033400000008111F5CF8091E80085FF1BC08091BE
:10335000140170E050E040E0811104C050E040E012
:1033600068E070E0CE010E94531B8091E8008E77E8
:103370008093E80080E2FE01A6E3B2E001900D92A6
:103380008A95E1F7DF91CF91089568E081E0CDCF94
:1033900080917102811109C00E94E31C0E94401DAE
:1033A0008091E20084608093E2000895109271029F
:1033B0000895089508950C947B1442E061EC81E037
:1033C0000E945F1C42E261EC82E00C945F1C8091E1
:1033D0007402833009F45FC030F48130C1F182306F
:1033E00009F49BC008958A3009F487C08B3009F432
:1033F0006DC0893009F04EC080917302813209F0AE
:1034000049C08091770290917802029708F042C0FB
:103410008091E800877F8093E8008091E80082FF38
:1034200035C09091F3008091F200029729F48091C9
:10343000F1008B7F813021F48091F100809356025E
:103440008091E8008B778093E8000C94931C809126
:103450007302813AF9F48091E800877F8093E80055
:103460008091770290917802892B61F460E286E383
:1034700092E070E00E94A21B8091E8008B7780931D
:10348000E800089560E090E080E0F3CF8091720260
:103490008111C3CF089580917302813AD9F7809149
:1034A000770290917802892BA9F78091E800877FB5
:1034B0008093E8008091E80080FFFCCF80911401A8
:1034C0008093F1008091E8008E77BDCF80917302E8
:1034D000813201F78091770290917802892BD1F6A1
:1034E0008091E800877F8093E8000E94931C809180
:1034F0007502809314010C94930C809173028132B5
:1035000049F68091E800877F8093E8000E94931C31
:103510008091760280935702089580917302813AD8
:1035200009F0B8CF8091E800877F8093E800809110
:10353000E80080FFFCCF80915702C2CF84B7877F1D
:1035400084BF0FB6F894A89580916000886180933D
:103550006000109260000FBE80E890E00FB6F89413
:1035600080936100909361000FBE0E9429080E9421
:10357000E31C0E94401D8091E20084608093E20081
:1035800078940E94C91F0E9433088AE091E00E944B
:10359000B60780917202853019F00E943B08F9CF7E
:1035A0000E94321480917002882399F30E94631460
:1035B000882379F30E943D1BECCF0C94DF1A292F4E
:1035C00033272330310519F168F42130310509F42E
:1035D0004AC02230310509F44BC090E080E030E071
:1035E00020E028C02132310579F122323105A9F7D6
:1035F00080E490E021E532E061157105D9F08CEBB3
:1036000090E025E931E061307105A1F0E6CF99271E
:103610008130910599F0009741F08230910589F051
:103620000397D9F6E4E1F1E002C0E4E4F1E084912B
:1036300090E09F01FA01318320830895E6E3F1E0F1
:10364000F6CFEAE1F1E0F3CF89E090E02AE531E05E
:103650006115710579F389E090E023E731E061308D
:10366000710541F3BACF82E190E023E831E0E2CF87
:103670008BE390E028E431E0DDCF80E189BD82E199
:1036800089BD09B400FEFDCF8091D8008F7D809365
:10369000D8008091E00082608093E0008091E0009B
:1036A00081FDFCCF0895AF92BF92CF92DF92FF923F
:1036B0000F931F93CF93DF936C01EB018A010E945C
:1036C000B21CF82E811123C00115110539F0F80143
:1036D00080819181C81BD90BC80ED91EB12CA12C99
:1036E0002097A9F08091E80085FD22C08091E80034
:1036F0008E778093E80001151105A1F0F801808113
:103700009181A80EB91EB182A08285E0F82E8F2D7E
:10371000DF91CF911F910F91FF90DF90CF90BF90DD
:10372000AF9008950E94B21C8823D1F2F82EEFCFFB
:10373000F60181916F018093F1002197FFEFAF1A9D
:10374000BF0ACECFFC018091790290917A02861750
:103750009707A0F06115710529F49091E8009E7714
:103760009093E80090E06115710551F4911108C043
:103770008091E80082FF34C080E00895BC01F2CF60
:10378000809172028823C1F18530C1F18091E800F7
:1037900083FD30C08091E80082FDEACF8091E8008F
:1037A00080FFE1CF8091F3002091F200382F611566
:1037B000710519F02830310558F091E028303105B5
:1037C00009F090E02091E8002E772093E800CBCF1D
:1037D00081918093F100615071092F5F3F4FE7CFD6
:1037E00080917202882341F0853041F08091E80099
:1037F00083FFBECF81E0089582E0089583E00895BD
:10380000FC018091790290917A0286179707A0F0C7
:103810006115710529F48091E8008E778093E800A6
:1038200090E06115710551F4911108C08091E80094
:1038300082FF35C080E00895BC01F2CF8091720212
:103840008823C9F18530C9F18091E80083FD31C03A
:103850008091E80082FDEACF8091E80080FFE1CF0F
:103860008091F3002091F200382F6115710519F055
:103870002830310558F091E02830310509F090E00A
:103880008091E8008E778093E800CBCF849180937D
:10389000F1003196615071092F5F3F4FE6CF809163
:1038A0007202882341F0853041F08091E80083FF67
:1038B000BDCF81E0089582E0089583E00895982FB8
:1038C000973028F08F708093E90081E008959093FD
:1038D000E900242F762F50E0981731F07091EC001A
:1038E0002091ED005091F00021FD02C09F5FE8CFD4
:1038F0003091EB003E7F3093EB003091ED003D7F47
:103900003093ED003091EB0031603093EB00709319
:10391000EC002093ED005093F0002091EE0027FD85
:10392000E5CF80E008958091730287FF13C08091F6
:10393000E80082FF06C08091E8008B778093E80062
:1039400004C0809172028111F2CF089580917202B9
:103950008823D9F38091E80080FFF8CF8091E800B8
:103960008E77ECCF2091E4003091E50095E6A90137
:103970002091EC00822F817020FF06C08091E8002A
:1039800080FF06C080E008952091E80022FD1AC063
:1039900080917202882389F0853089F08091EB0054
:1039A00085FD0FC02091E4003091E50042175307D8
:1039B000F9F29150E1F684E0089582E0089583E001
:1039C000089581E008950E94511D0E94591DE0EE66
:1039D000F0E0808181608083E8EDF0E080818F7786
:1039E000808319BCA7EDB0E08C918E7F8C93808191
:1039F0008F7E80831092710208950F931F93CF934F
:103A0000DF930E94511D0E94591DC8EDD0E08881AE
:103A10008F77888388818068888388818F7D888379
:103A200019BC1092720210926E02109270021092E3
:103A30006F0200EE10E0F80180818B7F8083888127
:103A40008160888342E060E080E00E945F1CE1EEDC
:103A5000F0E080818E7F8083E2EEF0E08081816003
:103A60008083808188608083F80180818E7F80835D
:103A7000888180618883DF91CF911F910F91089594
:103A8000E8EDF0E080818F7E8083E7EDF0E08081DB
:103A90008160808384E082BF81E0809371020C9416
:103AA000FD1CE8EDF0E080818E7F80831092E200C3
:103AB00008951092DA001092E10008951F920F927B
:103AC0000FB60F9211242F933F934F935F936F93F1
:103AD0007F938F939F93AF93BF93EF93FF938091C7
:103AE000E10082FF0BC08091E20082FF07C080915D
:103AF000E1008B7F8093E1000E94C81F8091DA0073
:103B000080FF19C08091D80080FF15C08091DA0035
:103B10008E7F8093DA008091D90080FF96C080E18B
:103B200089BD82E189BD09B400FEFDCF81E08093AB
:103B300072020E94C8198091E10080FF19C0809133
:103B4000E20080FF15C08091E2008E7F8093E2004A
:103B50008091E20080618093E2008091D8008062D1
:103B60008093D80019BC85E0809372020E94DA1914
:103B70008091E10084FF2BC08091E20084FF27C088
:103B800080E189BD82E189BD89B5982F917080FF60
:103B9000FBCF8091D8008F7D8093D8008091E10089
:103BA0008F7E8093E1008091E2008F7E8093E2001F
:103BB0008091E20081608093E20080916E02882310
:103BC00009F449C084E0809372020E94DB1980915D
:103BD000E10083FF29C08091E20083FF25C080912E
:103BE000E100877F8093E10082E08093720210926F
:103BF0006E028091E1008E7F8093E1008091E2006F
:103C00008E7F8093E2008091E20080618093E200E9
:103C100042E060E080E00E945F1C8091F0008860DC
:103C20008093F0000E94D919FF91EF91BF91AF915D
:103C30009F918F917F916F915F914F913F912F91C4
:103C40000F900FBE0F901F90189519BC1092720222
:103C50000E94D61970CF8091E30087FD93E0909386
:103C60007202B3CF1F920F920FB60F9211242F93AF
:103C70003F934F935F936F937F938F939F93AF93F4
:103C8000BF93CF93DF93EF93FF93D091E900DF7061
:103C90008091EC00C82FC17080FDC0E81092E9004F
:103CA0008091F000877F8093F00078940E94761EC8
:103CB0001092E9008091F00088608093F000CD2B95
:103CC000CF70C093E900FF91EF91DF91CF91BF9149
:103CD000AF919F918F917F916F915F914F913F91A4
:103CE0002F910F900FBE0F901F9018951F93CF9399
:103CF000DF93CDB7DEB7AA970FB6F894DEBF0FBE3D
:103D0000CDBF83E792E02091F100FC012193CF0128
:103D1000F2E08B379F07B9F70E94E7198091E8001E
:103D200083FF1EC180917302909174029A3008F053
:103D300017C1E92FF0E0EC58FF4D0C94F81F8038C4
:103D400099F0823809F00CC1809177028F7087302A
:103D500008F006C18093E9008091EB0085FB88277D
:103D600080F91092E90006C080916F029091700274
:103D7000911182609091E800977F9093E800809382
:103D8000F1001092F1008091E8008E77E5C0882361
:103D900009F4D3C0823009F0E3C08091750281112B
:103DA000D6C0809177028F702FEF280F263008F051
:103DB000D7C08093E9002091EB0020FFC8C093306A
:103DC00031F48091EB0080628093EB00C0C0909151
:103DD000EB0090619093EB0021E030E001C0220FF6
:103DE0008A95EAF72093EA001092EA008091EB00AE
:103DF0008860EACF8111B4C0109175021F7780915D
:103E0000E3008078812B8093E3008091E800877F36
:103E10008093E8000E94931C8091E80080FFFCCF13
:103E20008091E30080688093E30082E0111183E0D9
:103E30008093720295C08058823008F091C08091C2
:103E40007502909176028C3D23E09207A1F583E004
:103E50008A838AE289834FB7F894DE01139620E0C3
:103E60003EE051E2E32FF0E050935700E49120FF51
:103E700003C0E295EF703F5FEF708E2F90E0EA3065
:103E8000C0F0C7968D939D932F5F243159F74FBF94
:103E90008091E800877F8093E8006AE270E0CE01BD
:103EA00001960E94A21B8091E8008B778093E80026
:103EB00057C0C096E7CF6091770270917802AE014B
:103EC0004F5F5F4F0E94DD1ABC01892B09F448C087
:103ED0009091E800977F9093E80089819A810E94F1
:103EE000001CE1CF8038E1F58091E800877F809366
:103EF000E80080916E028093F10045CF811130C0BF
:103F000090917502923060F58091E800877F8093F0
:103F1000E80090936E020E94931C80916E028823A9
:103F200011F084E005C08091E30087FDFACF81E0C5
:103F3000809372020E94DD1913C080917502813056
:103F400079F481E0933009F080E080937002109260
:103F5000E9008091E800877F8093E8000E94931C2D
:103F60008091E80083FF0AC08091E800877F8093FA
:103F7000E8008091EB0080628093EB00AA960FB678
:103F8000F894DEBF0FBECDBFDF91CF911F91089592
:103F90000895CF93809172028823A1F0C091E90027
:103FA000CF709091EC00892F817090FD80E8C82B34
:103FB0001092E9008091E80083FD0E94761ECF7088
:103FC000C093E900CF91089597FB072E16F4009453
:103FD00007D077FD09D00E94FE1F07FC05D03EF4F4
:103FE000909581959F4F0895709561957F4F0895A5
:103FF000EE0FFF1F0590F491E02D0994AA1BBB1B47
:1040000051E107C0AA1FBB1FA617B70710F0A61BD8
:10401000B70B881F991F5A95A9F780959095BC01F9
:10402000CD010895F999FECF92BD81BDF89A9927E7
:1040300080B50895A8E1B0E042E050E00C9446203D
:10404000262FF999FECF92BD81BDF89A019700B451
:10405000021639F01FBA20BD0FB6F894FA9AF99AF1
:104060000FBE08950396272F0E9421200E94202032
:10407000252F0E942120242F0C9421200196272FE8
:104080000E9421200C942020DC01CB01FC01F99935
:10409000FECF06C0F2BDE1BDF89A319600B40D9294
:1040A00041505040B8F70895F894FFCF5C0A5C0A7D
:1040B000B40AB40A060B220B890A890A2D0BB90B24
:1040C000C80BC80B240C890A890A2D0CA20CA20C5F
:1040D000AB0CAB0CAD0CAB0CAB0CAB0CA20CA20C38
:1040E000B20CAB0CAB0CB20C9F1EC71EB01FC71E90
:0C40F000B01FFA1E1B1FB01F721F7E1FA6
:1040FC0004022808641E140A321E2919881967192B
:10410C0063195F1901E200E900EA00B500B600B7D7
:10411C0000CD008301CC008A01920194012102237D
:10412C000224022502260227022A02B300B4006FE1
:10413C00007000818283939190946697C6343536D3
:10414C0032F4F6F53331F7E200E900EA00B500B6D7
:10415C0000B700CD008301CC008A019201940121AB
:10416C0002230224022502260227022A02B300B4EB
:08417C00006F007000818283D6
:00000001FF
