:100000000C9462050C94A9050C94A9050C94A905FF
:100010000C94A9050C94A9050C94A9050C94A905A8
:100020000C94A9050C94A9050C94FE1D0C94D01EEB
:100030000C94C5180C94A9050C94A9050C94A90559
:100040000C94A9050C94A9050C94A9050C94A90578
:100050000C94A9050C942D190C94A9050C94A905D0
:100060000C94A9050C94A9050C94A9050C94A90558
:100070000C94A9050C94A9050C94A9050C94A90548
:100080000C94A9050C94A9050C94A9050C94A90538
:100090000C94A9050C94A9050C94A9050C94A90528
:1000A0000C94A9050C94A9050C94A905F906FB0666
:1000B0000607FD06FF0601070307050708070A07ED
:1000C0000C0717070E071007120714071607190762
:1000D000A20EA20ED40ED40E120F541054105410AF
:1000E000300F5410D30FD30F4410541054104D1030
:1000F000E00FE00FE00FE00FE00FE00FE00FE00F88
:10010000E00FE00FE00FE00FE00FE00FE00FE00F77
:10011000F10FFF0F06100D101710E110E110F31092
:10012000F310EA10F310F310F310E110E110EF10E8
:10013000F310F310EF103D1F641F5C20641F5C2060
:10014000B01FD31F5C202A203920596F75206265AB
:1001500074746572206E6F74206265206675636BBF
:10016000696E67207468696E6B696E672061626F83
:10017000757420666C697070696E67207468697345
:1001800020626F6172642E2049276C6C2068617652
:100190006520796F75206B6E6F77204920677261DB
:1001A00064756174656420746F70206F66206D796A
:1001B00020636C61737320696E20746865204E61E2
:1001C0007679205365616C732C20616E6420492719
:1001D0007665206265656E20696E766F6C76656403
:1001E00020696E206E756D65726F7573207365631F
:1001F000726574207261696473206F6E20416C2D8A
:100200005175616564612C20616E642049206861CC
:100210007665206F7665722033303020636F6E66AE
:1002200069726D656420747261646573206F6E20FD
:100230002F722F6D6D2E20204920616D2074726108
:10024000696E656420696E20676F72696C6C6120ED
:100250007761726661726520616E642049276D2046
:1002600074686520746F7020747970697374206984
:100270006E2074686520656E746972652055532020
:1002800061726D656420666F7263657320617420AE
:100290006F766572203630302077706D2E2049667B
:1002A00020796F7520666C697020746869732062AC
:1002B0006F6172642C20796F7520617265206E6F9A
:1002C0007468696E6720746F206D65206275742094
:1002D0006A75737420616E6F7468657220746172E0
:1002E0006765742E20492077696C6C20776970658A
:1002F00020796F7520746865206675636B206F7553
:1003000074207769746820707265636973696F6EB1
:1003100020746865206C696B6573206F6620776850
:1003200069636820686173206E6576657220626516
:10033000656E207365656E206265666F7265206FFD
:100340006E20746869732045617274682C206D6139
:10035000726B206D79206675636B696E6720776FAD
:100360007264732E20596F75207468696E6B2079E2
:100370006F752063616E20676574206177617920F5
:100380007769746820666C697070696E672074683C
:10039000697320626F617264206F76657220746881
:1003A0006520496E7465726E65743F205468696E8D
:1003B0006B20616761696E2C206675636B65722EB8
:1003C00020417320776520737065616B204920613F
:1003D0006D20636F6E74616374696E67206D792040
:1003E000736563726574206E6574776F726B206FCE
:1003F00066207370696573206163726F7373207414
:1004000068652055534120616E6420796F757220B4
:100410004950206973206265696E67207472616358
:100420006564207269676874206E6F7720736F202F
:10043000796F752062657474657220707265706181
:10044000726520666F72207468652073746F726DB8
:100450002C206D6167676F742E205468652073745B
:100460006F726D2074686174207769706573206F96
:1004700075742074686520706174686574696320A0
:100480006C6974746C65207468696E6720796F7527
:100490002063616C6C20796F7572206C6966652EC3
:1004A00020596F75277265206675636B696E6720CA
:1004B000646561642C206B69642E20492063616E41
:1004C00020626520616E7977686572652C20616EA7
:1004D0007974696D652C20616E6420492063616EBA
:1004E000206B696C6C20796F7520696E206F766562
:1004F0007220736576656E2068756E64726564201F
:10050000776179732C20616E64207468617427733D
:10051000206A757374207769746820746869732021
:100520005043422E204E6F74206F6E6C7920616DA7
:10053000204920657874656E736976656C792074DE
:100540007261696E656420696E20756E61726D6599
:100550006420636F6D6261742C2062757420492081
:10056000686176652061636365737320746F2074BE
:10057000686520656E7469726520617273656E616D
:100580006C206F662074686520556E697465642000
:10059000537461746573204D6172696E6520436F99
:1005A00072707320616E6420492077696C6C2075CD
:1005B000736520697420746F206974732066756C8C
:1005C0006C20657874656E7420746F20776970652F
:1005D00020796F7572206D6973657261626C652038
:1005E000617373206F666620746865206661636559
:1005F000206F662074686520636F6E74696E656E27
:10060000742C20796F75206C6974746C6520736824
:1006100069742E204966206F6E6C7920796F752081
:10062000636F756C642068617665206B6E6F776EA2
:10063000207768617420756E686F6C7920726574BC
:100640007269627574696F6E20796F7572206C695A
:1006500074746C6520636C657665722073616C657B
:10066000207761732061626F757420746F206272ED
:10067000696E6720646F776E2075706F6E20796F7A
:10068000752C206D6179626520796F7520776F75A3
:100690006C6420686176652068656C6420796F758C
:1006A00072206675636B696E6720746F6E6775651F
:1006B0002E2042757420796F7520636F756C646E9F
:1006C00027742C20796F75206469646E27742C2040
:1006D000616E64206E6F7720796F75277265207068
:1006E0006179696E67207468652070726963652C32
:1006F00020796F7520676F6464616D6E206964692D
:100700006F742E20492077696C6C2073686974209F
:100710006675727920616C6C206F76657220796FD6
:100720007520616E6420796F752077696C6C206428
:10073000726F776E20696E2069742E20596F75274D
:100740007265206675636B696E6720646561642CF1
:10075000206B6964646F2E00165C14001A00080098
:10076000150017001C0018000C00120013002F00C9
:100770002A002B6104001600070009000A000B0084
:100780000D000E000F00340028420000E1001D00A3
:100790001B000600190005002C4111001000360056
:1007A000376438684C6235001E001F0020002100AD
:1007B00022002300240025002600270030003100FD
:1007C00001002D002E0031000100010050005100F9
:1007D00052004F0033000100000001000100010041
:1007E0000100010001000100010001000100010001
:1007F00046000100005C3A003B003C003D003E002A
:100800003F00400041004200430044004500010019
:10081000010001000100010001004A004E004B00F0
:100820004D0049000100000001000100010001002D
:100830000100F05C01000100010001000100010065
:1008400001000100010001000100010001000100A0
:100850000100010001000100010001000100010090
:100860000100010001000100010001000100010080
:100870000100010000000100010001000100010071
:100880000100010001000100010001000100010060
:1008900000000000000000002A2B280000000000DB
:1008A000000000000000000000000029000000001F
:1008B0002C1E3420212224342627252E362D37388D
:1008C000271E1F202122232425263333362E373896
:1008D0001F0405060708090A0B0C0D0E0F10111254
:1008E000131415161718191A1B1C1D2F3130232D20
:1008F000350405060708090A0B0C0D0E0F1011121E
:10090000131415161718191A1B1C1D2F3130354CCE
:1009100000000000000000000000000000000000D7
:1009200000000000000000000000000000000000C7
:1009300000010101010101000101010100000000AD
:1009400000000000000000000000010001000101A3
:100950000101010101010101010101010101010187
:10096000010101010101010101010100000001017A
:100970000000000000000000000000000000000077
:100980000000000000000000000000010101010063
:1009900004033000000012036B0065007900620060
:1009A0006F006100720064000000160371006D00AA
:1009B0006B006200750069006C00640065007200E5
:1009C00000000403090409023B00020100A0FA0927
:1009D000040000010301010009211101000122406E
:1009E000000705810308000A090401000103000053
:1009F0000009211101000122710007058203200076
:100A00000A1201100100000008EDFE606001000103
:100A100002030105010980A10185031601002603D7
:100A2000001A81002A8300751095018100C0050C11
:100A30000901A1018504160100269C021A01002A61
:100A40009C02751095018100C005010906A1018570
:100A500005050719E029E7150025019508750181AD
:100A60000205081901290595057501910295017581
:100A70000391010507190029EF1500250195F0756F
:100A8000018102C005010906A101050719E029E756
:100A900015002501950875018102950175088101F0
:100AA0000508190129059505750191029501750340
:100AB00091010507190029FF150026FF009506750D
:100AC000088100C011241FBECFEFDAE0DEBFCDBF2A
:100AD00004B603FE27C08091F8019091F901A0911E
:100AE000FA01B091FB018730904BA740B04BD1F495
:100AF0001092F8011092F9011092FA011092FB0184
:100B000014BE84B7877F84BF0FB6F894A8958091F0
:100B10006000886180936000109260000FBEE0E08A
:100B2000F8E3099511E0A0E0B1E0E4EBF1E402C0E4
:100B300005900D92AE31B107D9F721E0AEE1B1E0F9
:100B400001C01D92A83FB207E1F70E94281B0C9438
:100B5000D8200C940000FB012281222339F0803F31
:100B60009C4521F48AE491E00E942A0681E00895E0
:100B7000229A2A98269A2E980895089561FF02C015
:100B80002A9A089562FF02C02A9803C063FF03C037
:100B90002A9A2E9A08952A982E98089581E0089509
:100BA0000C94AB05CF9390E0FC01E057F74FC49154
:100BB000FC01E05FF64F8491882359F081EE0E949A
:100BC000E90C8C2F0E94E90C8C2F0E94000E81EE04
:100BD00004C08C2F0E94E90C8C2FCF910C94000E36
:100BE0000F931F93CF93DF93EC01062FFE018491A7
:100BF000882359F19E012F5F3F4F813041F4E90175
:100C0000F9011491812F0E94E90C812F0DC08230CF
:100C100031F4E901F90184910E94E90C0AC08330A2
:100C200031F4E901F90184910E94000E02C00E9492
:100C3000D2052196802F8823C9F2EFE9FFE0319792
:100C4000F1F700C000008150F6CFDF91CF911F91E6
:100C50000F91089560E00C94F0050E9463178111D4
:100C600002C00E94DD170C94430A0C94450A0895B3
:100C70000C9437060C94380608950E94CF100E94F9
:100C80003C062FEF84E39CE0215080409040E1F748
:100C900000C000000C945319FF920F931F93CF9341
:100CA000DF938C01FC01C081D181809141018111D0
:100CB00013C08281882349F0CE010E943116F82E9C
:100CC000682FCE010E94DA1504C0CE010E940516DD
:100CD000F82EBE018F2D04C0CE010E943116BE0138
:100CE0000E94CD07EC01B8010E94D005882309F4C9
:100CF00049C1C73DFCE5DF0709F4ABC0B0F4C5311D
:100D0000ECE5DE0768F4C230FCE5DF0708F04FC011
:100D1000C1158CE5D80701F1C130DC4529F125C1A9
:100D2000C631DC4509F4FAC020C1CC3D8CE5D807BA
:100D300071F150F4C83DFCE5DF0709F4ADC0C93DD1
:100D4000DC4509F4D0C011C1CD3DECE5DE0731F141
:100D5000CE3DDC45A1F009C1F8018281882309F468
:100D600011C10E943D060EC1F8018281882309F459
:100D700009C18091C00181608093C00103C1F80165
:100D80008281882309F4FEC00E94DD17FBC0F801B0
:100D90008281882309F4F6C080E006C0F8018281D0
:100DA000882309F4EFC082E00E94C51BEBC0F80164
:100DB0008281882309F4DEC00E946317811102C07A
:100DC0000E94DD170E94761790E09093EA018093CD
:100DD000E901FE01E350FC45E231F10530F4EA5A45
:100DE000FF4F8091E9010C9490208091E90181608E
:100DF00027C0826025C0846023C0806121C08062DA
:100E00001FC080641DC080681BC08460886018C0DB
:100E10008E7F16C08D7F14C08B7F12C08F7E10C056
:100E20008F7D0EC08F7B0CC08F770AC08B7F877F32
:100E300007C087FB222720F991E0922790FB87F9D2
:100E40008093E9018091E9010E947A170E94CF10F6
:100E500099C0F8018281882351F0109223010E94E9
:100E6000F7189093200180931F0182E022C08091A7
:100E7000230181110FC080911F01909120010E94D8
:100E80000319883C910530F486E20E94E90C86E261
:100E90000E94000E82E024C0F8018281882361F064
:100EA000109224010E94F71890932201809321014F
:100EB00080E20E945F0E66C08091240181110FC004
:100EC00080912101909122010E940319883C910593
:100ED00030F487E20E94E90C87E20E94000E80E273
:100EE0000E94660E4FC0F80182818111D9CF809196
:100EF00024018111F4CF80912101909122010E945F
:100F00000319883C910558F780E20E94660E88E23A
:100F10000E94E90C88E20E94000E34C00E94B216C2
:100F2000982FF801828120910001309101018823DE
:100F300079F09A7A81E009F480E080931E019111A2
:100F400002C069E201C065E3C9010E9445180AC0F8
:100F500080911E01811102C069E201C065E3C901EF
:100F60000E9450180E9400170DC081E08093230159
:100F700080932401C801DF91CF911F910F91FF90C1
:100F80000C94CE0580E0DF91CF911F910F91FF90DF
:100F9000089580E090E00895089527E2829FC001BF
:100FA0001124FC012DE0729FE00DF11D1124E60FCC
:100FB000F11DEE0FFF1FE85AF84F859194910895A7
:100FC000880F991FFC01E057F64F85919491089581
:100FD000CF93DF930E94CD070E94A409EC018115F5
:100FE000904508F041C0C11580E4D80708F028C139
:100FF000C83ED10510F5C03ED10508F0A1C1C83AE0
:10100000D10578F4C53AD10508F0A2C0C130D105A8
:1010100009F496C108F447C1C430D10508F090C165
:1010200042C1CF3BD10508F49EC0C03CD10508F4B5
:101030003AC1CE01805C9109F5C0C11590E2D90793
:1010400058F4C11521E0D20708F07AC1C03FD1059C
:1010500008F429C1D06574C1C11580E3D80708F030
:10106000E5C0CE019F70DEC0C11595E5D90708F037
:1010700043C0C11524E5D20708F0F9C0C11582E5C7
:10108000D80708F5C11591E5D90708F0DCC0CE01F5
:1010900074E0969587957A95E1F783709C2F93700D
:1010A00021E030E002C0220F331F9A95E2F73C683E
:1010B000382BCF70C695C69580E2C89FE0011124F9
:1010C000C22BD32B3DC19E01237033278C2F8695D5
:1010D0008695C115D34508F0BBC0C1E0D0E002C081
:1010E000CC0FDD1F2A95E2F720E2829FC001112478
:1010F000C82BD92BDC6824C1C11529E5D207A0F47F
:10110000C11588E5D80708F0B7C0C11596E5D9071D
:1011100008F0C9C08C2F0E94200A8F71C82FD0E020
:10112000DC2FCC27D0620CC1C1152AE5D20708F408
:10113000A8C0CE0190568115904208F0B4C08D2F02
:101140008F710E94200ADD27D0628F71D82BF8C0E2
:10115000C53AD10509F4AAC0C63AD10509F0A9C01B
:10116000C2E8D0E4EDC0C83AD10509F4A5C0C93A37
:10117000D10509F4A4C0CA3AD10509F4A3C0CB3AF9
:10118000D10509F4A2C0CC3AD10509F4A1C0CB3BEA
:10119000D10509F4A0C0CC3BD10509F49FC0CD3ADC
:1011A000D10509F49EC0C03BD10509F49DC0CE3ADB
:1011B000D10509F49CC0CF3AD10509F49BC0C13BCD
:1011C000D10509F49AC0C23BD10509F499C0C33BCB
:1011D000D10509F498C0C43BD10509F497C0C53BBB
:1011E000D10509F496C0C63BD10509F495C0C73BAB
:1011F000D10509F494C0C83BD10509F493C0C93B9B
:10120000D10509F492C0CD3BD10509F491C0CE3B84
:10121000D10509F490C0CA3BD10509F48FC0C0E0E4
:10122000D4E48EC00E94E007EC018AC0CE01992769
:10123000D3FF03C0EC01D86C83C0EC01D06C80C03C
:10124000DF70D06A7DC0DC2FCC27C16FD06A78C038
:10125000C1E0D0E002C0CC0FDD1F2A95E2F720E20A
:10126000829FC0011124C82BD92BDA6869C0DC2FFA
:10127000CC27C46FD06A64C0DC2FCC27C06FD06A83
:101280005FC08C2F8F700E94200A94E0D695C7957E
:101290009A95E1F7CF70D0E0DC2FCC27D06A8F7021
:1012A000806EC82B4DC0C0E0D0E04AC0C1E8D0E499
:1012B00047C0C3E8D0E444C0C2EED4E441C0C9EEA4
:1012C000D4E43EC0CAEED4E43BC0C5EBD4E438C09D
:1012D000C6EBD4E435C0C3EBD4E432C0C4EBD4E4F1
:1012E0002FC0C7EBD4E42CC0CCECD4E429C0CDECA7
:1012F000D4E426C0C3E8D5E423C0CAE8D5E420C0BE
:10130000C2E9D5E41DC0C4E9D5E41AC0C1E2D6E4FF
:1013100017C0C3E2D6E414C0C4E2D6E411C0C5E2EB
:10132000D6E40EC0C6E2D6E40BC0C7E2D6E408C0DD
:10133000CFE6D4E405C0C0E7D4E402C0CAE2D6E4F4
:10134000CE01DF91CF9108958238910549F1B0F433
:101350008133910509F459C048F48932910509F4A3
:101360004FC08A32910509F455C00895853391051F
:1013700009F441C08933910599F00895833E9105A0
:1013800031F138F4803E910591F0823E9105A9F04B
:101390000895863E910501F1873E910539F1089542
:1013A0002091E90120FD3BC021FD39C008958091C5
:1013B000E90180FF34C089E341C08091E90182FFE7
:1013C00030C08091E90184FD2EC083EE37C080914A
:1013D000E90182FD26C0F5CF8091E90183FF25C098
:1013E0008091E90184FD1FC087EE28C08091E9014A
:1013F00083FD1BC0F5CF8091E90185FD18C019C0A0
:101400008091E90185FD15C012C08091E90186FD3A
:1014100012C013C08091E90186FD0FC00CC080EEA0
:101420000DC082EE0BC080E009C086EE07C089E2E5
:1014300005C085E303C08AE201C081E390E008951E
:101440009091E90192FF0DC0282F2871283019F4DE
:10145000877F846006C0282F2471243011F48B7F8D
:10146000886093FF0DC0282F2871283119F4877EDA
:10147000846106C0282F2471243111F48B7E886189
:1014800094FD877E08950C94B8050C94BD05CF9308
:10149000DF93AAE1B1E04DE151E061E070E08D91B0
:1014A000E82FE295EF70F0E091A18F709B0101C0F1
:1014B000220F8A95EAF7822F8095892381A34A1704
:1014C0005B0769F7ADE0B1E04AE151E061E070E04F
:1014D0008D91E82FE295EF70F0E021A18F70EB0184
:1014E00002C0CC0FDD1F8A95E2F7CE019C2F9095AC
:1014F000922391A392A1892B82A34A175B0741F7FC
:1015000010922C0110922B011092260110922501AD
:1015100010922E0110922D01109228011092270195
:101520001092300110922F0110922A01109229017D
:1015300083E00E94480BDF91CF910C942D062F92EF
:101540003F925F926F927F928F929F92AF92BF92E3
:10155000CF92DF92EF92FF920F931F93CF93DF937F
:101560002AE1222E21E0322EABE2B1E031E3632EFC
:1015700031E0732E20E001E010E06D018D909C9031
:10158000119711961C921E92E10189911E01E82F7C
:10159000E295EF70F0E031A18F70A80102C0440F16
:1015A000551F8A95E2F7CA01342B31A342A1382F87
:1015B0003095432342A350EA5A95F1F79DE0E92E76
:1015C00091E0F92E40E050E0E70159907E01652D51
:1015D00062956F7070E0EB0168A1AD90BC901197BF
:1015E00070E0D52DDF7002C075956795DA95E2F74A
:1015F00060FD08C0B801042E02C0660F771F0A9470
:10160000E2F702C060E070E06A297B2911967C93C2
:101610006E934F5F5F4F4D305105B1F691A1392365
:1016200031A392A1892B82A3129681E0F601408119
:1016300051814815590509F480E0282B6A167B066C
:1016400009F09BCF43E065E271E08BE291E00E94FC
:10165000490B0E94350681E0DF91CF911F910F91D8
:10166000FF90EF90DF90CF90BF90AF909F908F90C2
:101670007F906F905F903F902F900895E82FF0E05B
:10168000EE0FFF1FEB5DFE4F80819181089508955D
:101690000895FF920F931F93CF93DF93F82E092F96
:1016A000162FD72FC42F222349F081E080933301D6
:1016B0000E94F71890933201809331018091330199
:1016C0008823D9F080913101909132010E94031951
:1016D000069798F0EF2DF02FA12FBD2F80E090E01E
:1016E0004C2F50E08417950734F4219131912D93BC
:1016F0003D930196F7CF10923301DF91CF911F9167
:101700000F91FF90089590933901809338010895C7
:10171000E0913801F0913901309721F00190F0818A
:10172000E02D099480E00895E0913801F0913901AD
:10173000309799F020910C01222359F02091E90172
:1017400027FF07C0DC012C9111962C93119725E0FF
:101750002C930280F381E02D0994089520913601A5
:10176000309137012817390771F090933701809332
:101770003601E0913801F0913901309721F006806F
:10178000F781E02D099408952091340130913501BD
:101790002817390771F09093350180933401E09157
:1017A0003801F0913901309721F00084F185E02D66
:1017B0000994089585B7806885BF85B7806885BF1F
:1017C000089508950C94E10B0C94E20B0C94E10B3A
:1017D0000C94E10B0E94DA0B0E94E60B0C94E40BD4
:1017E00081E008950E94EE180E94470A0E9477192E
:1017F0000C94E80B5F926F927F928F929F92AF92C0
:10180000BF92CF92DF92EF92FF920F931F93CF93ED
:10181000DF93CDB7DEB72A970FB6F894DEBF0FBEC1
:10182000CDBF0E949F0A0E94F00B811111C08FEF63
:1018300089838A831B820E94F7188160782F9D8399
:101840008C8349815A816B818D810E94B50C56C071
:101850009BE3692E91E0792E00E010E088248394C8
:10186000912C502E802F0E943E0B6C01F301A19011
:10187000B1903F01A826B926A114B10431F40F5F3D
:101880001F4F0330110569F7D2CF8091C00181FD50
:101890000E94470B80E090E07401082E02C0EE0C1D
:1018A000FF1C0A94E2F795012E213F21232B09F119
:1018B0008E835F82CE20DF2081E0CD2809F480E096
:1018C00088870E94F7188160782F9A8789874E81D0
:1018D0005F8168858A850E94B50C000F111FF80191
:1018E000E55CFE4F80819181E826F926F182E08255
:1018F00005C001968D30910579F6C1CF0E94880B05
:1019000090913A018917D9F00E94880B80933A018F
:101910002A960FB6F894DEBF0FBECDBFDF91CF91F0
:101920001F910F91FF90EF90DF90CF90BF90AF90FD
:101930009F908F907F906F905F900C943A062A96BC
:101940000FB6F894DEBF0FBECDBFDF91CF911F91D0
:101950000F91FF90EF90DF90CF90BF90AF909F904E
:101960008F907F906F905F900895CF93DF93CDB766
:10197000DEB72B970FB6F894DEBF0FBECDBF4F83F7
:10198000588769877A878B87DE01119686E0FD018B
:1019900011928A95E9F785E0FE01379601900D9244
:1019A0008A95E1F749815A816B817C818D819E8185
:1019B0000E949F132B960FB6F894DEBF0FBECDBFCB
:1019C000DF91CF910895FC01808191810E9473166F
:1019D0000895882309F413C1682F8238C1F40E9446
:1019E000880B81FD0CC169E3809100019091010198
:1019F0000E9445180E9400172FEF81EE94E02150BD
:101A000080409040E1F700C0000069E319C08338CE
:101A1000F9F40E94880B80FDF2C063E5809100011B
:101A2000909101010E9445180E9400172FEF81EE4E
:101A300094E0215080409040E1F700C0000063E551
:101A400080910001909101010E9450180C940017A0
:101A50008438C1F40E94880B82FDD1C067E4809174
:101A60000001909101010E9445180E9400172FEF7C
:101A700081EE94E0215080409040E1F700C00000EA
:101A800067E4DECF8CEF860F813A38F48091000155
:101A9000909101010E944518D9CF80E2860F8830CD
:101AA00048F4677081E001C0880F6A95EAF70E94E8
:101AB000B516CCCF8BE5860F833070F4653A29F0EC
:101AC000663A31F083E890E005C081E890E002C01A
:101AD00082E890E00C94AE0B88E5860F873108F021
:101AE0008EC0683A09F445C0693A09F445C06A3ABB
:101AF00009F445C06B3A09F445C06C3A09F445C095
:101B00006B3B09F445C06C3B09F445C06D3A09F4E0
:101B100045C0603B09F445C06E3A09F445C06F3AD0
:101B200009F445C0613B09F445C0623B09F445C076
:101B3000633B09F445C0643B09F445C0653B09F4C7
:101B400045C0663B09F445C0673B09F445C0683BA6
:101B500009F445C0693B09F445C06D3B09F445C033
:101B60006E3B09F445C06A3B09F445C080E090E053
:101B700044C082EE90E041C089EE90E03EC08AEE23
:101B800090E03BC085EB90E038C086EB90E035C03C
:101B900083EB90E032C084EB90E02FC087EB90E0C5
:101BA0002CC08CEC90E029C08DEC90E026C083E83E
:101BB00091E023C08AE891E020C082E991E01DC055
:101BC00084E991E01AC081E292E017C083E292E0DA
:101BD00014C084E292E011C085E292E00EC086E279
:101BE00092E00BC087E292E008C08FE690E005C06B
:101BF00080E790E002C08AE292E00C94C40B089562
:101C0000882309F45BC0682F823879F40E94880B1E
:101C100081FF54C069E380910001909101010E940D
:101C200045180E94001769E310C08338B1F40E9480
:101C3000880B80FF43C063E5809100019091010112
:101C40000E9445180E94001763E580910001909161
:101C500001010E9450180C940017843879F40E94F6
:101C6000880B82FF2BC067E48091000190910101F5
:101C70000E9445180E94001767E4E7CF8CEF860F9B
:101C8000813A18F380E2860F883048F4677081E06B
:101C900001C0880F6A95EAF70E94BB16DCCF8BE57E
:101CA000860F833020F480E090E00C94AE0B685AED
:101CB000673120F480E090E00C94C40B08958823F1
:101CC00021F00E94B5160C9400170895882321F086
:101CD0000E94BB160C94001708958F929F92AF92AA
:101CE000BF92DF92EF92FF920F931F93CF93DF93F8
:101CF0007C01D62FC72FFC01058102950F70128140
:101D000011110E94D2160E94AB16882379F011237C
:101D100069F080E28D0F883048F082E00E944A1717
:101D20000E94AB1691E0D82ED92601C0D12CBC2E32
:101D3000B2948FE0B8228B2D90E0FC01E859FF4F60
:101D40000C9490208C2F807FCF70882311F0C29547
:101D5000C07F112399F0CC2309F481C180E28D0F5B
:101D6000883010F0D11104C08C2F0E94B51603C02A
:101D70008C2F0E94C5160E94001771C18D2F0E94E2
:101D8000000ECC2309F490C180E28D0F883010F052
:101D9000D11104C08C2F0E94BB1603C08C2F0E944F
:101DA000CB160E94001780C18C2F807FCF708032AD
:101DB00011F0C295C07FDD2319F0D130C9F022C0E7
:101DC000112371F0002341F0013031F40E94E51637
:101DD0008C2B0E94ED1668C10E94E5168C2BF8C072
:101DE000002319F0013009F45FC10E94F61618C0F3
:101DF000112321F0063008F057C10EC0053008F05D
:101E000053C10EC0112351F0002331F0F701858139
:101E100080FF25C18F7085838C2FDAC0011130C1FE
:101E20008C2FDCC08C2F86958695837019F08130BD
:101E300061F03AC1112321F08D2F9C2F937002C0C5
:101E400080E090E00E94AE0B3CC1112321F08D2F69
:101E50009C2F937002C080E090E00E94C40B31C1BF
:101E60008C2F837009F04CC0111127C12D2F2295A2
:101E700026952770220F220F6D2F6F70862F90E00E
:101E8000A0E0B0E04C015D01022E04C0880C991C5A
:101E9000AA1CBB1C0A94D2F7D4FF12C08FE090E0BA
:101EA000A0E0B0E004C0880F991FAA1FBB1F2A95AD
:101EB000D2F7BC01CD01609570958095909503C0D7
:101EC00060E070E0CB01C695C695C370C23051F09A
:101ED00080F4682979298A299B29C13071F00E94F0
:101EE000F014EBC0682979298A299B290E940215E0
:101EF000E4C00E94F014C501B4010E94DE14DDC0EC
:101F0000112319F08C2F817001C08695882309F464
:101F1000D4C02D2F229526952770220F220F6D2FCA
:101F20006F70862F90E0A0E0B0E04C015D01022EC2
:101F300004C0880C991CAA1CBB1C0A94D2F7D4FFBD
:101F400012C08FE090E0A0E0B0E004C0880F991FBD
:101F5000AA1FBB1F2A95D2F7BC01CD0160957095D1
:101F60008095909503C060E070E0CB01C695C69562
:101F7000C370C23051F080F4682979298A299B29DD
:101F8000C13071F00E94B51598C0682979298A2955
:101F90009B290E94C71591C00E94B515C501B401C7
:101FA0000E94A3158AC08D2F90E0FC01E05EF1092C
:101FB000E531F10508F04FC0E858FF4F0C94902030
:101FC000DF708C2F8F71112331F00E943C158D2F03
:101FD0000E945F0E69C00E945D158D2F0E94660EE3
:101FE00063C0112341F0053008F05EC08C2F8F7163
:101FF0000E94821559C0063008F056C0F7CF112351
:1020000039F08C2F8F710E943C154EC01123C9F3FB
:102010008C2F8F710E945D1547C0112329F08C2FE2
:102020008F710E94271540C00E9422153DC01123C8
:1020300049F0CF718C2F0E943C1563E08C2F0E94D9
:10204000351732C081E00E944A17023068F182E001
:102050000E944A1729C0112331F0002391F28D2FDD
:102060000E94E90C21C0002399F2D93349F4FFEF13
:1020700027EE83E0F15020408040E1F700C00000EF
:102080008D2F0E94000E10C04C2F4F706D2FC70176
:102090000E94C9070E944D1414C04C2F4F706D2F21
:1020A000C7010E94CC070DC098E0B91631F0B916EF
:1020B00040F086EF8B0D823020F40E94880B0E9446
:1020C0003A06DD20E1F00E94A71680FD18C0F70156
:1020D00012820E94A1160E943C15C7010E948B101B
:1020E0000E94A116DF91CF911F910F91FF90EF9069
:1020F000DF90BF90AF909F908F900C945D15DF9113
:10210000CF911F910F91FF90EF90DF90BF90AF9014
:102110009F908F9008950F931F93CF93DF93EC01BF
:10212000988189812B813C81232B31F08F3F31F4C1
:1021300081E09F3F19F403C081E001C080E080FD91
:1021400013C0CE010E944C06882371F0688179810A
:102150008A810E947E168C010E94D9150E94CA14A1
:10216000B801CE010E946D0EDF91CF911F910F91AA
:1021700008950E94D2160E94E2160E94001780E085
:1021800090E00E94AE0B80E090E00C94C40B809134
:102190000001909101010E945B180C94B9100E94FB
:1021A000C2160C94C710E92FE295EF704E2F50E045
:1021B000FA013297EE30F105B0F4E357FF4F0C947B
:1021C0009020803F91F018F4803E68F40EC0843F68
:1021D00051F40BC0803E48F0813F29F406C093FBC8
:1021E000882780F9089580E0089581E008950E948D
:1021F00073160E94D3100895CF93DF9300D000D0C0
:102200001F92CDB7DEB70F900F900F900F900F90E9
:10221000DF91CF910895CF93DF9300D000D000D00D
:10222000CDB7DEB726960FB6F894DEBF0FBECDBF92
:10223000DF91CF9108951F93CF93DF93C091420117
:1022400016E080914301C81799F0D0E01C9FF0017F
:102250001D9FF00D1124EC5BFE4F40815181628186
:102260007381848195810E940B112196C770E9CFFB
:10227000DF91CF911F9108954091740150917501A4
:102280006091760170917701809178019091790148
:102290000C940B11CF938091790182958F7009F086
:1022A0005FC080917601882309F45AC08091420171
:1022B000B091430170917401A09175014091770133
:1022C0005091780191E07F3F09F090E0692FC6E0DE
:1022D0008B1709F445C04115510521F0AF3F21F09E
:1022E00020E003C021E001C0262F90E020FD35C092
:1022F000C89FF001C99FF00D1124EC5BFE4F2181B6
:102300002A132BC02081271328C02281211125C028
:10231000238134812417350710F421503109241BFF
:10232000350B283C3105C8F4209179012F702061CC
:102330002093790126E0289FF001299FF00D1124B8
:10234000E75BFE4F80818F708061808384E791E03E
:102350000E948B10CF910C941B1101968770B8CFFF
:10236000CF910895AF92BF92CF92DF92EF92FF92FA
:102370000F931F93CF93DF93CDB7DEB761970FB65F
:10238000F894DEBF0FBECDBF8C0185E0F801DE0101
:102390001D9601900D928A95E1F7D8014C91119606
:1023A0005C9111971296EC903091740160917501D7
:1023B0008091770190917801009731F06F3F31F46F
:1023C00021E03F3F19F403C021E001C020E0B22F1B
:1023D000B170BB2E20FD60C1F801C380D480A090F5
:1023E0007601AA2009F4EEC020917901C816D90619
:1023F00028F0D601A81BB90BCD0104C0809590959B
:102400008C0D9D1DFF24F394883C910580F0F12CE8
:10241000207F09F09CC07C2DD98AC88A6E2D8989BD
:102420000E94FC1084E791E00E948B102DC1822F46
:10243000807F09F054C0561314C0431312C0FE2C01
:10244000E1100FC02F702061209379010E943C1190
:1024500084E791E00E948B1080917901F8018583D7
:102460005CC1CD2831F05F3F31F481E04F3F19F47A
:1024700003C081E001C080E080FD03C081E08E25C3
:1024800002C080E090E0F82FF170FF2E80FF1CC0AA
:10249000809142012091430136E0821709F41AC16C
:1024A00090E0389FF001399FF00D1124EC5BFE4F56
:1024B0006181561306C06081461303C06281E61233
:1024C00003C001968770E9CFFE2CEE2009F425C1E8
:1024D00080917901816080937901F12C1EC156139E
:1024E00009C0431307C0E11005C080917901F801CC
:1024F0008583A4C04D875E878D859E850E94F710D9
:10250000882379F1EE2069F120917901822F82955B
:102510008F7090E0029774F0809174019091750132
:1025200098878F831986DB86CA862C87CE0107960B
:102530000E948B1086E0F801A4E7B1E001900D92B3
:102540008A95E1F70E944A110E943C110DC056176E
:1025500071F04D875E878D859E850E94F7108111F1
:102560001AC0C8010E948B10FF24F394D6C04313F5
:10257000F0CFE110EECF80917901F8018583C80199
:102580000E948B1086E0E4E7F1E0DF011D928A955E
:10259000E9F7FA2CC2C0EE2021F320917901822FB5
:1025A00082958F7090E002972CF280917401909147
:1025B00075019A8389831B82DD82CC822E83CE01B2
:1025C0000196B6CFC816D90628F0F601E81BF90B1C
:1025D000CF0104C0809590958C0D9D1D883C910580
:1025E00048F0F12C7C2DD98AC88A6E2D89890E94E9
:1025F000FC104AC0FE2CEE2009F4B3CF561333C0B2
:10260000431331C02091790120FD24C0822F82958F
:102610008F70482F50E041155105E1F0D801159613
:102620002C9315974F30510549F08F5F982F929555
:10263000907F822F8F70892B15968C93C8010E94F2
:102640008B1086E0F801A4E7B1E001900D928A9525
:10265000E1F73DC086E0F801A4E7B1E001900D92FA
:102660008A95E1F75AC04D875E878D859E850E94C9
:10267000F71081115FCF809179018160809379019A
:10268000C8010E948B1049C0E4E7F1E086E0DF0159
:102690001D928A95E9F71BC0EE2009F462CF4D87A1
:1026A0005E878D859E850E94F710F82E882309F499
:1026B00058CF86E0F801A4E7B1E001900D928A9529
:1026C000E1F784E791E00E94E30C0E944A110E9426
:1026D0003C1123C04D875E878D859E850E947316B1
:1026E000292F22952F70223028F49F7039F0811104
:1026F00005C00BC0243028F49F7049F4805E8830F8
:1027000020F0C8010E948B10BF2CFB2C06C0D80102
:1027100015969C91907F91F7F8CF8F2D61960FB60B
:10272000F894DEBF0FBECDBFDF91CF911F910F9107
:10273000FF90EF90DF90CF90BF90AF9008951F93E0
:10274000CF93DF93CDB7DEB72C970FB6F894DEBFEB
:102750000FBECDBF4F83588769877A878B879C8749
:10276000CE0107960E94B2118823D1F09F818885FF
:102770002A853B85232B31F08F3F31F481E09F3F49
:1027800019F403C081E001C080E080FD47C04F81A3
:10279000588569857A858B859C850E940B113EC082
:1027A00086E0FE013796DE01119601900D928A9522
:1027B000E1F7FF81E8856A857B856115710531F058
:1027C000EF3F31F481E0FF3F19F403C081E001C025
:1027D00080E080FD23C02091430130E0C9010196D3
:1027E000877099274091420150E084179507F1F1D5
:1027F000F983EA837D836C8396E0929FD001939F57
:10280000B00D1124AC5BBE4FFE01319601900D92CC
:102810009A95E1F7809343010E941B1116E0809185
:10282000420190914301891771F1189FC001112451
:102830008C5B9E4F0E94B211882329F1E0914201E6
:102840001E9FF0011124EC5BFE4F4081518162819B
:102850007381848195810E940B118091420190E0E7
:1028600001968770992780934201D9CF0E94CF109B
:102870001092430110924201E4E7F1E086E0DF01AB
:102880001D928A95E9F72C960FB6F894DEBF0FBE1D
:10289000CDBFDF91CF911F910895EF92FF920F93DB
:1028A0001F93CF93DF938C01892B09F46CC0F12C1B
:1028B000EE24E394E8012196F8018491843740F4F2
:1028C000843008F051C0813081F0823019F15BC052
:1028D000853709F444C0A8F19CE7980F903708F0B9
:1028E00052C08F770E94000E41C00E5F1F4FFE0145
:1028F000849190E2980F983050F48770FE2D01C0BB
:10290000FF0F8A95EAF78F2F0E94D51614C00E94F8
:10291000E90C2DC00E5F1F4FFE01849190E2980FCD
:10292000983060F48770FE2D01C0FF0F8A95EAF79A
:102930008F2F0E94DB160E94001719C00E94000E04
:1029400016C00E5F1F4FFE01C491CC2381F08FE9AA
:102950009FE00197F1F700C00000C150F6CF0E5F75
:102960001F4FFE01F49003C00E94E90C8E018F2DD1
:10297000882309F49FCFEFE9FFE03197F1F700C01A
:1029800000008150F5CFDF91CF911F910F91FF9003
:10299000EF900895089508950C94CB140C94CC14E2
:1029A0000E94CE14609397017093980180939901CF
:1029B00090939A010C94B9100C94D0140F931F9318
:1029C00000919701109198012091990130919A01FD
:1029D000602B712B822B932B1F910F910C94D01491
:1029E0000F931F93009197011091980120919901E5
:1029F00030919A0160237123822393231F910F91B9
:102A00000C94D0140F931F9300919701109198018B
:102A10002091990130919A0160277127822793278D
:102A20001F910F910C94D0140C94BE050E941415A4
:102A30006093930170939401809395019093960114
:102A40000C94B91060E070E0CB010C9416150F9354
:102A50001F9341E050E060E070E08A019B0104C0F8
:102A6000000F111F221F331F8A95D2F7C901B80129
:102A70001F910F910C9416150F931F9341E050E096
:102A800060E070E004C0440F551F661F771F8A95F1
:102A9000D2F78091930190919401A0919501B0910A
:102AA00096018A019B01082B192B2A2B3B2BC9016C
:102AB000B8011F910F910C9416150F931F9341E0CD
:102AC00050E060E070E004C0440F551F661F771FA0
:102AD0008A95D2F7409550956095709580919301B5
:102AE00090919401A0919501B09196018A019B016A
:102AF000082319232A233B23C901B8011F910F91F1
:102B00000C9416150F931F9341E050E060E070E0C5
:102B100004C0440F551F661F771F8A95D2F7809116
:102B2000930190919401A0919501B09196018A0131
:102B30009B01082719272A273B27C901B8011F91A4
:102B40000F910C9416150F931F9300919301109100
:102B500094012091950130919601602B712B822B6D
:102B6000932B1F910F910C9416150F931F930091A7
:102B70009301109194012091950130919601602369
:102B80007123822393231F910F910C9416150F9399
:102B90001F93009193011091940120919501309120
:102BA000960160277127822793271F910F910C941C
:102BB000161508952DE0929F800D1124E82FE695BB
:102BC000E695E695877051E001C0550F8A95EAF7C2
:102BD00085E0E89FF0011124E658FE4F20E030E048
:102BE00070E04081CB01022E02C0969587950A9431
:102BF000E2F78170819584278523842781932F5F55
:102C00003F4F2530310569F708952DE0929F800DE3
:102C10001124682F669566956695982F977085E0C4
:102C2000689FB001112440E050E080E0FB01E40F18
:102C3000F51FE658FE4F208130E0092E02C0369580
:102C400027950A94E2F721703327042E01C0220F42
:102C50000A94EAF7822B4F5F5F4F4530510531F7F9
:102C60000895BF92CF92DF92EF92FF920F931F933E
:102C7000CF93DF938C01C0909301D0909401E090AA
:102C80009501F09096018091970190919801A09103
:102C90009901B0919A01C82AD92AEA2AFB2ACFE1E0
:102CA000D0E0D701C6010C2E04C0B695A795979524
:102CB00087950A94D2F780FD04C0219790F7B12C34
:102CC00007C0BC2EB8018C2F0E94E8070197A9F31A
:102CD0008B2DDF91CF911F910F91FF90EF90DF909F
:102CE000CF90BF900895CF93DF93EC010E943116EF
:102CF000BE010E94E807DF91CF9108951F93CF9303
:102D0000DF93EB0190914101992321F0CB010E94C7
:102D1000731613C0882349F0CB010E943116182F77
:102D2000682FCE010E94DA1504C0CB010E9405165F
:102D3000182FBE01812F0E94E807DF91CF911F91CC
:102D4000089580919B01859585958595089580913D
:102D50009B018770089590919B01977081E009F421
:102D600080E008958091BF0108959091BF01892B63
:102D70008093BF01089580959091BF01892380932E
:102D8000BF0108951092BF0108959091BE01892B53
:102D90008093BE01089580959091BE018923809310
:102DA000BE0108951092BE0108959091BD01892B36
:102DB0008093BD01089580959091BD0189238093F2
:102DC000BD0108951092BD01089580919C01089560
:102DD00008950C94E8160C94E91690919C019817AC
:102DE00021F080939C010C94EB16089580919C0136
:102DF000882329F010929C0180E00C94EB16089532
:102E0000E0910001F09101018091BF018083E09188
:102E10000001F091010190818091BE01892B808396
:102E2000E0910001F091010190818091BD01892B19
:102E3000808380919C01882381F0E0910001F091D2
:102E400001019081892B8083809100019091010183
:102E50000E94DF1781110E94F61680910001909167
:102E600001010C94940B0C94E81698E0899F900152
:102E70001124262B20939B010E943C1580919B01DD
:102E80008595859585950C94331710929B0180E06C
:102E90000C94331720919B018095822380939B0192
:102EA000982F977079F430E0482F082E000C550BBE
:102EB0002417350739F08595859585950E945D1510
:102EC0000C944517089580E090E00E949E2021E038
:102ED0008D3E9E4F09F020E0822F089582E090E021
:102EE0000C94962083E090E00C94962084E090E08F
:102EF0000C949620682F84E090E00C94A420AB0101
:102F0000BC018FE090E00C94B620AB01BC0183E1E2
:102F100090E00C94B62060E070E0CB010C94851733
:102F200060E070E0CB010E947F170C948B176DEE70
:102F30007EEF80E090E00E94C22060E082E090E0BE
:102F40000E94A42060E083E090E00E94A420109200
:102F50009701109298011092990110929A0160E0E5
:102F600084E090E00E94A42060E085E090E00E9470
:102F7000A42060E086E090E00E94A4206FEF87E04C
:102F800090E00E94A42040E050E0BA0188E090E088
:102F90000E94B62060E08DE090E00E94A42040E016
:102FA00050E0BA0188E190E00E94B62060E087E13D
:102FB00090E00E94A4200C9490170C949717FC01A9
:102FC000329680910C01882331F08091E90187FFCE
:102FD00002C09EE101C096E080E0915028F021916E
:102FE0002223D9F38F5FF9CF08959C01FC0132961B
:102FF0009FEF80E04191461789F09F3F19F44111FE
:1030000001C0982F8F5F8630A9F79F3F39F0F901F3
:10301000E90FF11D97FDFA956283089508959C01CB
:103020002A5F3F4FFC014281461301C01282019684
:1030300082179307B9F70895262F2695269526958A
:103040002E3168F4FC01E20FF11D677021E030E0E1
:1030500001C0220F6A95EAF78281282B2283089506
:10306000262F2695269526952E3170F4FC01E20F29
:10307000F11D677021E030E001C0220F6A95EAF788
:103080002095828128232283089520910C012223F8
:1030900029F02091E90127FD0C941C180C94F517D8
:1030A00020910C01222329F02091E90127FD0C94A5
:1030B00030180C940F1820910C01FC013296222339
:1030C00031F08091E90187FF02C08EE101C086E006
:1030D000DF011D928A95E9F7089508950C946D1803
:1030E0000C946D18CF930E9470180E949F0A0E9442
:1030F0006E18C0E08C2F0E943E0B892B29F4CF5F05
:10310000C330C1F780E001C081E0CF9108950C94F5
:103110006D180C9487180E9489188091EF018430F3
:1031200049F11092C10120E488E190E00FB6F894D3
:10313000A895809360000FBE2093600080E00E94FD
:103140003A060E94891883B7817F846083BF83B762
:10315000816083BF7894889583B78E7F83BF0FB6D5
:10316000F894A89580916000886180936000109227
:1031700060000FBE08950C946D180E94CF100E943D
:10318000880B0E943A060C94BB181F920F920FB640
:103190000F9211248F939F93AF93BF938091C1019E
:1031A000811113C08091E5019091E601A091E701A2
:1031B000B091E8014196A11DB11D8093E501909366
:1031C000E601A093E701B093E801BF91AF919F9111
:1031D0008F910F900FBE0F901F90189582E084BDC5
:1031E00093E095BD9AEF97BD80936E0008952FB739
:1031F000F8948091E5019091E601A091E701B091EA
:10320000E8012FBF0895CF92DF92EF92FF920F93C4
:103210001F932FB7F8944091E5015091E60160911A
:10322000E7017091E8012FBF6A017B01EE24FF24C2
:103230008C0120E030E0C016D106E206F30610F45F
:10324000415051099A01281B390BC9011F910F9157
:10325000FF90EF90DF90CF90089578941F920F9297
:103260000FB60F9211248F939F93AF93BF938091CA
:10327000E5019091E601A091E701B091E801019686
:10328000A11DB11D8093E5019093E601A093E70194
:10329000B093E801BF91AF919F918F910F900FBEB6
:1032A0000F901F90189581E08093E00080E280935A
:1032B000D8001092C9008FE19EE40197F1F700C099
:1032C000000087E090EBDC018093F8019093F90116
:1032D000A093FA01B093FB019CE088E10FB6F8944B
:1032E000A895809360000FBE90936000FFCF0E946E
:1032F0006317811102C00E94DD170E946E17809330
:10330000C0010E94761790E09093EA018093E90152
:103310000E947217682F70E080E090E00C94DC143B
:103320008091E201089508950F931F93CF93DF9347
:1033300000D01F92CDB7DEB78C010E94D51B823022
:1033400011F0843021F584E089831B830A8382E0B5
:103350008093E9008FEF9091E800815095FD06C0C1
:1033600095ED9A95F1F700008111F5CF8091E80075
:1033700085FF0DC040E050E063E070E0CE010196B3
:103380000E94F21B8091E8008E778093E8000F90F6
:103390000F900F90DF91CF911F910F910895CF93D0
:1033A000DF9300D01F92CDB7DEB72091EF0124301C
:1033B00031F523E02983805891099B838A8382E039
:1033C0008093E9008FEF9091E800815095FD06C051
:1033D00095ED9A95F1F700008111F5CF8091E80005
:1033E00085FF0DC040E050E063E070E0CE01019643
:1033F0000E94F21B8091E8008E778093E8000F9086
:103400000F900F90DF91CF910895CF93DF93EC0150
:103410000E94D51B823011F08430D9F580910C01C7
:10342000882339F08091E90187FF03C060E282E0E0
:1034300002C068E081E08093E9008FEF9091E8009E
:10344000815095FD06C095ED9A95F1F70000811128
:10345000F5CF8091E80085FF1CC080910C0181119F
:1034600005C040E050E068E070E003C070E040E07C
:1034700050E0CE010E94F21B8091E8008E7780938D
:10348000E80080E2FE01A2ECB1E001900D928A9585
:10349000E1F7DF91CF9108958091EE01811109C08C
:1034A0000E94831D0E94E01D8091E2008460809351
:1034B000E20008951092EE010895089508950C9485
:1034C000BD1842E061EC81E00E94FC1C42E261EC2C
:1034D00082E00C94FC1C8091F101833009F460C0FF
:1034E00030F4813071F0823009F499C008958A3047
:1034F00009F485C08B3009F46BC0893009F0A7C08E
:1035000020C08091F001813A09F0A1C08091E800CB
:10351000877F8093E8008091F4019091F501892BD9
:1035200021F460E282EC91E003C060E080E090E092
:1035300070E00E943D1C8091E8008B778093E8004A
:1035400008958091F001813209F081C08091F401E9
:103550009091F501029708F07AC08091E800877F8A
:103560008093E8008091E80082FD05C08091EF0122
:103570008111F8CF6CC02091F3008091F20090E0AF
:10358000922B029729F48091F1008B7F813021F4F6
:103590008091F1008093E2018091E8008B7753C025
:1035A0008091F001813A09F052C08091F40190912C
:1035B000F501892B09F04BC08091E800877F80934B
:1035C000E8008091E80080FFFCCF80910C0136C0BC
:1035D0008091F0018132D9F58091F4019091F5014B
:1035E000892BA9F58091E800877F8093E8000E94ED
:1035F000311D8091F20180930C010C94CF108091C9
:10360000F001813221F58091E800877F8093E80006
:103610000E94311D8091F3018093E3010895809110
:10362000F001813AA1F48091E800877F8093E8005F
:103630008091E80080FFFCCF8091E3018093F1004E
:103640008091E8008E778093E8000C94311D0895F6
:1036500084B7877F84BF0FB6F894A89580916000E7
:10366000886180936000109260000FBE80E88093B4
:103670006100109261000E94EA0B0E94831D0E946B
:10368000E01D8091E20084608093E20078940E94C3
:1036900075200E94F20B82E091E00E94830B8091E2
:1036A000EF01853069F40E948B188091ED01882329
:1036B000B1F30E947218882391F30E94DC1BEFCFB4
:1036C0000E94FA0BECCF0C94651B292F3327233073
:1036D0003105C9F060F42130310581F02230310527
:1036E00009F04AC08BE390E026EC39E049C0213272
:1036F000310511F12232310579F13EC082E190E0CD
:1037000021E03AE03DC099278130910561F040F019
:103710008230910559F0039779F5E0E9F9E008C0A6
:10372000E2ECF9E005C0EAEAF9E002C0E6E9F9E016
:10373000849190E09F0124C06115710541F06130D2
:103740007105D1F489E090E021EF39E019C089E0FA
:1037500090E028ED39E014C06115710541F0613049
:10376000710551F481E790E023E13AE009C080E47B
:1037700090E024E83AE004C080E090E020E030E00F
:10378000FA013183208308950895CF93C82F0E94B2
:10379000C41BC093E401CF9108958091EF01843060
:1037A00011F081E0089582E008958091E401811193
:1037B00002C00C94CD1B089580E189BD82E189BDD2
:1037C00009B400FEFDCF8091D8008F7D8093D80092
:1037D0008091E00082608093E0008091E00081FDB4
:1037E000FCCF0895CF92DF92EF92FF920F931F9339
:1037F000CF93DF93EC018B017A010E94501D811160
:1038000033C0E114F10439F0F70180819181081B84
:10381000190BC80FD91FC12CD12C0115110519F195
:103820008091E80085FD16C08091E8008E77809336
:10383000E800E114F10449F0F70180819181C80E9C
:10384000D91ED182C08285E00FC00E94501D8823FE
:1038500021F30AC089918093F10001501109FFEF13
:10386000CF1ADF0ADACF80E0DF91CF911F910F915D
:10387000FF90EF90DF90CF9008952091F601309166
:10388000F7012617370748F06115710539F42091C3
:10389000E8002E772093E80001C0B901FC0120E088
:1038A0006115710579F18091EF018823F1F185307F
:1038B000F1F18091E80083FD3CC08091E80082FD39
:1038C0002EC08091E80080FFEBCF2091F300809123
:1038D000F20090E0922B6115710551F0883091054E
:1038E00038F421912093F100615071090196F3CFD2
:1038F00021E0089709F020E08091E8008E7780931E
:10390000E800CECF2111CFCF0AC08091EF018823EC
:1039100061F0853061F08091E80083FD0AC08091FC
:10392000E80082FFF2CF80E0089582E0089583E00E
:10393000089581E008952091F6013091F70126174E
:10394000370748F06115710539F42091E8002E77AA
:103950002093E80001C0B901FC0120E06115710568
:1039600091F18091EF01882309F440C0853009F47A
:103970003FC08091E80083FD3DC08091E80082FD5A
:103980002FC08091E80080FFE9CF2091F300809163
:10399000F20090E0922B6115710559F08830910585
:1039A00040F424912093F100319661507109019601
:1039B000F2CF21E0089709F020E08091E8008E77AF
:1039C0008093E800CBCF2111CCCF0AC08091EF01CA
:1039D000882361F0853061F08091E80083FD0AC0A2
:1039E0008091E80082FFF2CF80E0089582E00895A0
:1039F00083E0089581E00895982F973068F59093BB
:103A0000E900981739F07091EC002091ED00509189
:103A1000F00003C0242F762F50E021FD02C09F5FED
:103A2000ECCF3091EB003E7F3093EB003091ED0016
:103A30003D7F3093ED003091EB0031603093EB002F
:103A40007093EC002093ED005093F0002091EE0075
:103A500027FDE5CF80E008958F708093E90081E035
:103A600008958091F00187FF11C08091E80082FDE8
:103A700005C08091EF018111F8CF11C08091E8005D
:103A80008B770BC08091EF01882349F08091E8008B
:103A900080FFF8CF8091E8008E778093E80008954A
:103AA0002091E4003091E50095E64091EC00842FF0
:103AB000817040FF23C08091E80080FD1DC080918F
:103AC000EF01882399F0853099F08091EB0085FD16
:103AD00011C04091E4005091E5002417350729F307
:103AE000915011F09A01E1CF84E0089582E00895A9
:103AF00083E0089581E0089580E008954091E80012
:103B000042FFDDCF08950E94F11D0E94F91DE0EEF5
:103B1000F0E0808181608083E8EDF0E080818F7744
:103B2000808319BCA7EDB0E08C918E7F8C9380814F
:103B30008F7E80831092EE0108950F931F93CF9391
:103B4000DF930E94F11D0E94F91DC8EDD0E088812D
:103B50008F77888388818068888388818F7D888338
:103B600019BC1092EF011092EB011092ED0110922E
:103B7000EC0100EE10E0F80180818B7F808388816A
:103B80008160888342E060E080E00E94FC1CE1EEFE
:103B9000F0E080818E7F8083E2EEF0E080818160C2
:103BA0008083808188608083F80180818E7F80831C
:103BB000888180618883DF91CF911F910F91089553
:103BC000E8EDF0E080818F7E8083E7EDF0E080819A
:103BD0008160808384E082BF81E08093EE010C9459
:103BE0009D1DE8EDF0E080818E7F80831092E200E1
:103BF00008951092DA001092E10008951F920F923A
:103C00000FB60F9211242F933F934F935F936F93AF
:103C10007F938F939F93AF93BF93EF93FF93809185
:103C2000E10082FF0BC08091E20082FF07C080911B
:103C3000E1008B7F8093E1000E9474208091DA0084
:103C400080FF1FC08091D80080FF1BC08091DA00E8
:103C50008E7F8093DA008091D90080FF0DC080E1D3
:103C600089BD82E189BD09B400FEFDCF81E080936A
:103C7000EF010E944C1A05C019BC1092EF010E947E
:103C80005A1A8091E10080FF19C08091E20080FF04
:103C900015C08091E2008E7F8093E2008091E20067
:103CA00080618093E2008091D80080628093D80088
:103CB00019BC85E08093EF010E945E1A8091E100BB
:103CC00084FF30C08091E20084FF2CC080E189BD78
:103CD00082E189BD09B400FEFDCF8091D8008F7DBF
:103CE0008093D8008091E1008F7E8093E1008091E5
:103CF000E2008F7E8093E2008091E20081608093F9
:103D0000E2008091EB01882311F084E007C08091EC
:103D1000E30087FD02C081E001C083E08093EF01F2
:103D20000E945F1A8091E10083FF29C08091E20028
:103D300083FF25C08091E100877F8093E10082E0CE
:103D40008093EF011092EB018091E1008E7F8093D0
:103D5000E1008091E2008E7F8093E2008091E2009A
:103D600080618093E20042E060E080E00E94FC1C01
:103D70008091F00088608093F0000E945D1AFF91AE
:103D8000EF91BF91AF919F918F917F916F915F91D3
:103D90004F913F912F910F900FBE0F901F9018954C
:103DA0001F920F920FB60F9211242F933F934F93B0
:103DB0005F936F937F938F939F93AF93BF93CF93B3
:103DC000DF93EF93FF93C091E900CF708091EC00F7
:103DD000D82FD17080FDD0E81092E9008091F000DA
:103DE000877F8093F00078940E94141F1092E9005E
:103DF0008091F00088608093F000CD2BCF70C0934D
:103E0000E900FF91EF91DF91CF91BF91AF919F9129
:103E10008F917F916F915F914F913F912F910F9073
:103E20000FBE0F901F9018951F93CF93DF93CDB7C0
:103E3000DEB7AA970FB6F894DEBF0FBECDBFE0EF96
:103E4000F1E08091F100819321E0E83FF207C9F7AA
:103E50000E946B1A8091E80083FF2EC18091F001CF
:103E60009091F101492F50E04A30510508F024C1EA
:103E7000FA01E556FF4F0C949020803821F08238EB
:103E800009F01AC108C08091EC019091ED019923CD
:103E900089F082600FC08091F4018F70873008F044
:103EA0000BC18093E9008091EB0085FB882780F9A6
:103EB0001092E9009091E800977F9093E80080933A
:103EC000F1001092F100D1C0282F2D7F09F0F4C02D
:103ED000882319F0823061F0EFC08091F2018130C7
:103EE00009F0EAC0933009F080E08093ED012EC024
:103EF0008091F20181112AC08091F4018F702FEF1F
:103F0000280F263008F0D8C08093E9002091EB00FC
:103F100020FF1CC0933021F48091EB00806214C01C
:103F20009091EB0090619093EB0021E030E0A901CB
:103F300002C0440F551F8A95E2F74093EA001092A1
:103F4000EA008091EB0088608093EB001092E9001A
:103F50008091E800877F8093E8000E94311DACC00B
:103F60008111AAC01091F2011F778091E30080783F
:103F7000812B8093E3008091E800877F8093E800A5
:103F80000E94311D8091E80080FFFCCF8091E3000A
:103F900080688093E300111102C082E001C083E0D9
:103FA0008093EF0189C08058823008F085C08091ED
:103FB000F2019091F3018C3D53E0950779F583E090
:103FC0008A838AE289834FB7F894DE01139620E052
:103FD0003EE051E2E32FF0E050935700E49120FFE0
:103FE00003C0E295EF703F5FEF708E2F90E0EA30F4
:103FF00010F0C79601C0C0968D939D932F5F24311A
:1040000049F74FBF8091E800877F8093E8006AE21C
:1040100070E0CE0101960E943D1C16C06091F40133
:104020007091F501AE014F5F5F4F0E94631BBC01B1
:10403000892B09F441C09091E800977F9093E800A4
:1040400089819A810E949B1C8091E8008B778093E4
:10405000E80032C0803881F58091E800877F809346
:10406000E8008091EB018093F1008091E8008E7769
:1040700072CF811121C08091F2019091F3019927B3
:104080000297D4F48091E800877F8093E8008091C4
:10409000F2018093EB010E94311D8091EB018111AF
:1040A00006C08091E30087FD02C081E001C084E08A
:1040B0008093EF010E94611A8091E80083FF0AC09B
:1040C0008091E800877F8093E8008091EB00806218
:1040D0008093EB00AA960FB6F894DEBF0FBECDBF5B
:1040E000DF91CF911F9108950895CF938091EF01B3
:1040F0008823A1F0C091E900CF709091EC00892F46
:10410000817090FD80E8C82B1092E9008091E80052
:1041100083FD0E94141FCF70C093E900CF910895D2
:10412000EE0FFF1F0590F491E02D0994F999FECF51
:1041300092BD81BDF89A992780B50895A8E1B0E0B5
:1041400042E050E00C94CA20262FF999FECF92BD90
:1041500081BDF89A019700B4021639F01FBA20BD4C
:104160000FB6F894FA9AF99A0FBE08950396272F7E
:104170000E94A5200E94A420252F0E94A520242F64
:104180000C94A5200196272F0E94A5200C94A42012
:10419000DC01CB01FC01F999FECF06C0F2BDE1BD07
:1041A000F89A319600B40D9241505040B8F70895F6
:0441B000F894FFCFB1
:1041B4009D019019051A9319CF199419019392919D
:0E41C40090946631F7F6F5F4C6973334350063
:00000001FF
