:100000000C94C1020C9408030C9408030C9408038C
:100010000C9408030C9408030C9408030C94080334
:100020000C9408030C9408030C9495260C946727F1
:100030000C94BF1D0C9408030C9408030C94080343
:100040000C9408030C9408030C9408030C94080304
:100050000C9408030C94271E0C9408030C940803BA
:100060000C9408030C9408030C9408030C940803E4
:100070000C9408030C9408030C9408030C940803D4
:100080000C9408030C9408030C9408030C940803C4
:100090000C9408030C9408030C9408030C940803B4
:1000A0000C9408030C9408030C940803E504E7047B
:1000B000F204E904EB04ED04EF04F104F404F604A3
:1000C000F8040305FA04FC04FE0400050205050516
:1000D0004D134D137F137F13BD13DB1341154115D2
:1000E0001D144115C014C0143115411541153A15A0
:1000F000CD14CD14CD14CD14CD14CD14CD14CD14F8
:10010000CD14CD14CD14CD14CD14CD14CD14CD14E7
:10011000DE14EC14F314FA140415D215D215E415F8
:10012000E415DB15E415E415E415D215D215E01538
:10013000E415E415E015D427FB27F328FB27F32863
:1001400047286A28F328C128D02807634236B79B7E
:10015000D8A71A39685618AEBAAB558C1D3CB7CC27
:100160005763BD6DEDFD753EF6177231BF0000009F
:10017000803F05A84CCDB2D44EB93836A9020C50F8
:10018000B9918688083CA6AAAA2ABE000000803F32
:100190002B0014001A000800150017003500E400B9
:1001A00004001600070009000A00E20029001D00F3
:1001B0001B000600190005002E007600E300E20097
:1001C00000002C412D00E1004F00510050004C0078
:1001D000025100002A004600520038003700360065
:1001E000100011002800000034000F000E000D0068
:1001F0000B0031002F00130012000C0018001C002F
:1002000001001E001F00200021002200010001004B
:1002100001000100010001000100010001000100D6
:1002200001000100010001000100010001000100C6
:1002300000000100010001004D004E004A000100D5
:1002400001000000010001004B000100010001005D
:100250000100010001000100330001000100010064
:1002600001000100300027002600250024002300A3
:10027000005C3A003B003C003D003E0001000100F4
:100280000100010001000100010001000100010066
:100290000100010001000100010001000100010056
:1002A0000000010001000100010001000100010047
:1002B0000100000001000100010001000100010037
:1002C0000100010001000100010001000100010026
:1002D00001004500440043004200410040003F004F
:1002E00000047F3F1F643214643214783C1E1E14D5
:1002F0000A056801F000B40078005A000000000010
:1003000000010101010101010101020202020202D8
:1003100002020203030303030303030404040404AB
:10032000040505050505060606060607070707086E
:100330000808080909090A0A0A0A0B0B0B0C0C0C1D
:100340000D0D0D0E0E0F0F0F1010111111121213B3
:10035000131414151516161717181819191A1A1B2D
:100360001C1C1D1D1E1F1F20202122222324252589
:1003700026272728292A2B2B2C2D2E2F2F303132C0
:1003800033343536363738393A3B3C3D3E3F4041D1
:10039000424344464748494A4B4C4D4F50515253B3
:1003A000555657585A5B5C5E5F6062636466676966
:1003B0006A6C6D6E707173747678797B7C7E8081E7
:1003C000838486888A8B8D8F91929496989A9B9D30
:1003D0009FA1A3A5A7A9ABADAFB1B3B5B7B9BBBD3D
:1003E000BFC1C4C6C8CACCCFD1D3D6D8DADCDFE10E
:1003F000E4E6E8EBEDF0F2F5F7FAFCFF0403300079
:10040000000014034B006F0064006100630068008B
:100410006900350030000000160377006F0072009D
:100420006C00640073007000610077006E000000D3
:100430000403090409023B00020100A0FA090400B8
:100440000001030101000921110100012240000700
:1004500005810308000A09040100010300000009E6
:10046000211101000122C0000705820320000A12A9
:1004700001100100000008EDFE60600100010203B0
:100480000105010902A10185020901A1000509195F
:100490000129051500250195057501810295017554
:1004A0000381010501093009311581257F95027508
:1004B00008810609381581257F9501750881060593
:1004C0000C0A38021581257F950175088106C0C088
:1004D00005010980A10185031601002603001A8188
:1004E000002A8300751095018100C0050C0901A147
:1004F000018504160100269C021A01002A9C02753F
:100500001095018100C005010906A10185050507B7
:1005100019E029E7150025019508750181020508F4
:100520001901290595057501910295017503910140
:100530000507190029EF1500250195F075018102C5
:10054000C005010906A101050719E029E7150025E5
:100550000195087501810295017508810105081949
:100560000129059505750191029501750391010514
:1005700007190029FF150026FF0095067508810060
:10058000C00011241FBECFEFDAE0DEBFCDBF04B63E
:1005900003FE27C08091680290916902A0916A02CF
:1005A000B0916B028730904BA740B04BD1F41092C2
:1005B00068021092690210926A0210926B0214BED5
:1005C00084B7877F84BF0FB6F894A89580916000A8
:1005D000886180936000109260000FBEE0E0F8E355
:1005E000099511E0A0E0B1E0EAEEF9E502C005905E
:1005F0000D92A033B107D9F722E0A0E3B1E001C02A
:100600001D92A836B207E1F70E94BD230C94F32C8B
:100610000C94000081E0089581E008950C940C038F
:100620000E94541C811102C00E94D81C0C943208F4
:100630000C94340808950C941A030C941B03089529
:100640000E94C0150E941F032FEF84E39CE02150FD
:1006500080409040E1F700C000000C944D1EFF92D6
:100660000F931F93CF93DF938C01FC01C081D18145
:1006700080917801811113C08281882349F0CE01D5
:100680000E94221BF82E682FCE010E94CB1A04C0B4
:10069000CE010E94F61AF82EBE018F2D04C0CE01A5
:1006A0000E94221BBE010E94B905EC01B8010E9404
:1006B0000E03882309F452C2CC3CFCE5DF0709F4A1
:1006C000E1C0E8F5C43C9CE5D90709F4A5C0F8F4FD
:1006D000C531FCE5DF0778F4C2308CE5D80708F0B7
:1006E00052C1C1159CE5D90709F467C0C130DC458A
:1006F00009F46BC026C2C23CFCE5DF0709F478C0F0
:1007000008F07EC0C631DC4509F4F4C11AC2F80114
:100710008281C83CFCE5DF0709F49CC040F4C63C7C
:10072000ECE5DE0709F48AC008F482C08DC0CA3C3B
:100730009CE5D90709F49AC008F492C09DC0C43D55
:10074000FCE5DF0709F4F8C0C0F4F8018281C03D80
:10075000FCE5DF0709F4BFC040F4CE3CECE5DE0762
:1007600009F49DC008F496C0A8C0C23D9CE5D90715
:1007700009F4CFC008F4BFC0DAC0C93DFCE5DF070B
:1007800009F49DC160F4C73D9CE5D90709F44DC14A
:1007900008F06EC1C53DDC4509F4DEC0D2C1CD3DD7
:1007A0008CE5D80709F4E6C0CE3D9CE5D907C1F039
:1007B000CC3DDC4509F0C5C1D6C0F8018281882353
:1007C00009F4CCC10E942003C9C1F80182818823A9
:1007D00009F4C4C180910102816080930102BEC10D
:1007E000F8018281882309F4B9C10E94D81CB6C1DE
:1007F000F8018281882309F4B1C10E94D60CAEC1F0
:10080000F8018281882309F4A9C10E94A31B827286
:1008100061F00E94720CA2C1F8018281882309F460
:100820009DC10E94A31B8272A1F30E94640C96C119
:10083000882309F493C10E94680B90C1882309F4AE
:100840008DC10E948B0B8AC1882309F487C10E9445
:10085000AB0B84C1882309F481C10E94CB0B7EC1FC
:10086000882309F47BC10E94EB0B78C1882309F42B
:1008700075C10E940B0C72C1882309F46FC10E94DC
:100880002A0A6CC1F8018281882309F467C10E9499
:100890003F0A64C1882309F461C181E029C088232B
:1008A00009F45CC10E94210A823028F00E94210ACA
:1008B000853008F4BACF82E01BC0882309F44EC10A
:1008C0000E94210A863028F00E94210A883008F40C
:1008D000ACCF86E00DC0882309F440C10E94210AF4
:1008E000893028F00E94210A8E3008F49ECF89E0DA
:1008F0000E94750C33C1882309F430C10E94210A7B
:100900008F3028F00E94210A843108F48ECF8FE0C6
:10091000EFCF882309F422C10E94210A853128F0F3
:100920000E94210A873108F480CF85E1E1CF882336
:1009300009F414C188E1DCCFF8018281882309F42D
:100940000DC10E94210A893128F00E94210A8232B9
:1009500008F46BCF89E1CCCFF8018281882309F4B8
:10096000FDC083E2C5CFF8018281882309F4F6C077
:1009700080E006C0F8018281882309F4EFC082E09C
:100980000E945C24EBC0F8018281882309F4DEC058
:100990000E94541C811102C00E94D81C0E94711C2C
:1009A00090E090935A0280935902FE01E350FC4577
:1009B000E231F10530F4EA5AFF4F809159020C946C
:1009C000982C80915902816027C0826025C0846084
:1009D00023C0806121C080621FC080641DC0806808
:1009E0001BC08460886018C08E7F16C08D7F14C0C5
:1009F0008B7F12C08F7E10C08F7D0EC08F7B0CC08E
:100A00008F770AC08B7F877F07C087FB222720F95B
:100A100091E0922790FB87F98093590280915902C7
:100A20000E94751C0E94C01599C0F801828188231C
:100A300051F0109235010E94F11D90933201809384
:100A4000310182E022C08091350181110FC0809177
:100A50003101909132010E94FD1D883C910530F4D6
:100A600086E20E94841186E20E94A21282E024C0E3
:100A7000F8018281882361F0109236010E94F11DF5
:100A8000909334018093330180E20E940A1366C080
:100A90008091360181110FC0809133019091340112
:100AA0000E94FD1D883C910530F487E20E9484116C
:100AB00087E20E94A21280E20E9411134FC0F80147
:100AC00082818111D9CF809136018111F4CF80913B
:100AD0003301909134010E94FD1D883C910558F727
:100AE00080E20E94111388E20E94841188E20E9431
:100AF000A21234C00E94A31B982FF801828120917A
:100B00000D0130910E01882379F09A7A81E009F481
:100B100080E080933001911102C069E201C065E379
:100B2000C9010E94401D0AC080913001811102C09C
:100B300069E201C065E3C9010E944B1D0E94F11BDF
:100B40000DC081E08093350180933601C801DF91AB
:100B5000CF911F910F91FF900C940A0380E0DF91D9
:100B6000CF911F910F91FF90089580E090E008953C
:100B7000089528E3829FC0011124FC0127E0729FA1
:100B8000E00DF11D1124E60FF11DEE0FFF1FE057E0
:100B9000FE4F859194910895880F991FFC01E052B2
:100BA000FD4F859194910895CF93DF930E94B905ED
:100BB0000E949007EC018115904508F041C0C115D5
:100BC00080E4D80708F028C1C83ED10510F5C03E22
:100BD000D10508F0A1C1C83AD10578F4C53AD105CC
:100BE00008F0A2C0C130D10509F496C108F447C18C
:100BF000C430D10508F090C142C1CF3BD10508F403
:100C00009EC0C03CD10508F43AC1CE01805C910978
:100C1000F5C0C11590E2D90758F4C11521E0D207FB
:100C200008F07AC1C03FD10508F429C1D06574C16C
:100C3000C11580E3D80708F0E5C0CE019F70DEC083
:100C4000C11595E5D90708F043C0C11524E5D207C1
:100C500008F0F9C0C11582E5D80708F5C11591E57E
:100C6000D90708F0DCC0CE0174E0969587957A9597
:100C7000E1F783709C2F937021E030E002C0220FD7
:100C8000331F9A95E2F73C68382BCF70C695C6950E
:100C900080E2C89FE0011124C22BD32B3DC19E01ED
:100CA000237033278C2F86958695C115D34508F080
:100CB000BBC0C1E0D0E002C0CC0FDD1F2A95E2F737
:100CC00020E2829FC0011124C82BD92BDC6824C1EB
:100CD000C11529E5D207A0F4C11588E5D80708F0A9
:100CE000B7C0C11596E5D90708F0C9C08C2F0E947E
:100CF0000C088F71C82FD0E0DC2FCC27D0620CC13C
:100D0000C1152AE5D20708F4A8C0CE019056811576
:100D1000904208F0B4C08D2F8F710E940C08DD271F
:100D2000D0628F71D82BF8C0C53AD10509F4AAC09A
:100D3000C63AD10509F0A9C0C2E8D0E4EDC0C83A6E
:100D4000D10509F4A5C0C93AD10509F4A4C0CA3A2D
:100D5000D10509F4A3C0CB3AD10509F4A2C0CC3A1D
:100D6000D10509F4A1C0CB3BD10509F4A0C0CC3B0F
:100D7000D10509F49FC0CD3AD10509F49EC0C03B0E
:100D8000D10509F49DC0CE3AD10509F49CC0CF3AF3
:100D9000D10509F49BC0C13BD10509F49AC0C23BFF
:100DA000D10509F499C0C33BD10509F498C0C43BEF
:100DB000D10509F497C0C53BD10509F496C0C63BDF
:100DC000D10509F495C0C73BD10509F494C0C83BCF
:100DD000D10509F493C0C93BD10509F492C0CD3BBC
:100DE000D10509F491C0CE3BD10509F490C0CA3BAE
:100DF000D10509F48FC0C0E0D4E48EC00E94CC05B8
:100E0000EC018AC0CE019927D3FF03C0EC01D86C56
:100E100083C0EC01D06C80C0DF70D06A7DC0DC2F55
:100E2000CC27C16FD06A78C0C1E0D0E002C0CC0F3F
:100E3000DD1F2A95E2F720E2829FC0011124C82B12
:100E4000D92BDA6869C0DC2FCC27C46FD06A64C0A4
:100E5000DC2FCC27C06FD06A5FC08C2F8F700E94B0
:100E60000C0894E0D695C7959A95E1F7CF70D0E03D
:100E7000DC2FCC27D06A8F70806EC82B4DC0C0E0AD
:100E8000D0E04AC0C1E8D0E447C0C3E8D0E444C0E1
:100E9000C2EED4E441C0C9EED4E43EC0CAEED4E40C
:100EA0003BC0C5EBD4E438C0C6EBD4E435C0C3EBDB
:100EB000D4E432C0C4EBD4E42FC0C7EBD4E42CC0DC
:100EC000CCECD4E429C0CDECD4E426C0C3E8D5E40E
:100ED00023C0CAE8D5E420C0C2E9D5E41DC0C4E9F6
:100EE000D5E41AC0C1E2D6E417C0C3E2D6E414C008
:100EF000C4E2D6E411C0C5E2D6E40EC0C6E2D6E430
:100F00000BC0C7E2D6E408C0CFE6D4E405C0C0E712
:100F1000D4E402C0CAE2D6E4CE01DF91CF910895B5
:100F20008238910549F1B0F48133910509F459C033
:100F300048F48932910509F44FC08A32910509F4C9
:100F400055C008958533910509F441C08933910551
:100F500099F00895833E910531F138F4803E910572
:100F600091F0823E9105A9F00895863E910501F128
:100F7000873E910539F108952091590220FD3BC02B
:100F800021FD39C008958091590280FF34C089E362
:100F900041C08091590282FF30C08091590284FD86
:100FA0002EC083EE37C08091590282FD26C0F5CF56
:100FB0008091590283FF25C08091590284FD1FC092
:100FC00087EE28C08091590283FD1BC0F5CF809128
:100FD000590285FD18C019C08091590285FD15C0C0
:100FE00012C08091590286FD12C013C0809159022F
:100FF00086FD0FC00CC080EE0DC082EE0BC080E0FD
:1010000009C086EE07C089E205C085E303C08AE215
:1010100001C081E390E008959091590292FF0DC0C4
:10102000282F2871283019F4877F846006C0282F64
:101030002471243011F48B7F886093FF0DC0282F1A
:101040002871283119F4877E846106C0282F247105
:10105000243111F48B7E886194FD877E0895089574
:101060000C942F080C9430080C942F08CF93DF9326
:10107000A7E2B1E04FE251E061E070E08D91E82F2E
:10108000E295EF70F0E091A18F709B0101C0220FFB
:101090008A95EAF7822F8095892381A34A175B07F7
:1010A00069F7A0E2B1E047E251E061E070E08D91C4
:1010B000E82FE295EF70F0E021A18F70EB0102C004
:1010C000CC0FDD1F8A95E2F7CE019C2F90959223DD
:1010D00091A392A1892B82A34A175B0741F7EFE303
:1010E000F1E0A7E3B1E087E491E011921D928E1741
:1010F0009F07D9F788E00E941A09DF91CF910C94DD
:1011000010032F923F925F926F927F928F929F92E5
:10111000AF92BF92CF92DF92EF92FF920F931F9305
:10112000CF93DF9397E2292E91E0392EAFE3B1E020
:1011300027E4C22E21E0D22E20E001E010E05D0184
:101140003C911C92E10189911E01E82FE295EF701C
:10115000F0E091A18F70A80101C0440F8A95EAF7D1
:10116000892F842B81A382A1742E7094872182A35E
:10117000D0EADA95F1F780E2E82E81E0F82E60E01F
:1011800070E0E70169907E01862D82958F7090E076
:10119000EC0188A05C90912C962D9F7002C09594D4
:1011A00087949A95E2F780FC08C0902F062E01C024
:1011B000990F0A94EAF7892F01C080E085298C9362
:1011C0006F5F7F4F67307105E1F681A1782271A2D0
:1011D00082A1482B42A3119681E0F50190819313DF
:1011E00001C080E0282BCA16DB0609F0A8CF48E032
:1011F00067E371E08FE391E00E941B090E941803EE
:1012000081E0DF91CF911F910F91FF90EF90DF90E0
:10121000CF90BF90AF909F908F907F906F905F9096
:101220003F902F900895E82FF0E0E95CFE4F808119
:10123000089508950895FF920F931F93CF93DF931E
:101240008C01F62ED72FC42F222349F081E0809302
:1012500049010E94F11D90934801809347018091BC
:1012600049018823C1F080914701909148010E9473
:10127000FD1D069780F0EF2DFD2FD8014C2F50E07B
:10128000CD01801B910B841795071CF48D918193E0
:10129000F7CF10924901DF91CF911F910F91FF90ED
:1012A0000895EF92FF920F931F93CF93DF93E9017D
:1012B000662309F44BC0242F30E0EFEFF0E0E61B8B
:1012C000F109B901E69F9001E79F300DF69F300DBF
:1012D0001124232F8B01031B11095CE3E52EF12C54
:1012E000B7010E94702CFB01BC01069FC001079F43
:1012F000900D169F900D1124B7010E94702CE230C2
:10130000F105B1F040F4309779F0319711F5832F62
:10131000242F461B21C0E430F105A1F068F0359779
:10132000C1F4842F861B18C0832F262F230F14C0CF
:10133000862F830FE42F03C0E42FE61B842F432F57
:101340002E2F0AC0842F462F430F06C0842F242F30
:1013500003C080E020E040E0E42FF0E0E450FD4FE7
:101360004491E22FF0E0E450FD4F9491E82FF0E03B
:10137000E450FD4FE49149839883EA83DF91CF9154
:101380001F910F91FF90EF90089580913002282FC8
:1013900026952F7330E02115310519F4817882608C
:1013A00005C02532310524F08178886480933002AD
:1013B00030913002432F441F4427441F20913102B3
:1013C000522F550F852F842B27FB992790F98936AB
:1013D00041E094077CF068E671E00E94842C80FB79
:1013E00037F93093300286952078822B90FB87F96D
:1013F00080933102089588E090E00C94B32CCF9252
:10140000DF92EF92FF926B017C010E94C509B70148
:10141000A60188E090E0FF90EF90DF90CF900C94D1
:10142000D12CE0E3F2E083E08083109231028FEF71
:1014300082838383148260817181828193810C9481
:10144000FF098091300280FF03C086958F73089555
:1014500080E008958091340290E0019684309105F7
:1014600014F083E090E08093340260913002709138
:10147000310280913202909133020C94FF098091E5
:10148000340290E0019797FF02C080E090E0843042
:10149000910514F083E090E0809334026091300273
:1014A0007091310280913202909133020C94FF09C5
:1014B0008091300280FF06C06AE070E085E392E030
:1014C0000C941D10E5E3F2E0118210821282339633
:1014D00082E0E335F807C1F7EFCF9091300290FF3B
:1014E0000CC0E5E3F2E0818360834283339692E0AF
:1014F000E335F907C1F70C94580A0895CF93DF93A9
:1015000000D01F92CDB7DEB72091300220FF0AC075
:101510009E012F5F3F4F0E9451094B8169818A8153
:101520000E946D0A0F900F900F90DF91CF91089558
:101530005F926F927F928F929F92AF92BF92CF9263
:10154000DF92EF92FF920F931F93CF93DF9300D020
:101550001F92CDB7DEB78C01E62EF42E522E80916D
:10156000300280FF89C0982F9E77923061F49E01EF
:101570002F5F3F4FC8010E9451094B8169818A81C9
:101580000E946D0A59C0E82FE695EF739EE39E0F07
:101590009F73943018F4F09033024EC09AE39E0F7C
:1015A0009F73993068F4881F8827881F90913102B3
:1015B000292F220F022F082B97FB112710F93CC06F
:1015C00087E28E0F8F738A30B8F5F0E07997E0FDEF
:1015D00002C021E001C02FEFEE7FEE50FD4F85915C
:1015E00094916AE070E00E94702C26034001279FCE
:1015F000900C1124580188E9A81A8EEFB80A85E3E7
:10160000C82E82E0D82E98E6692E77247394C501FF
:10161000B3010E94702C96014F2D6E2D0E9451092E
:10162000A80CB91C83E0C80ED11C83E5C81682E063
:10163000D80669F70E94580A8091300200FB87F9AA
:1016400080933002902F9695809131028078892B7B
:1016500010FB87F980933102E0923202F09233025C
:10166000552051F060913002709131028091320228
:10167000909133020E94FF090F900F900F90DF911D
:10168000CF911F910F91FF90EF90DF90CF90BF907F
:10169000AF909F908F907F906F905F900895282FCC
:1016A000E0E3F2E03081331F3327331F40913102F2
:1016B000542F550F852F832B47FB992790F90896B8
:1016C00068E671E00E94842C438162810C94980A40
:1016D00081E00C944F0B282F30913002331F3327B9
:1016E000331F40913102542F550F852F832B47FB19
:1016F000992790F9883091051CF4805A9E4F05C0B7
:10170000089768E671E00E94842C40913302609152
:1017100032020C94980A81E00C946B0B60913202B7
:10172000262F30E0283F310514F4685F01C06FEFC9
:1017300030913002331F3327331F90913102592FDC
:10174000550F97FB992790F9282F40913302852F49
:10175000832B0C94980A81E00C948E0B60913202DA
:10176000262F30E02830310514F0685001C060E0C9
:1017700030913002331F3327331F90913102592F9C
:10178000550F97FB992790F9282F40913302852F09
:10179000832B0C94980A81E00C94AE0B4091330299
:1017A000242F30E0283F310514F4485F01C04FEF8B
:1017B00030913002331F3327331F90913102592F5C
:1017C000550F97FB992790F9282F60913202852FAA
:1017D000832B0C94980A81E00C94CE0B4091330239
:1017E000242F30E02830310514F0485001C040E08B
:1017F00030913002331F3327331F90913102592F1C
:10180000550F97FB992790F9282F60913202852F69
:10181000832B0C94980A81E00C94EE0B20E00C943E
:10182000980ACF939091300290FF40C09178811137
:1018300002C0926007C0853210F0986403C08F73B5
:10184000880F982B90933002662351F060913002FC
:101850007091310280913202909133020E94FF090F
:10186000C09130026C2F66956F7370E04BE050E0D2
:1018700082E091E00E949E2C892B19F01092670162
:1018800003C081E080936701CC1FCC27CC1F9091CF
:101890003102892F880F97FB992790F940913302E5
:1018A000609132028C2BCF910C940E0CCF91089545
:1018B000682F9091300296959F7381E0890F853251
:1018C00008F081E00C94110C81E00C94580C682F06
:1018D0009091300296959F738FEF890F09F484E2FF
:1018E0000C94110C81E00C94670C61E00C94110CC9
:1018F000E0E3F2E080818160808386958F730C94B1
:10190000750C60E00C94110C80916801811135C058
:10191000809101028160809301020E94541C811118
:1019200004C00E94D81C0E94110A0E94FB09609307
:1019300030027093310280933202909333026E77BB
:1019400061F40E94110A0E94FB09609330027093B7
:10195000310280933202909333020E94C50981E0E4
:10196000809367018091300280FF04C086958F7359
:101970000E94810C81E0809368010895E0E3F2E029
:1019800080818E7F808360817181828193810E94BA
:10199000FF09109267012FEF80E792E0215080400D
:1019A0009040E1F700C000000C94580A809130028A
:1019B00080FD0C94BE0C0C94780CCF93E82FF0E0D3
:1019C000E251FD4FC49180916501909166010E94A2
:1019D000FD1DEC2FF0E08E179F0708F443C00E9416
:1019E000F11D90936601809365016091640170E040
:1019F00080E090E00E94712A20E030E04FE753E45D
:101A00000E9494292BED3FE049E450E40E949A2B78
:101A10000E94072C0E940E2A2BE43AE34EE25FE379
:101A20000E94272920EF3BEF48ED52E40E949A2BB9
:101A30000E94402A462F80913002881F8827881FE5
:101A400090913102292F220F97FB992790F96091ED
:101A50003202822B0E947E0A8091640190E00196FE
:101A600080936401CF910895CF93E82FF0E0E55182
:101A7000FD4FC49180916201909163010E94FD1D10
:101A8000EC2FF0E08E179F07E8F00E94F11D909375
:101A90006301809362014091330260913202809130
:101AA0006001909161010E947E0A80916001909195
:101AB0006101019668E671E00E94702C90936101CB
:101AC00080936001CF910895CF92DF92FF920F93A0
:101AD0001F93CF93DF93F82EE82FE695F0E0E851BF
:101AE000FD4FC49180915E0190915F010E94FD1DA8
:101AF000EC2FF0E08E179F07B8F10E94F11D909334
:101B00005F0180935E0105E312E0C0E0D0E088E66B
:101B1000C82EDD24D39480915C0190915D018C0FDF
:101B20009D1FB6010E94702C980140913302609174
:101B300032020E945109A4960D5F1F4FC83681E002
:101B4000D80749F70E94580A80915C0190915D0185
:101B5000F0FE05C00196BE010E94702C01C00197E5
:101B600090935D0180935C01DF91CF911F910F9164
:101B7000FF90DF90CF900895CF92DF92EF92FF9287
:101B80000F931F93CF93DF9380FF02C01FEF01C01D
:101B900011E08695E82FF0E0EB51FD4FC491809164
:101BA0005A0190915B010E94FD1DEC2FF0E08E1711
:101BB0009F0708F45BC00E94F11D90935B01809326
:101BC0005A0125E3E22E22E0F22EC0E0D0E0F70138
:101BD00011821082128294E0C92ED12C00E08091F3
:101BE0005901800F87FD865F082E000C990BC817DE
:101BF000D907E9F4809133028C9DA0018D9D500D91
:101C00001124559547955595479580913002881F29
:101C10008827881F90913102592F550F97FB9927DC
:101C200090F9970160913202852B0E945109010FB2
:101C3000F1E0CF1AD10899F6219683E0E80EF11C65
:101C4000CA30D10521F60E94580A809159011130FD
:101C500031F4811102C089E007C0815005C090E0D5
:101C60000196BE010E94842C80935901DF91CF918F
:101C70001F910F91FF90EF90DF90CF9008950F93F9
:101C80001F93CF93DF93E82FF0E0EE51FD4FC49107
:101C900080915701909158010E94FD1DEC2FF0E0BA
:101CA0008E179F0708F456C00E94F11D90935801AB
:101CB00080935701C5E3D2E0FE01118210821282A7
:101CC000339682E0E335F807C1F700E010E0809139
:101CD0005601082E000C990B08171907ECF080919B
:101CE0000101082E000C990B80179107ACF0809130
:101CF0003002881F8827881F90913102592F550F75
:101D000097FB992790F99E0140913302609132022E
:101D1000852B0E94510903C0198218821A820F5F15
:101D20001F4F23960A30110591F60E94580A8091A0
:101D3000000190915601980F909356012091010156
:101D4000280F20930101121614F499301CF081958C
:101D500080930001DF91CF911F910F910895EF9231
:101D6000FF920F931F93CF93DF9380915401909133
:101D700055010E94FD1D883E9340D0F10E94F11D47
:101D80009093550180935401C0915201D091530119
:101D90002196C170DD27D0935301C093520185E392
:101DA000E82E82E0F82E10E008E7812F8695FE01EC
:101DB000E80FF11DCF0181709927970140913302FF
:101DC00060913202FC010E9FC0010F9F900D112403
:101DD0000E9451091F5FF3E0EF0EF11C1A3029F742
:101DE000DF91CF911F910F91FF90EF900C94580AC3
:101DF000DF91CF911F910F91FF90EF900895CF93B6
:101E0000DF9300D01F92CDB7DEB780915001909143
:101E100051010E94FD1DE0EEF2E025913491821700
:101E20009307C0F180914F0181110CC09E012F5F7B
:101E30003F4F4FEF6FEF80E090E00E9451098A81A1
:101E400080934F010E94F11D9093510180935001A6
:101E500080914E01813051F028F0823061F4409140
:101E60004F010AC080914F0140E007C060914F01CF
:101E700040E080E003C040E080E060E00E946D0A46
:101E800080914E0190E0019663E070E00E94842C06
:101E900080934E010F900F900F90DF91CF91089596
:101EA0000F931F93CF93DF9380914C0190914D013D
:101EB0000E94FD1D843F914008F448C00E94F11D1E
:101EC00090934D0180934C01C5E3D2E000E010E017
:101ED00020914A0130914B01809130029091310262
:101EE000053011051CF4232B79F002C0232B61F47B
:101EF000881F8827881F592F550F97FB992790F91E
:101F00009E01409133020AC0881F8827881F592FDD
:101F1000550F97FB992790F99E0140E0609132029E
:101F2000852B0E9451090F5F1F4F23960A30110520
:101F300079F60E94580A80914A0190914B010196CE
:101F40008170992790934B0180934A01DF91CF9143
:101F50001F910F910895809167018823D9F1909185
:101F60003002892F86958F732EE3280F2F7324302C
:101F700018F482500C94DD0C2AE3280F2F732330C1
:101F800018F486500C94340D27E3280F2F73263055
:101F900018F489500C94640D21E3280F2F73263018
:101FA00018F48F500C94BC0D2BE2280F2F732330A4
:101FB00018F485510C943F0E892F8E77803311F4DD
:101FC0000C94AF0E863411F40C94FF0E883411F487
:101FD0000C94500F08952BB1342F309523233BB12F
:101FE000432B3FB7F894FC01680F791FE617F707FA
:101FF00089F0819198E04BB9000000C087FF2BB9B0
:10200000880F000000C000C000C02BB900C09A9526
:1020100091F7ECCF3FBF08952AB1242B2AB99B0139
:10202000220F331F620F731F0E94EB0F87EC90E0AB
:102030000197F1F700C00000089548E00C940C10DF
:1020400090936E0180936D010895E0916D01F09180
:102050006E01309721F00190F081E02D099480E02D
:102060000895E0916D01F0916E01309799F0209103
:102070001F01222359F02091590227FF07C0DC01DC
:102080002C9111962C93119725E02C930280F381CB
:10209000E02D09940895E0916D01F0916E01309763
:1020A00039F022E0DC012C930480F581E02D0994C5
:1020B000089520916B0130916C012817390771F058
:1020C00090936C0180936B01E0916D01F0916E0132
:1020D000309721F00680F781E02D09940895209132
:1020E000690130916A012817390771F090936A01EC
:1020F00080936901E0916D01F0916E01309721F0BC
:102100000084F185E02D0994089585B7806885BF26
:1021100085B7806885BF089508950C948C100C9441
:102120008D100C948C100C948C100E9485100E94C1
:1021300091100C948F1081E008950E94E81D0E9478
:1021400036080E94B51E0E94840C0C949310BF9216
:10215000CF92DF92EF92FF920F931F93CF93DF9373
:10216000CDB7DEB72A970FB6F894DEBF0FBECDBF4E
:102170000E9481080E949B10811111C08FEF8983FA
:102180008A831B820E94F11D8160782F9D838C833E
:1021900049815A816B818D810E94501154C080E722
:1021A000C82E81E0D82E00E010E0B02E802F0E94D3
:1021B0001309E82EF60121916F01F82EF22631F471
:1021C0000F5F1F4F0830110581F7D8CF80910102B2
:1021D00081FD0E94190980E090E02F2D30E0482F0A
:1021E000B901082E02C0759567950A94E2F760FF61
:1021F00025C08E83BF8281E090E06C0102C0CC0CD0
:10220000DD1C4A95E2F72E2D30E02C213D21232BB9
:1022100009F480E088870E94F11D8160782F9A87F9
:1022200089874E815F8168858A850E945011F801F7
:10223000E059FE4F80818C25808305C00196873050
:10224000910569F6BDCF0E9458210E9425109091FA
:102250006F018917A9F00E94251080936F012A96BB
:102260000FB6F894DEBF0FBECDBFDF91CF911F91A7
:102270000F91FF90EF90DF90CF90BF900C941D03D3
:102280002A960FB6F894DEBF0FBECDBFDF91CF9177
:102290001F910F91FF90EF90DF90CF90BF90089526
:1022A000CF93DF93CDB7DEB72B970FB6F894DEBF91
:1022B0000FBECDBF4F83588769877A878B87DE0132
:1022C000119686E0FD0111928A95E9F785E0FE01FD
:1022D000379601900D928A95E1F749815A816B8179
:1022E0007C818D819E810E9490182B960FB6F89468
:1022F000DEBF0FBECDBFDF91CF910895FC0180817D
:1023000091810E94641B0895882309F41AC18238C0
:10231000C1F40E94251081FD14C169E380910D0173
:1023200090910E010E94401D0E94F11B2FEF81EE43
:1023300094E0215080409040E1F700C0000069E344
:1023400019C08338F9F40E94251080FDFAC063E5B6
:1023500080910D0190910E010E94401D0E94F11B81
:102360002FEF81EE94E0215080409040E1F700C0D3
:10237000000063E580910D0190910E010E944B1DBC
:102380000C94F11B8438C1F40E94251082FDD9C041
:1023900067E480910D0190910E010E94401D0E9402
:1023A000F11B2FEF81EE94E0215080409040E1F747
:1023B00000C0000067E4DECF9CEF980F913A40F434
:1023C000682F80910D0190910E010E94401DD8CF81
:1023D00090E2980F983050F4877091E001C0990F07
:1023E0008A95EAF7892F0E94A61BCACF9BE5980F12
:1023F000933070F4853A29F0863A31F083E890E022
:1024000005C081E890E002C082E890E00C94591089
:1024100098E5980F973108F08EC0883A09F445C0C6
:10242000893A09F445C08A3A09F445C08B3A09F45F
:1024300045C08C3A09F445C08B3B09F445C08C3B40
:1024400009F445C08D3A09F445C0803B09F445C004
:102450008E3A09F445C08F3A09F445C0813B09F42E
:1024600045C0823B09F445C0833B09F445C0843B29
:1024700009F445C0853B09F445C0863B09F445C0D5
:10248000873B09F445C0883B09F445C0893B09F402
:1024900045C08D3B09F445C08E3B09F445C08A3BDD
:1024A00009F445C080E090E044C082EE90E041C075
:1024B00089EE90E03EC08AEE90E03BC085EB90E074
:1024C00038C086EB90E035C083EB90E032C084EBFF
:1024D00090E02FC087EB90E02CC08CEC90E029C0FE
:1024E0008DEC90E026C083E891E023C08AE891E07B
:1024F00020C082E991E01DC084E991E01AC081E228
:1025000092E017C083E292E014C084E292E011C02E
:1025100085E292E00EC086E292E00BC087E292E094
:1025200008C08FE690E005C080E790E002C08AE234
:1025300092E00C946F10803F20F00E9460200C9479
:102540004D210895882309F464C0823879F40E94EB
:10255000251081FF5EC069E380910D0190910E010D
:102560000E94401D0E94F11B69E310C08338B1F442
:102570000E94251080FF4DC063E580910D01909170
:102580000E010E94401D0E94F11B63E580910D0128
:1025900090910E010E944B1D0C94F11B843879F42C
:1025A0000E94251082FF35C067E480910D01909153
:1025B0000E010E94401D0E94F11B67E4E7CF9CEFD3
:1025C000980F913A10F4682FE1CF90E2980F98306D
:1025D00050F4877091E001C0990F8A95EAF7892F2E
:1025E0000E94AC1BD9CF9BE5980F933020F480E07C
:1025F00090E00C94591098E5980F973120F480E002
:1026000090E00C946F10803F20F00E94C8200C9442
:102610004D210895882321F00E94A61B0C94F11BE4
:102620000895882321F00E94AC1B0C94F11B08959F
:102630008F929F92AF92BF92DF92EF92FF920F9391
:102640001F93CF93DF937C01D62FC72FFC01058109
:1026500002950F70128111110E94C31B0E949C1BD6
:10266000882379F0112369F080E28D0F883048F0DB
:1026700082E00E943B1C0E949C1B91E0D82ED92630
:1026800001C0D12CBC2EB2948FE0B8228B2D90E0EB
:10269000FC01E859FF4F0C94982C8C2F807FCF7051
:1026A000882311F0C295C07F112399F0CC2309F43F
:1026B000C3C180E28D0F883010F0D11104C08C2F7F
:1026C0000E94A61B03C08C2F0E94B61B0E94F11B08
:1026D000B3C18D2F0E94A212CC2309F4D2C180E293
:1026E0008D0F883010F0D11104C08C2F0E94AC1BCC
:1026F00003C08C2F0E94BC1B0E94F11BC2C18C2FF7
:10270000807FCF70803211F0C295C07FDD2319F039
:10271000D130C9F022C0112371F0002341F0013003
:1027200031F40E94D61B8C2B0E94DE1BAAC10E9492
:10273000D61B8C2B3AC1002319F0013009F4A1C13A
:102740000E94E71B18C0112321F0063008F099C140
:102750000EC0053008F095C10EC0112351F00023C2
:1027600031F0F701858180FF67C18F7085838C2FE1
:102770001CC1011172C18C2F1EC18C2F86958695AC
:10278000837019F0813061F07CC1112321F08D2F0D
:102790009C2F937002C080E090E00E9459107EC18F
:1027A000112321F08D2F9C2F937002C080E090E0C8
:1027B0000E946F1073C11123F9F0D53F51F0D63F3D
:1027C00071F0D43FA9F4809153029091540281603A
:1027D0000BC08091530290915402826005C0809199
:1027E0005302909154028460909354028093530258
:1027F0008D2F0E9460201EC0D53F51F0D63F71F052
:10280000D43FA9F480915302909154028E7F0BC063
:1028100080915302909154028D7F05C080915302A4
:10282000909154028B7F90935402809353028D2F8A
:102830000E94C8200E944D2131C18C2F837009F065
:102840004CC0111127C12D2F229526952770220FDC
:10285000220F6D2F6F70862F90E0A0E0B0E04C014A
:102860005D01022E04C0880C991CAA1CBB1C0A9492
:10287000D2F7D4FF12C08FE090E0A0E0B0E004C037
:10288000880F991FAA1FBB1F2A95D2F7BC01CD0143
:10289000609570958095909503C060E070E0CB01E5
:1028A000C695C695C370C23051F080F46829792965
:1028B0008A299B29C13071F00E94E119EBC0682977
:1028C00079298A299B290E94F319E4C00E94E11901
:1028D000C501B4010E94CF19DDC0112319F08C2F5E
:1028E000817001C08695882309F4D4C02D2F2295CC
:1028F00026952770220F220F6D2F6F70862F90E084
:10290000A0E0B0E04C015D01022E04C0880C991CCF
:10291000AA1CBB1C0A94D2F7D4FF12C08FE090E02F
:10292000A0E0B0E004C0880F991FAA1FBB1F2A9522
:10293000D2F7BC01CD01609570958095909503C04C
:1029400060E070E0CB01C695C695C370C23051F00F
:1029500080F4682979298A299B29C13071F00E9465
:10296000A61A98C0682979298A299B290E94B81A31
:1029700091C00E94A61AC501B4010E94941A8AC08F
:102980008D2F90E0FC01E05EF109E531F10508F0E2
:102990004FC0E858FF4F0C94982CDF708C2F8F712C
:1029A000112331F00E942D1A8D2F0E940A1369C045
:1029B0000E944E1A8D2F0E94111363C0112341F003
:1029C000053008F05EC08C2F8F710E94731A59C0B9
:1029D000063008F056C0F7CF112339F08C2F8F71D5
:1029E0000E942D1A4EC01123C9F38C2F8F710E94A3
:1029F0004E1A47C0112329F08C2F8F710E94181A8C
:102A000040C00E94131A3DC0112349F0CF718C2F92
:102A10000E942D1A63E08C2F0E94261C32C081E098
:102A20000E943B1C023068F182E00E943B1C29C0DE
:102A3000112331F0002391F28D2F0E94841121C0C7
:102A4000002399F2D93349F4FFEF27EE83E0F150E8
:102A500020408040E1F700C000008D2F0E94A212AC
:102A600010C04C2F4F706D2FC7010E94B5050E94FA
:102A70003E1914C04C2F4F706D2FC7010E94B8052E
:102A80000DC098E0B91631F0B91640F086EF8B0D05
:102A9000823020F40E9425100E941D03DD20E1F009
:102AA0000E94981B80FD18C0F70112820E94921BA1
:102AB0000E942D1AC7010E9478150E94921BDF9177
:102AC000CF911F910F91FF90EF90DF90BF90AF904B
:102AD0009F908F900C944E1ADF91CF911F910F9180
:102AE000FF90EF90DF90BF90AF909F908F900895F0
:102AF0000F931F93CF93DF93EC01988189812B81F2
:102B00003C81232B31F08F3F31F481E09F3F19F45A
:102B100003C081E001C080E080FD13C0CE010E94AF
:102B20002F03882371F0688179818A810E946F1B4D
:102B30008C010E94CA1A0E94BB19B801CE010E94E2
:102B40001813DF91CF911F910F9108950E94C31B1D
:102B50000E94D31B0E94F11B0E94EF210E944D2175
:102B600080E090E00E94591080E090E00C946F109B
:102B700080910D0190910E010E94561D0C94A61596
:102B80000E94B31B0C94B815E92FE295EF704E2FFD
:102B900050E0FA013297EE30F105B0F4E357FF4F01
:102BA0000C94982C803F91F018F4803E68F40EC08D
:102BB000843F51F40BC0803E48F0813F29F406C0A9
:102BC00093FB882780F9089580E0089581E00895B7
:102BD0000E94641B0E94C4150895CF93DF9300D018
:102BE00000D01F92CDB7DEB70F900F900F900F90CF
:102BF0000F90DF91CF910895CF93DF9300D000D055
:102C000000D0CDB7DEB726960FB6F894DEBF0FBE64
:102C1000CDBFDF91CF9108951F93CF93DF93C091E4
:102C2000790116E080917A01C81799F0D0E01C9FD5
:102C3000F0011D9FF00D1124E558FE4F4081518198
:102C400062817381848195810E94FC152196C770F1
:102C5000E9CFDF91CF911F9108954091AB01509141
:102C6000AC016091AD017091AE018091AF01909186
:102C7000B0010C94FC15CF938091B00182958F70B8
:102C800009F05FC08091AD01882309F45AC080919A
:102C90007901B0917A017091AB01A091AC014091A2
:102CA000AE015091AF0191E07F3F09F090E0692FB4
:102CB000C6E08B1709F445C04115510521F0AF3F1F
:102CC00021F020E003C021E001C0262F90E020FD8C
:102CD00035C0C89FF001C99FF00D1124E558FE4F83
:102CE00021812A132BC02081271328C02281211182
:102CF00025C0238134812417350710F42150310970
:102D0000241B350B283C3105C8F42091B0012F70ED
:102D100020612093B00126E0289FF001299FF00D4B
:102D20001124E058FE4F80818F70806180838BEA90
:102D300091E00E947815CF910C940C160196877043
:102D4000B8CFCF910895AF92BF92CF92DF92EF921A
:102D5000FF920F931F93CF93DF93CDB7DEB76197A9
:102D60000FB6F894DEBF0FBECDBF8C0185E0F80131
:102D7000DE011D9601900D928A95E1F7D8014C91E4
:102D800011965C9111971296EC903091AB01609185
:102D9000AC018091AE019091AF01009731F06F3F8F
:102DA00031F421E03F3F19F403C021E001C020E0ED
:102DB000B22FB170BB2E20FD60C1F801C380D4805A
:102DC000A090AD01AA2009F4EEC02091B001C81670
:102DD000D90628F0D601A81BB90BCD0104C08095F7
:102DE00090958C0D9D1DFF24F394883C910580F0F7
:102DF000F12C207F09F09CC07C2DD98AC88A6E2DC9
:102E000089890E94ED158BEA91E00E9478152DC109
:102E1000822F807F09F054C0561314C0431312C090
:102E2000FE2CE1100FC02F7020612093B0010E9492
:102E30002D168BEA91E00E9478158091B001F8017F
:102E400085835CC1CD2831F05F3F31F481E04F3F95
:102E500019F403C081E001C080E080FD03C081E07F
:102E60008E2502C080E090E0F82FF170FF2E80FFE9
:102E70001CC08091790120917A0136E0821709F413
:102E80001AC190E0389FF001399FF00D1124E558E8
:102E9000FE4F6181561306C06081461303C06281F4
:102EA000E61203C001968770E9CFFE2CEE2009F4EC
:102EB00025C18091B00181608093B001F12C1EC1C9
:102EC000561309C0431307C0E11005C08091B0013B
:102ED000F8018583A4C04D875E878D859E850E94FD
:102EE000E815882379F1EE2069F12091B001822F55
:102EF00082958F7090E0029774F08091AB01909171
:102F0000AC0198878F831986DB86CA862C87CE0111
:102F100007960E94781586E0F801ABEAB1E00190CF
:102F20000D928A95E1F70E943B160E942D160DC066
:102F3000561771F04D875E878D859E850E94E81536
:102F400081111AC0C8010E947815FF24F394D6C0DD
:102F50004313F0CFE110EECF8091B001F8018583EB
:102F6000C8010E94781586E0EBEAF1E0DF011D92CE
:102F70008A95E9F7FA2CC2C0EE2021F32091B00126
:102F8000822F82958F7090E002972CF28091AB0196
:102F90009091AC019A8389831B82DD82CC822E833F
:102FA000CE010196B6CFC816D90628F0F601E81B67
:102FB000F90BCF0104C0809590958C0D9D1D883C28
:102FC000910548F0F12C7C2DD98AC88A6E2D89890B
:102FD0000E94ED154AC0FE2CEE2009F4B3CF561323
:102FE00033C0431331C02091B00120FD24C0822F93
:102FF00082958F70482F50E041155105E1F0D801BE
:1030000015962C9315974F30510549F08F5F982FE7
:103010009295907F822F8F70892B15968C93C80183
:103020000E94781586E0F801ABEAB1E001900D92BC
:103030008A95E1F73DC086E0F801ABEAB1E0019086
:103040000D928A95E1F75AC04D875E878D859E85E2
:103050000E94E81581115FCF8091B001816080935B
:10306000B001C8010E94781549C0EBEAF1E086E0A2
:10307000DF011D928A95E9F71BC0EE2009F462CFAB
:103080004D875E878D859E850E94E815F82E8823E2
:1030900009F458CF86E0F801ABEAB1E001900D9257
:1030A0008A95E1F78BEA91E00E947E110E943B161F
:1030B0000E942D1623C04D875E878D859E850E94B8
:1030C000641B292F22952F70223028F49F7039F02D
:1030D000811105C00BC0243028F49F7049F4805E34
:1030E000883020F0C8010E947815BF2CFB2C06C048
:1030F000D80115969C91907F91F7F8CF8F2D61960E
:103100000FB6F894DEBF0FBECDBFDF91CF911F91F8
:103110000F91FF90EF90DF90CF90BF90AF90089508
:103120001F93CF93DF93CDB7DEB72C970FB6F894EC
:10313000DEBF0FBECDBF4F83588769877A878B87E5
:103140009C87CE0107960E94A3168823D1F09F8109
:1031500088852A853B85232B31F08F3F31F481E030
:103160009F3F19F403C081E001C080E080FD47C0AB
:103170004F81588569857A858B859C850E94FC15D1
:103180003EC086E0FE013796DE01119601900D9259
:103190008A95E1F7FF81E8856A857B856115710570
:1031A00031F0EF3F31F481E0FF3F19F403C081E0DB
:1031B00001C080E080FD23C020917A0130E0C90188
:1031C0000196877099274091790150E084179507FF
:1031D000F1F1F983EA837D836C8396E0929FD001BD
:1031E000939FB00D1124A558BE4FFE01319601905A
:1031F0000D929A95E1F780937A010E940C1616E0E1
:103200008091790190917A01891771F1189FC0011D
:10321000112485589E4F0E94A316882329F1E0911E
:1032200079011E9FF0011124E558FE4F4081518124
:1032300062817381848195810E94FC15809179015E
:1032400090E001968770992780937901D9CF0E94E9
:10325000C01510927A0110927901EBEAF1E086E054
:10326000DF011D928A95E9F72C960FB6F894DEBF20
:103270000FBECDBFDF91CF911F910895EF92FF92C6
:103280000F931F93CF93DF938C01892B09F46CC0AC
:10329000F12CEE24E394E8012196F801849184371F
:1032A00040F4843008F051C0813081F0823019F14F
:1032B0005BC0853709F444C0A8F19CE7980F9037AC
:1032C00008F052C08F770E94A21241C00E5F1F4FBC
:1032D000FE01849190E2980F983050F48770FE2D93
:1032E00001C0FF0F8A95EAF78F2F0E94C61B14C0FA
:1032F0000E9484112DC00E5F1F4FFE01849190E249
:10330000980F983060F48770FE2D01C0FF0F8A95EA
:10331000EAF78F2F0E94CC1B0E94F11B19C00E945C
:10332000A21216C00E5F1F4FFE01C491CC2381F084
:103330008FE99FE00197F1F700C00000C150F6CF80
:103340000E5F1F4FFE01F49003C00E9484118E0196
:103350008F2D882309F49FCFEFE9FFE03197F1F734
:1033600000C000008150F5CFDF91CF911F910F91E8
:10337000FF90EF900895089508950C94BC190C9453
:10338000BD190E94BF196093D8017093D901809331
:10339000DA019093DB010C94A6150C94C1190F93DC
:1033A0001F930091D8011091D9012091DA01309139
:1033B000DB01602B712B822B932B1F910F910C94AF
:1033C000C1190F931F930091D8011091D901209139
:1033D000DA013091DB0160237123822393231F9153
:1033E0000F910C94C1190F931F930091D801109164
:1033F000D9012091DA013091DB0160277127822702
:1034000093271F910F910C94C1190C94BC190E9421
:10341000051A6093D4017093D5018093D6019093DF
:10342000D7010C94A61560E070E0CB010C94071A4C
:103430000F931F9341E050E060E070E08A019B0130
:1034400004C0000F111F221F331F8A95D2F7C90134
:10345000B8011F910F910C94071A0F931F9341E02D
:1034600050E060E070E004C0440F551F661F771FF6
:103470008A95D2F78091D4019091D501A091D6017F
:10348000B091D7018A019B01082B192B2A2B3B2BCA
:10349000C901B8011F910F910C94071A0F931F9344
:1034A00041E050E060E070E004C0440F551F661F2B
:1034B000771F8A95D2F740955095609570958091C9
:1034C000D4019091D501A091D601B091D7018A0184
:1034D0009B01082319232A233B23C901B8011F910B
:1034E0000F910C94071A0F931F9341E050E060E096
:1034F00070E004C0440F551F661F771F8A95D2F7EE
:103500008091D4019091D501A091D601B091D701BD
:103510008A019B01082719272A273B27C901B801DF
:103520001F910F910C94071A0F931F930091D401D0
:103530001091D5012091D6013091D701602B712BCC
:10354000822B932B1F910F910C94071A0F931F93AB
:103550000091D4011091D5012091D6013091D7016D
:1035600060237123822393231F910F910C94071AD8
:103570000F931F930091D4011091D5012091D60192
:103580003091D70160277127822793271F910F91D0
:103590000C94071A089527E0929F800D1124E82FBC
:1035A000E695E695E695877051E001C0550F8A953E
:1035B000EAF785E0E89FF0011124EF54FE4F20E088
:1035C00030E070E04081CB01022E02C096958795D5
:1035D0000A94E2F78170819584278523842781935B
:1035E0002F5F3F4F2530310569F7089527E0929FFF
:1035F000800D1124682F669566956695982F9770B3
:1036000085E0689FB001112440E050E080E0FB01BC
:10361000E40FF51FEF54FE4F208130E0092E02C069
:10362000369527950A94E2F721703327042E01C0BE
:10363000220F0A94EAF7822B4F5F5F4F4530510506
:1036400031F70895BF92CF92DF92EF92FF920F93DE
:103650001F93CF93DF938C01C090D401D090D501FC
:10366000E090D601F090D7018091D8019091D901D6
:10367000A091DA01B091DB01C82AD92AEA2AFB2AF3
:10368000CFE1D0E0D701C6010C2E04C0B695A795B6
:10369000979587950A94D2F780FD04C0219790F7FB
:1036A000B12C07C0BC2EB8018C2F0E94D405019705
:1036B000A9F38B2DDF91CF911F910F91FF90EF9088
:1036C000DF90CF90BF900895CF93DF93EC010E94DD
:1036D000221BBE010E94D405DF91CF9108951F9354
:1036E000CF93DF93EB0190917801992321F0CB01E7
:1036F0000E94641B13C0882349F0CB010E94221B47
:10370000182F682FCE010E94CB1A04C0CB010E9453
:10371000F61A182FBE01812F0E94D405DF91CF9198
:103720001F9108958091DC01859585958595089573
:103730008091DC01877008959091DC01977081E0A1
:1037400009F480E0089580910002089590910002AC
:10375000892B80930002089580959091000289231F
:103760008093000208951092000208959091FF0145
:10377000892B8093FF01089580959091FF01892303
:103780008093FF0108951092FF0108959091FE012A
:10379000892B8093FE01089580959091FE018923E5
:1037A0008093FE0108951092FE0108958091DD013D
:1037B000089508950C94D91B0C94DA1B9091DD01A7
:1037C000981721F08093DD010C94DC1B0895809103
:1037D000DD01882329F01092DD0180E00C94DC1BD0
:1037E0000895E0910D01F0910E0180910002808317
:1037F000E0910D01F0910E0190818091FF01892BE4
:103800008083E0910D01F0910E0190818091FE0185
:10381000892B80838091DD01882381F0E0910D0167
:10382000F0910E019081892B808380910D01909100
:103830000E010E94DA1C81110E94E71B80910D018C
:1038400090910E010C9431100C94D91B98E0899F33
:1038500090011124262B2093DC010E942D1A8091C7
:10386000DC018595859585950C94241C1092DC01CE
:1038700080E00C94241C2091DC01809582238093AD
:10388000DC01982F977079F430E0482F082E000C57
:10389000550B2417350739F08595859585950E9438
:1038A0004E1A0C94361C089580E090E00E94B92CCA
:1038B00021E08D3E9E4F09F020E0822F089582E0A6
:1038C00090E00C94AB2C682F82E090E00C94BF2C1D
:1038D00083E090E00C94AB2C682F83E090E00C9494
:1038E000BF2C84E090E00C94AB2C682F84E090E037
:1038F0000C94BF2CAB01BC018FE090E00C94D12C58
:10390000AB01BC0183E190E00C94D12C60E070E04D
:10391000CB010C94801C60E070E0CB010E947A1C0B
:103920000C94861C6DEE7EEF80E090E00E94DD2C12
:1039300060E082E090E00E94BF2C60E083E090E0D5
:103940000E94BF2C1092D8011092D9011092DA0176
:103950001092DB0160E084E090E00E94BF2C60E008
:1039600085E090E00E94BF2C60E086E090E00E943D
:10397000BF2C6FEF87E090E00E94BF2C40E050E04A
:10398000BA0188E090E00E94D12C60E08DE090E0E8
:103990000E94BF2C40E050E0BA0188E190E00E9414
:1039A000D12C60E087E190E00E94BF2C0C948B1C2E
:1039B0000C94921CFC01329680911F01882331F0F7
:1039C0008091590287FF02C09EE101C096E080E02D
:1039D000915028F021912223D9F38F5FF9CF0895D8
:1039E0009C01FC0132969FEF80E04191461789F0DF
:1039F0009F3F19F4411101C0982F8F5F8630A9F7BE
:103A00009F3F39F0F901E90FF11D97FDFA956283A7
:103A1000089508959C012A5F3F4FFC01428146139F
:103A200001C01282019682179307B9F70895262FD5
:103A30002695269526952E3168F4FC01E20FF11D9E
:103A4000677021E030E001C0220F6A95EAF78281B9
:103A5000282B22830895262F2695269526952E31EC
:103A600070F4FC01E20FF11D677021E030E001C04D
:103A7000220F6A95EAF720958281282322830895F0
:103A800020911F01222329F02091590227FD0C9437
:103A9000171D0C94F01C20911F01222329F0209166
:103AA000590227FD0C942B1D0C940A1D20911F0117
:103AB000FC013296222331F08091590287FF02C027
:103AC0008EE101C086E0DF011D928A95E9F7089535
:103AD00008950C94681D0C94681DCF930E946B1D73
:103AE0000E9481080E94691DC0E08C2F0E9413096A
:103AF000811104C0CF5FC830C1F701C081E0CF9110
:103B000008950C94681D0C94811D0E94831D809162
:103B10005F02843049F11092020220E488E190E0D3
:103B20000FB6F894A895809360000FBE20936000B4
:103B300080E00E941D030E94831D83B7817F846003
:103B400083BF83B7816083BF7894889583B78E7F66
:103B500083BF0FB6F894A895809160008861809328
:103B60006000109260000FBE08950C94681D0E94C2
:103B7000C0150E9425100E941D030C94B51D1F92B4
:103B80000F920FB60F9211248F939F93AF93BF9311
:103B900080910202811113C08091550290915602CA
:103BA000A0915702B09158024196A11DB11D80937A
:103BB000550290935602A0935702B0935802BF91BA
:103BC000AF919F918F910F900FBE0F901F901895FE
:103BD00082E084BD93E095BD9AEF97BD80936E001F
:103BE00008952FB7F8948091550290915602A091B4
:103BF0005702B09158022FBF0895CF92DF92EF92F3
:103C0000FF920F931F932FB7F89440915502509154
:103C1000560260915702709158022FBF6A017B01D2
:103C2000EE24FF248C0120E030E0C016D106E2062D
:103C3000F30610F4415051099A01281B390BC901B0
:103C40001F910F91FF90EF90DF90CF90089578949F
:103C50001F920F920FB60F9211248F939F93AF93E1
:103C6000BF938091550290915602A0915702B09156
:103C700058020196A11DB11D8093550290935602E2
:103C8000A0935702B0935802BF91AF919F918F912B
:103C90000F900FBE0F901F90189581E08093E00069
:103CA00080E28093D8001092C9008FE19EE40197D2
:103CB000F1F700C0000087E090EBDC018093680220
:103CC00090936902A0936A02B0936B029CE088E132
:103CD0000FB6F894A895809360000FBE9093600093
:103CE000FFCFCF92DF92EF92FF920F931F93CF936C
:103CF000C0E0E82EF12C8C2F0E94130900E010E0A8
:103D0000C82ED12CC601002E02C0959587950A9425
:103D1000E2F780FD06C00F5F1F4F0730110591F7D6
:103D20000AC0602F7C2F80E00E94B905E816F906D2
:103D300091F781E004C0CF5FC830E9F680E0CF9111
:103D40001F910F91FF90EF90DF90CF900895CF9348
:103D5000C82F8CE20E94711E882321F08C2FCF91F6
:103D60000C94711E80E0CF910895CF930E94541C53
:103D7000811102C00E94D81CC5E6C15049F00E94C2
:103D800081088FE39CE90197F1F700C00000F5CFAF
:103D900089E20E94A71E81110FC18AE20E94A71E1C
:103DA00081110E94D81C85E00E94A71E81110E94EB
:103DB0004D1E0E945F1C8093010287E00E94A71E97
:103DC0008823A9F18BE10E94A71E882351F08091DE
:103DD000010281FB222720F991E0922790FB81F9D3
:103DE0000EC08EE00E94A71E882361F08091010220
:103DF00082FB222720F991E0922790FB82F98093A1
:103E0000010215C080E10E94A71E90910102882343
:103E100041F093FB222720F981E0822780FB93F970
:103E200004C0892F809580FB90F9909301028091C6
:103E300001020E94631C0E94711C90E090935A0240
:103E40008093590280EE0E94A71E882341F0809142
:103E50005902982F909590FB80F98093590289E33D
:103E60000E94A71E882359F08091590281FB2227C6
:103E700020F991E0922790FB81F98093590282EE1C
:103E80000E94A71E882359F08091590282FB2227A5
:103E900020F991E0922790FB82F98093590286EEF7
:103EA0000E94A71E882359F08091590283FB222784
:103EB00020F991E0922790FB83F98093590283EED9
:103EC0000E94A71E882359F08091590284FB222763
:103ED00020F991E0922790FB84F98093590285E3C1
:103EE0000E94A71E882359F08091590285FB222742
:103EF00020F991E0922790FB85F98093590281E3A4
:103F00000E94A71E882359F08091590286FB222720
:103F100020F991E0922790FB86F98093590281E184
:103F20000E94A71E882359F08091590287FB2227FF
:103F300020F991E0922790FB87F9809359028091B4
:103F400059020E94751C87E20E94A71EC82F8EE1AD
:103F50000E94A71E8111C2608FE10E94A71E8111DD
:103F6000C46080E20E94A71E8111C86081E20E94A5
:103F7000A71E8111C06182E20E94A71E8111C0624A
:103F800083E20E94A71E8111C06484E20E94A71EE2
:103F9000882311F0C06802C0CC2329F08C2F0E9426
:103FA0006C1C6C2F03C00E94681C682F70E080E0BE
:103FB00090E0CF910C94CD19CF9108958091050296
:103FC00080FF0BC06091120185E0689FB001112451
:103FD00075956795759567952BC081FF09C06091B0
:103FE000120185E0689FB00111247595679520C086
:103FF00082FF07C06091120185E0689FB001112423
:1040000017C0909106029923D1F060911101961783
:1040100088F72091120185E0289F90011124929F3A
:10402000A001939F500D112470E0CA010E94842CBE
:104030006038710540F46115710519F406C065E03A
:1040400070E0862F08958FE7089581E008958091AC
:10405000050280FF08C06091100170E075956795BA
:104060007595679521C081FF06C06091100170E0D1
:104070007595679519C082FF04C06091100170E0CA
:1040800010C090910602992399F060910F01961744
:10409000A0F780911001899FC001112470E00E9457
:1040A000842C6038710540F46115710519F406C05F
:1040B00061E070E0862F08958FE7089581E008950C
:1040C000803F21F40E94DE1F819504C0813F29F4C6
:1040D0000E94DE1F80930A020895823F21F40E940D
:1040E000DE1F819504C0833F29F40E94DE1F809368
:1040F00009020895893F19F40E94272005C08A3FCC
:1041000031F40E942720819580930B0208958B3F04
:1041100021F40E942720819504C08C3F29F40E943D
:10412000272080930C020895843F21F48091080297
:10413000816017C0853F21F480910802826011C020
:10414000863F21F48091080284600BC0873F21F4F0
:1041500080910802886005C0883F31F48091080290
:1041600080618093080208958D3F21F480910502BB
:1041700081600BC08E3F21F480910502826005C0F2
:104180008F3F29F480910502846080930502089591
:10419000803F39F480910A0287FF6CC010920A02B6
:1041A00069C0813F29F480910A021816BCF362C0ED
:1041B00090910902823F29F497FF5CC01092090296
:1041C00059C0833F19F41916CCF354C0893F41F408
:1041D00080910B0218160CF04DC010920B024AC0D1
:1041E0008A3F29F480910B0287FF44C0F6CF8B3FB2
:1041F00039F480910C0287FF3DC010920C023AC046
:104200008C3F29F480910C021816BCF333C0843F14
:1042100021F4809108028E7F17C0853F21F48091A0
:1042200008028D7F11C0863F21F4809108028B7FA8
:104230000BC0873F21F480910802877F05C0883F2B
:1042400031F4809108028F7E8093080213C08D3F65
:1042500021F4809105028E7F0BC08E3F21F4809166
:1042600005028D7F05C08F3F29F4809105028B7F69
:10427000809305028091090281110EC080910A028B
:1042800081110AC080910B02811106C080910C023D
:10429000811102C010920602089587E092E00E9408
:1042A0004B100E94F11D9093040280930302089525
:1042B0001F93CF93DF9380910302909104020E9499
:1042C000FD1DAC0190910602992321F0209113016C
:1042D00030E006C0209114018AE0289F900111244B
:1042E0004217530708F477C080910902C0910A026F
:1042F000D0910B0210910C02811107C0C11167C04F
:10430000D11165C0111163C066C09F3F19F09F5F56
:1043100090930602181624F40E94DE1F809309026F
:104320008091090287FF05C00E94DE1F819580935E
:1043300009021C1624F40E94DE1F80930A02809159
:104340000A0287FF05C00E94DE1F819580930A0242
:10435000309109023323C1F020910A022223A1F0F7
:1043600045EB3403C0011124892F911101C081E074
:104370008093090235EB2303C0011124892F911189
:1043800001C081E080930A021D1624F40E942720B8
:1043900080930B0280910B0287FF05C00E942720AB
:1043A000819580930B02111624F40E94272080939C
:1043B0000C0280910C0287FF05C00E942720819586
:1043C00080930C02DF91CF911F910C944D219F3F60
:1043D00009F09DCFAECFDF91CF911F910895E7E017
:1043E000F2E086E0DF011D928A95E9F7109206025D
:1043F00010920502089580912D0208950F931F9346
:10440000CF93DF9300D01F92CDB7DEB78C010E940F
:104410006C24823011F0843021F584E089831B8381
:104420000A8382E08093E9008FEF9091E800815049
:1044300095FD06C095ED9A95F1F700008111F5CF35
:104440008091E80085FF0DC040E050E063E070E03F
:10445000CE0101960E9489248091E8008E77809396
:10446000E8000F900F900F90DF91CF911F910F9167
:104470000895CF93DF9300D01F92CDB7DEB7209180
:104480005F02243031F523E02983805891099B8312
:104490008A8382E08093E9008FEF9091E800815059
:1044A00095FD06C095ED9A95F1F700008111F5CFC5
:1044B0008091E80085FF0DC040E050E063E070E0CF
:1044C000CE0101960E9489248091E8008E77809326
:1044D000E8000F900F900F90DF91CF910895CF9348
:1044E000DF93EC010E946C24823011F08430F9F4E7
:1044F00082E08093E9008FEF9091E800815095FD74
:1045000006C095ED9A95F1F700008111F5CF8091E5
:10451000E80085FF0CC040E050E066E070E0CE01AE
:104520000E9489248091E8008E778093E800DF91D3
:10453000CF910895CF93DF93EC010E946C248230D9
:1045400011F08430D9F580911F01882339F08091D2
:10455000590287FF03C060E282E002C068E081E0A8
:104560008093E9008FEF9091E800815095FD06C09F
:1045700095ED9A95F1F700008111F5CF8091E80053
:1045800085FF1CC080911F01811105C040E050E0F3
:1045900068E070E003C070E040E050E0CE010E94AF
:1045A00089248091E8008E778093E80080E2FE0104
:1045B000ADE0B2E001900D928A95E1F7DF91CF91E5
:1045C000089580915E02811109C00E941A260E94FE
:1045D00077268091E20084608093E2000895109233
:1045E0005E020895089508950C94B71D42E061ECB1
:1045F00081E00E94932542E261EC82E00C949325D5
:1046000080916102833009F460C030F4813071F030
:10461000823009F499C008958A3009F485C08B303E
:1046200009F46BC0893009F0A7C020C080916002F6
:10463000813A09F0A1C08091E800877F8093E8006B
:104640008091640290916502892B21F460E28DE0F3
:1046500092E003C060E080E090E070E00E94D4242B
:104660008091E8008B778093E80008958091600244
:10467000813209F081C080916402909165020297B5
:1046800008F07AC08091E800877F8093E8008091ED
:10469000E80082FD05C080915F028111F8CF6CC0F7
:1046A0002091F3008091F20090E0922B029729F480
:1046B0008091F1008B7F813021F48091F100809313
:1046C0002D028091E8008B7753C080916002813A7F
:1046D00009F052C08091640290916502892B09F023
:1046E0004BC08091E800877F8093E8008091E800CC
:1046F00080FFFCCF80911F0136C080916002813223
:10470000D9F58091640290916502892BA9F5809179
:10471000E800877F8093E8000E94C82580916202AC
:1047200080931F010C94C01580916002813221F5A5
:104730008091E800877F8093E8000E94C8258091DF
:10474000630280932E02089580916002813AA1F461
:104750008091E800877F8093E8008091E80080FFE7
:10476000FCCF80912E028093F1008091E8008E773B
:104770008093E8000C94C825089584B7877F84BF90
:104780000FB6F894A89580916000886180936000CE
:10479000109260000FBE80E880936100109261006B
:1047A0000E9495100E941A260E9477268091E200AE
:1047B00084608093E20078940E940C290E949D10EE
:1047C00085E191E00E94201080915F02853069F4BC
:1047D0000E94851D80915D028823B1F30E946D1DAA
:1047E000882391F30E947324EFCF0E94A7100E94A8
:1047F000AB0FEACF0C94FC23292F3327233031054C
:10480000C9F060F42130310581F02230310509F022
:104810004AC08BE390E024E334E049C02132310503
:1048200011F12232310579F13EC082E190E02FE6AC
:1048300034E03DC099278130910561F040F082302D
:10484000910559F0039779F5ECEFF3E008C0E0E348
:10485000F4E005C0E8E1F4E002C0E2E0F4E08491B5
:1048600090E09F0124C06115710541F06130710530
:10487000D1F489E090E02FE534E019C089E090E0C0
:1048800026E434E014C06115710541F06130710512
:1048900051F480EC90E021E834E009C080E490E03D
:1048A00021E435E004C080E090E020E030E0FA014F
:1048B0003183208308950895CF93C82F0E945B24ED
:1048C000C0932F02CF91089580915F02843011F040
:1048D00081E0089582E0089580912F02811102C045
:1048E0000C946424089580E189BD82E189BD09B4F6
:1048F00000FEFDCF8091D8008F7D8093D8008091FD
:10490000E00082608093E0008091E00081FDFCCFB8
:104910000895CF92DF92EF92FF920F931F93CF9360
:10492000DF93EC018B017A010E94E725811133C0EE
:10493000E114F10439F0F70180819181081B190B12
:10494000C80FD91FC12CD12C0115110519F1809167
:10495000E80085FD16C08091E8008E778093E8001E
:10496000E114F10449F0F70180819181C80ED91E4C
:10497000D182C08285E00FC00E94E725882321F301
:104980000AC089918093F10001501109FFEFCF1AFD
:10499000DF0ADACF80E0DF91CF911F910F91FF9076
:1049A000EF90DF90CF9008952091660230916702DA
:1049B0002617370748F06115710539F42091E80092
:1049C0002E772093E80001C0B901FC0120E06115B9
:1049D000710579F180915F028823F1F18530F1F161
:1049E0008091E80083FD3CC08091E80082FD2EC0EC
:1049F0008091E80080FFEBCF2091F3008091F200DE
:104A000090E0922B6115710551F08830910538F4D2
:104A100021912093F100615071090196F3CF21E0BB
:104A2000089709F020E08091E8008E778093E800F5
:104A3000CECF2111CFCF0AC080915F02882361F0D1
:104A4000853061F08091E80083FD0AC08091E80024
:104A500082FFF2CF80E0089582E0089583E0089518
:104A600081E008952091660230916702261737078A
:104A700048F06115710539F42091E8002E772093F4
:104A8000E80001C0B901FC0120E06115710591F158
:104A900080915F02882309F440C0853009F43FC04B
:104AA0008091E80083FD3DC08091E80082FD2FC029
:104AB0008091E80080FFE9CF2091F3008091F2001F
:104AC00090E0922B6115710559F08830910540F402
:104AD00024912093F1003196615071090196F2CF33
:104AE00021E0089709F020E08091E8008E7780931C
:104AF000E800CBCF2111CCCF0AC080915F02882380
:104B000061F0853061F08091E80083FD0AC08091FA
:104B1000E80082FFF2CF80E0089582E0089583E00C
:104B2000089581E00895982F973068F59093E900F3
:104B3000981739F07091EC002091ED005091F00041
:104B400003C0242F762F50E021FD02C09F5FECCFE1
:104B50003091EB003E7F3093EB003091ED003D7FD4
:104B60003093ED003091EB0031603093EB007093A7
:104B7000EC002093ED005093F0002091EE0027FD13
:104B8000E5CF80E008958F708093E90081E008957B
:104B90008091600287FF11C08091E80082FD05C00E
:104BA00080915F028111F8CF11C08091E8008B776E
:104BB0000BC080915F02882349F08091E80080FF5C
:104BC000F8CF8091E8008E778093E80008952091D7
:104BD000E4003091E50095E64091EC00842F81706F
:104BE00040FF23C08091E80080FD1DC080915F02DE
:104BF000882399F0853099F08091EB0085FD11C0F4
:104C00004091E4005091E5002417350729F39150B5
:104C100011F09A01E1CF84E0089582E0089583E0E5
:104C2000089581E0089580E008954091E80042FFF2
:104C3000DDCF08950E9488260E949026E0EEF0E0E5
:104C4000808181608083E8EDF0E080818F778083D0
:104C500019BCA7EDB0E08C918E7F8C9380818F7E04
:104C6000808310925E0208950F931F93CF93DF937A
:104C70000E9488260E949026C8EDD0E088818F7718
:104C8000888388818068888388818F7D888319BC28
:104C900010925F0210925B0210925D0210925C0211
:104CA00000EE10E0F80180818B7F80838881816035
:104CB000888342E060E080E00E949325E1EEF0E02E
:104CC00080818E7F8083E2EEF0E08081816080834E
:104CD000808188608083F80180818E7F80838881D5
:104CE00080618883DF91CF911F910F910895E8ED46
:104CF000F0E080818F7E8083E7EDF0E0808181604D
:104D0000808384E082BF81E080935E020C9434262D
:104D1000E8EDF0E080818E7F80831092E2000895BC
:104D20001092DA001092E10008951F920F920FB6D0
:104D30000F9211242F933F934F935F936F937F9321
:104D40008F939F93AF93BF93EF93FF938091E10075
:104D500082FF0BC08091E20082FF07C08091E100DA
:104D60008B7F8093E1000E940B298091DA0080FF05
:104D70001FC08091D80080FF1BC08091DA008E7F19
:104D80008093DA008091D90080FF0DC080E189BD59
:104D900082E189BD09B400FEFDCF81E080935F020E
:104DA0000E94E12205C019BC10925F020E94EF220E
:104DB0008091E10080FF19C08091E20080FF15C062
:104DC0008091E2008E7F8093E2008091E20080611A
:104DD0008093E2008091D80080628093D80019BC53
:104DE00085E080935F020E94F3228091E10084FFBE
:104DF00030C08091E20084FF2CC080E189BD82E157
:104E000089BD09B400FEFDCF8091D8008F7D8093CD
:104E1000D8008091E1008F7E8093E1008091E200D4
:104E20008F7E8093E2008091E20081608093E200B7
:104E300080915B02882311F084E007C08091E30039
:104E400087FD02C081E001C083E080935F020E9481
:104E5000F4228091E10083FF29C08091E20083FF6A
:104E600025C08091E100877F8093E10082E08093FC
:104E70005F0210925B028091E1008E7F8093E100DF
:104E80008091E2008E7F8093E2008091E200806159
:104E90008093E20042E060E080E00E9493258091F0
:104EA000F00088608093F0000E94F222FF91EF9161
:104EB000BF91AF919F918F917F916F915F914F9132
:104EC0003F912F910F900FBE0F901F9018951F923A
:104ED0000F920FB60F9211242F933F934F935F932E
:104EE0006F937F938F939F93AF93BF93CF93DF93F2
:104EF000EF93FF93C091E900CF708091EC00D82F21
:104F0000D17080FDD0E81092E9008091F000877F99
:104F10008093F00078940E94AB271092E900809172
:104F2000F00088608093F000CD2BCF70C093E90033
:104F3000FF91EF91DF91CF91BF91AF919F918F91B1
:104F40007F916F915F914F913F912F910F900FBE85
:104F50000F901F9018951F93CF93DF93CDB7DEB7B7
:104F6000AA970FB6F894DEBF0FBECDBFE0E6F2E021
:104F70008091F100819322E0E836F207C9F70E94A0
:104F800000238091E80083FF2EC180916002909100
:104F90006102492F50E04A30510508F024C1FA015E
:104FA000E556FF4F0C94982C803821F0823809F098
:104FB0001AC108C080915C0290915D02992389F02A
:104FC00082600FC0809164028F70873008F00BC13F
:104FD0008093E9008091EB0085FB882780F910928F
:104FE000E9009091E800977F9093E8008093F100AA
:104FF0001092F100D1C0282F2D7F09F0F4C0882332
:1050000019F0823061F0EFC080916202813009F0C6
:10501000EAC0933009F080E080935D022EC0809159
:10502000620281112AC0809164028F702FEF280FD5
:10503000263008F0D8C08093E9002091EB0020FFD3
:105040001CC0933021F48091EB00806214C09091D9
:10505000EB0090619093EB0021E030E0A90102C0E9
:10506000440F551F8A95E2F74093EA001092EA0038
:105070008091EB0088608093EB001092E9008091B2
:10508000E800877F8093E8000E94C825ACC08111AA
:10509000AAC0109162021F778091E3008078812B73
:1050A0008093E3008091E800877F8093E8000E946E
:1050B000C8258091E80080FFFCCF8091E3008068E4
:1050C0008093E300111102C082E001C083E080936D
:1050D0005F0289C08058823008F085C080916202EA
:1050E000909163028C3D53E0950779F583E08A83C4
:1050F0008AE289834FB7F894DE01139620E03EE000
:1051000051E2E32FF0E050935700E49120FF03C0F9
:10511000E295EF703F5FEF708E2F90E0EA3010F075
:10512000C79601C0C0968D939D932F5F243149F798
:105130004FBF8091E800877F8093E8006AE270E0CB
:10514000CE0101960E94D42416C060916402709131
:105150006502AE014F5F5F4F0E94FA23BC01892BAD
:1051600009F441C09091E800977F9093E80089810D
:105170009A810E9432258091E8008B778093E80025
:1051800032C0803881F58091E800877F8093E80005
:1051900080915B028093F1008091E8008E7772CF5E
:1051A000811121C080916202909163029927029738
:1051B000D4F48091E800877F8093E80080916202B8
:1051C00080935B020E94C82580915B02811106C01A
:1051D0008091E30087FD02C081E001C084E08093FC
:1051E0005F020E94F6228091E80083FF0AC080914E
:1051F000E800877F8093E8008091EB0080628093D5
:10520000EB00AA960FB6F894DEBF0FBECDBFDF91BC
:10521000CF911F9108950895CF9380915F028823C5
:10522000A1F0C091E900CF709091EC00892F8170BE
:1052300090FD80E8C82B1092E9008091E80083FD82
:105240000E94AB27CF70C093E900CF9108955058CA
:10525000BB27AA270E943F290C94EA2A0E94DC2A35
:1052600038F00E94E32A20F039F49F3F19F426F425
:105270000C94B22A0EF4E095E7FB0C94AC2AE92FCB
:105280000E94FB2A58F3BA17620773078407950731
:1052900020F079F4A6F50C941D2B0EF4E0950B2E5E
:1052A000BA2FA02D0B01B90190010C01CA01A00178
:1052B0001124FF27591B99F0593F50F4503E68F1D3
:1052C0001A16F040A22F232F342F4427585FF3CF14
:1052D000469537952795A795F0405395C9F77EF4E5
:1052E0001F16BA0B620B730B840BBAF09150A1F02E
:1052F000FF0FBB1F661F771F881FC2F70EC0BA0FB4
:10530000621F731F841F48F4879577956795B7953B
:10531000F7959E3F08F0B0CF9395880F08F0992736
:10532000EE0F9795879508950E94A8290C94EA2A74
:105330000E94E32A58F00E94DC2A40F029F45F3FE3
:1053400029F00C94AC2A51110C941E2B0C94B22A07
:105350000E94FB2A68F39923B1F3552391F3951B1F
:10536000550BBB27AA2762177307840738F09F5F86
:105370005F4F220F331F441FAA1FA9F335D00E2EF3
:105380003AF0E0E832D091505040E695001CCAF760
:105390002BD0FE2F29D0660F771F881FBB1F261723
:1053A00037074807AB07B0E809F0BB0B802DBF01FA
:1053B000FF2793585F4F3AF09E3F510578F00C94C9
:1053C000AC2A0C941E2B5F3FE4F3983ED4F38695F1
:1053D00077956795B795F7959F5FC9F7880F911DEA
:1053E0009695879597F90895E1E0660F771F881FD6
:1053F000BB1F621773078407BA0720F0621B730B89
:10540000840BBA0BEE1F88F7E095089529F416F087
:105410000C94AC2A0C941D2B0C94B22A0E94032BE2
:10542000A8F39638A0F707F80F92E8942BE33AEA2E
:1054300048EB5FE70E94B02B0F920F920F924DB78F
:105440005EB70F920E94662BEAE4F1E00E94B52A53
:105450004F915F91EF91FF91E595EE1FFF1F49F08E
:10546000FE57E0684427EE0F441FFA95E1F7419597
:10547000550B0E94302B0F9007FE0C94242B08959F
:105480000E94032B88F09F5798F0B92F9927B751A6
:10549000B0F0E1F0660F771F881F991F1AF0BA95D8
:1054A000C9F714C0B13091F00E941D2BB1E00895EE
:1054B0000C941D2B672F782F8827B85F39F0B93FE0
:1054C000CCF3869577956795B395D9F73EF490958B
:1054D0008095709561957F4F8F4F9F4F0895E89409
:1054E00009C097FB3EF490958095709561957F4F2C
:1054F0008F4F9F4F9923A9F0F92F96E9BB279395DA
:10550000F695879577956795B795F111F8CFFAF4E9
:10551000BB0F11F460FF1BC06F5F7F4F8F4F9F4F1A
:1055200016C0882311F096E911C0772321F09EE878
:10553000872F762F05C0662371F096E8862F70E0DE
:1055400060E02AF09A95660F771F881FDAF7880FB8
:105550009695879597F9089597F99F6780E870E089
:1055600060E008959FEF80EC0895DF93CF931F9341
:105570000F93FF92EF92DF927B018C01689406C03B
:10558000DA2EEF010E94AD2BFE01E894A591259142
:10559000359145915591A6F3EF010E943F29FE01F7
:1055A0009701A801DA9469F7DF90EF90FF900F91CF
:1055B0001F91CF91DF91089500240A9416161706C3
:1055C00018060906089500240A94121613061406F4
:1055D00005060895092E0394000C11F4882352F057
:1055E000BB0F40F4BF2B11F460FF04C06F5F7F4F0F
:1055F0008F4F9F4F089557FD9058440F551F59F0F6
:105600005F3F71F04795880F97FB991F61F09F3FAF
:1056100079F087950895121613061406551FF2CFD8
:105620004695F1DF08C0161617061806991FF1CF28
:1056300086957105610508940895E894BB2766274F
:105640007727CB0197F908959B01AC0160E070E0EA
:1056500080E89FE30C9494290C94AC2A0C940F2CB2
:105660000E94032BD8F39923C9F3940F511DA3F380
:105670009150504094F059F0882332F0660F771F14
:10568000881F91505040C1F79E3F51052CF7880F5D
:10569000911D9695879597F908955F3FACF0983ED8
:1056A0009CF0BB27869577956795B79508F4B16010
:1056B0009395C1F7BB0F58F711F460FFE8CF6F5F08
:1056C0007F4F8F4F9F4FE3CF0C941E2BFA01DC01CD
:1056D000AA0FBB1F9B01AC01BF5728F42227332719
:1056E0004427507820C0B75190F4AB2F0024469542
:1056F00037952795011CA395D2F3002071F0220F56
:10570000331F441FB395DAF30ED00C942729613070
:105710007105A0E88A07B94630F49B01AC01662701
:10572000772788279078309621F020833183428331
:10573000538308950E94AD2B0C94EA2A0E94DC2A20
:1057400038F00E94E32A20F0952311F00C94AC2A43
:105750000C94B22A11240C941E2B0E94FB2A70F385
:10576000959FC1F3950F50E0551F629FF001729F06
:10577000BB27F00DB11D639FAA27F00DB11DAA1F15
:10578000649F6627B00DA11D661F829F2227B00D62
:10579000A11D621F739FB00DA11D621F839FA00DED
:1057A000611D221F749F3327A00D611D231F849F3D
:1057B000600D211D822F762F6A2F11249F57504094
:1057C0009AF0F1F088234AF0EE0FFF1FBB1F661F0F
:1057D000771F881F91505040A9F79E3F510580F0D8
:1057E0000C94AC2A0C941E2B5F3FE4F3983ED4F348
:1057F000869577956795B795F795E7959F5FC1F77C
:10580000FE2B880F911D9695879597F908959F9384
:105810000E941F2C0F9007FCEE5F0C94482C9F3FBA
:1058200031F0915020F4879577956795B795880F5B
:10583000911D9695879597F908950C94B22A0E9428
:10584000032BD8F3E894E0E0BB279F57F0F02AED54
:105850003FE049EC06C0EE0FBB0F661F771F881FA5
:1058600028F0B23A62077307840728F0B25A620B35
:10587000730B840BE3959A9572F7803830F49A9500
:10588000BB0F661F771F881FD2F790480C94112C0E
:10589000EF93E0FF07C0A2EA2AED3FE049EC5FEB9F
:1058A0000E943F290E94EA2A0F90039401FC90581D
:1058B000E2E7F1E00C945C2C9F938F937F936F93BE
:1058C000FF93EF939B01AC010E949A2BEF91FF9104
:1058D0000E94B52A2F913F914F915F910C949A2B82
:1058E000AA1BBB1B51E107C0AA1FBB1FA617B70706
:1058F00010F0A61BB70B881F991F5A95A9F7809522
:105900009095BC01CD01089597FB072E16F40094E5
:1059100007D077FD09D00E94702C07FC05D03EF41B
:10592000909581959F4F0895709561957F4F08954B
:10593000EE0FFF1F0590F491E02D0994FC014150FA
:10594000504030F001900616D1F73197CF010895FD
:10595000882799270895F999FECF92BD81BDF89ABD
:10596000992780B50895A6E1B0E044E050E00C949A
:10597000E52CA8E1B0E042E050E00C94E52C262FA5
:10598000F999FECF92BD81BDF89A019700B4021635
:1059900039F01FBA20BD0FB6F894FA9AF99A0FBEE3
:1059A00008950396272F0E94C02C0E94BF2C252FFC
:1059B0000E94C02C242F0C94C02C0196272F0E94EB
:1059C000C02C0C94BF2CDC01CB01FC01F999FECF5B
:1059D00006C0F2BDE1BDF89A319600B40D92415077
:0A59E0005040B8F70895F894FFCF87
:1059EA00010201191A1B1C1D1E1F202122DE01287B
:1059FA0008140A321EFB219A226F223922FE210143
:105A0A009190946697C634923536323331F7F60060
:00000001FF
