:100000000C94D1060C9418070C9418070C9418073C
:100010000C9418070C9418070C9418070C941807E4
:100020000C9418070C9418070C94A22B0C94742CA5
:100030000C94D21D0C9418070C9418070C941807F4
:100040000C9418070C9418070C9418070C941807B4
:100050000C9418070C94461E0C9418070C9418075F
:100060000C9418070C9418070C9418070C94180794
:100070000C9418070C9418070C9418070C94180784
:100080000C9418070C9418070C9418070C94180774
:100090000C9418070C9418070C9418070C94180764
:1000A0000C9418070C9418070C9418073B093D0989
:1000B00048093F0941094309450947094A094C09CB
:1000C0004E095909500952095409560958095B0942
:1000D0003C133C136E136E13AC13CA13301530155A
:1000E0000C143015AF14AF14201530153015291528
:1000F000BC14BC14BC14BC14BC14BC14BC14BC1480
:10010000BC14BC14BC14BC14BC14BC14BC14BC146F
:10011000CD14DB14E214E914F314C115C115D31581
:10012000D315CA15D315D315D315C115C115CF15C0
:10013000D315D315CF15E12C082D002E082D002E38
:10014000542D772D002ECE2DDD2D29001E001F00F1
:100150002000210022002300240025002600270083
:100160002D002E0035002A002B0014001A00080074
:10017000150017001C0018000C00120013002F00BF
:10018000300031004600E0000400160007000900BE
:100190000A000B000D000E000F0033003400280091
:1001A0000000490000571D001B0006001900050053
:1001B00011001000360037003800E5000000520042
:1001C0004C00E000E300E20000002C00015102516D
:1001D0002A000000E600E4000000500051004F003B
:1001E00035003A003B003C003D003E003F0040002F
:1001F00041004200430044004500010001000100AD
:1002000001000100010001000100010001000100E6
:100210000100010001000100010048000100C35C71
:10022000C55CC75CC95C0100010001000100010060
:10023000010001000100000001000100C25CC65C79
:10024000C85CCA5C0100010001000100010001005E
:10025000010000004B00010001000100010000004E
:100260000100010001000100000001000100000088
:100270004A004E004D000100010001000100010094
:100280000100010001000100010001000100010066
:100290000100010001000100010001000100010056
:1002A0000100010001000100010001000100010046
:1002B000005C0100010001000100010001000100DB
:1002C00001000100010001000100AE00000001007A
:1002D0000100010001000100010001000100010016
:1002E00001000100010001000000A900010001005F
:1002F00001000100000001000100010001000000F8
:10030000010001000000AC00AA00AB0044454255CA
:10031000473A20656E61626C65642E0A000A00250A
:1003200030313662003A200025303258000A722FF0
:100330006320303132333435363738394142434423
:1003400045460A000A002530325820006B65796264
:100350006F6172645F7265706F72743A20000A0098
:1003600025303258006B6579626F6172645F736526
:10037000745F6C65643A2000290A002575002F001F
:100380002575005D280025640020002564002000FC
:1003900025640020002564007C0025303258006D63
:1003A0006F7573656B6579205B62746E7C782079FC
:1003B000207620685D287265702F61636C293A2071
:1003C0005B006D6B5F776865656C5F74696D655F19
:1003D000746F5F6D6178203D2025640A006D6B5F4E
:1003E000776865656C5F6D61785F737065656420C3
:1003F0003D2025640A006D6B5F74696D655F746FE5
:100400005F6D6178203D2025640A006D6B5F6D6132
:10041000785F7370656564203D2025640A006D6B0C
:100420005F696E74657276616C203D2025640A00F8
:100430006D6B5F64656C6179203D2025640A006DF9
:100440006B5F776865656C5F74696D655F746F5F1E
:100450006D6178203D2025640A006D6B5F776865CB
:10046000656C5F6D61785F7370656564203D202504
:10047000640A006D6B5F74696D655F746F5F6D61B9
:1004800078203D2025640A006D6B5F6D61785F7395
:1004900070656564203D2025640A006D6B5F696EA0
:1004A00074657276616C203D2025640A006D6B5F77
:1004B00064656C6179203D2025640A000A00257579
:1004C00000363A20776865656C5F74696D655F74A6
:1004D0006F5F6D61783A20000A00257500353A207B
:1004E000776865656C5F6D61785F73706565643AA8
:1004F00020000A00257500343A2074696D655F7428
:100500006F5F6D61783A20000A00257500333A204C
:100510006D61785F73706565643A20000A00257527
:1005200000323A20696E74657276616C286D7329A9
:100530003A20000A00257500313A2064656C617923
:10054000282A31306D73293A20000A092D2056617E
:100550006C756573202D0A004D3E004D25643E20CC
:10056000003F007365742064656661756C740A00F1
:10057000433E200077686572652064656C74613A5B
:1005800020637572736F723D25642C2077686565F2
:100590006C3D25640A53656520687474703A2F2F8A
:1005A000656E2E77696B6970656469612E6F72671D
:1005B0002F77696B692F4D6F7573655F6B65797305
:1005C0000A000A092D204D6F7573656B6579202D22
:1005D0000A4553432F713A09717569740A313A0912
:1005E00064656C6179282A31306D73290A323A09C1
:1005F000696E74657276616C286D73290A333A09E5
:100600006D61785F73706565640A343A0974696D69
:10061000655F746F5F6D61780A353A097768656563
:100620006C5F6D61785F73706565640A363A09774F
:100630006865656C5F74696D655F746F5F6D617827
:100640000A0A703A097072696E742076616C756579
:10065000730A643A097365742064656661756C7425
:10066000730A75703A092B310A646F776E3A092D57
:10067000310A706775703A092B31300A7067646F00
:10068000776E3A092D31300A0A7370656564203D32
:100690002064656C7461202A206D61785F737065D9
:1006A0006564202A2028726570656174202F20748B
:1006B000696D655F746F5F6D6178290A003F004D59
:1006C0003E2000433E20004C25640A0074696D659D
:1006D000725F72656164333228293A202530346CA8
:1006E000580A006B6579626F6172645F69646C655A
:1006F0003A2025580A006B6579626F6172645F70F9
:10070000726F746F636F6C3A2025580A00686F73BC
:10071000745F6B6579626F6172645F6C6564732886
:10072000293A2025580A000A092D2053746174754E
:1007300073202D0A004743433A20352E342E3020B3
:100740004156522D4C4942433A20322E302E302011
:100750004156525F415243483A20617672350A0051
:100760004F5054494F4E533A204C554641204D4F1F
:100770005553454B45592045585452414B455920F6
:10078000434F4E534F4C4520434F4D4D414E442017
:10079000343039360A004255494C443A2022302E32
:1007A000362E3330382D332D673964393135652D88
:1007B000646972747922202831383A33303A323001
:1007C000204175672032332032303139290A0056F2
:1007D00049443A2030784645454428576F726C6446
:1007E000737061776E29205049443A203078303058
:1007F000303028476F746869633730292056455276
:100800003A203078303030310A00444553433A20A2
:10081000457870616E646564204572676F204B6532
:1008200079626F6172640A000A092D20566572733D
:10083000696F6E202D0A000A092D20436F6E736FB9
:100840006C65202D0A4553432F713A0971756974FF
:100850000A6D3A096D6F7573656B65790A000A094F
:100860002D204D61676963202D0A443A0944656271
:100870007567204D65737361676520546F67676C9A
:10088000650A583A094D6174726978204465627549
:1008900067204D6F646520546F67676C65202D205D
:1008A00053686F77206B6579707265737365732019
:1008B000696E206D617472697820677269640A4B91
:1008C0003A094B6579626F617264204465627567AD
:1008D00020546F67676C65202D2053686F77206BFD
:1008E00065797072657373207265706F72740A4DEA
:1008F0003A094465627567204D6F75736520546FC2
:1009000067676C650A563A0956657273696F6E0AB5
:10091000533A095374617475730A433A0941637415
:10092000697661746520436F6E736F6C65204D6FDF
:1009300064650A46312D4631303A0953776974634C
:100940006820746F204C6179657220302D39202821
:10095000463130203D204C30290A302D393A095398
:10096000776974636820746F204C617965722030F8
:100970002D390A47524156453A09537769746368DD
:1009800020746F204C6179657220302028616C746E
:1009900065726E617465290A423A094A756D702064
:1009A000746F20426F6F746C6F616465720A455397
:1009B000433A094A756D7020746F20426F6F746CF2
:1009C0006F616465722028616C7465726E61746514
:1009D000290A453A095072696E7420454550524FB4
:1009E0004D2053657474696E67730A4253504143D6
:1009F000453A09436C65617220454550524F4D0A96
:100A0000000A002575002E6E6B726F3A20000A00F6
:100A10002575002E737761705F6261636B736C6123
:100A200073685F6261636B73706163653A20000A8B
:100A3000002575002E737761705F67726176655F60
:100A40006573633A20000A002575002E6E6F5F679C
:100A500075693A20000A002575002E737761705F72
:100A600072616C745F726775693A20000A002575BF
:100A7000002E737761705F6C616C745F6C67756971
:100A80003A20000A002575002E636170736C6F6355
:100A90006B5F746F5F636F6E74726F6C3A20000AE5
:100AA000002575002E737761705F636F6E74726FCF
:100AB0006C5F636170736C6F636B3A20000A002592
:100AC000303258006B65796D61705F636F6E666977
:100AD000672E7261773A20000A002575002E6D6F2F
:100AE0007573653A20000A002575002E6B657962E2
:100AF0006F6172643A20000A002575002E6D6174E2
:100B00007269783A20000A002575002E656E6162D0
:100B10006C653A20000A0025303258006465627521
:100B2000675F636F6E6669672E7261773A20000AAD
:100B30000025750064656661756C745F6C6179652C
:100B4000723A20003F000A6D6F7573653A206F6638
:100B5000660A000A6D6F7573653A206F6E0A000AA7
:100B60006B6579626F6172643A206F66660A000A8B
:100B70006B6579626F6172643A206F6E0A000A6D6C
:100B800061747269783A206F66660A000A6D617452
:100B90007269783A206F6E0A000A64656275673A76
:100BA000206F66660A000A64656275673A206F6E98
:100BB0000A000A0A4A756D70696E6720746F2062B8
:100BC0006F6F746C6F616465722E2E2E2000433E31
:100BD0002000436C656172696E6720454550524F35
:100BE0004D0A006565636F6E6669673A0A005B735C
:100BF0005D004B6579626F61726420737461727419
:100C00002E0A005B575D005B535D005B525D005B2D
:100C1000445D005B435D00040330000000120347A5
:100C2000006F007400680069006300370030000046
:100C300000160357006F0072006C006400730070B0
:100C400000610077006E0000000403090409025BE4
:100C500000030100A0FA09040000010301010009DA
:100C600021110100012240000705810308000A0943
:100C70000401000103000000092111010001228587
:100C8000000705820320000A090402000203000095
:100C90000009211101000122220007058303200021
:100CA00001070503032000011201100100000008E4
:100CB000EDFE00000100010203010631FF0974A1ED
:100CC000010975150026FF00952075088102097637
:100CD000150026FF00952075089102C00501090244
:100CE000A10185020901A1000509190129051500C5
:100CF00025019505750181029501750381010501A5
:100D0000093009311581257F95027508810609385A
:100D10001581257F950175088106050C0A38021595
:100D200081257F950175088106C0C005010980A154
:100D30000185031601002603001A81002A8300752D
:100D40001095018100C0050C0901A101850416015F
:100D500000269C021A01002A9C0275109501810050
:100D6000C005010906A101050719E029E7150025BD
:100D70000195087501810295017508810105081921
:100D800001290595057501910295017503910105EC
:100D900007190029FF150026FF0095067508810038
:100DA000C00011241FBECFEFDAE0DEBFCDBF04B616
:100DB00003FE27C08091400290914102A09142021F
:100DC000B09143028730904BA740B04BD1F41092C2
:100DD000400210924102109242021092430214BE4D
:100DE00084B7877F84BF0FB6F894A8958091600080
:100DF000886180936000109260000FBEE0E0F8E32D
:100E0000099511E0A0E0B1E0E2E6FDE502C0059041
:100E10000D92AC35B107D9F722E0ACE5B1E001C0E5
:100E20001D92A034B207E1F70E94C3280C94AF2EA4
:100E30000C940000FF93EF93E0915C01F0915D0151
:100E4000309709F00995EF91FF910895FC01859184
:100E5000803011F0EFDFFBCF0895FF27E0E230E2B2
:100E600047FF0CC0419597FF09C0EDE26095709572
:100E700080959095611D711D811D911D27FF02C0F8
:100E8000219530E350E2AA27660F771F881F991F2C
:100E9000AA1FA41710F0A41B63955A95A9F7AA30AE
:100EA00008F0A95FA05DAF93F39561157105810509
:100EB000910541F7ED3211F4EF93F395F21718F421
:100EC0003F93F395FBCF8F91B5DFFA95E1F7089546
:100ED000E991F9918591803021F0853219F0AADFEE
:100EE000F9CF089520E0E89455915532C1F350337D
:100EF00011F4689455915A3348F4505390F3220FEB
:100F0000022E220F220F200D250FF4CF0EF4219573
:100F100089919991533619F3533729F1533559F182
:100F2000BC0188279927E8945C3621F4899199912E
:100F300068945591543639F446EF7EF077FF0DC032
:100F40008FEF9FEF0AC055374AE039F0583540E13E
:100F500021F0523642E009F00895FF93EF937DDFD0
:100F6000EF91FF91B7CFFF93EF93FC018191803018
:100F7000B9F360DFFBCFFF93EF9368DFF1CFDF932F
:100F8000CF93CDB7DEB72596A3DFCF91DF9108953C
:100F9000879A869A859A0C94980CCF92DF92EF925A
:100FA000FF926B017C010E944B1C813011F48D9AE1
:100FB00001C08D98C701B601FF90EF90DF90CF90F0
:100FC00008950C94970C0C9466080C9474080F9375
:100FD0001F93CF93DF939C013A9521153F4148F52C
:100FE000EB018C0190FF03C080EEFB01099511FF1E
:100FF00003C081EEFE01099512FF03C082EEFE01DF
:10100000099513FF03C083EEFE01099501151041F8
:1010100080F084EEFE01099585EEFE01099586EECD
:10102000FE01099587EEFE01DF91CF911F910F918F
:101030000994DF91CF911F910F910895877091E0EE
:1010400001C0990F8A95EAF7892F0E94A81B0C947A
:10105000E31B0C941E08877091E001C0990F8A95DC
:10106000EAF7892F0E94AE1B0C94E31B0C942B080B
:10107000CF93DF93EC01805E9109089710F02097E1
:1010800019F46EE178E002C069E278E0CE010E94D6
:10109000E7078C2FDF91CF910C946711CF93DF93EB
:1010A000EC010E949112CE01805E9109089710F028
:1010B000209719F46BE278E002C066E378E0CE0195
:1010C000DF91CF910C94E70781E0089581E00895C6
:1010D0000E94C01C811102C00E943A1D0C94C807D6
:1010E0000E94470F0C94E10708950C94E5070895BA
:1010F0000E94AF150E9477082FEF84E39CE02150F7
:1011000080409040E1F700C000000C946C1EFF92FC
:101110000F931F93CF93DF938C01FC01C081D1818A
:1011200080918F01811113C08281882349F0CE0103
:101130000E94111BF82E682FCE010E94BA1A04C01B
:10114000CE010E94E51AF82EBE018F2D04C0CE01FB
:101150000E94111BBE010E94210AEC01B8010E94ED
:10116000A40EB801CE010E94E307882309F45EC1F2
:10117000B801CE010E94EB0E882309F457C1C73D88
:10118000FCE5DF0719F5F8018281882351F0109200
:1011900063010E94041E9093600180935F0182E0CE
:1011A00032C08091630181110FC080915F019091E5
:1011B00060010E941C1E883C910530F486E20E946A
:1011C000671186E20E94911282E026C0C83D8CE53C
:1011D000D80728F1CC3D8CE5D80709F4D9C008F030
:1011E000DEC0C83DFCE5DF0709F0F7C0F8018281E9
:1011F000882361F0109264010E94041E90936201A2
:101200008093610180E20E94F91210C18091640113
:10121000882309F4D1C080E20E94001307C1C531C0
:10122000ECE5DE0708F082C0C230FCE5DF0708F419
:1012300052C0F8018281882309F459C00E94C01C61
:10124000811102C00E943A1D0E94D31C90E090932D
:10125000320280933102FE01E350FC45E231F10598
:1012600030F4EA5AFF4F809131020C94532E809152
:101270003102816027C0826025C0846023C0806104
:1012800021C080621FC080641DC080681BC0846054
:10129000886018C08E7F16C08D7F14C08B7F12C0EF
:1012A0008F7E10C08F7D0EC08F7B0CC08F770AC0E1
:1012B0008B7F877F07C087FB222720F991E0922749
:1012C00090FB87F980933102809131020E94D71CF4
:1012D0000E94AF15ABC0C1158CE5D80781F0C130B5
:1012E000DC45A9F081E08093630180936401C8012B
:1012F000DF91CF911F910F91FF900C946408F8013A
:101300008281882309F492C00E9478088FC0F80176
:101310008281882309F48AC080910F0281608093C2
:101320000F028CE093E00E94260780C0C631DC45A6
:10133000C9F60E94921BC82F0E94921B817119F45A
:101340009C2F9A7A01C090E0F801828120911B01C4
:1013500030911C01882379F081E0911101C080E077
:1013600080935E01911102C069E201C065E3C90189
:101370000E946F1D0AC080915E01811102C069E266
:1013800001C065E3C9010E94711D0E94E31B4EC0AC
:10139000F8018281882309F449C080E00AC0CD3D6C
:1013A000ECE5DE07D1F5F8018281882309F43EC01F
:1013B00082E00E9469293AC08091610190916201A6
:1013C0000E941C1E883C910508F025CF87E20E94F0
:1013D000671187E20E9491121ECFC93DDC4509F0DA
:1013E00081CFF8018281811105CF80916401811143
:1013F00012CF80916101909162010E941C1E883C75
:10140000910508F008CF80E20E94001388E20E9454
:10141000671188E20E94911209C0CE3DDC4509F0B7
:1014200061CFF801828181110E943A1D80E0DF9135
:10143000CF911F910F91FF90089580E090E0089563
:1014400008952BE4829FC0011124FC012FE0729FBC
:10145000E00DF11D1124E60FF11DEE0FFF1FE65BFD
:10146000FE4F859194910895880F991FFC01E35ECA
:10147000FC4F859194910895CF93DF930E94210AA8
:101480000E94F80BEC018115904508F041C0C11590
:1014900080E4D80708F028C1C83ED10510F5C03E49
:1014A000D10508F0A1C1C83AD10578F4C53AD105F3
:1014B00008F0A2C0C130D10509F496C108F447C1B3
:1014C000C430D10508F090C142C1CF3BD10508F42A
:1014D0009EC0C03CD10508F43AC1CE01805C9109A0
:1014E000F5C0C11590E2D90758F4C11521E0D20723
:1014F00008F07AC1C03FD10508F429C1D06574C194
:10150000C11580E3D80708F0E5C0CE019F70DEC0AA
:10151000C11595E5D90708F043C0C11524E5D207E8
:1015200008F0F9C0C11582E5D80708F5C11591E5A5
:10153000D90708F0DCC0CE0174E0969587957A95BE
:10154000E1F783709C2F937021E030E002C0220FFE
:10155000331F9A95E2F73C68382BCF70C695C69535
:1015600080E2C89FE0011124C22BD32B3DC19E0114
:10157000237033278C2F86958695C115D34508F0A7
:10158000BBC0C1E0D0E002C0CC0FDD1F2A95E2F75E
:1015900020E2829FC0011124C82BD92BDC6824C112
:1015A000C11529E5D207A0F4C11588E5D80708F0D0
:1015B000B7C0C11596E5D90708F0C9C08C2F0E94A5
:1015C000740C8F71C82FD0E0DC2FCC27D0620CC1F7
:1015D000C1152AE5D20708F4A8C0CE01905681159E
:1015E000904208F0B4C08D2F8F710E94740CDD27DB
:1015F000D0628F71D82BF8C0C53AD10509F4AAC0C2
:10160000C63AD10509F0A9C0C2E8D0E4EDC0C83A95
:10161000D10509F4A5C0C93AD10509F4A4C0CA3A54
:10162000D10509F4A3C0CB3AD10509F4A2C0CC3A44
:10163000D10509F4A1C0CB3BD10509F4A0C0CC3B36
:10164000D10509F49FC0CD3AD10509F49EC0C03B35
:10165000D10509F49DC0CE3AD10509F49CC0CF3A1A
:10166000D10509F49BC0C13BD10509F49AC0C23B26
:10167000D10509F499C0C33BD10509F498C0C43B16
:10168000D10509F497C0C53BD10509F496C0C63B06
:10169000D10509F495C0C73BD10509F494C0C83BF6
:1016A000D10509F493C0C93BD10509F492C0CD3BE3
:1016B000D10509F491C0CE3BD10509F490C0CA3BD5
:1016C000D10509F48FC0C0E0D4E48EC00E94340A72
:1016D000EC018AC0CE019927D3FF03C0EC01D86C7E
:1016E00083C0EC01D06C80C0DF70D06A7DC0DC2F7D
:1016F000CC27C16FD06A78C0C1E0D0E002C0CC0F67
:10170000DD1F2A95E2F720E2829FC0011124C82B39
:10171000D92BDA6869C0DC2FCC27C46FD06A64C0CB
:10172000DC2FCC27C06FD06A5FC08C2F8F700E94D7
:10173000740C94E0D695C7959A95E1F7CF70D0E0F8
:10174000DC2FCC27D06A8F70806EC82B4DC0C0E0D4
:10175000D0E04AC0C1E8D0E447C0C3E8D0E444C008
:10176000C2EED4E441C0C9EED4E43EC0CAEED4E433
:101770003BC0C5EBD4E438C0C6EBD4E435C0C3EB02
:10178000D4E432C0C4EBD4E42FC0C7EBD4E42CC003
:10179000CCECD4E429C0CDECD4E426C0C3E8D5E435
:1017A00023C0CAE8D5E420C0C2E9D5E41DC0C4E91D
:1017B000D5E41AC0C1E2D6E417C0C3E2D6E414C02F
:1017C000C4E2D6E411C0C5E2D6E40EC0C6E2D6E457
:1017D0000BC0C7E2D6E408C0CFE6D4E405C0C0E73A
:1017E000D4E402C0CAE2D6E4CE01DF91CF910895DD
:1017F0008238910549F1B0F48133910509F459C05B
:1018000048F48932910509F44FC08A32910509F4F0
:1018100055C008958533910509F441C08933910578
:1018200099F00895833E910531F138F4803E910599
:1018300091F0823E9105A9F00895863E910501F14F
:10184000873E910539F108952091310220FD3BC07A
:1018500021FD39C008958091310280FF34C089E3B1
:1018600041C08091310282FF30C08091310284FDFD
:101870002EC083EE37C08091310282FD26C0F5CFA5
:101880008091310283FF25C08091310284FD1FC009
:1018900087EE28C08091310283FD1BC0F5CF809177
:1018A000310285FD18C019C08091310285FD15C037
:1018B00012C08091310286FD12C013C080913102A6
:1018C00086FD0FC00CC080EE0DC082EE0BC080E024
:1018D00009C086EE07C089E205C085E303C08AE23D
:1018E00001C081E390E008959091310292FF0DC014
:1018F000282F2871283019F4877F846006C0282F8C
:101900002471243011F48B7F886093FF0DC0282F41
:101910002871283119F4877E846106C0282F24712C
:10192000243111F48B7E886194FD877E089508959B
:101930000C94970CCF93DF93ADE3B1E042E451E018
:1019400061E070E08D91E82FE295EF70F0E091A1F9
:101950008F709B0101C0220F8A95EAF7822F809534
:10196000892381A34A175B0769F7AEE2B1E04DE333
:1019700051E061E070E08D91E82FE295EF70F0E0CA
:1019800021A18F70EB0102C0CC0FDD1F8A95E2F719
:10199000CE019C2F9095922391A392A1892B82A393
:1019A0004A175B0741F7EFE6F1E0A5E6B1E089E70A
:1019B00091E0119211921D921D928E179F07C9F707
:1019C00085E00E94D60DDF91CF910C9468082F928C
:1019D0003F925F926F927F928F929F92AF92BF924F
:1019E000CF92DF92EF92FF920F931F93CF93DF93EB
:1019F0002DE3222E21E0322EAFE6B1E039E7632E4F
:101A000031E0732E20E001E010E06D018D909C909C
:101A1000119711961C921E92E10189911E01E82FE7
:101A2000E295EF70F0E031A18F70A80102C0440F81
:101A3000551F8A95E2F7CA01342B31A342A1382FF2
:101A40003095432342A350EA5A95F1F79EE2E92EDE
:101A500091E0F92E40E050E0E70159907E01652DBC
:101A600062956F7070E0EB0168A1AD90BC9011972A
:101A700070E0D52DDF7002C075956795DA95E2F7B5
:101A800060FD08C0B801042E02C0660F771F0A94DB
:101A9000E2F702C060E070E06A297B2911967C932E
:101AA0006E934F5F5F4F4F305105B1F691A13923CF
:101AB00031A392A1892B82A3129681E0F601408185
:101AC00051814815590509F480E0282B6A167B06D8
:101AD00009F09BCF45E065E671E08FE691E00E945A
:101AE000D70D0E94700881E0DF91CF911F910F9177
:101AF000FF90EF90DF90CF90BF90AF909F908F902E
:101B00007F906F905F903F902F900895E82FF0E0C6
:101B1000EE0FFF1FEB59FE4F808191810895CF9208
:101B2000DF92EF92FF920F931F93CF93DF938DE29B
:101B300093E00E94260785E6E82E81E0F82EC0E0BB
:101B4000D0E098E2C92E93E0D92E0FE113E0DF93A5
:101B5000CF93DF92CF920E94BF0785E293E00E946D
:101B60002607F701819191917F010E94AD1C9F93FF
:101B70008F931F930F930E94BF078DE193E00E9404
:101B8000260721968DB79EB708960FB6F8949EBF8C
:101B90000FBE8DBFC530D105D1F6DF91CF911F911A
:101BA0000F91FF90EF90DF90CF9008950895FF92EE
:101BB0000F931F93CF93DF93F82E092F162FD72F54
:101BC000C42F222349F081E080937B010E94041EF0
:101BD00090937A018093790180917B018823D9F0D9
:101BE0008091790190917A010E941C1E069798F0CD
:101BF000EF2DF02FA12FBD2F80E090E04C2F50E073
:101C00008417950734F4219131912D933D930196DA
:101C1000F7CF10927B01DF91CF911F910F91FF9031
:101C20000895CF93DF93EC0181E0898B8F810E942F
:101C3000951B88850E94A81B0E94E31BEA81FB81FB
:101C4000CE010696309729F06C897D89DF91CF917E
:101C50000994DF91CF910895CF93DF93FC01208108
:101C6000223041F4FB01EC01828193810E9438080B
:101C700081E08B87DF91CF910895FC0180818130D5
:101C800021F4FB018081918105C0823029F4FB01A0
:101C9000828193810C9438080895FC018081813001
:101CA00021F4FB018081918105C0823029F4FB0180
:101CB000828193810C944E080895EF92FF920F93C6
:101CC0001F93CF93DF93FC012285211136C0EC01D5
:101CD000E380F480F7E5FF1A26E12E9DC0012F9DD9
:101CE000900D1124DC01A050BF4F1496ED91FC9192
:101CF00015978A5F9E4F309729F054966D917C918D
:101D00005597099586E18E9D80018F9D100D1124B8
:101D100000501F4FF80187810E949B1BF8018085AE
:101D20000E94AE1B0E94E31B188219861B861E822E
:101D30001D8210927D0110927C01DF91CF911F9145
:101D40000F91FF90EF900895DF92EF92FF920F9323
:101D50001F93CF93DF93FB0122812223A1F12091D6
:101D60001A012F3F81F18C01C0E0D1E0E12CF12C70
:101D7000DD24D39480911A01082E000C990B8E1546
:101D80009F050CF18E818823C9F089859A8580177B
:101D9000910739F480917C0190917D010817190712
:101DA00069F0DF861C870B878989811103C0CE010A
:101DB0000E94110ECE0106960E945D0EFFEFEF1AF3
:101DC000FF0A6696D7CFDF91CF911F910F91FF90B9
:101DD000EF90DF900895EF92FF920F931F93CF93B0
:101DE000DF939C0137552F3F310511F008F047C0B4
:101DF00040911A01042E000C550B4217530714F49E
:101E000020931A01FB017C01828196E1929F80015F
:101E1000939F100D1124E801C050DF4F888B9281F1
:101E20008E81992311F1FA86E9868F5F8E830E9455
:101E3000041E9E878D870E94C81B8F830E94921B61
:101E400088870E94A51B9885892B8887E881F9815E
:101E5000C8018A5F9E4F309719F06C897D8909957A
:101E6000F0927D01E0927C010AC0882341F08989CB
:101E7000882329F0C8018A5F9E4F0E945D0E81E091
:101E8000DF91CF911F910F91FF90EF900895CF9226
:101E9000DF92EF92FF920F931F93CF93DF93809186
:101EA0001A018F3FF1F1F12C96E1E92E0F2D10E090
:101EB00080911A01082E000C990B801791078CF164
:101EC000E09EF001E19EF00D1124E050FF4FC2882A
:101ED000D388C114D10419F488ECC82ED12CE09E0B
:101EE000E001E19ED00D1124C050DF4F8E81882388
:101EF000B1F08D859E850E941C1EC816D90678F407
:101F00008989811103C0CE010E94110EE09EC0019B
:101F1000E19E900D11248A5F9E4F0E945D0EF39406
:101F2000C5CFDF91CF911F910F91FF90EF90DF9080
:101F3000CF90089590938301809382010895E0915A
:101F40008201F0918301309721F00190F081E02D22
:101F5000099480E00895EF92FF920F931F93CF931F
:101F6000DF93E0918201F09183013097B1F18C0110
:101F70000280F381E02D099580910F0282FF2DC030
:101F800080FF04C08CE493E00E942607E80118E07B
:101F900086E4E82E83E0F82E80910F0280FF0BC0CC
:101FA00088811F928F93FF92EF920E94BF070F903C
:101FB0000F900F900F90115021961111EDCF80913D
:101FC0000F0280FF0AC084E493E0DF91CF911F915C
:101FD0000F91FF90EF900C942607DF91CF911F9106
:101FE0000F91FF90EF900895E0918201F0918301AD
:101FF000309739F022E0DC012C930480F581E02D4C
:1020000009940895209180013091810128173907A2
:1020100071F09093810180938001E0918201F091B1
:102020008301309721F00680F781E02D099408950F
:1020300020917E0130917F012817390771F090932C
:102040007F0180937E01E0918201F09183013097BE
:1020500021F00084F185E02D0994089585B780680A
:1020600085BF85B7806885BF089508950C943510A5
:102070000C9436100C9435100C9435100E942E10D0
:102080000E943A100C94381081E008950E94FB1DC4
:102090000E949A0C0E94901E0C943C10CF93C82F63
:1020A00080910F0282FF1EC080FF04C085E693E08E
:1020B0000E94260780910F0280FF0CC01F92CF93D1
:1020C00080E693E09F938F930E94BF070F900F903D
:1020D0000F900F9080910F0280FF04C08EE593E077
:1020E0000E9426078C2FCF910C9475085F926F92F7
:1020F0007F928F929F92AF92BF92CF92DF92EF9298
:10210000FF920F931F93CF93DF93CDB7DEB72A973C
:102110000FB6F894DEBF0FBECDBF0E94E70C0E9441
:102120004410811111C08FEF89838A831B820E9422
:10213000041E8160782F9D838C8349815A816B8135
:102140008D810E94331156C095E8692E91E0792E59
:1021500000E010E088248394912C502E802F0E9460
:10216000860D6C01F301A190B1903F01A826B9261C
:10217000A114B10431F40F5F1F4F0530110569F749
:10218000D2CF80910F0281FD0E948F0D80E090E000
:102190007401082E02C0EE0CFF1C0A94E2F79501B0
:1021A0002E213F21232B09F18E835F82CE20DF2059
:1021B00081E0CD2809F480E088870E94041E8160B8
:1021C000782F9A8789874E815F8168858A850E94EA
:1021D0003311000F111FF801EB57FE4F80819181E1
:1021E000E826F926F182E08205C001968F3091053C
:1021F00079F6C1CF0E94A5200E949F0F9091840183
:102200008917D9F00E949F0F809384012A960FB6F8
:10221000F894DEBF0FBECDBFDF91CF911F910F911C
:10222000FF90EF90DF90CF90BF90AF909F908F90F6
:102230007F906F905F900C944E102A960FB6F89492
:10224000DEBF0FBECDBFDF91CF911F910F91FF90E9
:10225000EF90DF90CF90BF90AF909F908F907F9046
:102260006F905F900895CF93DF93CDB7DEB72B9734
:102270000FB6F894DEBF0FBECDBF4F835887698776
:102280007A878B87DE01119686E0FD0111928A958F
:10229000E9F785E0FE01379601900D928A95E1F706
:1022A00049815A816B817C818D819E810E947F183A
:1022B0002B960FB6F894DEBF0FBECDBFDF91CF9146
:1022C0000895FC01808191810E94531B0895CF9352
:1022D000882309F424C1C82F8238C1F40E949F0FBB
:1022E00081FD1DC169E380911B0190911C010E9439
:1022F0006F1D0E94E31B2FEF81EE94E02150804080
:102300009040E1F700C0000069E319C0833801F58F
:102310000E949F0F80FD03C163E580911B01909196
:102320001C010E946F1D0E94E31B2FEF81EE94E0C1
:10233000215080409040E1F700C0000063E58091AB
:102340001B0190911C010E94711DCF910C94E31B05
:102350008438C1F40E949F0F82FDE1C067E4809140
:102360001B0190911C010E946F1D0E94E31B2FEF27
:1023700081EE94E0215080409040E1F700C00000E1
:1023800067E4DDCF8CEF8C0F813A68F48C2F0E94CC
:102390000E258111C4C06C2F80911B0190911C01EE
:1023A0000E946F1DD2CF80E28C0F883048F4C77036
:1023B00081E001C0880FCA95EAF70E94951BC5CF3E
:1023C0008BE58C0F833078F4C53A29F0C63A31F0AA
:1023D00083E890E005C081E890E002C082E890E0E8
:1023E000CF910C94021088E58C0F873108F08FC0D4
:1023F000C83A09F445C0C93A09F445C0CA3A09F4D3
:1024000045C0CB3A09F445C0CC3A09F445C0CB3BB2
:1024100009F445C0CC3B09F445C0CD3A09F445C0A8
:10242000C03B09F445C0CE3A09F445C0CF3A09F49F
:1024300045C0C13B09F445C0C23B09F445C0C33B9C
:1024400009F445C0C43B09F445C0C53B09F445C087
:10245000C63B09F445C0C73B09F445C0C83B09F475
:1024600045C0C93B09F445C0CD3B09F445C0CE3B4E
:1024700009F445C0CA3B09F445C080E090E044C07F
:1024800082EE90E041C089EE90E03EC08AEE90E09E
:102490003BC085EB90E038C086EB90E035C083EB25
:1024A00090E032C084EB90E02FC087EB90E02CC02E
:1024B0008CEC90E029C08DEC90E026C083E891E0A0
:1024C00023C08AE891E020C082E991E01DC084E940
:1024D00091E01AC081E292E017C083E292E014C05A
:1024E00084E292E011C085E292E00EC086E292E0C2
:1024F0000BC087E292E008C08FE690E005C080E75D
:1025000090E002C08AE292E0CF910C941810C03F94
:1025100030F08C2F0E942B1FCF910C941820CF915C
:102520000895882309F464C0823879F40E949F0FCB
:1025300081FF5EC069E380911B0190911C010E94A4
:102540006F1D0E94E31B69E310C08338B1F40E9441
:102550009F0F80FF4DC063E580911B0190911C018E
:102560000E946F1D0E94E31B63E580911B01909107
:102570001C010E94711D0C94E31B843879F40E94A5
:102580009F0F82FF35C067E480911B0190911C0171
:102590000E946F1D0E94E31B67E4E7CF9CEF980F3A
:1025A000913A10F4682FE1CF90E2980F983050F4F0
:1025B000877091E001C0990F8A95EAF7892F0E94F0
:1025C0009B1BD9CF9BE5980F933020F480E090E0DF
:1025D0000C94021098E5980F973120F480E090E079
:1025E0000C941810803F20F00E94931F0C94182028
:1025F0000895882321F00E94951B0C94E31B0895F5
:10260000882321F00E949B1B0C94E31B08958F925A
:102610009F92AF92BF92DF92EF92FF920F931F9320
:10262000CF93DF937C01D62FC72FFC010581029544
:102630000F70128111110E94B51B0E948B1B882301
:1026400079F0112369F080E28D0F883048F082E044
:102650000E942D1C0E948B1B91E0D82ED92601C010
:10266000D12CBC2EB2948FE0B8228B2D90E0FC01CF
:10267000E859FF4F0C94532E8C2F807FCF70882306
:1026800011F0C295C07F112399F0CC2309F4C3C186
:1026900080E28D0F883010F0D11104C08C2F0E9481
:1026A000951B03C08C2F0E94A81B0E94E31BB3C183
:1026B0008D2F0E949112CC2309F4D2C180E28D0F9C
:1026C000883010F0D11104C08C2F0E949B1B03C0D6
:1026D0008C2F0E94AE1B0E94E31BC2C18C2F807FF7
:1026E000CF70803211F0C295C07FDD2319F0D13058
:1026F000C9F022C0112371F0002341F0013031F400
:102700000E94C81B8C2B0E94D01BAAC10E94C81B10
:102710008C2B3AC1002319F0013009F4A1C10E94A9
:10272000D91B18C0112321F0063008F099C10EC042
:10273000053008F095C10EC0112351F0002331F08F
:10274000F701858180FF67C18F7085838C2F1CC145
:10275000011172C18C2F1EC18C2F869586958370B6
:1027600019F0813061F07CC1112321F08D2F9C2F55
:10277000937002C080E090E00E9402107EC111239D
:1027800021F08D2F9C2F937002C080E090E00E947A
:10279000181073C11123F9F0D53F51F0D63F71F0F5
:1027A000D43FA9F480912B0290912C0281600BC040
:1027B00080912B0290912C02826005C080912B02A7
:1027C00090912C02846090932C0280932B028D2F89
:1027D0000E942B1F1EC0D53F51F0D63F71F0D43F51
:1027E000A9F480912B0290912C028E7F0BC08091D6
:1027F0002B0290912C028D7F05C080912B0290912D
:102800002C028B7F90932C0280932B028D2F0E94A1
:10281000931F0E94182031C18C2F837009F04CC087
:10282000111127C12D2F229526952770220F220FD7
:102830006D2F6F70862F90E0A0E0B0E04C015D013D
:10284000022E04C0880C991CAA1CBB1C0A94D2F747
:10285000D4FF12C08FE090E0A0E0B0E004C0880F89
:10286000991FAA1FBB1F2A95D2F7BC01CD01609505
:1028700070958095909503C060E070E0CB01C6959F
:10288000C695C370C23051F080F4682979298A292D
:102890009B29C13071F00E94D019EBC068297929B9
:1028A0008A299B290E94E219E4C00E94D019C5011F
:1028B000B4010E94BE19DDC0112319F08C2F817064
:1028C00001C08695882309F4D4C02D2F2295269522
:1028D0002770220F220F6D2F6F70862F90E0A0E0DF
:1028E000B0E04C015D01022E04C0880C991CAA1CAA
:1028F000BB1C0A94D2F7D4FF12C08FE090E0A0E096
:10290000B0E004C0880F991FAA1FBB1F2A95D2F7F9
:10291000BC01CD01609570958095909503C060E0F5
:1029200070E0CB01C695C695C370C23051F080F4FB
:10293000682979298A299B29C13071F00E94951A4A
:1029400098C0682979298A299B290E94A71A91C0D1
:102950000E94951AC501B4010E94831A8AC08D2F66
:1029600090E0FC01E05EF109E531F10508F04FC0AF
:10297000E858FF4F0C94532EDF708C2F8F7111236A
:1029800031F00E941C1A8D2F0E94F91269C00E941A
:102990003D1A8D2F0E94001363C0112341F00530B2
:1029A00008F05EC08C2F8F710E94621A59C00630E9
:1029B00008F056C0F7CF112339F08C2F8F710E9489
:1029C0001C1A4EC01123C9F38C2F8F710E943D1A1F
:1029D00047C0112329F08C2F8F710E94071A40C025
:1029E0000E94021A3DC0112349F0CF718C2F0E9422
:1029F0001C1A63E08C2F0E94181C32C081E00E94D8
:102A00002D1C023068F182E00E942D1C29C0112388
:102A100031F0002391F28D2F0E94671121C0002315
:102A200099F2D93349F4FFEF27EE83E0F1502040CB
:102A30008040E1F700C000008D2F0E94911210C06D
:102A40004C2F4F706D2FC7010E941D0A0E942D1937
:102A500014C04C2F4F706D2FC7010E94200A0DC06B
:102A600098E0B91631F0B91640F086EF8B0D823040
:102A700020F40E949F0F0E947508DD20E1F00E9463
:102A8000871B80FD18C0F70112820E94811B0E94E3
:102A90001C1AC7010E9467150E94811BDF91CF910C
:102AA0001F910F91FF90EF90DF90BF90AF909F909C
:102AB0008F900C943D1ADF91CF911F910F91FF9051
:102AC000EF90DF90BF90AF909F908F9008950F93FD
:102AD0001F93CF93DF93EC01988189812B813C81F7
:102AE000232B31F08F3F31F481E09F3F19F403C075
:102AF00081E001C080E080FD13C0CE010E94870804
:102B0000882371F0688179818A810E945E1B8C0123
:102B10000E94B91A0E94AA19B801CE010E94071397
:102B2000DF91CF911F910F9108950E94B51B0E94D4
:102B3000C51B0E94E31B0E943C210E94182080E0DC
:102B400090E00E94021080E090E00C9418108091B8
:102B50001B0190911C010E94731D0C9495150E94FD
:102B6000A21B0C94A715E92FE295EF704E2F50E0B1
:102B7000FA013297EE30F105B0F4E357FF4F0C94B1
:102B8000532E803F91F018F4803E68F40EC0843FCD
:102B900051F40BC0803E48F0813F29F406C093FBFE
:102BA000882780F9089580E0089581E008950E94C3
:102BB000531B0E94B3150895CF93DF9300D000D02C
:102BC0001F92CDB7DEB70F900F900F900F900F9020
:102BD000DF91CF910895CF93DF9300D000D000D044
:102BE000CDB7DEB726960FB6F894DEBF0FBECDBFC9
:102BF000DF91CF9108951F93CF93DF93C091900100
:102C000016E080919101C81799F0D0E01C9FF00167
:102C10001D9FF00D1124EE56FE4F408151816281BF
:102C20007381848195810E94EB152196C770E9CF4D
:102C3000DF91CF911F9108954091C2015091C3013E
:102C40006091C4017091C5018091C6019091C70146
:102C50000C94EB15CF938091C70182958F7009F08A
:102C60005FC08091C401882309F45AC0809190010B
:102C7000B09191017091C201A091C3014091C50131
:102C80005091C60191E07F3F09F090E0692FC6E0C6
:102C90008B1709F445C04115510521F0AF3F21F0D4
:102CA00020E003C021E001C0262F90E020FD35C0C8
:102CB000C89FF001C99FF00D1124EE56FE4F2181EF
:102CC0002A132BC02081271328C02281211125C05F
:102CD000238134812417350710F421503109241B36
:102CE000350B283C3105C8F42091C7012F702061B5
:102CF0002093C70126E0289FF001299FF00D1124A1
:102D0000E956FE4F80818F708061808382EC91E074
:102D10000E946715CF910C94FB1501968770B8CF70
:102D2000CF910895AF92BF92CF92DF92EF92FF9230
:102D30000F931F93CF93DF93CDB7DEB761970FB695
:102D4000F894DEBF0FBECDBF8C0185E0F801DE0137
:102D50001D9601900D928A95E1F7D8014C9111963C
:102D60005C9111971296EC903091C2016091C30171
:102D70008091C5019091C601009731F06F3F31F409
:102D800021E03F3F19F403C021E001C020E0B22F51
:102D9000B170BB2E20FD60C1F801C380D480A0902B
:102DA000C401AA2009F4EEC02091C701C816D906B3
:102DB00028F0D601A81BB90BCD0104C080959095D1
:102DC0008C0D9D1DFF24F394883C910580F0F12C1F
:102DD000207F09F09CC07C2DD98AC88A6E2D8989F4
:102DE0000E94DC1582EC91E00E9467152DC1822FB4
:102DF000807F09F054C0561314C0431312C0FE2C38
:102E0000E1100FC02F7020612093C7010E941C1693
:102E100082EC91E00E9467158091C701F8018583DB
:102E20005CC1CD2831F05F3F31F481E04F3F19F4B0
:102E300003C081E001C080E080FD03C081E08E25F9
:102E400002C080E090E0F82FF170FF2E80FF1CC0E0
:102E5000809190012091910136E0821709F41AC106
:102E600090E0389FF001399FF00D1124EE56FE4F8F
:102E70006181561306C06081461303C06281E61269
:102E800003C001968770E9CFFE2CEE2009F425C11E
:102E90008091C70181608093C701F12C1EC1561338
:102EA00009C0431307C0E11005C08091C701F801B4
:102EB0008583A4C04D875E878D859E850E94D7152A
:102EC000882379F1EE2069F12091C701822F829544
:102ED0008F7090E0029774F08091C2019091C301CD
:102EE00098878F831986DB86CA862C87CE01079642
:102EF0000E94671586E0F801A2ECB1E001900D9206
:102F00008A95E1F70E942A160E941C160DC05617DA
:102F100071F04D875E878D859E850E94D715811142
:102F20001AC0C8010E946715FF24F394D6C043134A
:102F3000F0CFE110EECF8091C701F8018583C80181
:102F40000E94671586E0E2ECF1E0DF011D928A95B0
:102F5000E9F7FA2CC2C0EE2021F32091C701822F9D
:102F600082958F7090E002972CF28091C20190912F
:102F7000C3019A8389831B82DD82CC822E83CE019A
:102F80000196B6CFC816D90628F0F601E81BF90B52
:102F9000CF0104C0809590958C0D9D1D883C9105B6
:102FA00048F0F12C7C2DD98AC88A6E2D89890E941F
:102FB000DC154AC0FE2CEE2009F4B3CF561333C003
:102FC000431331C02091C70120FD24C0822F829578
:102FD0008F70482F50E041155105E1F0D80115964A
:102FE0002C9315974F30510549F08F5F982F92958C
:102FF000907F822F8F70892B15968C93C8010E9429
:10300000671586E0F801A2ECB1E001900D928A9577
:10301000E1F73DC086E0F801A2ECB1E001900D922D
:103020008A95E1F75AC04D875E878D859E850E94FF
:10303000D71581115FCF8091C70181608093C7014F
:10304000C8010E94671549C0E2ECF1E086E0DF01AB
:103050001D928A95E9F71BC0EE2009F462CF4D87D7
:103060005E878D859E850E94D715F82E882309F4EA
:1030700058CF86E0F801A2ECB1E001900D928A955C
:10308000E1F782EC91E00E9461110E942A160E94F1
:103090001C1623C04D875E878D859E850E94531B1D
:1030A000292F22952F70223028F49F7039F081113A
:1030B00005C00BC0243028F49F7049F4805E88302E
:1030C00020F0C8010E946715BF2CFB2C06C0D80158
:1030D00015969C91907F91F7F8CF8F2D61960FB642
:1030E000F894DEBF0FBECDBFDF91CF911F910F913E
:1030F000FF90EF90DF90CF90BF90AF9008951F9317
:10310000CF93DF93CDB7DEB72C970FB6F894DEBF21
:103110000FBECDBF4F83588769877A878B879C877F
:10312000CE0107960E9492168823D1F09F81888550
:103130002A853B85232B31F08F3F31F481E09F3F7F
:1031400019F403C081E001C080E080FD47C04F81D9
:10315000588569857A858B859C850E94EB153EC0D4
:1031600086E0FE013796DE01119601900D928A9558
:10317000E1F7FF81E8856A857B856115710531F08E
:10318000EF3F31F481E0FF3F19F403C081E001C05B
:1031900080E080FD23C02091910130E0C9010196BB
:1031A000877099274091900150E084179507F1F1BD
:1031B000F983EA837D836C8396E0929FD001939F8D
:1031C000B00D1124AE56BE4FFE01319601900D9206
:1031D0009A95E1F7809391010E94FB1516E080918A
:1031E000900190919101891771F1189FC0011124EC
:1031F0008E569E4F0E949216882329F1E0919001ED
:103200001E9FF0011124EE56FE4F408151816281D4
:103210007381848195810E94EB158091900190E0EB
:1032200001968770992780939001D9CF0E94AF159E
:103230001092910110929001E2ECF1E086E0DF0142
:103240001D928A95E9F72C960FB6F894DEBF0FBE53
:10325000CDBFDF91CF911F910895EF92FF920F9311
:103260001F93CF93DF938C01892B09F46CC0F12C51
:10327000EE24E394E8012196F8018491843740F428
:10328000843008F051C0813081F0823019F15BC088
:10329000853709F444C0A8F19CE7980F903708F0EF
:1032A00052C08F770E94911241C00E5F1F4FFE01E6
:1032B000849190E2980F983050F48770FE2D01C0F1
:1032C000FF0F8A95EAF78F2F0E94B81B14C00E9447
:1032D00067112DC00E5F1F4FFE01849190E2980F81
:1032E000983060F48770FE2D01C0FF0F8A95EAF7D1
:1032F0008F2F0E94BE1B0E94E31B19C00E949112D7
:1033000016C00E5F1F4FFE01C491CC2381F08FE9E0
:103310009FE00197F1F700C00000C150F6CF0E5FAB
:103320001F4FFE01F49003C00E9467118E018F2D84
:10333000882309F49FCFEFE9FFE03197F1F700C050
:1033400000008150F5CFDF91CF911F910F91FF9039
:10335000EF900895089508950C94AB190C94AC194E
:103360000E94AE196093FE017093FF0180930002EA
:10337000909301020C9495150C94B0190F931F9320
:103380000091FE011091FF01209100023091010295
:10339000602B712B822B932B1F910F910C94B019E2
:1033A0000F931F930091FE011091FF0120910002E5
:1033B0003091010260237123822393231F910F9187
:1033C0000C94B0190F931F930091FE011091FF010F
:1033D00020910002309101026027712782279327F4
:1033E0001F910F910C94B0190C94CD070E94F41901
:1033F0006093FA017093FB018093FC019093FD01AF
:103400000C94951560E070E0CB010C94F6190F93C5
:103410001F9341E050E060E070E08A019B0104C02E
:10342000000F111F221F331F8A95D2F7C901B8015F
:103430001F910F910C94F6190F931F9341E050E0E8
:1034400060E070E004C0440F551F661F771F8A9527
:10345000D2F78091FA019091FB01A091FC01B0910B
:10346000FD018A019B01082B192B2A2B3B2BC9013B
:10347000B8011F910F910C94F6190F931F9341E01F
:1034800050E060E070E004C0440F551F661F771FD6
:103490008A95D2F740955095609570958091FA0184
:1034A0009091FB01A091FC01B091FD018A019B016B
:1034B000082319232A233B23C901B8011F910F9127
:1034C0000C94F6190F931F9341E050E060E070E018
:1034D00004C0440F551F661F771F8A95D2F780914D
:1034E000FA019091FB01A091FC01B091FD018A01CC
:1034F0009B01082719272A273B27C901B8011F91DB
:103500000F910C94F6190F931F930091FA011091EB
:10351000FB012091FC013091FD01602B712B822B6E
:10352000932B1F910F910C94F6190F931F930091F9
:10353000FA011091FB012091FC013091FD01602303
:103540007123822393231F910F910C94F6190F93EB
:103550001F930091FA011091FB012091FC01309121
:10356000FD0160277127822793271F910F910C94EB
:10357000F61908952FE0929F800D1124E82FE6950B
:10358000E695E695877051E001C0550F8A95EAF7F8
:1035900085E0E89FF0011124E853FE4F20E030E081
:1035A00070E04081CB01022E02C0969587950A9467
:1035B000E2F78170819584278523842781932F5F8B
:1035C0003F4F2530310569F708952FE0929F800D18
:1035D0001124682F669566956695982F977085E0FB
:1035E000689FB001112440E050E080E0FB01E40F4F
:1035F000F51FE853FE4F208130E0092E02C03695BA
:1036000027950A94E2F721703327042E01C0220F78
:103610000A94EAF7822B4F5F5F4F4530510531F72F
:103620000895BF92CF92DF92EF92FF920F931F9374
:10363000CF93DF938C01C090FA01D090FB01E09012
:10364000FC01F090FD018091FE019091FF01A0919D
:103650000002B0910102C82AD92AEA2AFB2ACFE146
:10366000D0E0D701C6010C2E04C0B695A79597955A
:1036700087950A94D2F780FD04C0219790F7B12C6A
:1036800007C0BC2EB8018C2F0E943C0A0197A9F3F9
:103690008B2DDF91CF911F910F91FF90EF90DF90D5
:1036A000CF90BF900895CF93DF93EC010E94111B40
:1036B000BE010E943C0ADF91CF9108951F93CF93E2
:1036C000DF93EB0190918F01992321F0CB010E94B0
:1036D000531B13C0882349F0CB010E94111B182FE4
:1036E000682FCE010E94BA1A04C0CB010E94E51ACD
:1036F000182FBE01812F0E943C0ADF91CF911F91AC
:10370000089580910202859585958595089580910B
:1037100002028770089590910202977081E009F487
:1037200080E0089580910E02089590910E02892BF9
:1037300080930E020895809590910E0289238093C4
:103740000E02089510920E02089580910D020895C0
:1037500090910D02892B80930D0208958095909190
:103760000D02892380930D02089510920D02089591
:1037700090910C02892B80930C0208958095909172
:103780000C02892380930C02089510920C02089574
:1037900080910302089508950C94CB1B0C94CC1BCC
:1037A00090910302981721F0809303020C94CE1B92
:1037B000089580910302882329F01092030280E08B
:1037C0000C94CE1B0895E0911B01F0911C01809197
:1037D0000E028083E0911B01F0911C019081809189
:1037E0000D02892B8083E0911B01F0911C019081D7
:1037F00080910C02892B808380910302882381F0C1
:10380000E0911B01F0911C019081892B80838091B4
:103810001B0190911C010E943C1D81110E94D91B2B
:1038200080911B0190911C010C94AB0F0C94CB1B4D
:1038300098E0899F90011124262B209302020E9478
:103840001C1A809102028595859585950C94161C0D
:103850001092020280E00C94161C209102028095C6
:10386000822380930202982F977079F430E0482FDA
:10387000082E000C550B2417350739F085958595D2
:1038800085950E943D1A0C94281C089590935D0123
:1038900080935C010895CF92DF92EF92FF926C01CA
:1038A000EE24FF24C114D104E104F10421F0C70186
:1038B000B60120E101C020E0C72ED82EE92EFF245A
:1038C000C114D104E104F10419F0285FC701B60165
:1038D0006B017C0154E0F694E794D794C7945A9511
:1038E000D1F7C114D104E104F10419F02C5FC70130
:1038F000B6016B017C0142E0F694E794D794C7943B
:103900004A95D1F7C114D104E104F10419F02E5FF6
:10391000C701B601DC01CB01B695A79597958795B0
:10392000892B8A2B8B2B09F02F5F822FFF90EF9032
:10393000DF90CF9008958295982F937344E0949FE1
:10394000900111248C7C86958695282B822F857575
:10395000880F2A7A2695822B0895CF93DF93D92F4B
:103960000E949B1CC82F8D2F0E949B1C2C2F30E087
:10397000322F2227A901482BCA01DF91CF91089548
:1039800080E090E00E94752E21E08D3E9E4F09F070
:1039900020E0822F089582E090E00C946D2E83E069
:1039A00090E00C946D2E84E090E00C946D2E682FC6
:1039B00084E090E00C947B2EAB01BC018FE090E0A2
:1039C0000C948D2EAB01BC0183E190E00C948D2E04
:1039D00060E070E0CB010C94E21C60E070E0CB0191
:1039E0000E94DC1C0C94E81C6DEE7EEF80E090E001
:1039F0000E94992E60E082E090E00E947B2E60E0C1
:103A000083E090E00E947B2E1092FE011092FF0155
:103A1000109200021092010260E084E090E00E94A7
:103A20007B2E60E085E090E00E947B2E60E086E0E7
:103A300090E00E947B2E6FEF87E090E00E947B2E4B
:103A400040E050E0BA0188E090E00E948D2E60E0F6
:103A50008DE090E00E947B2E40E050E0BA0188E1CA
:103A600090E00E948D2E60E087E190E00E947B2E26
:103A70000C94ED1C0C94F41CFC01329697E080E051
:103A8000915029F021912223D9F38F5FF9CF089526
:103A90009C01FC0132969FEF80E04191461789F02E
:103AA0009F3F19F4411101C0982F8F5F8630A9F70D
:103AB0009F3F39F0F901E90FF11D97FDFA956283F7
:103AC000089508959C012A5F3F4FFC0142814613EF
:103AD00001C01282019682179307B9F708950C94DA
:103AE000481D0C94621D029626E0FC0111922A9555
:103AF000E9F7089508950C947A1D0C947A1DCF93DC
:103B00000E947D1D0E94E70C0E947B1DC0E08C2F4F
:103B10000E94860D892B29F4CF5FC530C1F780E064
:103B200001C081E0CF9108950C947A1D0C94941DEE
:103B30000E94961D80913702843049F11092100244
:103B400020E488E190E00FB6F894A8958093600097
:103B50000FBE2093600080E00E9475080E94961DB1
:103B600083B7817F846083BF83B7816083BF78948C
:103B7000889583B78E7F83BF0FB6F894A895809100
:103B80006000886180936000109260000FBE08950D
:103B90000C947A1D0E94AF150E949F0F0E94750819
:103BA0000C94C81D1F920F920FB60F9211248F9381
:103BB0009F93AF93BF9380911002811113C08091A6
:103BC0002D0290912E02A0912F02B09130024196C9
:103BD000A11DB11D80932D0290932E02A0932F0260
:103BE000B0933002BF91AF919F918F910F900FBE14
:103BF0000F901F90189582E084BD93E095BD9AEFD9
:103C000097BD80936E0008952FB7F89480912D0290
:103C100090912E02A0912F02B09130022FBF0895F3
:103C20002FB7F89460912D0270912E0280912F028F
:103C3000909130022FBF0895CF92DF92EF92FF92C2
:103C40000F931F932FB7F89440912D0250912E029D
:103C500060912F02709130022FBF6A017B01EE2428
:103C6000FF248C0120E030E0C016D106E206F30606
:103C700010F4415051099A01281B390BC9011F91B9
:103C80000F91FF90EF90DF90CF90089578941F925E
:103C90000F920FB60F9211248F939F93AF93BF9300
:103CA00080912D0290912E02A0912F02B0913002AE
:103CB0000196A11DB11D80932D0290932E02A09319
:103CC0002F02B0933002BF91AF919F918F910F90CF
:103CD0000FBE0F901F90189581E08093E00080E266
:103CE0008093D8001092C9008FE19EE40197F1F70C
:103CF00000C0000087E090EBDC01809340029093CD
:103D00004102A0934202B09343029CE088E10FB6C7
:103D1000F894A895809360000FBE90936000FFCF49
:103D20000E94C01C811102C00E943A1D0E94CB1C3F
:103D300080930F020E94D31C90E0909332028093F4
:103D400031020E94CF1C682F70E080E090E00C945C
:103D5000BC198091130280FF0BC06091200185E0A7
:103D6000689FB001112475956795759567952BC06F
:103D700081FF09C06091200185E0689FB001112496
:103D80007595679520C082FF07C06091200185E08E
:103D9000689FB001112417C0909114029923D1F0AB
:103DA00060911F01961788F72091200185E0289FD8
:103DB00090011124929FA001939F500D112470E057
:103DC000CA010E943F2E6038710540F461157105EB
:103DD00019F406C065E070E0862F08958FE7089516
:103DE00081E008958091130280FF08C060911E0158
:103DF00070E0759567957595679521C081FF06C040
:103E000060911E0170E07595679519C082FF04C02E
:103E100060911E0170E010C090911402992399F0F6
:103E200060911D019617A0F780911E01899FC00126
:103E3000112470E00E943F2E6038710540F4611536
:103E4000710519F406C061E070E0862F08958FE7D0
:103E5000089581E00895803F21F40E94A91E819574
:103E600004C0813F29F40E94A91E8093180208957E
:103E7000823F21F40E94A91E819504C0833F29F44A
:103E80000E94A91E809317020895893F19F40E9489
:103E9000F21E05C08A3F31F40E94F21E8195809384
:103EA000190208958B3F21F40E94F21E819504C0EF
:103EB0008C3F29F40E94F21E80931A020895843FD9
:103EC00021F480911602816017C0853F21F4809112
:103ED0001602826011C0863F21F480911602846030
:103EE0000BC0873F21F480911602886005C0883F8F
:103EF00031F48091160280618093160208958D3FFF
:103F000021F48091130281600BC08E3F21F48091D7
:103F10001302826005C08F3F29F4809113028460F0
:103F2000809313020895803F39F48091180287FF2F
:103F30006CC01092180269C0813F29F48091180268
:103F40001816BCF362C090911702823F29F497FFC4
:103F50005CC01092170259C0833F19F41916CCF3B4
:103F600054C0893F41F48091190218160CF04DC0DD
:103F7000109219024AC08A3F29F48091190287FFE2
:103F800044C0F6CF8B3F39F480911A0287FF3DC0C1
:103F900010921A023AC08C3F29F480911A02181626
:103FA000BCF333C0843F21F4809116028E7F17C08A
:103FB000853F21F4809116028D7F11C0863F21F448
:103FC000809116028B7F0BC0873F21F480911602EF
:103FD000877F05C0883F31F4809116028F7E8093E1
:103FE000160213C08D3F21F4809113028E7F0BC007
:103FF0008E3F21F4809113028D7F05C08F3F29F4FD
:10400000809113028B7F809313028091170281119C
:104010000EC08091180281110AC08091190281118D
:1040200006C080911A02811102C0109214020895F4
:1040300080910F0283FF7EC08FE993E00E942607E4
:10404000809116021F928F938AE993E09F938F933A
:104050000E94BF0788E993E00E942607809117021B
:10406000282F082E000C330B3F938F9385E993E0A4
:104070009F938F930E94BF0783E993E00E942607D6
:1040800080911802282F082E000C330B3F938F933A
:1040900080E993E09F938F930E94BF078EE893E09F
:1040A0000E94260780911902282F082E000C330B3E
:1040B0003F938F938BE893E09F938F930E94BF076A
:1040C00089E893E00E94260780911A02282F082E83
:1040D000000C330B3F938F9386E893E09F938F936D
:1040E0000E94BF0783E893E00E9426078091140294
:1040F0001F928F9380E893E09F938F930E94BF0756
:104100008EE793E00E942607809113021F928F93FF
:104110008BE793E09F938F930E94BF0788E793E01C
:104120000E9426078DB79EB74C960FB6F8949EBF97
:104130000FBE8DBF85E192E00E94F40F0E94041E25
:10414000909312028093110208951F93CF93DF93EF
:1041500080911102909112020E941C1EAC0190915C
:104160001402992321F02091210130E006C0209112
:1041700022018AE0289F900111244217530708F476
:1041800077C080911702C0911802D0911902109146
:104190001A02811107C0C11167C0D11165C0111188
:1041A00063C066C09F3F19F09F5F9093140218167A
:1041B00024F40E94A91E809317028091170287FFA2
:1041C00005C00E94A91E8195809317021C1624F435
:1041D0000E94A91E809318028091180287FF05C0D3
:1041E0000E94A91E819580931802309117023323F3
:1041F000C1F0209118022223A1F045EB3403C00145
:104200001124892F911101C081E08093170235EBB1
:104210002303C0011124892F911101C081E08093F3
:1042200018021D1624F40E94F21E80931902809138
:10423000190287FF05C00E94F21E81958093190222
:10424000111624F40E94F21E80931A0280911A0221
:1042500087FF05C00E94F21E819580931A02DF91AC
:10426000CF911F910C9418209F3F09F09DCFAECFA6
:10427000DF91CF911F910895E5E1F2E086E0DF0143
:104280001D928A95E9F71092140210921302089574
:1042900082EC95E00E9426071F9281E08F931F9287
:1042A00085E08F9384E795E09F938F930E94BF07EB
:1042B0000F900F900F900F900F900F9008958330F4
:1042C000E9F128F4813061F0823009F108958530F8
:1042D00009F462C008F449C0863009F474C0089536
:1042E00080912201262F30E0280F311D2F3F31050C
:1042F00024F4680F6093220103C08FEF80932201A2
:10430000809122011F928F938DEA94E072C0809178
:104310002101262F30E0280F311D2F3F310524F4D5
:10432000680F6093210103C08FEF8093210180917A
:1043300021011F928F938BE994E05BC08091200153
:10434000262F30E0280F311D2F3F310524F4680F50
:104350006093200103C08FEF8093200180912001A2
:104360001F928F9388E894E044C080911F01262F0C
:1043700030E0280F311D2F3F310524F4680F609382
:104380001F0103C08FEF80931F0180911F011F92B7
:104390008F9383E794E02DC080911E01262F30E09B
:1043A000280F311D2F3F310524F4680F60931E0143
:1043B00003C08FEF80931E0180911E011F928F9387
:1043C0008AE594E016C080911D01262F30E0280F69
:1043D000311D2F3F310524F4680F60931D0103C088
:1043E0008FEF80931D0180911D011F928F938FE3AA
:1043F00094E09F938F930E94BF070F900F900F90B0
:104400000F900895833081F128F4813059F0823083
:10441000D1F00895853009F449C0B8F1863009F427
:1044200056C0089580912201681720F4861B80935E
:10443000220102C010922201809122011F928F93CB
:1044400080E394E054C080912101681720F4861B1A
:104450008093210102C010922101809121011F92BD
:104460008F938EE194E043C080912001681720F47F
:10447000861B8093200102C01092200180912001B0
:104480001F928F938BE094E032C080911F016817D8
:1044900020F4861B80931F0102C010921F0180919F
:1044A0001F011F928F9386EF93E021C080911E0120
:1044B000681720F4861B80931E0102C010921E0113
:1044C00080911E011F928F938DED93E010C080911B
:1044D0001D01681720F4861B80931D0102C01092F5
:1044E0001D0180911D011F928F9382EC93E09F9399
:1044F0008F930E94BF070F900F900F900F90089519
:10450000CF93C82F1F928F9387EC96E09F938F9342
:104510000E94BF0781E090E0A0E0B0E0BC01CD01C7
:1045200004C0660F771F881F991FCA95D2F70E9493
:10453000BC190F900F900F900F90CF910C94AF1566
:10454000CF938B3109F4D1C108F067C18B3009F4E6
:104550008AC108F03DC1863009F488C120F4853055
:1045600009F496C144C2873009F4A4C1883009F027
:104570003EC283EE9BE00E94260784E39BE00E94FC
:1045800026070E94CF1C1F928F9381E39BE09F938D
:104590008F930E94BF078FE29BE00E9426070E9434
:1045A000CB1CC82F8CE19BE00E9426071F92CF9363
:1045B00087E19BE09F938F930E94BF0785E19BE07B
:1045C0000E9426078BE09BE00E9426078C2F8170BB
:1045D0001F928F9388E09BE09F938F930E94BF0769
:1045E00086E09BE00E9426078CEF9AE00E94260757
:1045F000C1FB882780F91F928F9389EF9AE09F93E0
:104600008F930E94BF0787EF9AE00E9426078BEEE8
:104610009AE00E942607C2FB882780F91F928F9399
:1046200088EE9AE09F938F930E94BF0786EE9AE0F0
:104630000E9426078DED9AE00E942607C3FBCC2737
:10464000C0F91F92CF938AED9AE09F938F930E94B7
:10465000BF0788ED9AE00E9426070E94D31CC82F4E
:1046600084EC9AE00E9426071F92CF938FEB9AE08A
:104670009F938F930E94BF078DEB9AE00E942607BD
:1046800084EA9AE00E9426078C2F81701F928F93F4
:1046900081EA9AE09F938F930E94BF078DB79EB7E0
:1046A00080960FB6F8949EBF0FBE8DBF8FE99AE03B
:1046B0000E94260788E89AE00E942607C1FB882707
:1046C00080F91F928F9385E89AE09F938F930E94C1
:1046D000BF0783E89AE00E94260781E79AE00E94DC
:1046E0002607C2FB882780F91F928F938EE69AE0F7
:1046F0009F938F930E94BF078CE69AE00E94260743
:104700008AE59AE00E942607C3FB882780F91F925A
:104710008F9387E59AE09F938F930E94BF0785E56B
:104720009AE00E9426078BE49AE00E942607C4FBC9
:10473000882780F91F928F9388E49AE09F938F9344
:104740000E94BF0786E49AE00E94260784E39AE06D
:104750000E942607C5FB882780F91F928F9381E36B
:104760009AE09F938F930E94BF078FE29AE00E9486
:10477000260783E19AE00E942607C6FB882780F976
:104780001F928F9380E19AE09F938F930E94BF07BF
:104790008EE09AE00E94260786E09AE00E942607B3
:1047A000C7FBCC27C0F91F92CF9383E09AE09F9379
:1047B0008F930E94BF0781E09AE00E9426078DB781
:1047C0009EB74C960FB6F8949EBF0FBE8DBF49C0E2
:1047D000803109F4B4C020F48E3009F49AC007C1C6
:1047E000863109F4C7C0893109F001C188E298E037
:1047F0000E9426078AE098E00E9426078FEC97E047
:104800000E94260786E997E00E94260780E697E047
:104810000E94260785E397E08FC08A32E1F060F4BA
:10482000873209F4E0C028F48E3108F4E0C08D51DD
:10483000DBC0893269F1DBC0833448F48A3308F085
:10484000D0C0853309F4CFC0883369F0D0C0833439
:1048500009F4C9C0CCC082ED9BE00E9426070E94EB
:104860003A1DC1E0C9C08EE598E066C080910F0294
:10487000817F8E7F80930F0287E398E00E94260756
:104880008EEC9BE00E94260781E080931C02E9CF1A
:104890000E94AF1582EB9BE00E9426079FEF23ED5D
:1048A00080E3915020408040E1F700C000000E946A
:1048B0006C1ED7CF80910F02C82FC095C170C0FB6E
:1048C00080F980930F02CC2329F086EA9BE00E94B6
:1048D000260792C089E99BE00E94260780910F027B
:1048E000897F877F80930F02BCCF90910F0291FB4D
:1048F000CC27C0F981E0C827892FC0FB81F98093BC
:104900000F02CC2319F08CE89BE029C08EE79BE0D6
:1049100013C090910F0292FBCC27C0F981E0C82709
:10492000892FC0FB82F980930F02CC2319F08FE608
:104930009BE015C08FE59BE00E94260792CF9091E7
:104940000F0293FBCC27C0F981E0C827892FC0FB59
:1049500083F980930F02CC2351F083E59BE00E9402
:10496000260780910F02816080930F0245C086E484
:104970009BE0E2CF87E297E00E9426070E949F0F0C
:104980001F928F938DE097E09F938F930E94BF07B4
:1049900080912D011F928F9386EF96E09F938F93C6
:1049A0000E94BF07809129021F928F9383EE96E0A9
:1049B0009F938F930E94BF070E94101E9F938F9317
:1049C0007F936F938CEC96E09F938F930E94BF0729
:1049D0008DB79EB742960FB6F8949EBF0FBE8DBF9F
:1049E00040CF895301C080E00E9480223ACF84E406
:1049F0009BE00E942607C0E08C2FCF91089580E0B5
:104A000008950C94FF248E518A3030F4E82FF0E0A2
:104A1000EE5BFE4F8081089580E00895CF93C82F0C
:104A200080911C02813059F020F0823009F445C099
:104A300039C10E94921B823209F036C104C00E9423
:104A4000921B823261F48C2F0E940125811104C0D7
:104A50008C2F0E94A0222FC081E090E02CC08C2FD0
:104A60000E94FF24811126C0C431E1F070F4CB30E4
:104A700081F0C031D1F40E9448218FEB96E00E9472
:104A8000260782E080931C0215C0C93259F0C83352
:104A900061F487E398E00E94260783EC96E00E9489
:104AA000260708C010921C0201C18DEB96E00E94FF
:104AB0002607FCC081E08170FBC0C43228F5CE31EE
:104AC00008F0C1C0CB30A1F1D0F4C73009F0D0C09C
:104AD0008EE18093220182E3809321018AE080931A
:104AE000200184E180931F0188E080931E0188E209
:104AF00080931D0183E695E00E942607BCC0C33168
:104B000049F1C431C1F0B4C0CB3409F4A6C028F4D3
:104B1000C93289F0C83361F0ABC0C13509F49BC01C
:104B2000C23509F496C0CE3409F0A2C06AE09BC039
:104B30000E944821A0C080911B02882319F0109286
:104B40001B0299C080E795E00E94260781E08093D0
:104B50001C02AEC08AE495E00E94260788E395E037
:104B60000E942607809122011F928F9385E395E092
:104B70009F938F930E94BF0783E395E00E942607CF
:104B800081E295E00E942607809121011F928F9378
:104B90008EE195E09F938F930E94BF078CE195E093
:104BA0000E9426078DE095E00E9426078091200153
:104BB0001F928F938AE095E09F938F930E94BF0787
:104BC00088E095E00E94260787EF94E00E94260780
:104BD00080911F011F928F9384EF94E09F938F9396
:104BE0000E94BF0782EF94E00E9426078DED94E0BB
:104BF0000E94260780911E011F928F938AED94E0F8
:104C00009F938F930E94BF0788ED94E00E94260730
:104C100081EC94E00E94260780911D011F928F93E2
:104C20008EEB94E09F938F930E94BF078CEB94E0F0
:104C30000E9426078DB79EB748960FB6F8949EBF80
:104C40000FBE8DBF18C08C2F0E94032580931B02BE
:104C500012C061E003C061E006C06AE080911B02FF
:104C60000E945F2108C080911B020E94022203C0A3
:104C700081E695E013C080911B02882369F01F92A2
:104C80008F938BE595E09F938F930E94BF070F90C2
:104C90000F900F900F9004C088E595E00E942607C2
:104CA00081E006C010921C0280E002C080E003CFC9
:104CB000CF9108958091280208959FB7F89410929B
:104CC0001F029FBF90913702943009F057C0909116
:104CD000E9009F703091EC00232F217030FD20E817
:104CE000922B23E02093E9002091EB0020FF43C0AA
:104CF0002091EE0027FF3FC020911D02222321F0CA
:104D00002091E80025FF37C010921D0226E0309167
:104D1000E80035FD15C030913702343061F530912F
:104D2000EB0035FD28C0215021F481E080931D0265
:104D300022C0EFE9FFE03197F1F700C00000E7CFB4
:104D40008093F1008091E80085FD0AC08091E80021
:104D500080FFFCCF8091E8008E778093E80006C04A
:104D60008FB7F89421E020931F028FBF9F7090931C
:104D7000E90080E008959F709093E9008FEF089517
:104D80000F931F93CF93DF9300D01F92CDB7DEB761
:104D90008C010E947929823011F0843021F584E061
:104DA00089831B830A8382E08093E9008FEF9091CF
:104DB000E800815095FD06C095ED9A95F1F7000049
:104DC0008111F5CF8091E80085FF0DC040E050E0F3
:104DD00063E070E0CE0101960E9496298091E80080
:104DE0008E778093E8000F900F900F90DF91CF9116
:104DF0001F910F910895CF93DF9300D01F92CDB7ED
:104E0000DEB720913702243031F523E02983805822
:104E100091099B838A8382E08093E9008FEF9091D0
:104E2000E800815095FD06C095ED9A95F1F70000D8
:104E30008111F5CF8091E80085FF0DC040E050E082
:104E400063E070E0CE0101960E9496298091E8000F
:104E50008E778093E8000F900F900F90DF91CF91A5
:104E60000895CF93DF93EC010E947929823011F0ED
:104E70008430F9F482E08093E9008FEF9091E800AC
:104E8000815095FD06C095ED9A95F1F700008111CE
:104E9000F5CF8091E80085FF0CC040E050E066E06F
:104EA00070E0CE010E9496298091E8008E77809371
:104EB000E800DF91CF910895CF93DF93EC010E943A
:104EC0007929823011F0843039F581E08093E9004E
:104ED0008FEF9091E800815095FD06C095ED9A9571
:104EE000F1F700008111F5CF8091E80085FF14C033
:104EF00040E050E068E070E0CE010E949629809189
:104F0000E8008E778093E80088E0FE01A0E2B2E03E
:104F100001900D928A95E1F7DF91CF91089583E199
:104F20009CE00E94260780913602811109C00E94F0
:104F3000272B0E94842B8091E20084608093E20002
:104F400008958FE09CE00E94260710923602089593
:104F50008BE09CE00C94260787E09CE00C942607ED
:104F600083E09CE00E9426070C94CA1D20911E023B
:104F70002F5F822F62E30E94332E992319F0209332
:104F80001E02089510921E0280911F02882371F163
:104F900080913702843041F58091E9008F70209133
:104FA000EC00922F917020FD90E8892B93E0909374
:104FB000E9009091EB0090FF14C09091EE0097FFF4
:104FC00010C09091E80095FF03C01092F100F9CF56
:104FD0009091E80090FF05C09091E8009E77909333
:104FE000E8008F708093E90010921F02089542E05C
:104FF00061EC81E00E94A02A42E261EC82E00E9422
:10500000A02A42E261EC83E00C94A02A809139024C
:10501000833009F460C030F4813071F0823009F4DB
:1050200099C008958A3009F485C08B3009F46BC0AB
:10503000893009F0A7C020C080913802813A09F078
:10504000A1C08091E800877F8093E80080913C02B6
:1050500090913D02892B21F468E080E292E003C048
:1050600060E080E090E070E00E94E1298091E8003B
:105070008B778093E800089580913802813209F09F
:1050800081C080913C0290913D02029708F07AC065
:105090008091E800877F8093E8008091E80082FD9E
:1050A00005C0809137028111F8CF6CC02091F300C8
:1050B0008091F20090E0922B029729F48091F10008
:1050C0008B7F813021F48091F100809328028091C0
:1050D000E8008B7753C080913802813A09F052C0C2
:1050E00080913C0290913D02892B09F04BC0809148
:1050F000E800877F8093E8008091E80080FFFCCF84
:1051000080912D0136C0809138028132D9F580918D
:105110003C0290913D02892BA9F58091E800877FA0
:105120008093E8000E94D52A80913A0280932D0155
:105130000C94AF1580913802813221F58091E800FE
:10514000877F8093E8000E94D52A80913B0280935C
:105150002902089580913802813AA1F48091E800F3
:10516000877F8093E8008091E80080FFFCCF8091EA
:1051700029028093F1008091E8008E778093E80007
:105180000C94D52A089584B7877F84BF0FB6F8940E
:10519000A895809160008861809360001092600003
:1051A0000FBE80E880936100109261000E943E1063
:1051B0000E94272B0E94842B8091E20084608093C0
:1051C000E2008DE596E20E94461C78940E94182E1B
:1051D0000E94461083E291E00E949A0F82EF9BE0CA
:1051E0000E94260780913702853089F48EEE9BE07D
:1051F0000E9426070E94981D80913502882391F312
:105200000E947F1D882371F30E948029EBCF0E94AA
:105210007610E8CF0C940C29292F33272330310541
:10522000C9F060F42130310581F02230310509F0F8
:1052300047C08BE590E02DE43CE046C021323105CB
:1052400011F12232310561F13BC082E190E028EAA0
:105250003CE03AC099278130910561F040F08230FE
:10526000910559F0039761F5E7E1FCE008C0E9E436
:10527000FCE005C0E1E3FCE002C0EDE1FCE084916C
:1052800090E09F0121C063307105D0F4660F771F55
:10529000FB01EB5AFE4F2081318189E090E014C080
:1052A0006330710568F4FB01EE0FFF1FE15BFE4FF9
:1052B00020813181FB01E45BFE4F808190E004C0DE
:1052C00080E090E020E030E0FA013183208308950F
:1052D0000895CF93C82F0E946829C0932A02CF91C6
:1052E000089580913702843011F081E0089582E0C2
:1052F000089580912A02811102C00C9471290895A9
:1053000080E189BD82E189BD09B400FEFDCF8091B5
:10531000D8008F7D8093D8008091E00082608093D8
:10532000E0008091E00081FDFCCF0895CF92DF92F4
:10533000EF92FF920F931F93CF93DF93EC018B01BA
:105340007A010E94F42A811133C0E114F10439F08A
:10535000F70180819181081B190BC80FD91FC12C3F
:10536000D12C0115110519F18091E80085FD16C0B9
:105370008091E8008E778093E800E114F10449F011
:10538000F70180819181C80ED91ED182C08285E04B
:105390000FC00E94F42A882321F30AC089918093C8
:1053A000F10001501109FFEFCF1ADF0ADACF80E0D8
:1053B000DF91CF911F910F91FF90EF90DF90CF90F1
:1053C000089520913E0230913F022617370748F09A
:1053D0006115710539F42091E8002E772093E800DB
:1053E00001C0B901FC0120E06115710579F18091DE
:1053F00037028823F1F18530F1F18091E80083FDD7
:105400003CC08091E80082FD2EC08091E80080FFC2
:10541000EBCF2091F3008091F20090E0922B611588
:10542000710551F08830910538F421912093F100F5
:10543000615071090196F3CF21E0089709F020E04F
:105440008091E8008E778093E800CECF2111CFCFF6
:105450000AC080913702882361F0853061F0809125
:10546000E80083FD0AC08091E80082FFF2CF80E06F
:10547000089582E0089583E0089581E008952091E1
:105480003E0230913F022617370748F0611571053B
:1054900039F42091E8002E772093E80001C0B9018B
:1054A000FC0120E06115710591F18091370288239C
:1054B00009F440C0853009F43FC08091E80083FDC5
:1054C0003DC08091E80082FD2FC08091E80080FF00
:1054D000E9CF2091F3008091F20090E0922B6115CA
:1054E000710559F08830910540F424912093F10022
:1054F0003196615071090196F2CF21E0089709F0C9
:1055000020E08091E8008E778093E800CBCF2111D6
:10551000CCCF0AC080913702882361F0853061F0DA
:105520008091E80083FD0AC08091E80082FFF2CFFD
:1055300080E0089582E0089583E0089581E0089571
:10554000982F973068F59093E900981739F070918B
:10555000EC002091ED005091F00003C0242F762F35
:1055600050E021FD02C09F5FECCF3091EB003E7F09
:105570003093EB003091ED003D7F3093ED003091A2
:10558000EB0031603093EB007093EC002093ED0062
:105590005093F0002091EE0027FDE5CF80E00895C4
:1055A0008F708093E90081E008958091380287FF31
:1055B00011C08091E80082FD05C080913702811101
:1055C000F8CF11C08091E8008B770BC08091370233
:1055D000882349F08091E80080FFF8CF8091E800AF
:1055E0008E778093E80008952091E4003091E500E3
:1055F00095E64091EC00842F817040FF23C080919C
:10560000E80080FD1DC080913702882399F0853025
:1056100099F08091EB0085FD11C04091E40050911C
:10562000E5002417350729F3915011F09A01E1CFD5
:1056300084E0089582E0089583E0089581E008956C
:1056400080E008954091E80042FFDDCF08950E9478
:10565000952B0E949D2BE0EEF0E08081816080839D
:10566000E8EDF0E080818F77808319BCA7EDB0E092
:105670008C918E7F8C9380818F7E808310923602F6
:1056800008950F931F93CF93DF930E94952B0E9451
:105690009D2BC8EDD0E088818F77888388818068D2
:1056A000888388818F7D888319BC1092370210927D
:1056B0003302109235021092340200EE10E0F8012D
:1056C00080818B7F808388818160888342E060E075
:1056D00080E00E94A02AE1EEF0E080818E7F80834E
:1056E000E2EEF0E080818160808380818860808349
:1056F000F80180818E7F8083888180618883DF913B
:10570000CF911F910F910895E8EDF0E080818F7E99
:105710008083E7EDF0E080818160808384E082BF58
:1057200081E0809336020C94412BE8EDF0E080811B
:105730008E7F80831092E20008951092DA0010921A
:10574000E10008951F920F920FB60F9211242F932C
:105750003F934F935F936F937F938F939F93AF93F9
:10576000BF93EF93FF938091E10082FF0BC0809184
:10577000E20082FF07C08091E1008B7F8093E1000F
:105780000E94B6278091DA0080FF1FC08091D80068
:1057900080FF1BC08091DA008E7F8093DA008091B9
:1057A000D90080FF0DC080E189BD82E189BD09B4C7
:1057B00000FEFDCF81E0809337020E948F2705C055
:1057C00019BC109237020E94A1278091E10080FF4E
:1057D00019C08091E20080FF15C08091E2008E7FA9
:1057E0008093E2008091E20080618093E2008091EA
:1057F000D80080628093D80019BC85E0809337027E
:105800000E94AC278091E10084FF30C08091E200CB
:1058100084FF2CC080E189BD82E189BD09B400FE0E
:10582000FDCF8091D8008F7D8093D8008091E100DA
:105830008F7E8093E1008091E2008F7E8093E20072
:105840008091E20081608093E2008091330288239E
:1058500011F084E007C08091E30087FD02C081E081
:1058600001C083E0809337020E94B0278091E1005D
:1058700083FF29C08091E20083FF25C08091E10071
:10588000877F8093E10082E0809337021092330299
:105890008091E1008E7F8093E1008091E2008E7F15
:1058A0008093E2008091E20080618093E20042E018
:1058B00060E080E00E94A02A8091F00088608093E0
:1058C000F0000E94A827FF91EF91BF91AF919F91A7
:1058D0008F917F916F915F914F913F912F910F9099
:1058E0000FBE0F901F9018951F920F920FB60F9238
:1058F00011242F933F934F935F936F937F938F93D5
:105900009F93AF93BF93CF93DF93EF93FF93C09198
:10591000E900CF708091EC00D82FD17080FDD0E8E5
:105920001092E9008091F000877F8093F0007894D6
:105930000E94B82C1092E9008091F000886080935A
:10594000F000CD2BCF70C093E900FF91EF91DF9174
:10595000CF91BF91AF919F918F917F916F915F9107
:105960004F913F912F910F900FBE0F901F90189560
:105970001F93CF93DF93CDB7DEB7AA970FB6F894F6
:10598000DEBF0FBECDBFE8E3F2E08091F10081936E
:1059900022E0E034F207C9F70E9406288091E8006F
:1059A00083FF2EC18091380290913902492F50E037
:1059B0004A30510508F024C1FA01E556FF4F0C9416
:1059C000532E803821F0823809F01AC108C0809126
:1059D000340290913502992389F082600FC0809142
:1059E0003C028F70873008F00BC18093E9008091F2
:1059F000EB0085FB882780F91092E9009091E80080
:105A0000977F9093E8008093F1001092F100D1C04D
:105A1000282F2D7F09F0F4C0882319F0823061F01F
:105A2000EFC080913A02813009F0EAC0933009F06A
:105A300080E0809335022EC080913A0281112AC005
:105A400080913C028F702FEF280F263008F0D8C0CD
:105A50008093E9002091EB0020FF1CC0933021F4DB
:105A60008091EB00806214C09091EB009061909364
:105A7000EB0021E030E0A90102C0440F551F8A95D8
:105A8000E2F74093EA001092EA008091EB00886010
:105A90008093EB001092E9008091E800877F80936B
:105AA000E8000E94D52AACC08111AAC010913A0228
:105AB0001F778091E3008078812B8093E3008091B1
:105AC000E800877F8093E8000E94D52A8091E80053
:105AD00080FFFCCF8091E30080688093E300111188
