:100000000C9412070C9459070C9459070C94590737
:100010000C9459070C9459070C9459070C945907E0
:100020000C9459070C9459070C947F2F0C94513061
:100030000C94BC260C9459070C9459070C9459073E
:100040000C9459070C9459070C9459070C945907B0
:100050000C9459070C9430270C9459070C945907A9
:100060000C9459070C9459070C9459070C94590790
:100070000C9459070C9459070C9459070C94590780
:100080000C9459070C9459070C9459070C94590770
:100090000C9459070C9459070C9459070C94590760
:1000A0000C9459070C9459070C9459076609680970
:1000B00073096A096C096E09700972097509770973
:1000C000790984097B097D097F09810983098609EA
:1000D000BC1CBC1CEE1CEE1C2C1D6E1E6E1E6E1E6F
:1000E0004A1D6E1EED1DED1D5E1E6E1E6E1E671EF0
:1000F000FA1DFA1DFA1DFA1DFA1DFA1DFA1DFA1D48
:10010000FA1DFA1DFA1DFA1DFA1DFA1DFA1DFA1D37
:100110000B1E191E201E271E311EFB1EFB1E0D1F4F
:100120000D1F041F0D1F0D1F0D1FFB1EFB1E091FA2
:100130000D1F0D1F091FBE30E530DD31E530DD310B
:1001400031315431DD31AB31BA3107634236B79BBF
:10015000D8A71A39685618AEBAAB558C1D3CB7CC27
:100160005763BD6DEDFD753EF6177231BF0000009F
:10017000803F05A84CCDB2D44EB93836A9020C50F8
:10018000B9918688083CA6AAAA2ABE000000803F32
:1001900029001E001F00200021002200230024004F
:1001A0002500260027002D002E0035002A002B00F8
:1001B00014001A000800150017001C0018000C009D
:1001C000120013002F00300031004600E000040050
:1001D0001600070009000A000B000D000E000F00BA
:1001E0003300340028000000490000571D001B00A8
:1001F0000600190005001100100036003700380015
:10020000E500000052004C00E000E300E2000000C6
:100210002C00015102512A000000E600E400000019
:10022000500051004F0035003A003B003C003D00BB
:100230003E003F00400041004200430044004500B2
:1002400001000100010001000100010001000100A6
:100250000100010001000100010001000100010096
:1002600048000100C35CC55CC75CC95C01000100BB
:100270000100010001000100010001000000010077
:100280000100C25CC65CC85CCA5C010001000100E0
:10029000010001000100010000004B00010001000D
:1002A0000100010000000100010001000100000048
:1002B0000100010000004A004E004D000100010055
:1002C0000100010001000100010001000100010026
:1002D0000100010001000100010001000100010016
:1002E0000100010001000100010001000100010006
:1002F000010001000100005C01000100010001009B
:1003000001000100010001000100010001000100E5
:10031000AE00000001000100010001000100010029
:1003200001000100010001000100010001000000C6
:10033000A90001000100010001000000010001000E
:10034000010001000000010001000000AC00AA0053
:10035000AB0044454255473A20656E61626C656466
:100360002E0A000A002530313662003A200025307E
:100370003258000A722F6320303132333435363729
:1003800038394142434445460A0054494D455233A9
:100390002064697361626C65642E0A0054494D459E
:1003A000523320656E61626C65642E0A007267626A
:1003B0006C696768742073657420687376205B4E7F
:1003C0004F454550524F4D5D3A2025752C25752CD3
:1003D00025750A007267626C6967687420736574BA
:1003E00020687376205B454550524F4D5D3A20257D
:1003F000752C25752C25750A007267626C69676813
:1004000074207261696E626F7720736574206873FF
:10041000763A2025752C25752C25642C25750A0027
:100420007267626C696768742064697361626C6585
:10043000205B454550524F4D5D3A207267626C69B2
:100440006768745F636F6E6669672E656E61626C64
:1004500065203D2025750A007267626C69676874C3
:1004600020656E61626C65205B454550524F4D5D65
:100470003A207267626C696768745F636F6E666961
:10048000672E656E61626C65203D2025750A0072DD
:1004900067626C6967687420746F67676C65205B5E
:1004A000454550524F4D5D3A207267626C696768EE
:1004B000745F636F6E6669672E656E61626C65203E
:1004C0003D2025750A007267626C69676874206D4B
:1004D0006F6465205B4E4F454550524F4D5D3A204D
:1004E00025750A007267626C69676874206D6F64B5
:1004F00065205B454550524F4D5D3A2025750A00F9
:100500007267626C696768745F696E69742072678C
:10051000626C696768745F636F6E6669672E6D6F82
:100520006465203D20302E20577269746520646513
:100530006661756C742076616C75657320746F20CC
:10054000454550524F4D2E0A007267626C696768CC
:10055000745F696E6974206565636F6E6669672094
:100560006973206E6F7420656E61626C65642E0A1B
:10057000007267626C696768745F696E6974207382
:1005800074617274210A007267626C696768745FD3
:10059000696E69742063616C6C65642E0A00726711
:1005A000626C696768745F636F6E6669672E7370EB
:1005B000656564203D2025640A007267626C696786
:1005C00068745F636F6E6669672E76616C203D208C
:1005D00025640A007267626C696768745F636F6E96
:1005E0006669672E736174203D2025640A00726776
:1005F000626C696768745F636F6E6669672E6875A1
:1006000065203D2025640A007267686C696768741C
:100610005F636F6E6669672E6D6F6465203D202590
:10062000640A007267626C696768745F636F6E6604
:1006300069672E656E61626C65203D2025640A0045
:100640007267626C696768745F636F6E6669672062
:100650006570726F6D0A0000047F3F1F643214647E
:100660003214783C1E1E140A056801F000B40078AC
:10067000005A000000000000010101010101010118
:100680000102020202020202020203030303030345
:100690000303040404040404050505050506060611
:1006A000060607070707080808080909090A0A0AC9
:1006B0000A0B0B0B0C0C0C0D0D0D0E0E0F0F0F106B
:1006C00010111111121213131414151516161717F1
:1006D000181819191A1A1B1C1C1D1D1E1F1F20205B
:1006E0002122222324252526272728292A2B2B2CA3
:1006F0002D2E2F2F30313233343536363738393AC4
:100700003B3C3D3E3F4041424344464748494A4BBB
:100710004C4D4F50515253555657585A5B5C5E5F83
:10072000606263646667696A6C6D6E70717374761B
:1007300078797B7C7E8081838486888A8B8D8F917B
:10074000929496989A9B9D9FA1A3A5A7A9ABADAFA4
:10075000B1B3B5B7B9BBBDBFC1C4C6C8CACCCFD190
:10076000D3D6D8DADCDFE1E4E6E8EBEDF0F2F5F73A
:10077000FAFCFF0A002530325820006B6579626F61
:100780006172645F7265706F72743A20000A0025AE
:10079000303258006B6579626F6172645F736574A3
:1007A0005F6C65643A20003F00433E20004C2564A6
:1007B0000A0074696D65725F72656164333228295D
:1007C0003A202530346C580A006B6579626F61728B
:1007D000645F69646C653A2025580A006B6579622C
:1007E0006F6172645F70726F746F636F6C3A202513
:1007F000580A00686F73745F6B6579626F61726429
:100800005F6C65647328293A2025580A000A092D6F
:1008100020537461747573202D0A004743433A20B6
:10082000352E342E30204156522D4C4942433A2029
:10083000322E302E30204156525F415243483A20EA
:10084000617672350A004F5054494F4E533A204C4E
:100850005546412045585452414B455920434F4E2F
:10086000534F4C4520434F4D4D414E442034303979
:10087000360A004255494C443A2022302E362E3357
:1008800030382D332D673964393135652D646972FF
:10089000747922202832333A33323A3236204F6389
:1008A000742032332032303139290A005649443A13
:1008B0002030784645454428576F726C64737061E8
:1008C000776E29205049443A203078303030302833
:1008D000476F74686963373029205645523A203093
:1008E00078303030310A00444553433A204578701F
:1008F000616E646564204572676F204B6579626F35
:100900006172640A000A092D2056657273696F6E60
:10091000202D0A000A092D20436F6E736F6C65202D
:100920002D0A4553432F713A09717569740A000AFB
:10093000092D204D61676963202D0A443A094465F9
:10094000627567204D65737361676520546F6767D3
:100950006C650A583A094D61747269782044656281
:100960007567204D6F646520546F67676C65202D37
:100970002053686F77206B65797072657373657348
:1009800020696E206D617472697820677269640AEB
:100990004B3A094B6579626F6172642044656275F8
:1009A0006720546F67676C65202D2053686F772030
:1009B0006B65797072657373207265706F72740AFB
:1009C0004D3A094465627567204D6F757365205413
:1009D0006F67676C650A563A0956657273696F6E80
:1009E0000A533A095374617475730A433A094163AF
:1009F00074697661746520436F6E736F6C65204D0A
:100A00006F64650A46312D4631303A09537769746F
:100A1000636820746F204C6179657220302D392015
:100A200028463130203D204C30290A302D393A09F2
:100A300053776974636820746F204C617965722004
:100A4000302D390A47524156453A09537769746344
:100A50006820746F204C6179657220302028616CA9
:100A60007465726E617465290A423A094A756D703F
:100A700020746F20426F6F746C6F616465720A45F9
:100A800053433A094A756D7020746F20426F6F743A
:100A90006C6F616465722028616C7465726E61743C
:100AA00065290A453A095072696E742045455052CD
:100AB0004F4D2053657474696E67730A42535041F9
:100AC00043453A09436C65617220454550524F4D8C
:100AD0000A000A002575002E6E6B726F3A20000A1C
:100AE000002575002E737761705F6261636B736CB4
:100AF0006173685F6261636B73706163653A200064
:100B00000A002575002E737761705F6772617665E4
:100B10005F6573633A20000A002575002E6E6F5FD3
:100B20006775693A20000A002575002E7377617099
:100B30005F72616C745F726775693A20000A002504
:100B400075002E737761705F6C616C745F6C677594
:100B5000693A20000A002575002E636170736C6F7E
:100B6000636B5F746F5F636F6E74726F6C3A2000BB
:100B70000A002575002E737761705F636F6E747263
:100B80006F6C5F636170736C6F636B3A20000A0077
:100B900025303258006B65796D61705F636F6E66EA
:100BA00069672E7261773A20000A002575002E6D64
:100BB0006F7573653A20000A002575002E6B657904
:100BC000626F6172643A20000A002575002E6D6123
:100BD000747269783A20000A002575002E656E61EE
:100BE000626C653A20000A00253032580064656264
:100BF00075675F636F6E6669672E7261773A200072
:100C00000A0025750064656661756C745F6C6179B6
:100C100065723A20003F000A6D6F7573653A206F68
:100C200066660A000A6D6F7573653A206F6E0A007A
:100C30000A6B6579626F6172643A206F66660A00BA
:100C40000A6B6579626F6172643A206F6E0A000AFE
:100C50006D61747269783A206F66660A000A6D6188
:100C6000747269783A206F6E0A000A64656275676B
:100C70003A206F66660A000A64656275673A206FFB
:100C80006E0A000A0A4A756D70696E6720746F20DB
:100C9000626F6F746C6F616465722E2E2E2000433C
:100CA0003E2000436C656172696E67204545505275
:100CB0004F4D0A006565636F6E6669673A0A005BAF
:100CC000735D004B6579626F617264207374617249
:100CD000742E0A005B575D005B535D005B525D0044
:100CE0005B445D005B435D000403300000001203C1
:100CF00047006F007400680069006300370030002F
:100D00000000160357006F0072006C00640073004F
:100D10007000610077006E000000040309040902FE
:100D20005B00030100A0FA090400000103010100B7
:100D30000921110100012240000705810308000A72
:100D40000904010001030000000921110100012232
:100D500036000705820320000A090402000203008E
:100D60000000092111010001222200070583032050
:100D7000000107050303200001120110010000001B
:100D800008EDFE00000100010203010631FF0974B5
:100D9000A1010975150026FF00952075088102093B
:100DA00076150026FF00952075089102C0050109FF
:100DB00080A10185031601002603001A81002A8301
:100DC00000751095018100C0050C0901A101850481
:100DD000160100269C021A01002A9C02751095013A
:100DE0008100C005010906A101050719E029E715E1
:100DF000002501950875018102950175088101059D
:100E00000819012905950575019102950175039150
:100E1000010507190029FF150026FF009506750832
:100E20008100C00011241FBECFEFDAE0DEBFCDBFCE
:100E300004B603FE27C08091680290916902A091D8
:100E40006A02B0916B028730904BA740B04BD1F44F
:100E5000109268021092690210926A0210926B025C
:100E600014BE84B7877F84BF0FB6F894A89580918D
:100E70006000886180936000109260000FBEE0E027
:100E8000F8E3099511E0A0E0B1E0E4EDFBE602C073
:100E900005900D92A835B107D9F722E0A8E5B1E099
:100EA00001C01D92A836B207E1F70E949E2C0C9457
:100EB000E8350C940000FF93EF93E0915801F09116
:100EC0005901309709F00995EF91FF910895FC01C0
:100ED0008591803011F0EFDFFBCF0895FF27E0E22E
:100EE00030E247FF0CC0419597FF09C0EDE26095E5
:100EF000709580959095611D711D811D911D27FF35
:100F000002C0219530E350E2AA27660F771F881FA1
:100F1000991FAA1FA41710F0A41B63955A95A9F74F
:100F2000AA3008F0A95FA05DAF93F3956115710534
:100F30008105910541F7ED3211F4EF93F395F21726
:100F400018F43F93F395FBCF8F91B5DFFA95E1F756
:100F50000895E991F9918591803021F0853219F059
:100F6000AADFF9CF089520E0E89455915532C1F3F6
:100F7000503311F4689455915A3348F4505390F318
:100F8000220F022E220F220F200D250FF4CF0EF478
:100F9000219589919991533619F3533729F1533596
:100FA00059F1BC0188279927E8945C3621F489918E
:100FB000999168945591543639F446EF7EF077FF55
:100FC0000DC08FEF9FEF0AC055374AE039F0583512
:100FD00040E121F0523642E009F00895FF93EF938B
:100FE0007DDFEF91FF91B7CFFF93EF93FC018191EC
:100FF0008030B9F360DFFBCFFF93EF9368DFF1CF71
:10100000DF93CF93CDB7DEB72596A3DFCF91DF91E6
:101010000895879A8F98869A8E98859A8D980895C4
:10102000089561FF02C08D9A089562FF02C08D98F5
:1010300003C063FF03C08D9A8E9A08958D988E9891
:10104000089581FF02C08F9A08958F9808950F9395
:101050001F93CF93DF939C013A9521153F4148F5AB
:10106000EB018C0190FF03C080EEFB01099511FF9D
:1010700003C081EEFE01099512FF03C082EEFE015E
:10108000099513FF03C083EEFE0109950115104178
:1010900080F084EEFE01099585EEFE01099586EE4D
:1010A000FE01099587EEFE01DF91CF911F910F910F
:1010B0000994DF91CF911F910F910895877091E06E
:1010C00001C0990F8A95EAF7892F0E94E2240C94B7
:1010D0001D250C945E08877091E001C0990F8A95D8
:1010E000EAF7892F0E94E8240C941D250C946B08C4
:1010F000CF93DF93EC01805E9109089710F0209761
:1011000019F46EE578E002C069E678E0CE010E944D
:1011100027088C2FDF91CF910C94F81ACF93DF938F
:10112000EC010E941A1CCE01805E9109089710F014
:10113000209719F46BE678E002C066E778E0CE010C
:10114000DF91CF910C94270881E0089581E0089504
:101150000C94A6080E94AA25811102C00E94242690
:101160000C94E40D0E94E6180C94E60D0C942108F2
:101170000C94B60808950E94E91E0E94BA082FEF49
:1011800084E39CE0215080409040E1F700C00000E3
:101190000C945627FF920F931F93CF93DF938C01EC
:1011A000FC01C081D1818091AA01811113C082818B
:1011B000882349F0CE010E944B24F82E682FCE01DF
:1011C0000E94F42304C0CE010E941F24F82EBE0109
:1011D0008F2D04C0CE010E944B24BE010E946E0BD5
:1011E000EC01B8010E944318B801CE010E94A80882
:1011F000882309F468C2B801CE010E948A188823A6
:1012000009F461C2CC3CFCE5DF0741F4F8018281BE
:10121000882309F458C20E94D41055C2CD3C8CE5F5
:10122000D80708F02AC1C43C9CE5D90761F4F8014D
:101230008281882309F447C20E94CC248272E1F49F
:101240000E949F1340C2C53CECE5DE0708F0D3C006
:10125000C531FCE5DF0798F0C23CFCE5DF0709F487
:1012600090C008F496C0F8018281882309F42BC24B
:101270000E94CC24827221F70E94911324C2C230B2
:101280008CE5D80708F452C0F8018281882309F45C
:1012900059C00E94AA25811102C00E9424260E94E2
:1012A000BD2590E090935A0280935902FE01E350CD
:1012B000FC45E231F10530F4EA5AFF4F80915902C2
:1012C0000C948D3580915902816027C0826025C0C1
:1012D000846023C0806121C080621FC080641DC003
:1012E00080681BC08460886018C08E7F16C08D7FA8
:1012F00014C08B7F12C08F7E10C08F7D0EC08F7B7D
:101300000CC08F770AC08B7F877F07C087FB22279F
:1013100020F991E0922790FB87F980935902809100
:1013200059020E94C1250E94E91ECDC1C1159CE54C
:10133000D90781F0C130DC45A9F081E080935F01DD
:1013400080936001C801DF91CF911F910F91FF90B1
:101350000C94A408F8018281882309F4B4C10E9486
:10136000BB08B1C1F8018281882309F4ACC1809126
:101370002A02816080932A0282E593E00E94670737
:10138000A2C1F8018281882309F49DC10E945514ED
:101390009AC1C631DC4589F60E94CC24C82F0E9430
:1013A000CC24817119F49C2F9A7A01C090E0F80145
:1013B00082812091280130912901882379F081E0F0
:1013C000911101C080E080935A01911102C069E23D
:1013D00001C065E3C9010E9459260AC080915A01E3
:1013E000811102C069E201C065E3C9010E945B2668
:1013F0000E941D2568C1F8018281C83CFCE5DF0719
:1014000031F4882309F45FC10E94C3125CC1C93C56
:101410009CE5D907C8F4C63CECE5DE0731F4882327
:1014200009F451C10E9483124EC1C73CDC4530F41F
:10143000882309F448C10E94601245C1882309F439
:1014400042C10E94A3123FC1CA3C9CE5D90731F4B6
:10145000882309F438C10E94031335C1CB3CDC4515
:1014600030F4882309F42FC10E94E3122CC1882391
:1014700009F429C10E94BF1026C1C43DFCE5DF0765
:1014800091F4F8018281882309F41DC10E94B610ED
:10149000893128F00E94B610823208F4EDCE89E13D
:1014A0000E94A21310C1C53D8CE5D80708F068C0A2
:1014B000F8018281C03DFCE5DF0771F4882309F45F
:1014C00002C10E94B610893028F00E94B6108E30FA
:1014D00008F4D2CE89E0E4CFC13D9CE5D90740F5C0
:1014E000CE3CECE5DE0771F4882309F4ECC00E94E1
:1014F000B610823028F00E94B610853008F4BCCEB9
:1015000082E0CECFCF3CDC4528F4882309F4DBC051
:1015100081E0C6CF882309F4D6C00E94B610863079
:1015200028F00E94B610883008F4A6CE86E0B8CF26
:10153000C23D9CE5D90771F4882309F4C4C00E9418
:10154000B610853128F00E94B610873108F494CE89
:1015500085E1A6CFC33DDC4570F4882309F4B3C010
:101560000E94B6108F3028F00E94B610843108F423
:1015700083CE8FE095CF882309F4A5C088E190CF72
:10158000C93DFCE5DF0759F5F8018281882361F048
:10159000109260010E94EE2690935E0180935D019F
:1015A00080E20E94791C8FC080916001882321F025
:1015B00080E20E94801C87C080915D0190915E0155
:1015C0000E940627883C910598F780E20E94801CC3
:1015D00088E20E94F81A88E20E941A1C74C0CA3D70
:1015E0008CE5D80708F04EC0C73D9CE5D90719F532
:1015F000F8018281882351F010925F010E94EE264B
:1016000090935C0180935B0182E0CBCF80915F017E
:1016100081110FC080915B0190915C010E940627AF
:10162000883C910530F486E20E94F81A86E20E9416
:101630001A1C82E0BECFC83DECE5DE07C8F0F80119
:1016400082818111A5CF809160018111B1CF8091FC
:101650005D0190915E010E940627883C910508F08B
:10166000A7CF87E20E94F81A87E20E941A1CA0CF37
:10167000C53DDC4509F061CEF8018281882319F16E
:1016800083E20ECFCD3D8CE5D80741F4F80182818D
:101690008823C9F082E00E94462D15C0CE3D9CE50E
:1016A000D90739F4F8018281882369F00E94242641
:1016B0000AC0CC3DDC4509F040CEF8018281882388
:1016C00011F080E0E8CF80E0DF91CF911F910F9182
:1016D000FF90089580E090E0089508952BE4829FA4
:1016E000C0011124FC012FE0729FE00DF11D1124B7
:1016F000E60FF11DEE0FFF1FE057FE4F859194910D
:101700000895880F991FFC01ED59FC4F8591949124
:101710000895CF93DF930E946E0B0E94450DEC015C
:101720008115904508F041C0C11580E4D80708F044
:1017300028C1C83ED10510F5C03ED10508F0A1C1B1
:10174000C83AD10578F4C53AD10508F0A2C0C13035
:10175000D10509F496C108F447C1C430D10508F099
:1017600090C142C1CF3BD10508F49EC0C03CD10519
:1017700008F43AC1CE01805C9109F5C0C11590E230
:10178000D90758F4C11521E0D20708F07AC1C03F4B
:10179000D10508F429C1D06574C1C11580E3D8070B
:1017A00008F0E5C0CE019F70DEC0C11595E5D907F0
:1017B00008F043C0C11524E5D20708F0F9C0C115EF
:1017C00082E5D80708F5C11591E5D90708F0DCC016
:1017D000CE0174E0969587957A95E1F783709C2FFA
:1017E000937021E030E002C0220F331F9A95E2F798
:1017F0003C68382BCF70C695C69580E2C89FE00143
:101800001124C22BD32B3DC19E01237033278C2F73
:1018100086958695C115D34508F0BBC0C1E0D0E0E0
:1018200002C0CC0FDD1F2A95E2F720E2829FC001A3
:101830001124C82BD92BDC6824C1C11529E5D20796
:10184000A0F4C11588E5D80708F0B7C0C11596E522
:10185000D90708F0C9C08C2F0E94C10D8F71C82F05
:10186000D0E0DC2FCC27D0620CC1C1152AE5D2070D
:1018700008F4A8C0CE0190568115904208F0B4C07B
:101880008D2F8F710E94C10DDD27D0628F71D82BF3
:10189000F8C0C53AD10509F4AAC0C63AD10509F085
:1018A000A9C0C2E8D0E4EDC0C83AD10509F4A5C08A
:1018B000C93AD10509F4A4C0CA3AD10509F4A3C0B4
:1018C000CB3AD10509F4A2C0CC3AD10509F4A1C0A4
:1018D000CB3BD10509F4A0C0CC3BD10509F49FC096
:1018E000CD3AD10509F49EC0C03BD10509F49DC095
:1018F000CE3AD10509F49CC0CF3AD10509F49BC07A
:10190000C13BD10509F49AC0C23BD10509F499C085
:10191000C33BD10509F498C0C43BD10509F497C075
:10192000C53BD10509F496C0C63BD10509F495C065
:10193000C73BD10509F494C0C83BD10509F493C055
:10194000C93BD10509F492C0CD3BD10509F491C042
:10195000CE3BD10509F490C0CA3BD10509F48FC034
:10196000C0E0D4E48EC00E94810BEC018AC0CE019D
:101970009927D3FF03C0EC01D86C83C0EC01D06C75
:1019800080C0DF70D06A7DC0DC2FCC27C16FD06AE9
:1019900078C0C1E0D0E002C0CC0FDD1F2A95E2F78D
:1019A00020E2829FC0011124C82BD92BDA6869C0BC
:1019B000DC2FCC27C46FD06A64C0DC2FCC27C06F6B
:1019C000D06A5FC08C2F8F700E94C10D94E0D695B5
:1019D000C7959A95E1F7CF70D0E0DC2FCC27D06A7D
:1019E0008F70806EC82B4DC0C0E0D0E04AC0C1E807
:1019F000D0E447C0C3E8D0E444C0C2EED4E441C060
:101A0000C9EED4E43EC0CAEED4E43BC0C5EBD4E496
:101A100038C0C6EBD4E435C0C3EBD4E432C0C4EB69
:101A2000D4E42FC0C7EBD4E42CC0CCECD4E429C060
:101A3000CDECD4E426C0C3E8D5E423C0CAE8D5E49D
:101A400020C0C2E9D5E41DC0C4E9D5E41AC0C1E292
:101A5000D6E417C0C3E2D6E414C0C4E2D6E411C091
:101A6000C5E2D6E40EC0C6E2D6E40BC0C7E2D6E4B7
:101A700008C0CFE6D4E405C0C0E7D4E402C0CAE29F
:101A8000D6E4CE01DF91CF9108958238910549F1D6
:101A9000B0F48133910509F459C048F489329105B5
:101AA00009F44FC08A32910509F455C00895853371
:101AB000910509F441C08933910599F00895833E59
:101AC000910531F138F4803E910591F0823E910507
:101AD000A9F00895863E910501F1873E910539F1FF
:101AE00008952091590220FD3BC021FD39C0089581
:101AF0008091590280FF34C089E341C0809159022E
:101B000082FF30C08091590284FD2EC083EE37C021
:101B10008091590282FD26C0F5CF8091590283FF42
:101B200025C08091590284FD1FC087EE28C0809196
:101B3000590283FD1BC0F5CF8091590285FD18C065
:101B400019C08091590285FD15C012C080915902BB
:101B500086FD12C013C08091590286FD0FC00CC0D3
:101B600080EE0DC082EE0BC080E009C086EE07C09B
:101B700089E205C085E303C08AE201C081E390E009
:101B800008959091590292FF0DC0282F2871283096
:101B900019F4877F846006C0282F2471243011F443
:101BA0008B7F886093FF0DC0282F2871283119F48E
:101BB000877E846106C0282F2471243111F48B7E26
:101BC000886194FD877E08950C9409080C94100890
:101BD000CF93DF93A4E4B1E049E451E061E070E029
:101BE0008D91E82FE295EF70F0E091A18F709B014D
:101BF00001C0220F8A95EAF7822F8095892381A35D
:101C00004A175B0769F7A5E3B1E044E451E061E0FE
:101C100070E08D91E82FE295EF70F0E021A18F70D8
:101C2000EB0102C0CC0FDD1F8A95E2F7CE019C2F9D
:101C30009095922391A392A1892B82A34A175B07C7
:101C400041F7EBE6F1E0A1E6B1E085E791E0119222
:101C500011921D921D928E179F07C9F785E00E9471
:101C6000240FDF91CF910C94AA082F923F925F929C
:101C70006F927F928F929F92AF92BF92CF92DF929C
:101C8000EF92FF920F931F93CF93DF9324E4222EC2
:101C900021E0322EABE6B1E035E7632E31E0732E62
:101CA00020E001E010E06D018D909C90119711965D
:101CB0001C921E92E10189911E01E82FE295EF70BE
:101CC000F0E031A18F70A80102C0440F551F8A9522
:101CD000E2F7CA01342B31A342A1382F30954323B8
:101CE00042A350EA5A95F1F795E3E92E91E0F92ED7
:101CF00040E050E0E70159907E01652D62956F70DC
:101D000070E0EB0168A1AD90BC90119770E0D52D0B
:101D1000DF7002C075956795DA95E2F760FD08C03F
:101D2000B801042E02C0660F771F0A94E2F702C0C2
:101D300060E070E06A297B2911967C936E934F5F77
:101D40005F4F4F305105B1F691A1392331A392A1D4
:101D5000892B82A3129681E0F601408151814815BA
:101D6000590509F480E0282B6A167B0609F09BCF01
:101D700045E061E671E08BE691E00E94250F0E944C
:101D8000B20881E0DF91CF911F910F91FF90EF900A
:101D9000DF90CF90BF90AF909F908F907F906F908B
:101DA0005F903F902F900895E82FF0E0EE0FFF1F17
:101DB000EF59FE4F808191810895CF92DF92EF928B
:101DC000FF920F931F93CF93DF9383E793E00E94DB
:101DD000670781E6E82E81E0F82EC0E0D0E09EE6BD
:101DE000C92E93E0D92E05E613E0DF93CF93DF925F
:101DF000CF920E9400088BE693E00E946707F701EC
:101E0000819191917F010E9497259F938F931F93BA
:101E10000F930E94000883E693E00E9467072196D3
:101E20008DB79EB708960FB6F8949EBF0FBE8DBFB4
:101E3000C530D105D1F6DF91CF911F910F91FF9061
:101E4000EF90DF90CF9008950895FF920F931F9326
:101E5000CF93DF93F82E092F162FD72FC42F2223CD
:101E600049F081E0809377010E94EE2690937601FD
:101E700080937501809177018823D9F08091750155
:101E8000909176010E940627069798F0EF2DF02F8B
:101E9000A12FBD2F80E090E04C2F50E084179507D4
:101EA00034F4219131912D933D930196F7CF109207
:101EB0007701DF91CF911F910F91FF900895EF92DD
:101EC000FF920F931F93CF93DF93E901662309F4E9
:101ED0004BC0242F30E0EFEFF0E0E61BF109B90131
:101EE000E69F9001E79F300DF69F300D1124232FC0
:101EF0008B01031B11095CE3E52EF12CB7010E9455
:101F00006535FB01BC01069FC001079F900D169F20
:101F1000900D1124B7010E946535E230F105B1F052
:101F200040F4309779F0319711F5832F242F461B19
:101F300021C0E430F105A1F068F03597C1F4842F99
:101F4000861B18C0832F262F230F14C0862F830FC4
:101F5000E42F03C0E42FE61B842F432F2E2F0AC04B
:101F6000842F462F430F06C0842F242F03C080E008
:101F700020E040E0E42FF0E0ED58F94F4491E22FEB
:101F8000F0E0ED58F94F9491E82FF0E0ED58F94F5B
:101F9000E49149839883EA83DF91CF911F910F9158
:101FA000FF90EF90089580913B02282F26952F7384
:101FB00030E02115310519F48178826005C02532A1
:101FC000310524F08178886480933B0230913B0294
:101FD000432F441F4427441F20913C02522F550F8A
:101FE000852F842B27FB992790F9893641E09407A8
:101FF0007CF068E671E00E94793580FB37F9309318
:102000003B0286952078822B90FB87F980933C02D7
:10201000089588E090E00C94A835CF92DF92EF927B
:10202000FF926B017C010E94D30FB701A60188E0EB
:1020300090E0FF90EF90DF90CF900C94C635EBE3EB
:10204000F2E083E0808310923C028FEF82838383EF
:10205000148260817181828193810C940D10809132
:102060002A0280FF08C080E496E09F938F930E942D
:1020700000080F900F9080912A0280FF0FC080917E
:102080003B0281701F928F9383E296E09F938F9320
:102090000E9400080F900F900F900F9080912A02DD
:1020A00080FF10C080913B0286958F731F928F93A3
:1020B00088E096E09F938F930E9400080F900F9006
:1020C0000F900F9080912A0280FF19C080913B02EF
:1020D000881F8827881F90913C02292F220F822B6E
:1020E00097FB992790F99F938F938EEE95E09F939E
:1020F0008F930E9400080F900F900F900F90809187
:102100002A0280FF0EC080913D021F928F9384EDC2
:1021100095E09F938F930E9400080F900F900F906F
:102120000F9080912A0280FF0EC080913E021F9284
:102130008F938AEB95E09F938F930E9400080F90F6
:102140000F900F900F9080912A0280FF0EC0809117
:102150003F021F928F938EE995E09F938F930E9489
:1021600000080F900F900F900F90089580913B0200
:1021700080FF03C086958F73089580E00895809155
:102180003F0290E001968430910514F083E090E0E6
:1021900080933F0260913B0270913C0280913D022E
:1021A00090913E020C940D1080913F0290E00197B7
:1021B00097FF02C080E090E08430910514F083E046
:1021C00090E080933F0260913B0270913C028091CD
:1021D0003D0290913E020C940D1080913B0280FFD5
:1021E00006C067E070E080E492E00C94AD17E0E494
:1021F000F2E0118210821282339682E0E535F80710
:10220000C1F7EFCF90913B0290FF0CC0E0E4F2E009
:10221000818360834283339692E0E535F907C1F705
:102220000C94ED100895CF93DF9300D01F92CDB79B
:10223000DEB720913B0220FF0AC09E012F5F3F4F77
:102240000E945F0F4B8169818A810E9402110F9069
:102250000F900F90DF91CF9108952F923F924F9260
:102260005F926F927F928F929F92AF92BF92CF9226
:10227000DF92EF92FF920F931F93CF93DF93CDB72F
:10228000DEB727970FB6F894DEBF0FBECDBF8C0127
:10229000462E542E2F8380913B0280FFDFC0982F63
:1022A0009E77923061F49E012F5F3F4FC8010E94DC
:1022B0005F0F4B8169818A810E94021182C0E82FE1
:1022C000E695EF739EE39E0F9F73943018F4509041
:1022D0003E0277C09AE39E0F9F73993068F4881F7F
:1022E0008827881F90913C02292F220F022F082B4C
:1022F00097FB112710F965C087E28E0F8F738A3024
:1023000008F05FC0F0E07997E0FD03C021E02C8386
:1023100002C08FEF8C83EE7FE759F94F8590949040
:10232000C40167E070E00E9465359C81692E990FB9
:102330007708669DC001679D900D769D900D1124D4
:102340009E838D83580198E9A91A9EEFB90A80E40B
:10235000C82E82E0D82EE12CF12CC50168E671E090
:102360000E9465351C0180912A0280FF14C09F9253
:102370008F927F922C812F933F922F92FF92EF9218
:1023800089EF93E09F938F930E9400080FB6F89413
:10239000DEBF0FBECDBF9601452D642DC1010E9449
:1023A0005F0F9FEFE91AF90A8D819E81A80EB91E71
:1023B00093E0C90ED11C27E0E216F10471F60E94E9
:1023C000ED1080913B0200FB87F980933B028091E6
:1023D0003C028078902F9695892B10FB87F980938B
:1023E0003C0240923D0250923E028F81882321F1AF
:1023F00060913B0270913C0280913D0290913E02BF
:102400000E940D1080913E021F928F9380913D0299
:102410001F928F9380913B02881F8827881F90917D
:102420003C02292F220F822B97FB992790F99F932B
:102430008F9384ED93E009C01F925F921F924F9299
:1024400011701F930F938DEA93E09F938F930E94D7
:1024500000080FB6F894DEBF0FBECDBF27960FB6AB
:10246000F894DEBF0FBECDBFDF91CF911F910F91CA
:10247000FF90EF90DF90CF90BF90AF909F908F90A4
:102480007F906F905F904F903F902F900895282FEE
:10249000EBE3F2E03081331F3327331F40913C02DE
:1024A000542F550F852F832B47FB992790F90896BA
:1024B00068E671E00E947935438162810C942D11A8
:1024C00081E00C944712282F30913B02331F3327B1
:1024D000331F40913C02542F550F852F832B47FB10
:1024E000992790F9883091051CF4805A9E4F05C0B9
:1024F000089768E671E00E94793540913E0260914C
:102500003D020C942D1181E00C94631260913D0208
:10251000262F30E0283F310514F4685F01C06FEFCB
:1025200030913B02331F3327331F90913C02592FC8
:10253000550F97FB992790F9282F40913E02852F40
:10254000832B0C942D1181E00C94861260913D0236
:10255000262F30E02830310514F0685001C060E0CB
:1025600030913B02331F3327331F90913C02592F88
:10257000550F97FB992790F9282F40913E02852F00
:10258000832B0C942D1181E00C94A61240913E02F5
:10259000242F30E0283F310514F4485F01C04FEF8D
:1025A00030913B02331F3327331F90913C02592F48
:1025B000550F97FB992790F9282F60913D02852FA1
:1025C000832B0C942D1181E00C94C61240913E0295
:1025D000242F30E02830310514F0485001C040E08D
:1025E00030913B02331F3327331F90913C02592F08
:1025F000550F97FB992790F9282F60913D02852F61
:10260000832B0C942D1181E00C94E61220E00C94A5
:102610002D1181E08093950180912A0280FF08C0EE
:102620008CE993E09F938F930E9400080F900F9086
:1026300008951092950180912A0280FF08C08AE8CF
:1026400093E09F938F930E9400080F900F9008953E
:1026500090913B0290FF58C09178811102C0926026
:1026600007C0853210F0986403C08F73880F982BD1
:1026700090933B02662399F060913B0270913C027B
:1026800080913D0290913E020E940D1080913B028C
:1026900086958F731F928F9384EE94E008C080918B
:1026A0003B0286958F731F928F9386EC94E09F93E5
:1026B0008F930E9400080F900F900F900F906091E1
:1026C0003B0266956F7370E04BE050E08CE191E067
:1026D0000E949335892B19F00E94191302C00E94A1
:1026E000091380913B02881F8827881F90913C0224
:1026F000292F220F97FB992790F940913E02609174
:102700003D02822B0C9406130895682F90913B0292
:1027100096959F7381E0890F853208F081E00C94D3
:10272000281381E00C948513682F90913B029695B5
:102730009F738FEF890F09F484E20C94281381E0D2
:102740000C94941361E00C942813CF93DF93CBE3A4
:10275000D2E08881816088831F9281E08F9388E531
:1027600094E09F938F930E9400080F900F900F901A
:102770000F90888186958F73DF91CF910C94A2136F
:1027800060E00C94281380919601811163C08091C0
:102790002A02816080932A0287E895E09F938F93B5
:1027A0000E94000880912A020F900F9080FF08C0BD
:1027B00081E795E09F938F930E9400080F900F9000
:1027C0000E94AA25811110C080912A0280FF08C0B2
:1027D00089E495E09F938F930E9400080F900F90DB
:1027E0000E9424260E941F100E94091060933B0241
:1027F00070933C0280933D0290933E026E77C1F449
:1028000080912A0280FF08C080E095E09F938F931B
:102810000E9400080F900F900E941F100E94091044
:1028200060933B0270933C0280933D0290933E0282
:102830000E94D30F0E942F1081E080939501809118
:102840003B0280FF04C086958F730E94C01381E015
:10285000809396010895CF93DF93CBE3D2E08881F4
:102860008E7F8883688179818A819B810E940D1087
:10287000888181701F928F9380E294E09F938F9361
:102880000E9400080E9419132FEF80E792E0215068
:1028900080409040E1F700C000000F900F900F9033
:1028A0000F90DF91CF910C94ED1080913B028095B9
:1028B00081701F928F938FE894E09F938F930E9473
:1028C000000880913B020F900F900F900F9080FDB9
:1028D0000C942B140C94A513CF93E82FF0E0EB5934
:1028E000F94FC49180919301909194010E94062721
:1028F000EC2FF0E08E179F0708F443C00E94EE26ED
:1029000090939401809393016091920170E080E034
:1029100090E00E945A3320E030E04FE753E40E94F9
:102920007D322BED3FE049E450E40E9483340E9465
:10293000F0340E94F7322BE43AE34EE25FE30E9468
:10294000103220EF3BEF48ED52E40E9483340E94A6
:102950002933462F80913B02881F8827881F90913A
:102960003C02292F220F97FB992790F960913D0295
:10297000822B0E9413118091920190E00196809326
:102980009201CF910895CF93E82FF0E0EE59F94FDF
:10299000C49180919001909191010E940627EC2FA3
:1029A000F0E08E179F07E8F00E94EE2690939101C9
:1029B0008093900140913E0260913D0280918E0192
:1029C00090918F010E94131180918E0190918F013F
:1029D000019668E671E00E94653590938F018093BF
:1029E0008E01CF910895CF92DF92FF920F931F93A4
:1029F000CF93DF93F82EE82FE695F0E0E15AF94FF8
:102A0000C49180918C0190918D010E940627EC2F3A
:102A1000F0E08E179F07C0F10E94EE2690938D0183
:102A200080938C0100E412E0C0E0D0E088E6C82E7C
:102A3000DD24D39480918A0190918B018C0F9D1F8E
:102A4000B6010E946535980140913E0260913D02B9
:102A50000E945F0FE3960D5F1F4FC53681E0D807D8
:102A600049F70E94ED1080918A0190918B01F0FE50
:102A700006C0019668E671E00E94653501C00197C5
:102A800090938B0180938A01DF91CF911F910F91D9
:102A9000FF90DF90CF900895CF92DF92EF92FF9258
:102AA0000F931F93CF93DF9380FF02C01FEF01C0EE
:102AB00011E08695E82FF0E0E45AF94FC491809137
:102AC0008801909189010E940627EC2FF0E08E1773
:102AD0009F0708F45BC00E94EE26909389018093C3
:102AE000880120E4E22E22E0F22EC0E0D0E0F701DF
:102AF00011821082128294E0C92ED12C00E08091C4
:102B00008701800F87FD895F082E000C990BC8177D
:102B1000D907E9F480913E028C9DA0018D9D500D56
:102B20001124559547955595479580913B02881FEF
:102B30008827881F90913C02592F550F97FB9927A2
:102B400090F9970160913D02852B0E945F0F010F64
:102B5000F1E0CF1AD10899F6219683E0E80EF11C36
:102B6000C730D10521F60E94ED1080918701113008
:102B700031F4811102C086E007C0815005C090E0A9
:102B80000196BE010E94793580938701DF91CF9134
:102B90001F910F91FF90EF90DF90CF9008950F93CA
:102BA0001F93CF93DF93E82FF0E0E75AF94FC491DA
:102BB00080918501909186010E940627EC2FF0E01C
:102BC0008E179F0708F456C00E94EE269093860148
:102BD00080938501C0E4D2E0FE011182108212824E
:102BE000339682E0E535F807C1F700E010E0809108
:102BF0008401082E000C990B08171907ECF080913E
:102C00001B01082E000C990B80179107ACF08091E6
:102C10003B02881F8827881F90913C02592F550F2F
:102C200097FB992790F99E0140913E0260913D02E9
:102C3000852B0E945F0F03C0198218821A820F5FD2
:102C40001F4F23960730110591F60E94ED108091D9
:102C50001A0190918401980F9093840120911B0197
:102C6000280F20931B01121614F496301CF0819546
:102C700080931A01DF91CF911F910F910895EF92E8
:102C8000FF920F931F93CF93DF93809182019091D6
:102C900083010E940627883E9340D0F10E94EE26D1
:102CA0009093830180938201C0918001D091810132
:102CB0002196C170DD27D0938101C093800180E40B
:102CC000E82E82E0F82E10E008E7812F8695FE01BD
:102CD000E80FF11DCF0181709927970140913E02C5
:102CE00060913D02FC010E9FC0010F9F900D1124C9
:102CF0000E945F0F1F5FF3E0EF0EF11C173029F702
:102D0000DF91CF911F910F91FF90EF900C94ED10F8
:102D1000DF91CF911F910F91FF90EF900895CF9386
:102D2000DF9300D01F92CDB7DEB780917E019091E6
:102D30007F010E940627E7E5F6E02591349182178E
:102D40009307C0F180917D0181110CC09E012F5F1E
:102D50003F4F4FEF6FEF80E090E00E945F0F8A815E
:102D600080937D010E94EE2690937F0180937E01E7
:102D700080917C01813051F028F0823061F44091E3
:102D80007D010AC080917D0140E007C060917D0116
:102D900040E080E003C040E080E060E00E9402117B
:102DA00080917C0190E0019663E070E00E947935AB
:102DB00080937C010F900F900F90DF91CF91089539
:102DC0000F931F93CF93DF9380917A0190917B01B2
:102DD0000E940627843F914008F448C00E94EE26D6
:102DE00090937B0180937A01C0E4D2E000E010E090
:102DF000209178013091790180913B0290913C02C1
:102E0000033011051CF4232B79F002C0232B61F44D
:102E1000881F8827881F592F550F97FB992790F9EE
:102E20009E0140913E020AC0881F8827881F592FA3
:102E3000550F97FB992790F99E0140E060913D0264
:102E4000852B0E945F0F0F5F1F4F239607301105E0
:102E500079F60E94ED1080917801909179010196A8
:102E6000817099279093790180937801DF91CF91B8
:102E70001F910F910895809195018823D9F1909128
:102E80003B02892F86958F732EE3280F2F732430F2
:102E900018F482500C946C142AE3280F2F732330FB
:102EA00018F486500C94C31427E3280F2F73263090
:102EB00018F489500C94F31421E3280F2F73263053
:102EC00018F48F500C944C152BE2280F2F732330DD
:102ED00018F485510C94CF15892F8E77803311F417
:102EE0000C943F16863411F40C948F16883411F428
:102EF0000C94E016089521B3342F3095232331B379
:102F0000432B3FB7F894FC01680F791FE617F707CA
:102F100089F0819198E041BB000000C087FF21BB90
:102F2000880F000000C000C000C021BB00C09A95FF
:102F300091F7ECCF3FBF089520B3242B20BB9B011A
:102F4000220F331F620F731F0E947B1787EC90E0E4
:102F50000197F1F700C00000089540E10C949C1720
:102F6000CF93DF93EC0181E0898B8F810E94CF2486
:102F700088850E94E2240E941D25EA81FB81CE0102
:102F80000696309729F06C897D89DF91CF9109945D
:102F9000DF91CF910895CF93DF93FC012081223000
:102FA00041F4FB01EC01828193810E94780881E069
:102FB0008B87DF91CF910895FC018081813021F4CE
:102FC000FB018081918105C0823029F4FB0182815F
:102FD00093810C9478080895FC018081813021F45C
:102FE000FB018081918105C0823029F4FB0182813F
:102FF00093810C948E080895EF92FF920F931F9384
:10300000CF93DF93FC012285211136C0EC01E380D0
:10301000F480F7E5FF1A26E12E9DC0012F9D900D4B
:103020001124DC01A050BF4F1496ED91FC9115972F
:103030008A5F9E4F309729F054966D917C915597F9
:10304000099586E18E9D80018F9D100D1124005001
:103050001F4FF80187810E94D524F80180850E94C6
:10306000E8240E941D25188219861B861E821D8257
:103070001092980110929701DF91CF911F910F91BB
:10308000FF90EF900895DF92EF92FF920F931F93BE
:10309000CF93DF93FB0122812223A1F1209127010D
:1030A0002F3F81F18C01C0E0D1E0E12CF12CDD2437
:1030B000D39480912701082E000C990B8E159F0543
:1030C0000CF18E818823C9F089859A858017910734
:1030D00039F480919701909198010817190769F0C8
:1030E000DF861C870B878989811103C0CE010E946E
:1030F000B017CE0106960E94FC17FFEFEF1AFF0AE9
:103100006696D7CFDF91CF911F910F91FF90EF90EF
:10311000DF900895EF92FF920F931F93CF93DF9369
:103120009C0137552F3F310511F008F047C0409101
:103130002701042E000C550B4217530714F420935B
:103140002701FB017C01828196E1929F8001939F80
:10315000100D1124E801C050DF4F888B92818E81C1
:10316000992311F1FA86E9868F5F8E830E94EE26FD
:103170009E878D870E9402258F830E94CC2488879A
:103180000E94DF249885892B8887E881F981C8010E
:103190008A5F9E4F309719F06C897D890995F0926E
:1031A0009801E09297010AC0882341F08989882319
:1031B00029F0C8018A5F9E4F0E94FC1781E0DF91D1
:1031C000CF911F910F91FF90EF900895CF92DF92D2
:1031D000EF92FF920F931F93CF93DF93809127017C
:1031E0008F3FF1F1F12C96E1E92E0F2D10E0809147
:1031F0002701082E000C990B801791078CF1E09E97
:10320000F001E19EF00D1124E050FF4FC288D388F9
:10321000C114D10419F488ECC82ED12CE09EE00131
:10322000E19ED00D1124C050DF4F8E818823B1F074
:103230008D859E850E940627C816D90678F489894F
:10324000811103C0CE010E94B017E09EC001E19E33
:10325000900D11248A5F9E4F0E94FC17F394C5CFF6
:10326000DF91CF911F910F91FF90EF90DF90CF9062
:10327000089590939E0180939D010895E0919D0192
:10328000F0919E01309721F00190F081E02D09949A
:1032900080E00895EF92FF920F931F93CF93DF93F7
:1032A000E0919D01F0919E013097B1F18C01028077
:1032B000F381E02D099580912A0282FF2DC080FFC5
:1032C00004C08BE797E00E946707E80118E085E7F4
:1032D000E82E87E0F82E80912A0280FF0BC08881BB
:1032E0001F928F93FF92EF920E9400080F900F9011
:1032F0000F900F90115021961111EDCF80912A025D
:1033000080FF0AC083E797E0DF91CF911F910F9173
:10331000FF90EF900C946707DF91CF911F910F9171
:10332000FF90EF90089520919B0130919C01281708
:10333000390771F090939C0180939B01E0919D016E
:10334000F0919E01309721F00680F781E02D0994DD
:1033500008952091990130919A012817390771F049
:1033600090939A0180939901E0919D01F0919E01C3
:10337000309721F00084F185E02D0994089585B7F8
:10338000806885BF85B7806885BF089508950C94CF
:10339000C6190C94C7190C94C6190C94C6190E942E
:1033A000BF190E94CB190C94C91981E008950E949D
:1033B000E5260E94E80D0E947A270E94C3130C9410
:1033C000CD19CF93C82F80912A0282FF1EC080FFA3
:1033D00004C084E997E00E94670780912A0280FF79
:1033E0000CC01F92CF938FE897E09F938F930E941A
:1033F00000080F900F900F900F9080912A0280FF8D
:1034000004C08DE897E00E9467078C2FCF910C9441
:10341000B8085F926F927F928F929F92AF92BF9205
:10342000CF92DF92EF92FF920F931F93CF93DF9390
:10343000CDB7DEB72A970FB6F894DEBF0FBECDBF6B
:103440000E94350E0E94D519811111C08FEF89831A
:103450008A831B820E94EE268160782F9D838C8355
:1034600049815A816B818D810E94C41A56C090EAAD
:10347000692E91E0792E00E010E088248394912C4D
:10348000502E802F0E94D40E6C01F301A190B190B8
:103490003F01A826B926A114B10431F40F5F1F4FD4
:1034A0000530110569F7D2CF80912A0281FD0E9473
:1034B000DD0E80E090E07401082E02C0EE0CFF1CCF
:1034C0000A94E2F795012E213F21232B09F18E83E7
:1034D0005F82CE20DF2081E0CD2809F480E088875C
:1034E0000E94EE268160782F9A8789874E815F81BE
:1034F00068858A850E94C41A000F111FF801E056E2
:10350000FE4F80819181E826F926F182E08205C094
:1035100001968F30910579F6C1CF0E943E199091A6
:103520009F018917D9F00E943E1980939F012A9626
:103530000FB6F894DEBF0FBECDBFDF91CF911F91C4
:103540000F91FF90EF90DF90CF90BF90AF909F9042
:103550008F907F906F905F900C94E1192A960FB630
:10356000F894DEBF0FBECDBFDF91CF911F910F91B9
:10357000FF90EF90DF90CF90BF90AF909F908F9093
:103580007F906F905F900895CF93DF93CDB7DEB7B4
:103590002B970FB6F894DEBF0FBECDBF4F83588771
:1035A00069877A878B87DE01119686E0FD0111928B
:1035B0008A95E9F785E0FE01379601900D928A958C
:1035C000E1F749815A816B817C818D819E810E94C6
:1035D000B9212B960FB6F894DEBF0FBECDBFDF9199
:1035E000CF910895FC01808191810E948D240895DE
:1035F000CF93882309F41CC1C82F8238C1F40E94DC
:103600003E1981FD15C169E380912801909129013E
:103610000E9459260E941D252FEF81EE94E0215033
:1036200080409040E1F700C0000069E319C0833892
:1036300001F50E943E1980FDFBC063E580912801E1
:10364000909129010E9459260E941D252FEF81EE9D
:1036500094E0215080409040E1F700C0000063E515
:1036600080912801909129010E945B26CF910C94B2
:103670001D258438C1F40E943E1982FDD9C067E43B
:1036800080912801909129010E9459260E941D25B0
:103690002FEF81EE94E0215080409040E1F700C090
:1036A000000067E4DDCF8CEF8C0F813A68F48C2F3B
:1036B0000E94162A8111BCC06C2F80912801909124
:1036C00029010E945926D2CF80E28C0F883048F41D
:1036D000C77081E001C0880FCA95EAF70E94CF2425
:1036E000C5CF8BE58C0F833078F4C53A29F0C63A04
:1036F00031F083E890E005C081E890E002C082E804
:1037000090E0CF910C94931988E58C0F873108F0E5
:103710008FC0C83A09F445C0C93A09F445C0CA3A4D
:1037200009F445C0CB3A09F445C0CC3A09F445C088
:10373000CB3B09F445C0CC3B09F445C0CD3A09F474
:1037400045C0C03B09F445C0CE3A09F445C0CF3A64
:1037500009F445C0C13B09F445C0C23B09F445C06A
:10376000C33B09F445C0C43B09F445C0C53B09F45B
:1037700045C0C63B09F445C0C73B09F445C0C83B3A
:1037800009F445C0C93B09F445C0CD3B09F445C027
:10379000CE3B09F445C0CA3B09F445C080E090E047
:1037A00044C082EE90E041C089EE90E03EC08AEED7
:1037B00090E03BC085EB90E038C086EB90E035C0F0
:1037C00083EB90E032C084EB90E02FC087EB90E079
:1037D0002CC08CEC90E029C08DEC90E026C083E8F2
:1037E00091E023C08AE891E020C082E991E01DC009
:1037F00084E991E01AC081E292E017C083E292E08E
:1038000014C084E292E011C085E292E00EC086E22C
:1038100092E00BC087E292E008C08FE690E005C01E
:1038200080E790E002C08AE292E0CF910C94A9195F
:10383000CF910895882309F45BC0682F823879F40A
:103840000E943E1981FF54C069E380912801909144
:1038500029010E9459260E941D2569E310C0833862
:10386000B1F40E943E1980FF43C063E580912801B6
:10387000909129010E9459260E941D2563E580919F
:103880002801909129010E945B260C941D25843803
:1038900079F40E943E1982FF2BC067E480912801D1
:1038A000909129010E9459260E941D2567E4E7CFC7
:1038B0008CEF860F813A18F380E2860F883048F447
:1038C000677081E001C0880F6A95EAF70E94D524ED
:1038D000DCCF8BE5860F833020F480E090E00C9401
:1038E0009319685A673120F480E090E00C94A9198C
:1038F0000895882321F00E94CF240C941D2508955B
:10390000882321F00E94D5240C941D2508958F92C0
:103910009F92AF92BF92DF92EF92FF920F931F930D
:10392000CF93DF937C01D62FC72FFC010581029531
:103930000F70128111110E94EF240E94C524882368
:1039400079F0112369F080E28D0F883048F082E031
:103950000E9467250E94C52491E0D82ED92601C077
:10396000D12CBC2EB2948FE0B8228B2D90E0FC01BC
:10397000E859FF4F0C948D358C2F807FCF708823B2
:1039800011F0C295C07F112399F0CC2309F481C1B5
:1039900080E28D0F883010F0D11104C08C2F0E946E
:1039A000CF2403C08C2F0E94E2240E941D2571C1E8
:1039B0008D2F0E941A1CCC2309F490C180E28D0F38
:1039C000883010F0D11104C08C2F0E94D52403C080
:1039D0008C2F0E94E8240E941D2580C18C2F807F9F
:1039E000CF70803211F0C295C07FDD2319F0D13045
:1039F000C9F022C0112371F0002341F0013031F4ED
:103A00000E9402258C2B0E940A2568C10E94022573
:103A10008C2BF8C0002319F0013009F45FC10E941B
:103A2000132518C0112321F0063008F057C10EC02D
:103A3000053008F053C10EC0112351F0002331F0BE
:103A4000F701858180FF25C18F7085838C2FDAC0B7
:103A5000011130C18C2FDCC08C2F86958695837028
:103A600019F0813061F03AC1112321F08D2F9C2F84
:103A7000937002C080E090E00E9493193CC1112332
:103A800021F08D2F9C2F937002C080E090E00E9467
:103A9000A91931C18C2F837009F04CC0111127C1B5
:103AA0002D2F229526952770220F220F6D2F6F70D4
:103AB000862F90E0A0E0B0E04C015D01022E04C032
:103AC000880C991CAA1CBB1C0A94D2F7D4FF12C004
:103AD0008FE090E0A0E0B0E004C0880F991FAA1F1B
:103AE000BB1F2A95D2F7BC01CD01609570958095DA
:103AF000909503C060E070E0CB01C695C695C37099
:103B0000C23051F080F4682979298A299B29C13073
:103B100071F00E940A23EBC0682979298A299B2920
:103B20000E941C23E4C00E940A23C501B4010E9424
:103B3000F822DDC0112319F08C2F817001C0869509
:103B4000882309F4D4C02D2F229526952770220FA3
:103B5000220F6D2F6F70862F90E0A0E0B0E04C0137
:103B60005D01022E04C0880C991CAA1CBB1C0A947F
:103B7000D2F7D4FF12C08FE090E0A0E0B0E004C024
:103B8000880F991FAA1FBB1F2A95D2F7BC01CD0130
:103B9000609570958095909503C060E070E0CB01D2
:103BA000C695C695C370C23051F080F46829792952
:103BB0008A299B29C13071F00E94CF2398C06829BF
:103BC00079298A299B290E94E12391C00E94CF2351
:103BD000C501B4010E94BD238AC08D2F90E0FC0175
:103BE000E05EF109E531F10508F04FC0E858FF4FFC
:103BF0000C948D35DF708C2F8F71112331F00E9462
:103C000056238D2F0E94791C69C00E9477238D2F27
:103C10000E94801C63C0112341F0053008F05EC093
:103C20008C2F8F710E949C2359C0063008F056C01B
:103C3000F7CF112339F08C2F8F710E9456234EC07D
:103C40001123C9F38C2F8F710E94772347C0112352
:103C500029F08C2F8F710E94412340C00E943C2389
:103C60003DC0112349F0CF718C2F0E94562363E091
:103C70008C2F0E94522532C081E00E9467250230BD
:103C800068F182E00E94672529C0112331F00023EA
:103C900091F28D2F0E94F81A21C0002399F2D93396
:103CA00049F4FFEF27EE83E0F15020408040E1F738
:103CB00000C000008D2F0E941A1C10C04C2F4F70A6
:103CC0006D2FC7010E946A0B0E94672214C04C2FFF
:103CD0004F706D2FC7010E946D0B0DC098E0B91693
:103CE00031F0B91640F086EF8B0D823020F40E943F
:103CF0003E190E94B808DD20E1F00E94C12480FD39
:103D000018C0F70112820E94BB240E945623C701EB
:103D10000E94A51E0E94BB24DF91CF911F910F919D
:103D2000FF90EF90DF90BF90AF909F908F900C949A
:103D30007723DF91CF911F910F91FF90EF90DF904C
:103D4000BF90AF909F908F9008950F931F93CF9344
:103D5000DF93EC01988189812B813C81232B31F009
:103D60008F3F31F481E09F3F19F403C081E001C02F
:103D700080E080FD13C0CE010E94CA08882371F044
:103D8000688179818A810E9498248C010E94F323A2
:103D90000E94E422B801CE010E94871CDF91CF91DE
:103DA0001F910F9108950E94EF240E94FF240E940A
:103DB0001D2580E090E00E94931980E090E00C9433
:103DC000A91980912801909129010E945D260C94E7
:103DD000D31E0E94DC240C94E11EE92FE295EF70C3
:103DE0004E2F50E0FA013297EE30F105B0F4E35770
:103DF000FF4F0C948D35803F91F018F4803E68F4AD
:103E00000EC0843F51F40BC0803E48F0813F29F43E
:103E100006C093FB882780F9089580E0089581E02B
:103E200008950E948D240E94ED1E0895CF93DF9384
:103E300000D000D01F92CDB7DEB70F900F900F903B
:103E40000F900F90DF91CF910895CF93DF9300D023
:103E500000D000D0CDB7DEB726960FB6F894DEBFFF
:103E60000FBECDBFDF91CF9108951F93CF93DF9306
:103E7000C091AB0116E08091AC01C81799F0D0E079
:103E80001C9FF0011D9FF00D1124E355FE4F408152
:103E9000518162817381848195810E94251F2196C1
:103EA000C770E9CFDF91CF911F9108954091DD0157
:103EB0005091DE016091DF017091E0018091E1019C
:103EC0009091E2010C94251FCF938091E20182959D
:103ED0008F7009F05FC08091DF01882309F45AC018
:103EE0008091AB01B091AC017091DD01A091DE0138
:103EF0004091E0015091E10191E07F3F09F090E0B5
:103F0000692FC6E08B1709F445C04115510521F012
:103F1000AF3F21F020E003C021E001C0262F90E058
:103F200020FD35C0C89FF001C99FF00D1124E35555
:103F3000FE4F21812A132BC02081271328C0228104
:103F4000211125C0238134812417350710F4215015
:103F50003109241B350B283C3105C8F42091E201BE
:103F60002F7020612093E20126E0289FF001299F15
:103F7000F00D1124EE54FE4F80818F70806180839C
:103F80008DED91E00E94A51ECF910C94351F0196F6
:103F90008770B8CFCF910895AF92BF92CF92DF9242
:103FA000EF92FF920F931F93CF93DF93CDB7DEB7BE
:103FB00061970FB6F894DEBF0FBECDBF8C0185E0D0
:103FC000F801DE011D9601900D928A95E1F7D80166
:103FD0004C9111965C9111971296EC903091DD0105
:103FE0006091DE018091E0019091E101009731F054
:103FF0006F3F31F421E03F3F19F403C021E001C0DD
:1040000020E0B22FB170BB2E20FD60C1F801C3804B
:10401000D480A090DF01AA2009F4EEC02091E20133
:10402000C816D90628F0D601A81BB90BCD0104C0CB
:10403000809590958C0D9D1DFF24F394883C9105EF
:1040400080F0F12C207F09F09CC07C2DD98AC88A91
:104050006E2D89890E94161F8DED91E00E94A51E8C
:104060002DC1822F807F09F054C0561314C0431312
:1040700012C0FE2CE1100FC02F7020612093E201CE
:104080000E94561F8DED91E00E94A51E8091E201D5
:10409000F80185835CC1CD2831F05F3F31F481E0C8
:1040A0004F3F19F403C081E001C080E080FD03C0F0
:1040B00081E08E2502C080E090E0F82FF170FF2EA5
:1040C00080FF1CC08091AB012091AC0136E08217CB
:1040D00009F41AC190E0389FF001399FF00D1124C6
:1040E000E355FE4F6181561306C06081461303C03D
:1040F0006281E61203C001968770E9CFFE2CEE20A4
:1041000009F425C18091E20181608093E201F12CE4
:104110001EC1561309C0431307C0E11005C08091AA
:10412000E201F8018583A4C04D875E878D859E8559
:104130000E94111F882379F1EE2069F12091E2019C
:10414000822F82958F7090E0029774F08091DD014C
:104150009091DE0198878F831986DB86CA862C872B
:10416000CE0107960E94A51E86E0F801ADEDB1E0F4
:1041700001900D928A95E1F70E94641F0E94561FDC
:104180000DC0561771F04D875E878D859E850E9404
:10419000111F81111AC0C8010E94A51EFF24F394AB
:1041A000D6C04313F0CFE110EECF8091E201F801C9
:1041B0008583C8010E94A51E86E0EDEDF1E0DF01D8
:1041C0001D928A95E9F7FA2CC2C0EE2021F32091C6
:1041D000E201822F82958F7090E002972CF28091FD
:1041E000DD019091DE019A8389831B82DD82CC827E
:1041F0002E83CE010196B6CFC816D90628F0F60157
:10420000E81BF90BCF0104C0809590958C0D9D1D86
:10421000883C910548F0F12C7C2DD98AC88A6E2DF6
:1042200089890E94161F4AC0FE2CEE2009F4B3CFE4
:10423000561333C0431331C02091E20120FD24C046
:10424000822F82958F70482F50E041155105E1F083
:10425000D80115962C9315974F30510549F08F5F73
:10426000982F9295907F822F8F70892B15968C9323
:10427000C8010E94A51E86E0F801ADEDB1E00190F5
:104280000D928A95E1F73DC086E0F801ADEDB1E011
:1042900001900D928A95E1F75AC04D875E878D8512
:1042A0009E850E94111F81115FCF8091E201816084
:1042B0008093E201C8010E94A51E49C0EDEDF1E026
:1042C00086E0DF011D928A95E9F71BC0EE2009F414
:1042D00062CF4D875E878D859E850E94111FF82EC7
:1042E000882309F458CF86E0F801ADEDB1E00190E4
:1042F0000D928A95E1F78DED91E00E94F21A0E94ED
:10430000641F0E94561F23C04D875E878D859E8542
:104310000E948D24292F22952F70223028F49F701F
:1043200039F0811105C00BC0243028F49F7049F486
:10433000805E883020F0C8010E94A51EBF2CFB2C97
:1043400006C0D80115969C91907F91F7F8CF8F2DDC
:1043500061960FB6F894DEBF0FBECDBFDF91CF914F
:104360001F910F91FF90EF90DF90CF90BF90AF9093
:1043700008951F93CF93DF93CDB7DEB72C970FB679
:10438000F894DEBF0FBECDBF4F83588769877A8709
:104390008B879C87CE0107960E94CC1F8823D1F083
:1043A0009F8188852A853B85232B31F08F3F31F40F
:1043B00081E09F3F19F403C081E001C080E080FDEF
:1043C00047C04F81588569857A858B859C850E9479
:1043D000251F3EC086E0FE013796DE011196019052
:1043E0000D928A95E1F7FF81E8856A857B856115E5
:1043F000710531F0EF3F31F481E0FF3F19F403C064
:1044000081E001C080E080FD23C02091AC0130E05C
:10441000C9010196877099274091AB0150E084173C
:104420009507F1F1F983EA837D836C8396E0929F8F
:10443000D001939FB00D1124A355BE4FFE013196BC
:1044400001900D929A95E1F78093AC010E94351F7F
:1044500016E08091AB019091AC01891771F1189F22
:10446000C001112483559E4F0E94CC1F882329F13F
:10447000E091AB011E9FF0011124E355FE4F4081F6
:10448000518162817381848195810E94251F809171
:10449000AB0190E00196877099278093AB01D9CF4B
:1044A0000E94E91E1092AC011092AB01EDEDF1E01B
:1044B00086E0DF011D928A95E9F72C960FB6F894F5
:1044C000DEBF0FBECDBFDF91CF911F910895EF9258
:1044D000FF920F931F93CF93DF938C01892B09F4E5
:1044E0006CC0F12CEE24E394E8012196F80184914C
:1044F000843740F4843008F051C0813081F082303C
:1045000019F15BC0853709F444C0A8F19CE7980F06
:10451000903708F052C08F770E941A1C41C00E5F7E
:104520001F4FFE01849190E2980F983050F48770ED
:10453000FE2D01C0FF0F8A95EAF78F2F0E94F2240B
:1045400014C00E94F81A2DC00E5F1F4FFE01849107
:1045500090E2980F983060F48770FE2D01C0FF0F35
:104560008A95EAF78F2F0E94F8240E941D2519C012
:104570000E941A1C16C00E5F1F4FFE01C491CC236F
:1045800081F08FE99FE00197F1F700C00000C15072
:10459000F6CF0E5F1F4FFE01F49003C00E94F81A81
:1045A0008E018F2D882309F49FCFEFE9FFE031972B
:1045B000F1F700C000008150F5CFDF91CF911F913E
:1045C0000F91FF90EF900895089508950C94E522BF
:1045D0000C94E6220E94E8226093190270931A025A
:1045E00080931B0290931C020C94D31E0C94EA221D
:1045F0000F931F930091190210911A0220911B0230
:1046000030911C02602B712B822B932B1F910F91E9
:104610000C94EA220F931F930091190210911A0231
:1046200020911B0230911C0260237123822393236B
:104630001F910F910C94EA220F931F93009119027E
:1046400010911A0220911B0230911C0260277127E1
:10465000822793271F910F910C94EA220C94110842
:104660000E942E2360931502709316028093170206
:10467000909318020C94D31E60E070E0CB010C9470
:1046800030230F931F9341E050E060E070E08A0117
:104690009B0104C0000F111F221F331F8A95D2F700
:1046A000C901B8011F910F910C9430230F931F93F0
:1046B00041E050E060E070E004C0440F551F661F09
:1046C000771F8A95D2F78091150290911602A091DA
:1046D0001702B09118028A019B01082B192B2A2B73
:1046E0003B2BC901B8011F910F910C9430230F93FC
:1046F0001F9341E050E060E070E004C0440F551F9C
:10470000661F771F8A95D2F74095509560957095F2
:104710008091150290911602A0911702B091180293
:104720008A019B01082319232A233B23C901B801CD
:104730001F910F910C9430230F931F9341E050E091
:1047400060E070E004C0440F551F661F771F8A9514
:10475000D2F78091150290911602A0911702B091A4
:1047600018028A019B01082719272A273B27C9011C
:10477000B8011F910F910C9430230F931F93009158
:104780001502109116022091170230911802602B29
:10479000712B822B932B1F910F910C9430230F932D
:1047A0001F9300911502109116022091170230916B
:1047B000180260237123822393231F910F910C947D
:1047C00030230F931F930091150210911602209130
:1047D00017023091180260277127822793271F91B3
:1047E0000F910C94302308952FE0929F800D112497
:1047F000E82FE695E695E695877051E001C0550FE4
:104800008A95EAF785E0E89FF0011124ED51FE4F0B
:1048100020E030E070E04081CB01022E02C096958E
:1048200087950A94E2F781708195842785238427F0
:1048300081932F5F3F4F2530310569F708952FE0B1
:10484000929F800D1124682F669566956695982F26
:10485000977085E0689FB001112440E050E080E04F
:10486000FB01E40FF51FED51FE4F208130E0092ED2
:1048700002C0369527950A94E2F721703327042E5B
:1048800001C0220F0A94EAF7822B4F5F5F4F453039
:10489000510531F70895BF92CF92DF92EF92FF92C8
:1048A0000F931F93CF93DF938C01C0901502D0908C
:1048B0001602E0901702F090180280911902909170
:1048C0001A02A0911B02B0911C02C82AD92AEA2A16
:1048D000FB2ACFE1D0E0D701C6010C2E04C0B6956B
:1048E000A795979587950A94D2F780FD04C02197E4
:1048F00090F7B12C07C0BC2EB8018C2F0E94890BF9
:104900000197A9F38B2DDF91CF911F910F91FF900C
:10491000EF90DF90CF90BF900895CF93DF93EC019D
:104920000E944B24BE010E94890BDF91CF91089514
:104930001F93CF93DF93EB019091AA01992321F06C
:10494000CB010E948D2413C0882349F0CB010E9423
:104950004B24182F682FCE010E94F42304C0CB01F2
:104960000E941F24182FBE01812F0E94890BDF9106
:10497000CF911F91089580911D028595859585950C
:10498000089580911D028770089590911D0297707F
:1049900081E009F480E008958091290208959091C2
:1049A0002902892B809329020895809590912902EC
:1049B00089238093290208951092290208958091F5
:1049C0002802089590912802892B80932802089547
:1049D000809590912802892380932802089510924F
:1049E0002802089590912702892B80932702089529
:1049F0008095909127028923809327020895109231
:104A00002702089580911E02089508950C940525AB
:104A10000C94062590911E02981721F080931E0297
:104A20000C940825089580911E02882329F0109285
:104A30001E0280E00C9408250895E0912801F09171
:104A40002901809129028083E0912801F0912901B8
:104A5000908180912802892B8083E0912801F09138
:104A60002901908180912702892B808380911E02E9
:104A7000882381F0E0912801F09129019081892B10
:104A8000808380912801909129010E94262681111E
:104A90000E94132580912801909129010C944A19B4
:104AA0000C94052598E0899F90011124262B2093D2
:104AB0001D020E94562380911D028595859585953E
:104AC0000C94502510921D0280E00C9450252091EA
:104AD0001D028095822380931D02982F977079F490
:104AE00030E0482F082E000C550B2417350739F0FD
:104AF0008595859585950E9477230C946225089568
:104B0000909359018093580108958295982F93733B
:104B100044E0949F900111248C7C86958695282BE7
:104B2000822F8575880F2A7A2695822B0895CF9338
:104B3000DF93D92F0E948525C82F8D2F0E948525B0
:104B40002C2F30E0322F2227A901482BCA01DF91F8
:104B5000CF91089580E090E00E94AE3521E08D3E37
:104B60009E4F09F020E0822F089582E090E00C949F
:104B7000A03583E090E00C94A03584E090E00C94A4
:104B8000A035682F84E090E00C94B435AB01BC01F3
:104B90008FE090E00C94C635AB01BC0183E190E05E
:104BA0000C94C63560E070E0CB010C94CC2560E03D
:104BB00070E0CB010E94C6250C94D2256DEE7EEFED
:104BC00080E090E00E94D23560E082E090E00E94B8
:104BD000B43560E083E090E00E94B4351092190291
:104BE00010921A0210921B0210921C0260E084E0E4
:104BF00090E00E94B43560E085E090E00E94B4351A
:104C000060E086E090E00E94B4356FEF87E090E0CE
:104C10000E94B43540E050E0BA0188E090E00E9484
:104C2000C63560E08DE090E00E94B43540E050E091
:104C3000BA0188E190E00E94C63560E087E190E02B
:104C40000E94B4350C94D7250C94DE25FC013296D5
:104C500097E080E0915029F021912223D9F38F5FD2
:104C6000F9CF08959C01FC0132969FEF80E04191BD
:104C7000461789F09F3F19F4411101C0982F8F5FAB
:104C80008630A9F79F3F39F0F901E90FF11D97FD33
:104C9000FA956283089508959C012A5F3F4FFC01B5
:104CA0004281461301C01282019682179307B9F719
:104CB00008950C9432260C944C26029626E0FC01B2
:104CC00011922A95E9F7089508950C9464260C949E
:104CD0006426CF930E9467260E94350E0E946526A7
:104CE000C0E08C2F0E94D40E892B29F4CF5FC530F1
:104CF000C1F780E001C081E0CF9108950C94642653
:104D00000C947E260E94802680915F02843049F1B7
:104D100010922B0220E488E190E00FB6F894A89559
:104D2000809360000FBE2093600080E00E94B8086E
:104D30000E94802683B7817F846083BF83B78160B0
:104D400083BF7894889583B78E7F83BF0FB6F8941E
:104D5000A895809160008861809360001092600047
:104D60000FBE08950C9464260E94E91E0E943E190D
:104D70000E94B8080C94B2261F920F920FB60F92A1
:104D800011248F939F93AF93BF9380912B02811136
:104D900013C08091550290915602A0915702B09194
:104DA00058024196A11DB11D809355029093560261
:104DB000A0935702B0935802BF91AF919F918F91EA
:104DC0000F900FBE0F901F90189582E084BD93E066
:104DD00095BD9AEF97BD80936E0008952FB7F89414
:104DE0008091550290915602A0915702B0915802BD
:104DF0002FBF08952FB7F894609155027091560215
:104E000080915702909158022FBF0895CF92DF9260
:104E1000EF92FF920F931F932FB7F8944091550292
:104E20005091560260915702709158022FBF6A014B
:104E30007B01EE24FF248C0120E030E0C016D10677
:104E4000E206F30610F4415051099A01281B390B70
:104E5000C9011F910F91FF90EF90DF90CF900895BF
:104E600078941F920F920FB60F9211248F939F93F5
:104E7000AF93BF938091550290915602A091570233
:104E8000B09158020196A11DB11D809355029093D7
:104E90005602A0935702B0935802BF91AF919F91D1
:104EA0008F910F900FBE0F901F90189581E0809307
:104EB000E00080E28093D8001092C9008FE19EE468
:104EC0000197F1F700C0000087E090EBDC018093D0
:104ED000680290936902A0936A02B0936B029CE00F
:104EE00088E10FB6F894A895809360000FBE909368
:104EF0006000FFCF0E94AA25811102C00E942426D3
:104F00000E94B52580932A020E94BD2590E09093CF
:104F10005A02809359020E94B925682F70E080E000
:104F200090E00C94F622CF93C82F1F928F938DEAB6
:104F300097E09F938F930E94000881E090E0A0E0AB
:104F4000B0E0BC01CD0104C0660F771F881F991F18
:104F5000CA95D2F70E94F6220F900F900F900F90F3
:104F6000CF910C94E91ECF938B3109F4D1C108F095
:104F700067C18B3009F48AC108F03DC1863009F45D
:104F800088C120F4853009F496C144C2873009F401
:104F9000A4C1883009F03EC284EB9CE00E94670700
:104FA00085E09CE00E9467070E94B9251F928F93BD
:104FB00082E09CE09F938F930E94000880E09CE039
:104FC0000E9467070E94B525C82F8DEE9BE00E94C6
:104FD00067071F92CF9388EE9BE09F938F930E9469
:104FE000000886EE9BE00E9467078CED9BE00E9424
:104FF00067078C2F81701F928F9389ED9BE09F93A1
:105000008F930E94000887ED9BE00E9467078DEC5C
:105010009BE00E946707C1FB882780F91F928F934E
:105020008AEC9BE09F938F930E94000888EC9BE0A2
:105030000E9467078CEB9BE00E946707C2FB8827F2
:1050400080F91F928F9389EB9BE09F938F930E942F
:10505000000887EB9BE00E9467078EEA9BE00E94B6
:105060006707C3FBCC27C0F91F92CF938BEA9BE065
:105070009F938F930E94000889EA9BE00E94670734
:105080000E94BD25C82F85E99BE00E9467071F92FB
:10509000CF9380E99BE09F938F930E9400088EE856
:1050A0009BE00E94670785E79BE00E9467078C2FC3
:1050B00081701F928F9382E79BE09F938F930E9452
:1050C00000088DB79EB780960FB6F8949EBF0FBEAE
:1050D0008DBF80E79BE00E94670789E59BE00E9407
:1050E0006707C1FB882780F91F928F9386E59BE0B5
:1050F0009F938F930E94000884E59BE00E946707BE
:1051000082E49BE00E946707C2FB882780F91F9218
:105110008F938FE39BE09F938F930E9400088DE312
:105120009BE00E9467078BE29BE00E946707C3FB3E
:10513000882780F91F928F9388E29BE09F938F933B
:105140000E94000886E29BE00E9467078CE19BE0DA
:105150000E946707C4FB882780F91F928F9389E11B
:105160009BE09F938F930E94000887E19BE00E9441
:10517000670785E09BE00E946707C5FB882780F9E9
:105180001F928F9382E09BE09F938F930E94000871
:1051900080E09BE00E94670784EE9AE00E94670728
:1051A000C6FB882780F91F928F9381EE9AE09F9328
:1051B0008F930E9400088FED9AE00E94670787EDA9
:1051C0009AE00E946707C7FBCC27C0F91F92CF93D4
:1051D00084ED9AE09F938F930E94000882ED9AE0FD
:1051E0000E9467078DB79EB74C960FB6F8949EBF86
:1051F0000FBE8DBF49C0803109F4B4C020F48E3099
:1052000009F49AC007C1863109F4C7C0893109F091
:1052100001C185E099E00E94670787EE98E00E944F
:1052200067078CEA98E00E94670783E798E00E948E
:10523000670786E498E00E9467078BE198E08FC0DB
:105240008A32E1F060F4873209F4E0C028F48E314C
:1052500008F4E0C08D51DBC0893269F1DBC08334D2
:1052600048F48A3308F0D0C0853309F4CFC08833BE
:1052700069F0D0C0833409F4C9C0CCC083EA9CE093
:105280000E9467070E942426C1E0C9C08FE299E00E
:1052900066C080912A02817F8E7F80932A0284E1FA
:1052A00099E00E9467078FE99CE00E94670781E010
:1052B00080932C02E9CF0E94E91E83E89CE00E94C3
:1052C00067079FEF23ED80E3915020408040E1F796
:1052D00000C000000E945627D7CF80912A02C82F15
:1052E000C095C170C0FB80F980932A02CC2329F0BD
:1052F00087E79CE00E94670792C08AE69CE00E94D4
:10530000670780912A02897F877F80932A02BCCF1A
:1053100090912A0291FBCC27C0F981E0C827892F00
:10532000C0FB81F980932A02CC2319F08DE59CE023
:1053300029C08FE49CE013C090912A0292FBCC27F5
:10534000C0F981E0C827892FC0FB82F980932A0227
:10535000CC2319F080E49CE015C080E39CE00E941F
:10536000670792CF90912A0293FBCC27C0F981E086
:10537000C827892FC0FB83F980932A02CC2351F0E0
:1053800084E29CE00E94670780912A0281608093FA
:105390002A0245C087E19CE0E2CF8DE098E00E94C0
:1053A00067070E943E191F928F9383EF97E09F93A8
:1053B0008F930E940008809134011F928F938CED8F
:1053C00097E09F938F930E940008809139021F926B
:1053D0008F9389EC97E09F938F930E9400080E941F
:1053E000FA269F938F937F936F9382EB97E09F931F
:1053F0008F930E9400088DB79EB742960FB6F8941F
:105400009EBF0FBE8DBF40CF895301C080E00E9478
:1054100093273ACF85E19CE00E946707C0E08C2F7C
:10542000CF91089580E008950C94122ACF93C82F4D
:1054300080912C02882319F0813031F038C00E940D
:10544000CC248232B1F504C00E94CC24823261F4B3
:105450008C2F0E94142A811104C08C2F0E94B32724
:1054600024C081E090E021C08C2F0E94122A81117B
:105470001BC0C43189F018F4CB3029F010C0C932F8
:1054800059F0C83361F484E199E00E94670789EA22
:1054900097E00E94670708C010922C020CC087EAB0
:1054A00097E00E94670707C081E0817006C01092F4
:1054B0002C0280E002C080E0F8CFCF910895809167
:1054C0003802089508959FB7F89410922F029FBF55
:1054D00090915F02943009F057C09091E9009F705D
:1054E0003091EC00232F217030FD20E8922B23E037
:1054F0002093E9002091EB0020FF43C02091EE00B3
:1055000027FF3FC020912D02222321F02091E800A7
:1055100025FF37C010922D0226E03091E80035FDBE
:1055200015C030915F02343061F53091EB0035FDEC
:1055300028C0215021F481E080932D0222C0EFE9A0
:10554000FFE03197F1F700C00000E7CF8093F10052
:105550008091E80085FD0AC08091E80080FFFCCFC3
:105560008091E8008E778093E80006C08FB7F894AA
:1055700021E020932F028FBF9F709093E90080E07D
:1055800008959F709093E9008FEF08950F931F93F4
:10559000CF93DF9300D01F92CDB7DEB78C010E946E
:1055A000562D823011F0843021F584E089831B83ED
:1055B0000A8382E08093E9008FEF9091E8008150A8
:1055C00095FD06C095ED9A95F1F700008111F5CF94
:1055D0008091E80085FF0DC040E050E063E070E09E
:1055E000CE0101960E94732D8091E8008E77809302
:1055F000E8000F900F900F90DF91CF911F910F91C6
:105600000895CF93DF9300D01F92CDB7DEB72091DE
:105610005F02243031F523E02983805891099B8370
:105620008A8382E08093E9008FEF9091E8008150B7
:1056300095FD06C095ED9A95F1F700008111F5CF23
:105640008091E80085FF0DC040E050E063E070E02D
:10565000CE0101960E94732D8091E8008E77809391
:10566000E8000F900F900F90DF91CF910895CF93A6
:10567000DF93EC010E94562D823011F0843039F511
:1056800081E08093E9008FEF9091E800815095FDD3
:1056900006C095ED9A95F1F700008111F5CF809144
:1056A000E80085FF14C040E050E068E070E0CE0103
:1056B0000E94732D8091E8008E778093E80088E047
:1056C000FE01A0E3B2E001900D928A95E1F7DF912F
:1056D000CF91089584EE9CE00E94670780915E025E
:1056E000811109C00E94042F0E94612F8091E20065
:1056F00084608093E200089580EE9CE00E9467073A
:1057000010925E0208958CED9CE00C94670788ED82
:105710009CE00C94670784ED9CE00E9467070C9462
:10572000B42620912E022F5F822F62E30E9459350A
:10573000992319F020932E02089510922E02809141
:105740002F02882371F180915F02843041F58091AE
:10575000E9008F702091EC00922F917020FD90E86D
:10576000892B93E09093E9009091EB0090FF14C097
:105770009091EE0097FF10C09091E80095FF03C054
:105780001092F100F9CF9091E80090FF05C0909140
:10579000E8009E779093E8008F708093E900109264
:1057A0002F02089542E061EC81E00E947D2E42E2EA
:1057B00061EC82E00E947D2E42E261EC83E00C9479
:1057C0007D2E80916102833009F460C030F4813015
:1057D00071F0823009F499C008958A3009F485C0C7
:1057E0008B3009F46BC0893009F0A7C020C08091CC
:1057F0006002813A09F0A1C08091E800877F809320
:10580000E8008091640290916502892B21F468E0A0
:1058100080E392E003C060E080E090E070E00E94EE
:10582000BE2D8091E8008B778093E80008958091E9
:105830006002813209F081C080916402909165021A
:10584000029708F07AC08091E800877F8093E80093
:105850008091E80082FD05C080915F028111F8CF40
:105860006CC02091F3008091F20090E0922B02979F
:1058700029F48091F1008B7F813021F48091F10037
:10588000809338028091E8008B7753C0809160024A
:10589000813A09F052C08091640290916502892B8F
:1058A00009F04BC08091E800877F8093E8008091E9
:1058B000E80080FFFCCF8091340136C08091600207
:1058C0008132D9F58091640290916502892BA9F506
:1058D0008091E800877F8093E8000E94B22E80913B
:1058E0006202809334010C94E91E8091600281323F
:1058F00021F58091E800877F8093E8000E94B22E16
:105900008091630280933902089580916002813A08
:10591000A1F48091E800877F8093E8008091E800FF
:1059200080FFFCCF809139028093F1008091E800E4
:105930008E778093E8000C94B22E089584B7877F09
:1059400084BF0FB6F894A895809160008861809319
:105950006000109260000FBE80E88093610010929A
:1059600061000E94CF190E94042F0E94612F809134
:10597000E20084608093E20083E69AE20E94802540
:1059800078940E94F5310E94D7198AE291E00E9432
:10599000391983EC9CE00E94670780915F02853093
:1059A00089F48FEB9CE00E9467070E948226809119
:1059B0005D02882391F30E946926882371F30E9477
:1059C0005D2DEBCF0E94091A0E943B17E6CF0C9485
:1059D000E92C292F332723303105C9F060F4213019
:1059E000310581F02230310509F047C08BE590E0A8
:1059F0002EE13DE046C02132310511F12232310560
:105A000061F13BC082E190E029E73DE03AC099278F
:105A10008130910561F040F08230910559F0039793
:105A200061F5E8EEFCE008C0EAE1FDE005C0E2E077
:105A3000FDE002C0EEEEFCE0849190E09F0121C009
:105A400063307105D0F4660F771FFB01EE5AFE4FED
:105A50002081318189E090E014C06330710568F4E1
:105A6000FB01EE0FFF1FE45BFE4F20813181FB0144
:105A7000E75BFE4F808190E004C080E090E020E092
:105A800030E0FA013183208308950895CF93C82F21
:105A90000E94452DC0933A02CF91089580915F02F4
:105AA000843011F081E0089582E0089580913A02F7
:105AB000811102C00C944E2D089580E189BD82E1D0
:105AC00089BD09B400FEFDCF8091D8008F7D809301
:105AD000D8008091E00082608093E0008091E00037
