:100000000C941E030C9465030C9465030C94650317
:100010000C9465030C9465030C9465030C946503C0
:100020000C9465030C9465030C9412240C94E42442
:100030000C94D71E0C9465030C9465030C94650313
:100040000C9465030C9465030C9465030C94650390
:100050000C9465030C943F1F0C9465030C9465038A
:100060000C9465030C9465030C9465030C94650370
:100070000C9465030C9465030C9465030C94650360
:100080000C9465030C9465030C9465030C94650350
:100090000C9465030C9465030C9465030C94650340
:1000A0000C9465030C9465030C9465038605880520
:1000B00093058A058C058E05900592059505970593
:1000C0009905A4059B059D059F05A105A305A6050A
:1000D0006214621494149414D21414161416141680
:1000E000F0141416931593150416141614160D1601
:1000F000A015A015A015A015A015A015A015A01558
:10010000A015A015A015A015A015A015A015A01547
:10011000B115BF15C615CD15D715A116A116B31665
:10012000B316AA16B316B316B316A116A116AF16B8
:10013000B316B316AF16512578257026782570268C
:10014000C425E72570263E264D2607634236B79B19
:10015000D8A71A39685618AEBAAB558C1D3CB7CC27
:100160005763BD6DEDFD753EF6177231BF0000009F
:10017000803F05A84CCDB2D44EB93836A9020C50F8
:10018000B9918688083CA6AAAA2ABE000000803F32
:1001900068747470733A2F2F716D6B2E666D2F011A
:1001A0002800514D4B206973207468652062657387
:1001B00074207468696E6720657665722100290075
:1001C00014001A000800150017001C00095704004D
:1001D0001600070009000A000B00E1001D001B00CB
:1001E0000600190005001100E0000A570151000047
:1001F00000002C00000018000C0012001300330057
:100200002A0000000D000E000F003400280000003E
:1002100000001000360037003800E5000000000044
:1002200000000153500052004F0000000000350054
:100230001E001F00200021002200230001004A00B0
:100240004B000100C25C0100010001004D004E00A6
:100250000100010001000100010001000100000097
:1002600000002C00000024002500260027002D009F
:100270004C0000002F0030002E003100280000004C
:1002800000000100010001005200E5000000000034
:1002900000000100500051004F0000000000350038
:1002A0003A003B003C003D003E003F00C25C0100C4
:1002B0000100010001000100010001000100010036
:1002C0000100010001000100010001000100000027
:1002D00000002C00000040004100420043004400A8
:1002E000450000000100010001000100280000009D
:1002F00000000100010001005200005C000000004D
:1003000000000100010001000100000000000000E9
:100310000000000000002A2B280000000000000060
:1003200000000000000000000029000000002C1E5A
:100330003420212224342627252E362D3738271E17
:100340001F202122232425263333362E37381F043D
:1003500005060708090A0B0C0D0E0F1011121314D5
:1003600015161718191A1B1C1D2F3130232D350493
:1003700005060708090A0B0C0D0E0F1011121314B5
:1003800015161718191A1B1C1D2F3130354C00007B
:10039000000000000000000000000000000000005D
:1003A000000000000000000000000000000000014C
:1003B0000101010101000101010100000000000034
:1003C0000000000000000000010001000101010127
:1003D000010101010101010101010101010101010D
:1003E0000101010101010101010000000101000002
:1003F00000000000000000000000000000000000FD
:100400000000000000000000000101010100643252
:1004100014783C1E1E140A050000000000010101B2
:1004200001010101010102020202020202020203B1
:100430000303030303030304040404040405050580
:10044000050506060606060707070708080808093F
:1004500009090A0A0A0A0B0B0B0C0C0C0D0D0D0EE8
:100460000E0F0F0F10101111111212131314141577
:100470001516161717181819191A1A1B1C1C1D1DEA
:100480001E1F1F202021222223242525262727283E
:10049000292A2B2B2C2D2E2F2F3031323334353669
:1004A000363738393A3B3C3D3E3F40414243444673
:1004B0004748494A4B4C4D4F505152535556575847
:1004C0005A5B5C5E5F606263646667696A6C6D6EEE
:1004D000707173747678797B7C7E80818384868862
:1004E0008A8B8D8F91929496989A9B9D9FA1A3A59C
:1004F000A7A9ABADAFB1B3B5B7B9BBBDBFC1C4C69A
:10050000C8CACCCFD1D3D6D8DADCDFE1E4E6E8EB59
:10051000EDF0F2F5F7FAFCFF0403300000000A03E7
:10052000740067003400780000000E036A006C005D
:100530006300700063006200000004030904090204
:100540003B00020100A0FA090400000103010100C0
:100550000921110100012240000705810308000A5A
:10056000090401000103000000092111010001221A
:1005700071000705820320000A120110010000002B
:1005800008EDFE010021000102030105010980A11F
:100590000185031601002603001A81002A830075D5
:1005A0001095018100C0050C0901A1018504160107
:1005B00000269C021A01002A9C02751095018100F8
:1005C000C005010906A1018505050719E029E71500
:1005D0000025019508750181020508190129059575
:1005E000057501910295017503910105071900290F
:1005F000EF1500250195F075018102C0050109067E
:10060000A101050719E029E71500250195087501E5
:1006100081029501750881010508190129059505D3
:10062000750191029501750391010507190029FFD4
:10063000150026FF00950675088100C011241FBE15
:10064000CFEFDAE0DEBFCDBF04B603FE27C0809156
:100650002B0390912C03A0912D03B0912E03873092
:10066000904BA740B04BD1F410922B0310922C0367
:1006700010922D0310922E0314BE84B7877F84BF7F
:100680000FB6F894A895809160008861809360000F
:10069000109260000FBEE0E0F8E3099512E0A0E0E0
:1006A000B1E0E4EEF4E502C005900D92A831B10787
:1006B000D9F723E0A8E1B2E001C01D92AB32B20746
:1006C000E1F70E943A210C94702A0C9400000C94DB
:1006D000C2090C94C109803F2CE5920721F0813FAB
:1006E0009C4541F00FC0FB018281882359F082EACA
:1006F00091E006C0FB018281882321F080E991E02E
:100700000E94C20481E008950F930E945A1120E0D4
:1007100081FF22C04FEF6FEF80E090E00E94170E44
:100720006091AC027091AD028091AE029091AF02E7
:100730000E94261D882349F0813099F507E021E0C9
:100740004FEF6FEF84EB90E028C007E021E04FEF20
:100750006FEF80E090E021C040E060E080E090E05A
:100760000E94170E6091AC027091AD028091AE02B2
:100770009091AF020E94261D882349F0813089F4B0
:1007800007E021E040EF66E98DEC90E006C007E06D
:1007900021E04DE76EEB82E390E00E94570E0F914F
:1007A000089540E060E080E090E00F910C944F0DE0
:1007B0000C948403CF92DF92EF92FF926B017C0145
:1007C0000E948403C701B601FF90EF90DF90CF90A5
:1007D00008950F931F93CF93DF939C013A952115B2
:1007E0003F4148F5EB018C0190FF03C080EEFB0117
:1007F000099511FF03C081EEFE01099512FF03C0A8
:1008000082EEFE01099513FF03C083EEFE010995F8
:100810000115104180F084EEFE01099585EEFE0180
:10082000099586EEFE01099587EEFE01DF91CF91D5
:100830001F910F910994DF91CF911F910F9108950E
:10084000877091E001C0990F8A95EAF7892F0E947D
:10085000881C0C94C31C0C942004877091E001C088
:10086000990F8A95EAF7892F0E948E1C0C94C31C5D
:100870000C942D04CF93DF93EC01805E91090897CF
:1008800010F0209719F460E274E002C06BE274E0AB
:10089000CE010E94E9038C2FDF91CF910C94A91215
:1008A000CF93DF93EC010E94C013CE01805E9109CB
:1008B000089710F0209719F46DE274E002C068E325
:1008C00074E0CE01DF91CF910C94E90381E00895AB
:1008D0000C946B03CF9390E0FC01E25FFC4FC4915A
:1008E000FC01E257FC4F8491882359F081EE0E946D
:1008F000A9128C2F0E94A9128C2F0E94C01381EE86
:1009000004C08C2F0E94A9128C2FCF910C94C0137D
:100910000F931F93CF93DF93EC01062FFE01849179
:10092000882359F19E012F5F3F4F813041F4E90147
:10093000F9011491812F0E94A912812F0DC08230DC
:1009400031F4E901F90184910E94A9120AC08330AF
:1009500031F4E901F90184910E94C01302C00E94A0
:100960006A042196802F8823C9F2EFE9FFE03197CE
:10097000F1F700C000008150F6CFDF91CF911F91B9
:100980000F91089560E00C9488040E94761D8111F7
:1009900002C00E94F01D0C9467030E9402110C9487
:1009A00069030C94D8030C94D10408950E948F1607
:1009B0000E94D5042FEF84E39CE0215080409040BA
:1009C000E1F700C000000C94651FFF920F931F9386
:1009D000CF93DF938C01FC01C081D18180915002C3
:1009E000811113C08281882349F0CE010E94F11B3E
:1009F000F82E682FCE010E949A1B04C0CE010E94DF
:100A0000C51BF82EBE018F2D04C0CE010E94F11B24
:100A1000BE010E944B07EC01B8010E945F10B801B3
:100A2000CE010E946804882309F42AC2B801CE01CD
:100A30000E94A610882309F423C2CA3CFCE5DF0704
:100A400041F4F8018281882309F41AC20E944C0DF6
:100A500017C2CB3C8CE5D80708F015C1C33C9CE518
:100A6000D90761F4F8018281882309F409C20E9440
:100A7000721C8272E1F00E94B60D02C2C43CECE529
:100A8000DE07C0F0C63C9CE5D90709F4CDC008F0EC
:100A9000DFC0C43CFCE5DF0709F0CEC0F80182816D
:100AA000882309F4EDC10E94721C827221F30E9416
:100AB000A80DE6C1C531FCE5DF0708F07EC0C230F5
:100AC0008CE5D80708F452C0F8018281882309F424
:100AD00059C00E94761D811102C00E94F01D0E9423
:100AE000891D90E090931D0380931C03FE01E35049
:100AF000FC45E231F10530F4EA5AFF4F80911C03C6
:100B00000C94152A80911C03816027C0826025C047
:100B1000846023C0806121C080621FC080641DC0CA
:100B200080681BC08460886018C08E7F16C08D7F6F
:100B300014C08B7F12C08F7E10C08F7D0EC08F7B44
:100B40000CC08F770AC08B7F877F07C087FB222767
:100B500020F991E0922790FB87F980931C03809104
:100B60001C030E948D1D0E948F168AC1C1159CE531
:100B7000D90781F0C130DC45A9F081E080931D02E6
:100B800080931E02C801DF91CF911F910F91FF90BA
:100B90000C946604F8018281882309F471C10E94D3
:100BA000D6046EC1F8018281882309F469C180915D
:100BB000D90281608093D90263C1C631FCE5DF07A9
:100BC00039F50E94721C982FF80182812091FC0156
:100BD0003091FD01882379F09A7A81E009F480E070
:100BE00080931802911102C069E201C065E3C90156
:100BF0000E94581E0AC080911802811102C069E249
:100C000001C065E3C9010E94631E0E94C31C38C174
:100C1000C23CDC4509F0B1CFF8018281882309F498
:100C20002FC10E948F0E2CC1F8018281882309F404
:100C300027C10E94CC0C24C1C53CDC4509F09DCFE6
:100C4000F8018281882309F41BC10E94A90C18C1F4
:100C5000F8018281C83CFCE5DF0731F4882309F400
:100C60000FC10E940C0D0CC1C93CDC4530F4882337
:100C700009F406C10E94EC0C03C1882309F400C1E9
:100C80000E942C0DFDC0C63DECE5DE0708F05FC0FC
:100C9000C13DFCE5DF0708F0F3C0CD3C8CE5D8078B
:100CA00039F4F8018281882309F4EAC081E013C095
:100CB000CE3C9CE5D90790F0F8018281CF3CFCE561
:100CC000DF0721F1B0F5882309F4DAC00E94AF0BE9
:100CD000823050F582E00E94B90DD2C0CB3CECE5E9
:100CE000DE0741F4F8018281882309F4C9C00E941B
:100CF000B80BC6C0CC3CDC4509F03FCFF80182817F
:100D0000882309F4BDC00E94CD0BBAC0882309F422
:100D1000B7C00E94AF0B863028F00E94AF0B88301E
:100D200008F4C5CE86E0D7CF0E94AF0B853090F691
:100D3000BECE882309F4A4C00E94AF0B893028F0EE
:100D40000E94AF0B8E3008F4B2CE89E0C4CFC93D0B
:100D5000ECE5DE0759F5F8018281882361F01092F5
:100D60001E020E94091F90931C0280931B0280E2C6
:100D70000E941F1485C080911E02882321F080E20A
:100D80000E9426147DC080911B0290911C020E943B
:100D9000151F883C910598F780E20E94261488E28E
:100DA0000E94A91288E20E94C0136AC0CA3DFCE5F5
:100DB000DF0708F044C0C73D8CE5D80719F5F801F6
:100DC0008281882351F010921D020E94091F909386
:100DD0001A028093190282E0CBCF80911D0281110B
:100DE0000FC08091190290911A020E94151F883C31
:100DF000910530F486E20E94A91286E20E94C01397
:100E000082E0BECFC83DDC4509F0B7CEF801828153
:100E10008111A5CF80911E028111B1CF80911B025B
:100E200090911C020E94151F883C910508F0A7CFE5
:100E300087E20E94A91287E20E94C013A0CFCD3D95
:100E4000ECE5DE0741F4F80182818823C9F082E0F5
:100E50000E94D92115C0CE3DFCE5DF0739F4F80129
:100E60008281882369F00E94F01D0AC0CC3DDC45D8
:100E700009F083CEF8018281882311F080E0E8CF69
:100E800080E0DF91CF911F910F91FF90089580E056
:100E900090E00895089528E3829FC0011124FC0189
:100EA00027E0729FE00DF11D1124E60FF11DEE0FFA
:100EB000FF1FE254FE4F859194910895880F991F6A
:100EC000FC01E25FFB4F859194910895CF93DF93EE
:100ED0000E944B070E942209EC018115904508F001
:100EE00041C0C11580E4D80708F028C1C83ED1052B
:100EF00010F5C03ED10508F0A1C1C83AD10578F47B
:100F0000C53AD10508F0A2C0C130D10509F496C197
:100F100008F447C1C430D10508F090C142C1CF3BAD
:100F2000D10508F49EC0C03CD10508F43AC1CE01F9
:100F3000805C9109F5C0C11590E2D90758F4C1153C
:100F400021E0D20708F07AC1C03FD10508F429C1D9
:100F5000D06574C1C11580E3D80708F0E5C0CE01A3
:100F60009F70DEC0C11595E5D90708F043C0C115D3
:100F700024E5D20708F0F9C0C11582E5D80708F5C5
:100F8000C11591E5D90708F0DCC0CE0174E0969553
:100F900087957A95E1F783709C2F937021E030E07C
:100FA00002C0220F331F9A95E2F73C68382BCF70AE
:100FB000C695C69580E2C89FE0011124C22BD32BB1
:100FC0003DC19E01237033278C2F86958695C115D0
:100FD000D34508F0BBC0C1E0D0E002C0CC0FDD1F9C
:100FE0002A95E2F720E2829FC0011124C82BD92B59
:100FF000DC6824C1C11529E5D207A0F4C11588E534
:10100000D80708F0B7C0C11596E5D90708F0C9C0E0
:101010008C2F0E949E098F71C82FD0E0DC2FCC2727
:10102000D0620CC1C1152AE5D20708F4A8C0CE01D0
:1010300090568115904208F0B4C08D2F8F710E9498
:101040009E09DD27D0628F71D82BF8C0C53AD10533
:1010500009F4AAC0C63AD10509F0A9C0C2E8D0E493
:10106000EDC0C83AD10509F4A5C0C93AD10509F4C3
:10107000A4C0CA3AD10509F4A3C0CB3AD10509F4FA
:10108000A2C0CC3AD10509F4A1C0CB3BD10509F4EB
:10109000A0C0CC3BD10509F49FC0CD3AD10509F4DD
:1010A0009EC0C03BD10509F49DC0CE3AD10509F4DC
:1010B0009CC0CF3AD10509F49BC0C13BD10509F4CE
:1010C0009AC0C23BD10509F499C0C33BD10509F4CC
:1010D00098C0C43BD10509F497C0C53BD10509F4BC
:1010E00096C0C63BD10509F495C0C73BD10509F4AC
:1010F00094C0C83BD10509F493C0C93BD10509F49C
:1011000092C0CD3BD10509F491C0CE3BD10509F485
:1011100090C0CA3BD10509F48FC0C0E0D4E48EC0B2
:101120000E945E07EC018AC0CE019927D3FF03C05D
:10113000EC01D86C83C0EC01D06C80C0DF70D06A49
:101140007DC0DC2FCC27C16FD06A78C0C1E0D0E071
:1011500002C0CC0FDD1F2A95E2F720E2829FC0017A
:101160001124C82BD92BDA6869C0DC2FCC27C46FB7
:10117000D06A64C0DC2FCC27C06FD06A5FC08C2FD0
:101180008F700E949E0994E0D695C7959A95E1F7D5
:10119000CF70D0E0DC2FCC27D06A8F70806EC82B48
:1011A0004DC0C0E0D0E04AC0C1E8D0E447C0C3E8C9
:1011B000D0E444C0C2EED4E441C0C9EED4E43EC0A1
:1011C000CAEED4E43BC0C5EBD4E438C0C6EBD4E4EB
:1011D00035C0C3EBD4E432C0C4EBD4E42FC0C7EBBA
:1011E000D4E42CC0CCECD4E429C0CDECD4E426C0AB
:1011F000C3E8D5E423C0CAE8D5E420C0C2E9D5E4F9
:101200001DC0C4E9D5E41AC0C1E2D6E417C0C3E2E8
:10121000D6E414C0C4E2D6E411C0C5E2D6E40EC0E0
:10122000C6E2D6E40BC0C7E2D6E408C0CFE6D4E4F9
:1012300005C0C0E7D4E402C0CAE2D6E4CE01DF9123
:10124000CF9108958238910549F1B0F48133910529
:1012500009F459C048F48932910509F44FC08A3223
:10126000910509F455C008958533910509F441C0ED
:101270008933910599F00895833E910531F138F451
:10128000803E910591F0823E9105A9F00895863E39
:10129000910501F1873E910539F1089520911C03D4
:1012A00020FD3BC021FD39C0089580911C0380FFC3
:1012B00034C089E341C080911C0382FF30C080911B
:1012C0001C0384FD2EC083EE37C080911C0382FD79
:1012D00026C0F5CF80911C0383FF25C080911C039D
:1012E00084FD1FC087EE28C080911C0383FD1BC0B6
:1012F000F5CF80911C0385FD18C019C080911C0397
:1013000085FD15C012C080911C0386FD12C013C05C
:1013100080911C0386FD0FC00CC080EE0DC082EED4
:101320000BC080E009C086EE07C089E205C085E3F6
:1013300003C08AE201C081E390E0089590911C030C
:1013400092FF0DC0282F2871283019F4877F846000
:1013500006C0282F2471243011F48B7F886093FFFE
:101360000DC0282F2871283119F4877E846106C0AA
:10137000282F2471243111F48B7E886194FD877E9F
:10138000089508950C94C109CF93DF93A0E1B2E0D2
:1013900048E152E061E070E08D91E82FE295EF7056
:1013A000F0E091A18F709B0101C0220F8A95EAF7AE
:1013B000822F8095892381A34A175B0769F7A9E0EB
:1013C000B2E040E152E061E070E08D91E82FE295FB
:1013D000EF70F0E021A18F70EB0102C0CC0FDD1F98
:1013E0008A95E2F7CE019C2F9095922391A392A12A
:1013F000892B82A34A175B0741F7E7E2F2E0AFE1EE
:10140000B2E08FE292E011921D928E179F07D9F7FA
:1014100088E00E94A80ADF91CF910C94C5042F9216
:101420003F925F926F927F928F929F92AF92BF9204
:10143000CF92DF92EF92FF920F931F93CF93DF93A0
:1014400090E1292E92E0392EA7E2B2E02FE2C22EDF
:1014500022E0D22E20E001E010E05D013C911C92E0
:10146000E10189911E01E82FE295EF70F0E091A172
:101470008F70A80101C0440F8A95EAF7892F842B49
:1014800081A382A1742E7094872182A3D0EADA9579
:10149000F1F789E0E82E82E0F82E60E070E0E701E5
:1014A00069907E01862D82958F7090E0EC0188A076
:1014B0005C90912C962D9F7002C0959487949A957C
:1014C000E2F780FC08C0902F062E01C0990F0A9405
:1014D000EAF7892F01C080E085298C936F5F7F4FE9
:1014E00067307105E1F681A1782271A282A1482BB3
:1014F00042A3119681E0F5019081931301C080E031
:10150000282BCA16DB0609F0A8CF48E06FE172E08D
:1015100087E292E00E94A90A0E94CD0481E0DF9157
:10152000CF911F910F91FF90EF90DF90CF90BF90E0
:10153000AF909F908F907F906F905F903F902F9093
:101540000895E82FF0E0E15EFD4F80810895089551
:101550000895FF920F931F93CF93DF938C01F62E84
:10156000D72FC42F222349F081E0809331020E94BB
:10157000091F9093300280932F02809131028823BB
:10158000C1F080912F02909130020E94151F0697A2
:1015900080F0EF2DFD2FD8014C2F50E0CD01801BA6
:1015A000910B841795071CF48D918193F7CF1092BE
:1015B0003102DF91CF911F910F91FF900895EF922B
:1015C000FF920F931F93CF93DF93E901662309F4F2
:1015D0004BC0242F30E0EFEFF0E0E61BF109B9013A
:1015E000E69F9001E79F300DF69F300D1124232FC9
:1015F0008B01031B11095CE3E52EF12CB7010E945E
:10160000ED29FB01BC01069FC001079F900D169FAD
:10161000900D1124B7010E94ED29E230F105B1F0DF
:1016200040F4309779F0319711F5832F242F461B22
:1016300021C0E430F105A1F068F03597C1F4842FA2
:10164000861B18C0832F262F230F14C0862F830FCD
:10165000E42F03C0E42FE61B842F432F2E2F0AC054
:10166000842F462F430F06C0842F242F03C080E011
:1016700020E040E0E42FF0E0E85EFB4F4491E22FF1
:10168000F0E0E85EFB4F9491E82FF0E0E85EFB4F5E
:10169000E49149839883EA83DF91CF911F910F9161
:1016A000FF90EF9008958091FE02282F26952F73CA
:1016B00030E02115310519F48178826005C02F30A2
:1016C000310524F081788C618093FE023091FE0216
:1016D000432F441F4427441F2091FF02522F550FD0
:1016E000852F842B27FB992790F9893641E09407B1
:1016F0007CF068E671E00E94012A80FB37F93093A4
:10170000FE0286952078822B90FB87F98093FF025A
:10171000089588E090E00C94302ACF92DF92EF9207
:10172000FF926B017C010E94530BB701A60188E078
:1017300090E0FF90EF90DF90CF900C944E2AEEEF68
:10174000F2E083E080831092FF028FEF8283838335
:10175000148260817181828193810C948D0B8091C0
:10176000FE0280FF03C086958F73089580E0089580
:101770008091020390E001968430910514F083E09B
:1017800090E0809302036091FE027091FF028091CD
:101790000003909101030C948D0B8091020390E063
:1017A000019797FF02C080E090E08430910514F02B
:1017B00083E090E0809302036091FE027091FF024B
:1017C00080910003909101030C948D0B8091FE0297
:1017D00080FF06C067E070E083E093E00C94C90FDF
:1017E000E3E0F3E0118210821282339683E0E83165
:1017F000F807C1F7EFCF9091FE0290FF0CC0E3E035
:10180000F3E0818360834283339693E0E831F90704
:10181000C1F70C94E60B0895CF93DF9300D01F928D
:10182000CDB7DEB72091FE0220FF0AC09E012F5FD8
:101830003F4F0E94DF0A4B8169818A810E94FB0B26
:101840000F900F900F90DF91CF910895DF92EF925C
:10185000FF920F931F93CF93DF9300D01F92CDB7CA
:10186000DEB7182F092FE62EF42ED22E9091FE020D
:1018700090FF4BC0892F8E77823069F49E012F5FD5
:101880003F4F812F902F0E94DF0A4B8169818A810F
:101890000E94FB0B1BC0892F86958F732EE3280FA8
:1018A0002F73243018F4F090010310C0865C8F73FE
:1018B000893060F4192F111F1127111F0091FF02A9
:1018C000802F880F182B07FB002700F98091FE025C
:1018D00010FB87F98093FE0216958091FF028078B5
:1018E000182B00FB17F91093FF02E0920003F0920F
:1018F0000103DD2051F06091FE027091FF028091A2
:101900000003909101030E948D0B0F900F900F9098
:10191000DF91CF911F910F91FF90EF90DF9008958D
:10192000282FEEEFF2E03081331F3327331F409131
:10193000FF02542F550F852F832B47FB992790F9D2
:10194000089668E671E00E94012A438162810C9446
:10195000260C81E00C94900C282F3091FE02331F4E
:101960003327331F4091FF02542F550F852F832BB0
:1019700047FB992790F9883091051CF4805A9E4FB7
:1019800005C0089768E671E00E94012A40910103B2
:10199000609100030C94260C81E00C94AC0C6091D7
:1019A0000003262F30E0283F310514F4685F01C0A2
:1019B0006FEF3091FE02331F3327331F9091FF02E8
:1019C000592F550F97FB992790F9282F4091010324
:1019D000852F832B0C94260C81E00C94CF0C609106
:1019E0000003262F30E02830310514F0685001C084
:1019F00060E03091FE02331F3327331F9091FF02C6
:101A0000592F550F97FB992790F9282F40910103E3
:101A1000852F832B0C94260C81E00C94EF0C4091C5
:101A20000103242F30E0283F310514F4485F01C042
:101A30004FEF3091FE02331F3327331F9091FF0287
:101A4000592F550F97FB992790F9282F6091000384
:101A5000852F832B0C94260C81E00C940F0D409164
:101A60000103242F30E02830310514F0485001C024
:101A700040E03091FE02331F3327331F9091FF0265
:101A8000592F550F97FB992790F9282F6091000344
:101A9000852F832B0C94260C81E00C942F0D21E0D4
:101AA0000C94260C20E00C94260CCF939091FE020F
:101AB00090FF40C09178811102C0926007C08F30C2
:101AC00010F09C6103C08F73880F982B9093FE02D7
:101AD000662351F06091FE027091FF028091000335
:101AE000909101030E948D0BC091FE026C2F6695B0
:101AF0006F7370E041E050E08AEF91E00E941B2A92
:101B0000892B19F010923D0203C081E080933D02C1
:101B1000CC1FCC27CC1F9091FF02892F880F97FBF9
:101B2000992790F940910103609100038C2BCF918C
:101B30000C94520DCF910895682F9091FE029695C6
:101B40009F7381E0890F8F3008F081E00C94550D70
:101B500081E00C949C0D682F9091FE0296959F73E6
:101B60008FEF890F09F48EE00C94550D81E00C94F1
:101B7000AB0D61E00C94550DEEEFF2E080818160D9
:101B8000808386958F730C94B90D60E00C94550D8D
:101B900080913E02811135C08091D902816080938D
:101BA000D9020E94761D811104C00E94F01D0E947E
:101BB0009F0B0E94890B6093FE027093FF0280933B
:101BC0000003909301036E7761F40E949F0B0E94C3
:101BD000890B6093FE027093FF0280930003909341
:101BE00001030E94530B81E080933D028091FE022D
:101BF00080FF04C086958F730E94C50D81E080939D
:101C00003E0208959091FE0290FF10C0273070F4BC
:101C100030E0F901EE0FFF1F2E0F3F1FF901ED5FBE
:101C2000FC4F8183608342830C94E60B08951F93DD
:101C3000CF93DF9300D01F92CDB7DEB73091FE0275
:101C400030FF0CC0122F9E012F5F3F4F0E94DF0A12
:101C5000212F4B8169818A810E94020E0F900F9083
:101C60000F90DF91CF911F9108950F939091FE02F5
:101C700090FF1BC02017C8F40830B8F4E22FF0E042
:101C8000DF01AA0FBB1FEA0FFB1FED5FFC4F818333
:101C9000608342832F5F0213F1CF0E94E60B8FE92E
:101CA0009FE00197F1F700C000000F9108950F9396
:101CB0001F93CF93DF9300D01F92CDB7DEB7309143
:101CC000FE0230FF0CC0122F9E012F5F3F4F0E947B
:101CD000DF0A212F4B8169818A810E94350E0F9086
:101CE0000F900F90DF91CF911F910F910895EEEF1C
:101CF000F2E080818E7F8083608171818281938117
:101D00000E948D0B10923D022FEF80E792E0215050
:101D100080409040E1F700C000000C94E60B8091F9
:101D2000FE0280FD0C94770E0C94BC0DCF93E82F2F
:101D3000F0E0EC5EFB4FC49180913B0290913C023D
:101D40000E94151FEC2FF0E08E179F0708F443C088
:101D50000E94091F90933C0280933B0260913A02DB
:101D600070E080E090E00E94EE2720E030E04FE756
:101D700053E40E9411272BED3FE049E450E40E9418
:101D800017290E9484290E948B272BE43AE34EE214
:101D90005FE30E94A42620EF3BEF48ED52E40E944F
:101DA00017290E94BD27462F8091FE02881F882791
:101DB000881F9091FF02292F220F97FB992790F9F6
:101DC00060910003822B0E940C0C80913A0290E0FB
:101DD000019680933A02CF910895CF93E82FF0E0D7
:101DE000EF5EFB4FC49180913802909139020E94BE
:101DF000151FEC2FF0E08E179F07E8F00E94091FD7
:101E0000909339028093380240910103609100035E
:101E100080913602909137020E940C0C809136021C
:101E200090913702019668E671E00E94ED29909347
:101E3000370280933602CF910895CF92DF92FF92BE
:101E40000F931F93CF93DF93F82EE82FE695F0E0E2
:101E5000E25FFB4FC49180913402909135020E9461
:101E6000151FEC2FF0E08E179F07C0F10E94091F8D
:101E7000909335028093340203E013E0C0E0D0E099
:101E800088E6C82EDD24D3948091320290913302EB
:101E90008C0F9D1FB6010E94ED299801409101030E
:101EA000609100030E94DF0AE3960D5F1F4FC53665
:101EB00081E0D80749F70E94E60B809132029091A9
:101EC0003302F0FE06C0019668E671E00E94ED293B
:101ED00001C001979093330280933202DF91CF913A
:101EE0001F910F91FF90DF90CF90089580913D0258
:101EF0008823E1F08091FE0286958F739EE3980F10
:101F00009F73943018F482500C94960E9AE3980FB5
:101F10009F73933018F486500C94ED0E97E3980F4E
:101F20009F73963018F489500C941D0F08952BB1AF
:101F3000342F309523233BB1432B3FB7F894FC015A
:101F4000680F791FE617F70789F0819198E04BB980
:101F5000000000C087FF2BB9880F000000C000C040
:101F600000C02BB900C09A9591F7ECCF3FBF089500
:101F70002AB1242B2AB99B01220F331F620F731F32
:101F80000E94970F87EC90E00197F1F700C00000E6
:101F9000089544E00C94B80FCF93DF93EC0181E0F7
:101FA000898B8F810E94751C88850E94881C0E94E5
:101FB000C31CEA81FB81CE010696309729F06C891B
:101FC0007D89DF91CF910994DF91CF910895CF93CF
:101FD000DF93FC012081223041F4FB01EC0182817E
:101FE00093810E943A0481E08B87DF91CF9108951D
:101FF000FC018081813021F4FB018081918105C049
:10200000823029F4FB01828193810C943A04089573
:10201000FC018081813021F4FB018081918105C028
:10202000823029F4FB01828193810C94500408953D
:10203000EF92FF920F931F93CF93DF93FC012285C2
:10204000211136C0EC01E380F480F7E5FF1A26E1A8
:102050002E9DC0012F9D900D1124DC01A050BF4F7B
:102060001496ED91FC9115978A5F9E4F309729F059
:1020700054966D917C915597099586E18E9D8001CE
:102080008F9D100D112400501F4FF80187810E9471
:102090007B1CF80180850E948E1C0E94C31C188244
:1020A00019861B861E821D821092400210923F02EA
:1020B000DF91CF911F910F91FF90EF900895DF92E4
:1020C000EF92FF920F931F93CF93DF93FB01228137
:1020D0002223A1F12091FB012F3F81F18C01C0E06F
:1020E000D1E0E12CF12CDD24D3948091FB01082E6A
:1020F000000C990B8E159F050CF18E818823C9F079
:1021000089859A858017910739F480913F029091D3
:1021100040020817190769F0DF861C870B87898939
:10212000811103C0CE010E94CC0FCE0106960E9401
:102130001810FFEFEF1AFF0A6696D7CFDF91CF9105
:102140001F910F91FF90EF90DF900895EF92FF9213
:102150000F931F93CF93DF939C0137552F3F31058A
:1021600011F008F047C04091FB01042E000C550B04
:102170004217530714F42093FB01FB017C01828179
:1021800096E1929F8001939F100D1124E801C050A9
:10219000DF4F888B92818E81992311F1FA86E9862F
:1021A0008F5F8E830E94091F9E878D870E94A81CC7
:1021B0008F830E94721C88870E94851C9885892BBA
:1021C0008887E881F981C8018A5F9E4F309719F0AE
:1021D0006C897D890995F0924002E0923F020AC025
:1021E000882341F08989882329F0C8018A5F9E4F9E
:1021F0000E94181081E0DF91CF911F910F91FF9005
:10220000EF900895CF92DF92EF92FF920F931F937A
:10221000CF93DF938091FB018F3FF1F1F12C96E199
:10222000E92E0F2D10E08091FB01082E000C990B78
:10223000801791078CF1E09EF001E19EF00D1124D2
:10224000E050FF4FC288D388C114D10419F488EC40
:10225000C82ED12CE09EE001E19ED00D1124C0508B
:10226000DF4F8E818823B1F08D859E850E94151FDA
:10227000C816D90678F48989811103C0CE010E945D
:10228000CC0FE09EC001E19E900D11248A5F9E4F0D
:102290000E941810F394C5CFDF91CF911F910F9139
:1022A000FF90EF90DF90CF90089590934602809337
:1022B00045020895E0914502F0914602309721F0E1
:1022C0000190F081E02D099480E00895E0914502AD
:1022D000F0914602309799F020910802222359F09C
:1022E00020911C0327FF07C0DC012C9111962C9331
:1022F000119725E02C930280F381E02D0994089535
:1023000020914302309144022817390771F09093CD
:10231000440280934302E0914502F09146023097D7
:1023200021F00680F781E02D099408952091410263
:10233000309142022817390771F09093420280933E
:102340004102E0914502F0914602309721F000846D
:10235000F185E02D0994089585B7806885BF85B71C
:10236000806885BF089508950C94B3110C94B4113E
:102370000C94B3110C94B3110E94AC110E94B811CB
:102380000C94B61181E008950E94001F0E94C409B8
:102390000E94891F0E94C80D0C94BA11BF92CF925F
:1023A000DF92EF92FF920F931F93CF93DF93CDB7FE
:1023B000DEB72A970FB6F894DEBF0FBECDBF0E94DE
:1023C0000F0A0E94C211811111C08FEF89838A8385
:1023D0001B820E94091F8160782F9D838C83498115
:1023E0005A816B818D810E94751254C088E4C82E79
:1023F00082E0D82E00E010E0B02E802F0E94A10ACB
:10240000E82EF60121916F01F82EF22631F40F5FCC
:102410001F4F0830110581F7D8CF8091D90281FD77
:102420000E94A70A80E090E02F2D30E0482FB901EC
:10243000082E02C0759567950A94E2F760FF25C0E3
:102440008E83BF8281E090E06C0102C0CC0CDD1C69
:102450004A95E2F72E2D30E02C213D21232B09F463
:1024600080E088870E94091F8160782F9A8789877A
:102470004E815F8168858A850E947512F801E85B4C
:10248000FD4F80818C25808305C0019687309105A2
:1024900069F6BDCF0E945A11909147028917A9F0A1
:1024A0000E945A11809347022A960FB6F894DEBF15
:1024B0000FBECDBFDF91CF911F910F91FF90EF9095
:1024C000DF90CF90BF900C94D3042A960FB6F89467
:1024D000DEBF0FBECDBFDF91CF911F910F91FF9057
:1024E000EF90DF90CF90BF900895CF93DF93CDB75B
:1024F000DEB72B970FB6F894DEBF0FBECDBF4F836C
:10250000588769877A878B87DE01119686E0FD01FF
:1025100011928A95E9F785E0FE01379601900D92B8
:102520008A95E1F749815A816B817C818D819E81F9
:102530000E945F192B960FB6F894DEBF0FBECDBF79
:10254000DF91CF910895FC01808191810E94331C1D
:102550000895882309F413C1682F8238C1F40E94BA
:102560005A1181FD0CC169E38091FC019091FD013C
:102570000E94581E0E94C31C2FEF81EE94E0215050
:1025800080409040E1F700C0000069E319C0833843
:10259000F9F40E945A1180FDF2C063E58091FC01BC
:1025A0009091FD010E94581E0E94C31C2FEF81EEE6
:1025B00094E0215080409040E1F700C0000063E5C6
:1025C0008091FC019091FD010E94631E0C94C31C3C
:1025D0008438C1F40E945A1182FDD1C067E4809111
:1025E000FC019091FD010E94581E0E94C31C2FEF18
:1025F00081EE94E0215080409040E1F700C000005F
:1026000067E4DECF8CEF860F813A38F48091FC01CD
:102610009091FD010E94581ED9CF80E2860F88302C
:1026200048F4677081E001C0880F6A95EAF70E945C
:10263000751CCCCF8BE5860F833070F4653A29F09A
:10264000663A31F083E890E005C081E890E002C08E
:1026500082E890E00C94801188E5860F873108F0BD
:102660008EC0683A09F445C0693A09F445C06A3A2F
:1026700009F445C06B3A09F445C06C3A09F445C009
:102680006B3B09F445C06C3B09F445C06D3A09F455
:1026900045C0603B09F445C06E3A09F445C06F3A45
:1026A00009F445C0613B09F445C0623B09F445C0EB
:1026B000633B09F445C0643B09F445C0653B09F43C
:1026C00045C0663B09F445C0673B09F445C0683B1B
:1026D00009F445C0693B09F445C06D3B09F445C0A8
:1026E0006E3B09F445C06A3B09F445C080E090E0C8
:1026F00044C082EE90E041C089EE90E03EC08AEE98
:1027000090E03BC085EB90E038C086EB90E035C0B0
:1027100083EB90E032C084EB90E02FC087EB90E039
:102720002CC08CEC90E029C08DEC90E026C083E8B2
:1027300091E023C08AE891E020C082E991E01DC0C9
:1027400084E991E01AC081E292E017C083E292E04E
:1027500014C084E292E011C085E292E00EC086E2ED
:1027600092E00BC087E292E008C08FE690E005C0DF
:1027700080E790E002C08AE292E00C9496110895FE
:10278000882309F45BC0682F823879F40E945A11BB
:1027900081FF54C069E38091FC019091FD010E948A
:1027A000581E0E94C31C69E310C08338B1F40E9414
:1027B0005A1180FF43C063E58091FC019091FD01B7
:1027C0000E94581E0E94C31C63E58091FC019091F9
:1027D000FD010E94631E0C94C31C843879F40E948E
:1027E0005A1182FF2BC067E48091FC019091FD019A
:1027F0000E94581E0E94C31C67E4E7CF8CEF860F2F
:10280000813A18F380E2860F883048F4677081E0DF
:1028100001C0880F6A95EAF70E947B1CDCCF8BE52C
:10282000860F833020F480E090E00C948011685A89
:10283000673120F480E090E00C949611089588238D
:1028400021F00E94751C0C94C31C0895882321F06C
:102850000E947B1C0C94C31C08958F929F92AF9290
:10286000BF92DF92EF92FF920F931F93CF93DF936C
:102870007C01D62FC72FFC01058102950F701281B4
:1028800011110E94951C0E946B1C882379F0112362
:1028900069F080E28D0F883048F082E00E940D1DC3
:1028A0000E946B1C91E0D82ED92601C0D12CBC2EE1
:1028B000B2948FE0B8228B2D90E0FC01E859FF4FD5
:1028C0000C94152A8C2F807FCF70882311F0C2952D
:1028D000C07F112399F0CC2309F481C180E28D0FD0
:1028E000883010F0D11104C08C2F0E94751C03C0D9
:1028F0008C2F0E94881C0E94C31C71C18D2F0E94C6
:10290000C013CC2309F490C180E28D0F883010F001
:10291000D11104C08C2F0E947B1C03C08C2F0E94FD
:102920008E1C0E94C31C80C18C2F807FCF70803290
:1029300011F0C295C07FDD2319F0D130C9F022C05B
:10294000112371F0002341F0013031F40E94A81CE2
:102950008C2B0E94B01C68C10E94A81C8C2BF8C054
:10296000002319F0013009F45FC10E94B91C18C09E
:10297000112321F0063008F057C10EC0053008F0D1
:1029800053C10EC0112351F0002331F0F7018581AE
:1029900080FF25C18F7085838C2FDAC0011130C173
:1029A0008C2FDCC08C2F86958695837019F0813032
:1029B00061F03AC1112321F08D2F9C2F937002C03A
:1029C00080E090E00E9480113CC1112321F08D2F06
:1029D0009C2F937002C080E090E00E94961131C15C
:1029E0008C2F837009F04CC0111127C12D2F229517
:1029F00026952770220F220F6D2F6F70862F90E083
:102A0000A0E0B0E04C015D01022E04C0880C991CCE
:102A1000AA1CBB1C0A94D2F7D4FF12C08FE090E02E
:102A2000A0E0B0E004C0880F991FAA1FBB1F2A9521
:102A3000D2F7BC01CD01609570958095909503C04B
:102A400060E070E0CB01C695C695C370C23051F00E
:102A500080F4682979298A299B29C13071F00E9464
:102A6000B01AEBC0682979298A299B290E94C21AC9
:102A7000E4C00E94B01AC501B4010E949E1ADDC0D4
:102A8000112319F08C2F817001C08695882309F4D9
:102A9000D4C02D2F229526952770220F220F6D2F3F
:102AA0006F70862F90E0A0E0B0E04C015D01022E37
:102AB00004C0880C991CAA1CBB1C0A94D2F7D4FF32
:102AC00012C08FE090E0A0E0B0E004C0880F991F32
:102AD000AA1FBB1F2A95D2F7BC01CD016095709546
:102AE0008095909503C060E070E0CB01C695C695D7
:102AF000C370C23051F080F4682979298A299B2952
:102B0000C13071F00E94751B98C0682979298A2903
:102B10009B290E94871B91C00E94751BC501B401AF
:102B20000E94631B8AC08D2F90E0FC01E05EF109DA
:102B3000E531F10508F04FC0E858FF4F0C94152A15
:102B4000DF708C2F8F71112331F00E94FC1A8D2FB2
:102B50000E941F1469C00E941D1B8D2F0E94261405
:102B600063C0112341F0053008F05EC08C2F8F71D7
:102B70000E94421B59C0063008F056C0F7CF1123FF
:102B800039F08C2F8F710E94FC1A4EC01123C9F3AB
:102B90008C2F8F710E941D1B47C0112329F08C2F91
:102BA0008F710E94E71A40C00E94E21A3DC01123B3
:102BB00049F0CF718C2F0E94FC1A63E08C2F0E9489
:102BC000F81C32C081E00E940D1D023068F182E0E5
:102BD0000E940D1D29C0112331F0002391F28D2F89
:102BE0000E94A91221C0002399F2D93349F4FFEFC2
:102BF00027EE83E0F15020408040E1F700C0000064
:102C00008D2F0E94C01310C04C2F4F706D2FC70125
:102C10000E9447070E940D1A14C04C2F4F706D2F51
:102C2000C7010E944A070DC098E0B91631F0B916E5
:102C300040F086EF8B0D823020F40E945A110E94E2
:102C4000D304DD20E1F00E94671C80FD18C0F7016D
:102C500012820E94611C0E94FC1AC7010E944B163E
:102C60000E94611CDF91CF911F910F91FF90EF9017
:102C7000DF90BF90AF909F908F900C941D1BDF91C1
:102C8000CF911F910F91FF90EF90DF90BF90AF9089
:102C90009F908F9008950F931F93CF93DF93EC0134
:102CA000988189812B813C81232B31F08F3F31F436
:102CB00081E09F3F19F403C081E001C080E080FD06
:102CC00013C0CE010E94E504882371F068817981E8
:102CD0008A810E943E1C8C010E94991B0E948A1AC4
:102CE000B801CE010E942D14DF91CF911F910F9159
:102CF00008950E94951C0E94A51C0E94C31C80E0A0
:102D000090E00E94801180E090E00C9496118091F8
:102D1000FC019091FD010E946E1E0C9479160E9498
:102D2000821C0C948716E92FE295EF704E2F50E02D
:102D3000FA013297EE30F105B0F4E357FF4F0C94EF
:102D4000152A803F91F018F4803E68F40EC0843F4D
:102D500051F40BC0803E48F0813F29F406C093FB3C
:102D6000882780F9089580E0089581E008950E9401
:102D7000331C0E9493160895CF93DF9300D000D0A8
:102D80001F92CDB7DEB70F900F900F900F900F905E
:102D9000DF91CF910895CF93DF9300D000D000D082
:102DA000CDB7DEB726960FB6F894DEBF0FBECDBF07
:102DB000DF91CF9108951F93CF93DF93C09151027C
:102DC00016E080915202C81799F0D0E01C9FF001E4
:102DD0001D9FF00D1124ED5AFD4F408151816281FC
:102DE0007381848195810E94CB162196C770E9CFAB
:102DF000DF91CF911F9108954091830250918402F9
:102E0000609185027091860280918702909188027C
:102E10000C94CB16CF938091880282958F7009F025
:102E20005FC080918502882309F45AC080915102C5
:102E3000B091520270918302A09184024091860267
:102E40005091870291E07F3F09F090E0692FC6E042
:102E50008B1709F445C04115510521F0AF3F21F012
:102E600020E003C021E001C0262F90E020FD35C006
:102E7000C89FF001C99FF00D1124ED5AFD4F21812B
:102E80002A132BC02081271328C02281211125C09D
:102E9000238134812417350710F421503109241B74
:102EA000350B283C3105C8F4209188022F70206131
:102EB0002093880226E0289FF001299FF00D11241D
:102EC000E85AFD4F80818F708061808383E892E0B3
:102ED0000E944B16CF910C94DB1601968770B8CFE9
:102EE000CF910895AF92BF92CF92DF92EF92FF926F
:102EF0000F931F93CF93DF93CDB7DEB761970FB6D4
:102F0000F894DEBF0FBECDBF8C0185E0F801DE0175
:102F10001D9601900D928A95E1F7D8014C9111967A
:102F20005C9111971296EC9030918302609184022B
:102F30008091860290918702009731F06F3F31F4C3
:102F400021E03F3F19F403C021E001C020E0B22F8F
:102F5000B170BB2E20FD60C1F801C380D480A09069
:102F60008502AA2009F4EEC020918802C816D9066D
:102F700028F0D601A81BB90BCD0104C0809590950F
:102F80008C0D9D1DFF24F394883C910580F0F12C5D
:102F9000207F09F09CC07C2DD98AC88A6E2D898932
:102FA0000E94BC1683E892E00E944B162DC1822F2E
:102FB000807F09F054C0561314C0431312C0FE2C76
:102FC000E1100FC02F702061209388020E94FC1630
:102FD00083E892E00E944B1680918802F801858375
:102FE0005CC1CD2831F05F3F31F481E04F3F19F4EF
:102FF00003C081E001C080E080FD03C081E08E2538
:1030000002C080E090E0F82FF170FF2E80FF1CC01E
:10301000809151022091520236E0821709F41AC1C0
:1030200090E0389FF001399FF00D1124ED5AFD4FCB
:103030006181561306C06081461303C06281E612A7
:1030400003C001968770E9CFFE2CEE2009F425C15C
:1030500080918802816080938802F12C1EC15613F2
:1030600009C0431307C0E11005C080918802F80130
:103070008583A4C04D875E878D859E850E94B71687
:10308000882379F1EE2069F120918802822F8295C0
:103090008F7090E0029774F0809183029091840287
:1030A00098878F831986DB86CA862C87CE01079680
:1030B0000E944B1686E0F801A3E8B2E001900D9261
:1030C0008A95E1F70E940A170E94FC160DC0561758
:1030D00071F04D875E878D859E850E94B7168111A0
:1030E0001AC0C8010E944B16FF24F394D6C04313A4
:1030F000F0CFE110EECF80918802F8018583C801FE
:103100000E944B1686E0E3E8F2E0DF011D928A950B
:10311000E9F7FA2CC2C0EE2021F320918802822F19
:1031200082958F7090E002972CF2809183029091AB
:1031300084029A8389831B82DD82CC822E83CE0116
:103140000196B6CFC816D90628F0F601E81BF90B90
:10315000CF0104C0809590958C0D9D1D883C9105F4
:1031600048F0F12C7C2DD98AC88A6E2D89890E945D
:10317000BC164AC0FE2CEE2009F4B3CF561333C060
:10318000431331C02091880220FD24C0822F8295F4
:103190008F70482F50E041155105E1F0D801159688
:1031A0002C9315974F30510549F08F5F982F9295CA
:1031B000907F822F8F70892B15968C93C8010E9467
:1031C0004B1686E0F801A3E8B2E001900D928A95D3
:1031D000E1F73DC086E0F801A3E8B2E001900D926E
:1031E0008A95E1F75AC04D875E878D859E850E943E
:1031F000B71681115FCF8091880281608093880229
:10320000C8010E944B1649C0E3E8F2E086E0DF0106
:103210001D928A95E9F71BC0EE2009F462CF4D8715
:103220005E878D859E850E94B716F82E882309F447
:1032300058CF86E0F801A3E8B2E001900D928A959C
:10324000E1F783E892E00E94A3120E940A170E940D
:10325000FC1623C04D875E878D859E850E94331C9A
:10326000292F22952F70223028F49F7039F0811178
:1032700005C00BC0243028F49F7049F4805E88306C
:1032800020F0C8010E944B16BF2CFB2C06C0D801B1
:1032900015969C91907F91F7F8CF8F2D61960FB680
:1032A000F894DEBF0FBECDBFDF91CF911F910F917C
:1032B000FF90EF90DF90CF90BF90AF9008951F9355
:1032C000CF93DF93CDB7DEB72C970FB6F894DEBF60
:1032D0000FBECDBF4F83588769877A878B879C87BE
:1032E000CE0107960E9472178823D1F09F818885AE
:1032F0002A853B85232B31F08F3F31F481E09F3FBE
:1033000019F403C081E001C080E080FD47C04F8117
:10331000588569857A858B859C850E94CB163EC031
:1033200086E0FE013796DE01119601900D928A9596
:10333000E1F7FF81E8856A857B856115710531F0CC
:10334000EF3F31F481E0FF3F19F403C081E001C099
:1033500080E080FD23C02091520230E0C901019637
:10336000877099274091510250E084179507F1F139
:10337000F983EA837D836C8396E0929FD001939FCB
:10338000B00D1124AD5ABD4FFE01319601900D9242
:103390009A95E1F7809352020E94DB1616E0809125
:1033A000510290915202891771F1189FC0011124A6
:1033B0008D5A9D4F0E947217882329F1E091510286
:1033C0001E9FF0011124ED5AFD4F40815181628111
:1033D0007381848195810E94CB168091510290E087
:1033E00001968770992780935102D9CF0E948F163A
:1033F0001092520210925102E3E8F2E086E0DF01FF
:103400001D928A95E9F72C960FB6F894DEBF0FBE91
:10341000CDBFDF91CF911F910895EF92FF920F934F
:103420001F93CF93DF938C01892B09F46CC0F12C8F
:10343000EE24E394E8012196F8018491843740F466
:10344000843008F051C0813081F0823019F15BC0C6
:10345000853709F444C0A8F19CE7980F903708F02D
:1034600052C08F770E94C01341C00E5F1F4FFE01F4
:10347000849190E2980F983050F48770FE2D01C02F
:10348000FF0F8A95EAF78F2F0E94981C14C00E94A4
:10349000A9122DC00E5F1F4FFE01849190E2980F7C
:1034A000983060F48770FE2D01C0FF0F8A95EAF70F
:1034B0008F2F0E949E1C0E94C31C19C00E94C01323
:1034C00016C00E5F1F4FFE01C491CC2381F08FE91F
:1034D0009FE00197F1F700C00000C150F6CF0E5FEA
:1034E0001F4FFE01F49003C00E94A9128E018F2D80
:1034F000882309F49FCFEFE9FFE03197F1F700C08F
:1035000000008150F5CFDF91CF911F910F91FF9077
:10351000EF900895089508950C948B1A0C948C1ACA
:103520000E948E1A6093B0027093B1028093B2022F
:103530009093B3020C9479160C94901A0F931F93E6
:103540000091B0021091B1022091B2023091B30209
:10355000602B712B822B932B1F910F910C94901A3F
:103560000F931F930091B0021091B1022091B2020B
:103570003091B30260237123822393231F910F9113
:103580000C94901A0F931F930091B0021091B10206
:103590002091B2023091B3026027712782279327CE
:1035A0001F910F910C94901A0C94DA030E94D41A74
:1035B0006093AC027093AD028093AE029093AF0221
:1035C0000C94791660E070E0CB010C94D61A0F933E
:1035D0001F9341E050E060E070E08A019B0104C06D
:1035E000000F111F221F331F8A95D2F7C901B8019E
:1035F0001F910F910C94D61A0F931F9341E050E046
:1036000060E070E004C0440F551F661F771F8A9565
:10361000D2F78091AC029091AD02A091AE02B09130
:10362000AF028A019B01082B192B2A2B3B2BC901C6
:10363000B8011F910F910C94D61A0F931F9341E07C
:1036400050E060E070E004C0440F551F661F771F14
:103650008A95D2F740955095609570958091AC020F
:103660009091AD02A091AE02B091AF028A019B0190
:10367000082319232A233B23C901B8011F910F9165
:103680000C94D61A0F931F9341E050E060E070E075
:1036900004C0440F551F661F771F8A95D2F780918B
:1036A000AC029091AD02A091AE02B091AF028A013E
:1036B0009B01082719272A273B27C901B8011F9119
:1036C0000F910C94D61A0F931F930091AC02109196
:1036D000AD022091AE023091AF02602B712B822B94
:1036E000932B1F910F910C94D61A0F931F93009157
:1036F000AC021091AD022091AE023091AF02602376
:103700007123822393231F910F910C94D61A0F9348
:103710001F930091AC021091AD022091AE02309146
:10372000AF0260277127822793271F910F910C9476
:10373000D61A089527E0929F800D1124E82FE69570
:10374000E695E695877051E001C0550F8A95EAF736
:1037500085E0E89FF0011124E757FD4F20E030E0BD
:1037600070E04081CB01022E02C0969587950A94A5
:10377000E2F78170819584278523842781932F5FC9
:103780003F4F2530310569F7089527E0929F800D5E
:103790001124682F669566956695982F977085E039
:1037A000689FB001112440E050E080E0FB01E40F8D
:1037B000F51FE757FD4F208130E0092E02C03695F6
:1037C00027950A94E2F721703327042E01C0220FB7
:1037D0000A94EAF7822B4F5F5F4F4530510531F76E
:1037E0000895BF92CF92DF92EF92FF920F931F93B3
:1037F000CF93DF938C01C090AC02D090AD02E090EB
:10380000AE02F090AF028091B0029091B102A0910F
:10381000B202B091B302C82AD92AEA2AFB2ACFE120
:10382000D0E0D701C6010C2E04C0B695A795979598
:1038300087950A94D2F780FD04C0219790F7B12CA8
:1038400007C0BC2EB8018C2F0E9466070197A9F310
:103850008B2DDF91CF911F910F91FF90EF90DF9013
:10386000CF90BF900895CF93DF93EC010E94F11B9E
:10387000BE010E946607DF91CF9108951F93CF93F9
:10388000DF93EB0190915002992321F0CB010E942C
:10389000331C13C0882349F0CB010E94F11B182F61
:1038A000682FCE010E949A1B04C0CB010E94C51B49
:1038B000182FBE01812F0E946607DF91CF911F91C3
:1038C00008958091B4028595859585950895809198
:1038D000B402877008959091B402977081E009F462
:1038E00080E008958091D80208959091D802892BA4
:1038F0008093D802089580959091D802892380936F
:10390000D80208951092D80208958091D7020895A0
:103910009091D702892B8093D7020895809590913A
:10392000D70289238093D70208951092D702089571
:103930009091D602892B8093D6020895809590911C
:10394000D60289238093D60208951092D602089554
:103950008091B502089508950C94AB1C0C94AC1C96
:103960009091B502981721F08093B5020C94AE1C8B
:1039700008958091B502882329F01092B50280E065
:103980000C94AE1C0895E091FC01F091FD01809132
:10399000D8028083E091FC01F091FD01908180913B
:1039A000D702892B8083E091FC01F091FD01908189
:1039B0008091D602892B80838091B502882381F083
:1039C000E091FC01F091FD019081892B8083809131
:1039D000FC019091FD010E94F21D81110E94B91C11
:1039E0008091FC019091FD010C9466110C94AB1C2C
:1039F00098E0899F90011124262B2093B4020E9405
:103A0000FC1A8091B4028595859585950C94F61CD9
:103A10001092B40280E00C94F61C2091B4028095C0
:103A200082238093B402982F977079F430E0482F66
:103A3000082E000C550B2417350739F08595859510
:103A400085950E941D1B0C94081D0895CF92DF924E
:103A5000EF92FF926C01EE24FF24C114D104E10423
:103A6000F10421F0C701B60120E101C020E0C72E1A
:103A7000D82EE92EFF24C114D104E104F10419F079
:103A8000285FC701B6016B017C0154E0F694E7940E
:103A9000D794C7945A95D1F7C114D104E104F10425
:103AA00019F02C5FC701B6016B017C0142E0F6946E
:103AB000E794D794C7944A95D1F7C114D104E1048F
:103AC000F10419F02E5FC701B601DC01CB01B695F8
:103AD000A79597958795892B8A2B8B2B09F02F5FBC
:103AE000822FFF90EF90DF90CF90089580E090E0DC
:103AF0000E94362A21E08D3E9E4F09F020E0822F61
:103B0000089582E090E00C94282A83E090E00C94E1
:103B1000282A84E090E00C94282A682F84E090E022
:103B20000C943C2AAB01BC018FE090E00C944E2A2F
:103B3000AB01BC0183E190E00C944E2A60E070E0A0
:103B4000CB010C94981D60E070E0CB010E94921DA7
:103B50000C949E1D6DEE7EEF80E090E00E945A2A4C
:103B600060E082E090E00E943C2A60E083E090E028
:103B70000E943C2A1092B0021092B1021092B2023E
:103B80001092B30260E084E090E00E943C2A60E082
:103B900085E090E00E943C2A60E086E090E00E9490
:103BA0003C2A6FEF87E090E00E943C2A40E050E022
:103BB000BA0188E090E00E944E2A60E08DE090E03B
:103BC0000E943C2A40E050E0BA0188E190E00E9467
:103BD0004E2A60E087E190E00E943C2A0C94A31DED
:103BE0000C94AA1DFC01329680910802882331F0C2
:103BF00080911C0387FF02C09EE101C096E080E037
:103C0000915028F021912223D9F38F5FF9CF0895A5
:103C10009C01FC0132969FEF80E04191461789F0AC
:103C20009F3F19F4411101C0982F8F5F8630A9F78B
:103C30009F3F39F0F901E90FF11D97FDFA95628375
:103C4000089508959C012A5F3F4FFC01428146136D
:103C500001C01282019682179307B9F70895262FA3
:103C60002695269526952E3168F4FC01E20FF11D6C
:103C7000677021E030E001C0220F6A95EAF7828187
:103C8000282B22830895262F2695269526952E31BA
:103C900070F4FC01E20FF11D677021E030E001C01B
:103CA000220F6A95EAF720958281282322830895BE
:103CB00020910802222329F020911C0327FD0C9457
:103CC0002F1E0C94081E20910802222329F0209117
:103CD0001C0327FD0C94431E0C94221E2091080205
:103CE000FC013296222331F080911C0387FF02C031
:103CF0008EE101C086E0DF011D928A95E9F7089503
:103D000008950C94801E0C94801ECF930E94831EF5
:103D10000E940F0A0E94811EC0E08C2F0E94A10AFF
:103D2000811104C0CF5FC830C1F701C081E0CF91DD
:103D300008950C94801E0C94991E0E949B1E8091E5
:103D40002203843049F11092DA0220E488E190E005
:103D50000FB6F894A895809360000FBE2093600082
:103D600080E00E94D3040E949B1E83B7817F846001
:103D700083BF83B7816083BF7894889583B78E7F34
:103D800083BF0FB6F894A8958091600088618093F6
:103D90006000109260000FBE08950C94801E0E9477
:103DA0008F160E945A110E94D3040C94CD1E1F92AC
:103DB0000F920FB60F9211248F939F93AF93BF93DF
:103DC0008091DA02811113C0809118039091190338
:103DD000A0911A03B0911B034196A11DB11D8093C0
:103DE000180390931903A0931A03B0931B03BF9178
:103DF000AF919F918F910F900FBE0F901F901895CC
:103E000082E084BD93E095BD9AEF97BD80936E00EC
:103E100008952FB7F8948091180390911903A091F9
:103E20001A03B0911B032FBF0895CF92DF92EF9238
:103E3000FF920F931F932FB7F8944091180350915E
:103E4000190360911A0370911B032FBF6A017B0154
:103E5000EE24FF248C0120E030E0C016D106E206FB
:103E6000F30610F4415051099A01281B390BC9017E
:103E70001F910F91FF90EF90DF90CF90089578946D
:103E80001F920F920FB60F9211248F939F93AF93AF
:103E9000BF938091180390911903A0911A03B091D8
:103EA0001B030196A11DB11D809318039093190364
:103EB000A0931A03B0931B03BF91AF919F918F9171
:103EC0000F900FBE0F901F90189581E08093E00037
:103ED00080E28093D8001092C9008FE19EE40197A0
:103EE000F1F700C0000087E090EBDC0180932B032A
:103EF00090932C03A0932D03B0932E039CE088E1B4
:103F00000FB6F894A895809360000FBE9093600060
:103F1000FFCF0E94761D811102C00E94F01D0E94F9
:103F2000811D8093D9020E94891D90E090931D030A
:103F300080931C030E94851D682F70E080E090E054
:103F40000C949C1A8091FB02089508950F931F937F
:103F5000CF93DF9300D01F92CDB7DEB78C010E94C4
:103F6000E921823011F0843021F584E089831B83BC
:103F70000A8382E08093E9008FEF9091E8008150FE
:103F800095FD06C095ED9A95F1F700008111F5CFEA
:103F90008091E80085FF0DC040E050E063E070E0F4
:103FA000CE0101960E9406228091E8008E778093D0
:103FB000E8000F900F900F90DF91CF911F910F911C
:103FC0000895CF93DF9300D01F92CDB7DEB7209135
:103FD0002203243031F523E02983805891099B8303
:103FE0008A8382E08093E9008FEF9091E80081500E
:103FF00095FD06C095ED9A95F1F700008111F5CF7A
:104000008091E80085FF0DC040E050E063E070E083
:10401000CE0101960E9406228091E8008E7780935F
:10402000E8000F900F900F90DF91CF910895CF93FC
:10403000DF93EC010E94E921823011F08430D9F540
:1040400080910802882339F080911C0387FF03C008
:1040500060E282E002C068E081E08093E9008FEFD7
:104060009091E800815095FD06C095ED9A95F1F785
:1040700000008111F5CF8091E80085FF1CC0809180
:104080000802811105C040E050E068E070E003C024
:1040900070E040E050E0CE010E9406228091E800EE
:1040A0008E778093E80080E2FE01ABEDB2E00190F4
:1040B0000D928A95E1F7DF91CF91089580912103C8
:1040C000811109C00E9497230E94F4238091E2008D
:1040D00084608093E200089510922103089508956A
:1040E00008950C94CF1E42E061EC81E00E94102301
:1040F00042E261EC82E00C9410238091240383302F
:1041000009F460C030F4813071F0823009F499C054
:1041100008958A3009F485C08B3009F46BC089306A
:1041200009F0A7C020C080912303813A09F0A1C003
:104130008091E800877F8093E80080912703909129
:104140002803892B21F460E28BED92E003C060E04C
:1041500080E090E070E00E9451228091E8008B772F
:104160008093E800089580912303813209F081C093
:104170008091270390912803029708F07AC08091DC
:10418000E800877F8093E8008091E80082FD05C009
:10419000809122038111F8CF6CC02091F3008091AF
:1041A000F20090E0922B029729F48091F1008B7F2E
:1041B000813021F48091F1008093FB028091E8002E
:1041C0008B7753C080912303813A09F052C08091CC
:1041D000270390912803892B09F04BC08091E800B8
:1041E000877F8093E8008091E80080FFFCCF80917A
:1041F000080236C0809123038132D9F580912703CC
:1042000090912803892BA9F58091E800877F8093FE
:10421000E8000E94452380912503809308020C94B6
:104220008F1680912303813221F58091E800877FEA
:104230008093E8000E944523809126038093FC022E
:10424000089580912303813AA1F48091E800877F4B
:104250008093E8008091E80080FFFCCF8091FC0211
:104260008093F1008091E8008E778093E8000C94B1
:104270004523089584B7877F84BF0FB6F894A89527
:1042800080916000886180936000109260000FBE92
:1042900080E880936100109261000E94BC110E942E
:1042A00097230E94F4238091E20084608093E200CF
:1042B00078940E9489260E94C4118EEF91E00E949A
:1042C000551180912203853069F40E949D1E8091D2
:1042D00020038823B1F30E94851E882391F30E9456
:1042E000F021EFCF0E94CE110E94760FEACF0C94FE
:1042F0007921292F332723303105C9F060F421308B
:10430000310581F02230310509F04AC08BE390E09D
:104310002EE335E049C02132310511F12232310559
:1043200079F13EC082E190E029E735E03DC0992770
:104330008130910561F040F08230910559F003978A
:1043400079F5E8E1F5E008C0EAE3F5E005C0EAE266
:10435000F5E002C0EEE1F5E0849190E09F0124C019
:104360006115710541F061307105D1F489E090E08B
:1043700029E635E019C089E090E020E535E014C079
:104380006115710541F06130710551F481E790E0EC
:104390002BE835E009C080E490E02CEF35E004C064
:1043A00080E090E020E030E0FA013183208308953E
:1043B0000895CF93C82F0E94D821C093FD02CF91BA
:1043C000089580912203843011F081E0089582E005
:1043D00008958091FD02811102C00C94E12108959D
:1043E00080E189BD82E189BD09B400FEFDCF8091E5
:1043F000D8008F7D8093D8008091E0008260809308
:10440000E0008091E00081FDFCCF0895CF92DF9223
:10441000EF92FF920F931F93CF93DF93EC018B01E9
:104420007A010E946423811133C0E114F10439F050
:10443000F70180819181081B190BC80FD91FC12C6E
:10444000D12C0115110519F18091E80085FD16C0E8
:104450008091E8008E778093E800E114F10449F040
:10446000F70180819181C80ED91ED182C08285E07A
:104470000FC00E946423882321F30AC0899180938E
:10448000F10001501109FFEFCF1ADF0ADACF80E007
:10449000DF91CF911F910F91FF90EF90DF90CF9020
:1044A00008952091290330912A032617370748F0F1
:1044B0006115710539F42091E8002E772093E8000A
:1044C00001C0B901FC0120E06115710579F180910D
:1044D00022038823F1F18530F1F18091E80083FD1A
:1044E0003CC08091E80082FD2EC08091E80080FFF2
:1044F000EBCF2091F3008091F20090E0922B6115B8
:10450000710551F08830910538F421912093F10024
:10451000615071090196F3CF21E0089709F020E07E
:104520008091E8008E778093E800CECF2111CFCF25
:104530000AC080912203882361F0853061F0809168
:10454000E80083FD0AC08091E80082FFF2CF80E09E
:10455000089582E0089583E0089581E00895209110
:10456000290330912A032617370748F06115710592
:1045700039F42091E8002E772093E80001C0B901BA
:10458000FC0120E06115710591F1809122038823DF
:1045900009F440C0853009F43FC08091E80083FDF4
:1045A0003DC08091E80082FD2FC08091E80080FF2F
:1045B000E9CF2091F3008091F20090E0922B6115F9
:1045C000710559F08830910540F424912093F10051
:1045D0003196615071090196F2CF21E0089709F0F8
:1045E00020E08091E8008E778093E800CBCF211106
:1045F000CCCF0AC080912203882361F0853061F01E
:104600008091E80083FD0AC08091E80082FFF2CF2C
:1046100080E0089582E0089583E0089581E00895A0
:10462000982F973068F59093E900981739F07091BA
:10463000EC002091ED005091F00003C0242F762F64
:1046400050E021FD02C09F5FECCF3091EB003E7F38
:104650003093EB003091ED003D7F3093ED003091D1
:10466000EB0031603093EB007093EC002093ED0091
:104670005093F0002091EE0027FDE5CF80E00895F3
:104680008F708093E90081E008958091230387FF74
:1046900011C08091E80082FD05C080912203811144
:1046A000F8CF11C08091E8008B770BC08091220376
:1046B000882349F08091E80080FFF8CF8091E800DE
:1046C0008E778093E80008952091E4003091E50012
:1046D00095E64091EC00842F817040FF23C08091CB
:1046E000E80080FD1DC080912203882399F0853069
:1046F00099F08091EB0085FD11C04091E40050914C
:10470000E5002417350729F3915011F09A01E1CF04
:1047100084E0089582E0089583E0089581E008959B
:1047200080E008954091E80042FFDDCF08950E94A7
:1047300005240E940D24E0EEF0E0808181608083FA
:10474000E8EDF0E080818F77808319BCA7EDB0E0C1
:104750008C918E7F8C9380818F7E80831092210339
:1047600008950F931F93CF93DF930E9405240E9417
:104770000D24C8EDD0E088818F7788838881806898
:10478000888388818F7D888319BC109222031092C0
:104790001E031092200310921F0300EE10E0F80198
:1047A00080818B7F808388818160888342E060E0A4
:1047B00080E00E941023E1EEF0E080818E7F808314
:1047C000E2EEF0E080818160808380818860808378
:1047D000F80180818E7F8083888180618883DF916A
:1047E000CF911F910F910895E8EDF0E080818F7EC9
:1047F0008083E7EDF0E080818160808384E082BF88
:1048000081E0809321030C94B123E8EDF0E08081F6
:104810008E7F80831092E20008951092DA00109249
:10482000E10008951F920F920FB60F9211242F935B
:104830003F934F935F936F937F938F939F93AF9328
:10484000BF93EF93FF938091E10082FF0BC08091B3
:10485000E20082FF07C08091E1008B7F8093E1003E
:104860000E9488268091DA0080FF1FC08091D800C6
:1048700080FF1BC08091DA008E7F8093DA008091E8
:10488000D90080FF0DC080E189BD82E189BD09B4F6
:1048900000FEFDCF81E0809322030E945E2005C0D0
:1048A00019BC109222030E946C208091E10080FFCD
:1048B00019C08091E20080FF15C08091E2008E7FD8
:1048C0008093E2008091E20080618093E200809119
:1048D000D80080628093D80019BC85E080932203C1
:1048E0000E9470208091E10084FF30C08091E2003E
:1048F00084FF2CC080E189BD82E189BD09B400FE3E
:10490000FDCF8091D8008F7D8093D8008091E10009
:104910008F7E8093E1008091E2008F7E8093E200A1
:104920008091E20081608093E20080911E038823E1
:1049300011F084E007C08091E30087FD02C081E0B0
:1049400001C083E0809322030E9471208091E100E6
:1049500083FF29C08091E20083FF25C08091E100A0
:10496000877F8093E10082E08093220310921E03F0
:104970008091E1008E7F8093E1008091E2008E7F44
:104980008093E2008091E20080618093E20042E047
:1049900060E080E00E9410238091F00088608093A6
:1049A000F0000E946F20FF91EF91BF91AF919F9116
:1049B0008F917F916F915F914F913F912F910F90C8
:1049C0000FBE0F901F9018951F920F920FB60F9267
:1049D00011242F933F934F935F936F937F938F9304
:1049E0009F93AF93BF93CF93DF93EF93FF93C091C8
:1049F000E900CF708091EC00D82FD17080FDD0E815
:104A00001092E9008091F000877F8093F000789405
:104A10000E9428251092E9008091F0008860809320
:104A2000F000CD2BCF70C093E900FF91EF91DF91A3
:104A3000CF91BF91AF919F918F917F916F915F9136
:104A40004F913F912F910F900FBE0F901F9018958F
:104A50001F93CF93DF93CDB7DEB7AA970FB6F89425
:104A6000DEBF0FBECDBFE3E2F3E08091F1008193A2
:104A700023E0EB32F207C9F70E947D208091E80025
:104A800083FF2EC18091230390912403492F50E08E
:104A90004A30510508F024C1FA01E556FF4F0C9445
:104AA000152A803821F0823809F01AC108C0809197
:104AB0001F0390912003992389F082600FC0809199
:104AC00027038F70873008F00BC18093E900809135
:104AD000EB0085FB882780F91092E9009091E800AF
:104AE000977F9093E8008093F1001092F100D1C07D
:104AF000282F2D7F09F0F4C0882319F0823061F04F
:104B0000EFC080912503813009F0EAC0933009F0AD
:104B100080E0809320032EC08091250381112AC05C
:104B2000809127038F702FEF280F263008F0D8C010
:104B30008093E9002091EB0020FF1CC0933021F40A
:104B40008091EB00806214C09091EB009061909393
:104B5000EB0021E030E0A90102C0440F551F8A9507
:104B6000E2F74093EA001092EA008091EB0088603F
:104B70008093EB001092E9008091E800877F80939A
:104B8000E8000E944523ACC08111AAC01091250302
:104B90001F778091E3008078812B8093E3008091E0
:104BA000E800877F8093E8000E9445238091E80019
:104BB00080FFFCCF8091E30080688093E3001111B7
:104BC00002C082E001C083E08093220389C0805844
:104BD000823008F085C080912503909126038C3D9A
:104BE00053E0950779F583E08A838AE289834FB79A
:104BF000F894DE01139620E03EE051E2E32FF0E06E
:104C000050935700E49120FF03C0E295EF703F5F9F
:104C1000EF708E2F90E0EA3010F0C79601C0C0967A
:104C20008D939D932F5F243149F74FBF8091E8000A
:104C3000877F8093E8006AE270E0CE0101960E94CF
:104C4000512216C06091270370912803AE014F5F77
:104C50005F4F0E947721BC01892B09F441C09091DC
:104C6000E800977F9093E80089819A810E94AF22A3
:104C70008091E8008B778093E80032C0803881F51E
:104C80008091E800877F8093E80080911E038093E5
:104C9000F1008091E8008E7772CF811121C0809160
:104CA00025039091260399270297D4F48091E80078
:104CB000877F8093E8008091250380931E030E94E4
:104CC000452380911E03811106C08091E30087FD7A
:104CD00002C081E001C084E0809322030E9473201F
:104CE0008091E80083FF0AC08091E800877F80936D
:104CF000E8008091EB0080628093EB00AA960FB6EB
:104D0000F894DEBF0FBECDBFDF91CF911F91089504
:104D10000895CF93809122038823A1F0C091E900E8
:104D2000CF709091EC00892F817090FD80E8C82BA6
:104D30001092E9008091E80083FD0E942825CF7041
:104D4000C093E900CF9108955058BB27AA270E942D
:104D5000BC260C9467280E94592838F00E946028CD
:104D600020F039F49F3F19F426F40C942F280EF408
:104D7000E095E7FB0C942928E92F0E94782858F346
:104D8000BA17620773078407950720F079F4A6F530
:104D90000C949A280EF4E0950B2EBA2FA02D0B013F
:104DA000B90190010C01CA01A0011124FF27591B70
:104DB00099F0593F50F4503E68F11A16F040A22F76
:104DC000232F342F4427585FF3CF469537952795E7
:104DD000A795F0405395C9F77EF41F16BA0B620BE6
:104DE000730B840BBAF09150A1F0FF0FBB1F661F2D
:104DF000771F881FC2F70EC0BA0F621F731F841F70
:104E000048F4879577956795B795F7959E3F08F095
:104E1000B0CF9395880F08F09927EE0F9795879557
:104E200008950E9425270C9467280E94602858F056
:104E30000E94592840F029F45F3F29F00C9429285A
:104E400051110C949B280C942F280E94782868F309
:104E50009923B1F3552391F3951B550BBB27AA2733
:104E600062177307840738F09F5F5F4F220F331F6D
:104E7000441FAA1FA9F335D00E2E3AF0E0E832D035
:104E800091505040E695001CCAF72BD0FE2F29D038
:104E9000660F771F881FBB1F261737074807AB070A
:104EA000B0E809F0BB0B802DBF01FF2793585F4F7F
:104EB0003AF09E3F510578F00C9429280C949B28D9
:104EC0005F3FE4F3983ED4F3869577956795B79561
:104ED000F7959F5FC9F7880F911D9695879597F96C
:104EE0000895E1E0660F771F881FBB1F62177307E5
:104EF0008407BA0720F0621B730B840BBA0BEE1FFA
:104F000088F7E095089529F416F00C9429280C945C
:104F10009A280C942F280E948028A8F39638A0F78E
:104F200007F80F92E8942BE33AEA48EB5FE70E9418
:104F30002D290F920F920F924DB75EB70F920E94DC
:104F4000E328EAE4F1E00E9432284F915F91EF916B
:104F5000FF91E595EE1FFF1F49F0FE57E0684427DB
:104F6000EE0F441FFA95E1F74195550B0E94AD28CD
:104F70000F9007FE0C94A12808950E94802888F0C5
:104F80009F5798F0B92F9927B751B0F0E1F0660F0D
:104F9000771F881F991F1AF0BA95C9F714C0B1304E
:104FA00091F00E949A28B1E008950C949A28672FF6
:104FB000782F8827B85F39F0B93FCCF3869577957D
:104FC0006795B395D9F73EF4909580957095619566
:104FD0007F4F8F4F9F4F0895E89409C097FB3EF491
:104FE00090958095709561957F4F8F4F9F4F992336
:104FF000A9F0F92F96E9BB279395F69587957795B4
:105000006795B795F111F8CFFAF4BB0F11F460FF73
:105010001BC06F5F7F4F8F4F9F4F16C0882311F0CB
:1050200096E911C0772321F09EE8872F762F05C0DF
:10503000662371F096E8862F70E060E02AF09A957A
:10504000660F771F881FDAF7880F9695879597F96F
:10505000089597F99F6780E870E060E008959FEFFA
:1050600080EC0895DF93CF931F930F93FF92EF92FD
:10507000DF927B018C01689406C0DA2EEF010E945A
:105080002A29FE01E894A5912591359145915591E4
:10509000A6F3EF010E94BC26FE019701A801DA9455
:1050A00069F7DF90EF90FF900F911F91CF91DF9103
:1050B000089500240A94161617061806090608957E
:1050C00000240A9412161306140605060895092EE4
:1050D0000394000C11F4882352F0BB0F40F4BF2B53
:1050E00011F460FF04C06F5F7F4F8F4F9F4F089593
:1050F00057FD9058440F551F59F05F3F71F0479589
:10510000880F97FB991F61F09F3F79F0879508956D
:10511000121613061406551FF2CF4695F1DF08C08C
:10512000161617061806991FF1CF869571056105A9
:1051300008940895E894BB2766277727CB0197F951
:1051400008959B01AC0160E070E080E89FE30C945F
:1051500011270C9429280C948C290E948028D8F3BC
:105160009923C9F3940F511DA3F39150504094F02B
:1051700059F0882332F0660F771F881F91505040F6
:10518000C1F79E3F51052CF7880F911D9695879585
:1051900097F908955F3FACF0983E9CF0BB27869549
:1051A00077956795B79508F4B1609395C1F7BB0FF4
:1051B00058F711F460FFE8CF6F5F7F4F8F4F9F4F1D
:1051C000E3CF0C949B28FA01DC01AA0FBB1F9B01C3
:1051D000AC01BF5728F4222733274427507820C03A
:1051E000B75190F4AB2F0024469537952795011CB5
:1051F000A395D2F3002071F0220F331F441FB39503
:10520000DAF30ED00C94A42661307105A0E88A0769
:10521000B94630F49B01AC01662777278827907840
:10522000309621F0208331834283538308950E9476
:105230002A290C9467280E94592838F00E94602877
:1052400020F0952311F00C9429280C942F28112478
:105250000C949B280E94782870F3959FC1F3950FBA
:1052600050E0551F629FF001729FBB27F00DB11DEA
:10527000639FAA27F00DB11DAA1F649F6627B00D7A
:10528000A11D661F829F2227B00DA11D621F739F63
:10529000B00DA11D621F839FA00D611D221F749F71
:1052A0003327A00D611D231F849F600D211D822FB8
:1052B000762F6A2F11249F5750409AF0F1F08823DF
:1052C0004AF0EE0FFF1FBB1F661F771F881F91500C
:1052D0005040A9F79E3F510580F00C9429280C946A
:1052E0009B285F3FE4F3983ED4F3869577956795C6
:1052F000B795F795E7959F5FC1F7FE2B880F911D36
:105300009695879597F908959F930E949C290F90F1
:1053100007FCEE5F0C94C5299F3F31F0915020F4BB
:10532000879577956795B795880F911D9695879581
:1053300097F908950C942F280E948028D8F3E894B8
:10534000E0E0BB279F57F0F02AED3FE049EC06C0B4
:10535000EE0FBB0F661F771F881F28F0B23A620757
:105360007307840728F0B25A620B730B840BE39522
:105370009A9572F7803830F49A95BB0F661F771FA5
:10538000881FD2F790480C948E29EF93E0FF07C056
:10539000A2EA2AED3FE049EC5FEB0E94BC260E94A6
:1053A00067280F90039401FC9058E2E7F1E00C9419
:1053B000D9299F938F937F936F93FF93EF939B01D3
:1053C000AC010E941729EF91FF910E9432282F9182
:1053D0003F914F915F910C941729AA1BBB1B51E180
:1053E00007C0AA1FBB1FA617B70710F0A61BB70B55
:1053F000881F991F5A95A9F780959095BC01CD01FA
:10540000089597FB072E16F4009407D077FD09D076
:105410000E94ED2907FC05D03EF4909581959F4FA1
:105420000895709561957F4F0895EE0FFF1F0590C9
:10543000F491E02D0994FC014150504030F001906E
:105440000616D1F73197CF01089588279927089537
:10545000F999FECF92BD81BDF89A992780B508953C
:10546000A6E1B0E044E050E00C94622AA8E1B0E08C
:1054700042E050E00C94622A262FF999FECF92BDAB
:1054800081BDF89A019700B4021639F01FBA20BD09
:105490000FB6F894FA9AF99A0FBE08950396272F3B
:1054A0000E943D2A0E943C2A252F0E943D2A242F3B
:1054B0000C943D2A0196272F0E943D2A0C943C2AE9
:1054C000DC01CB01FC01F999FECF06C0F2BDE1BDC4
:1054D000F89A319600B40D9241505040B8F70895B3
:0454E000F894FFCF6E
:1054E40000000000000000000000000000000000B8
:1054F40000000000000000000000000000000000A8
:105504000000000000000000000000000000000097
:105514000000000000000000000000000000000087
:105524000000000000000000000000000000000077
:105534000000000000000000000000000000000067
:105544000000000000000000000000000000000057
:105554000000000000000000000000000000000047
:105564000000000000000000000000000000000037
:105574000000000000000000000000000000000027
:105584000000000000000000000000000000000017
:105594000000000000000000000000000000000007
:1055A400000000000000E70FF80F081000000000E2
:1055B40000000000000000000000F601E70FF80FF3
:1055C40008100000000000000000000000000000BF
:1055D400F201E200E3002B00390001FFB602A21F32
:1055E4001720A51FE11FA61F01933331F7F6F5F429
:0855F4003534C69766949091CE
:00000001FF
