:100000000C94BA030C94D7030C94D7030C94D70325
:100010000C94D7030C94D7030C94D7030C94D703F8
:100020000C94D7030C94D7030C9498310C94703231
:100030000C944D310C94D7030C94D7030C94D70334
:100040000C94D7030C94D7030C94D7030C94D703C8
:100050000C94D7030C9474310C94D7030C94D703ED
:100060000C94D7030C94D7030C94D7030C94D703A8
:100070000C94D7030C94D7030C94D7030C94D70398
:100080000C94D7030C94D7030C94D7030C94D70388
:100090000C94D7030C94D7030C94D7030C94D70378
:1000A0000C94D7030C94D7030C94D7030501098053
:1000B000A101850319012AB700150126B700950192
:1000C00075108100C0050C0901A101850419012AE0
:1000D000A002150126A002950175108100C00660DE
:1000E000FF0961A1010962150026FF00952075082E
:1000F00081020963150026FF00952075089102C052
:1001000005010906A101050719E029E715002501E8
:10011000950875018102950175088101050719008F
:1001200029FF150026FF00950675088100050819AE
:1001300001290515002501950575019102950175A7
:10014000039101C00000000000000000000000005A
:10015000000000000000000000000000000000009F
:1001600000000000000000007E0F00D4FFFFFFC76A
:100170000000007800000000000000002A2B28008A
:100180000000000000000000000000000000002946
:10019000000000002C1E3420212224342627252E86
:1001A000362D3738271E1F202122232425263333BE
:1001B000362E37381F0405060708090A0B0C0D0EEA
:1001C0000F101112131415161718191A1B1C1D2FB6
:1001D0003130232D350405060708090A0B0C0D0ED6
:1001E0000F101112131415161718191A1B1C1D2F96
:1001F0003130354C09025B00030100A0FA0904000C
:10020000000103010100092111010001224400073E
:100210000581030800010904010002030000000930
:10022000211101000122220007058203200001079D
:100230000503032000010904020001030000000976
:100240002111010001223200070584032000011260
:10025000010002000000084D4D5804100201020385
:10026000011C037600690061006C003A00660036EC
:100270000034006300320062003300630000000AB3
:1002800003540047003400780000001A0357006F41
:100290000072006C00640073007000610077006EF3
:1002A0000030003000000004030904290014001A83
:1002B000000800150017001C002B000400160007A2
:1002C0000009000A000B00E1001D001B00060019D8
:1002D0000005001100E000E300E20000002C002C0B
:1002E00000000018000C00120013002D004C00004C
:1002F000000D000E000F0034002800000000001068
:1003000000360037003800E500000000000000E67D
:1003100000E700E40021520000000020782178016D
:100320000001000100010001002378247801000190
:10033000000100010001002578267801000100017C
:100340000001000100277828780100000001000169
:100350000000000100010001000100010001000097
:10036000000100010001000100007C00000000010C
:100370000001000100010001000000000000000178
:100380000001000100010000000000010001000167
:100390000001000100010001000100010001000155
:1003A0000001000100010001000100010001000145
:1003B0000001000100010001000100000001000136
:1003C0000000000100010001000100010001000027
:1003D0000001000100010001000100000000000117
:1003E0000001000100010001000000000000000108
:1003F00000010001000100000000000100010001F7
:1004000000010001000100010001000100010001E4
:1004100000010001000100010001000100010001D4
:1004200000010001000100010001000000010001C5
:1004300000000001000100010001000100010000B6
:1004400000010001000100010001000000000001A6
:100450000001000100010001000000000000000197
:100460000001000100010000000000000101010185
:10047000010101010102020202020202020203035F
:10048000030303030303040404040404040505052F
:1004900005050606060606070707070708080808F1
:1004A000090909090A0A0A0B0B0B0C0C0C0D0D0D9E
:1004B0000E0E0E0F0F0F1010111111121213131434
:1004C00014151516161717181819191A1A1B1B1CAC
:1004D0001D1D1E1E1F202021222223242425262606
:1004E000272829292A2B2C2D2D2E2F30313232333B
:1004F0003435363738393A3B3C3D3E3F4041424344
:100500004445464748494A4C4D4E4F505153545527
:100510005658595A5B5D5E5F616264656668696BD7
:100520006C6D6F7072737577787A7B7D7E80828355
:100530008587888A8C8E8F91939596989A9C9EA099
:10054000A2A3A5A7A9ABADAFB1B3B5B7BABCBEC0A6
:10055000C2C4C6C9CBCDCFD1D4D6D8DBDDDFE2E46F
:10056000E7E9EBEEF0F3F5F8FAFDFF010001008595
:10057000053F29552900000200020081053F295549
:100580002900000300010086053F295529000004C9
:100590000002006B053F295529D608050001008798
:1005A000053F2955290000060002006D053F295529
:1005B0002900000700020083053F29552900000893
:1005C00000010088053F295529000012000200891A
:1005D000053F2955290000130002008B053F2955CE
:1005E000290000140001008D053F29552900001540
:1005F0000000000000DF0898100000FD377A585A0C
:10060000000004E6D6B44602002101160000007482
:100610002FE5A3E0036D012B5D003D888986D3DCC7
:100620000AE842C3249258425AFA4B420ACB83F456
:10063000036BA4E7ABD19547276B79392A67612D06
:1006400001E7024BD1B4AB15638BFAE99997003AF5
:10065000D0448DDEE8DB41CADFEEDDC9291B016431
:1006600034A3AD7B5B45108C666E15412018CCC160
:1006700077AB4849937BFA8154669328AAC926B67A
:1006800061CABCAFA2F54875865E05F9EE00B7D128
:10069000FBD7A8B4F2546011D82546A02D34A3FD91
:1006A000356FB2473783D05B0D3D514D2D41969F3D
:1006B00079516EB94889A06120897E27E25E63C8BE
:1006C00081E9D6AFCDCE22F744DA9C3CF73249DF40
:1006D000DAD04F157BCDD82AD82F0729BF83AA5F40
:1006E00021DA1326C3C1C541C35FAAA07B86C7D246
:1006F000807030C1E6D6C68338E003A63F621E187C
:10070000EDBAA227EC2690BEFFD528867724874134
:100710009B6A2E07B2FFBC337FA3CAEA80BC9B6AE8
:100720007CF5087F889393A03E3CE21FFAB3C9FE94
:100730006DE9DC4963A009E310E38E92D1E9B6913B
:1007400077E32B28BE000097DC1A6974204B590010
:1007500001C702EE06000008E35587B1C467FB023B
:100760000000000004595A000000000100020002CD
:100770000001000011241FBECFEFDAE0DEBFCDBFC5
:1007800011E0A0E0B1E0EAE2F8E602C005900D92C7
:10079000AC3FB107D9F725E0ACEFB1E001C01D9245
:1007A000A339B207E1F70E94172A0C94A3330C94E3
:1007B00000009C019A9581159F4118F5F32FF27066
:1007C000EE27832F8170732F74706627532F587014
:1007D000442734FF0CC08295807FEF2B09F08062A4
:1007E000672B09F08064452B69F080680895EF2B32
:1007F00009F08260672B09F08460452B19F088604E
:10080000089580E00895CF93DF93EB010E94D90310
:10081000FE010995DF91CF910895282F92959F7041
:10082000963099F060F4925F9F70923030F4203FE0
:10083000B1F038F481E0283E38F080E008959A5F06
:10084000F3CF81E0243FC9F7089591E0813F09F09B
:1008500090E081E0283E08F080E0892B089581E057
:10086000089580936905089580936A05089521E0AD
:1008700030E001C0220F8A95EAF780916A05822B49
:100880000E943404089521E030E0A90102C0440F21
:10089000551F8A95E2F7CA01809590916A058923D0
:1008A0000E9434040895292F983090F5873080F500
:1008B00090E037E0239F800D911D1124282F277091
:1008C00041E001C0440F2A95EAF723E09695879509
:1008D0002A95E1F7FC01EE0FFF1FE80FF91FE75122
:1008E000FC4F20E030E070E05191DF01CB01022E9F
:1008F00002C0969587950A94E2F7817081958527C5
:10090000842385278E932F5F3F4F2330310561F776
:100910000895292F983078F5873068F590E037E012
:10092000239F800D911D1124682F677023E09695F9
:1009300087952A95E1F7FC01EE0FFF1FE80FF91FDD
:10094000E751FC4F40E050E080E0219130E0062E7E
:1009500002C0369527950A94E2F721703327042EBA
:1009600001C0220F0A94EAF7822B4F5F5F4F43309A
:10097000510559F7089580E0089590916A0521E0A6
:1009800030E0F90101C0EE0F8A95EAF7D90102C003
:10099000AA0FBB1F6A95E2F7EA2B01C0220F4A9506
:1009A000EAF7892F8E23E81305C0892F822B0E9436
:1009B000340408952095822F8923F9CF80919703DD
:1009C00090919603981301C008958F5F8770FACFB6
:1009D0009091B704809589238093B704282F2770BE
:1009E000211111C0891779F09091900592FF0BC0E9
:1009F0008695869586950E9443041092B7041092BE
:100A0000B9041092B80408959091B404982B90936F
:100A1000B4040895982F90958091B404892380930D
:100A2000B40408958091B304811531F01092B30499
:100A30001092B2041092B10408959C01803E910579
:100A400009F448C0D8F48133910509F47DC048F415
:100A50008932910509F46DC08A9709F47CC0C901F7
:100A600008958933910551F18238910539F1C5977F
:100A7000B1F780918F0585FFF2CF29C0843E9105A3
:100A800009F447C048F4823E910599F1833E9105EF
:100A9000A9F121EE30E0E3CF863E910509F444C090
:100AA000873E9105E1F680918F0583FD61C09091AD
:100AB000900591FF2BC024EE30E0D1CF80918F05BF
:100AC0008370811152C08091900583FFC8CF29E2C5
:100AD00030E0C5CF80918F0580FD33C090919005A7
:100AE00090FFBDCF23EE30E084FFB9CF20E030E0AF
:100AF000B6CF80918F0582FDF5CFB1CF80918F0564
:100B000082FD30C09091900590FD2FC084FFA7CF4B
:100B1000EDCF8091900581FFA2CF80918F0527EEC8
:100B200030E084FDE3CF9BCF80918F0583FDF7CF2D
:100B300096CF80918F0585FD1EC08091900583FF23
:100B40008ECF29E330E08BCF80918F0586FF87CF52
:100B50002AE230E084CF80918F0586FF80CF21E3A9
:100B600030E07DCF22EE30E07ACF20EE30E077CF5C
:100B700026EE30E074CF25E330E071CF90918F0501
:100B800092FF10C041E0282F2471243009F040E08A
:100B900031E0282F2871283009F030E0431711F098
:100BA0002CE0822793FF10C041E0282F24712431CC
:100BB00009F040E031E0282F2871283109F030E0B9
:100BC000431711F02CE082273091900530FF10C0C0
:100BD00051E0282F2171213009F050E041E0282F09
:100BE0002871283009F040E0541711F029E08227DD
:100BF00031FF10C041E0282F2171213109F040E080
:100C000031E0282F2871283109F030E0431711F026
:100C100029E0822794FD877E08951F93CF93DF9369
:100C20000E941D05EC01811522E5920708F055C0D0
:100C3000811540E5940708F0D1C0803E910520F56C
:100C40008D3C910508F0A4C0883A910570F4853A6E
:100C5000910508F09AC081309105D1F10497813A4D
:100C60009105B0F1C0E0D0E033C0885A91094B97AC
:100C7000C8F7C85AD0E0CC0FDD1FC157DE4F09902E
:100C8000D881C02DD46424C0811550E49507C0F4E8
:100C9000C11580E2D80708F0B7C0C83ED105C0F042
:100CA000CE019A9581159F41E8F68D2F0E94BE05D1
:100CB000182FCE0199270E941D05EC01D12B08C0E9
:100CC00099270E941D05CC27DF70C82BD92BD06A2D
:100CD000CE01DF91CF911F910895803842E59407AE
:100CE000C8F5803652E5950708F05BC0C03482E550
:100CF000D807D0F4C03292E5D90708F04BC08C2F4A
:100D00008695869520E2829FC0011124C37021E060
:100D100030E0A90102C0440F551FCA95E2F7EA016D
:100D2000C82BD92BDD68D4CF8C2F869586958770FC
:100D300050E2859FC0011124C37021E030E0A90179
:100D400002C0440F551FCA95E2F7EA01C82BD92B00
:100D5000DC68BECF803C52E5950758F48F71C03AED
:100D6000D245A0F590E0982F8827EC01C46FD06A97
:100D7000AFCF805C9245809708F074CFDC2FCC27F2
:100D8000CC27DF71C06FD06AA3CFA497D064A0CF67
:100D9000D0659ECFCF71D0E0DC2FCC27C16FD06A59
:100DA00097CF86958695877020E2829FC001112497
:100DB000C37021E030E0A90102C0440F551FCA955D
:100DC000E2F7EA01C82BD92BDA6882CF0E94BE0570
:100DD000C82FD0E0DC2FCC27D0627ACF8F710E9451
:100DE000BE0593E0CC0FDD1F9A95E1F7CC27DF70AD
:100DF000282F30E084FF04C050E1859F900111242A
:100E0000C22BD32BD06964CF8D2F8F710E94BE056A
:100E1000182FCE0199270E941D05EC01D12BDCCFA4
:100E200080E00895F894E82FE295EF70F0E041A19A
:100E30008F7021E030E0B90102C0660F771F8A95FC
:100E4000E2F7CB01962F9095942391A392A1892B41
:100E500082A378940895A0E0B0E0E1E3F7E00C9479
:100E6000E732372FE82FF0E0E559FB4F71110AC048
:100E7000E4918E2F2E2F6E2F722FCDB7DEB7E7E0C5
:100E80000C940333062F10E0E72EF12CD4902D2D77
:100E900086E0689FE0011124EFEFF0E0CE01BF0192
:100EA0000E94BB32000F111F45E5469FC001479FBE
:100EB000900D1124081B190B402F440F400F8F0178
:100EC0000E191F09D09ED001D19EB00D11248B2F79
:100ED000349F80011124012F11277F01E01AF10AAC
:100EE0008701D09E7001D19EF00C11248F01041B4C
:100EF0001109A801349F8001359F100D1124012F85
:100F00001127E01BF10BDE9EA001DF9E500D112486
:100F1000E52F63307105C1F0CC3FD34058F4613008
:100F20007105B1F06230710509F0A5CFED2D2B2FC1
:100F3000852FA1CF6430710571F06630710509F419
:100F40009ACFEB2F8F2D97CF2B2F8D2DEF2D93CF6A
:100F5000ED2D2F2D90CFEB2F8D2D252F8CCF0E9497
:100F60006B0808950E948F080895962F2091A90478
:100F700023702115A1F0811599F0833098F48F73B7
:100F8000880F880F2091A9042370822B8093A904D5
:100F9000109216016091A804692B6093A80408952B
:100FA00081E0EECF82E0ECCF8091A9048695869512
:100FB0008F5F833008F081E061E00E94B5070895FB
:100FC0008091A904869586958A9509F482E061E06E
:100FD0000E94B5070895922F2091A904237021152E
:100FE00059F08093AA046093AB044093AC04209121
:100FF000A804292B2093A8040895E9EAF4E081814C
:1010000090E021E04381628108960E94EB070895F9
:10101000E9EAF4E0818121E0438162818850990B03
:101020000E94EB070895E9EAF4E0628120E1620F93
:1010300008F46FEF818121E0438190E00E94EB078B
:101040000895E9EAF4E0628120E1621B08F460E0BF
:10105000818121E0438190E00E94EB070895E9EA55
:10106000F4E0438120E1420F08F44FEF818121E059
:10107000628190E00E94EB070895E9EAF4E0438181
:1010800020E1421B08F440E0818121E0628190E090
:101090000E94EB070895E9EAF4E0248130E1230F90
:1010A00008F42FEF24838091A80481608093A80422
:1010B0000895E9EAF4E0248130E1231B08F420E0FC
:1010C00024838091A80481608093A8040895529A93
:1010D00010923D030895CF93DF93EC01FC01EE0FD6
:1010E000FF1FDF01AC0FBD1FA85DBC4F11968C9197
:1010F0001197861307C08C91841304C012968C91AB
:10110000821751F081E080933D03EC0FFD1FE85DF5
:10111000FC4F618340832283DF91CF910895FF923A
:101120000F931F93CF93DF93182F062FF42EC0E059
:10113000D0E02F2D402F612FCE010E946B08219609
:10114000C730D105B1F7CDB7DEB7E5E00C94053374
:10115000FA01811511F009950895FB01FCCF9C015E
:1011600021158CE7380741F4809112019091130109
:10117000892B11F420E030E0C9010895E9E1F4E0A1
:1011800080E090E060E578E246E758E22BEE38E256
:10119000778366835187408733872287978786873F
:1011A000019670968830910599F7089580916B05A6
:1011B00090916C0590931101809310010895EF9226
:1011C000FF920F931F93CF93DF93FB018FEF9FEF5E
:1011D0004430510508F45FC040918F0541FB8827DA
:1011E00080F990E0880F991F42FB002700F910E07A
:1011F000000F111F000F111F802B912B40FBEE24BD
:10120000E0F8F12C8E299F2943FB222720F9C22FD9
:1012100050E0D52F53E0CC0FDD1F5A95E1F78C2B12
:101220009D2B44FB222720F950E1259F900111249A
:10123000822B932B45FB222720F950E2259F90011A
:101240001124822B932B46FB222720F950E4259F63
:1012500090011124822B932B47FB222720F940E891
:10126000249F90011124822B932B20919005322FE3
:101270003170932B26952170B22FBB0FA0E08A2BE3
:101280009B2B092E000CAA0BBB0B80839183A2839E
:10129000B38380E090E0CDB7DEB7E6E00C94043392
:1012A0009C0143E0969587954A95E1F78E719927C1
:1012B000FC01EB5DFD4F40815181F901EF70FF278B
:1012C00021E030E002C0220F331FEA95E2F76115FA
:1012D00041F0422B532B8B5D9D4FFC01518340838A
:1012E00008952095309542235323F5CF1092FB04A7
:1012F0001092FA04EAEBF4E08581811102C01482B5
:101300001682379684E0E23FF807B1F70895AC0102
:101310003091FD046091FC04232F621301C00895F5
:10132000822F90E0FC01EE0FFF1FEE50FB4F01906B
:10133000F081E02DE417F50791F467E0649FF00178
:10134000659FF00D1124E654FB4F41E044832313C5
:10135000E6CF0196837099278093FD040895019646
:10136000282F2370DACFFC018481862381110AC0E3
:1013700082818115B9F06823908593FF05C081E0D3
:1013800061110FC080E00895282F22952F708F7073
:10139000282B962F92959F706F70962B81E02913C2
:1013A000F1CF089581E00895FA01309709F0099589
:1013B0000895E0918C03F0918D03309729F001900E
:1013C000F081E02D0995089580E008950E94D909E3
:1013D0000895A3E0B0E0EFEEF9E00C94EC329C014C
:1013E000809122029091230282179307A1F03093FB
:1013F000230220932202E0918C03F0918D03309719
:1014000051F083E089833B832A830084F185E02DBA
:10141000CE01019609952396E2E00C940833A3E0EF
:10142000B0E0E5E1FAE00C94EC329C0180912002FE
:101430009091210282179307A1F03093210220930B
:101440002002E0918C03F0918D03309751F084E0FD
:1014500089833B832A830084F185E02DCE010196A8
:1014600009952396E2E00C940833A0E0B2E0EFEF98
:1014700090E02D91821751F0EF3F19F4211101C036
:10148000E92F9F5F9630A9F7EF3F09F408950E2EDC
:10149000000CFF0BE250FE4F82830895E0E0F2E083
:1014A0009191891302C0DF011E9292E0E630F907A4
:1014B000B9F708952FB7F8948091590390915A0382
:1014C000A0915B03B0915C032FBF089580916D05DF
:1014D00090916E05892B91F00E945A0A2091B104D7
:1014E0003091B204AC01421B530B9A0181E0409150
:1014F0006D0550916E052417350708F480E00895B6
:10150000962F2091900522FF10C0682F660F660F5E
:10151000660F692B6093B7040E9437040E945A0A31
:101520009093B9048093B80408950E9437040895F5
:101530009091B304292F2823211561F080958923E8
:101540008093B304811539F00E945A0A8093B10444
:101550009093B204089580E090E0F8CFCF93C82F25
:101560008091900582FF0CC08091B3048C1741F0EC
:101570000E945A0A9093B2048093B104C093B304BA
:10158000CF9108952FB7F8946091590370915A0341
:1015900080915B0390915C032FBF08950F931F937D
:1015A000CF93DF93D82FC92F40910F04509110048F
:1015B00060911104709112042FB7F894809159032F
:1015C00090915A03A0915B03B0915C032FBF841BE1
:1015D000950BA60BB70B843F9140A105B10528F5EB
:1015E00060910F0470911004809111049091120485
:1015F00004EF11E020E030E0609361037093620338
:10160000809363039093640300935D0310935E03E0
:1016100020935F0330936003D0930D04C0930E04B6
:10162000DF91CF911F910F9108950E94C20A02E3AA
:1016300010E020E030E0E0CF9C014FB7F8948091BB
:10164000590390915A03A0915B03B0915C034FBF83
:10165000821B930B089587E797E790930108809387
:10166000000888E19AE00FB6F894A895809360008E
:101670000FBE90936000FFCF80911F0208950895E0
:101680000895FC019B018091150290911602861726
:10169000970740F0672B29F48091E8008E778093BC
:1016A000E800C90140E0009741F4411106C0809173
:1016B000E80082FF2FC080E0089520918503211566
:1016C000A9F12530A9F12091E80023FD2DC020913A
:1016D000E80022FDECCF2091E80020FFE4CF30911C
:1016E000F3002091F200009719F02830310558F0EE
:1016F00041E02830310509F040E02091E8002E77E4
:101700002093E800D0CF41914093F10001972F5FE3
:101710003F4FE9CF80918503811541F0853041F03D
:101720008091E80083FFC3CF81E0089582E00895AF
:1017300083E0089580910F0287FF13C08091E80035
:1017400082FF06C08091E8008B778093E8000895BF
:10175000809185038111F2CF0895809185038115D1
:10176000D9F38091E80080FFF8CF8091E8008E7770
:10177000ECCF2091E4003091E50095E6A90120919D
:10178000EC00822F817020FF06C08091E80080FF6E
:1017900006C080E008952091E80022FD1AC08091E3
:1017A0008503811589F0853089F08091EB0085FDF6
:1017B0000FC02091E4003091E50042175307F9F281
:1017C0009A95E1F684E0089582E0089583E0089513
:1017D00081E00895E8EDF0E080818E7F80831092B3
:1017E000E2001092DA001092E100A0EEB0E08C91DD
:1017F00081608C9380818F77808319BCA7EDB0E0E6
:101800008C918E7F8C9380818F7E808310920E02CC
:101810000895982F9093E900891771F07091EC006A
:101820002091ED005091F00021FD09C09F5F97309D
:1018300089F78093E9000895762F242F50E03091A6
:10184000EB003E7F3093EB003091ED003D7F309315
:10185000ED003091EB0031603093EB007093EC00C1
:101860002093ED005093F0002091EE0027FDDECF95
:101870000895A0E0B0E0EFE3FCE00C94E632C8EDA0
:10188000D0E088818F7E8883E7EDF0E08081816001
:10189000808384E082BF81E080930E0288818E7F06
:1018A000888302EE10E0F80110821092DA0081EED7
:1018B000C82ED12CF601108288818F778883888189
:1018C0008068888388818F7D888319BC1092850306
:1018D00010920D0210924F0310920C0290EEE92E1E
:1018E000F12CF70180818B7F8083888181608883E0
:1018F00042E060E080E00E94090CF60180818E7F6A
:101900008083F8018081816080838081886080830A
:10191000F70180818E7F8083888180618883CDB745
:10192000DEB7E8E00C9402339C012115310509F47F
:1019300008958FE99FE00197F1F700C00000215062
:101940003109F3CF80913D03811539F13BB13B7FE4
:101950002BB124604FB7F89488E293E0FC01019624
:10196000508168E02BB9000000C057FF3BB9550F0C
:10197000000000C000C000C03BB900C06A9591F7EC
:1019800053E08D33950751F74FBF8FE594E00197F2
:10199000F1F700C0000010923D0308950F931F93CC
:1019A000CF93DF938B01EA0190918503943059F531
:1019B0008093E9008FEF9091E80095FD06C095EDCA
:1019C0009A95F1F700008A95B1F78091E80085FFBC
:1019D0001AC00E94B90B811111C08091E80085FDE9
:1019E00006C08091E8008E778093E800F2CFF8017E
:1019F00081918F018093F100219779F78091E80020
:101A00008E778093E800DF91CF911F910F91089519
:101A1000CF93DF93D82FC92F48E050E0682F792F5C
:101A200081E00E94CE0C88E0ED2FFC2FA7E1B2E010
:101A300001900D928A95E1F7DF91CF910895BC0155
:101A400043E050E084E00E94CE0C08959091900510
:101A500092FB222720F9281779F080FB92F99093C6
:101A6000900560918F057091900584E090E00E9450
:101A7000853382E00E94E80408951F93CF93DF939B
:101A8000962F122F632F8430D8F49830C8F4473043
:101A9000B8F4C42FD0E0CC0FDD1F2EE0929FC00D14
:101AA000D11D112490E7899FC00DD11D1124CE01B5
:101AB00088960E946733612FCE0189960E94673312
:101AC000DF91CF911F910895CF93DF93CCEFD2E0B8
:101AD00060E0CE010E9467332196C11584E0D807EB
:101AE000B9F7DF91CF910895CF93C82F6BED811196
:101AF00001C06FEF84E290E00E94673366E3C1119A
:101B000001C06FEF85E290E00E94673366EEC1117D
:101B100001C06FEF86E290E00E946733CF91089595
:101B20000F931F93CF93DF930BE615E0C8EED1E040
:101B3000CE010E944933F80161918F01681719F0B5
:101B4000CE010E9467332196CC30F2E0DF0781F7A7
:101B5000DF91CF911F910F9108950F931F93CF9312
:101B6000DF930BE615E0C8EED1E0CE010E944933C9
:101B7000F80181938F012196CC30F2E0DF07A9F7BD
:101B8000C5E7D5E0FE0185919491009711F0FC0125
:101B900009952C96F6E0C530DF07A1F7DF91CF91CC
:101BA0001F910F9108950F931F93CF93DF9384306C
:101BB00030F5683020F5473010F5C42FD0E0CC0F59
:101BC000DD1F2EE0629FC00DD11D112430E7839FE1
:101BD000C00DD11D1124CE0188960E944933082FD3
:101BE00010E0102F0027CE0189960E9449339801FA
:101BF000282BC901DF91CF911F910F91089580E0AB
:101C000090E0F8CF462F672F209188033091890309
:101C1000232B91F4703F39F4403F71F48091860397
:101C2000909187030895783038F4473028F4843051
:101C300018F40E94D30D089580E090E00895A0E08C
:101C4000B0E0E5E2FEE00C94E7327C0100916A0529
:101C500080916905082BC3E0D0E010E0C8010C2E8C
:101C600002C0959587950A94E2F780FD09C02197F7
:101C7000A8F7D12C8D2DCDB7DEB7E7E00C94033358
:101C8000DC2EB7018C2F0E94020E0E940D060197D8
:101C900071F3F0CFCF93DF93D82FC92F0E941F0E7F
:101CA0006D2F7C2F0E94020E0E940D06DF91CF91B6
:101CB0000895FC018481811571F0878190850097DA
:101CC00029F00E940D060E940D04089580819181E3
:101CD0000E944A0EF8CF80E008951F93CF93DF93C0
:101CE000182FD92F611599F0411589F00E941F0E08
:101CF000C82F682F812F9D2F0E945304612F7D2FA5
:101D00008C2F0E94020EDF91CF911F9108950E94A7
:101D10008904C82FF3CFCF93DF93FC01462FC781EF
:101D2000D085209731F46581808191810E946D0E6C
:101D3000EC01CE01DF91CF91089584E290E00E9402
:101D400049338B3D89F485E290E00E944933863324
:101D500059F486E290E00E94493391E0863E09F012
:101D600090E0892F8170089580E0FCCFCF93DF93BE
:101D7000C091B4048091B604C82B8091B30481153E
:101D8000E9F080916D0590916E05892B29F00E94F4
:101D9000660A81110E941205D091B30420E080E010
:101DA00092E0FC013081019631112F5F32E08630E4
:101DB0009307B9F721110E941205CD2B80910904D8
:101DC00080958C2390910804892B8093FE0148E034
:101DD00050E06EE873E08EEF91E00E941C33892B97
:101DE000A9F088E0EEEFF1E0AEE8B3E001900D92EB
:101DF0008A95E1F7E0918C03F0918D03309731F0F3
:101E00000280F381E02D8EEF91E00995DF91CF9173
:101E10000895CF93C82F8115C9F08238C9F40E9464
:101E2000E60981FD13C089E30E94350A0E94B60EBF
:101E30002FEF37EE83E0215030408040E1F700C0C3
:101E4000000089E30E944E0A0E94B60ECF910895C9
:101E50008338A1F40E94E60980FDF8CF83E50E9453
:101E6000350A0E94B60E9FEF21EE34E091502040DB
:101E70003040E1F700C0000083E5E4CF8438A1F4EE
:101E80000E94E60982FDE2CF87E40E94350A0E94A3
:101E9000B60E8FEF91EE24E0815090402040E1F7A4
:101EA00000C0000087E4CECF8CEF8C0F813A70F435
:101EB000E0E0F2E086E092E02191C21771F18E1726
:101EC0009F07D1F78C2F0E94350ABECF80E28C0F7E
:101ED000883048F4C77081E001C0880FCA95EAF7DE
:101EE0000E940405B1CF8BE58C0F833038F42C2F82
:101EF0002452330BC9010E94E909A8CFC85ACB313B
:101F000008F0A4CFEC2FF0E0EE0FFF1FEB53FE4FD5
:101F1000808191810E940F0A99CF8C2F0E944E0AD6
:101F20000E94B60ECFCFCF93DF93EC01805E910974
:101F3000089720F067E570E1209711F469E470E1FB
:101F4000CE010E9403048C2F0E94090FDF91CF91D4
:101F500008959C01611529F08091B60482608093F8
:101F6000B604C90190528115904308F43327C90182
:101F70000E94930F0895811509F44DC0823879F4B9
:101F80000E94E60981FF47C089E30E94350A0E944A
:101F9000B60E89E30E944E0A0E94B60E0895833859
:101FA00059F40E94E60980FF36C083E50E94350A95
:101FB0000E94B60E83E5EECF843859F40E94E609FC
:101FC00082FF29C087E40E94350A0E94B60E87E48A
:101FD000E1CF9CEF980F913AE8F290E2980F983099
:101FE00050F4877091E001C0990F8A95EAF7892F24
:101FF0000E940A05D1CF9BE5980F933028F480E02A
:1020000090E00E94E9090895885A8B3120F480E01D
:1020100090E00E940F0A0895CF93DF93EC010E9495
:10202000BB0FCE01805E9109089720F061E670E158
:10203000209711F460E570E1CE010E940304DF9166
:10204000CF9108950F931F93CF93C82F8B010E94B8
:10205000090F0115110539F48C2F0E94BB0FCF9188
:102060001F910F9108958FE99FE00197F1F700C04C
:10207000000001501109EDCF60918B0570918C0526
:10208000893321F06091890570918A050E942210A0
:102090000895811521F00E9404050E94B60E08954E
:1020A000811521F00E940A050E94B60E089581153F
:1020B00039F09091B604892B8093B6040E94B60E35
:1020C0000895811541F080959091B60489238093FD
:1020D000B6040E94B60E08951092B404E0E0F2E057
:1020E00086E0DF011D928A95E9F780E090E00E948A
:1020F000E90980E090E00E940F0A1092B6040E9465
:10210000B60E08950E946C102FEF84E39CE02150DE
:1021100080409040E1F700C0000088E19AE00FB6EF
:10212000F894A895809360000FBE90936000FFCF55
:10213000CF93DF93FB018FEF9FEF44305105B8F051
:10214000D081C1810E946C10D0938F05C3708091A3
:1021500090058C7FC82BC093900560918F0570917E
:10216000900584E090E00E94853380E090E0DF916C
:10217000CF910895EBE6F5E0128E138E8FEA90E092
:102180009183808385E0848F28E833E13383228341
:1021900022E330E0378B268B28EC30E0318F208F24
:1021A000158E178E168E20E530E031A320A382A372
:1021B0000E94900D0E946C101092900510928F0555
:1021C00080E084608093900560E074E084E090E0BB
:1021D0000E9485330E94AD0D0895AAE2B0E0E3EFBE
:1021E000F0E10C94EB328FE092E0FC01019620913B
:1021F000F100208322E087319207B9F78091100225
:10220000893009F456C0C8F4823009F4B3C0833071
:1022100009F482C0813071F18091E80083FFE7C04A
:1022200080910F02909110029A3008F0E0C0E92FDF
:10223000F0E0EB55FC4C0C94CF328A3009F489C0A5
:102240008B3051F780910F02813231F78091130268
:1022500090911402892B01F78091E800877F809389
:10226000E8000E949A0B80911102809300010E9465
:102270006C10D2CF80910F02813A71F68091E80004
:10228000877F8093E8008091130290911402892B3C
:1022900061F060E080E090E070E00E94410B80918E
:1022A000E8008B778093E800B7CF68E087E192E0A1
:1022B000F3CF80910F02813209F0AECF80911302EB
:1022C000909114028D7F892B09F0A6CF8091E800B0
:1022D000877F8093E8008091E80082FF18C090918A
:1022E000F3008091F200029731F48091F100813087
:1022F00011F0863021F48091F10080931F028091CB
:10230000E8008B778093E8000E949A0B85CF80913C
:1023100085038111E0CF80CF80910F02813A09F0CF
:102320007BCF8091130290911402892B09F074CF16
:102330008091E800877F8093E8008091E80080FF2B
:10234000FCCF809100018093F1008091E8008E77AE
:10235000D9CF80910F02813209F05ECF8091E800E1
:10236000877F8093E8000E949A0B809112028093ED
:102370000B0252CF80910F02813A09F04DCF80912C
:10238000E800877F8093E8008091E80080FFFCCF21
:1023900080910B02D8CF803889F0823841F5809146
:1023A00013028F70873018F58093E9008091EB005D
:1023B00085FB882780F91092E90006C080914F03C1
:1023C000880F90910C02892B9091E800977F909351
:1023D000E8008093F1001092F1008091E8008E7780
:1023E00023C0811116C080911102813011F18091BA
:1023F000E80083FF0AC08091E800877F8093E800AF
:102400008091EB0080628093EB00AA96E3E00C944D
:102410000733823061F780911102811589F01092A3
:10242000E9008091E800877F8093E8000E949A0B82
:10243000DECF81E0933009F080E080934F03EFCF4F
:10244000809113028F702FEF280F263080F6809333
:10245000E9002091EB0020FFE2CF933031F480912E
:10246000EB0080628093EB00DACF9091EB009061FB
:102470009093EB0021E030E0A90102C0440F551F0A
:102480008A95E2F74093EA001092EA008091EB000F
:102490008860E8CF8111ABCF109111021F77809136
:1024A000E3008078812B8093E3008091E800877FB0
:1024B0008093E8000E949A0B8091E80080FFFCCF97
:1024C0008091E30080688093E30083E0111101C0F4
:1024D00082E0809385038BCF8058823008F087CFCD
:1024E00080911102909112028C3D53E0950799F56D
:1024F00083E08A838AE289834FB7F894DE011396DA
:1025000020E03EE051E2E32FF0E050935700849149
:1025100020FF03C082958F703F5F8F708A30C8F0B4
:10252000895C90E08D939D932F5F243161F74FBFBD
:102530008091E800877F8093E8006AE270E0CE0136
:1025400001960E94410B8091E8008B778093E80010
:102550004ECF805DE6CF292F33272330310509F494
:102560004EC078F52130310509F488C08BE590E044
:10257000E4EFF1E02230310509F039CF2091E80095
:10258000277F2093E80020911502309116028217D0
:10259000930708F49C0140E02115310509F073C050
:1025A000411171C08091E80082FDCDCF80918503FB
:1025B000811549F2853039F28091E80083FFF2CF2E
:1025C000C2CF80911302909114022132310509F497
:1025D00046C02232310509F00ACF8330910508F058
:1025E00006CFFC01EE0FFF1FE95DFE4F0190F08169
:1025F000E02D8C5D9E4FDC018C9190E010C09C0121
:102600003327823021F12330310568F4232BB9F4CC
:10261000E7EAF2E0E4918E2F90E0E7EAF2E000973B
:1026200009F4E5CEABCF2330310509F0E0CEE1E689
:10263000F2E0E4918E2F90E0E1E6F2E0F0CFEBE8FB
:10264000F2E0E4918E2F90E0EBE8F2E0E8CFEFE7E4
:10265000F2E0E4918E2F90E0EFE7F2E0E0CF8330FC
:10266000910508F0C4CEFC01EE0FFF1FE35DFE4FA5
:102670000190F081E02D89E090E080CF82E190E050
:10268000EFE4F2E07BCF80918503811509F45BCF05
:10269000853009F458CF8091E80083FD54CF8091B4
:1026A000E80082FD7FCF8091E80080FF75CF909198
:1026B000F3008091F2002115310519F08830910561
:1026C00050F041E0089709F040E08091E8008E77F3
:1026D0008093E80061CF44914093F10031962150FE
:1026E00031090196E8CF803809F081CE8091E80069
:1026F000877F8093E80080910D028093F1006DCE7A
:10270000811175CE10911102123008F070CE8091B7
:10271000E800877F8093E80010930D020E949A0BD7
:102720001115D1F084E08093850342E061EC81E0F3
:102730000E94090C42E261EC84E00E94090C42E232
:1027400061EC82E00E94090C42E260EC83E00E94AE
:10275000090C809185034BCE8091E30087FDE2CF89
:1027600081E0E1CF80911501877F809315019091E1
:10277000B6049D7F9093B60484FF06C08F7E80933D
:10278000150182E00E9404058091150185FF06C0B5
:102790008F7D8093150180E20E9404050E94B60E91
:1027A0000895CF92DF92FF920F931F93CF93DF9301
:1027B000EC018B01F42E8091150182FF65C0C09061
:1027C0009B04D0909C04CC16DD0619F0209709F0EC
:1027D0005BC0809115018B7F80931501C1E081FD65
:1027E00010C08091990490919A049801281B390B8C
:1027F000C1E080911001909111012817390708F468
:10280000C0E080911501C0FB81F9809315016C2F08
:10281000C6010E9450098091B40481FF08C08091D4
:10282000150180618093150182E00E940A05809164
:10283000B40485FF08C08091150180628093150162
:1028400080E20E940A056C2FC6010E94A90FF114B4
:1028500031F08091860585FF02C086FF29C08091F6
:10286000890590918A050E94940C80919B04909117
:102870009C049C0130522115304308F499270E9492
:102880000C100E94B21310C0CE01905281159043DB
:10289000B8F4CE0199270E940C1080919B0490916E
:1028A0009C04C817D90769F310939A0400939904FC
:1028B000DF91CF911F910F91FF90DF90CF900895FE
:1028C000CE01E9CFCF93DF93EC014A855B856E851E
:1028D0007F850E94D4099B8190958091B6048923BD
:1028E0008093B6048C810E940A050E94B60E86E091
:1028F000FE0111928A95E9F7DF91CF910895CF9368
:10290000DF93EC018D8181FD14C082608D83809105
:10291000B6049B81892B8093B6048C810E940405A8
:102920000E94B60E488559856E857F85CE010E942E
:10293000D40910921604109215048D8180FD03C0F5
:10294000CE010E946214DF91CF9108951F93CF931F
:10295000DF93182FA0910B04B0910C04109709F489
:102960004AC010920E0410920D04109209041092A5
:1029700008041696CD91DC911797CE019A95811592
:102980009F4108F4D07ED1E0C11101C0D0E019967A
:10299000ED91FC911A97309731F01B966D917C91D7
:1029A00080E00995D823D11539F08CEF8C0F813A4E
:1029B00030F58C2F0E944E0A1115A9F0E0910B04FE
:1029C000F0910C04808584FD0EC080910A0481156D
:1029D00051F0808191819C01215031092F333E4774
:1029E00010F40E94CE0A0E94B60E10920C041092AF
:1029F0000B0410920A04DF91CF911F9108950E9459
:102A0000B60E8C2F0E94BB0FD7CFAEE1B0E0EBE04B
:102A1000F5E10C94E132A0901201B090130181E035
:102A200090E09093130180931201812C912CE12C62
:102A30006401F12C15C0F80125913491472D6F2DBB
:102A40008E2D0E943D0D0E5F1F4F739487E078120C
:102A5000F2CFA7E0CA0ED11CF394B8E0FB1639F010
:102A60008601000F111F05551D4F712CE4CFE39413
:102A700088E3880E911CA4E0EA12DACF0E94BA1013
:102A80001A8219821C821B821E821D8218861F8256
:102A900088EC90E09A8789870CE012E04AE050E0E9
:102AA000B801CE0101960E948B33065F1F4F0C3593
:102AB000B2E01B0799F7FE013B968AE0DF011D9209
:102AC0008A95E9F77F014AE050E0B801C7010E940A
:102AD0008B33065F1F4F0C3AB2E01B07A1F7FE01D4
:102AE000759689E0DF011D928A95E9F78FEF9FEFD8
:102AF0009A8F898F87E08E8F7F014AE050E0B8017E
:102B0000C7010E948B33065F1F4F0C3FB2E01B07CB
:102B1000A1F7B0921301A09212016E96EDE00C9411
:102B2000FD3280E00E94740D60E087E290E00E9438
:102B300067330E9405150E94640D81E00E94740DA8
:102B40000895AAE0B0E0E7EAF5E10C94E632E0EDA2
:102B5000F2E080E5DF011D928A95E9F7EAEBF4E007
:102B600088E3DF011D928A95E9F780EDC82E82E0A7
:102B7000D82E7F010CE512E0F701D182C0824AE035
:102B800050E0B801CE0101960E94393388E0FE0181
:102B90003196D60101900D928A95E1F789859A8543
:102BA000D70113969C938E931297BAE0CB0ED11C4B
:102BB000E7E0EE0EF11C065F1F4F0C3AF2E01F0734
:102BC000D9F62A96E8E00C940233AAE0B0E0EBEEE6
:102BD000F5E10C94E23208E512E086E4C82E82E0CA
:102BE000D82E9CEAE92E92E0F92E27E0922E35E4C9
:102BF000A32E32E0B32E88248394D6010D931D9327
:102C00006D014AE050E0B701CE0101960E943933D0
:102C1000F8013896DF01892D1D928A95E9F789819F
:102C20009A81D80111969C938E938F8112968C93E2
:102C300012978D8113968C931397888514968C9395
:102C40001497898515968C9315978B819C8117967F
:102C50009C938E9316978A8587FD04C01E96BC921E
:102C6000AE921D9780FF02C0F801808681FF07C0E9
:102C7000D80118969C911897926018969C9382FFA1
:102C800004C0F80190859460908783FF07C0D80145
:102C900018969C911897986018969C9384FF04C08E
:102CA000F80190859061908785FF07C0D80118963C
:102CB0008C911897806218968C93015F1F4FBAE031
:102CC000EB0EF11CECEFEE16E2E0FE0609F095CFFC
:102CD0002A96ECE00C94FE32282FCB01283070F4B9
:102CE0004AE0249F90011124B901645F7D4F4AE0BE
:102CF00050E00E94393380E090E008958FEF9FEF1D
:102D00000895AAE0B0E0E7E8F6E10C94EC329C010B
:102D100097558115914070F4BE016F5F7F4F822FF0
:102D20000E946C16892B31F489859A852A96E2E0F7
:102D30000C9408338091830590918405F7CFA0E02F
:102D4000B0E0E5EAF6E10C94E732162FD72FC42F56
:102D5000D22E8115A9F04093A6040E945A0A90939E
:102D60000A0280930902C77081E001C0880FCA95EA
:102D7000EAF70E944910CDB7DEB7E7E00C940333C1
:102D80009091A604491335C08091090290910A02DE
:102D90000E941C0B7C01812F9D2F0E948116E8163A
:102DA000F90638F5D0E2DD0DCD15A1F0C77011E0C0
:102DB000812F01C0880FCA95EAF70E945010D830C1
:102DC00048F48D2D877001C0110F8A95EAF7812F85
:102DD0000E944910802F0E943C10D83060F62D2DA3
:102DE000277081E001C0880F2A95EAF70E945010F1
:102DF000C2CFC77081E001C0880FCA95EAF7F6CF4D
:102E000048E050E067E170E089EA94E00E945733BF
:102E10001092A8040895A0E0B0E0E1E1F7E10C947D
:102E2000E6320E94C20A60933E0370933F03809390
:102E30004003909341032091A904122F13701115A0
:102E400019F0122F1695169530911601323009F4AB
:102E5000C1C080F4311116C0109201016093420389
:102E600070934303809344039093450381E08093E0
:102E7000160103C0333009F4B6C0CDB7DEB7E8E0C1
:102E80000C9402338091050118132AC023704091DD
:102E9000040150E081E02417150609F480E08093D6
:102EA00003018091AE0490910201981739F080934C
:102EB000020140E060E080E00E94B207113091F032
:102EC000123009F458C0111109C080910301811515
:102ED00029F040E060E080E00E94B20780E01DC081
:102EE00081E0DDCFC0910101CC0F02E00C0FC02EBC
:102EF000083010F027E0C22E6091AA047091AB0454
:102F00008091AC040E942B07F62EE72ED82ED0E03D
:102F1000CC1500F181E0073008F7C091010191E084
:102F20009C0F90930101811148C082E080931601AB
:102F300080910301811141C0111509F452C0CC0FD9
:102F40000E94E60981FD3CC0C11197CF20E040E01E
:102F500060E03BC0FE01E857FE4F80819091020186
:102F60008923811531F02D2D4F2D6E2DCE010E941C
:102F7000AF072196CDCFC0910101CC0F02E00C0F1D
:102F8000F02E083010F097E0F92ED0E0CF1508F0C1
:102F9000C1CFFE01EE0FFF1FEC0FFD1FE859FC4FE4
:102FA0006081718182810E942B07462F672F282F15
:102FB000CE010E94AF072196E9CF1111C0CF5DCF9E
:102FC0002FEF4FEF6FEFC11158CF80E090E00E94DC
:102FD000AF0753CF109305012370209304010E9483
:102FE000A20C83E044CF8091A80481110E940017B5
:102FF0004091420350914303609144037091450313
:103000002FB7F8948091590390915A03A0915B03D4
:10301000B0915C032FBF841B950BA60BB70B409799
:10302000A105B10508F429CF1092160126CFA0E022
:10303000B0E0EDE1F8E10C94E532EC018881811516
:1030400009F4A1C0813009F044C08981813049F47C
:103050008E010E5F1F4F8A810E943C10E80121966D
:10306000EDCF823039F48E010E5F1F4F8A810E94AE
:10307000090FF4CF833039F48E010E5F1F4F8A8120
:103080000E94BB0FEBCF843011F02196E8CF2A814C
:10309000229680E090E06AE0AE014F5F5F4F2053E0
:1030A000330B2A30310550F00097C9F2EFE9FFE009
:1030B0003197F1F700C000000197F6CF689FF0014B
:1030C000699FF00D1124C9018E0F9F1F2981EA010C
:1030D000E3CFE82FF0E0EC58FE4FB490282F269570
:1030E0002695269530E0F901EC59FE4FE490877063
:1030F000F12C082E02C0F594E7940A94E2F7E0FA66
:10310000EE24FF24E0F8F901EC5AFE4FC490D12CD4
:10311000082E02C0D594C7940A94E2F7C0FACC24D2
:10312000DD24C0F8F901EC5BFE4F049110E002C011
:10313000159507958A95E2F701701127E114F104BE
:1031400019F081EE0E94090FC114D10419F086EE26
:103150000E94090F60E070E08B2D0E942210C114C4
:10316000D10419F086EE0E94BB0FE114F10419F0AE
:1031700081EE0E94BB0F0115110509F470CF8CE29E
:103180000E943C106CCFCDB7DEB7E9E00C94013360
:10319000AAE0B0E0EEECF8E10C94DC327C01DC015A
:1031A00014968C91811509F461C161E0C7010E94F8
:1031B0008B0E8C01F7018581811519F18091150421
:1031C000909116040097E9F008171907D1F0992794
:1031D00074E0880F991F7A95E1F7FC01E25EFB4FDE
:1031E000208124602083875E9B4FDC010D931C931C
:1031F0000E947F141092B60461E0C7010E948B0EFA
:103200008C01F7018581811509F4BBC0C80197576E
:103210008038910508F0E7C0D02EF0E10F1708F0D4
:1032200014C18FEF93E00E94493381110EC10CEF5E
:1032300012E0D11036C064E0662EAE014F5F5F4FE2
:103240005A01D501E62D1D92EA95E9F74801FFEFF5
:103250008F1A9F0AC8010E9449338983811509F496
:10326000F4C0813009F087C0680122E0C20ED11C91
:10327000C4010E944933782E8A83811509F4E5C080
:103280008FEF870D8330D8F4C6010E9449338B83BA
:10329000811519F0C5010E9417180D5F1F4F6801B5
:1032A0006EC0011524E0120709F4CFC0C8010E94C6
:1032B00049330F5F1F4F8111F4CFDA94BACF8BEFF0
:1032C000870D833060F5480143E0840E911CC601F0
:1032D0000E9449338B83811509F450C00C5F1F4F46
:1032E0006801C4010E9449338C83811509F447C0E9
:1032F0008B819C818130AFEF9A0710F0982F88273F
:10330000B6E07B1631F0E7E07E1631F00E943D28F2
:1033100036C00E94F52733C00E94192830C0F4E05F
:103320007F122DC0C6010E944933982E680124E007
:10333000C20ED11CC80103960E944933282F911454
:1033400009F483C0811509F480C02150330B4FEF7D
:10335000429FC001439F900D1124492D4150550BB0
:10336000840F951F019758F0AFE9BFE01197F1F76F
:1033700000C00000F7CFC5010E9417186401860144
:1033800060CF6801E7E5DE1AC114F1E0DF0658F509
:103390006EEF73E08C2D0E946C16892B21F5C6010F
:1033A00044E0880F991F4A95E1F7FC01E75EFB4F67
:1033B00022812130A1F52091FE033091FF03232BC0
:1033C00091F02091000430910104232B61F02091B1
:1033D0000204309103044091040450910504242B0D
:1033E000352B232B21F1D70115963C90311409F48C
:1033F00041C00E35BCE71B0729F10F35ECE71E076E
:1034000041F00D35FCE71F07A9F5809114018115E6
:10341000C9F01092140180E00E94A61416C0223058
:1034200011F72091020430910304232BE1F2FC01F7
:10343000E25EFB4F20812E7F2083875E9B4F0E94A0
:103440007F14D1CF81E0809314018091B7048770FD
:10345000811561F0D70115968C91811539F0809115
:10346000900582FF03C082E00E94E8042A96E2E110
:103470000C94F83280911401811154C0C801975501
:103480008115914008F4BAC18091860580FF65C21C
:103490000E945A0A4C01F7018581811509F46FC217
:1034A0008091150182FF06C040E0B40180E090E009
:1034B0000E94D1130431FCE71F0709F45CC20531F7
:1034C0002CE7120709F4F6C103313CE7130709F4AE
:1034D00037C2C80190528115904308F0F5C110928F
:1034E0009C0410929B04F7012581211509F469C7FA
:1034F0001092A604C8019057839708F0C1C384E0D6
:1035000090E00E9451339093900580938F05F801CD
:10351000E150F047E232F10508F0F8C2E155FC4C09
:103520000C94CF32380130EE631A71085090B50414
:103530008091B404582A8091B304582A48E0641654
:10354000710408F05CC098012770332781E090E097
:1035500001C0880F2A95EAF7311409F44DC0582AA2
:10356000D7018D919C910E94890421E030E0F901FE
:1035700002C0EE0FFF1F8A95E2F7FA87E9872091D4
:103580000B0430910C043E832D8340911304509121
:10359000140458874F83212CE22DF0E0EE0FFF1F1B
:1035A000EA5BFD4FC080D180C114D10409F440C052
:1035B000511005C0D60112968C9181111BC0F601E5
:1035C000838190E029853A8582239323892B91F08A
:1035D0008085982F9770911101C087E038E06316BD
:1035E000710408F051C0311409F44AC08695817005
:1035F00081114FC02394D0CF80955822B1CF311084
:103600002CC080911304909114040817190781F4B9
:10361000109214041092130410920F0410921004CC
:10362000109211041092120410920E0410920D04C4
:1036300080910B0490910C04009709F41FCFA8E02F
:103640006A16710408F0C3C0652D0E94B309811188
:103650001BCF81E00E94A61417CF1093140400938F
:1036600013040E94C20A60930F04709310048093A5
:1036700011049093120410920E0410920D0470CF56
:1036800082FB882780F9B4CF311409F4B3CF80FFCF
:10369000B1CFD601AD90BC900A151B0519F43114B9
:1036A00009F4A8CFED81FE81CE16DF0609F4A2CF82
:1036B000D6011D96ED91FC91309721F08081811506
:1036C00009F498CF652DC6010E94B309811509F44C
:1036D00091CF81E00A151B0509F080E0482E4320B8
:1036E000A114B10441F0411006C0EF81F885AE1677
:1036F000BF0609F07FCF80E00E94A614D0920C0490
:10370000C0920B0481E080930A04D60115968C9137
:1037100015978093090441100CC0AB2851F08D918E
:103720009C919C0124503109213A3105A0F50E9459
:103730004E0AF601A680B780C5019A9581159F4172
:1037400010F420EEB22255245394C50101978F3313
:103750009E4708F0512CD6011996ED91FC911A97CD
:10376000309731F01B966D917C9181E0099558223C
:10377000511471F0F601868197810E94D9038093DC
:103780000804C501F8E06F16710440F40E94CE0AE7
:103790000E94B60E0AC00E94BB0FCBCF0497813A9D
:1037A000910548F48A2D0E94350A411409F466CE29
:1037B0000E94B60E4ACE0E94B60E8FE39CE9019796
:1037C000F1F700C000008A2D0E94090FEECFFC0126
:1037D000208131810217130741F4311009C0109282
:1037E0000A0480E00E94A61449CE311409F446CEA2
:1037F000DC0118968C9185FD41CEF3CFF801FF27AF
:1038000024E0EE0FFF1F2A95E1F79F01275E3B4F53
:103810006901D70115968C91E25EFB4F908180FB88
:1038200090F99083811549F10E945A0A90931804E7
:1038300080931704F60182818F5F82838091B604A2
:103840009091B404892B83838091B304848346814F
:10385000578166857785C6010E94D409D6011596E1
:103860008C9181FD07C0902F812F90931504809338
:1038700016040ACE90E080E0F8CFF9014485558522
:1038800066857785C9010E94D409D60115968C9169
:1038900081FFFACDC6010E946214809115049091B7
:1038A00016040817190709F0EFCD109216041092AC
:1038B0001504EACD90911501892F8E7F90FF8160CC
:1038C000809315010E94B2138091150180FF45C0BD
:1038D0000832110508F069C00E31110508F076C0F4
:1038E000C80104974A9788F58091860584FD2DC00C
:1038F000D70115968C91811509F4D6C08091B30437
:103900009091B404892B8D7F811509F464C01092C5
:103910009C0410929B048091860581FD5CC060E050
:10392000C8010E94500960E0C8010E94A90F80915F
:10393000B3048D7F0E94AE0A82E00E94E80485CD28
:1039400080911501816080931501F70185818115B2
:1039500021F010929C0410929B04D70115968C9133
:10396000F801E851FC47E730F10508F0BCCDEF5213
:10397000FC4C0C94CF32809115018E7FA1CF8091A9
:1039800015018F7E013E110531F0053E110531F420
:10399000809115018F7D8093150196CFC8019052BB
:1039A0008115904308F090CF9ECD0933110558F44E
:1039B0000D32110518F40B32110539F68091860588
:1039C00082FDC3CF95CF04361105F7CF80918605D0
:1039D00083FDBBCF8DCF89E0F701ADE9B4E0019065
:1039E0000D928A95E1F71092A00410929F048091A5
:1039F0009B0490919C0408171907C9F5209186052E
:103A000025FF35C03091150131FF02C026FF2FC0C0
:103A10002091990430919A046401C21AD30A0E9439
:103A20008116C816D90618F58091B40481FF08C024
:103A30008091150180618093150182E00E940A0542
:103A40008091B40485FF08C0809115018062809345
:103A5000150180E20E940A0560911501669561706A
:103A600080919B0490919C040E94A90FEECC8091C0
:103A7000B304D090B404D82AD1FADD24D0F88D7FD5
:103A80000E94AE0A10939C0400939B0490929A04A7
:103A900080929904DD0C6894D2F890911501997F79
:103AA000D92AD092150148CF40E0B401C8010E9444
:103AB000D113CBCC06E221EE41EE6AE17CE70E9415
:103AC0009F16C3CC07E225EE45EE6BE17CE7F7CF0E
:103AD00006E221EE40EE68E17CE7F1CF07E225EE59
:103AE00044EE69E17CE7EBCF06E221EE42EE6CE1C9
:103AF0007CE7E5CF07E225EE46EE6DE17CE7DFCF20
:103B000008E221E045EE6EE17CE7D9CF80918F0598
:103B1000816080938F0560918F057091900584E09E
:103B200090E00E9485330E946C108FCC80919005AC
:103B3000886080939005EFCF80918F058260E9CFF8
:103B400080918F058460E5CF80918F058860E1CFFB
:103B5000809190058160EDCF809190058260E9CFE2
:103B600080918F058061D5CF80918F058062D1CF04
:103B700080918F058064CDCF0E946C1080918F055D
:103B80008068C7CF80918F058C60C3CF80919005EE
:103B90008360CFCF80918F058E7FBBCF80919005C2
:103BA000877FC7CF80918F058D7FB3CF80918F05A1
:103BB0008B7FAFCF80918F05877FABCF80919005B2
:103BC0008E7FB7CF809190058D7FB3CF80918F0589
:103BD0008F7E9FCF80918F058F7D9BCF80918F05AA
:103BE0008F7B97CF0E946C1080918F058F7791CF3C
:103BF00080918F05837F8DCF809190058C7F99CFA9
:103C000080918F05992782FF939590FB82F990FB15
:103C100083F97FCF80919005982F909590FB80F944
:103C200090FB81F986CF90918F05892F8F7B96FF2E
:103C300080646FCF0E946C1090918F05892F97FB45
:103C400087F9805866CF61E08EE090E00E9467338C
:103C500062CF60E0F9CF90918F05892F8F7E94FF1E
:103C6000806157CF90918F05892F8E7F90FF816063
:103C700050CF90919005892F877F93FF886059CF0F
:103C80000631FCE71F0709F08EC38091B404309120
:103C9000850530FF04C0982F9474911122C0982F8D
:103CA0009A7A31FF04C0482F4171411190E032FFF0
:103CB00004C0482F4878411190E033FF03C082725E
:103CC000811190E0211579F081E0911101C080E02F
:103CD0008093A70485E3911101C089E20E94350A0F
:103CE00067CD90E0DECF8091A704811521F085E3B8
:103CF0000E944E0A5DCD89E2FBCF8091A90491E03C
:103D000089278093A904109216018091A8048160EC
:103D10008093A8049ACB40EE57E064ED77E00E94D0
:103D2000A80893CB44ED57E060EE77E0F8CF48E089
:103D300058E06DEF77E0F3CF4DEF57E068E078E0C3
:103D4000EECF41E258E063E178E0E9CF43E158E0AB
:103D500061E278E0E4CF4DE358E06FE278E0DFCF56
:103D60004FE258E06DE378E0DACF49E558E06BE4E4
:103D700078E0D5CF4BE458E069E578E0D0CF61E05A
:103D800081E00E94B50761CB07373CE7130709F4D0
:103D90007CC008374CE7140709F47BC02115B1F04B
:103DA0000A355CE7150709F49FC008F076C00130BA
:103DB0009CE7190709F496C00330ACE71A0709F429
:103DC0008BC00115BCE71B0709F479C0F701878197
:103DD0009085009709F48CC00E940D06082FD92EFB
:103DE000F701B580C680C2949FE0C9228091B704D4
:103DF0008770811501F19B2CB114F1F08D2D807F1E
:103E0000803461F080E2800F8830A8F08D2D807EB4
:103E1000803221F4023078F0C11469F0809190056D
:103E200082FF09C082E00E94E8048091B704877095
:103E3000992493948111912CAD2CA2948FE0A82207
:103E4000F8E0AF1609F491C129E0A21608F098C075
:103E500034E0A31608F063C01D2D1F7042E0A416C5
:103E600008F4A1C08D2D807F803211F01295107F53
:103E7000011509F4CFC0013009F439C1B11409F4B6
:103E800045C1C11409F4E0C0A2C081E00E9443040E
:103E900092C282E02115D1F38CC20B35ECE71E07EC
:103EA00029F180919005002482FF0394802D0C3528
:103EB000FCE71F0709F08ACF0E94260D87CF0E94DA
:103EC0006C102FEF34E34CE0215030404040E1F7DC
:103ED00000C000000E942B0B6FEF7FEF80E090E0AE
:103EE0000E9485330E94821081E0E6CF80E0E4CF1B
:103EF0008581C080D180811569F0C6010E941F0EA6
:103F0000182F682FC6010E945304B601812F0E940A
:103F1000020E62CFC6010E948904182FF6CF54E02A
:103F2000A51609F405C1AA2DA850BB0B149710F4CF
:103F30000E94D909802F9D2D0E940D04811114C269
:103F400010929205109291059114A9F08091B704F6
:103F500080FD11C0F70115828695869586950E9491
:103F60003704C7010E94C8188091B70486958695CA
:103F700086950E94430460E0C7010E948B0E76CABA
:103F800089E0A81609F461C186E08A0D8F7082303D
:103F900050F6023F09F069C18D2D8F71B11062C1D9
:103FA0000E943704C0CF90E1D91610F01295107F0F
:103FB000B114B9F0111559F080E2800F883010F07B
:103FC000011109C0812F0E9404050E94B60E802FA6
:103FD0000E94090FA8CF8091B604812B8093B6046C
:103FE000F4CF802F0E94BB0F111509F49CCF80E203
:103FF000800F883010F0011104C0812F0E940A0543
:1040000006C010958091B60481238093B6040E9467
:10401000B60E89CF8091900582FD12C0B11449F08F
:10402000111529F0812F0E9404050E94B60E80E030
:10403000CFCF80E00E94BB0F111509F474CFDDCF04
:10404000B11491F1C11004C0812F0E9449106BCFAF
:10405000B1E0CB1211C08090B304812F88211817D2
:1040600009F461CF0E945A0A9093B2048093B1047C
:10407000812A8092B30457CF80918705823008F45B
:1040800052CFC81250CF812F0E944910812F0E9419
:10409000980A8091B504912F9823191709F443CFFA
:1040A000812B8093B5043FCFC11012C0812F0E9495
:1040B0005010812F0E94980A8091B504912F982367
:1040C000911509F430CF109518231093B5042BCF18
:1040D00080918705823008F426CFE1E0CE1223CF0D
:1040E0008091B4048123811509F41DCFDFCF809125
:1040F0008D05B11421F08C1508F415CFA5CFC81685
:1041000008F011CF812F0E9450100DCFC114D1F3B0
:1041100080918B0590918C05093321F08091890560
:1041200090918A050E94940C802F0E94BB0FFBCEB9
:104130008D2D869586958370811569F0813009F003
:10414000F2CE802F9D2D9370B11002C080E090E0E0
:104150000E940F0AE8CE802F9D2D9370B11002C0EF
:1041600080E090E00E94E909DECE8D2D8370811100
:1041700033C0B110D8CE402F429546954770440FBA
:10418000440F802F8F70042E01C0880F0A94EAF725
:10419000202F207104FF07C02FE030E001C0220F64
:1041A0004A95EAF720953D2D369536953370323095
:1041B00071F0333051F040916905313029F0822B94
:1041C00084230E943104AFCE842B822BFACF822B22
:1041D000909169058927F5CFB11459F1D0FEA3CE8E
:1041E000402F429546954770440F440F802F8F70A3
:1041F000042E01C0880F0A94EAF7202F207104FFD3
:1042000007C02FE030E001C0220F4A95EAF7209561
:104210003D2D369536953370323091F0333071F054
:1042200040916A05313049F0822B84230E94340486
:104230007ACE823008F477CED3CF842B822BF6CF80
:10424000822B90916A058927F1CF1D2D1F70B11423
:1042500029F0812F0E943704802FF7CE802F0E94F3
:104260005010812F0E9443045ECE60F4003FB9F0ED
:10427000013F81F0B11409F472C0C110A8CE8D2D98
:104280008F718ECE033FF9F0043FA1F78091900526
:1042900082FD25C08D2D8F71B11421F381CE8091C7
:1042A0008D05B11461F0C81608F03DCE2D2D2F718B
:1042B00081E090E001C0880F2A95EAF7C2CF8C1503
:1042C00008F431CEF3CF80E0B11409F4AFCF81E030
:1042D0009D2D9F7101C0880F9A95EAF7A7CF809115
:1042E0008705823048F1B114C9F09091B7049770F6
:1042F000943061F41092B7041092B9041092B8048B
:104300008D2D8F710E944304912C12CEC816E0F7B8
:1043100063E08D2D8F710E94800AF6CFC81640F0A1
:104320001092B7041092B9041092B80464E0F1CF6F
:1043300081E00E94E804E8CFB11431F063E08D2DF4
:104340008F710E94800AEFCD81E00E94E804F2E0C4
:10435000CF1608F4E8CD82E00E94E804E4CDC11055
:10436000D7CE8D2D8F717ECFB11419F0C110E8CD4D
:10437000EBCDC110E5CD40E0D70115966C911597B6
:104380008D919C910E946D0E8091880583FFD8CD00
:104390008091910590919205029709F0D1CD802FDF
:1043A0000E943C10CDCD0737FCE71F0709F0F1CC88
:1043B00081E00E94370443E062E081E00E94BD0496
:1043C00044C806313CE7130709F45FCC8091B4047C
:1043D0008272F801E052F847E531F10508F0D4CCDB
:1043E000E852FC4C0C94CF32A0E0B0E0EAEFF1E2EE
:1043F0000C94E7328091E603803108F049C0809147
:10440000E503811509F444C0C091970389E0D82ED3
:10441000809196038C17E1F1EC2EF12CDC9EE001EB
:104420001124FE01E856FC4F84818115B1F1918180
:104430008091E103981331C090818091E00398133B
:104440002CC08581811129C0028113818091E203F2
:104450009091E303081B190B60E080EE93E00E944B
:104460008B0E0E94811608171907B8F48091E60395
:104470008F7080618093E603C256DC4F88818F7015
:104480008061888380EE93E00E94C8180E94DE0459
:10449000CDB7DEB7E7E00C940333E7012196C77090
:1044A000B7CFAFE0B0E0E7E5F2E20C94DF328C0189
:1044B00086E0F801DE011A9601900D928A95E1F7E7
:1044C000D80115966C90159714965C9080EEA82EE6
:1044D00083E0B82E8091E403811118C0511499F043
:1044E000611409F4BFC1C8010E94590E811509F475
:1044F000B9C189E0F801A0EEB3E001900D928A9570
:10450000E1F70E94F421FF24F39451C0F801C08028
:104510007180E280F38060E080EE93E00E948B0E79
:10452000D090E5038091E2039091E3034701881A5C
:10453000990A60E080EE93E0D11409F444C10E942E
:104540008B0E0E9481168816990608F0F7C0511448
:10455000D1F28091E103D80111969C91B090E603CD
:10456000B0E1BB1608F0A1C0F62C981325C09091BD
:10457000E003F801808198131FC02091E703309178
:10458000E8038781908528173907B1F4611078C056
:104590008B2D8F7080618093E60380EE93E00E9404
:1045A000C8188091E603D80116968C93F12C8F2DB4
:1045B0002F96EFE00C94FB32611062C0E0919703FC
:1045C00080919603AE2F99E0A81302C099E02AC00B
:1045D0002A2F30E09A9FD0011124A856BC4F119683
:1045E0004C911197741207C04C91C41204C01596D7
:1045F0004C91411141C1D9011196A770E5CF2E2FE1
:1046000030E09E9FF0011124E856FC4F4181741266
:1046100006C04081C41203C045814111C7CFF901D2
:104620003196E7708E13EBCF8A859B850E944A0EE8
:10463000292F22952F70903448F02A5F2F70223056
:10464000C8F0C8010E94C818FD2CB1CF9F7022305D
:1046500038F0911551F0F8019681903130F4A7CFE0
:10466000911519F0811509F4A2CF805E883008F405
:104670009ECFE7CF803F08F49ACF815F8330F7CF9A
:104680008091E60381608093E6038091880581FD37
:104690008DCF80EE93E00E94C81889E0E0EEF3E051
:1046A000DF011D928A95E9F781CF981321C090917F
:1046B000E003D8018C9198131BC02091E70330913F
:1046C000E80317968D919C9118972817390781F464
:1046D00061100EC01696BC92C8010E94C81889E0ED
:1046E000F801A0EEB3E001900D928A95E1F70BCFAF
:1046F000C8010E94590E811509F4B4C0611409F46F
:10470000B1C08091E603803208F4F3CE8091E003DB
:104710009091E1039A838983FC82EB828091E40388
:104720008D831E82BF828091E7039091E803998771
:104730008887CE0101960E94C818DBCED090E60390
:10474000B0E1DB1608F4A5CF511409F4DCCE90914A
:10475000E103F801818198131AC09091E0038081F0
:10476000981315C02091E7033091E8038781908565
:104770002817390761F461100AC0D682C8010E9467
:10478000C81889E0D5011D928A95E9F7BCCEC80109
:104790000E94590E811509F465C0611409F462C0C4
:1047A0008091E603803208F4A4CE8091E0039091DA
:1047B000E1039A838983FC82EB828091E4038D83F9
:1047C0001E82DF82B0CF0E948B0E0E948116881657
:1047D000990608F04BC0511409F495CE611409F400
:1047E00041C09091E103F8018181981331C090910B
:1047F000E003808198132CC02091E7033091E803F7
:10480000878190852817390719F58091E2039091E7
:10481000E303E81AF90AF8ECEF16F10408F05FCFA9
:104820008091E60380FD5BCF803108F458CFD8013A
:1048300016968C931697982F907F903F09F44CCF43
:10484000982F907F905F8F70892B16968C9344CF12
:10485000C8010E94590E81114CCE8091E6038160FF
:104860008093E603C8010E94C8184DCE89E0F50187
:1048700011928A95E9F79ACE9091880590FFA6CE7D
:1048800008CFA2E1B0E0E7E4F4E20C94EA320A8750
:104890001B872C873D874E875F87688B798B8A8B38
:1048A000CE010A960E945122811128C020919603C0
:1048B0003091970389E0FE013A96DE01119601904E
:1048C0000D928A95E1F78E858115C1F0822F90E0D7
:1048D00001968770992738171906D9F099E0929FA9
:1048E000D0011124A856BC4FFE01319601900D92C3
:1048F0009A95E1F7809396030E94DE0419E0809177
:10490000970390919603891312C06296E4E00C9489
:1049100006330E946C10109296031092970389E060
:10492000E0EEF3E0DF011D928A95E9F7E7CF189FEB
:10493000C001112488569C4F0E945122811529F3F1
:104940008091970390E00196877099278093970351
:10495000D6CFEF92FF920F931F93CF93DF93809167
:104960006605E0912402CDE0811131C0CDB7DEB7FC
:10497000E6E00C940433D1E0DE0FD0932402EE2E57
:10498000F12CCE9FF0011124E250FB4F8481811560
:10499000E9F087819085892B21F4818592850196A4
:1049A00059F40081118122813381448155816681CE
:1049B000778180850E944124CE9DF001CF9DF00D2E
:1049C0001124E250FB4F14821092B604ED2F809117
:1049D0006605E81780F21092660510922402C6CF91
:1049E000A4E0B0E0E6EFF4E20C94DD322091FD04A7
:1049F000298397E0992EEE24E394F12C3DE0332EA9
:104A000044E0542E662463948091FC0499818913B8
:104A100008C00E94A9240E9476092496E1E10C9422
:104A2000F9327981672F70E07C836B83FB01EE0F95
:104A3000FF1FEE50FB4F80819181989ED001999E7F
:104A4000B00D1124FD01E654FB4FFA83E983248164
:104A500021115BC070906605EEEFF4E040E050E09D
:104A6000812C471508F04FC0A384B484A981BA8172
:104A7000CD90DC900FEF1FEF412C242D30E0B601DC
:104A8000640D711D640D711DDB016D917C916115CB
:104A9000710539F0A616B70609F09801439489010B
:104AA000ECCF0F3F1007D1F1B701002E01C0660F08
:104AB0000A94EAF7862AB701042C02C0660F771F12
:104AC0000A94E2F79B01215031098216130629F559
:104AD000349EF001359EF00D1124E250FB4F989E5C
:104AE000D001999EB00D1124A654BB4F12962D9162
:104AF0003C911397308727835482108211829287CA
:104B0000818715966C920E9487098B819C81019602
:104B10009A8389838370898377CF14824F5F5F4F35
:104B20003D969FCF1092680510926705109217016D
:104B30008091FC048093FD040E9476090E94A924C0
:104B40000895A0E2B0E0E7EAF5E20C94DC324B8B8A
:104B50005C8B6D8B7E8BC82E8F8BD92E988F182FE8
:104B6000992E811549F080919105909192050196B9
:104B7000909392058093910591101092B604188A33
:104B8000198A1A8A86E0FE017396DE011A96019050
:104B90000D928A95E1F78091900582FF21C0809166
:104BA0006D0590916E05892BD9F00E945A0A2091CB
:104BB000B8043091B904821B930B20916D0530919C
:104BC0006E058217930738F08091B70482FD03C009
:104BD00082E00E94E8040E94660A81110E94120588
:104BE000111589F0CE86DF8661E0CE010A960E941B
:104BF0008B0E5C0180352CE7920791F4911419F12A
:104C000081E080931701CE86DF860A851B852C857F
:104C10003D85A601688979898A890E944124CBC093
:104C200081353CE7930729F4911469F00E9492259D
:104C3000EACF82359C4739F4911429F0809117010D
:104C40008111F4CFDDCF5AEBE52E54E0F52E812C07
:104C5000412C512CD7016D917C91BFEFB98FBA8F48
:104C600080E0282F30E0FB01E80FF11DE80FF11D77
:104C7000408151814115510549F0A416B50611F046
:104C8000298D3A8D8F5F3A8F298FEBCFE98DFA8D81
:104C900010E0319609F44BC0D70114964C91109155
:104CA0001701411110E0F70135802681911409F4B4
:104CB00008C1111509F405C1609081057090820545
:104CC000311015C041E050E0098C02C0440F551F5F
:104CD0000A94E2F7242B26832091FA043091FB04F6
:104CE0002615370520F47092FB046092FA0421E047
:104CF00030E0A90102C0440F551F8A95E2F7CA01AE
:104D00000197D70116962C912817190681F48091E6
:104D1000670590916805009709F451C00E941C0B2B
:104D20006816790608F04BC081E0F7018483812A78
:104D3000FFEF4F1A5F0A27E0E20EF11C38E043163E
:104D4000510409F087CF911409F418C1811409F4B2
:104D500015C10E945A0A9093680580936705809157
:104D60006605883040F591E0980F9093660599E0CC
:104D7000FE013A96DE01119601900D929A95E1F7A7
:104D8000CD82DE824DE0849FC001112482509B4F72
:104D900029E0FE013196DC0101900D922A95E1F7A0
:104DA0002FEF3FEFDC011A963C932E9319971C9638
:104DB000BC92AE921B97A096E2E10C94F8329091CF
:104DC000FD043091FC04892FE0E0F0E027E0931728
:104DD00009F447C0692E712CD301AA0FBB1FAE5036
:104DE000BB4F4D915C915C8F4B8F249FD001259FD1
:104DF000B00D1124A654BB4F6D917C9178A36F8F99
:104E000000E060E070E0AF8DB8A1A70FB11DA70F63
:104E1000B11D2D903C9021143104E1F0D7010D908B
:104E2000BC91A02DBE8FAD8F60E007C0A1E024161D
:104E3000350609F0A0E00A2B6F5FAD8DBE8DA60F81
:104E4000B11DA60FB11D4D915C914115510571F732
:104E50007F5FD9CF011591F16717C0F491E0F70199
:104E600094838093FD04EE15FF0509F460CF832F32
:104E700090E0FC01EE0FFF1FEE50FB4F518240828D
:104E80000196837099278093FC0451CF4B8D5C8DE4
:104E9000249FF001259FF00D1124E654FB4F51E0B3
:104EA0005483EE15FF05E9F2981302C08F5F8370FB
:104EB000A3014F5F5F4F942F937089CFE0E0F0E044
:104EC000F7CF30E0311022C061E070E002C0660F21
:104ED000771F8A95E2F7CB0101972817390781F0F0
:104EE00010E081E090E0098C02C0880F991F0A94BD
:104EF000E2F7982F9095F70186818923868317CF53
:104F0000411579F3C2010E948709EACFA901098CF2
:104F100002C0559547950A94E2F7C901019782238B
:104F20009323892B41F540FF26C0D70112968D911E
:104F30009C91892BD9F087E0FE013196DF011D920B
:104F40008A95E9F70E945A0A9C018B839C8384E02E
:104F50008D83F70192818381792F988789870981D1
:104F60001A8144E05E816F810E944124D701159629
:104F70001C92132DB6CF142F1170B3CF9091FD0456
:104F80008091FC04981729F00E94F024811013CF1F
:104F90003ACE0E94A92410926805109267050E94DB
:104FA0007609F4CFA6E0B0E0E8EDF7E20C94EA323F
:104FB0000E945A0A8C0180918A0390918B0380177A
:104FC000910779F019821A820E945A0ABC0149811C
:104FD0005A8180E090E00E94A12510938B030093FA
:104FE0008A032696E4E00C940633A6E0B0E0EBEFEB
:104FF000F7E20C94EC329C01909387038093860334
:10500000211580E2380738F4C9010E94930F2696D3
:10501000E2E00C94083380EF89838A830E945A0A65
:105020008160BC0149815A8181E091E00E94A12503
:10503000EECFA6E0B0E0EFE1F8E20C94EC329C0198
:105040009093870380938603211580E2380738F414
:10505000C9010E940C102696E2E00C94083380EF00
:1050600089838A830E945A0A8160BC0149815A81DE
:1050700081E090E00E94A125EECFCF93DF93D82F5F
:10508000C92F0E94F5278091890590918A050E9479
:10509000940C8D2F9C2F0E941928DF91CF91089599
:1050A0000F931F93CF93DF938C01862F6EEF73E0E6
:1050B0000E946C16892BA9F4C091FE03D091FF03C6
:1050C000209779F0F8018281833051F4CE010E945B
:1050D0003D28CE010E943D28CE010E943D2801C0FE
:1050E000D8F7DF91CF911F910F9108950F931F93E0
:1050F000CF93DF938C01EB016EEF73E08C2F0E9456
:105100006C16892B09F05AC0FE01FF27D8011296B0
:105110008C911297E05EFC4F8130A9F415968C912A
:1051200082FD51C080FF4FC082E0808380910004E7
:10513000909101040097B9F48091FE039091FF03D0
:105140000097E1F110C08230B9F515968C9182FD7F
:1051500028C080FD0BC083E0808380910204909181
:105160000304009701F10E94F52728C084E08083A2
:1051700080910404909105040097A9F78091FE03A3
:105180009091FF03009711F10E943D288091000447
:1051900090910104009739F78091FE039091FF03ED
:1051A000E2CF85E080838091FE039091FF0300971A
:1051B00029F00E943D28F0CF86E08083DF91CF91D7
:1051C0001F910F91089581E08083B6CF80910004F4
:1051D00090910104B5CF0F931F93CF93DF938C0170
:1051E000EB016EEF73E08C2F0E946C16892BA1F4FB
:1051F0008091890590918A050E94940CDD27C05EFC
:10520000DC4F8881F801128218828330F1F048F473
:10521000813059F0823081F0DF91CF911F910F9151
:1052200008958430B9F08530B9F78091FE039091EC
:10523000FF03009789F306C0809100049091010458
:10524000009799F30E941928E7CF8091020490916A
:105250000304F6CF8091040490910504009791F720
:105260002091FE033091FF0380910004909101048E
:1052700021153105F1F2009729F7C901E3CF9C010F
:10528000CB01DA01F901329645915491A417B50783
:1052900048F0F9013496659174910E94293380E0B9
:1052A00090E008958FEF9FEF08959C01DA01029638
:1052B000FC0145915491FC0185919491A817B9077F
:1052C00058F0F9013496859194910E9429330E94F7
:1052D000900D80E090E008958FEF9FEF0895A8E093
:1052E000B0E0E5E7F9E20C94E132FE01319688E0A6
:1052F000DF011D928A95E9F783E3A82E81E0B82E9D
:105300008F014F01EE24E394F12C22E4C22E21E020
:10531000D22EF50181915F018F3F09F43EC0F894D0
:10532000E82FE295EF70F0E021A18F70A70102C095
:10533000440F551F8A95E2F7CA01922F982B91A32B
:1053400092A18095892382A3789400C0EBE3F1E0D9
:1053500031E0712C21912F3F79F0A22FA295AF70EF
:10536000A05EB0E08C9190E02F7002C0959587957B
:105370002A95E2F780FF37C080E0782A330FCE16F7
:10538000DF0641F7F50182918F3F11F00E9412076D
:1053900050EA5A95F1F7D8017C920F5F1F4FBBE39B
:1053A000AB16B1E0BB0609F0B4CF48E050E0B40161
:1053B00086E493E00E941C33892BB9F088E0F40165
:1053C000A6E4B3E001900D928A95E1F781E0809325
:1053D00008020E945A0A90930702809306022896B8
:1053E000EDE00C94FD32832FC8CF80910802811527
:1053F000B1F380910602909107020E941C0B059761
:1054000070F348E050E066E473E08DE793E00E94BB
:105410001C33892B49F088E0E6E4F3E0ADE7B3E024
:1054200001900D928A95E1F710920802D8CFCDB77E
:10543000DEB7AB970FB6F894DEBF0FBECDBF85B712
:10544000806885BF85B7806885BF84B7877F84BF44
:105450000FB6F894A89580916000886180936000F1
:10546000109260000FBE80E890E00FB6F894809331
:105470006100909361000FBE80E197E09093FD0181
:105480008093FC010E94BE080E94A1150E94E515B0
:105490000E94AD0D0E94EA0B0E94390C8091E2003F
:1054A00084608093E200789480918503811599F05F
:1054B0008091E9001091EC008F70179511271795D6
:1054C000182B1092E9008091E80083FD0E94ED10F6
:1054D0001F701093E90082E084BD93E095BD9AEFC0
:1054E00097BD80936E000E949D0E811102C00E94A4
:1054F000911503E311E06BE3A62E61E0B62ED8010F
:105500008D918D018F3F11F00E941207A016B106F8
:10551000B1F70BE311E052E4A52E51E0B52EF801EE
:1055200081918F018F3F11F00E941207A016B106E2
:10553000B1F788E0EDE7F3E0DF01282F1D922A950F
:10554000E9F7E6E4F3E0DF011D928A95E9F780E0F0
:1055500090E00E945133853E9E4F21F40E949D0EA3
:10556000811163C065EE7EEF80E090E00E9485339C
:1055700060E082E090E00E94673381E080936905FB
:1055800061E083E090E00E94673360E074E184E0D2
:1055900090E00E94853360E086E090E00E946733EF
:1055A00060E087E090E00E94673340E050E0BA019D
:1055B00088E090E00E94793360E083E290E00E940E
:1055C000673360E08CE090E00E94673360E08DE03C
:1055D00090E00E94673319821A821B821C821D820E
:1055E0001E821F82188648E050E067E170E0CE011D
:1055F00001960E94573340E050E0BA018FE190E0FD
:105600000E94793380E00E94740D0E94911540E061
:1056100050E0BA018FE090E00E94793340E050E022
:10562000BA0183E190E00E94793382E090E00E9429
:1056300049338093500384E090E00E94513390936B
:10564000900580938F050E946F29EFEFF6E721E028
:10565000E150F0402040E1F700C000000E946F29B7
:1056600080917D0380FF08C06FEF7FEF80E090E0C6
:105670000E9485330E942B0B83E090E00E94493307
:105680000E9431040E94670881E08093A80448E0EA
:1056900050E067E170E089EA94E00E9439331092AB
:1056A000A8048091A9048430B8F485E08093A9040B
:1056B0008091180190911901A0911A018093AA0478
:1056C0009093AB04A093AC048FE78093AD048FEF6D
:1056D0008093AE040E94001786E091E090938D03C2
:1056E00080938C0348E1442E512C809185038530B2
:1056F00049F480918503853009F44EC00E946C10F6
:105700000E94D9090E946F2901E513E03DE7A32E0D
:1057100033E0B32ED501F80191918D9129E533E065
:105720002E173F0709F489C09817B1F3912CD501C2
:105730008D905D01F80181918F01881531F18825E7
:105740008BA7312C222423948BA582218115B1F0C3
:1057500039829A820E945A0A9C838B83F1E0FD83EE
:1057600091E0882D8221811101C090E09E834981C2
:105770005A816B817C818D810E94A1253394220CFA
:1057800027E03212E1CFF8018292939438E093122D
:10579000CECF0E94C20A55C080918503843021F18A
:1057A0000E940B1710924E0330E40FB6F894A895A0
:1057B000409260000FBE3093600083B7817F8460A9
:1057C00083BF83B7816083BF7894889583B78E7FCA
:1057D00083BF0FB6F894A89580916000886180938C
:1057E0006000109260000FBE80914F03811509F494
:1057F00080CF0E946F29EDE7F3E08191811105C010
:1058000043E0E538F407C9F774CF80E189BD82E150
:1058100089BD09B400FEFDCF8091D8008F7D8093B3
:10582000D8008091E00082608093E0008091E000E9
:1058300081FDFCCF0E946C105CCF981377CF0E9443
:10584000D22780910D0490910E04892B09F43EC05B
:10585000409161035091620360916303709164030E
:105860002FB7F8948091590390915A03A0915B034C
:10587000B0915C032FBF841B950BA60BB70B409117
:105880005D0350915E0360915F0370916003841724
:105890009507A607B707D0F080910D0490910E04EC
:1058A0000E94930F10920E0410920D041092610347
:1058B00010926203109263031092640310925D03CE
:1058C00010925E0310925F03109260030091150422
:1058D000109116040115110509F18091170490919A
:1058E00018040E941C0B3C01C8010E9481168615F9
:1058F0009705A0F48091150490911604992724E04F
:10590000880F991F2A95E1F7FC01E25EFB4F208189
:1059100022FD04C0875E9B4F0E947F148091170177
:10592000811501F180916705909168050097D1F08C
:105930000E941C0B2091FA043091FB0428173907B0
:1059400088F49091FD048091FC04981709F470C0CC
:105950000E94F0241092FB041092FA041092680541
:10596000109267058091860580FF1DC0809115010A
:1059700082FF19C00E945A0A6C018091990490918B
:105980009A049601281B390B809110019091110106
:105990002817390740F041E0B60180919B049091AF
:1059A0009C040E94D1130E940B170E94D909909168
:1059B0006503891721F0809365030E94C20A8091D4
:1059C0008503843009F091CE83E08093E9008091D3
:1059D000E80082FF8ACE8091E80090E085FF05C054
:1059E0000E94B90B811569F191E08091E8008B77F5
:1059F0008093E800911509F478CE00918803109106
:105A00008903E98101151105C1F1EE3F09F058C084
:105A10008A81833020F08550833008F051C0EA81BC
:105A2000EE3008F04DC0F0E0E351FC4C0C94CF3266
:105A30000E94A92410926805109267050E947609B9
:105A400091CF00E210E0CE0101965C018091E80068
:105A500085FD0AC08091E8008B778093E8000E9462
:105A6000B90B811599F3C0CF8091F100D5018D93C9
:105A70005D010150104051F7B7CFE43150F4E1150A
:105A800051F0E150E33138F4F0E0E550FC4C0C9477
:105A9000CF32EE3F21F28FEFE1C31A8289E08B8390
:105AA0000FC08A818230A9F08330E1F0813099F70C
:105AB0000E94C20A0E94D5326B837C838D839E83B1
:105AC00040E250E0BE016F5F7F4F82E00E94CE0C4B
:105AD0000CCE87E290E00E9449331B821C821D821B
