:100000000C94D0020C9417030C9417030C94170350
:100010000C9417030C9417030C9417030C941703F8
:100020000C9417030C9417030C94ED260C94BF2723
:100030000C940F1E0C9417030C9417030C941703C5
:100040000C9417030C9417030C9417030C941703C8
:100050000C9417030C94771E0C9417030C9417033D
:100060000C9417030C9417030C9417030C941703A8
:100070000C9417030C9417030C9417030C94170398
:100080000C9417030C9417030C9417030C94170388
:100090000C9417030C9417030C9417030C94170378
:1000A0000C9417030C9417030C941703F504F7042E
:1000B0000205F904FB04FD04FF040105040506051F
:1000C000080513050A050C050E0510051205150592
:1000D0009C139C13CE13CE130C142A149015901558
:1000E0006C1490150F150F15801590159015891526
:1000F0001C151C151C151C151C151C151C151C1578
:100100001C151C151C151C151C151C151C151C1567
:100110002D153B1542154915531521162116331679
:1001200033162A16331633163316211621162F16B8
:10013000331633162F162C2853284B2953284B29B6
:100140009F28C2284B291929282907634236B79BC3
:10015000D8A71A39685618AEBAAB558C1D3CB7CC27
:100160005763BD6DEDFD753EF6177231BF0000009F
:10017000803F05A84CCDB2D44EB93836A9020C50F8
:10018000B9918688083CA6AAAA2ABE000000803F32
:10019000165C14001A000800150017001C00180057
:1001A0000C00120013002A00E000040016000700F3
:1001B00009000A000B000D000E000F003300340090
:1001C000E1001D001B0006001900050011001000D1
:1001D00036003700380028002B68000000000000BF
:1001E00000002C4100000000000000000000E600BC
:1001F00035021E001F0020002100220023002400E1
:100200002500260027004C0001002D002E002F00A5
:10021000300001005000510052004F000100310039
:1002200001002D022E022F02300201004A004E0072
:100230004B004D0001004600025101000100010089
:1002400001000100010001000100010001000100A6
:100250003A003B003C003D003E003F0040004100B2
:10026000420043004400450001000100010001007C
:10027000010001004A004E004B004D00010001004A
:100280000100C25CC35CC55CC65CC75CC85CC95C81
:10029000CA5C010001000100010001000100010031
:1002A0000100010001000100010001000100005CEB
:1002B0000100010001000100010001000100010036
:1002C0000100010001000100010001000100010026
:1002D0000100010001000100010001000100010016
:1002E0000100010001000100010001000100010006
:1002F00001000100010001000100010001000100F6
:1003000001000100010001000100010001000100E5
:1003100000047F3F1F643214643214783C1E1E14A4
:100320000A056801F000B40078005A0000000000DF
:1003300000010101010101010101020202020202A8
:10034000020202030303030303030304040404047B
:10035000040505050505060606060607070707083E
:100360000808080909090A0A0A0A0B0B0B0C0C0CED
:100370000D0D0D0E0E0F0F0F101011111112121383
:10038000131414151516161717181819191A1A1BFD
:100390001C1C1D1D1E1F1F20202122222324252559
:1003A00026272728292A2B2B2C2D2E2F2F30313290
:1003B00033343536363738393A3B3C3D3E3F4041A1
:1003C000424344464748494A4B4C4D4F5051525383
:1003D000555657585A5B5C5E5F6062636466676936
:1003E0006A6C6D6E707173747678797B7C7E8081B7
:1003F000838486888A8B8D8F91929496989A9B9D00
:100400009FA1A3A5A7A9ABADAFB1B3B5B7B9BBBD0C
:10041000BFC1C4C6C8CACCCFD1D3D6D8DADCDFE1DD
:10042000E4E6E8EBEDF0F2F5F7FAFCFF0403300048
:1004300000000E0341006E0063006F006E0061005B
:1004400000000A03500041004E0043000000040376
:10045000090409023B00020100A0FA09040000019E
:10046000030101000921110100012240000705815B
:100470000308000A0904010001030000000921111A
:1004800001000122C0000705820320000A120110AA
:100490000100000008EDFE6060010001020301059B
:1004A000010902A10185020901A10005091901291B
:1004B00005150025019505750181029501750381DA
:1004C000010501093009311581257F9502750881E3
:1004D0000609381581257F950175088106050C0AE6
:1004E00038021581257F950175088106C0C0050178
:1004F0000980A10185031601002603001A81002A44
:100500008300751095018100C0050C0901A10185CA
:1005100004160100269C021A01002A9C02751095FF
:10052000018100C005010906A1018505050719E043
:1005300029E71500250195087501810205081901B3
:10054000290595057501910295017503910105072E
:10055000190029EF1500250195F075018102C005EC
:10056000010906A101050719E029E71500250195F4
:100570000875018102950175088101050819012995
:1005800005950575019102950175039101050719FE
:100590000029FF150026FF00950675088100C000A0
:1005A00011241FBECFEFDAE0DEBFCDBF04B603FEDD
:1005B00027C080915D0290915E02A0915F02B09190
:1005C00060028730904BA740B04BD1F410925D028F
:1005D00010925E0210925F021092600214BE84B705
:1005E000877F84BF0FB6F894A895809160008861DA
:1005F00080936000109260000FBEE0E0F8E3099580
:1006000011E0A0E0B1E0EAE9FAE502C005900D9240
:10061000A033B107D9F722E0A0E3B1E001C01D92F9
:10062000AD35B207E1F70E9415240C944B2D0C94C4
:100630000000089581E0089581E008950C941C0362
:100640000E94A31C811102C00E94271D0C944A081D
:100650000C944C0808950C942A030C942B030895D1
:100660000E940F160E942F032FEF84E39CE021507D
:1006700080409040E1F700C000000C949D1EFF9266
:100680000F931F93CF93DF938C01FC01C081D18125
:1006900080917801811113C08281882349F0CE01B5
:1006A0000E94711BF82E682FCE010E941A1B04C0F5
:1006B000CE010E94451BF82EBE018F2D04C0CE0135
:1006C0000E94711BBE010E94D105EC01B8010E947D
:1006D0001E03882309F45AC2CC3CFCE5DF0709F469
:1006E000E1C0E8F5C43C9CE5D90709F4A5C0F8F4DD
:1006F000C531FCE5DF0778F4C2308CE5D80708F097
:1007000052C1C1159CE5D90709F467C0C130DC4569
:1007100009F46BC02EC2C23CFCE5DF0709F478C0C7
:1007200008F07EC0C631DC4509F4F4C122C2F801EC
:100730008281C83CFCE5DF0709F49CC040F4C63C5C
:10074000ECE5DE0709F48AC008F482C08DC0CA3C1B
:100750009CE5D90709F49AC008F492C09DC0C43D35
:10076000FCE5DF0709F4F8C0C0F4F8018281C03D60
:10077000FCE5DF0709F4BFC040F4CE3CECE5DE0742
:1007800009F49DC008F496C0A8C0C23D9CE5D907F5
:1007900009F4CFC008F4BFC0DAC0C93DFCE5DF07EB
:1007A00009F49DC160F4C73D9CE5D90709F44DC12A
:1007B00008F06EC1C53DDC4509F4DEC0DAC1CD3DAF
:1007C0008CE5D80709F4E6C0CE3D9CE5D907C1F019
:1007D000CC3DDC4509F0CDC1D6C0F801828188232B
:1007E00009F4D4C10E943003D1C1F8018281882369
:1007F00009F4CCC18091FC0181608093FC01C6C1E9
:10080000F8018281882309F4C1C10E94271DBEC15D
:10081000F8018281882309F4B9C10E94140DB6C180
:10082000F8018281882309F4B1C10E94F21B82720F
:1008300061F00E94B00CAAC1F8018281882309F4FA
:10084000A5C10E94F21B8272A1F30E94A20C9EC15C
:10085000882309F49BC10E94A60B98C1882309F440
:1008600095C10E94C90B92C1882309F48FC10E94CF
:10087000E90B8CC1882309F489C10E94090C86C147
:10088000882309F483C10E94290C80C1882309F4BC
:100890007DC10E94490C7AC1882309F477C10E9466
:1008A000660A74C1F8018281882309F46FC10E942D
:1008B0007B0A6CC1882309F469C181E029C08823BF
:1008C00009F464C10E945D0A823028F00E945D0A2A
:1008D000853008F4BACF82E01BC0882309F456C1E2
:1008E0000E945D0A863028F00E945D0A883008F474
:1008F000ACCF86E00DC0882309F448C10E945D0A90
:10090000893028F00E945D0A8E3008F49ECF89E07D
:100910000E94B30C3BC1882309F438C10E945D0AD0
:100920008F3028F00E945D0A843108F48ECF8FE06A
:10093000EFCF882309F42AC10E945D0A853128F08F
:100940000E945D0A873108F480CF85E1E1CF8823DA
:1009500009F41CC188E1DCCFF8018281882309F405
:1009600015C10E945D0A893128F00E945D0A823219
:1009700008F46BCF89E1CCCFF8018281882309F498
:1009800005C183E2C5CFF8018281882309F4FEC046
:1009900080E006C0F8018281882309F4F7C082E074
:1009A0000E94B424F3C0F8018281882309F4E6C0D0
:1009B0000E94A31C811102C00E94271D0E94C01C1E
:1009C00090E090934F0280934E02FE01E350FC456D
:1009D000E231F10530F4EA5AFF4F80914E020C9457
:1009E000F02C80914E02816027C0826025C0846017
:1009F00023C0806121C080621FC080641DC08068E8
:100A00001BC08460886018C08E7F16C08D7F14C0A4
:100A10008B7F12C08F7E10C08F7D0EC08F7B0CC06D
:100A20008F770AC08B7F877F07C087FB222720F93B
:100A300091E0922790FB87F980934E0280914E02BD
:100A40000E94C41C0E940F16A1C0F8018281882355
:100A500051F0109235010E94411E90933201809313
:100A6000310182E022C08091350181110FC0809157
:100A70003101909132010E944D1E883C910530F465
:100A800086E20E94D31186E20E94F11282E024C025
:100A9000F8018281882361F0109236010E94411E84
:100AA000909334018093330180E20E9459136EC009
:100AB0008091360181110FC08091330190913401F2
:100AC0000E944D1E883C910530F487E20E94D311AC
:100AD00087E20E94F11280E20E94601357C0F80181
:100AE00082818111D9CF809136018111F4CF80911B
:100AF0003301909134010E944D1E883C910558F7B6
:100B000080E20E94601388E20E94D31188E20E9472
:100B1000F1123CC00E94F21BC82F0E94F21B81718F
:100B200019F49C2F9A7A01C090E0F80182812091FB
:100B30000D0130910E01882379F081E0911101C0FF
:100B400080E080933001911102C069E201C065E349
:100B5000C9010E948F1D0AC080913001811102C01D
:100B600069E201C065E3C9010E949A1D0E94401C10
:100B70000DC081E08093350180933601C801DF917B
:100B8000CF911F910F91FF900C941A0380E0DF9199
:100B9000CF911F910F91FF90089580E090E008950C
:100BA000089520E3829FC0011124FC012CE0729F74
:100BB000E00DF11D1124E60FF11DEE0FFF1FE057B0
:100BC000FE4F859194910895880F991FFC01E05F75
:100BD000FC4F859194910895CF93DF930E94D105A6
:100BE0000E94A807EC018115904508F041C0C1158D
:100BF00080E4D80708F028C1C83ED10510F5C03EF2
:100C0000D10508F0A1C1C83AD10578F4C53AD1059B
:100C100008F0A2C0C130D10509F496C108F447C15B
:100C2000C430D10508F090C142C1CF3BD10508F4D2
:100C30009EC0C03CD10508F43AC1CE01805C910948
:100C4000F5C0C11590E2D90758F4C11521E0D207CB
:100C500008F07AC1C03FD10508F429C1D06574C13C
:100C6000C11580E3D80708F0E5C0CE019F70DEC053
:100C7000C11595E5D90708F043C0C11524E5D20791
:100C800008F0F9C0C11582E5D80708F5C11591E54E
:100C9000D90708F0DCC0CE0174E0969587957A9567
:100CA000E1F783709C2F937021E030E002C0220FA7
:100CB000331F9A95E2F73C68382BCF70C695C695DE
:100CC00080E2C89FE0011124C22BD32B3DC19E01BD
:100CD000237033278C2F86958695C115D34508F050
:100CE000BBC0C1E0D0E002C0CC0FDD1F2A95E2F707
:100CF00020E2829FC0011124C82BD92BDC6824C1BB
:100D0000C11529E5D207A0F4C11588E5D80708F078
:100D1000B7C0C11596E5D90708F0C9C08C2F0E944D
:100D200024088F71C82FD0E0DC2FCC27D0620CC1F3
:100D3000C1152AE5D20708F4A8C0CE019056811546
:100D4000904208F0B4C08D2F8F710E942408DD27D7
:100D5000D0628F71D82BF8C0C53AD10509F4AAC06A
:100D6000C63AD10509F0A9C0C2E8D0E4EDC0C83A3E
:100D7000D10509F4A5C0C93AD10509F4A4C0CA3AFD
:100D8000D10509F4A3C0CB3AD10509F4A2C0CC3AED
:100D9000D10509F4A1C0CB3BD10509F4A0C0CC3BDF
:100DA000D10509F49FC0CD3AD10509F49EC0C03BDE
:100DB000D10509F49DC0CE3AD10509F49CC0CF3AC3
:100DC000D10509F49BC0C13BD10509F49AC0C23BCF
:100DD000D10509F499C0C33BD10509F498C0C43BBF
:100DE000D10509F497C0C53BD10509F496C0C63BAF
:100DF000D10509F495C0C73BD10509F494C0C83B9F
:100E0000D10509F493C0C93BD10509F492C0CD3B8B
:100E1000D10509F491C0CE3BD10509F490C0CA3B7D
:100E2000D10509F48FC0C0E0D4E48EC00E94E4056F
:100E3000EC018AC0CE019927D3FF03C0EC01D86C26
:100E400083C0EC01D06C80C0DF70D06A7DC0DC2F25
:100E5000CC27C16FD06A78C0C1E0D0E002C0CC0F0F
:100E6000DD1F2A95E2F720E2829FC0011124C82BE2
:100E7000D92BDA6869C0DC2FCC27C46FD06A64C074
:100E8000DC2FCC27C06FD06A5FC08C2F8F700E9480
:100E9000240894E0D695C7959A95E1F7CF70D0E0F5
:100EA000DC2FCC27D06A8F70806EC82B4DC0C0E07D
:100EB000D0E04AC0C1E8D0E447C0C3E8D0E444C0B1
:100EC000C2EED4E441C0C9EED4E43EC0CAEED4E4DC
:100ED0003BC0C5EBD4E438C0C6EBD4E435C0C3EBAB
:100EE000D4E432C0C4EBD4E42FC0C7EBD4E42CC0AC
:100EF000CCECD4E429C0CDECD4E426C0C3E8D5E4DE
:100F000023C0CAE8D5E420C0C2E9D5E41DC0C4E9C5
:100F1000D5E41AC0C1E2D6E417C0C3E2D6E414C0D7
:100F2000C4E2D6E411C0C5E2D6E40EC0C6E2D6E4FF
:100F30000BC0C7E2D6E408C0CFE6D4E405C0C0E7E2
:100F4000D4E402C0CAE2D6E4CE01DF91CF91089585
:100F50008238910549F1B0F48133910509F459C003
:100F600048F48932910509F44FC08A32910509F499
:100F700055C008958533910509F441C08933910521
:100F800099F00895833E910531F138F4803E910542
:100F900091F0823E9105A9F00895863E910501F1F8
:100FA000873E910539F1089520914E0220FD3BC006
:100FB00021FD39C0089580914E0280FF34C089E33D
:100FC00041C080914E0282FF30C080914E0284FD6C
:100FD0002EC083EE37C080914E0282FD26C0F5CF31
:100FE00080914E0283FF25C080914E0284FD1FC078
:100FF00087EE28C080914E0283FD1BC0F5CF809103
:101000004E0285FD18C019C080914E0285FD15C0A5
:1010100012C080914E0286FD12C013C080914E0214
:1010200086FD0FC00CC080EE0DC082EE0BC080E0CC
:1010300009C086EE07C089E205C085E303C08AE2E5
:1010400001C081E390E0089590914E0292FF0DC09F
:10105000282F2871283019F4877F846006C0282F34
:101060002471243011F48B7F886093FF0DC0282FEA
:101070002871283119F4877E846106C0282F2471D5
:10108000243111F48B7E886194FD877E0895089544
:101090000C9447080C9448080C941903ACE2B1E096
:1010A00040E351E061E070E08D91E82FE295EF7050
:1010B000F0E091A18F709B0101C0220F8A95EAF7A1
:1010C000822F8095892381A34A175B0769F7A0E2E5
:1010D000B1E041E050E08D91E82FE295EF70F0E053
:1010E00021A18F70BA0102C0660F771F8A95E2F7BF
:1010F000CB01962F9095922391A392A1892B82A345
:1011000071E0AC32B70739F71092400110923F01FD
:101110001092380110923701109242011092410151
:1011200010923A0110923901109244011092430139
:1011300010923C0110923B01109246011092450121
:1011400010923E0110923D0184E00E9452090C94DD
:1011500020032F923F925F926F927F928F929F9285
:10116000AF92BF92CF92DF92EF92FF920F931F93B5
:10117000CF93DF932CE2222E21E0322EAFE3B1E0B9
:1011800037E4632E31E0732E20E001E010E06D01C2
:101190008D909C90119711961C921E92E10189915D
:1011A0001E01E82FE295EF70F0E031A18F70A801E9
:1011B00002C0440F551F8A95E2F7CA01342B31A3B0
:1011C00042A1382F3095432342A350EA5A95F1F7B4
:1011D00090E2E92E91E0F92E40E050E0E7015990CD
:1011E0007E01652D62956F7070E0EB0168A1AD9096
:1011F000BC90119770E0D52DDF7002C07595679592
:10120000DA95E2F760FD08C0B801042E02C0660F4F
:10121000771F0A94E2F702C060E070E06A297B2938
:1012200011967C936E934F5F5F4F4C305105B1F632
:1012300091A1392331A392A1892B82A3129681E037
:10124000F601408151814815590509F480E0282BA9
:101250006A167B0609F09BCF44E067E371E08FE3F9
:1012600091E00E9453090E94280381E0DF91CF9111
:101270001F910F91FF90EF90DF90CF90BF90AF90B4
:101280009F908F907F906F905F903F902F900895E8
:10129000E82FF0E0EE0FFF1FE95CFE4F80819181A7
:1012A000089508950895FF920F931F93CF93DF93AE
:1012B000F82E092F162FD72FC42F222349F081E0B3
:1012C000809349010E94411E9093480180934701F9
:1012D000809149018823D9F080914701909148017C
:1012E0000E944D1E069798F0EF2DF02FA12FBD2FD5
:1012F00080E090E04C2F50E08417950734F4219162
:1013000031912D933D930196F7CF10924901DF91D2
:10131000CF911F910F91FF900895EF92FF920F933D
:101320001F93CF93DF93E901662309F44BC0242F69
:1013300030E0EFEFF0E0E61BF109B901E69F900124
:10134000E79F300DF69F300D1124232F8B01031BD7
:1013500011095CE3E52EF12CB7010E94C82CFB01BA
:10136000BC01069FC001079F900D169F900D112490
:10137000B7010E94C82CE230F105B1F040F430977B
:1013800079F0319711F5832F242F461B21C0E430CB
:10139000F105A1F068F03597C1F4842F861B18C0C1
:1013A000832F262F230F14C0862F830FE42F03C013
:1013B000E42FE61B842F432F2E2F0AC0842F462FA5
:1013C000430F06C0842F242F03C080E020E040E0BC
:1013D000E42FF0E0E45DFC4F4491E22FF0E0E45DA7
:1013E000FC4F9491E82FF0E0E45DFC4FE4914983D9
:1013F0009883EA83DF91CF911F910F91FF90EF9037
:10140000089580912B02282F26952F7330E0211507
:10141000310519F48178826005C02532310524F048
:101420008178886480932B0230912B02432F441FD4
:101430004427441F20912C02522F550F852F842BB7
:1014400027FB992790F9893641E094077CF068E6FC
:1014500071E00E94DC2C80FB37F930932B028695DB
:101460002078822B90FB87F980932C02089588E0E6
:1014700090E00C940B2DCF92DF92EF92FF926B01D4
:101480007C010E94010AB701A60188E090E0FF906C
:10149000EF90DF90CF900C94292DEBE2F2E083E007
:1014A000808310922C028FEF828383831482608169
:1014B0007181828193810C943B0A80912B0280FF81
:1014C00003C086958F73089580E0089580912F0260
:1014D00090E001968430910514F083E090E08093D1
:1014E0002F0260912B0270912C0280912D0290911D
:1014F0002E020C943B0A80912F0290E0019797FFF7
:1015000002C080E090E08430910514F083E090E028
:1015100080932F0260912B0270912C0280912D02FA
:1015200090912E020C943B0A80912B0280FF06C002
:1015300068E070E080E392E00C945810E0E3F2E0A1
:10154000118210821282339682E0E834F807C1F7E4
:10155000EFCF90912B0290FF0CC0E0E3F2E081838B
:1015600060834283339692E0E834F907C1F70C9424
:10157000940A0895CF93DF9300D01F92CDB7DEB7C2
:1015800020912B0220FF0AC09E012F5F3F4F0E9437
:101590008D094B8169818A810E94A90A0F900F9061
:1015A0000F90DF91CF9108955F926F927F928F920B
:1015B0009F92AF92BF92CF92DF92EF92FF920F93E2
:1015C0001F93CF93DF9300D01F92CDB7DEB78C016E
:1015D000E62EF42E522E80912B0280FF8BC0982F86
:1015E0009E77923061F49E012F5F3F4FC8010E94A9
:1015F0008D094B8169818A810E94A90A5BC0E82F0D
:10160000E695EF739EE39E0F9F73943018F4F0906D
:101610002E0250C09AE39E0F9F73993068F4881F82
:101620008827881F90912C02292F220F022F082B28
:1016300097FB112710F93EC087E28E0F8F738A3017
:10164000C8F5F0E07997E0FD02C021E001C02FEF7E
:10165000EE7FEE5DFC4F85919491AC0183E0569551
:1016600047958A95E1F724034001259F900C1124AA
:10167000580188E9A81A8EEFB80A90E3C92E92E0C3
:10168000D92E28E6622E77247394C501B3010E94F7
:10169000C82C96014F2D6E2D0E948D09A80CB91CE7
:1016A00083E0C80ED11C88E4C81682E0D80669F72A
:1016B0000E94940A80912B0200FB87F980932B02F1
:1016C000902F969580912C028078892B10FB87F9BA
:1016D00080932C02E0922D02F0922E02552051F0C0
:1016E00060912B0270912C0280912D0290912E021C
:1016F0000E943B0A0F900F900F90DF91CF911F91A6
:101700000F91FF90EF90DF90CF90BF90AF909F90A0
:101710008F907F906F905F900895282FEBE2F2E01A
:101720003081331F3327331F40912C02542F550F24
:10173000852F832B47FB992790F9089668E671E07F
:101740000E94DC2C438162810C94D40A81E00C94C9
:101750008D0B282F30912B02331F3327331F4091DD
:101760002C02542F550F852F832B47FB992790F977
:10177000883091051CF4805A9E4F05C0089768E692
:1017800071E00E94DC2C40912E0260912D020C949D
:10179000D40A81E00C94A90B60912D02262F30E031
:1017A000283F310514F4685F01C06FEF30912B02C0
:1017B000331F3327331F90912C02592F550F97FB5E
:1017C000992790F9282F40912E02852F832B0C9476
:1017D000D40A81E00C94CC0B60912D02262F30E0CE
:1017E0002830310514F0685001C060E030912B02C0
:1017F000331F3327331F90912C02592F550F97FB1E
:10180000992790F9282F40912E02852F832B0C9435
:10181000D40A81E00C94EC0B40912E02242F30E08E
:10182000283F310514F4485F01C04FEF30912B027F
:10183000331F3327331F90912C02592F550F97FBDD
:10184000992790F9282F60912D02852F832B0C94D6
:10185000D40A81E00C940C0C40912E02242F30E02D
:101860002830310514F0485001C040E030912B027F
:10187000331F3327331F90912C02592F550F97FB9D
:10188000992790F9282F60912D02852F832B0C9496
:10189000D40A81E00C942C0C20E00C94D40ACF9351
:1018A00090912B0290FF40C09178811102C092600C
:1018B00007C0853210F0986403C08F73880F982B8F
:1018C00090932B02662351F060912B0270912C02B1
:1018D00080912D0290912E020E943B0AC0912B0212
:1018E0006C2F66956F7370E04BE050E082E091E002
:1018F0000E94F62C892B19F01092670103C081E039
:1019000080936701CC1FCC27CC1F90912C02892F8C
:10191000880F97FB992790F940912E0260912D0234
:101920008C2BCF910C944C0CCF910895682F9091F3
:101930002B0296959F7381E0890F853208F081E034
:101940000C944F0C81E00C94960C682F90912B0214
:1019500096959F738FEF890F09F484E20C944F0CD6
:1019600081E00C94A50C61E00C944F0CEBE2F2E0EA
:1019700080818160808386958F730C94B30C60E0C6
:101980000C944F0C80916801811135C08091FC014D
:1019900081608093FC010E94A31C811104C00E94FD
:1019A000271D0E944D0A0E94370A60932B027093F4
:1019B0002C0280932D0290932E026E7761F40E9488
:1019C0004D0A0E94370A60932B0270932C02809379
:1019D0002D0290932E020E94010A81E080936701FC
:1019E00080912B0280FF04C086958F730E94BF0CEC
:1019F00081E0809368010895EBE2F2E080818E7FC0
:101A0000808360817181828193810E943B0A109260
:101A100067012FEF80E792E0215080409040E1F78E
:101A200000C000000C94940A80912B0280FD0C945D
:101A3000FC0C0C94B60CCF93E82FF0E0E25EFC4F68
:101A4000C49180916501909166010E944D1EEC2F1A
:101A5000F0E08E179F0708F443C00E94411E909348
:101A60006601809365016091640170E080E090E020
:101A70000E94C92A20E030E04FE753E40E94EC299D
:101A80002BED3FE049E450E40E94F22B0E945F2CD2
:101A90000E94662A2BE43AE34EE25FE30E947F292C
:101AA00020EF3BEF48ED52E40E94F22B0E94982A6F
:101AB000462F80912B02881F8827881F90912C0227
:101AC000292F220F97FB992790F960912D02822BE5
:101AD0000E94BA0A8091640190E0019680936401AB
:101AE000CF910895CF93E82FF0E0E55EFC4FC491CD
:101AF00080916201909163010E944D1EEC2FF0E0F5
:101B00008E179F07E8F00E94411E90936301809317
:101B1000620140912E0260912D02809160019091AE
:101B200061010E94BA0A8091600190916101019661
:101B300068E671E00E94C82C909361018093600177
:101B4000CF910895CF92DF92FF920F931F93CF937F
:101B5000DF93F82EE82FE695F0E0E85EFC4FC491A5
:101B600080915E0190915F010E944D1EEC2FF0E08C
:101B70008E179F07B8F10E94411E90935F018093DA
:101B80005E0100E312E0C0E0D0E088E6C82EDD246C
:101B9000D39480915C0190915D018C0F9D1FB601E3
:101BA0000E94C82C980140912E0260912D020E9443
:101BB0008D09AD960D5F1F4FC83681E0D80749F7F4
:101BC0000E94940A80915C0190915D01F0FE05C035
:101BD0000196BE010E94C82C01C0019790935D013F
:101BE00080935C01DF91CF911F910F91FF90DF9067
:101BF000CF900895CF92DF92EF92FF920F931F93B1
:101C0000CF93DF9380FF02C01FEF01C011E08695E4
:101C1000E82FF0E0EB5EFC4FC49180915A01909167
:101C20005B010E944D1EEC2FF0E08E179F0708F419
:101C300058C00E94411E90935B0180935A01C0E3FB
:101C4000D2E0E12CF12C198218821A8294E0C92E7C
:101C5000D12C00E080915901800F87FD885F082E0C
:101C6000000C990BE816F906E9F480912E028C9D80
:101C7000A0018D9D500D112455954795559547957B
:101C800080912B02881F8827881F90912C02592F42
:101C9000550F97FB992790F99E0160912D02852B96
:101CA0000E948D09010F81E0C81AD10899F68FEFC3
:101CB000E81AF80A239688E0E816F10421F60E9453
:101CC000940A80915901113031F4811102C087E0EA
:101CD00006C0815004C090E00196877099278093D8
:101CE0005901DF91CF911F910F91FF90EF90DF90FD
:101CF000CF9008950F931F93CF93DF93E82FF0E0D9
:101D0000EE5EFC4FC49180915701909158010E9462
:101D10004D1EEC2FF0E08E179F0708F456C00E946E
:101D2000411E9093580180935701C0E3D2E0FE0119
:101D3000118210821282339682E0E834F807C1F7EC
:101D400000E010E080915601082E000C990B081756
:101D50001907ECF080910101082E000C990B8017F7
:101D60009107ACF080912B02881F8827881F9091E3
:101D70002C02592F550F97FB992790F99E014091FE
:101D80002E0260912D02852B0E948D0903C01982BD
:101D900018821A820F5F1F4F23960830110591F6A3
:101DA0000E94940A8091000190915601980F90939F
:101DB000560120910101280F20930101121614F4FD
:101DC00097301CF0819580930001DF91CF911F9196
:101DD0000F910895EF92FF920F931F93CF93DF938C
:101DE00080915401909155010E944D1E883E934070
:101DF000D0F10E94411E9093550180935401C091EF
:101E00005201D09153012196C170DD27D093530127
:101E1000C093520180E3E82E82E0F82E10E008E73C
:101E2000812F8695FE01E80FF11DCF018170992762
:101E3000970140912E0260912D02FC010E9FC0017E
:101E40000F9F900D11240E948D091F5FF3E0EF0E8C
:101E5000F11C183029F7DF91CF911F910F91FF905E
:101E6000EF900C94940ADF91CF911F910F91FF9006
:101E7000EF900895CF93DF9300D01F92CDB7DEB7D8
:101E800080915001909151010E944D1EE0E1F3E0DC
:101E90002591349182179307C0F180914F018111F0
:101EA0000CC09E012F5F3F4F4FEF6FEF80E090E03F
:101EB0000E948D098A8180934F010E94411E909358
:101EC00051018093500180914E01813051F028F0F2
:101ED000823061F440914F010AC080914F0140E08F
:101EE00007C060914F0140E080E003C040E080E027
:101EF00060E00E94A90A80914E0190E0019663E0A3
:101F000070E00E94DC2C80934E010F900F900F9098
:101F1000DF91CF9108950F931F93CF93DF9380911B
:101F20004C0190914D010E944D1E843F914008F458
:101F300048C00E94411E90934D0180934C01C0E324
:101F4000D2E000E010E020914A0130914B018091F5
:101F50002B0290912C02043011051CF4232B79F0F4
:101F600002C0232B61F4881F8827881F592F550F23
:101F700097FB992790F99E0140912E020AC0881F75
:101F80008827881F592F550F97FB992790F99E0195
:101F900040E060912D02852B0E948D090F5F1F4F3D
:101FA00023960830110579F60E94940A80914A011F
:101FB00090914B0101968170992790934B018093EA
:101FC0004A01DF91CF911F910F9108958091670190
:101FD0008823D9F190912B02892F86958F732EE358
:101FE000280F2F73243018F482500C941B0D2AE311
:101FF000280F2F73233018F486500C94720D27E3AA
:10200000280F2F73263018F489500C94A20D21E369
:10201000280F2F73263018F48F500C94FA0D2BE2F2
:10202000280F2F73233018F485510C947A0E892FC2
:102030008E77803311F40C94EA0E863411F40C94EC
:102040003A0F883411F40C948B0F08952BB1342F70
:10205000309523233BB1432B3FB7F894FC01680F25
:10206000791FE617F70789F0819198E04BB90000D6
:1020700000C087FF2BB9880F000000C000C000C05F
:102080002BB900C09A9591F7ECCF3FBF08952AB1C4
:10209000242B2AB99B01220F331F620F731F0E944A
:1020A000261087EC90E00197F1F700C0000008953A
:1020B00044E00C94471090936E0180936D01089555
:1020C000E0916D01F0916E01309721F00190F08167
:1020D000E02D099480E00895E0916D01F0916E018A
:1020E000309799F020911F01222359F020914E0240
:1020F00027FF07C0DC012C9111962C93119725E046
:102100002C930280F381E02D09940895E0916D01F4
:10211000F0916E01309739F022E0DC012C930480BD
:10212000F581E02D0994089520916B0130916C01A7
:102130002817390771F090936C0180936B01E0913F
:102140006D01F0916E01309721F00680F781E02D4E
:10215000099408952091690130916A01281739077F
:1021600071F090936A0180936901E0916D01F091A3
:102170006E01309721F00084F185E02D09940895D7
:1021800085B7806885BF85B7806885BF0895089545
:102190000C94C7100C94C8100C94C7100C94C71062
:1021A0000E94C0100E94CC100C94CA1081E00895C7
:1021B0000E94381E0E944E080E940D1F0E94C20CF1
:1021C0000C94CE105F926F927F928F929F92AF92FB
:1021D000BF92CF92DF92EF92FF920F931F93CF9314
:1021E000DF93CDB7DEB72A970FB6F894DEBF0FBEE8
:1021F000CDBF0E94A9080E94D610811111C08FEF97
:1022000089838A831B820E94411E8160782F9D836F
:102210008C8349815A816B818D810E949F1156C0A8
:1022200090E7692E91E0792E00E010E088248394F5
:10223000912C502E802F0E9448096C01F301A1902F
:10224000B1903F01A826B926A114B10431F40F5F63
:102250001F4F0430110569F7D2CF8091FC0181FD39
:102260000E94510980E090E07401082E02C0EE0C3B
:10227000FF1C0A94E2F795012E213F21232B09F13F
:102280008E835F82CE20DF2081E0CD2809F480E0BC
:1022900088870E94411E8160782F9A8789874E81A6
:1022A0005F8168858A850E949F11000F111FF801C8
:1022B000E059FE4F80819181E826F926F182E08283
:1022C00005C001968C30910579F6C1CF0E94B021EE
:1022D0000E94601090916F018917D9F00E946010E0
:1022E00080936F012A960FB6F894DEBF0FBECDBF64
:1022F000DF91CF911F910F91FF90EF90DF90CF90E2
:10230000BF90AF909F908F907F906F905F900C9454
:102310002D032A960FB6F894DEBF0FBECDBFDF9116
:10232000CF911F910F91FF90EF90DF90CF90BF90D2
:10233000AF909F908F907F906F905F900895CF9314
:10234000DF93CDB7DEB72B970FB6F894DEBF0FBE85
:10235000CDBF4F83588769877A878B87DE011196B7
:1023600086E0FD0111928A95E9F785E0FE01379636
:1023700001900D928A95E1F749815A816B817C81A8
:102380008D819E810E94DF182B960FB6F894DEBFD8
:102390000FBECDBFDF91CF910895FC018081918167
:1023A0000E94B31B0895882309F41AC18238C1F42E
:1023B0000E94601081FD14C169E380910D0190912C
:1023C0000E010E948F1D0E94401C2FEF81EE94E0B1
:1023D000215080409040E1F700C0000069E319C03F
:1023E0008338F9F40E94601080FDFAC063E58091A3
:1023F0000D0190910E010E948F1D0E94401C2FEF35
:1024000081EE94E0215080409040E1F700C0000050
:1024100063E580910D0190910E010E949A1D0C942C
:10242000401C8438C1F40E94601082FDD9C067E46A
:1024300080910D0190910E010E948F1D0E94401C01
:102440002FEF81EE94E0215080409040E1F700C0F2
:10245000000067E4DECF9CEF980F913A40F4682FBC
:1024600080910D0190910E010E948F1DD8CF90E2B6
:10247000980F983050F4877091E001C0990F8A95B9
:10248000EAF7892F0E94F51BCACF9BE5980F93307E
:1024900070F4853A29F0863A31F083E890E005C07F
:1024A00081E890E002C082E890E00C94941098E5F6
:1024B000980F973108F08EC0883A09F445C0893AE0
:1024C00009F445C08A3A09F445C08B3A09F445C07D
:1024D0008C3A09F445C08B3B09F445C08C3B09F4A8
:1024E00045C08D3A09F445C0803B09F445C08E3A99
:1024F00009F445C08F3A09F445C0813B09F445C051
:10250000823B09F445C0833B09F445C0843B09F490
:1025100045C0853B09F445C0863B09F445C0873B6F
:1025200009F445C0883B09F445C0893B09F445C01E
:102530008D3B09F445C08E3B09F445C08A3B09F444
:1025400045C080E090E044C082EE90E041C089EE5A
:1025500090E03EC08AEE90E03BC085EB90E038C052
:1025600086EB90E035C083EB90E032C084EB90E0E6
:102570002FC087EB90E02CC08CEC90E029C08DEC54
:1025800090E026C083E891E023C08AE891E020C073
:1025900082E991E01DC084E991E01AC081E292E0F5
:1025A00017C083E292E014C084E292E011C085E299
:1025B00092E00EC086E292E00BC087E292E008C093
:1025C0008FE690E005C080E790E002C08AE292E0EA
:1025D0000C94AA10803F20F00E94B8200C94A521F2
:1025E0000895882309F464C0823879F40E94601049
:1025F00081FF5EC069E380910D0190910E010E9400
:102600008F1D0E94401C69E310C08338B1F40E9402
:10261000601080FF4DC063E580910D0190910E0127
:102620000E948F1D0E94401C63E580910D019091D6
:102630000E010E949A1D0C94401C843879F40E946B
:10264000601082FF35C067E480910D0190910E010A
:102650000E948F1D0E94401C67E4E7CF9CEF980FFB
:10266000913A10F4682FE1CF90E2980F983050F42F
:10267000877091E001C0990F8A95EAF7892F0E942F
:10268000FB1BD9CF9BE5980F933020F480E090E0BE
:102690000C94941098E5980F973120F480E090E026
:1026A0000C94AA10803F20F00E9420210C94A521B8
:1026B0000895882321F00E94F51B0C94401C089576
:1026C000882321F00E94FB1B0C94401C08958F92DC
:1026D0009F92AF92BF92DF92EF92FF920F931F9360
:1026E000CF93DF937C01D62FC72FFC010581029584
:1026F0000F70128111110E94121C0E94EB1B882383
:1027000079F0112369F080E28D0F883048F082E083
:102710000E948A1C0E94EB1B91E0D82ED92601C092
:10272000D12CBC2EB2948FE0B8228B2D90E0FC010E
:10273000E859FF4F0C94F02C8C2F807FCF708823AA
:1027400011F0C295C07F112399F0CC2309F4C3C1C5
:1027500080E28D0F883010F0D11104C08C2F0E94C0
:10276000F51B03C08C2F0E94051C0E94401CB3C1A6
:102770008D2F0E94F112CC2309F4D2C180E28D0F7B
:10278000883010F0D11104C08C2F0E94FB1B03C0B5
:102790008C2F0E940B1C0E94401CC2C18C2F807F7A
:1027A000CF70803211F0C295C07FDD2319F0D13097
:1027B000C9F022C0112371F0002341F0013031F43F
:1027C0000E94251C8C2B0E942D1CAAC10E94251C36
:1027D0008C2B3AC1002319F0013009F4A1C10E94E9
:1027E000361C18C0112321F0063008F099C10EC024
:1027F000053008F095C10EC0112351F0002331F0CF
:10280000F701858180FF67C18F7085838C2F1CC184
:10281000011172C18C2F1EC18C2F869586958370F5
:1028200019F0813061F07CC1112321F08D2F9C2F94
:10283000937002C080E090E00E9494107EC111234A
:1028400021F08D2F9C2F937002C080E090E00E94B9
:10285000AA1073C11123F9F0D53F51F0D63F71F0A2
:10286000D43FA9F4809148029091490281600BC045
:102870008091480290914902826005C0809148028F
:1028800090914902846090934902809348028D2F71
:102890000E94B8201EC0D53F51F0D63F71F0D43F02
:1028A000A9F480914802909149028E7F0BC08091DB
:1028B0004802909149028D7F05C080914802909115
:1028C00049028B7F90934902809348028D2F0E948A
:1028D00020210E94A52131C18C2F837009F04CC0AA
:1028E000111127C12D2F229526952770220F220F17
:1028F0006D2F6F70862F90E0A0E0B0E04C015D017D
:10290000022E04C0880C991CAA1CBB1C0A94D2F786
:10291000D4FF12C08FE090E0A0E0B0E004C0880FC8
:10292000991FAA1FBB1F2A95D2F7BC01CD01609544
:1029300070958095909503C060E070E0CB01C695DE
:10294000C695C370C23051F080F4682979298A296C
:102950009B29C13071F00E94301AEBC06829792997
:102960008A299B290E94421AE4C00E94301AC5019C
:10297000B4010E941E1ADDC0112319F08C2F817042
:1029800001C08695882309F4D4C02D2F2295269561
:102990002770220F220F6D2F6F70862F90E0A0E01E
:1029A000B0E04C015D01022E04C0880C991CAA1CE9
:1029B000BB1C0A94D2F7D4FF12C08FE090E0A0E0D5
:1029C000B0E004C0880F991FAA1FBB1F2A95D2F739
:1029D000BC01CD01609570958095909503C060E035
:1029E00070E0CB01C695C695C370C23051F080F43B
:1029F000682979298A299B29C13071F00E94F51A2A
:102A000098C0682979298A299B290E94071B91C0AF
:102A10000E94F51AC501B4010E94E31A8AC08D2FE5
:102A200090E0FC01E05EF109E531F10508F04FC0EE
:102A3000E858FF4F0C94F02CDF708C2F8F7111230E
:102A400031F00E947C1A8D2F0E94591369C00E9498
:102A50009D1A8D2F0E94601363C0112341F0053031
:102A600008F05EC08C2F8F710E94C21A59C00630C8
:102A700008F056C0F7CF112339F08C2F8F710E94C8
:102A80007C1A4EC01123C9F38C2F8F710E949D1A9E
:102A900047C0112329F08C2F8F710E94671A40C004
:102AA0000E94621A3DC0112349F0CF718C2F0E9401
:102AB0007C1A63E08C2F0E94751C32C081E00E945A
:102AC0008A1C023068F182E00E948A1C29C011230E
:102AD00031F0002391F28D2F0E94D31121C00023E9
:102AE00099F2D93349F4FFEF27EE83E0F15020400B
:102AF0008040E1F700C000008D2F0E94F11210C04D
:102B00004C2F4F706D2FC7010E94CD050E948D196B
:102B100014C04C2F4F706D2FC7010E94D0050DC0FF
:102B200098E0B91631F0B91640F086EF8B0D82307F
:102B300020F40E9460100E942D03DD20E1F00E942D
:102B4000E71B80FD18C0F70112820E94E11B0E9462
:102B50007C1AC7010E94C7150E94E11BDF91CF912B
:102B60001F910F91FF90EF90DF90BF90AF909F90DB
:102B70008F900C949D1ADF91CF911F910F91FF9030
:102B8000EF90DF90BF90AF909F908F9008950F933C
:102B90001F93CF93DF93EC01988189812B813C8136
:102BA000232B31F08F3F31F481E09F3F19F403C0B4
:102BB00081E001C080E080FD13C0CE010E943F0390
:102BC000882371F0688179818A810E94BE1B8C0103
:102BD0000E94191B0E940A1AB801CE010E946713B5
:102BE000DF91CF911F910F9108950E94121C0E94B6
:102BF000221C0E94401C0E9447220E94A52180E0C6
:102C000090E00E94941080E090E00C94AA108091D3
:102C10000D0190910E010E94A51D0C94F5150E94C6
:102C2000021C0C940716E92FE295EF704E2F50E02E
:102C3000FA013297EE30F105B0F4E357FF4F0C94F0
:102C4000F02C803F91F018F4803E68F40EC0843F71
:102C500051F40BC0803E48F0813F29F406C093FB3D
:102C6000882780F9089580E0089581E008950E9402
:102C7000B31B0E9413160895CF93DF9300D000D0AA
:102C80001F92CDB7DEB70F900F900F900F900F905F
:102C9000DF91CF910895CF93DF9300D000D000D083
:102CA000CDB7DEB726960FB6F894DEBF0FBECDBF08
:102CB000DF91CF9108951F93CF93DF93C091790156
:102CC00016E080917A01C81799F0D0E01C9FF001BE
:102CD0001D9FF00D1124E558FE4F40815181628106
:102CE0007381848195810E944B162196C770E9CF2C
:102CF000DF91CF911F9108954091AB015091AC01AC
:102D00006091AD017091AE018091AF019091B001E1
:102D10000C944B16CF938091B00182958F7009F07F
:102D20005FC08091AD01882309F45AC08091790178
:102D3000B0917A017091AB01A091AC014091AE01CC
:102D40005091AF0191E07F3F09F090E0692FC6E01C
:102D50008B1709F445C04115510521F0AF3F21F013
:102D600020E003C021E001C0262F90E020FD35C007
:102D7000C89FF001C99FF00D1124E558FE4F218135
:102D80002A132BC02081271328C02281211125C09E
:102D9000238134812417350710F421503109241B75
:102DA000350B283C3105C8F42091B0012F7020610B
:102DB0002093B00126E0289FF001299FF00D1124F7
:102DC000E058FE4F80818F70806180838BEA91E0B4
:102DD0000E94C715CF910C945B1601968770B8CFEF
:102DE000CF910895AF92BF92CF92DF92EF92FF9270
:102DF0000F931F93CF93DF93CDB7DEB761970FB6D5
:102E0000F894DEBF0FBECDBF8C0185E0F801DE0176
:102E10001D9601900D928A95E1F7D8014C9111967B
:102E20005C9111971296EC903091AB016091AC01DE
:102E30008091AE019091AF01009731F06F3F31F476
:102E400021E03F3F19F403C021E001C020E0B22F90
:102E5000B170BB2E20FD60C1F801C380D480A0906A
:102E6000AD01AA2009F4EEC02091B001C816D90620
:102E700028F0D601A81BB90BCD0104C08095909510
:102E80008C0D9D1DFF24F394883C910580F0F12C5E
:102E9000207F09F09CC07C2DD98AC88A6E2D898933
:102EA0000E943C168BEA91E00E94C7152DC1822F2B
:102EB000807F09F054C0561314C0431312C0FE2C77
:102EC000E1100FC02F7020612093B0010E947C168A
:102ED0008BEA91E00E94C7158091B001F8018583CB
:102EE0005CC1CD2831F05F3F31F481E04F3F19F4F0
:102EF00003C081E001C080E080FD03C081E08E2539
:102F000002C080E090E0F82FF170FF2E80FF1CC01F
:102F10008091790120917A0136E0821709F41AC173
:102F200090E0389FF001399FF00D1124E558FE4FD5
:102F30006181561306C06081461303C06281E612A8
:102F400003C001968770E9CFFE2CEE2009F425C15D
:102F50008091B00181608093B001F12C1EC15613A5
:102F600009C0431307C0E11005C08091B001F8010A
:102F70008583A4C04D875E878D859E850E94371608
:102F8000882379F1EE2069F12091B001822F82959A
:102F90008F7090E0029774F08091AB019091AC013A
:102FA00098878F831986DB86CA862C87CE01079681
:102FB0000E94C71586E0F801ABEAB1E001900D92DE
:102FC0008A95E1F70E948A160E947C160DC056175A
:102FD00071F04D875E878D859E850E943716811121
:102FE0001AC0C8010E94C715FF24F394D6C043132A
:102FF000F0CFE110EECF8091B001F8018583C801D8
:103000000E94C71586E0EBEAF1E0DF011D928A9588
:10301000E9F7FA2CC2C0EE2021F32091B001822FF3
:1030200082958F7090E002972CF28091AB01909185
:10303000AC019A8389831B82DD82CC822E83CE01F0
:103040000196B6CFC816D90628F0F601E81BF90B91
:10305000CF0104C0809590958C0D9D1D883C9105F5
:1030600048F0F12C7C2DD98AC88A6E2D89890E945E
:103070003C164AC0FE2CEE2009F4B3CF561333C0E1
:10308000431331C02091B00120FD24C0822F8295CE
:103090008F70482F50E041155105E1F0D801159689
:1030A0002C9315974F30510549F08F5F982F9295CB
:1030B000907F822F8F70892B15968C93C8010E9468
:1030C000C71586E0F801ABEAB1E001900D928A9550
:1030D000E1F73DC086E0F801ABEAB1E001900D9266
:1030E0008A95E1F75AC04D875E878D859E850E943F
:1030F000371681115FCF8091B00181608093B0015C
:10310000C8010E94C71549C0EBEAF1E086E0DF0183
:103110001D928A95E9F71BC0EE2009F462CF4D8716
:103120005E878D859E850E943716F82E882309F4C8
:1031300058CF86E0F801ABEAB1E001900D928A9594
:10314000E1F78BEA91E00E94CD110E948A160E945D
:103150007C1623C04D875E878D859E850E94B31B9C
:10316000292F22952F70223028F49F7039F0811179
:1031700005C00BC0243028F49F7049F4805E88306D
:1031800020F0C8010E94C715BF2CFB2C06C0D80137
:1031900015969C91907F91F7F8CF8F2D61960FB681
:1031A000F894DEBF0FBECDBFDF91CF911F910F917D
:1031B000FF90EF90DF90CF90BF90AF9008951F9356
:1031C000CF93DF93CDB7DEB72C970FB6F894DEBF61
:1031D0000FBECDBF4F83588769877A878B879C87BF
:1031E000CE0107960E94F2168823D1F09F81888530
:1031F0002A853B85232B31F08F3F31F481E09F3FBF
:1032000019F403C081E001C080E080FD47C04F8118
:10321000588569857A858B859C850E944B163EC0B2
:1032200086E0FE013796DE01119601900D928A9597
:10323000E1F7FF81E8856A857B856115710531F0CD
:10324000EF3F31F481E0FF3F19F403C081E001C09A
:1032500080E080FD23C020917A0130E0C901019611
:10326000877099274091790150E084179507F1F113
:10327000F983EA837D836C8396E0929FD001939FCC
:10328000B00D1124A558BE4FFE01319601900D924C
:103290009A95E1F780937A010E945B1616E080917F
:1032A000790190917A01891771F1189FC001112459
:1032B00085589E4F0E94F216882329F1E0917901EA
:1032C0001E9FF0011124E558FE4F4081518162811B
:1032D0007381848195810E944B168091790190E0E1
:1032E00001968770992780937901D9CF0E940F1694
:1032F00010927A0110927901EBEAF1E086E0DF01A9
:103300001D928A95E9F72C960FB6F894DEBF0FBE92
:10331000CDBFDF91CF911F910895EF92FF920F9350
:103320001F93CF93DF938C01892B09F46CC0F12C90
:10333000EE24E394E8012196F8018491843740F467
:10334000843008F051C0813081F0823019F15BC0C7
:10335000853709F444C0A8F19CE7980F903708F02E
:1033600052C08F770E94F11241C00E5F1F4FFE01C5
:10337000849190E2980F983050F48770FE2D01C030
:10338000FF0F8A95EAF78F2F0E94151C14C00E9428
:10339000D3112DC00E5F1F4FFE01849190E2980F54
:1033A000983060F48770FE2D01C0FF0F8A95EAF710
:1033B0008F2F0E941B1C0E94401C19C00E94F112FA
:1033C00016C00E5F1F4FFE01C491CC2381F08FE920
:1033D0009FE00197F1F700C00000C150F6CF0E5FEB
:1033E0001F4FFE01F49003C00E94D3118E018F2D58
:1033F000882309F49FCFEFE9FFE03197F1F700C090
:1034000000008150F5CFDF91CF911F910F91FF9078
:10341000EF900895089508950C940B1A0C940C1ACB
:103420000E940E1A6093D3017093D4018093D5014A
:103430009093D6010C94F5150C94101A0F931F93CA
:103440000091D3011091D4012091D5013091D60182
:10345000602B712B822B932B1F910F910C94101AC0
:103460000F931F930091D3011091D4012091D501A6
:103470003091D60160237123822393231F910F91F2
:103480000C94101A0F931F930091D3011091D40143
:103490002091D5013091D60160277127822793278B
:1034A0001F910F910C94101A0C940B1A0E94541A2D
:1034B0006093CF017093D0018093D1019093D2019A
:1034C0000C94F51560E070E0CB010C94561A0F9344
:1034D0001F9341E050E060E070E08A019B0104C06E
:1034E000000F111F221F331F8A95D2F7C901B8019F
:1034F0001F910F910C94561A0F931F9341E050E0C7
:1035000060E070E004C0440F551F661F771F8A9566
:10351000D2F78091CF019091D001A091D101B091CB
:10352000D2018A019B01082B192B2A2B3B2BC901A5
:10353000B8011F910F910C94561A0F931F9341E0FD
:1035400050E060E070E004C0440F551F661F771F15
:103550008A95D2F740955095609570958091CF01EE
:103560009091D001A091D101B091D2018A019B012B
:10357000082319232A233B23C901B8011F910F9166
:103580000C94561A0F931F9341E050E060E070E0F6
:1035900004C0440F551F661F771F8A95D2F780918C
:1035A000CF019091D001A091D101B091D2018A01B7
:1035B0009B01082719272A273B27C901B8011F911A
:1035C0000F910C94561A0F931F930091CF011091F5
:1035D000D0012091D1013091D201602B712B822B2F
:1035E000932B1F910F910C94561A0F931F930091D8
:1035F000CF011091D0012091D1013091D2016023EF
:103600007123822393231F910F910C94561A0F93C9
:103610001F930091CF011091D0012091D1013091E1
:10362000D20160277127822793271F910F910C9455
:10363000561A08952CE0929F800D1124E82FE695EC
:10364000E695E695877051E001C0550F8A95EAF737
:1036500085E0E89FF0011124EF54FE4F20E030E0B8
:1036600070E04081CB01022E02C0969587950A94A6
:10367000E2F78170819584278523842781932F5FCA
:103680003F4F2530310569F708952CE0929F800D5A
:103690001124682F669566956695982F977085E03A
:1036A000689FB001112440E050E080E0FB01E40F8E
:1036B000F51FEF54FE4F208130E0092E02C03695F1
:1036C00027950A94E2F721703327042E01C0220FB8
:1036D0000A94EAF7822B4F5F5F4F4530510531F76F
:1036E0000895BF92CF92DF92EF92FF920F931F93B4
:1036F000CF93DF938C01C090CF01D090D001E090A8
:10370000D101F090D2018091D3019091D401A09188
:10371000D501B091D601C82AD92AEA2AFB2ACFE1DD
:10372000D0E0D701C6010C2E04C0B695A795979599
:1037300087950A94D2F780FD04C0219790F7B12CA9
:1037400007C0BC2EB8018C2F0E94EC050197A9F38D
:103750008B2DDF91CF911F910F91FF90EF90DF9014
:10376000CF90BF900895CF93DF93EC010E94711B1F
:10377000BE010E94EC05DF91CF9108951F93CF9376
:10378000DF93EB0190917801992321F0CB010E9406
:10379000B31B13C0882349F0CB010E94711B182F63
:1037A000682FCE010E941A1B04C0CB010E94451B4A
:1037B000182FBE01812F0E94EC05DF91CF911F9140
:1037C00008958091D7018595859585950895809177
:1037D000D701877008959091D701977081E009F41F
:1037E00080E008958091FB0108959091FB01892B61
:1037F0008093FB01089580959091FB01892380932C
:10380000FB0108951092FB0108959091FA01892B14
:103810008093FA01089580959091FA01892380930D
:10382000FA0108951092FA0108959091F901892BF7
:103830008093F901089580959091F90189238093EF
:10384000F90108951092F90108958091D801089521
:1038500008950C94281C0C94291C9091D801981759
:1038600021F08093D8010C942B1C08958091D801ED
:10387000882329F01092D80180E00C942B1C089525
:10388000E0910D01F0910E018091FB018083E091A8
:103890000D01F0910E0190818091FA01892B8083B6
:1038A000E0910D01F0910E0190818091F901892B39
:1038B00080838091D801882381F0E0910D01F091FF
:1038C0000E019081892B808380910D0190910E01D2
:1038D0000E94291D81110E94361C80910D0190913A
:1038E0000E010C946C100C94281C98E0899F900198
:1038F0001124262B2093D7010E947C1A8091D70196
:103900008595859585950C94731C1092D70180E060
:103910000C94731C2091D701809582238093D7014A
:10392000982F977079F430E0482F082E000C550B33
:103930002417350739F08595859585950E949D1A40
:103940000C94851C089580E090E00E94112D21E0E8
:103950008D3E9E4F09F020E0822F089582E090E096
:103960000C94032D682F82E090E00C94172D83E0D7
:1039700090E00C94032D682F83E090E00C94172DB9
:1039800084E090E00C94032D682F84E090E00C9488
:10399000172DAB01BC018FE090E00C94292DAB01F9
:1039A000BC0183E190E00C94292D60E070E0CB0134
:1039B0000C94CF1C60E070E0CB010E94C91C0C94F9
:1039C000D51C6DEE7EEF80E090E00E94352D60E02A
:1039D00082E090E00E94172D60E083E090E00E947A
:1039E000172D1092D3011092D4011092D50110928C
:1039F000D60160E084E090E00E94172D60E085E051
:103A000090E00E94172D60E086E090E00E94172D64
:103A10006FEF87E090E00E94172D40E050E0BA0180
:103A200088E090E00E94292D60E08DE090E00E9407
:103A3000172D40E050E0BA0188E190E00E94292D66
:103A400060E087E190E00E94172D0C94DA1C0C9442
:103A5000E11CFC01329680911F01882331F0809196
:103A60004E0287FF02C09EE101C096E080E09150C7
:103A700028F021912223D9F38F5FF9CF08959C017B
:103A8000FC0132969FEF80E04191461789F09F3FFD
:103A900019F4411101C0982F8F5F8630A9F79F3F1D
:103AA00039F0F901E90FF11D97FDFA956283089548
:103AB00008959C012A5F3F4FFC014281461301C0DB
:103AC0001282019682179307B9F70895262F26953B
:103AD000269526952E3168F4FC01E20FF11D6770E2
:103AE00021E030E001C0220F6A95EAF78281282B9D
:103AF00022830895262F2695269526952E3170F43B
:103B0000FC01E20FF11D677021E030E001C0220FDF
:103B10006A95EAF7209582812823228308952091CF
:103B20001F01222329F020914E0227FD0C94661DCF
:103B30000C943F1D20911F01222329F020914E0259
:103B400027FD0C947A1D0C94591D20911F01FC0136
:103B50003296222331F080914E0287FF02C08EE11F
:103B600001C086E0DF011D928A95E9F70895089566
:103B70000C94B71D0C94B71DCF930E94BA1D0E94E0
:103B8000A9080E94B81DC0E08C2F0E944809892B0B
:103B900029F4CF5FC430C1F780E001C081E0CF914C
:103BA00008950C94B71D0C94D11D0E94D31D8091D3
:103BB0005402843049F11092FD0120E488E190E044
:103BC0000FB6F894A895809360000FBE2093600014
:103BD00080E00E942D030E94D31D83B7817F846003
:103BE00083BF83B7816083BF7894889583B78E7FC6
:103BF00083BF0FB6F894A895809160008861809388
:103C00006000109260000FBE08950C94B71D0E94D2
:103C10000F160E9460100E942D030C94051E1F9227
:103C20000F920FB60F9211248F939F93AF93BF9370
:103C30008091FD01811113C080914A0290914B0245
:103C4000A0914C02B0914D024196A11DB11D8093EF
:103C50004A0290934B02A0934C02B0934D02BF9145
:103C6000AF919F918F910F900FBE0F901F9018955D
:103C700082E084BD93E095BD9AEF97BD80936E007E
:103C800008952FB7F89480914A0290914B02A09129
:103C90004C02B0914D022FBF0895CF92DF92EF9268
:103CA000FF920F931F932FB7F89440914A025091BF
:103CB0004B0260914C0270914D022FBF6A017B0153
:103CC000EE24FF248C0120E030E0C016D106E2068D
:103CD000F30610F4415051099A01281B390BC90110
:103CE0001F910F91FF90EF90DF90CF9008957894FF
:103CF0001F920F920FB60F9211248F939F93AF9341
:103D0000BF9380914A0290914B02A0914C02B091D6
:103D10004D020196A11DB11D80934A0290934B0262
:103D2000A0934C02B0934D02BF91AF919F918F91A0
:103D30000F900FBE0F901F90189581E08093E000C8
:103D400080E28093D8001092C9008FE19EE4019731
:103D5000F1F700C0000087E090EBDC0180935D028A
:103D600090935E02A0935F02B09360029CE088E1B2
:103D70000FB6F894A895809360000FBE90936000F2
:103D8000FFCFAF92BF92CF92DF92EF92FF920F934D
:103D90001F93CF93C0E0CC24C394D12CE82EF12CF8
:103DA0008C2F0E9448095C0100E010E0C601002E43
:103DB00002C0880F991F0A94E2F78A219B21892B60
:103DC00031F40F5F1F4F0C30110581F70AC0602FCF
:103DD0007C2F80E00E94D105E816F90691F781E07A
:103DE00004C0CF5FC430E1F680E0CF911F910F9106
:103DF000FF90EF90DF90CF90BF90AF900895CF935A
:103E0000C82F8CE20E94C11E882321F08C2FCF91F5
:103E10000C94C11E80E0CF910895CF930E94A31C03
:103E2000811102C00E94271DC5E6C15049F00E94C1
:103E3000A9088FE39CE90197F1F700C00000F5CFD6
:103E400089E20E94FF1E81110FC18AE20E94FF1EBB
:103E500081110E94271D85E00E94FF1E81110E9492
:103E60009D1E0E94AE1C8093FC0187E00E94FF1EF5
:103E70008823A9F18BE10E94FF1E882351F08091D5
:103E8000FC0181FB222720F991E0922790FB81F928
:103E90000EC08EE00E94FF1E882361F08091FC011D
:103EA00082FB222720F991E0922790FB82F98093F0
:103EB000FC0115C080E10E94FF1E9091FC01882347
:103EC00041F093FB222720F981E0822780FB93F9C0
:103ED00004C0892F809580FB90F99093FC0180911C
:103EE000FC010E94B21C0E94C01C90E090934F0203
:103EF00080934E0280EE0E94FF1E882341F0809145
:103F00004E02982F909590FB80F980934E0289E3A2
:103F10000E94FF1E882359F080914E0281FB2227C8
:103F200020F991E0922790FB81F980934E0282EE76
:103F30000E94FF1E882359F080914E0282FB2227A7
:103F400020F991E0922790FB82F980934E0286EE51
:103F50000E94FF1E882359F080914E0283FB222786
:103F600020F991E0922790FB83F980934E0283EE33
:103F70000E94FF1E882359F080914E0284FB222765
:103F800020F991E0922790FB84F980934E0285E31B
:103F90000E94FF1E882359F080914E0285FB222744
:103FA00020F991E0922790FB85F980934E0281E3FE
:103FB0000E94FF1E882359F080914E0286FB222723
:103FC00020F991E0922790FB86F980934E0281E1DF
:103FD0000E94FF1E882359F080914E0287FB222702
:103FE00020F991E0922790FB87F980934E0280910F
:103FF0004E020E94C41C87E20E94FF1EC82F8EE161
:104000000E94FF1E8111C2608FE10E94FF1E81117C
:10401000C46080E20E94FF1E8111C86081E20E949C
:10402000FF1E8111C06182E20E94FF1E8111C062E9
:1040300083E20E94FF1E8111C06484E20E94FF1E81
:10404000882311F0C06802C0CC2329F08C2F0E9475
:10405000BB1C6C2F03C00E94B71C682F70E080E06F
:1040600090E0CF910C941C1ACF910895809100029A
:1040700080FF0BC06091120185E0689FB0011124A0
:1040800075956795759567952BC081FF09C06091FF
:10409000120185E0689FB00111247595679520C0D5
:1040A00082FF07C06091120185E0689FB001112472
:1040B00017C0909101029923D1F0609111019617D8
:1040C00088F72091120185E0289F90011124929F8A
:1040D000A001939F500D112470E0CA010E94DC2CB6
:1040E0006038710540F46115710519F406C065E08A
:1040F00070E0862F08958FE7089581E008958091FC
:10410000000280FF08C06091100170E0759567950E
:104110007595679521C081FF06C06091100170E020
:104120007595679519C082FF04C06091100170E019
:1041300010C090910102992399F060910F01961798
:10414000A0F780911001899FC001112470E00E94A6
:10415000DC2C6038710540F46115710519F406C056
:1041600061E070E0862F08958FE7089581E008955B
:10417000803F21F40E943620819504C0813F29F4BC
:104180000E943620809305020895823F21F40E9408
:104190003620819504C0833F29F40E943620809305
:1041A00004020895893F19F40E947F2005C08A3FC8
:1041B00031F40E947F2081958093060208958B3F01
:1041C00021F40E947F20819504C08C3F29F40E9435
:1041D0007F20809307020895843F21F48091030299
:1041E000816017C0853F21F480910302826011C075
:1041F000863F21F48091030284600BC0873F21F445
:1042000080910302886005C0883F31F480910302E9
:1042100080618093030208958D3F21F48091000214
:1042200081600BC08E3F21F480910002826005C046
:104230008F3F29F4809100028460809300020895EA
:10424000803F39F48091050287FF6CC0109205020F
:1042500069C0813F29F4809105021816BCF362C041
:1042600090910402823F29F497FF5CC010920402EF
:1042700059C0833F19F41916CCF354C0893F41F457
:104280008091060218160CF04DC0109206024AC02A
:104290008A3F29F48091060287FF44C0F6CF8B3F06
:1042A00039F48091070287FF3DC0109207023AC09F
:1042B0008C3F29F4809107021816BCF333C0843F69
:1042C00021F4809103028E7F17C0853F21F48091F5
:1042D00003028D7F11C0863F21F4809103028B7F02
:1042E0000BC0873F21F480910302877F05C0883F80
:1042F00031F4809103028F7E8093030213C08D3FBF
:1043000021F4809100028E7F0BC08E3F21F48091BA
:1043100000028D7F05C08F3F29F4809100028B7FC2
:10432000809300028091040281110EC080910502E9
:1043300081110AC080910602811106C08091070296
:10434000811102C010920102089582E092E00E9461
:1043500086100E94411E9093FF018093FE010895F4
:104360001F93CF93DF938091FE019091FF010E94F4
:104370004D1EAC0190910102992321F0209113016F
:1043800030E006C0209114018AE0289F900111249A
:104390004217530708F477C080910402C0910502C8
:1043A000D091060210910702811107C0C11167C0A8
:1043B000D11165C0111163C066C09F3F19F09F5FA6
:1043C00090930102181624F40E9436208093040270
:1043D0008091040287FF05C00E943620819580935A
:1043E00004021C1624F40E9436208093050280915A
:1043F000050287FF05C00E94362081958093050243
:10440000309104023323C1F0209105022223A1F050
:1044100045EB3403C0011124892F911101C081E0C3
:104420008093040235EB2303C0011124892F9111DD
:1044300001C081E0809305021D1624F40E947F20B4
:10444000809306028091060287FF05C00E947F20AC
:10445000819580930602111624F40E947F20809398
:1044600007028091070287FF05C00E947F20819587
:1044700080930702DF91CF911F910C94A5219F3F5C
:1044800009F09DCFAECFDF91CF911F910895E2E06B
:10449000F2E086E0DF011D928A95E9F710920102B1
:1044A0001092000208958091280208950F931F939F
:1044B000CF93DF9300D01F92CDB7DEB78C010E945F
:1044C000C424823011F0843021F584E089831B8379
:1044D0000A8382E08093E9008FEF9091E800815099
:1044E00095FD06C095ED9A95F1F700008111F5CF85
:1044F0008091E80085FF0DC040E050E063E070E08F
:10450000CE0101960E94E1248091E8008E7780938D
:10451000E8000F900F900F90DF91CF911F910F91B6
:104520000895CF93DF9300D01F92CDB7DEB72091CF
:104530005402243031F523E02983805891099B836C
:104540008A8382E08093E9008FEF9091E8008150A8
:1045500095FD06C095ED9A95F1F700008111F5CF14
:104560008091E80085FF0DC040E050E063E070E01E
:10457000CE0101960E94E1248091E8008E7780931D
:10458000E8000F900F900F90DF91CF910895CF9397
:10459000DF93EC010E94C424823011F08430F9F4DE
:1045A00082E08093E9008FEF9091E800815095FDC3
:1045B00006C095ED9A95F1F700008111F5CF809135
:1045C000E80085FF0CC040E050E066E070E0CE01FE
:1045D0000E94E1248091E8008E778093E800DF91CB
:1045E000CF910895CF93DF93EC010E94C4248230D1
:1045F00011F08430D9F580911F01882339F0809122
:104600004E0287FF03C060E282E002C068E081E002
:104610008093E9008FEF9091E800815095FD06C0EE
:1046200095ED9A95F1F700008111F5CF8091E800A2
:1046300085FF1CC080911F01811105C040E050E042
:1046400068E070E003C070E040E050E0CE010E94FE
:10465000E1248091E8008E778093E80080E2FE01FB
:10466000A8E0B2E001900D928A95E1F7DF91CF9139
:10467000089580915302811109C00E9472260E9400
:10468000CF268091E20084608093E200089510922A
:1046900053020895089508950C94071E42E061ECBA
:1046A00081E00E94EB2542E261EC82E00C94EB2574
:1046B00080915602833009F460C030F4813071F08B
:1046C000823009F499C008958A3009F485C08B308E
:1046D00009F46BC0893009F0A7C020C08091550251
:1046E000813A09F0A1C08091E800877F8093E800BB
:1046F0008091590290915A02892B21F460E288E05E
:1047000092E003C060E080E090E070E00E942C2521
:104710008091E8008B778093E8000895809155029E
:10472000813209F081C08091590290915A0202971A
:1047300008F07AC08091E800877F8093E80080913C
:10474000E80082FD05C0809154028111F8CF6CC051
:104750002091F3008091F20090E0922B029729F4CF
:104760008091F1008B7F813021F48091F100809362
:1047700028028091E8008B7753C080915502813ADE
:1047800009F052C08091590290915A02892B09F088
:104790004BC08091E800877F8093E8008091E8001B
:1047A00080FFFCCF80911F0136C08091550281327D
:1047B000D9F58091590290915A02892BA9F58091DF
:1047C000E800877F8093E8000E94202680915702AE
:1047D00080931F010C940F1680915502813221F5B0
:1047E0008091E800877F8093E8000E9420268091D6
:1047F000580280932902089580915502813AA1F4CC
:104800008091E800877F8093E8008091E80080FF36
:10481000FCCF809129028093F1008091E8008E778F
:104820008093E8000C942026089584B7877F84BF86
:104830000FB6F894A895809160008861809360001D
:10484000109260000FBE80E88093610010926100BA
:104850000E94D0100E9472260E94CF268091E20012
:1048600084608093E20078940E9464290E94D810AA
:1048700085E191E00E945B1080915402853069F4DB
:104880000E94D51D809152028823B1F30E94BC1D65
:10489000882391F30E94CB24EFCF0E94E2100E9464
:1048A000E60FEACF0C945424292F33272330310507
:1048B000C9F060F42130310581F02230310509F072
:1048C0004AC08BE390E022E534E049C02132310553
:1048D00011F12232310579F13EC082E190E02DE8FC
:1048E00034E03DC099278130910561F040F082307D
:1048F000910559F0039779F5ECE2F4E008C0EEE495
:10490000F4E005C0E2E4F4E002C0E2E3F4E0849104
:1049100090E09F0124C06115710541F0613071057F
:10492000D1F489E090E02DE734E019C089E090E00F
:1049300024E634E014C06115710541F06130710561
:1049400051F480EC90E02FE934E009C080E490E07D
:104950002FE535E004C080E090E020E030E0FA018F
:104960003183208308950895CF93C82F0E94B324E4
:10497000C0932A02CF91089580915402843011F09F
:1049800081E0089582E0089580912A02811102C099
:104990000C94BC24089580E189BD82E189BD09B4ED
:1049A00000FEFDCF8091D8008F7D8093D80080914C
:1049B000E00082608093E0008091E00081FDFCCF08
:1049C0000895CF92DF92EF92FF920F931F93CF93B0
:1049D000DF93EC018B017A010E943F26811133C0E5
:1049E000E114F10439F0F70180819181081B190B62
:1049F000C80FD91FC12CD12C0115110519F18091B7
:104A0000E80085FD16C08091E8008E778093E8006D
:104A1000E114F10449F0F70180819181C80ED91E9B
:104A2000D182C08285E00FC00E943F26882321F3F7
:104A30000AC089918093F10001501109FFEFCF1A4C
:104A4000DF0ADACF80E0DF91CF911F910F91FF90C5
:104A5000EF90DF90CF90089520915B0230915C023F
:104A60002617370748F06115710539F42091E800E1
:104A70002E772093E80001C0B901FC0120E0611508
:104A8000710579F1809154028823F1F18530F1F1BB
:104A90008091E80083FD3CC08091E80082FD2EC03B
:104AA0008091E80080FFEBCF2091F3008091F2002D
:104AB00090E0922B6115710551F08830910538F422
:104AC00021912093F100615071090196F3CF21E00B
:104AD000089709F020E08091E8008E778093E80045
:104AE000CECF2111CFCF0AC080915402882361F02C
:104AF000853061F08091E80083FD0AC08091E80074
:104B000082FFF2CF80E0089582E0089583E0089567
:104B100081E0089520915B0230915C0226173707EF
:104B200048F06115710539F42091E8002E77209343
:104B3000E80001C0B901FC0120E06115710591F1A7
:104B400080915402882309F440C0853009F43FC0A5
:104B50008091E80083FD3DC08091E80082FD2FC078
:104B60008091E80080FFE9CF2091F3008091F2006E
:104B700090E0922B6115710559F08830910540F451
:104B800024912093F1003196615071090196F2CF82
:104B900021E0089709F020E08091E8008E7780936B
:104BA000E800CBCF2111CCCF0AC0809154028823DA
:104BB00061F0853061F08091E80083FD0AC080914A
:104BC000E80082FFF2CF80E0089582E0089583E05C
:104BD000089581E00895982F973068F59093E90043
:104BE000981739F07091EC002091ED005091F00091
:104BF00003C0242F762F50E021FD02C09F5FECCF31
:104C00003091EB003E7F3093EB003091ED003D7F23
:104C10003093ED003091EB0031603093EB007093F6
:104C2000EC002093ED005093F0002091EE0027FD62
:104C3000E5CF80E008958F708093E90081E00895CA
:104C40008091550287FF11C08091E80082FD05C068
:104C5000809154028111F8CF11C08091E8008B77C8
:104C60000BC080915402882349F08091E80080FFB6
:104C7000F8CF8091E8008E778093E8000895209126
:104C8000E4003091E50095E64091EC00842F8170BE
:104C900040FF23C08091E80080FD1DC08091540238
:104CA000882399F0853099F08091EB0085FD11C043
:104CB0004091E4005091E5002417350729F3915005
:104CC00011F09A01E1CF84E0089582E0089583E035
:104CD000089581E0089580E008954091E80042FF42
:104CE000DDCF08950E94E0260E94E826E0EEF0E085
:104CF000808181608083E8EDF0E080818F77808320
:104D000019BCA7EDB0E08C918E7F8C9380818F7E53
:104D100080831092530208950F931F93CF93DF93D4
:104D20000E94E0260E94E826C8EDD0E088818F77B7
:104D3000888388818068888388818F7D888319BC77
:104D4000109254021092500210925202109251028C
:104D500000EE10E0F80180818B7F80838881816084
:104D6000888342E060E080E00E94EB25E1EEF0E025
:104D700080818E7F8083E2EEF0E08081816080839D
:104D8000808188608083F80180818E7F8083888124
:104D900080618883DF91CF911F910F910895E8ED95
:104DA000F0E080818F7E8083E7EDF0E0808181609C
:104DB000808384E082BF81E0809353020C948C2630
:104DC000E8EDF0E080818E7F80831092E20008950C
:104DD0001092DA001092E10008951F920F920FB620
:104DE0000F9211242F933F934F935F936F937F9371
:104DF0008F939F93AF93BF93EF93FF938091E100C5
:104E000082FF0BC08091E20082FF07C08091E10029
:104E10008B7F8093E1000E9463298091DA0080FFFC
:104E20001FC08091D80080FF1BC08091DA008E7F68
:104E30008093DA008091D90080FF0DC080E189BDA8
:104E400082E189BD09B400FEFDCF81E08093540268
:104E50000E94392305C019BC109254020E944723B6
:104E60008091E10080FF19C08091E20080FF15C0B1
:104E70008091E2008E7F8093E2008091E200806169
:104E80008093E2008091D80080628093D80019BCA2
:104E900085E0809354020E944B238091E10084FFBF
:104EA00030C08091E20084FF2CC080E189BD82E1A6
:104EB00089BD09B400FEFDCF8091D8008F7D80931D
:104EC000D8008091E1008F7E8093E1008091E20024
:104ED0008F7E8093E2008091E20081608093E20007
:104EE00080915002882311F084E007C08091E30094
:104EF00087FD02C081E001C083E0809354020E94DC
:104F00004C238091E10083FF29C08091E20083FF60
:104F100025C08091E100877F8093E10082E080934B
:104F20005402109250028091E1008E7F8093E10044
:104F30008091E2008E7F8093E2008091E2008061A8
:104F40008093E20042E060E080E00E94EB258091E7
:104F5000F00088608093F0000E944A23FF91EF9157
:104F6000BF91AF919F918F917F916F915F914F9181
:104F70003F912F910F900FBE0F901F9018951F9289
:104F80000F920FB60F9211242F933F934F935F937D
:104F90006F937F938F939F93AF93BF93CF93DF9341
:104FA000EF93FF93C091E900CF708091EC00D82F70
:104FB000D17080FDD0E81092E9008091F000877FE9
:104FC0008093F00078940E9403281092E900809169
:104FD000F00088608093F000CD2BCF70C093E90083
:104FE000FF91EF91DF91CF91BF91AF919F918F9101
:104FF0007F916F915F914F913F912F910F900FBED5
:105000000F901F9018951F93CF93DF93CDB7DEB706
:10501000AA970FB6F894DEBF0FBECDBFE5E5F2E06C
:105020008091F100819322E0ED35F207C9F70E94EB
:1050300058238091E80083FF2EC180915502909102
:105040005602492F50E04A30510508F024C1FA01B8
:10505000E556FF4F0C94F02C803821F0823809F08F
:105060001AC108C08091510290915202992389F08F
:1050700082600FC0809159028F70873008F00BC199
:105080008093E9008091EB0085FB882780F91092DE
:10509000E9009091E800977F9093E8008093F100F9
:1050A0001092F100D1C0282F2D7F09F0F4C0882381
:1050B00019F0823061F0EFC080915702813009F021
:1050C000EAC0933009F080E0809352022EC08091B4
:1050D000570281112AC0809159028F702FEF280F3B
:1050E000263008F0D8C08093E9002091EB0020FF23
:1050F0001CC0933021F48091EB00806214C0909129
:10510000EB0090619093EB0021E030E0A90102C038
:10511000440F551F8A95E2F74093EA001092EA0087
:105120008091EB0088608093EB001092E900809101
:10513000E800877F8093E8000E942026ACC08111A0
:10514000AAC0109157021F778091E3008078812BCD
:105150008093E3008091E800877F8093E8000E94BD
:1051600020268091E80080FFFCCF8091E3008068DA
:105170008093E300111102C082E001C083E08093BC
:10518000540289C08058823008F085C0809157024F
:10519000909158028C3D53E0950779F583E08A831E
:1051A0008AE289834FB7F894DE01139620E03EE04F
:1051B00051E2E32FF0E050935700E49120FF03C049
:1051C000E295EF703F5FEF708E2F90E0EA3010F0C5
:1051D000C79601C0C0968D939D932F5F243149F7E8
:1051E0004FBF8091E800877F8093E8006AE270E01B
:1051F000CE0101960E942C2516C060915902709133
:105200005A02AE014F5F5F4F0E945224BC01892BAE
:1052100009F441C09091E800977F9093E80089815C
:105220009A810E948A258091E8008B778093E8001C
:1052300032C0803881F58091E800877F8093E80054
:10524000809150028093F1008091E8008E7772CFB8
:10525000811121C08091570290915802992702979D
:10526000D4F48091E800877F8093E8008091570212
:10527000809350020E94202680915002811106C026
:105280008091E30087FD02C081E001C084E080934B
:1052900054020E944E238091E80083FF0AC080914F
:1052A000E800877F8093E8008091EB008062809324
:1052B000EB00AA960FB6F894DEBF0FBECDBFDF910C
:1052C000CF911F9108950895CF9380915402882320
:1052D000A1F0C091E900CF709091EC00892F81700E
:1052E00090FD80E8C82B1092E9008091E80083FDD2
:1052F0000E940328CF70C093E900CF9108955058C1
:10530000BB27AA270E9497290C94422B0E94342B7A
:1053100038F00E943B2B20F039F49F3F19F426F41B
:105320000C940A2B0EF4E095E7FB0C94042BE92F68
:105330000E94532B58F3BA17620773078407950727
:1053400020F079F4A6F50C94752B0EF4E0950B2E55
:10535000BA2FA02D0B01B90190010C01CA01A001C7
:105360001124FF27591B99F0593F50F4503E68F122
:105370001A16F040A22F232F342F4427585FF3CF63
:10538000469537952795A795F0405395C9F77EF434
:105390001F16BA0B620B730B840BBAF09150A1F07D
:1053A000FF0FBB1F661F771F881FC2F70EC0BA0F03
:1053B000621F731F841F48F4879577956795B7958B
:1053C000F7959E3F08F0B0CF9395880F08F0992786
:1053D000EE0F9795879508950E94002A0C94422B12
:1053E0000E943B2B58F00E94342B40F029F45F3F81
:1053F00029F00C94042B51110C94762B0C940A2B4D
:105400000E94532B68F39923B1F3552391F3951B15
:10541000550BBB27AA2762177307840738F09F5FD5
:105420005F4F220F331F441FAA1FA9F335D00E2E42
:105430003AF0E0E832D091505040E695001CCAF7AF
:105440002BD0FE2F29D0660F771F881FBB1F261772
:1054500037074807AB07B0E809F0BB0B802DBF0149
:10546000FF2793585F4F3AF09E3F510578F00C9418
:10547000042B0C94762B5F3FE4F3983ED4F386958F
:1054800077956795B795F7959F5FC9F7880F911D39
:105490009695879597F90895E1E0660F771F881F25
:1054A000BB1F621773078407BA0720F0621B730BD8
:1054B000840BBA0BEE1F88F7E095089529F416F0D7
:1054C0000C94042B0C94752B0C940A2B0E945B2BD0
:1054D000A8F39638A0F707F80F92E8942BE33AEA7E
:1054E00048EB5FE70E94082C0F920F920F924DB786
:1054F0005EB70F920E94BE2BEAE4F1E00E940D2BF2
:105500004F915F91EF91FF91E595EE1FFF1F49F0DD
:10551000FE57E0684427EE0F441FFA95E1F74195E6
:10552000550B0E94882B0F9007FE0C947C2B08953E
:105530000E945B2B88F09F5798F0B92F9927B7519D
:10554000B0F0E1F0660F771F881F991F1AF0BA9527
:10555000C9F714C0B13091F00E94752BB1E00895E5
:105560000C94752B672F782F8827B85F39F0B93FD7
:10557000CCF3869577956795B395D9F73EF49095DA
:105580008095709561957F4F8F4F9F4F0895E89458
:1055900009C097FB3EF490958095709561957F4F7B
:1055A0008F4F9F4F9923A9F0F92F96E9BB27939529
:1055B000F695879577956795B795F111F8CFFAF439
:1055C000BB0F11F460FF1BC06F5F7F4F8F4F9F4F6A
:1055D00016C0882311F096E911C0772321F09EE8C8
:1055E000872F762F05C0662371F096E8862F70E02E
:1055F00060E02AF09A95660F771F881FDAF7880F08
:105600009695879597F9089597F99F6780E870E0D8
:1056100060E008959FEF80EC0895DF93CF931F9390
:105620000F93FF92EF92DF927B018C01689406C08A
:10563000DA2EEF010E94052CFE01E894A591259138
:10564000359145915591A6F3EF010E949729FE01EE
:105650009701A801DA9469F7DF90EF90FF900F911E
:105660001F91CF91DF91089500240A941616170612
:1056700018060906089500240A9412161306140643
:1056800005060895092E0394000C11F4882352F0A6
:10569000BB0F40F4BF2B11F460FF04C06F5F7F4F5E
:1056A0008F4F9F4F089557FD9058440F551F59F045
:1056B0005F3F71F04795880F97FB991F61F09F3FFF
:1056C00079F087950895121613061406551FF2CF28
:1056D0004695F1DF08C0161617061806991FF1CF78
:1056E00086957105610508940895E894BB2766279F
:1056F0007727CB0197F908959B01AC0160E070E03A
:1057000080E89FE30C94EC290C94042B0C94672CF8
:105710000E945B2BD8F39923C9F3940F511DA3F377
:105720009150504094F059F0882332F0660F771F63
:10573000881F91505040C1F79E3F51052CF7880FAC
:10574000911D9695879597F908955F3FACF0983E27
:105750009CF0BB27869577956795B79508F4B1605F
:105760009395C1F7BB0F58F711F460FFE8CF6F5F57
:105770007F4F8F4F9F4FE3CF0C94762BFA01DC01C4
:10578000AA0FBB1F9B01AC01BF5728F42227332768
:105790004427507820C0B75190F4AB2F0024469591
:1057A00037952795011CA395D2F3002071F0220FA5
:1057B000331F441FB395DAF30ED00C947F29613068
:1057C0007105A0E88A07B94630F49B01AC01662751
:1057D000772788279078309621F020833183428381
:1057E000538308950E94052C0C94422B0E94342B65
:1057F00038F00E943B2B20F0952311F00C94042BE1
:105800000C940A2B11240C94762B0E94532B70F3CA
:10581000959FC1F3950F50E0551F629FF001729F55
:10582000BB27F00DB11D639FAA27F00DB11DAA1F64
:10583000649F6627B00DA11D661F829F2227B00DB1
:10584000A11D621F739FB00DA11D621F839FA00D3C
:10585000611D221F749F3327A00D611D231F849F8C
:10586000600D211D822F762F6A2F11249F575040E3
:105870009AF0F1F088234AF0EE0FFF1FBB1F661F5E
:10588000771F881F91505040A9F79E3F510580F027
:105890000C94042B0C94762B5F3FE4F3983ED4F3E6
:1058A000869577956795B795F795E7959F5FC1F7CB
:1058B000FE2B880F911D9695879597F908959F93D4
:1058C0000E94772C0F9007FCEE5F0C94A02C9F3F5A
:1058D00031F0915020F4879577956795B795880FAB
:1058E000911D9695879597F908950C940A2B0E941F
:1058F0005B2BD8F3E894E0E0BB279F57F0F02AED4C
:105900003FE049EC06C0EE0FBB0F661F771F881FF4
:1059100028F0B23A62077307840728F0B25A620B84
:10592000730B840BE3959A9572F7803830F49A954F
:10593000BB0F661F771F881FD2F790480C94692C05
:10594000EF93E0FF07C0A2EA2AED3FE049EC5FEBEE
:105950000E9497290E94422B0F90039401FC9058BB
:10596000E2E7F1E00C94B42C9F938F937F936F93B5
:10597000FF93EF939B01AC010E94F22BEF91FF91FB
:105980000E940D2B2F913F914F915F910C94F22B20
:10599000AA1BBB1B51E107C0AA1FBB1FA617B70755
:1059A00010F0A61BB70B881F991F5A95A9F7809571
:1059B0009095BC01CD01089597FB072E16F4009435
:1059C00007D077FD09D00E94C82C07FC05D03EF413
:1059D000909581959F4F0895709561957F4F08959B
:1059E000EE0FFF1F0590F491E02D0994FC0141504A
:1059F000504030F001900616D1F73197CF0108954D
:105A0000882799270895F999FECF92BD81BDF89A0C
:105A1000992780B50895A6E1B0E044E050E00C94E9
:105A20003D2DA8E1B0E042E050E00C943D2D262F42
:105A3000F999FECF92BD81BDF89A019700B4021684
:105A400039F01FBA20BD0FB6F894FA9AF99A0FBE32
:105A500008950396272F0E94182D0E94172D252F99
:105A60000E94182D242F0C94182D0196272F0E9488
:105A7000182D0C94172DDC01CB01FC01F999FECFF8
:105A800006C0F2BDE1BDF89A319600B40D924150C6
:0A5A90005040B8F70895F894FFCFD6
:105A9A00010201191A1B1C1D1E1F202122D90128CF
:105AAA0008140A321E5322F222C7229122562201D8
:105ABA00F6F767663635349796959091F0F1F4F5D6
:00000001FF
